:04000000ADEF01F06F
:100008004382FACF10F0FBCF11F0E9CF12F0EACF1C
:1000180013F0E1CF14F0E2CF15F0D9CF16F0DACF14
:1000280017F0F3CF18F0F4CF19F0F6CF1AF0F7CF96
:100038001BF0F8CF1CF0F5CF1DF043C01EF044C0F4
:100048001FF045C020F046C021F043D0AECF2BF0C2
:10005800030E01012C250C6E000E2D210D6E000ED5
:100068002E210E6E000E2F210F6E22500C5C235095
:100078000D5824500E5825500F58D8B012D0960E4F
:10008800016E020E026EC80E036E020E046EFFC0F1
:1000980005F0066AC7EC49F0FFC05EF1000E0001EA
:1000A800FF6F320E0001FF19D8B4FF07FF51010D91
:1000B800C80EF324D96E020EF420DA6E2BC0DFFFCF
:1000C800FF2B22C02CF123C02DF124C02EF125C016
:1000D8002FF19EBABBD79EB89DA84FD02A50010DCC
:1000E800000EF324D96E020EF420DA6EDF50AD6EE6
:1000F8002A2A01015C512A18D8B404D0320E2A18D1
:10010800D8A43BD09D98000E2A6E37D071B4D0A2E7
:100118000AD04204D8A407D074CF2BF02B50D8A40F
:1001280004D0FF0002D074CF2BF0D0822BC073FF15
:10013800320E01015F19D8B45F07080E2B18D8A436
:1001480005D05F51D8B402D05F0717D00D0E2B1819
:10015800D8B404D00A0E2B18D8A404D0000E2B6EE5
:100168005F295D6F5F51010D640EF324D96E020E95
:10017800F420DA6E2BC0DFFF5F2BA4AAC2D0C6D74B
:100188004004D8A456D02C50D8A404D0030E42184A
:10019800D8B427D02C0E0101405D010E4159D8B0CA
:1001A80002D0809801D08088808A40510C6E4151DD
:1001B8000D6E404B412B910E0C5C010E0D58D8A0D2
:1001C80060D082B20AD0890E405D130E4159D8A082
:1001D80058D0000E416F000E53D0010E416F900EA3
:1001E8004FD02C0E0101425D010E4359D8B003D007
:1001F8008088809A02D08088808A42510C6E435150
:100208000D6E424B432B910E0C5C010E0D58D8A07D
:100218005BD082A20AD0890E425D130E4359D8A042
:1002280053D0000E436F000E4ED0010E436F900E58
:100238004AD0020E4018D8A44BD02C50D8A404D0D1
:10024800030E4218D8B422D0580E0101405D020EA8
:100258004159D8B002D0809801D08088808A405116
:100268000C6E41510D6E404B412BBD0E0C5C020EC5
:100278000D58D8A006D082B2A6D7020E416FBC0E88
:10028800406F000E436F000E426F22D0580E0101DE
:10029800425D020E4359D8B003D08088809A02D0BC
:1002A8008088808A42510C6E43510D6E424B432B1D
:1002B800BD0E0C5C020E0D58D8A006D082A2ABD79A
:1002C800020E436FBC0E426F000E416F000E406F6E
:1002D800010E2226000E23222422252201013C5150
:1002E8003D11D8B403D03C07D8A03D075407542982
:1002F800D8A406D051C167FF0A0E546F010E536F80
:100308007E907EB03DD721C046F020C045F01FC08A
:1003180044F01EC043F01DC0F5FF1CC0F8FF1BC011
:10032800F7FF1AC0F6FF19C0F4FF18C0F3FF17C093
:10033800DAFF16C0D9FF15C0E2FF14C0E1FF13C0F1
:10034800EAFF12C0E9FF11C0FBFF10C0FAFF439299
:100358001100F1EF45F043EF0CF0250E0001F11903
:10036800D8B438D020EE02F0CB51D926CC51DA22BD
:10037800DE50DE10D8B417D020EE02F0CB51D926CB
:10038800CC51DA22DECFD1F0DDCFD2F002D843EF64
:100398000CF00500FA6ED151FD6ED251FE6EFF6A67
:1003A800FA50F1511200CBC0D9FFCCC0DAFFDECF32
:1003B800D1F0DDCFD2F0D1C0D9FFD2C0DAFFF1C081
:1003C800DFFFCBC0D9FFCCC0DAFFDE2A000EDD226A
:1003D80043EF0CF0000E0001EE6F000EED6F000E03
:1003E800F06F000EEF6F07D00001EF8702D0000119
:1003F800EF85CD4BCE2BCDC0F6FFCEC0F7FFF86A08
:100408000F0EF76403D00800F55005D0F6CFE1FFD2
:10041800F7CFE2FFE7502D0AD8B4E6D71D0AD8B4C3
:10042800E6D70001EFB7EF95CDC0F6FFCEC0F7FFD6
:10043800F86A0F0EF76403D00800F55005D0F6CF20
:10044800E1FFF7CFE2FFE750A8EC4BF0D8A04AD085
:10045800000E0001EE6F000EED6FEDC066F0EEC00D
:1004680067F0000E0001696F0A0E686F4DEC4BF0E3
:1004780066C0EDF067C0EEF0D00E0001D16FFF0E40
:10048800D26FCDC0F6FFCEC0F7FFF86A0F0EF76443
:1004980003D00800F55005D0F6CFE1FFF7CFE2FF13
:1004A800E7500001D36FD46BD151D327D251D42355
:1004B800D351ED27D451EE23CD4BCE2BCDC0F6FF33
:1004C800CEC0F7FFF86A0F0EF76403D00800F550A6
:1004D80005D0F6CFE1FFF7CFE2FFE750A8EC4BF0ED
:1004E800D8B0BBD7CDC0F6FFCEC0F7FFF86A0F0E65
:1004F800F76403D00800F55005D0F6CFE1FFF7CF39
:10050800E2FFE7502E0AD8A447D00001F08DCD4B6A
:10051800CE2B000EEC6F000EEB6F29D0EBC066F00F
:10052800ECC067F0000E0001696F0A0E686F4DECB1
:100538004BF0CDC0F6FFCEC0F7FFF86A0F0EF76498
:1005480003D00800F55005D0F6CFE1FFF7CFE2FF62
:10055800E7500001D16FD1516627000E6723D00EF6
:100568006625EB6FFF0E6721EC6FCD4BCE2BCDC010
:10057800F6FFCEC0F7FFF86A0F0EF76403D0080045
:10058800F55005D0F6CFE1FFF7CFE2FFE750A8EC32
:100598004BF0D8A06AD1C2D7000E0001EC6F000E54
:1005A800EB6FF08962D1F08591D1CFC0D9FFD0C06F
:1005B800DAFFDFCFD1F0020EDE26DFCFD2F0000E59
:1005C800DD22D1C0D9FFD2C0DAFFDECFD9F0DDCF2E
:1005D800DAF0D951DA11D8A404D0470ED96FFC0E3D
:1005E800DA6F000EDC6F000EDB6F03D00001DB4B0F
:1005F800DC2BDB51D925D16FDC51DA21D26FD1C088
:10060800F6FFD2C0F7FFF86A0F0EF76403D00800B0
:10061800F55005D0F6CFE1FFF7CFE2FFE75000092C
:10062800D8A4E4D70001EB51EC11D8B40AD0DB51BF
:10063800EB5DDC51EC59D8B004D0EBC0DBF0ECC07A
:10064800DCF0ED51DB5DEE51DC59D8B005D0DB5163
:10065800ED5FDC51EE5B04D0000EEE6F000EED6F27
:10066800EFA736D099D020EE02F0CB51D926CC5145
:10067800DA22DE50DE10D8B416D020EE02F0CB51CC
:10068800D926CC51DA22DECFD1F0DDCFD2F001D895
:100698001FD00500FA6ED151FD6ED251FE6EFF6A71
:1006A800FA50200E1200CBC0D9FFCCC0DAFFDECF43
:1006B800D1F0DDCFD2F0D1C0D9FFD2C0DAFF200E01
:1006C800DF6ECBC0D9FFCCC0DAFFDE2A000EDD22F8
:1006D8000001ED07D8A0EE07ED29C5E1EE29D8B451
:1006E8005BD0C1D720EE02F0CB51D926CC51DA220B
:1006F800DE50DE10D8B429D020EE02F0CB51D92636
:10070800CC51DA22DECFD1F0DDCFD2F001D819D02A
:100718000500FA6ED151FD6ED251FE6EFF6AFA5095
:10072800D9C0F6FFDAC0F7FFF86A0F0EF76403D0F6
:100738000800F55005D0F6CFE1FFF7CFE2FFE7500C
:1007480012000001D94BDA2B27D0D9C0F6FFDAC046
:10075800F7FFF86ACBC0D9FFCCC0DAFFDECFD1F003
:10076800DDCFD2F0D1C0D9FFD2C0DAFF0F0EF764C7
:1007780003D00800F55005D0F6CFE1FFF7CFE2FF30
:10078800E750DF6E0001D94BDA2BCBC0D9FFCCC0C4
:10079800DAFFDE2A000EDD22DB07D8A0DC07DB2922
:1007A800A1E1DC29D8A49ED7EFB737D043EF0CF0EE
:1007B80020EE02F0CB51D926CC51DA22DE50DE10E1
:1007C800D8B416D020EE02F0CB51D926CC51DA227B
:1007D800DECFD1F0DDCFD2F001D81FD00500FA6E00
:1007E800D151FD6ED251FE6EFF6AFA50200E1200F2
:1007F800CBC0D9FFCCC0DAFFDECFD1F0DDCFD2F04D
:10080800D1C0D9FFD2C0DAFF200EDF6ECBC0D9FF2E
:10081800CCC0DAFFDE2A000EDD220001ED07D8A0E9
:10082800EE07ED29C5E1EE29D8B443EF0CF0C0D7A7
:10083800CFC0D9FFD0C0DAFFDFCFD1F0020EDE265D
:10084800DFCFD2F0000EDD22D1C0D9FFD2C0DAFF4F
:10085800DF50F16FF10ED96F000EDA6F000EDC6F0A
:10086800010EDB6FDFD6EF8D31D00001CD51D16F96
:10087800CE51D26FCD4BCE2BD1C0F6FFD2C0F7FFF1
:10088800F86A0F0EF76403D00800F55005D0F6CFCC
:10089800E1FFF7CFE2FFE7500001F16FF151000AE5
:1008A800D8B460EF0CF0630AD8B4C2D7070AD8B43A
:1008B8000DD0020AD8B477D60F0AD8B407D01A0ACE
:1008C800D8B473D6060AD8B4CED7C4D7070EF01555
:1008D800D8B4BBEF09F0F0A904D0000EEC6F060EF7
:1008E800EB6FCFC0D9FFD0C0DAFFDFCFD1F0040E55
:1008F800DE26DFCFD2F0000EDD22D1C0D9FFD2C074
:10090800DAFFDECFE7F0DECFE8F0DECFE9F0DECFCA
:10091800EAF0EAAF15D0E7C060F0E8C061F0E9C0DE
:1009280062F0EAC063F0CFEC4AF060C0E7F061C063
:10093800E8F062C0E9F063C0EAF0030E0001EF13CB
:10094800000EE26F000EE16FE751E811E911EA11BC
:10095800D8B484D0E935EA35820FE16FE26BFF0E37
:10096800E223E107D8A0E207E1C066F0E2C067F041
:10097800000E696F030E686F4DEC4BF066C0E1F036
:1009880067C0E2F0E1C060F0E2C061F0000E000173
:10099800636F0A0E626FEDEC44F060C0E1F061C075
:1009A800E2F00001E2AF03D0E107D8A0E207E1518D
:1009B8000008F7EC29F0BEC0E3F0BFC0E4F0C0C007
:1009C800E5F0C1C0E6F0E3C068F0E4C069F0E5C056
:1009D8006AF0E6C06BF0E7C06CF0E8C06DF0E9C003
:1009E8006EF0EAC06FF037EC30F068C0E3F069C031
:1009F800E4F06AC0E5F06BC0E6F0E3C06EF0E4C076
:100A08006FF0E5C070F0E6C071F0000E0001726F83
:100A1800000E736F800E746F3F0E756F19EC3FF008
:100A28000001D8B004D0E107D8A0E20717D0E3C08E
:100A38006EF0E4C06FF0E5C070F0E6C071F0000E33
:100A4800726F000E736F200E746F410E756F19EC84
:100A58003FF00001D8A002D0E14BE22BECBF06D05A
:100A6800EC5121E10D0EEB5DD8B01DD0E7C081F04F
:100A7800E8C082F0E9C083F0EAC084F0EB517FEC73
:100A880033F0BEC085F0BFC086F0C0C087F0C1C0DB
:100A980088F0E0EC31F081C0E7F082C0E8F083C074
:100AA800E9F084C0EAF00001E2BF06D0E25122E199
:100AB8000A0EE15DD8B01ED0E751E811E911EA113C
:100AC800D8B462D0E7C0AEF0E8C0AFF0E9C0B0F08B
:100AD800EAC0B1F0A6EC41F00001AE51AF11B0117F
:100AE800B111D8B4E2BF50D0E25104E1020EE15D89
:100AF800D8A04AD0E3C06EF0E4C06FF0E5C070F053
:100B0800E6C071F05F0E726F700E736F890E746FAE
:100B1800400E756F19EC3FF00001D8B002D0F70E07
:100B280001D0F80EE127FF0EE223E151F7EC29F09E
:100B3800BEC0E3F0BFC0E4F0C0C0E5F0C1C0E6F05D
:100B4800E7C060F0E8C061F0E9C062F0EAC063F0B5
:100B5800E3C064F0E4C065F0E5C066F0E6C067F0A5
:100B680084EC3EF060C0DDF061C0DEF062C0DFF012
:100B780063C0E0F0000E0001E76F000EE86F000EA2
:100B8800E96F000EEA6F3CD0E7C0AEF0E8C0AFF006
:100B9800E9C0B0F0EAC0B1F0A6EC41F0AEC0DDF0BB
:100BA800AFC0DEF0B0C0DFF0B1C0E0F0E7C095F054
:100BB800E8C096F0E9C097F0EAC098F0DDC060F0B0
:100BC800DEC061F0DFC062F0E0C063F0000E9CECB4
:100BD8003CF060C099F061C09AF062C09BF063C0BD
:100BE8009CF03BEC49F095C0E7F096C0E8F097C060
:100BF800E9F098C0EAF0000E0001E26F000EE16F24
:100C0800010EF16F0A0EF119D8B41BD0F151040D81
:100C1800A00EF324F66EE90EF420F76EF86A000EC3
:100C2800F8220900F550DD5D0900F550DE5909008C
:100C3800F550DF590900F550E059D8A002D0F12B42
:100C4800E1D7F1C0D1F0D26BD1BFD207EB51D12798
:100C5800EC51D223E151D127E251D223D151ED5F9A
:100C6800D251EE5BEB51EC11D8B403D0ED07D8A00C
:100C7800EE07030EEF15D16F000EF015D26FD151AC
:100C8800D211D8B403D0ED07D8A0EE07EFA583D0D2
:100C9800030EEF15D16F000EF015D26FD151D2119E
:100CA800D8B470D020EE02F0CB51D926CC51DA223C
:100CB800DE50DE10D8B416D020EE02F0CB51D92683
:100CC800CC51DA22DECFD1F0DDCFD2F001D85AD024
:100CD8000500FA6ED151FD6ED251FE6EFF6AFA50D0
:100CE8002D0E1200CBC0D9FFCCC0DAFFDECFD1F079
:100CF800DDCFD2F0D1C0D9FFD2C0DAFF2D0EDF6E22
:100D0800CBC0D9FFCCC0DAFFDE2A000EDD223AD0F4
:100D1800000120EE02F0CB51D926CC51DA22DE5068
:100D2800DE10D8B416D020EE02F0CB51D926CC5123
:100D3800DA22DECFD1F0DDCFD2F001D81FD0050006
:100D4800FA6ED151FD6ED251FE6EFF6AFA50300E26
:100D58001200CBC0D9FFCCC0DAFFDECFD1F0DDCF97
:100D6800D2F0D1C0D9FFD2C0DAFF300EDF6ECBC0CF
:100D7800D9FFCCC0DAFFDE2A000EDD220001ED0724
:100D8800D8A0EE070001EEBFFFD0EE51C1E1ED059E
:100D9800D8A0FAD0BDD7EFA73AD040D020EE02F0C5
:100DA800CB51D926CC51DA22DE50DE10D8B416D079
:100DB80020EE02F0CB51D926CC51DA22DECFD1F089
:100DC800DDCFD2F001D81FD00500FA6ED151FD6EEB
:100DD800D251FE6EFF6AFA50200E1200CBC0D9FF26
:100DE800CCC0DAFFDECFD1F0DDCFD2F0D1C0D9FF51
:100DF800D2C0DAFF200EDF6ECBC0D9FFCCC0DAFF3D
:100E0800DE2A000EDD220001ED07D8A0EE07EEBFB6
:100E180005D0EE51C3E1ED05D8B0C0D7030EEF15EC
:100E2800D16F000EF015D26FD151D211D8B4ACD019
:100E380020EE02F0CB51D926CC51DA22DE50DE105A
:100E4800D8B416D020EE02F0CB51D926CC51DA22F4
:100E5800DECFD1F0DDCFD2F001D896D00500FA6E02
:100E6800D151FD6ED251FE6EFF6AFA502D0E12005E
:100E7800CBC0D9FFCCC0DAFFDECFD1F0DDCFD2F0C6
:100E8800D1C0D9FFD2C0DAFF2D0E76D0DDC060F018
:100E9800DEC061F0DFC062F0E0C063F00001F15134
:100EA800040DA00EF324F66EE90EF420F76EF86A2E
:100EB800000EF8220900F5CF64F00900F5CF65F0BF
:100EC8000900F5CF66F00A00F5CF67F030EC45F081
:100ED80060C0E3F061C0E4F062C0E5F063C0E6F032
:100EE800E3C06DF0E4C06EF0E5C06FF0E6C070F0EE
:100EF8000A0E0001716F000E726F000E736F000E04
:100F0800746F83EC47F06DC0E3F06EC0E4F06FC01F
:100F1800E5F070C0E6F0000120EE02F0CB51D926D2
:100F2800CC51DA22DE50DE10D8B417D020EE02F011
:100F3800CB51D926CC51DA22DECFD1F0DDCFD2F099
:100F480001D822D00500FA6ED151FD6ED251FE6E45
:100F5800FF6AFA50E351300F12000001E351300FDD
:100F6800CBC0D9FFCCC0DAFFDECFD1F0DDCFD2F0D5
:100F7800D1C0D9FFD2C0DAFFDF6ECBC0D9FFCCC059
:100F8800DAFFDE2A000EDD220001F107F129D8B4CC
:100F98003AD07CD720EE02F0CB51D926CC51DA22B8
:100FA800DE50DE10D8B416D020EE02F0CB51D92690
:100FB800CC51DA22DECFD1F0DDCFD2F001D81FD06C
:100FC8000500FA6ED151FD6ED251FE6EFF6AFA50DD
:100FD800300E1200CBC0D9FFCCC0DAFFDECFD1F083
:100FE800DDCFD2F0D1C0D9FFD2C0DAFF300EDF6E2C
:100FF800CBC0D9FFCCC0DAFFDE2A000EDD2200010B
:10100800E107D8A0E207E2BF05D0E251C3E1E1055C
:10101800D8B0C0D7ECBF09D0EC5104E1090EEB5DA4
:10102800D8A003D0080EF16F02D0EBC0F1F0F15157
:10103800EB5F000EF1BFFF0EEC5BF151D8B435D079
:1010480020EE02F0CB51D926CC51DA22DE50DE1048
:10105800D8B416D020EE02F0CB51D926CC51DA22E2
:10106800DECFD1F0DDCFD2F001D81FD00500FA6E67
:10107800D151FD6ED251FE6EFF6AFA502E0E12004B
:10108800CBC0D9FFCCC0DAFFDECFD1F0DDCFD2F0B4
:10109800D1C0D9FFD2C0DAFF2E0EDF6ECBC0D9FF88
:1010A800CCC0DAFFDE2A000EDD220001F151F7EC98
:1010B80029F0BEC0D5F0BFC0D6F0C0C0D7F0C1C0BF
:1010C800D8F0E7C06CF0E8C06DF0E9C06EF0EAC097
:1010D8006FF0D5C068F0D6C069F0D7C06AF0D8C044
:1010E8006BF037EC30F068C0AEF069C0AFF06AC0A2
:1010F800B0F06BC0B1F0A6EC41F0AEC0DDF0AFC00F
:10110800DEF0B0C0DFF0B1C0E0F0A8D0DDC060F024
:10111800DEC061F0DFC062F0E0C063F00001F151B1
:10112800040DA00EF324F66EE90EF420F76EF86AAB
:10113800000EF8220900F5CF64F00900F5CF65F03C
:101148000900F5CF66F00A00F5CF67F030EC45F0FE
:1011580060C0E3F061C0E4F062C0E5F063C0E6F0AF
:10116800E3C06DF0E4C06EF0E5C06FF0E6C070F06B
:101178000A0E0001716F000E726F000E736F000E81
:10118800746F83EC47F06DC0E3F06EC0E4F06FC09D
:10119800E5F070C0E6F0000120EE02F0CB51D92650
:1011A800CC51DA22DE50DE10D8B417D020EE02F08F
:1011B800CB51D926CC51DA22DECFD1F0DDCFD2F017
:1011C80001D822D00500FA6ED151FD6ED251FE6EC3
:1011D800FF6AFA50E351300F12000001E351300F5B
:1011E800CBC0D9FFCCC0DAFFDECFD1F0DDCFD2F053
:1011F800D1C0D9FFD2C0DAFFDF6ECBC0D9FFCCC0D7
:10120800DAFFDE2A000EDD22DDC06DF0DEC06EF0F2
:10121800DFC06FF0E0C070F00001F151040DA00EC6
:10122800F324F66EE90EF420F76EF86A000EF82241
:101238000900F5CF71F00900F5CF72F00900F5CF7C
:1012480073F00A00F5CF74F083EC47F06DC0DDF061
:101258006EC0DEF06FC0DFF070C0E0F00001F10793
:10126800F129D8B43AD052D720EE02F0CB51D92682
:10127800CC51DA22DE50DE10D8B416D020EE02F0BF
:10128800CB51D926CC51DA22DECFD1F0DDCFD2F046
:1012980001D81FD00500FA6ED151FD6ED251FE6EF5
:1012A800FF6AFA50300E1200CBC0D9FFCCC0DAFF6B
:1012B800DECFD1F0DDCFD2F0D1C0D9FFD2C0DAFF76
:1012C800300EDF6ECBC0D9FFCCC0DAFFDE2A000EAD
:1012D800DD220001EB07D8A0EC07EB51EC11D8A4F4
:1012E800C3D7EFB7EEBFCBD2EE5103E1ED05D8A0DF
:1012F800C6D220EE02F0CB51D926CC51DA22DE50EC
:10130800DE10D8B416D020EE02F0CB51D926CC513D
:10131800DA22DECFD1F0DDCFD2F001D81FD0050020
:10132800FA6ED151FD6ED251FE6EFF6AFA50200E50
:101338001200CBC0D9FFCCC0DAFFDECFD1F0DDCFB1
:10134800D2F0D1C0D9FFD2C0DAFF200EDF6ECBC0F9
:10135800D9FFCCC0DAFFDE2A000EDD220001ED073E
:10136800D8A0EE07ED51EE11D8B489D2C2D7EFBD9F
:1013780026D0CFC0D9FFD0C0DAFFDFCFD1F0020E20
:10138800DE26DFCFD2F0000EDD22D1C0D9FFD2C0D9
:10139800DAFFDECFDDF0DDCFDEF0000EDEBFFF0EC0
:1013A800DF6FE06FE0AF25D0030EEF13E01FDF1F04
:1013B800DE1FDD6D000EDE23DF23E0231AD0CFC051
:1013C800D9FFD0C0DAFFDFCFD1F0020EDE26DFCFA3
:1013D800D2F0000EDD22D1C0D9FFD2C0DAFFDECFB5
:1013E800D3F0DDCFD4F0D3C0DDF0D4C0DEF0DF6BB6
:1013F800E06BEB51EC11D8A408D0DD51DE11DF1100
:10140800E011D8A402D0EB4BEC2B010EF16F0A0EC1
:10141800F119D8B41BD0F151040DA00EF324F66EC7
:10142800E90EF420F76EF86A000EF8220900F5506C
:10143800DD5D0900F550DE590900F550DF59090056
:10144800F550E059D8A002D0F12BE1D7800EF1BFBA
:101458007F0ED16FEB51F15DEC51800AD159D8B0B4
:1014680003D0EBC0F1F010D0EC51800AD16FF151EC
:10147800EB5D800EF1BF7F0ED159D8B005D0F15188
:10148800EB6FEC6BEBBFEC07ED51EE11D8B40DD060
:10149800030EEF15D16F000EF015D26FD151D21196
:1014A800D8B403D0ED07D8A0EE07F0AD13D0ED51B6
:1014B800EB5DEC51800AD16FEE51800AD159D8B05A
:1014C80005D0EB51ED5FEC51EE5B04D0000EEE6FF2
:1014D800000EED6F800EF1BF7F0ED16FED51F15D03
:1014E800EE51800AD159D8B007D0F151ED5F000E06
:1014F800F1BFFF0EEE5B04D0000EEE6F000EED6F35
:10150800EFA57ED0030EEF15D16F000EF015D26F48
:10151800D151D211D8B435D020EE02F0CB51D92612
:10152800CC51DA22DE50DE10D8B416D020EE02F00C
:10153800CB51D926CC51DA22DECFD1F0DDCFD2F093
:1015480001D81FD00500FA6ED151FD6ED251FE6E42
:10155800FF6AFA502D0E1200CBC0D9FFCCC0DAFFBB
:10156800DECFD1F0DDCFD2F0D1C0D9FFD2C0DAFFC3
:101578002D0EDF6ECBC0D9FFCCC0DAFFDE2A000EFD
:10158800DD220001ED51EE11D8B42BD120EE02F08E
:10159800CB51D926CC51DA22DE50DE10D8B416D081
:1015A80020EE02F0CB51D926CC51DA22DECFD1F091
:1015B800DDCFD2F001D81FD00500FA6ED151FD6EF3
:1015C800D251FE6EFF6AFA50300E1200CBC0D9FF1E
:1015D800CCC0DAFFDECFD1F0DDCFD2F0D1C0D9FF59
:1015E800D2C0DAFF300EDF6ECBC0D9FFCCC0DAFF35
:1015F800DE2A000EDD220001ED07D8A0EE07C2D7D3
:10160800ED51EE11D8A4EFB73DD020EE02F0CB514A
:10161800D926CC51DA22DE50DE10D8B416D020EE0E
:1016280002F0CB51D926CC51DA22DECFD1F0DDCF72
:10163800D2F001D81FD00500FA6ED151FD6ED251FB
:10164800FE6EFF6AFA50200E1200CBC0D9FFCCC044
:10165800DAFFDECFD1F0DDCFD2F0D1C0D9FFD2C0D2
:10166800DAFF200EDF6ECBC0D9FFCCC0DAFFDE2A4E
:10167800000EDD220001ED07D8A0EE07ED51EE11B6
:10168800D8A4C3D7030EEF15D16F000EF015D26F93
:10169800D151D211D8B4A5D020EE02F0CB51D92621
:1016A800CC51DA22DE50DE10D8B416D020EE02F08B
:1016B800CB51D926CC51DA22DECFD1F0DDCFD2F012
:1016C80001D88FD00500FA6ED151FD6ED251FE6E51
:1016D800FF6AFA502D0E1200CBC0D9FFCCC0DAFF3A
:1016E800DECFD1F0DDCFD2F0D1C0D9FFD2C0DAFF42
:1016F8002D0EDF6E6FD0EBC0D1F0ECC0D2F0000140
:10170800D890D137D237D890D137D237A00ED1253B
:10171800F66EE90ED221F76EF86A000EF82209007B
:10172800F5CF64F00900F5CF65F00900F5CF66F054
:101738000A00F5CF67F0DDC060F0DEC061F0DFC001
:1017480062F0E0C063F030EC45F060C06DF061C05D
:101758006EF062C06FF063C070F00A0E0001716F26
:10176800000E726F000E736F000E746F83EC47F0FB
:1017780000016D51300FF16F20EE02F0CB51D926E8
:10178800CC51DA22DE50DE10D8B416D020EE02F0AA
:10179800CB51D926CC51DA22DECFD1F0DDCFD2F031
:1017A80001D81FD00500FA6ED151FD6ED251FE6EE0
:1017B800FF6AFA50F1511200CBC0D9FFCCC0DAFF52
:1017C800DECFD1F0DDCFD2F0D1C0D9FFD2C0DAFF61
:1017D800F1C0DFFFCBC0D9FFCCC0DAFFDE2A000E94
:1017E800DD220001EB07D8A0EC07EB2984E1EC2906
:1017F800D8A481D7EFB7EEBF42D0EE5103E1ED0593
:10180800D8A03DD020EE02F0CB51D926CC51DA2217
:10181800DE50DE10D8B416D020EE02F0CB51D92617
:10182800CC51DA22DECFD1F0DDCFD2F001D81FD0F3
:101838000500FA6ED151FD6ED251FE6EFF6AFA5064
:10184800200E1200CBC0D9FFCCC0DAFFDECFD1F01A
:10185800DDCFD2F0D1C0D9FFD2C0DAFF200EDF6EC3
:10186800CBC0D9FFCCC0DAFFDE2A000EDD22000192
:10187800ED07D8A0EE07ED51EE11D8A4C3D70001AB
:10188800CD51D16FCE51D26FCD4BCE2BD1C0F6FFFB
:10189800D2C0F7FFF86A0F0EF76403D00800F550BE
:1018A80005D0F6CFE1FFF7CFE2FFE7500001F16F77
:1018B800F151D8A4B1EF01F0000ECC6F000ECB6F40
:1018C8001200000E0301246F050E236F000E216F16
:1018D800000E206F000E1F6F000E196F010E186F9B
:1018E80021EE00F013EE0CF00B0EDBCFE3FFE80661
:1018F800FCE215EC42F05FEC3AF035C066F036C019
:1019080067F0000E0001696F0A0E686F4DEC4BF02E
:1019180066C044F167C045F12FEC46F09CEC4AF0F4
:10192800D0820001FD51D8A446EC3DF001015D5183
:10193800D8A4A2EC16F02A50D8B4ACA201D08A9A46
:1019480008EC44F0A30E946E00F000F08250210BD6
:1019580003012E6F2E39E8461F0B0101E96F0301C1
:101968002E512E25020B0101E911E96F8150010B5F
:10197800E911E96F820E946E070EE919D8A404D014
:10198800E851E919D8B403D0E9517DEC22F0010EF1
:10199800010158651AD0880E2825D86F130E292101
:1019A800D96F000E2A21DA6F000E2B21DB6F22502F
:1019B800D85D2350D9592450DA592550DB59D8B06D
:1019C80004D05751D8B431EC41F081B43AD0030176
:1019D800192B19050101D86F050ED86535D03C5172
:1019E8003D11D8A429D03D50D8B414D02850D8B42B
:1019F80005D0000E286E010E426E02D0010E286E30
:101A08004A0E9B6FFB0E9C6F28C09DF19E6B64EC89
:101A18004AF00CD0030E4218D8A408D0010E426E2A
:101A28000001FD51D8A402D00F0E296E3C04D8B491
:101A38002CA802D081A22C98000E01013D6FC80E7F
:101A48003C6F000E0301196F3C04D8B481A206D084
:101A5800010E426E2C88000E0001FE6F050E421822
:101A6800D8A424D02550241006E1E90E225C030EE8
:101A78002358D8A01BD0000E00017F6F010E7E6F87
:101A8800000E816F000E806F3E0497EC4BF0E80E5D
:101A980001019B6FF70E9C6F64EC4AF0000E226EFA
:101AA800000E236E000E246E000E256E4204D8A48C
:101AB800A1D0000EBD6E82848198000E0101306FA6
:101AC800DFEC46F00301256F2505D8A404D02C9A35
:101AD8002C90000E296E020E2519D8A48BD0020E68
:101AE80001016119D8A480D02850D8A403D03D5052
:101AF800D8A47AD00301242B24050101D86F190E2C
:101B0800D86578D02FEC3BF0E806D8B42C8629505D
:101B1800D8A470D02C50D8A46DD0000E0301206F2B
:101B28005BEC44F0420E01019B6FF90E9C6F4CC1B7
:101B38009DF14DC19EF133C09FF134C0A0F164EC1A
:101B48004AF0335001014C5D34504D59D8B005D09E
:101B58004CC14AF14DC14BF104D033C04AF134C0F5
:101B68004BF1010E3E6422D0000E00017F6F020E81
:101B78007E6F4AC180F04BC181F03E0497EC4BF078
:101B88007D0E01019B6FF80E9C6F4AC19DF14BC100
:101B98009EF164EC4AF0060E426E000E226E000EB4
:101BA800236E000E246E000E256E24D04CC166F004
:101BB8004DC167F0000E0001696F0A0E686F4DECA9
:101BC8004BF066C00CF167C00DF1010E0101306FDA
:101BD800020E426E3C0E5A6F8086300E9B6FFB0ED3
:101BE8009C6F64EC4AF006D0020E0101616F000E92
:101BF8000301246F060E4218D8A40BD025502410D8
:101C080006E1E90E225C030E2358D8A002D0010E8B
:101C1800426E020E4218D8A4C2D0070EBC64A9D0E6
:101C2800180EBC60A6D0DFEC46F00301256F250531
:101C3800D8A41FD001016105D8A419D00301242B11
:101C480024050101D86F190ED86593D0010E426E94
:101C5800160E9B6FFB0E9C6F64EC4AF0010E3E64FF
:101C680088D0050E426EE90E226E030E3BD0010E9F
:101C780073D0030E2519D8A475D0030E010161197C
:101C8800D8A469D003012005D8A465D0242B240545
:101C98000101D86F190ED8656CD02C50D8A469D022
:101CA8002950D8A466D0010E3E6422D0000E00014F
:101CB8007F6F030E7E6F4AC180F04BC181F03E04F6
:101CC80097EC4BF0A00E01019B6FF80E9C6F4AC178
:101CD8009DF14BC19EF164EC4AF0070E426E000E76
:101CE800226E000E236E000E246E000E256E41D06B
:101CF8004AC10CF14BC10DF12FEC3BF00009D8A4FF
:101D080028D0020E0101306F000E156F000E146FFF
:101D1800010E75EC26F08188000E0301206F030E7A
:101D2800426E000E0001FE6F000E226E000E236E42
:101D3800000E246E000E256E01015851D8B4CCEC6B
:101D48001DF03D0E01019B6FFB0E9C6F64EC4AF089
:101D580010D02C860ED0030E0101616F000E030116
:101D6800246F07D0020E01016119D8B402D0000E09
:101D7800616FE60EBC6413D0F10EBC64FDD7F10EA2
:101D8800BC6401D0BC50DFEC46F00301256F040EA3
:101D98002519D8A402D0010E01D0000E206F070E1D
:101DA8004218D8A415D02550241006E1E90E225C6B
:101DB800030E2358D8A00CD0000E0301206F020E8A
:101DC800426E4B0E01019B6FFA0E9C6F64EC4AF059
:101DD800030E4218D8A476D0070EBC6473D0180E30
:101DE800BC6070D0DFEC46F00301256F2505D8B440
:101DF80003D02551D8A42AD001016105D8A424D044
:101E08000301242B24050101D86F190ED8655AD077
:101E1800010E426E230E9B6FFB0E9C6F64EC4AF022
:101E28002FEC46F0010E3E640BD0050E426EE90E13
:101E3800226E030E236E000E246E000E256E42D015
:101E4800000E0101306F3ED0010E34D0020E25196C
:101E5800D8A435D0020E01016119D8A429D00301F4
:101E6800242B24050101D86F190ED8652BD0819831
:101E78002FEC46F0000E0301206F020E426E010E99
:101E88003E640BD0080E426EE90E226E030E236EDE
:101E9800000E246E000E256E03D0000E0101306F77
:101EA800530E01019B6FFA0E9C6F64EC4AF00AD046
:101EB800020E0101616F000E0301246F03D0000EB2
:101EC8000101616F080E4218D8A424D025502410AF
:101ED80006E1E90E225C030E2358D8A01BD0000EA1
:101EE80000017F6F040E7E6F000E816F000E806F01
:101EF8003E0497EC4BF00E0E01019B6FF80E9C6FA1
:101F080064EC4AF0000E226E000E236E000E246E62
:101F1800000E256EABA202D0AB98AB8871A202D09E
:101F280071987188D6CF2EF33C0ED764F1D0000E8D
:101F3800D76E000ED66EB7EC47F001014F51D8B4FA
:101F480021D03A51D86F3B51D96F3A4B3B2B2DC01A
:101F580066F02EC067F0000E0001696F3C0E686FD6
:101F68004DEC4BF00101D8510001665D0101D951DA
:101F780000016759D8B00AD0010E426E000E010167
:101F88004F6F04D0000E3B6F000E3A6F2950D8A453
:101F98002906370E0101596102D02CB42C942CC0AB
:101FA800D8F1210ED817D8B40AD0020E3E6007D057
:101FB8002FEC3BF00009D8A402D02C902C9A0301F6
:101FC8002351D8B42CB21DD02C82010E426E600E63
:101FD80001019B6FF90E9C6F64EC4AF0000E03013F
:101FE8002E6F030E2E6501D00FD02E51010D300E2D
:101FF800F324D96E010EF420DA6E000EDF6E2E2B5C
:10200800F0D72351D8A42307400E010159651CD0ED
:102018002C84010E426EEE0E9B6FF90E9C6F64ECE1
:102028004AF0000E03012E6F030E2E6501D00CD06E
:102038002E51010D300EF324D96E010EF420DA6E04
:10204800000EDF6E2E2BF0D72CC0D8F1290E01011F
:10205800D817D8B41FD02C96020E4118D8A40BD08C
:102068002950D8A406D07E0E9B6FF90E9C6F64ECA5
:102078004AF02C8A0BD02950D8A407D0E40E0101CD
:102088009B6FF80E9C6F64EC4AF02C80010E426E38
:102098003C0E296ECCEC1DF04150D8A403D03E0470
:1020A800D8A40BD0030118071829D8A406D0010E0C
:1020B8000101506F010E0301186F4150D8A428D0B8
:1020C800000E276E000E266E03011F51D8A41F07AD
:1020D800020E3E601DD01F51D8A41AD0000E75EC18
:1020E80026F03E04D8B416EC47F0020E4218D8B4D5
:1020F80004D0030E4218D8A406D014C1B8F015C1F4
:10210800B9F0AAEC3FF0020E03011F6F0A0E236F0D
:1021180001015051D8A40DD017D03AC083F03B50DC
:102128004DEC47F00ED037C083F038504DEC47F0F7
:1021380008D001015051010AD8B4EFD7030AD8B426
:10214800F2D7000E0101506F5E51D8B4A6D196C2E5
:1021580022F397C20AF3960E0001606F020E616FB8
:102168005EC162F0B2EC45F060C01CF361C01DF3C3
:1021780003011C511D11D8B4F4D0FED0080E010182
:102188005E19D8A407D09D0E9B6FFA0E9C6F64EC65
:102198004AF06AD198C20BF303010B510101D86FC1
:1021A800D96BFB0EDA6FFF0EDB6F5E51DC6FDD6BF8
:1021B800DA51DC27DB51DD23D851DC1903E1D95191
:1021C800DD19D8A47ED0890E9B6FFA0E9C6F64EC43
:1021D8004AF03B50D8B419D03A5003012219D8A478
:1021E80014D0760E0001AE6F010EAF6F3B5082EC3B
:1021F80037F03850D8B404D0020E0101506F34D1F2
:10220800000E0101506F010EAAD03850D8B42CD15D
:10221800375003012219D8A427D10C0E0001AE6F44
:10222800030EAF6F385082EC37F0000E0101506F8B
:10223800000E03012E6F020E2E6501D00BD12E5118
:10224800040D0C0EF324D96E030EF420DA6EDECFE3
:1022580060F0DECF61F0DECF62F0DECF63F0CFEC6E
:102268004AF060C081F061C082F062C083F063C050
:1022780084F003012E51040D760EF324D96E010E5D
:10228800F420DA6EDECF85F0DECF86F0DECF87F081
:10229800DECF88F0E0EC31F003012E51040D760E0C
:1022A800F324D96E010EF420DA6E000181C0DEFF3E
:1022B80082C0DEFF83C0DEFF84C0DEFF03012E2B59
:1022C800BAD7750E01019B6FFA0E9C6F64EC4AF049
:1022D800CBD022C32DF399C22CF302019B519AC291
:1022E800D8F10101D96BD8C1D9F1D86BD811030144
:1022F800266F0101D9510301276F020EACD022C30A
:102308002DF399C22CF32D29D8A4AED02C05D8A42E
:10231800ABD0010E3E64A8D03E500101D86FD96BF6
:10232800D890D837D937030ED827000ED923960E60
:10233800D825D96E020ED921DA6EDF50DA6FDA515C
:1023480003011A6F1B6B1E0E01019B6FFA0E9C6F27
:102358001AC39DF11BC39EF164EC4AF0020E0301FF
:102368007AD00A51040AD8B409D7020AD8B4B1D726
:10237800160AD8B4C4D778D03B04D8A46ED0960E29
:102388000001606F020E616F5EC162F0AAEC44F05A
:1023980060C01CF361C01DF30A0E01015E6564D0C4
:1023A800500E02019819D8A45FD09905D8A45CD022
:1023B800470E03011C1958E10F0E1D19D8A454D05B
:1023C800060E1E6F030E02019B6502D0030E9B6F63
:1023D800000E03012E6F38D0280E0001606F030E27
:1023E800616F960E626F020E636F1EC364F0000E7B
:1023F800656F3DEC36F028C368F029C369F02AC33D
:102408006AF02BC36BF082C16CF083C16DF084C19C
:102418006EF085C16FF037EC30F003012E51040DDA
:10242800760EF324D96E010EF420DA6E000168C02E
:10243800DEFF69C0DEFF6AC0DEFF6BC0DEFF03019E
:102448001E51040F1E6F2E2B02019B5103012E5D9E
:10245800D8A0C2D7010E216F07D0070E01019B6FCC
:10246800FB0E9C6F64EC4AF0020E2C18D8A407D01F
:102478000A0E03012319D8A402D0000E2C6E2C04D6
:10248800D8A408D02950D8A405D0010E3E6402D0A3
:10249800000E2C6E000E01015E6F03012105D8A409
:1024A80028D2000E276E000E266E000E0101496F1D
:1024B800000E486F000E476F000E466F000E0301B6
:1024C8002E6F020E2E6501D0A2D026C060F027C064
:1024D80061F00001626B636B000E9CEC3CF060C025
:1024E8006EF061C06FF062C070F063C071F00301FC
:1024F8002E51040D760EF324D96E010EF420DA6EF7
:10250800DECF72F0DECF73F0DECF74F0DECF75F081
:1025180019EC3FF00001D8B017D003012E51040D7B
:10252800760EF324D96E010EF420DA6EDECFAEF00B
:10253800DECFAFF0DECFB0F0DECFB1F0A6EC41F0E9
:10254800AEC026F0AFC027F003012E51040D760E61
:10255800F324D96E010EF420DA6EDECF6EF0DECFF2
:102568006FF0DECF70F0DECF71F048C160F049C186
:1025780061F00001000E61BFFF0E626F636F010E14
:102588009CEC3CF060C072F061C073F062C074F003
:1025980063C075F019EC3FF00001D8B017D0030103
:1025A8002E51040D760EF324D96E010EF420DA6E46
:1025B800DECFAEF0DECFAFF0DECFB0F0DECFB1F0E1
:1025C800A6EC41F0AEC048F1AFC049F103012E516D
:1025D800040D760EF324D96E010EF420DA6EDECFE8
:1025E800AEF0DECFAFF0DECFB0F0DECFB1F0A6ECCC
:1025F80041F0010146510001AE250101466F4751E6
:102608000001AF210101476F03012E2B5AD741501A
:10261800D8B46AD1020E3E6067D1000E75EC26F080
:10262800030E0101556112D035C066F036C067F05F
:10263800000E0001696F140E686F4DEC4BF02650C8
:102648000001665D27506759D8B024D02C86000E4B
:1026580003012E6F030E2E6501D00CD02E51010DF3
:10266800300EF324D96E010EF420DA6E000EDF6E00
:102678002E2BF0D7000E00017F6F020E7E6F000E2A
:10268800816F010E806F000E97EC4BF0000E010178
:10269800556F04D03E50D8A416EC47F0020E4218ED
:1026A800D8B404D0030E4218D8A406D014C1B8F088
:1026B80015C1B9F0AAEC3FF02FC066F030C067F042
:1026C800FF0E0001696FF60E686F4DEC4BF066C0A7
:1026D80008F367C009F3FA0E01019B6FEF0E9C6FB8
:1026E800400E42249D6F9E6B000E9E232CC09FF1CE
:1026F800A06B08C3A1F109C3A2F148C1A3F149C164
:10270800A4F129C0A5F1A66B3AC1A7F13BC1A8F174
:1027180055C1A9F1AA6B26C0BDF027C0BEF0000EB6
:102728000001C06F0A0EBF6FC4EC48F0BDC0ABF12A
:10273800BEC0ACF126C0B8F027C0B9F0000E000149
:10274800BB6F0A0EBA6FA5EC49F0B8C0ADF1B9C0BD
:10275800AEF144C1BDF045C1BEF0000E0001C06F2E
:102768000A0EBF6FC4EC48F0BDC0AFF1BEC0B0F1F7
:1027780044C1B8F045C1B9F0000E0001BB6F0A0EA4
:10278800BA6FA5EC49F0B8C0B1F1B9C0B2F164ECC8
:102798004AF07EC185F07FC186F080C187F081C193
:1027A80088F07AC181F07BC182F07CC183F07DC161
:1027B80084F0E0EC31F081C000F382C001F383C003
:1027C80002F384C003F376C185F077C186F078C13F
:1027D80087F079C188F000C381F001C382F002C399
:1027E80083F003C384F0E0EC31F081C095F082C03F
:1027F80096F083C097F084C098F0000E0001996F9E
:10280800000E9A6F200E9B6F410E9C6FE2EC34F025
:1028180095C004F396C005F397C006F398C007F374
:102828001A0E01019B6FF60E9C6F76C195F077C169
:1028380096F078C197F079C198F0000E0001996F71
:10284800000E9A6F200E9B6F410E9C6FE2EC34F0E5
:1028580095C09DF196C09EF197C09FF198C0A0F1D8
:102868007AC195F07BC196F07CC197F07DC198F054
:10287800000E0001996F000E9A6F200E9B6F410E9B
:102888009C6FE2EC34F095C0A1F196C0A2F197C01C
:10289800A3F198C0A4F17EC195F07FC196F080C1E4
:1028A80097F081C198F0000E0001996F000E9A6FA1
:1028B800200E9B6F410E9C6FE2EC34F095C0A5F1A1
:1028C80096C0A6F197C0A7F198C0A8F104C3A9F1D2
:1028D80005C3AAF106C3ABF107C3ACF164EC4AF037
:1028E8000A0E0301236F0FD2000E276E000E266E0C
:1028F8000AD2020E2119D8A406D22D29D8A424D090
:102908002C05D8A421D0010E3E641ED01AC314F1A0
:102918001BC315F1020E4218D8B404D0030E421896
:10292800D8A406D014C1B8F015C1B9F0AAEC3FF08C
:10293800C30E01019B6FF80E9C6F14C19DF115C168
:102948009EF164EC4AF018D003012D51D8A414D09C
:10295800020E2C19D8A410D0010E3E640DD0010E21
:10296800426E26C32CF03C0E296E590E01019B6F56
:10297800F80E9C6F64EC4AF003012D510101D86FE9
:10298800D96BFF0EDA6FFF0EDB6F3E50DC6FDD6B2D
:10299800DA51DC27DB51DD23D851DC1903E1D951A9
:1029A800DD19D8A484D0810E03012C19D8A40AD02B
:1029B800010E426ED60E01019B6FFA0E9C6F64ECFD
:1029C8004AF075D0820E03012C19D8A421D02651C3
:1029D8002711D8A409D02C861F0E01019B6FFC0E6D
:1029E8009C6F64EC4AF063D026C3B8F027C3B9F0F3
:1029F800AAEC3FF0020E426E990E01019B6FF70E92
:102A08009C6F26C39DF127C39EF164EC4AF04FD01A
:102A1800830E03012C19D8A43CD026512711D8A421
:102A280009D02C86270E01019B6FFC0E9C6F64EC6D
:102A38004AF03DD026C3B8F027C3B9F0AAEC3FF05E
:102A48008188000E0301206F030E426E000E000104
:102A5800FE6F000E226E000E236E000E246E000E16
:102A6800256E01015851D8B4CCEC1DF0340E01018B
:102A78009B6FF80E9C6F26C39DF127C39EF164ECF3
:102A88004AF03D0E01019B6FFB0E9C6F64EC4AF00F
:102A98000ED0840E03012C19D8A409D0020E426E60
:102AA800C20E01019B6FF70E9C6F64EC4AF03E0466
:102AB800D8A429D103012C05D8A425D02D51010D66
:102AC800300EF324D96E010EF420DA6E000EDF6E9C
:102AD800000E75EC26F0350E01019B6FFA0E9C6F07
:102AE8002DC39DF19E6B64EC4AF0000E00017F6FD0
:102AF800810E7E6F000E816F000E806F03012D51D5
:102B080097EC4BF000D1020E03012C19D8A467D022
:102B18002FEC3BF00009D8A431D003012D51010D51
:102B2800300EF324D96E010EF420DA6E010EDF6E3A
:102B38002D51020D0C0EF324D96E010EF420DA6E1D
:102B480026C3DEFF27C3DDFF31C066F032C067F061
:102B5800000E0001696F0A0E686F4DEC4BF003011F
:102B68002D51020D140EF324D96E010EF420DA6EE5
:102B7800000166C0DEFF67C0DDFF0DD003012D51E7
:102B8800020D140EF324D96E010EF420DA6E000E35
:102B9800DE6E000EDD6EB60E01019B6FF90E9C6FA6
:102BA8002DC39DF19E6B26C39FF127C3A0F164EC52
:102BB8004AF0000E00017F6F820E7E6F03012D51D7
:102BC800020D140EF324D96E010EF420DA6EDECF56
:102BD80080F0DDCF81F02D5197EC4BF094D0030EAF
:102BE80003012C19D8A466D02FEC3BF00009D8A417
:102BF80027D003012D51010D300EF324D96E010E9B
:102C0800F420DA6E020EDF6E2D51020D0C0EF32445
:102C1800D96E010EF420DA6E26C3DEFF27C3DDFF6E
:102C28002D51020D140EF324D96E010EF420DA6E24
:102C3800000EDE6E000EDD6E010E75EC26F00DD076
:102C480003012D51020D140EF324D96E010EF42048
:102C5800DA6E000EDE6E000EDD6E9A0E01019B6FBD
:102C6800F90E9C6F2DC39DF19E6B03012D51020D32
:102C7800140EF324D96E010EF420DA6EDECF9FF124
:102C8800DDCFA0F164EC4AF0000E00017F6F830EE7
:102C98007E6F03012D51020D140EF324D96E010E1F
:102CA800F420DA6EDECF80F0DDCF81F02D5197EC85
:102CB8004BF029D0040E03012C19D8A424D02D518F
:102CC800010D300EF324D96E010EF420DA6E000ED9
:102CD800DF6E000E75EC26F0D20E01019B6FF90E27
:102CE8009C6F2DC39DF19E6B64EC4AF0000E0001B1
:102CF8007F6F840E7E6F000E816F000E806F030160
:102D08002D5197EC4BF02CA205D00A0E0301231984
:102D1800D8B42C922CC0D8F1210E0101D817D8B400
:102D280008D02950D8A405D0010E3E6402D02C90BA
:102D38002C9A000E0301216F95EF0CF08CEC38F003
:102D48000101D06F5D0E9B6FF90E9C6F64EC4AF029
:102D580001015B51D8A449D0000ED56F2DD0640E67
:102D68000001606F020E616F0101D551010D640E03
:102D7800F324D96E010EF420DA6EDF50B96FB95121
:102D8800440DC80EF3240001626FE90EF420636F4E
:102D9800EEEC48F0000160516111D8A40BD001019C
:102DA800D551010D640EF324D96E010EF420DA6EAC
:102DB800DF505B6F0101D52BFF0EB96FFF0EBA6FA5
:102DC800D051BB6FBC6BB951BB27BA51BC23D5518D
:102DD800BD6FBE6BBB51BD5DBE51800ABF6FBC519C
:102DE800800ABF59D8B0D2D3BAD702016451D8A447
:102DF8008ED3000E01015B6FC9D3640E00016C6FA6
:102E0800020E6D6F81EC42F06CC0D6F16DC0D7F147
:102E1800070E01015B19D8A413D0D75104E10A0E9B
:102E2800D65DD8A00DD0D7510BE1650ED65DD8B0D0
:102E380007D0D6C135F0D7C136F07DEC39F09FD335
:102E4800090E01015B19D8A413D0D75104E10A0E69
:102E5800D65DD8A00DD0D7510BE1510ED65DD8B0B4
:102E680007D0D6C133F0D7C134F07DEC39F087D321
:102E7800080E01015B19D8A413D0D75104E1060E3E
:102E8800D65DD8A00DD0D7510BE1110ED65DD8B0C4
:102E980007D0D6C131F0D7C132F07DEC39F06FD30D
:102EA8000A0E01015B19D8A413D0D75104E10D0E05
:102EB800D65DD8A00DD0D7510BE1510ED65DD8B054
:102EC80007D0D6C188F1D7C189F17DEC39F057D345
:102ED800040E01015B19D8A411D0D651D711D8B46A
:102EE8000DD0D7510BE1110ED65DD8B007D0D6C1A1
:102EF8002FF0D7C130F07DEC39F041D3050E010138
:102F08005B19D8A40DD0D7510BE13D0ED65DD8B0D2
:102F180007D0D6C12DF0D7C12EF07DEC39F02FD3D4
:102F2800100E01015B19D8A410D0D75104E1050E89
:102F3800D65DD8A00AD0D75108E1D629D8B005D097
:102F4800D6C13AF07DEC39F01AD3130E01015B19A2
:102F5800D8A410D0D75104E1050ED65DD8A00AD068
:102F6800D75108E1D629D8B005D0D6C137F07DECC5
:102F780039F005D3230E01019B6FF90E9C6F64ECA9
:102F88004AF0FDD2640E0001BA6F020EBB6F11EC5D
:102F98004BF0BAC0D1F1BBC0D2F1BCC0D3F1BDC0B7
:102FA800D4F1D1C16EF0D2C16FF0D3C170F0D4C1E9
:102FB80071F0000E0001726F000E736FC00E746F17
:102FC800400E756F19EC3FF00001D8A015D0000E27
:102FD8006E6F000E6F6FA00E706F420E716FD1C1D1
:102FE80072F0D2C173F0D3C174F0D4C175F019EC8A
:102FF8003FF00001D8B008D0420E01019B6FF70ED8
:103008009C6F64EC4AF0BBD276C195F077C196F01C
:1030180078C197F079C198F082C199F083C19AF08C
:1030280084C19BF085C19CF0E2EC34F095C0C0F1FE
:1030380096C0C1F197C0C2F198C0C3F1000E00015B
:103048006C6F000E6D6F200E6E6F410E6F6FD1C1E9
:1030580068F0D2C169F0D3C16AF0D4C16BF037EC23
:1030680030F068C095F069C096F06AC097F06BC000
:1030780098F0C0C199F0C1C19AF0C2C19BF0C3C118
:103088009CF0E2EC34F095C082F196C083F197C0D1
:1030980084F198C085F17DEC39F071D2640E00019D
:1030A800606F020E616FA60E626FFB0E636FEEEC2F
:1030B80048F0000160516111D8A405D0020E416E9C
:1030C8007DEC39F05CD2640E0001606F020E616F16
:1030D800E70E626FFC0E636FEEEC48F00001605182
:1030E8006111D8A405D0010E416E7DEC39F047D2AC
:1030F800640E0001606F020E616F9B0E626FFC0E22
:10310800636FEEEC48F0000160516111D8A437D22A
:10311800000E416E7DEC39F0000E2C6E30D2640E3C
:103128000001606F020E616FFE0E626FFB0E636F2F
:10313800EEEC48F0000160516111D8A405D0010EF1
:10314800406E7DEC39F01BD2640E0001606F020EF8
:10315800616FE10E626FFC0E636FEEEC48F00001E8
:1031680060516111D8A405D0020E406E7DEC39F093
:1031780006D2640E0001606F020E616F2F0E626F3F
:10318800FC0E636FEEEC48F0000160516111D8A4A9
:10319800F6D1000E406E7DEC39F0F1D1640E0001DD
:1031A800606F020E616FDB0E626FFC0E636FEEECF8
:1031B80048F0000160516111D8A405D0010E3F6E9E
:1031C8007DEC39F0DCD1640E0001606F020E616F96
:1031D800B00E626FFC0E636FEEEC48F000016051B8
:1031E8006111D8A4CCD1000E3F6E7DEC39F0C7D167
:1031F800640E0001606F020E616F2F0E626FFC0E8D
:10320800636FEEEC48F0000160516111D8A405D05D
:10321800000E3E6E7DEC39F0B2D1640E0001606F95
:10322800020E616FA90E626FFC0E636FEEEC48F040
:10323800000160516111D8A405D0010E3E6E7DECED
:1032480039F09DD1640E0001606F020E616F710E3E
:10325800626FFC0E636FEEEC48F000016051611183
:10326800D8A405D0020E3E6E7DEC39F088D1640EEC
:103278000001606F020E616F780E626FFC0E636F63
:10328800EEEC48F0000160516111D8A405D0030E9E
:103298003E6E7DEC39F073D1640E0001606F020E52
:1032A800616F7F0E626FFC0E636FEEEC48F00001F9
:1032B80060516111D8A463D1040E3E6E7DEC39F0E3
:1032C8005ED1640E0001606F020E616F2F0E626F97
:1032D800FC0E636FEEEC48F0000160516111D8A458
:1032E80005D0000E3D6E7DEC39F049D1640E000129
:1032F800606F020E616F940E626FFC0E636FEEECEE
:1033080048F0000160516111D8A439D1010E3D6E19
:103318007DEC39F034D1640E0001606F020E616FEC
:103328002F0E626FFC0E636FEEEC48F000016051E7
:103338006111D8A405D0000E3C6E7DEC39F01FD188
:10334800640E0001606F020E616F8D0E626FFC0EDD
:10335800636FEEEC48F0000160516111D8A40FD101
:10336800010E3C6E7DEC39F00AD1640E0001606FED
:10337800020E616F2F0E626FFC0E636FEEEC48F069
:10338800000160516111D8A405D0000E3B6E7DECA0
:1033980039F0F5D0640E0001606F020E616F820E85
:1033A800626FFB0E636FEEEC48F000016051611133
:1033B800D8A405D0010E3B6E7DEC39F0E0D0640E48
:1033C8000001606F020E616F8D0E626FFB0E636FFE
:1033D800EEEC48F0000160516111D8A405D0030E4D
:1033E8003B6E7DEC39F0CBD0640E0001606F020EAD
:1033F800616F370E626FFC0E636FEEEC48F00001F0
:1034080060516111D8A405D00A0E3B6E7DEC39F0ED
:10341800B6D0640E0001606F020E616FA20E626F7B
:10342800FC0E636FEEEC48F0000160516111D8A406
:10343800A6D0140E3B6E7DEC39F0A1D0640E0001CD
:10344800606F020E616FF20E626FFC0E636FEEEC3E
:1034580048F0000160516111D8A405D0000E396E02
:103468007DEC39F08CD0640E0001606F020E616F44
:10347800ED0E626FFC0E636FEEEC48F000016051D8
:103488006111D8A47CD0010E396E7DEC39F077D06B
:10349800640E0001606F020E616F2F0E626FFC0EEA
:1034A800636FEEEC48F0000160516111D8A405D0BB
:1034B800000E386E7DEC39F062D0640E0001606F4A
:1034C800020E616F370E626FFC0E636FEEEC48F010
:1034D800000160516111D8A405D00A0E386E7DEC48
:1034E80039F04DD0640E0001606F020E616FA20EBC
:1034F800626FFC0E636FEEEC48F0000160516111E1
:10350800D8A43DD0140E386E7DEC39F038D00101C6
:103518005B51020AD8B442D6010AD8B4BFD5070A0B
:10352800D8B46BD4010AD8B468D4030AD8B460D626
:10353800010AD8B462D40F0AD8B45FD4010AD8B447
:103548005CD4030AD8B459D4010AD8B4E8D5070A18
:10355800D8B4B7D6010AD8B4DED6030AD8B412D57F
:10356800010AD8B402D71F0AD8B447D4010AD8B47C
:1035780065D7030AD8B48CD7010AD8B43ED4000E54
:1035880001015B6F8CEC38F00101D06F0E0E5B65AA
:10359800BED2C40E9B6FFA0E9C6F5B51440D100E89
:1035A800F326000EF422C80EF3249D6FE90EF420D2
:1035B8009E6F5B5170EC2EF0F8C09FF1F9C0A0F13E
:1035C80064EC4AF0A4D2900E01019B6FF20E9C6F3E
:1035D80064EC4AF0C30E01019B6FFB0E9C6F64EC18
:1035E8004AF04E0E01019B6FF60E9C6F64EC4AF098
:1035F800040E01019B6FF90E9C6F59C19DF19E6BE2
:1036080064EC4AF0DD0E01019B6FF20E9C6F64ECD6
:103618004AF0000E0101D56F24D1E70E9B6FFA0E18
:103628009C6FD551010D640EF324D96E010EF42060
:10363800DA6EDF50B96FB951440DC80EF3249D6F8F
:10364800E90EF4209E6FD551010D640EF324D96E56
:10365800010EF420DA6EDF50BA6FBA51440D100E25
:10366800F326000EF422C80EF3249F6FE90EF4200F
:10367800A06F64EC4AF00101D551010D640EF324EA
:10368800D96E010EF420DA6E0E0EDE18D8A4CED054
:1036980076C1AEF077C1AFF078C1B0F079C1B1F0C2
:1036A800A6EC41F0AEC0CCF1AFC0CDF1000E0001E8
:1036B8006C6F000E6D6F200E6E6F410E6F6F76C1CE
:1036C80068F077C169F078C16AF079C16BF037ECBE
:1036D80030F068C0AEF069C0AFF06AC0B0F06BC03F
:1036E800B1F0A6EC41F0AEC0B8F0AFC0B9F0000E32
:1036F8000001BB6F0A0EBA6FA5EC49F0B8C0CEF155
:10370800B9C0CFF17AC1AEF07BC1AFF07CC1B0F0E7
:103718007DC1B1F0A6EC41F0AEC0C4F1AFC0C5F1B7
:10372800000E00016C6F000E6D6F200E6E6F410E63
:103738006F6F7AC168F07BC169F07CC16AF07DC1A6
:103748006BF037EC30F068C0AEF069C0AFF06AC01B
:10375800B0F06BC0B1F0A6EC41F0AEC0B8F0AFC0AD
:10376800B9F0000E0001BB6F0A0EBA6FA5EC49F064
:10377800B8C0C6F1B9C0C7F17EC1AEF07FC1AFF025
:1037880080C1B0F081C1B1F0A6EC41F0AEC0C8F183
:10379800AFC0C9F1000E00016C6F000E6D6F200EF6
:1037A8006E6F410E6F6F7EC168F07FC169F080C196
:1037B8006AF081C16BF037EC30F068C0AEF069C0D8
:1037C800AFF06AC0B0F06BC0B1F0A6EC41F0AEC08B
:1037D800B8F0AFC0B9F0000E0001BB6F0A0EBA6FA7
:1037E800A5EC49F0B8C0CAF1B9C0CBF16E0E010121
:1037F8009B6FF70E9C6FCCC19DF1CDC19EF1CEC1E0
:103808009FF1CFC1A0F1C4C1A1F1C5C1A2F1C6C148
:10381800A3F1C7C1A4F1C8C1A5F1C9C1A6F1CAC124
:10382800A7F1CBC1A8F164EC4AF012D00101D5513F
:10383800010D640EF324D96E010EF420DA6EDF5008
:1038480070EC2EF0F8C09BF1F9C09CF164EC4AF0E2
:103858005D0E01019B6FF90E9C6F64EC4AF001014B
:10386800D52BFF0EB96FFF0EBA6FD051BB6FBC6B73
:10387800B951BB27BA51BC23D551BD6FBE6BBB51E3
:10388800BD5DBE51800ABF6FBC51800ABF59D8A028
:10389800C4D6F90E9B6FFC0E9C6F64EC4AF072D193
:1038A800340E01019B6FF50E9C6F64EC4AF06AD1EF
:1038B800F70E01019B6FF40E9C6F5B5170EC2EF0BC
:1038C800F8C09DF1F9C09EF164EC4AF05BD1A00EFE
:1038D80001019B6FF10E9C6F2FC09DF130C09EF1CE
:1038E80064EC4AF04FD16D0E01019B6FF30E9C6F93
:1038F8002DC09DF12EC09EF164EC4AF043D1EA0E32
:1039080001019B6FF00E9C6F5B5170EC2EF0F8C0BC
:103918009DF1F9C09EF164EC4AF034D1780E0101B2
:103928009B6FF40E9C6F64EC4AF0E70E01019B6FED
:10393800F60E9C6F64EC4AF0B20E01019B6FF30E19
:103948009C6F35C09DF136C09EF164EC4AF01AD1E7
:10395800260E01019B6FF30E9C6F31C09DF132C0A2
:103968009EF164EC4AF00ED1780E01019B6FF40EC3
:103978009C6F64EC4AF0E70E01019B6FF60E9C6F9A
:1039880064EC4AF0370E01019B6FF40E9C6F33C054
:103998009DF134C09EF164EC4AF0F4D0780E010138
:1039A8009B6FF40E9C6F64EC4AF0AD0E01019B6FA7
:1039B800F50E9C6F64EC4AF0F50E01019B6FF30E57
:1039C8009C6F88C19DF189C19EF164EC4AF0DAD000
:1039D800430E01019B6FF20E9C6F5B5170EC2EF051
:1039E800F8C09DF1F9C09EF164EC4AF0CBD0F50E19
:1039F80001019B6FF10E9C6F5B5170EC2EF0F8C0CB
:103A08009DF1F9C09EF164EC4AF0BCD0880E01012A
:103A18009B6FF00E9C6F5B5170EC2EF0F8C09DF11F
:103A2800F9C09EF164EC4AF0ADD076C1AEF077C132
:103A3800AFF078C1B0F079C1B1F0A6EC41F0AEC0FA
:103A4800CCF1AFC0CDF1000E00016C6F000E6D6FB0
:103A5800200E6E6F410E6F6F76C168F077C169F006
:103A680078C16AF079C16BF037EC30F068C0AEF01D
:103A780069C0AFF06AC0B0F06BC0B1F0A6EC41F01D
:103A8800AEC0B8F0AFC0B9F0000E0001BB6F0A0EAF
:103A9800BA6FA5EC49F0B8C0CEF1B9C0CFF1710E3C
:103AA80001019B6FF50E9C6FCCC19DF1CDC19EF1BC
:103AB800CEC19FF1CFC1A0F164EC4AF063D0480EAB
:103AC80001019B6FF10E9C6F64EC4AF05BD0820E93
:103AD80001019B6FF60E9C6F64EC4AF053D0E50E23
:103AE80001019B6FF50E9C6F64EC4AF04BD0B80E49
:103AF80001019B6FF40E9C6F64EC4AF043D0B60E44
:103B080001019B6FF60E9C6F64EC4AF03BD00101FB
:103B18005B51000AD8B457D5020AD8B4C1D6010AF5
:103B2800D8B4C6D6070AD8B4D2D6010AD8B4DBD6D8
:103B3800030AD8B4E4D6010AD8B4F0D60F0AD8B428
:103B480007D7010AD8B410D7030AD8B427D7010A6F
:103B5800D8B43ED7070AD8B44AD7010AD8B456D73A
:103B6800030AD8B462D7010AD8B4A9D71F0AD8B4AF
:103B7800AED7010AD8B4B3D7030AD8B4B8D7010A64
:103B8800D8B4BDD7000E01015D6F000E5F6F120043
:103B980001015851D8B40BD00001FE2B790EFE1943
:103BA800D8A41200000E0101586F5FEC3AF00A0E1B
:103BB8000001FE19D8A402D0000EFE6F2C50D8B414
:103BC800C5D080863C0E01015A6F2CA221D0E30E8D
:103BD8000001CB6FFB0ECC6F000E72EC45F06C0E43
:103BE8000001CB6FFB0ECC6F020E72EC45F0B70EE6
:103BF8000001CB6FFC0ECC6F040E72EC45F0550E35
:103C08000001CB6FFC0ECC6F060E72EC45F0120073
:103C18002CA411D0BD0E0001CB6FFC0ECC6F020E90
:103C280072EC45F0980E0001CB6FFB0ECC6F040EC2
:103C380072EC45F08BD02CA848D00001FE2BFE0575
:103C4800CE6F050ECE6120D0DA0ECB6FFB0ECC6F97
:103C5800000E72EC45F0CF0E0001CB6FFC0ECC6F5E
:103C6800020E72EC45F00F0E0001CB6FFC0ECC6F0C
:103C7800040E72EC45F0C80E0001CB6FFB0ECC6F42
:103C8800060E72EC45F01200C30E0001CB6FFC0E5D
:103C9800CC6F000E72EC45F05C0E0001CB6FFC0E91
:103CA800CC6F020E72EC45F0F20E0001CB6FFB0EEA
:103CB800CC6F040E72EC45F0C90E0001CB6FFC0E00
:103CC800CC6F060E72EC45F012002CAC3FD0170EEC
:103CD8000001CB6FFC0ECC6F020E72EC45F0560E55
:103CE8000001CB6FFB0ECC6F040E72EC45F0000E9A
:103CF8000101396F640E386FFDC060F00001616B1F
:103D0800000E636F0A0E626FEDEC44F0300E000196
:103D18006025C46F000E6121C56FEBEC3BF0FDC060
:103D2800B8F00001B96B000EBB6F0A0EBA6FA6ECB3
:103D380046F0300E0001B825C46F000EB921C56FDA
:103D4800EBEC3BF0040E6BEC46F01200500E000159
:103D5800FD19D8A410D0170ECB6FFC0ECC6F020E35
:103D680072EC45F06A0E0001CB6FFC0ECC6F040EAE
:103D780072EC45F012000001FE2B4150D8A4ABD0E4
:103D8800030E4218D8A467D0D10ECB6FFB0ECC6FB0
:103D9800020E72EC45F0000E0101396F220E386FE9
:103DA80074EC4BF014C160F015C161F0000E000115
:103DB800636F640E626FEDEC44F0300E0001602515
:103DC800C46F000E6121C56FEBEC3BF0000E0001E3
:103DD800636F0A0E626F14C160F015C161F0EDECFB
:103DE80044F060C0B8F061C0B9F0000E0001BB6FCC
:103DF8000A0EBA6FA6EC46F0300E0001B825C46F63
:103E0800000EB921C56FEBEC3BF0000E0001C56F49
:103E18002E0EC46FEBEC3BF014C1B8F015C1B9F02D
:103E2800000E0001BB6F0A0EBA6FA6EC46F0300E0A
:103E38000001B825C46F000EB921C56FEBEC3BF04B
:103E4800000E0001C56F410EC46FEBEC3BF0040E91
:103E58006BEC46F046D3000E0001656F000E25ECB2
:103E68004BF0040E0001656F010E25EC4BF0285055
:103E7800D8A403D03D50D8A411D0EC0E0001CB6FCC
:103E8800FB0ECC6F020E72EC45F0B60E0001CB6F44
:103E9800FB0ECC6F040E72EC45F010D0630E0001DF
:103EA800CB6FFC0ECC6F020E72EC45F04E0E00018B
:103EB800CB6FFC0ECC6F040E72EC45F0100E0001B7
:103EC800656F060E25EC4BF0000E0001656F070EBE
:103ED80025EC4BF006D34104D8B404D0020E4118A7
:103EE800D8A4FFD246EC4AF0010147AF07D0030E31
:103EF800E75F140EE76109D02C0E06D0030EE72702
:103F08002C0EE76502D0140EE76FE7C138F1396B64
:103F1800000E876F030E866F46C1BEF047C1BFF023
:103F2800FCEC4AF00001BFBF0CD0BF5104E1040E05
:103F3800BE5DD8A006D0000EC36FFE0EC26FB4ECF3
:103F480043F0030E4218D8A45CD080863C0E0101D1
:103F58005A6F030EE627590EE66502D04A0EE66F41
:103F6800E6C138F1396B000E876F030E866F000EBD
:103F78000001C36FFE0EC26FB4EC43F0000E0101E6
:103F8800876F020E866F000E396F4D0E386F14C1A1
:103F980060F015C161F0000E0001636F640E626F7E
:103FA800EDEC44F0300E00016025C26F000E612177
:103FB800C36FB4EC43F0000E0001636F0A0E626F2A
:103FC80014C160F015C161F0EDEC44F060C0B8F0C8
:103FD80061C0B9F0000E0001BB6F0A0EBA6FA6EC03
:103FE80046F0300E0001B825C26F000EB921C36F2C
:103FF800B4EC43F0000E0001C36F410EC26FB4EC85
:1040080043F0050E0001FE61BBD0020E4118D8A492
:10401800B7D0000E0101396F1D0E386F000E876F83
:10402800010E866F000E0001C36FE30EC26FB4EC81
:1040380043F0000E0101876F020E866F46C1BEF085
:1040480047C1BFF0FCEC4AF00001BFBF34D0E90E15
:10405800BE5D030EBF59D8A02ED0000E0101396FE6
:10406800110E386F47AF07D0000E0001C36F2D0E39
:10407800C26FB4EC43F0000E0101396F170E386FB0
:1040880046C160F047C161F0030E0001636FE80E9E
:10409800626FEDEC44F060C0BEF061C0BFF0FCECB4
:1040A8004AF0300E0001BE25C26F000EBF21C36F5B
:1040B800B4EC43F00ED0000E0101396F170E386FC3
:1040C80047AF07D0000E0001C36F2D0EC26FB4ECCE
:1040D80043F0000E0101396F1D0E386F000E00010C
:1040E800636F640E626F46C160F047C161F0EDEC2A
:1040F80044F060C0B8F061C0B9F0000E0001BB6FB9
:104108000A0EBA6FA6EC46F0B8C0BEF0B9C0BFF050
:10411800FCEC4AF0300E0001BE25C26F000EBF2134
:10412800C36FB4EC43F0000E0001636F0A0E626FB8
:1041380046C160F047C161F0EDEC44F060C0B8F0F2
:1041480061C0B9F0000E0001BB6F0A0EBA6FA6EC91
:1041580046F0B8C0BEF0B9C0BFF0FCEC4AF0300E73
:104168000001BE25C26F000EBF21C36FB4EC43F03F
:10417800000E0001C36F410EC26FB4EC43F0A4D02F
:10418800000E0001D26F020ED26501D09DD0D2C0C0
:1041980086F10101876B000E396F170E386F000129
:1041A800D251040D760EF324D96E010EF420DA6E86
:1041B800030EDBAE07D0000EC36F2D0EC26FB4EC3A
:1041C80043F005D0000E0101396F1D0E386F000E47
:1041D8000001996F000E9A6FC80E9B6F420E9C6F7C
:1041E800D251040D760EF324D96E010EF420DA6E46
:1041F800DECF95F0DECF96F0DECF97F0DECF98F0E9
:10420800E2EC34F095C0AEF096C0AFF097C0B0F0D5
:1042180098C0B1F0A6EC41F0AEC0BEF0AFC0BFF0A0
:10422800FCEC4AF0300E0001BE25C26F000EBF2123
:10423800C36FB4EC43F0000E0001996F000E9A6F43
:10424800200E9B6F410E9C6FD251040D760EF32405
:10425800D96E010EF420DA6EDECF95F0DECF96F03F
:10426800DECF97F0DECF98F0E2EC34F095C0AEF0F8
:1042780096C0AFF097C0B0F098C0B1F0A6EC41F08E
:10428800AEC0B8F0AFC0B9F0000E0001BB6F0A0EA7
:10429800BA6FA6EC46F0B8C0BEF0B9C0BFF0FCECEF
:1042A8004AF0300E0001BE25C26F000EBF21C36F59
:1042B800B4EC43F0000E0001C36F410EC26FB4ECC2
:1042C80043F00001D22B5FD7000E33EC40F0000E14
:1042D8000001656F040E25EC4BF02CA015D0050EDF
:1042E8000001FE6108D0070ECB6FFC0ECC6F050EE7
:1042F80072EC45F0F0D0AC0E0001CB6FFB0ECC6F2A
:10430800050E72EC45F0E7D02CAA15D0050E000179
:10431800FE6108D0070ECB6FFC0ECC6F050E72EC59
:1043280045F0D9D0A20E0001CB6FFB0ECC6F050E65
:1043380072EC45F0D0D04204D8B404D0020E421832
:10434800D8A43AD0D50E0001CB6FFC0ECC6F050E69
:1043580072EC45F02950D8B4BED0000E0101396F77
:10436800640E386F29C060F00001616B000E636F46
:104378000A0E626FEDEC44F0300E00016025C46F48
:10438800000E6121C56FEBEC3BF029C0B8F00001CD
:10439800B96B000EBB6F0A0EBA6FA6EC46F0300E72
:1043A8000001B825C46F000EB921C56FEBEC3BF0D6
:1043B800050E6BEC46F08FD0030E4218D8A48BD0B4
:1043C80080863C0E01015A6F070E0001FE6124D061
:1043D800040EFE6118D04150D8B415D0020E411811
:1043E800D8A408D0A60ECB6FFB0ECC6F050E72ECCE
:1043F80045F06ED0E70E0001CB6FFC0ECC6F050EBA
:1044080072EC45F065D0D10E0001CB6FFB0ECC6F7E
:10441800050E72EC45F05CD0000E0101396F220EDA
:10442800386F74EC4BF014C160F015C161F0000EE8
:104438000001636F640E626FEDEC44F0300E000112
:104448006025C46F000E6121C56FEBEC3BF0000ED8
:104458000001636F0A0E626F14C160F015C161F04C
:10446800EDEC44F060C0B8F061C0B9F0000E000196
:10447800BB6F0A0EBA6FA6EC46F0300E0001B825E5
:10448800C46F000EB921C56FEBEC3BF0000E0001C4
:10449800C56F2E0EC46FEBEC3BF014C1B8F015C11C
:1044A800B9F0000E0001BB6F0A0EBA6FA6EC46F019
:1044B800300E0001B825C46F000EB921C56FEBECB2
:1044C8003BF0000E0001C56F410EC46FEBEC3BF0F2
:1044D800050E6BEC46F0000E0001656F070E25EC2B
:1044E8004BF001015A51D8B402D05A0712008096F5
:1044F80012000101C66F21EEDEF011EEBDF0040ED0
:10450800DBCFE3FFE806FCE2E3C1C2F1E4C1C3F19B
:10451800E5C1C4F18CEC38F00101C56F3C0E5A6F4F
:1045280080863C04D8B42CA802D081A22C9858517B
:10453800D8A412D0050EC619D8A40ED04E51D8A4AE
:104548000BD0010E586F22C020F123C021F124C0E6
:1045580022F125C023F17ED25805D8A419D0D00E57
:104568002025B96F070E2121BA6F000E2221BB6FDB
:10457800000E2321BC6F2250B95D2350BA59245034
:10458800BB592550BC59D8B003D0020E586F24D05F
:104598005805D8A40BD0070EC619D8A407D0000E0A
:1045A800586F000E4E6FCCEC1DF054D20E0E010168
:1045B8005819D8A413D0020EC619D8A40FD0575131
:1045C800D8B40CD0000E826F000E836F800E846FFB
:1045D8003F0E856F000E576F010E87D1010E58658B
:1045E80086D1020EC619D8B408D0030EC619D8B49D
:1045F80004D0060EC619D8A47AD14E51D8A477D1C2
:104608005751D8A429D161D13FC060F0000E0001F4
:10461800616F010E626F0101C65128EC4AF03F6ECE
:1046280009D241C060F0000E0001616F020E626F96
:104638000101C65128EC4AF0416EFCD12FC060F050
:1046480030C061F0000E0001636F010E626F000E52
:10465800656F100E646F0101C65141EC48F060C0EF
:104668002FF061C030F0E6D12DC060F02EC061F0AF
:10467800000E0001636F000E626F000E656F3C0E46
:10468800646F0101C65141EC48F060C02DF061C073
:104698002EF0D0D13EC060F0000E0001616F040E14
:1046A800626F0101C65128EC4AF03E6EC3D135C095
:1046B80060F036C061F0000E0001636F0A0E626F91
:1046C800000E656F640E646F0101C65141EC48F03D
:1046D80060C035F061C036F0ADD131C060F032C095
:1046E80061F0000E0001636F060E626F000E656FC9
:1046F800100E646F0101C65141EC48F060C031F002
:1047080061C032F097D133C060F034C061F0000E60
:104718000001636F0A0E626F000E656F500E646FC2
:104728000101C65141EC48F060C033F061C034F07B
:1047380081D140C060F0000E0001616F020E626F0F
:104748000101C65128EC4AF0406E74D188C160F06E
:104758000D0E0001616F500E626F0101C65128EC09
:104768004AF00101B96FB951886F896B63D136C1BD
:1047780060F037C161F0000E0001636F3C0E626F9C
:10478800030E656FE80E646F0101C65141EC48F0F5
:1047980060C036F161C037F14DD13DC060F0000E08
:1047A8000001616F010E626F0101C65128EC4AF0E9
:1047B8003D6E40D13CC060F0000E0001616F010EFB
:1047C800626F0101C65128EC4AF03C6E33D13BC000
:1047D80064F0BD0E0001656F010E666F050E676F10
:1047E8000101C6516DEC48F03B6E24D13AC060F02F
:1047F800050E0001616FFE0E626F0101C65128ECC3
:104808004AF03A6E17D139C060F0000E0001616FAE
:10481800010E626F0101C65128EC4AF0396E0AD1C7
:1048280038C064F0C20E0001656F010E666F030E9A
:10483800676F0101C6516DEC48F0386EFBD037C088
:1048480060F0050E0001616FFE0E626F0101C65136
:1048580028EC4AF0376EEED001015851020AD8B45C
:10486800D3D6010AD8B4DDD6070AD8B4E7D6010AE8
:10487800D8B4FAD6030AD8B40DD7010AD8B417D7D2
:104888000F0AD8B42AD7010AD8B43DD7030AD8B436
:104898005DD7010AD8B44DD7070AD8B47ED7010A24
:1048A800D8B488D7030AD8B462D7010AD8B48FD746
:1048B8001F0AD8B49BD7010AD8B4A5D7030AD8B41D
:1048C800AFD7010AD8B4BBD7B5D058C164F0640ECD
:1048D8000001656F010E666FC5C167F00101C65121
:1048E8006DEC48F00101586FA5D04E6FB3D0010EA2
:1048F8005865A3D0050EC619D8A49FD04E51D8A488
:104908009CD05751D8B468D0000E576F0E0E581966
:10491800D8A490D03451361904E135513719D8B498
:1049280089D034C160F035C161F00001626B636BFE
:10493800000E9CEC3CF060C095F061C096F062C03F
:1049480097F063C098F082C199F083C19AF084C14E
:104958009BF085C19CF0E2EC34F095C01CF196C048
:104968001DF197C01EF198C01FF136C160F037C124
:1049780061F00001626B636B000E9CEC3CF060C060
:1049880095F061C096F062C097F063C098F01CC1C2
:1049980099F01DC19AF01EC19BF01FC19CF0E2EC7A
:1049A80034F095C082F196C083F197C084F198C025
:1049B80085F136C160F037C161F00001626B636B4D
:1049C800000E9CEC3CF060C076F161C077F162C0EB
:1049D80078F163C079F12ED0010E0101576F0E0EE8
:1049E8005819D8A413D076C1AEF077C1AFF078C10A
:1049F800B0F079C1B1F0A6EC41F0AEC036F1AFC06D
:104A080037F136C134F137C135F114D0140E010134
:104A18005819D8A40FD0000E586F000E576F000E0B
:104A28002C6E000E0001FD6F000E296E7DEC39F032
:104A3800CCEC1DF0010E010158D7070EC619D8A4F9
:104A480009D0000E4E6F000E0001616F0A0E606FF4
:104A5800E9EC49F001014E05D8B403D05805D8A4B3
:104A680030D15805D8A429D0000E0001656F000E7A
:104A780025EC4BF0040E0001656F010E25EC4BF0A0
:104A8800770E0001CB6FFB0ECC6F020E72EC45F077
:104A9800F50E0001CB6FFB0ECC6F040E72EC45F0E7
:104AA800100E0001656F060E25EC4BF0000E00019C
:104AB800656F070E25EC4BF001D101015851440DEB
:104AC800070EF326000EF422C80EF3240001FA6F35
:104AD800E90EF420FB6F020EFC6FEDEC42F00E0EB7
:104AE80001015819D8A4DDD074EC4BF001015751DD
:104AF800D8B456D0B6EC4AF0000E0101396F280E32
:104B0800386F36C1BDF037C1BEF0000E0001C06F6E
:104B1800640EBF6FC4EC48F0300E0001BD25C46FB1
:104B2800000EBE21C56FEBEC3BF0000E0001BB6F21
:104B3800640EBA6F36C1B8F037C1B9F0A5EC49F0C8
:104B4800B8C0BDF0B9C0BEF0000E0001C06F0A0EBB
:104B5800BF6FC4EC48F0300E0001BD25C46F000ED5
:104B6800BE21C56FEBEC3BF0000E0001C56F2E0EA9
:104B7800C46FEBEC3BF036C1B8F037C1B9F0000EAA
:104B88000001BB6F0A0EBA6FA5EC49F0300E0001A8
:104B9800B825C46F000EB921C56FEBEC3BF071D09E
:104BA800000E0101396F280E386F76C1AEF077C15B
:104BB800AFF078C1B0F079C1B1F0A6EC41F0AEC069
:104BC800BDF0AFC0BEF0000E0001C06F640EBF6F35
:104BD800C4EC48F0300E0001BD25C46F000EBE21A4
:104BE800C56FEBEC3BF0000E0001BB6F640EBA6FB3
:104BF80076C1AEF077C1AFF078C1B0F079C1B1F04D
:104C0800A6EC41F0AEC0B8F0AFC0B9F0A5EC49F0E1
:104C1800B8C0BDF0B9C0BEF0000E0001C06F0A0EEA
:104C2800BF6FC4EC48F0300E0001BD25C46F000E04
:104C3800BE21C56FEBEC3BF0000E0001C56F2E0ED8
:104C4800C46FEBEC3BF076C1AEF077C1AFF078C142
:104C5800B0F079C1B1F0A6EC41F0AEC0B8F0AFC089
:104C6800B9F0000E0001BB6F0A0EBA6FA5EC49F04F
:104C7800300E0001B825C46F000EB921C56FEBECEA
:104C88003BF0000E0101396F580E386F000E00011D
:104C9800C56F410EC46FEBEC3BF0040E6BEC46F0B5
:104CA8000DD00101585170EC2EF0F8C0FAF0F9C09F
:104CB800FBF0040E0001FC6FEDEC42F0020E010166
:104CC8004E6F22C028F123C029F124C02AF125C043
:104CD8002BF1000E566FC6C1E8F1000E0001FE6F01
:104CE80012000101CB6F000E0101D16F000ED06FD1
:104CF800000EC66F000EC56F000EC46F000EC36FA6
:104D080024C1BFF125C1C0F126C1C1F127C1C2F13B
:104D18003E50D8A412D0010ED26F030ED26501D036
:104D28000CD0D251010D300EF324D96E010EF420AF
:104D3800DA6E000EDF6ED22BF0D7020E3019D8A42F
:104D480012D033504C5D34504D59D8B00CD04CC1B2
:104D580066F04DC167F0000E0001696F0A0E686FBA
:104D68004DEC4BF00BD033C066F034C067F0000E4A
:104D78000001696F0A0E686F4DEC4BF066C04AF18E
:104D880067C04BF1020E3E6004D04AC10CF14BC122
:104D98000DF1000E0101D26F030ED26501D028D0AB
:104DA800D251010D300EF324D96E010EF420DA6EC3
:104DB800020EDE18D8A41AD0D04BD12BD251020D36
:104DC8000C0EF324D96E010EF420DA6EDE50C527DE
:104DD800DD50C623D251020D140EF324D96E010EF4
:104DE800F420DA6EDE50C327DD50C423D22BD4D78B
:104DF800CB51D8A451D0020E4118D8B44DD026C0FA
:104E0800FAF027C0FBF00001FA1FFB1FFA4BFB2B3F
:104E180035C066F036C067F0000E696F0A0E686F1D
:104E28004DEC4BF00001FA5166250101CC6F0001F1
:104E3800FB5167210101CD6FCDBF18D0CD5103E1E2
:104E4800CC05D8A013D0CCC160F0CDC161F0000E64
:104E58000001636F040E626FEDEC44F000016051D5
:104E68000101442700016151010103D0CC514427BD
:104E7800CD51452345AF04D0000E456F000E446F59
:104E880045BF0AD0210E445D030E4559D8A004D071
:104E9800030E456F200E446FCB51D8A479D0020E73
:104EA8004118D8A475D047AF1AD047AF0CD0F60E2A
:104EB800465DFF0E4759D8B006D0050E4425446F0D
:104EC800000E452126D046C160F047C161F0000EB2
:104ED8000001636F040E626FEDEC44F00BD046C125
:104EE80060F047C161F0000E0001636F020E626F4F
:104EF800EDEC44F00001601F611F604B612B010164
:104F08004451000160250101446F455100016121B0
:104F18000101456F31C066F032C067F0000E000134
:104F2800696F0A0E686F4DEC4BF000016651010184
:104F3800445D0001675101014559D8A002D045AF31
:104F480025D031C066F032C067F0000E0001696FED
:104F58000A0E686F4DEC4BF066C044F167C045F12E
:104F6800030E4218D8A40FD02D502E10D8B40BD051
:104F7800010147BF08D0475104E10B0E465DD8A098
:104F880002D0010E04D0000E010101D0000E4F6FB7
:104F980033C066F034C067F0000E0001696F0A0E76
:104FA800686F4DEC4BF0010144510001665D010151
:104FB800455100016759D8B00ED033C066F034C0EF
:104FC80067F0000E696F0A0E686F4DEC4BF066C013
:104FD80044F167C045F1C3C166F0C4C167F0000E73
:104FE8000001696F0A0E686F4DEC4BF00001661FF7
:104FF800671F664B672B265066250101CE6F275029
:10500800000167210101CF6FCFAF04D0000ECF6F31
:10501800000ECE6F4150D8A41ED03E50D8B40CD04C
:1050280035C066F036C067F0000E0001696F0A0EE1
:10503800686F4DEC4BF00BD04AC166F04BC167F07E
:10504800000E0001696F0A0E686F4DEC4BF066C0E8
:1050580044F167C045F10101D051D111D8B4120013
:10506800CB51D8B41DD0CEC1FAF0CFC1FBF00001AE
:10507800FA1FFB1FFA4BFB2B35C066F036C067F0F2
:10508800000E696F0A0E686F4DEC4BF00001FA5183
:1050980066250101446F0001FB5167210101456F3D
:1050A80045BF23D031C066F032C067F0D0C168F088
:1050B800D1C169F04DEC4BF066C0C7F167C0C8F1CB
:1050C800C7C166F0C8C167F0000E0001696F0A0E1B
:1050D800686F4DEC4BF0000166510101445D000121
:1050E800675101014559D8B025D0552BF80E9B6F53
:1050F800FA0E9C6F64EC4AF031C066F032C067F07B
:10510800D0C168F0D1C169F04DEC4BF066C0C7F171
:1051180067C0C8F1C7C166F0C8C167F0000E0001DA
:10512800696F0A0E686F4DEC4BF066C044F167C0BA
:1051380045F103D0000E0101556F01014451C55DD1
:10514800C651800A0001FA6F01014551800A000129
:10515800FA59D8B004D0C5C144F1C6C145F144C11B
:10516800C9F145C1CAF1150E01019B6FF70E9C6F7D
:1051780026C09DF127C09EF144C19FF145C1A0F111
:10518800CEC1A1F1CFC1A2F164EC4AF0000E010139
:10519800D26FC9C160F0CAC161F0D0C162F0D1C19B
:1051A80063F0EDEC44F060C0B9F161C0BAF10101FF
:1051B800D251010D300EF324D96E010EF420DA6EAF
:1051C800020EDE18D8A44FD0D251010DBF0EF32421
:1051D800D96E010EF420DA6EDF50D8A444D0D25133
:1051E800020D0C0EF324D96E010EF420DA6EDE5097
:1051F800B95DBA51800A0001FC6FDE50800AFC5983
:10520800D8A031D00101D251020D0C0EF324D96E71
:10521800010EF420DA6ED251020D140EF324E16E61
:10522800010EF420E26EDECFE6FFDDCFE5FFD251BE
:10523800010DBF0EF324D96E010EF420DA6E010EB3
:10524800DF6ED007D8A0D107D251020D140EF32477
:10525800D96E010EF420DA6EDE50C95FDD50CA5BEC
:10526800000ED26F02D00101D22B040ED26104D0FD
:10527800D051D111D8A48DD7000ED26FD051D111F1
:10528800D8B451D0D251010D300EF324D96E010E8D
:10529800F420DA6E020EDE18D8A43DD0D251010DEA
:1052A800BF0EF324D96E010EF420DA6EDF50D8A4B5
:1052B80032D0C9C160F0CAC161F0D0C162F0D1C1B9
:1052C80063F0EDEC44F00101D251020D140EF32409
:1052D800D96E010EF420DA6E000160C0DEFF61C0F5
:1052E800DDFF0101D251010DBF0EF324D96E010E6D
:1052F800F420DA6E010EDF6ED007D8A0D107D251A4
:10530800020D140EF324D96E010EF420DA6EDE506D
:10531800C95FDD50CA5BD22B040ED26104D0D051D4
:10532800D111D8A4AFD7000ED26F030ED26501D029
:1053380053D0D251020D140EF324D96E010EF4206D
:10534800DA6EDECF60F0DDCF61F0000E0001636F32
:105358000A0E626FEDEC44F060C0BBF161C0BCF1B5
:105368000101D251020D140EF324D96E010EF4205E
:10537800DA6EDECFB8F0DDCFB9F0000E0001BB6FFA
:105388000A0EBA6FA6EC46F0B8C0BDF1B9C0BEF1BE
:10539800600E01019B6FFA0E9C6FD2C19DF19E6B4E
:1053A800D251010D300EF324D96E010EF420DA6EBD
:1053B800DF500001FA6FFA5101019F6FA06BBBC16A
:1053C800A1F1BCC1A2F1BDC1A3F1BEC1A4F164ECBD
:1053D8004AF00101D22BA9D7040E9B6FFB0E9C6FDC
:1053E80064EC4AF012000001C66F0001C6AF27D175
:1053F800C66DC651800A120FD8A0A5D0000E636FE3
:105408000A0E626F000EBB6F640EBA6FC651B86F9A
:10541800B96BB8BFB907A6EC46F0B8C060F0B9C020
:1054280061F0EDEC44F00001D89060376137D89016
:1054380060376137240E6027000E61236C0E6025EB
:10544800F66EE90E6121F76EF86A000EF82209007F
:10545800F5CF6CF00900F5CF6DF00900F5CF6EF0CF
:105468000A00F5CF6FF0000E636F640E626FC651CD
:10547800606F616B60BF6107EDEC44F00001D8908C
:1054880060376137D89060376137480E6027000E63
:1054980061236C0E6025F66EE90E6121F76EF86ADD
:1054A800000EF8220900F5CF68F00900F5CF69F081
:1054B8000900F5CF6AF00A00F5CF6BF037EC30F051
:1054C80068C0C2F069C0C3F06AC0C4F06BC0C5F060
:1054D800C2C068F0C3C069F0C4C06AF0C5C06BF050
:1054E800000E0001BB6F0A0EBA6FC651B86FB96BD8
:1054F800B8BFB907A6EC46F00001D890B837B9375D
:10550800D890B837B9376C0EB825F66EE90EB921C0
:10551800F76EF86A000EF8220900F5CF6CF0090062
:10552800F5CF6DF00900F5CF6EF00A00F5CF6FF0FA
:1055380037EC30F068C0BEF069C0BFF06AC0C0F098
:105548006BC0C1F012000001C651800A750FD8A0C7
:105558005DD0000E636F0A0E626FC651606F616B9B
:1055680060BF6107EDEC44F00001D8906037613707
:10557800D89060376137240E6027000E61236C0EC7
:105588006025F66EE90E6121F76EF86A000EF822C2
:105598000900F5CF68F00900F5CF69F00900F5CFEB
:1055A8006AF00A00F5CF6BF0000EBB6F0A0EBA6FF7
:1055B800C651B86FB96BB8BFB907A6EC46F0000181
:1055C800D890B837B937D890B837B9376C0EB825EE
:1055D800F66EE90EB921F76EF86A000EF822090096
:1055E800F5CF6CF00900F5CF6DF00900F5CF6EF03E
:1055F8000A00F5CF6FF037EC30F068C0BEF069C034
:10560800BFF06AC0C0F06BC0C1F012000001C65103
:10561800040D6C0EF324F66EE90EF420F76EF86AAA
:10562800000EF8220900F5CFBEF00900F5CFBFF053
:105638000900F5CFC0F00A00F5CFC1F01200C6513D
:10564800800A120FD8A0A5D0000E636F0A0E626FF1
:10565800000EBB6F640EBA6FC651B86FB96BB8BF96
:10566800B907A6EC46F0B8C060F0B9C061F0EDEC3F
:1056780044F00001D89060376137D89060376137BF
:10568800240E6027000E6123380E6025F66EE90EA1
:105698006121F76EF86A000EF8220900F5CF6CF068
:1056A8000900F5CF6DF00900F5CF6EF00A00F5CFCF
:1056B8006FF0000E636F640E626FC651606F616BAE
:1056C80060BF6107EDEC44F00001D89060376137A6
:1056D800D89060376137480E6027000E6123380E76
:1056E8006025F66EE90E6121F76EF86A000EF82261
:1056F8000900F5CF68F00900F5CF69F00900F5CF8A
:105708006AF00A00F5CF6BF037EC30F068C0C2F0F1
:1057180069C0C3F06AC0C4F06BC0C5F0C2C068F00D
:10572800C3C069F0C4C06AF0C5C06BF0000E0001C8
:10573800BB6F0A0EBA6FC651B86FB96BB8BFB9075D
:10574800A6EC46F00001D890B837B937D890B837EA
:10575800B937380EB825F66EE90EB921F76EF86A32
:10576800000EF8220900F5CF6CF00900F5CF6DF0B6
:105778000900F5CF6EF00A00F5CF6FF037EC30F086
:1057880068C0BEF069C0BFF06AC0C0F06BC0C1F0AD
:1057980012000001C651800A750FD8A05DD0000E16
:1057A800636F0A0E626FC651606F616B60BF6107FD
:1057B800EDEC44F00001D89060376137D89060373D
:1057C8006137240E6027000E6123380E6025F66EBF
:1057D800E90E6121F76EF86A000EF8220900F5CF8C
:1057E80068F00900F5CF69F00900F5CF6AF00A0002
:1057F800F5CF6BF0000EBB6F0A0EBA6FC651B86FCB
:10580800B96BB8BFB907A6EC46F00001D890B83715
:10581800B937D890B837B937380EB825F66EE90ECB
:10582800B921F76EF86A000EF8220900F5CF6CF07E
:105838000900F5CF6DF00900F5CF6EF00A00F5CF3D
:105848006FF037EC30F068C0BEF069C0BFF06AC0D6
:10585800C0F06BC0C1F012000001C651040D380E33
:10586800F324F66EE90EF420F76EF86A000EF822BB
:105878000900F5CFBEF00900F5CFBFF00900F5CF5C
:10588800C0F00A00F5CFC1F012000001B051B1110B
:10589800D8B40CD0B0C0D9FFB1C0DAFFAEC0DEFFBB
:1058A800AFC0DDFF03D00001AE4BAF2BAEC0D9FFB8
:1058B800AFC0DAFFDF50B36FB351E7EC4AF0D8B0AE
:1058C800F2D7000E0001B46F2D0EB319D8A403D07F
:1058D800010EB46F04D02B0EB319D8A402D0AE4B6E
:1058E800AF2B000EB36F000EB66F000EB76F000E31
:1058F800B86F000EB96F000EB56FB4B90AD0AEC05C
:10590800D9FFAFC0DAFF2E0EDE18D8A402D0B489B2
:105918003ED0AEC0D9FFAFC0DAFFDF50A8EC4BF0E5
:10592800D8A038D00001B483090EB319D8B42DD04B
:10593800B4B9B507B32BB6C060F0B7C061F0B8C052
:1059480062F0B9C063F00A0E646F000E656F000E56
:10595800666F000E676F15EC48F060C0B6F061C066
:10596800B7F062C0B8F063C0B9F0AEC0D9FFAFC03D
:10597800DAFFDF500001B26FD00EB227B251B6275E
:10598800000EB723B823B92302D0B4A9B52BAE4B68
:10599800AF2BB3D7000E0001B36FAEC0D9FFAFC0B5
:1059A800DAFF650EDE18D8B408D0AEC0D9FFAFC094
:1059B800DAFF450EDE18D8A462D0AE4BAF2BAEC0CE
:1059C800D9FFAFC0DAFF2D0EDE18D8A402D0B487F5
:1059D80008D0AEC0D9FFAFC0DAFF2B0EDE18D8A4AE
:1059E80002D0AE4BAF2BAEC0D9FFAFC0DAFF300E3E
:1059F800DE18D8B4F6D7AEC0D9FFAFC0DAFFDF5093
:105A0800A8EC4BF0D8A038D0AEC0D9FFAFC0DAFFB1
:105A1800DF50D00F0001B36FAE4BAF2BAEC0D9FF34
:105A2800AFC0DAFFDF50A8EC4BF0D8A025D0AEC04D
:105A3800D9FFAFC0DAFFDF500001B26FB3510A0DD2
:105A4800F350B225D00FB36FAE4BAF2BAEC0D9FF1A
:105A5800AFC0DAFFDF50A8EC4BF0D8A00DD0AEC035
:105A6800D9FFAFC0DAFFDF500001B26FB3510A0DA2
:105A7800F350B225D00FB36F0001B4B7B36DB35173
:105A8800B527B051B111D8A4B4A308D0B0C0D9FF7C
:105A9800B1C0DAFFAEC0DEFFAFC0DDFFB6C060F058
:105AA800B7C061F0B8C062F0B9C063F0010E9CECF9
:105AB8003CF060C0B6F061C0B7F062C0B8F063C037
:105AC800B9F00001B651B711B811B911D8A409D06D
:105AD800000EAE6F000EAF6F000EB06F000EB16F0C
