:020000040000FA
:040000003FEF01F0DD
:100008005982D9CF05F0DACF06F02ED0AECFEDF079
:10001800030E01012525016E000E2621026E000E39
:100028002721036E000E2821046E2951015C2A51F4
:1000380002582B5103582C51045801E25A6B320EC6
:100048005A1901E15A079E0E5A25D96EDA6A020E2C
:10005800DA22EDC0DFFF5A2B29C125F12AC126F18A
:100068002BC127F12CC128F19EBAD0D79EB89DA8E4
:1000780047D0000E01015625D96EDA6A030EDA223E
:10008800DF50AD6E562B5551561903E0320E5619F6
:1000980037E19D98566B34D071B4D0A209D057047B
:1000A80007E174CFEDF00001ED5104E1FF0002D04B
:1000B80074CFEDF0D082EDC073FF320E01015919F3
:1000C80001E15907080E0001ED1905E10101595137
:1000D80002E0590715D00D0E0001ED1903E00A0ED4
:1000E800ED1904E1ED6B01015929576F6C0E0101FF
:1000F8005925D96EDA6A020EDA22EDC0DFFF592BD4
:10010800A4BACAD7B0D00001F30552E1545003E1B4
:10011800030E571826E02C0E01013B5D010E3C59D9
:1001280002E2899801D08988898A3B51016E3C5145
:10013800026E3B4B3C2B910E015C010E02580EE304
:1001480082B208D0890E3B5D130E3C5907E33B6B26
:100158003C6B04D0010E3C6F900E3B6F3D6B3E6BC9
:1001680072D02C0E01013D5D010E3E5903E28988D3
:10017800899A02D08988898A3D51016E3E51026E62
:100188003D4B3E2B910E015C010E02580EE382A2FC
:1001980008D0890E3D5D130E3E5907E33D6B3E6B5B
:1001A80004D0010E3E6F900E3D6F3B6B3C6B4BD005
:1001B800020EF31948E1545003E1030E571821E0E9
:1001C800580E01013B5D020E3C5902E2899801D0AC
:1001D8008988898A3B51016E3C51026E3B4B3C2B0E
:1001E800BD0E015C020E0258B9E382A206D0890E48
:1001F8003B5D130E3C59ABE2B1D7020E3C6FBC0E0F
:10020800ACD7580E01013D5D020E3E5903E28988C4
:10021800899A02D08988898A3D51016E3E51026EC1
:100228003D4B3E2BBD0E015C020E0258BEE382B26E
:1002380006D0890E3D5D130E3E59B0E2B6D7020EC8
:100248003E6FBC0EB1D70101292B000E2A232B23A8
:100258002C234E074E2906E14BC167FF0A0E4E6F4D
:10026800010E4D6F7E907EB04ED706C0DAFF05C0F6
:10027800D9FF5992110012EF3DF0E0EF0AF0250E78
:10028800981930E07351D96EDA6A020ED926DE5019
:10029800DE1013E07351D96EDA6A020ED92602D83D
:1002A800E0EF0AF00500FA6EDE50FD6EDE50FE6EDD
:1002B800F850FF6EFA50985112007351D96EDA6AED
:1002C800DECF77F0DDCF78F077C0D9FF78C0DAFFDE
:1002D80098C0DFFF7351D96EDA6ADE2A000EDD227C
:1002E800E0EF0AF0926B936B966B976B07D0000167
:1002F800968702D000019685744B752B74C0F6FF63
:1003080075C0F7FFF86A0F0EF76403D00800F550C0
:1003180005D0F6CFE9FFF7CFEAFFEF502D0AE7E067
:100328001D0AE8E0000196B7969574C0F6FF75C0FF
:10033800F7FFF86A0F0EF76403D00800F55005D0F0
:10034800F6CFE9FFF7CFEAFFEF50D2EC48F044E3ED
:100358000001926B936B92C007F093C008F00A6A91
:100368000A0E096E30EC48F007C092F008C093F00E
:10037800D00E0001776F786974C0F6FF75C0F7FF7B
:10038800F86A0F0EF76403D00800F55005D0F6CFD1
:10039800E9FFF7CFEAFFEF500001796F7A6B7751E9
:1003A800792778517A23795192277A519323744B7C
:1003B800752B74C0F6FF75C0F7FFF86A0F0EF76467
:1003C80003D00800F55005D0F6CFE9FFF7CFEAFFD4
:1003D800EF50D2EC48F0BFE274C0F6FF75C0F7FFEB
:1003E800F86A0F0EF76403D00800F55005D0F6CF71
:1003F800E9FFF7CFEAFFEF502E0A4AE10001978D97
:10040800744B752B946B956B2ED094C007F095C0E8
:1004180008F00A6A0A0E096E30EC48F007C094F03A
:1004280008C095F0D00E0001776F786974C0F6FFA8
:1004380075C0F7FFF86A0F0EF76403D00800F5508F
:1004480005D0F6CFE9FFF7CFEAFFEF500001796F4B
:100458007A6B7751792778517A23795194277A5191
:100468009523744B752B74C0F6FF75C0F7FFF86AB7
:100478000F0EF76403D00800F55005D0F6CFE9FF5A
:10048800F7CFEAFFEF50D2EC48F001E22ED1BDD70A
:100498000001946B956B978928D1978556D1968FD3
:1004A80054D17651D96EDA6A020EDF26DF5CD96E36
:1004B800DA6ADECF80F0DECF81F08051811104E16D
:1004C8005D0E806FFC0E816F826B836B03D0000121
:1004D800824B832B82518025776F83518121786FDE
:1004E80077C0F6FF78C0F7FFF86A0F0EF76403D0FD
:1004F8000800F55005D0F6CFE9FFF7CFEAFFEF5037
:100508000009E5E10001945195110DE08251945DD7
:100518009551800A776F8351800A775904E294C015
:1005280082F095C083F09251825D9351835905E220
:100538008251925F8351935B02D0926B936B96B713
:1005480088D02CD07351D96EDA6A020ED926DE50C3
:10055800DE1011E07351D96EDA6A020ED92601D87D
:100568001DD00500FA6EDE50FD6EDE50FE6EF850AE
:10057800FF6EFA50200C7351D96EDA6ADECF77F02D
:10058800DDCF78F077C0D9FF78C0DAFF200EDF6EB4
:100598007351D96EDA6ADE2A000EDD220001920755
:1005A800D8A093079229CEE1932953E0CBD7735172
:1005B800D96EDA6A020ED926DE50DE1025E07351B4
:1005C800D96EDA6A020ED92601D81AD00500FA6E59
:1005D800DE50FD6EDE50FE6EF850FF6EFA5080C0A1
:1005E800F6FF81C0F7FFF86A0F0EF76403D0080022
:1005F800F55005D0F6CFE9FFF7CFEAFFEF5012002C
:100608000001804B812B25D080C0F6FF81C0F7FF09
:10061800F86A7351D96EDA6ADECF77F0DDCF78F0F9
:1006280077C0D9FF78C0DAFF0F0EF76403D008004F
:10063800F55005D0F6CFE9FFF7CFEAFFEF50DF6EB0
:100648000001804B812B7351D96EDA6ADE2A000EC5
:10065800DD228207D8A083078229A9E18329A7E19F
:1006680096A7E0EF0AF02CD07351D96EDA6A020E21
:10067800D926DE50DE1011E07351D96EDA6A020E07
:10068800D92601D81DD00500FA6EDE50FD6EDE5069
:10069800FE6EF850FF6EFA50200C7351D96EDA6A6C
:1006A800DECF77F0DDCF78F077C0D9FF78C0DAFFFA
:1006B800200EDF6E7351D96EDA6ADE2A000EDD2253
:1006C80000019207D8A093079229CEE1932902E16D
:1006D800E0EF0AF0C9D7980E806F816B836B010E2B
:1006E800826F10D7C00E961330D000017451776F07
:1006F8007551786F744B752B77C0F6FF78C0F7FF8C
:10070800F86A0F0EF76403D00800F55005D0F6CF4D
:10071800E9FFF7CFEAFFEF500001986F985102E127
:10072800FDEF0AF0580A01E1BAD63C0A0EE0020AC7
:1007380001E1B3D60F0A09E01A0A01E1B2D6060AA6
:10074800D1E00D0A01E1ABD6C6D7070E971502E135
:1007580063EF08F097A903D0956B060E946F765156
:10076800D96EDA6ADFCF77F0040EDF267751D96EBB
:10077800DA6ADECF8EF0DECF8FF0DECF90F0DECFFC
:1007880091F091AF15D08EC007F08FC008F090C0DF
:1007980009F091C00AF089EC48F007C08EF008C053
:1007A8008FF009C090F00AC091F0030E0001961373
:1007B800846B856B8EC007F08FC008F090C009F07D
:1007C80091C00AF00B6A0C6A0D6A0E6A8DEC44F04F
:1007D8007BE2000190359135820F846F856BFF0EA7
:1007E80085238407D8A0850784C007F085C008F052
:1007F8000A6A030E096E30EC48F007C084F008C09E
:1008080085F084C062F085C063F00001656B0A0E54
:10081800646F5FEC42F062C084F063C085F085AF1E
:1008280003D08407D8A0850784510008DAEC26F0A5
:100838006AC086F06BC087F06CC088F06DC089F024
:1008480086C00FF087C010F088C011F089C012F080
:100858008EC013F08FC014F090C015F091C016F040
:1008680063EC2AF00FC086F010C087F011C088F042
:1008780012C089F086C015F087C016F088C017F03E
:1008880089C018F0196A1A6A800E1B6E3F0E1C6E1A
:100898004EEC41F005E200018407D8A0850714D08A
:1008A80086C015F087C016F088C017F089C018F008
:1008B800196A1A6A200E1B6E410E1C6E4EEC41F02E
:1008C80003E30001844B852B000195BF05D09551AA
:1008D80020E10D0E945D1DE28EC037F08FC038F018
:1008E80090C039F091C03AF094512BEC2EF028C00A
:1008F8003BF029C03CF02AC03DF02BC03EF0B5ECDF
:100908002BF037C08EF038C08FF039C090F03AC065
:1009180091F0000185BF05D0855129E10A0E845D5B
:1009280026E28EC007F08FC008F090C009F091C091
:100938000AF00B6A0C6A0D6A0E6A8DEC44F05DE2EF
:100948008EC041F08FC042F090C043F091C044F097
:1009580068EC40F041504210431044104EE1000151
:1009680085BF4BD0855103E1020E845D46E386C006
:1009780015F087C016F088C017F089C018F05F0E10
:10098800196E700E1A6E890E1B6E400E1C6E4EECA0
:1009980041F003E20001F70E02D00001F80E8427AF
:1009A800FF0E85238451DAEC26F06AC086F06BC00E
:1009B80087F06CC088F06DC089F08EC007F08FC0DA
:1009C80008F090C009F091C00AF086C00BF087C00B
:1009D8000CF088C00DF089C00EF04BEC3EF007C05B
:1009E8008AF008C08BF009C08CF00AC08DF00001B5
:1009F8008E6B8F6B906B916B3AD08EC041F08FC02D
:100A080042F090C043F091C044F068EC40F041C01F
:100A18008AF042C08BF043C08CF044C08DF08EC089
:100A280047F08FC048F090C049F091C04AF08AC0A2
:100A380007F08BC008F08CC009F08DC00AF0000EDA
:100A48004AEC39F007C04BF008C04CF009C04DF033
:100A58000AC04EF005EC47F047C08EF048C08FF052
:100A680049C090F04AC091F00001846B856B010E7B
:100A7800986F0A0E981917E09851040D0D0EF3247B
:100A8800F66EF20EF420F76E0900F5508A5D090043
:100A9800F5508B590900F5508C590900F5508D59BE
:100AA80002E3982BE6D798519425776F000E95218D
:100AB800786F84517727855178237751925F7851E1
:100AC800935B9451951103E09207D8A0930796C0C1
:100AD80077F0030E771703E09207D8A0930796A53F
:100AE8006BD096C077F0030E77175DE07351D96E1F
:100AF800DA6A020ED926DE50DE1011E07351D96E83
:100B0800DA6A020ED92601D84ED00500FA6EDE50F8
:100B1800FD6EDE50FE6EF850FF6EFA502D0C7351CC
:100B2800D96EDA6ADECF77F0DDCF78F077C0D9FFFB
:100B380078C0DAFF2D0EDF6E7351D96EDA6ADE2ABD
:100B4800000EDD2230D07351D96EDA6A020ED92632
:100B5800DE50DE1011E07351D96EDA6A020ED92622
:100B680001D81DD00500FA6EDE50FD6EDE50FE6E17
:100B7800F850FF6EFA50300C7351D96EDA6ADECF36
:100B880077F0DDCF78F077C0D9FF78C0DAFF300E84
:100B9800DF6E7351D96EDA6ADE2A000EDD2200019B
:100BA8009207D8A09307000193BFD7D09351CBE108
:100BB800920501E2D2D0C7D796B737D030D073515B
:100BC800D96EDA6A020ED926DE50DE1011E07351B2
:100BD800D96EDA6A020ED92601D81DD00500FA6E40
:100BE800DE50FD6EDE50FE6EF850FF6EFA50200C9F
:100BF8007351D96EDA6ADECF77F0DDCF78F077C03F
:100C0800D9FF78C0DAFF200EDF6E7351D96EDA6A29
:100C1800DE2A000EDD2200019207D8A0930793BFB9
:100C280004D09351CCE19205CAE296C077F0030E46
:100C3800771701E192D07351D96EDA6A020ED9267C
:100C4800DE50DE1011E07351D96EDA6A020ED92631
:100C580001D883D00500FA6EDE50FD6EDE50FE6EC0
:100C6800F850FF6EFA502D0C7351D96EDA6ADECF48
:100C780077F0DDCF78F077C0D9FF78C0DAFF2D0E96
:100C880065D08AC007F08BC008F08CC009F08DC011
:100C98000AF09851040D0D0EF324F66EF20EF420AE
:100CA800F76E0900F5CF0BF00900F5CF0CF009003D
:100CB800F5CF0DF00A00F5CF0EF0D8EC42F007C0E2
:100CC80086F008C087F009C088F00AC089F086C09D
:100CD80014F087C015F088C016F089C017F00A0E06
:100CE800186E196A1A6A1B6ABFEC44F014C086F0C1
:100CF80015C087F016C088F017C089F07351D96EF7
:100D0800DA6A020ED926DE50DE1013E07351D96E6E
:100D1800DA6A020ED92601D820D00500FA6EDE5014
:100D2800FD6EDE50FE6EF850FF6EFA508651300FA1
:100D380012007351D96EDA6ADECF77F0DDCF78F022
:100D480077C0D9FF78C0DAFF8651300FDF6E735154
:100D5800D96EDA6ADE2A000EDD220001980798298A
:100D680031E08FD77351D96EDA6A020ED926DE5078
:100D7800DE1011E07351D96EDA6A020ED92601D855
:100D88001DD00500FA6EDE50FD6EDE50FE6EF85086
:100D9800FF6EFA50300C7351D96EDA6ADECF77F0F5
:100DA800DDCF78F077C0D9FF78C0DAFF300EDF6E7C
:100DB8007351D96EDA6ADE2A000EDD22000184073B
:100DC800D8A0850785BF04D08551CCE18405CAE247
:100DD80095BF08D0955103E1090E945D03E3080E11
:100DE800986F02D094C098F09851945F000E955B6C
:100DF80098512CE07351D96EDA6A020ED926DE506A
:100E0800DE1011E07351D96EDA6A020ED92601D8C4
:100E18001DD00500FA6EDE50FD6EDE50FE6EF850F5
:100E2800FF6EFA502E0C7351D96EDA6ADECF77F066
:100E3800DDCF78F077C0D9FF78C0DAFF2E0EDF6EED
:100E48007351D96EDA6ADE2A000EDD22000198514C
:100E5800DAEC26F06AC07BF06BC07CF06CC07DF0E9
:100E68006DC07EF08EC013F08FC014F090C015F0E6
:100E780091C016F07BC00FF07CC010F07DC011F05F
:100E88007EC012F063EC2AF00FC041F010C042F0AF
:100E980011C043F012C044F068EC40F041C08AF041
:100EA80042C08BF043C08CF044C08DF093D08AC010
:100EB80007F08BC008F08CC009F08DC00AF098517B
:100EC800040D0D0EF324F66EF20EF420F76E0900F1
:100ED800F5CF0BF00900F5CF0CF00900F5CF0DF0B8
:100EE8000A00F5CF0EF0D8EC42F007C086F008C033
:100EF80087F009C088F00AC089F086C014F087C05E
:100F080015F088C016F089C017F00A0E186E196A15
:100F18001A6A1B6ABFEC44F014C086F015C087F04B
:100F280016C088F017C089F07351D96EDA6A020EBC
:100F3800D926DE50DE1013E07351D96EDA6A020E3C
:100F4800D92601D820D00500FA6EDE50FD6EDE509D
:100F5800FE6EF850FF6EFA508651300F1200735132
:100F6800D96EDA6ADECF77F0DDCF78F077C0D9FFB7
:100F780078C0DAFF8651300FDF6E7351D96EDA6AA6
:100F8800DE2A000EDD228AC014F08BC015F08CC05A
:100F980016F08DC017F000019851040D0D0EF324C2
:100FA800F66EF20EF420F76E0900F5CF18F009007E
:100FB800F5CF19F00900F5CF1AF00A00F5CF1BF0AC
:100FC800BFEC44F014C08AF015C08BF016C08CF04A
:100FD80017C08DF000019807982931E068D7735140
:100FE800D96EDA6A020ED926DE50DE1011E073518E
:100FF800D96EDA6A020ED92601D81DD00500FA6E1C
:10100800DE50FD6EDE50FE6EF850FF6EFA50300C6A
:101018007351D96EDA6ADECF77F0DDCF78F077C01A
:10102800D9FF78C0DAFF300EDF6E7351D96EDA6AF5
:10103800DE2A000EDD2200019407D8A095079451FE
:101048009511CDE196B793BFB7D2935103E19205BD
:1010580001E2B2D27351D96EDA6A020ED926DE5095
:10106800DE1011E07351D96EDA6A020ED92601D862
:101078001DD00500FA6EDE50FD6EDE50FE6EF85093
:10108800FF6EFA50200C7351D96EDA6ADECF77F012
:10109800DDCF78F077C0D9FF78C0DAFF200EDF6E99
:1010A8007351D96EDA6ADE2A000EDD22000192073A
:1010B800D8A093079251931101E17ED2CBD796C065
:1010C80077F0C00E77171EE17651D96EDA6ADF50D5
:1010D800DF2ADF2AD96EDA6ADECF8AF0DDCF8BF01D
:1010E800000E8BBFFF0E8C6F8D6F8DAF1DD0030E62
:1010F80096138D1F8C1F8B1F8A6D000E8B238C23DC
:101108008D2312D07651D96EDA6ADF50DF2ADF2AB2
:10111800D96EDA6ADECF77F0DDCF78F077C08AF063
:1011280078C08BF08C6B8D6B9451951140E18A518E
:101138008B118C118D113BE1944B952B38D0010EFE
:10114800986F0A0E98193AE09851040D0D0EF32481
:10115800F66EF20EF420F76E0900F5508A5D09006C
:10116800F5508B590900F5508C590900F5508D59E7
:1011780025E3982BE6D7010E986F080E98191EE004
:101188009851040D860EF324F66EE70EF420F76EE0
:101198000900F5508A5D0900F5508B590900F55092
:1011A8008C590900F5508D5909E3982BE6D79651CB
:1011B800C00BC5E0800ADFE0400AC1E09851776FB4
:1011C800786B9451775D7851800A796F9551800AD0
:1011D800795903E294C098F00FD09851776F786BE3
:1011E8007751945D9551800A796F7851800A7959C1
:1011F80003E298C094F0956B9251931108E096C061
:1012080077F0030E771703E09207D8A0930797ADFE
:1012180010D09251945D9551800A776F9351800A4E
:10122800775905E29451925F9551935B02D0926B86
:10123800936B9851776F786B9251775D7851800AEC
:10124800796F9351800A795905E29851925F000E9F
:10125800935B02D0926B936B96A567D096C077F09C
:10126800030E77172CE07351D96EDA6A020ED9266D
:10127800DE50DE1011E07351D96EDA6A020ED926FB
:1012880001D81DD00500FA6EDE50FD6EDE50FE6EF0
:10129800F850FF6EFA502D0C7351D96EDA6ADECF12
:1012A80077F0DDCF78F077C0D9FF78C0DAFF2D0E60
:1012B800DF6E7351D96EDA6ADE2A000EDD22000174
:1012C8009251931101E136D17351D96EDA6A020E47
:1012D800D926DE50DE1011E07351D96EDA6A020E9B
:1012E800D92601D81DD00500FA6EDE50FD6EDE50FD
:1012F800FE6EF850FF6EFA50300C7351D96EDA6AF0
:10130800DECF77F0DDCF78F077C0D9FF78C0DAFF8D
:10131800300EDF6E7351D96EDA6ADE2A000EDD22D6
:1013280000019207D8A09307CBD79251931135E0CB
:1013380096B733D07351D96EDA6A020ED926DE50C9
:10134800DE1011E07351D96EDA6A020ED92601D87F
:101358001DD00500FA6EDE50FD6EDE50FE6EF850B0
:10136800FF6EFA50200C7351D96EDA6ADECF77F02F
:10137800DDCF78F077C0D9FF78C0DAFF200EDF6EB6
:101388007351D96EDA6ADE2A000EDD220001920757
:10139800D8A0930792519311CDE196C077F0030E30
:1013A800771701E1C7D07351D96EDA6A020ED926D0
:1013B800DE50DE1011E07351D96EDA6A020ED926BA
:1013C80001D8B8D00500FA6EDE50FD6EDE50FE6E14
:1013D800F850FF6EFA502D0C7351D96EDA6ADECFD1
:1013E80077F0DDCF78F077C0D9FF78C0DAFF2D0E1F
:1013F800DF6E9AD094C077F095C078F0D8907737A0
:101408007837D890773778370D0E7725F66EF20E45
:101418007821F76E0900F5CF0BF00900F5CF0CF035
:101428000900F5CF0DF00A00F5CF0EF08AC007F0DD
:101438008BC008F08CC009F08DC00AF0D8EC42F0DF
:1014480007C014F008C015F009C016F00AC017F05C
:101458000A0E186E196A1A6A1B6ABFEC44F0145017
:10146800300F986F3AD08AC007F08BC008F08CC054
:1014780009F08DC00AF094C077F095C078F0D89044
:1014880077377837D89077377837860E7725F66E9E
:10149800E70E7821F76E0900F5CF0BF00900F5CFBC
:1014A8000CF00900F5CF0DF00A00F5CF0EF0D8ECDE
:1014B80042F007500F0B7F6FD20E7F25F66EF76A4A
:1014C800FA0EF7220800F5CF98F007D09651C00B16
:1014D80091E0800AC8E0400A8DE07351D96EDA6A5B
:1014E800020ED926DE50DE1012E07351D96EDA6A88
:1014F800020ED92601D81ED00500FA6EDE50FD6E08
:10150800DE50FE6EF850FF6EFA509851120073517B
:10151800D96EDA6ADECF77F0DDCF78F077C0D9FF01
:1015280078C0DAFF98C0DFFF7351D96EDA6ADE2A15
:10153800000EDD2200019407D8A095079429C6E182
:101548009529C4E196B793BF37D0935102E192052C
:1015580033E37351D96EDA6A020ED926DE50DE10F3
:1015680011E07351D96EDA6A020ED92601D81DD05E
:101578000500FA6EDE50FD6EDE50FE6EF850FF6E0E
:10158800FA50200C7351D96EDA6ADECF77F0DDCFCE
:1015980078F077C0D9FF78C0DAFF200EDF6E73517C
:1015A800D96EDA6ADE2A000EDD2200019207D8A081
:1015B800930792519311CDE100017451776F7551E2
:1015C800786F744B752B77C0F6FF78C0F7FFF86A11
:1015D8000F0EF76403D00800F55005D0F6CFE9FFE9
:1015E800F7CFEAFFEF500001986F985102E043EF00
:1015F80001F0736B746B12000101E06B050EDB6F79
:10160800D86BC86BDA6BD96BC96B010ED76FC76F14
:1016180021EECAF00B0EDE6AE806FDE2BBEC3FF0F5
:101628008DEC36F00A0EFC03F3CFBBF1F4CFBCF11E
:10163800FD03F3500101BC27BBC1E4F0BCC1E5F0D8
:1016480089869CEC42F058EC47F0D08249EC37F0A0
:101658000101E46F020EE41902E1800E546E0001EC
:10166800EA5102E0D4EC39F00101575102E080EC74
:1016780018F0565102E1ACB28A9A1EEC42F0A30E61
:10168800946E00F000F08250210B0101E46FE43900
:10169800E8461F0BE86FE451E425020BE81381507C
:1016A800010BE813820E946E070EE81903E1E75167
:1016B800E81903E0E85171EC1DF0010E01015265D3
:1016C8001CD0170E526119D0880E2125BB6F130E3E
:1016D8002221BC6F000E2321BD6F000E2421BE6F96
:1016E8002951BB5D2A51BC592B51BD592C51BE59AA
:1016F80004E2515102E139EC3CF0525126E1060E68
:10170800E81923E1565021E0D6511FE1020E0001ED
:10171800F1611BD0030E551818E1561C030B566EC9
:10172800D60E5416536A0101466B0001F10509E112
:10173800356AA80E346E56C036F0376A000ECDEC06
:1017480047F0050E0101D66F07D00101D65104E01C
:10175800070EE81901E1D607010E81A4000ED7197A
:1017680001E189D0C92BC905BB6F050EBB6585D0C2
:10177800000E81B4010ED76FD7514FE077D0475193
:1017880004E0476B010E576E02D0010E476F460EFC
:101798000001B66FFB0EB76F47C1B8F0B96B0AEC22
:1017A80048F045D0010E476F42D0560402E1020EC0
:1017B80004D0020E561802E1010E566ED60E5416CB
:1017C800536A466B0001F10532E1565030E0356A44
:1017D800A80E346E56C036F0376A000ECDEC47F0CE
:1017E80026D0010E566E0001F10521E156501FE08A
:1017F800356AA80E346E56C036F0376A000ECDEC46
:1018080047F015D0030E571812E1010E576E00016C
:10181800EA510DE10F0E536E0AD05550010AAFE0A0
:10182800030AC0E0010AC1E0070ADBE0EBD70001C8
:10183800F00504E154B881B201D054983C0E01017E
:10184800546F898618D0476B010E576E14D0020E5C
:10185800566E0001F1050FE1356AA80E346E56C0C8
:1018680036F0376A000ECDEC47F005D05550020A25
:10187800EAE0060AECE00101C96B0001F00508E1A5
:1018880081B281A205D0010E576E100E546EEB6B1B
:10189800050E57181EE101012C512B1105E1E90E27
:1018A800295D030E2A5915E3356A010E346E376A2D
:1018B800366A0001F151CDEC47F06F0E0001B66FAA
:1018C800F80EB76F0AEC48F00101296B2A6B2B6BF5
:1018D8002C6B570401E0BAD0BD6A82848A98010152
:1018E8002D6B79EC45F00101E26FE20503E1549AB2
:1018F8005490536A020EE21904E0020EE21901E064
:10190800A5D0020E5B1901E09ED0475101E19BD0A2
:10191800E02BE005BB6F190EBB6598D0545001E071
:1019280095D0535001E092D0DA6B96EC41F09A0EC4
:10193800B66FF90EB76FE8C0B8F0E9C0B9F0FAC0F1
:10194800BAF0FBC0BBF00AEC48F0FA51E85DFB5175
:10195800E95908E20A0EE803F3CFBBF1F4CFBCF172
:10196800E90307D00A0EFA03F3CFBBF1F4CFBCF1B9
:10197800FB03F3500101BC27BBC143F1BCC144F1D7
:10198800010E0001F16542D0356A020E346E43C182
:1019980036F044C137F0F151CDEC47F043C107F0C0
:1019A80044C108F0096A0A6A000E4AEC39F007C017
:1019B80028F008C029F009C02AF00AC02BF02C6AC8
:1019C8002D6A200E2E6E410E2F6E6AEC30F028C064
:1019D800DCF129C0DDF12AC0DEF12BC0DFF1230ED6
:1019E8000001B66FF80EB76FDCC1B8F0DDC1B9F011
:1019F800DEC1BAF0DFC1BBF00AEC48F0060E576E44
:101A08000101296B2A6B2B6B2C6B20D00A0EE80383
:101A1800F3CFBBF1F4CFBCF1E903F3500101BC27CC
:101A2800BBC111F1BCC112F1010E2D6F020E576E30
:101A38003C0E546F89862C0E0001B66FFB0EB76FF3
:101A48000AEC48F003D0020E5B6FE06B060E5718E5
:101A58000BE101012C512B1105E1E90E295D030E63
:101A68002A5902E3010E576E020E571801E0CBD037
:101A7800070EBC64B4D0180EBC60B1D079EC45F048
:101A88000101E26FE20522E15B051CE1E02BE005C4
:101A9800BB6F190EBB65A3D0010E576E120E000165
:101AA800B66FFB0EB76F0AEC48F0010EF16597D0E0
:101AB800050E576EE90E0101296F030E2A6F2B6B75
:101AC8002C6B8DD0010E5B6FE06B89D0030EE21991
:101AD80001E081D0030E5B197CE1DA057AE1E02BA5
:101AE800E005BB6F190EBB657AD0545078E15350AE
:101AF80076E1010E0001F16542D0356A030E346EBD
:101B080043C136F044C137F0F151CDEC47F043C141
:101B180007F044C108F0096A0A6A000E4AEC39F075
:101B280007C028F008C029F009C02AF00AC02BF025
:101B38002C6A2D6A200E2E6E410E2F6E6AEC30F044
:101B480028C0DCF129C0DDF12AC0DEF12BC0DFF1AD
:101B5800490E0001B66FF80EB76FDCC1B8F0DDC1F1
:101B6800B9F0DEC1BAF0DFC1BBF00AEC48F0070EED
:101B7800576E0101296B2A6B2B6B2C6B30D043C13C
:101B880011F144C112F117EC34F0000920E1020E02
:101B980001012D6FAF6BB06B010E5BEC20F08A88F2
:101BA8000101DA6B030E576E0001EB6B0101296B23
:101BB8002A6B2B6B2C6B525102E149EC13F0390E56
:101BC8000001B66FFB0EB76F0AEC48F008D05486D8
:101BD80006D0030E78D7020E5B1901E05B6BE60EA8
:101BE800BC6411D0F10EBC64FDD7BC6401D0BC50FC
:101BF80079EC45F00101E26F040EE21903E1010EF0
:101C0800DA6F01D0DA6B070E571813E101012C5176
:101C18002B1105E1E90E295D030E2A590AE3DA6B57
:101C2800020E576E850E0001B66FFA0EB76F0AECFA
:101C380048F0030E57185EE1070EBC645BD0180E1F
:101C4800BC6058D079EC45F00101E26FE20502E092
:101C5800E25121E15B051BE1E02BE005BB6F190EAA
:101C6800BB6548D08A98010E576E1F0E0001B66FEB
:101C7800FB0EB76F0AEC48F09CEC42F0010E000135
:101C8800F16502D0050E26D001012D6B33D0010E6F
:101C98005B6FE06B2FD0020EE2192BE1020E5B198D
:101CA80026E1E02BE005BB6F190EBB6523D08A98AF
:101CB800020E576E8D0E0001B66FFA0EB76F0AEC62
:101CC80048F09CEC42F00101DA6B010E0001F1656D
:101CD8000AD0080E576EE90E0101296F030E2A6F0C
:101CE8002B6B2C6B07D0010E01012D6F03D0020E58
:101CF800CFD75B6B080E57181EE101012C512B1131
:101D080005E1E90E295D030E2A5915E3356A040E2B
:101D1800346E376A366A0001F151CDEC47F0950E02
:101D28000001B66FF80EB76F0AEC48F00101296B95
:101D38002A6B2B6B2C6BABA202D0AB98AB8871A231
:101D480002D071987188D6CFE4F13C0ED764F0D0F8
:101D5800D76AD66ACFEC45F0465133E03C0E000115
:101D6800F403F3CFBBF1F4CFBCF1F503F350010159
:101D7800BC273751BD6F3851BE6F374B382BBB511D
:101D8800BD5DBC51BE591FE3010E576E466B376BE4
:101D9800386BE46B030EE46501D009D02D0EE42501
:101DA800D96EDA6A010EDA22DF6AE42BF3D7356AD4
:101DB800020E346E376A200E366E000ECDEC47F0F8
:101DC80002D0376B386B535001E05306370E53611E
:101DD80002D054B4549454C0BBF1210EBB171AE07E
:101DE800020E0001F16116D017EC34F0000912E17F
:101DF8005490549ADD0E0001B66FF80EB76F0AECD6
:101E080048F0356A020E346E54C036F0376A000E58
:101E1800CDEC47F00101DB511BE154B219D05482DB
:101E2800010E576EB80E0001B66FF90EB76F0AECC7
:101E380048F00101E46B030EE46501D00CD02D0ECF
:101E4800E425D96EDA6A010EDA22DF6AE42BF3D7C9
:101E5800DB5101E0DB07400E536519D05484010EB5
:101E6800576E280E0001B66FFA0EB76F0AEC48F0ED
:101E78000101E46B030EE46501D009D02D0EE425C1
:101E8800D96EDA6A010EDA22DF6AE42BF3D754A698
:101E98001DD05496020E56180BE1535007E1D60E8A
:101EA8000001B66FF90EB76F0AEC48F0548A0AD0F1
:101EB800535007E1FE0E0001B66FF80EB76F0AEC3B
:101EC80048F05480010E576E3C0E536E49EC13F0E7
:101ED800565007E00101C707C72903E1010E4A6F01
:101EE800C76F565025E10101416B426BD95101E0A2
:101EF800D907020E0001F1611BD00101D95118E187
:101F0800000E5BEC20F0F10502E1EEEC48F0020E69
:101F1800571803E0030E571806E1AFC14BF0B0C1E4
:101F28004CF05DEC3AF0020E0101D96F0A0EDB6F3E
:101F380001014A5119E0020E0001F16115D00DD0DE
:101F4800FFC039F058501DEC46F00DD0FEC039F0F6
:101F58000001EE511DEC46F006D001014A51010A7C
:101F6800EFE0030AF3E04A6B01015A5101E16CD337
:101F7800030E2525BB6F000E2621BC6F000E2721FE
:101F8800BD6F000E2821BE6F2951BB5D2A51BC5977
:101F98002B51BD592C51BE5901E356D3320E076E51
:101FA800030E086E9E0E096E020E0A6E5AC10BF0E1
:101FB8000C6A4DEC45F05AC158F101015A6B320ECA
:101FC8000001C96F030ECA6F58C1CBF0B1EC28F0FD
:101FD800030E01010B1901E09AD00A0EDB6F92D0B3
:101FE80058502AE00001FF510101001925E158501D
:101FF800120D0B0EF324D96E020EF420DA6EDE50A9
:1020080002191AE1DE50031917E108C14CF009C1A1
:102018004DF058C04EF0A30E4F6E010E506EEBEC13
:1020280022F0EE5106E0020E01014A6F010EC86F60
:102038000BD34BEC32F008D3C85101E105D30001B2
:10204800EE5101E101D3FE510101001901E0FCD27A
:102058000001EE51120D0B0EF324D96E020EF4207E
:10206800DA6EDE500101021951E1DE50031901E078
:10207800EBD208C14CF009C14DF0EEC04EF0CA0ECB
:102088004F6E010E506EEBEC22F00101E46B020E74
:10209800E46501D035D0E451040DA30EF324D96EC4
:1020A800010EF420DA6EDECF47F0DECF48F0DECF47
:1020B80049F0DECF4AF0E451040DCA0EF324D96E7C
:1020C800010EF420DA6EDECF4BF0DECF4CF0DECF1F
:1020D8004DF0DECF4EF005EC47F00101E451040D60
:1020E800A30EF324D96E010EF420DA6E47C0DEFF8A
:1020F80048C0DEFF49C0DEFF4AC0DEFFE42BC7D779
:10210800C86B97D70151040A01E16AD79DD2020E24
:102118000B1901E1AAD0B3D00001F1510101001956
:1021280001E092D2CAEC3BF00101E16FE12901E143
:102138008BD2E151F0EC44F087D2010E006519D042
:10214800050E006116D00251031107E0035105E1A5
:10215800050E025D02E2030E0BD0035103E1810E6E
:10216800025D07E3035105E1850E025D02E2020EFE
:10217800D86F0A0E001910E1A80E021903110CE11C
:102188004F0E061909E1490E071906E10001EA5147
:1021980003E1010EEA6F58D20101005106E0000187
:1021A800F1510101001901E04FD2CAEC3BF00101E5
:1021B800E16FE12903E0E15113EC43F0020E010164
:1021C800D86F42D2005106E00001F1510101001917
:1021D80001E03AD2020503113DE1010E0001F1656B
:1021E80039D0F1510101BB6FBC6BD890BB37BC37FC
:1021F80021EE08F0DECFBDF1DDCFBEF1BB51BD272A
:10220800BC51BE23FE0EBD25D96EFF0EBE21DA6E6F
:10221800DF50C06FBF6B0001F1510101C16FC26B8C
:10222800D890C137C23721EE08F0DECFC3F1DDCF39
:10223800C4F1C151C327C251C423FF0EC325D96EAF
:10224800FF0EC421DA6EDF50BF11C56FC051C66FD3
:10225800020ED86FCAEC3BF00101E16FE12901E100
:10226800F3D1E15154EC3BF0EFD10151040A01E103
:1022780053D7020A01E161D7160AA4E0E5D1030E9B
:102288000001B66FFB0EB76F0AEC48F0DDD10051C4
:1022980030E1010E0001F1652CD01DD0C5C1AFF1B0
:1022A800C6C1B0F1020E571803E0030E571806E135
:1022B800AFC14BF0B0C14CF05DEC3AF00A0E010131
:1022C800DB6F17D006C154F0545013E0010E576E5F
:1022D8003C0E536E0ED021EE02F0DECFBBF1DDCF07
:1022E800BCF10101BC5105E1BB51010AD7E0030A69
:1022F800E9E00001F1510101001932E0ADD1010E10
:102308000CD00651071102E15486A6D106C14BF044
:1023180007C14CF05DEC3AF0020E576E9DD10651A4
:102328000711F2E006C14BF007C14CF05DEC3AF042
:102338008A880101DA6B030E576E0001EB6B01010D
:10234800296B2A6B2B6B2C6B525102E149EC13F071
:10235800390E0001B66FFB0EB76F0AEC48F07CD15E
:1023680021EE02F0DECFBBF1DDCFBCF1BC5101E0C4
:1023780073D1BB51810AC3E0030AC3E0010ACFE06D
:10238800070ACAE069D10001F10501E065D1010140
:102398000005E36F44D12D0EE325D96EDA6A010EEC
:1023A800DA22DF6A000E5BEC20F06F0EB66FFA0ED1
:1023B800B76FE3C1B8F0B96B0AEC48F0356A810E23
:1023C800346E376A366A01010051CDEC47F044D1CA
:1023D80017EC34F000092DE12D0E0101E325D96E2B
:1023E800DA6A010EDA22010EDF6EE351020D110ED8
:1023F800F324D96E010EF420DA6E06C1DEFF07C1A0
:10240800DDFF0A0E0001F803F3CFBBF1F4CFBCF1F6
:10241800F903F3500101BC27E351020DAF0EF32479
:10242800D96E010EF420DA6EBBC1DEFFBCC1DDFF40
:102438000BD00101E351020DAF0EF324D96E010E4A
:10244800F420DA6EDE6ADD6A06C107F007C108F01B
:10245800096A0A6A000E4AEC39F007C028F008C079
:1024680029F009C02AF00AC02BF02C6A2D6A200E28
:102478002E6E410E2F6E6AEC30F028C0DCF129C0B8
:10248800DDF12AC0DEF12BC0DFF13D0E0001B66F91
:10249800F90EB76FE3C1B8F0B96BDCC1BAF0DDC1B2
:1024A800BBF0DEC1BCF0DFC1BDF00AEC48F0356A14
:1024B800820E346E0101E351020DAF0EF324D96E82
:1024C800010EF420DA6EDECF36F0DDCF37F00051A2
:1024D800CDEC47F0C1D017EC34F0000923E12D0E04
:1024E8000101E325D96EDA6A010EDA22020EDF6EE7
:1024F800E351020D110EF324D96E010EF420DA6EA9
:1025080006C1DEFF07C1DDFFE351020DAF0EF32464
:10251800D96E010EF420DA6EDE6ADD6A010E5BEC1C
:1025280020F00BD00101E351020DAF0EF324D96E58
:10253800010EF420DA6EDE6ADD6A0101E351020D54
:10254800AF0EF324D96E010EF420DA6EDECFBBF1A4
:10255800DDCFBCF1BBC107F0BCC108F0096A0A6A4B
:10256800000E4AEC39F007C028F008C029F009C06D
:102578002AF00AC02BF02C6A2D6A200E2E6E410E0E
:102588002F6E6AEC30F028C0DCF129C0DDF12AC0DA
:10259800DEF12BC0DFF11E0E0001B66FF90EB76F2A
:1025A800E3C1B8F0B96BDCC1BAF0DDC1BBF0DEC184
:1025B800BCF0DFC1BDF00AEC48F0356A830E346E1A
:1025C8000101E351020DAF0EF324D96E010EF42080
:1025D800DA6EDECF36F0DDCF37F00051CDEC47F0C4
:1025E8003BD02D0EE325D96EDA6A010EDA22010EF0
:1025F800DF6E000E5BEC20F0F20EB66FF90EB76FCF
:10260800E3C1B8F0B96B0AEC48F0356A840E346E51
:10261800376A366A01010051CDEC47F01DD021EE32
:1026280002F0DECFBBF1DDCFBCF1BC5115E1BB51EF
:10263800010A01E1B0D6030A01E1CAD6010A01E1A3
:102648004AD7070ACEE008D00101D851020A01E1B1
:102658001ED6010A01E197D654A205D00A0E01013F
:10266800DB1901E1549254C0BBF1210E0101BB17E3
:1026780008E0535006E1010E0001F16502D05490C4
:10268800549A0101D86B33EF0BF0010152510AE063
:102698000001EB2B790EEB19D8A412000101526B43
:1026A8008DEC36F00A0E0001EB1901E1EB6B54508A
:1026B80001E1C2D089863C0E0101546F54A21DD09D
:1026C800110E0001756FFC0E766F000E4CEC43F096
:1026D800680E0001756FFB0E766F020E4CEC43F02E
:1026E800B00E0001756FFC0E766F040E4CEC43F0D3
:1026F8006B0E0001756FFC0E53D054A411D0B60EAA
:102708000001756FFC0E766F020E4CEC43F0940ED0
:102718000001756FFB0E766F040E4CEC43F08CD005
:1027280054A842D00001EB2BEB05CA6F050ECA6115
:102738001CD0080E756FFC0E766F000E4CEC43F043
:10274800C80E0001756FFC0E766F020E4CEC43F05C
:102758003D0E0001756FFC0E766F040E4CEC43F0D5
:10276800F60E0001756FFB0E1BD0BC0E756FFC0ECC
:10277800766F000E4CEC43F0720E0001756FFC0E84
:10278800766F020E4CEC43F0200E0001756FFC0EC4
:10279800766F040E4CEC43F0C20E0001756FFC0E10
:1027A800766F060E4CEF43F054AC37D0450E00015F
:1027B800756FFC0E766F020E4CEC43F0520E000162
:1027C800756FFB0E766F040E4CEC43F00101366B0F
:1027D800640E356F0A0E0B6E0001EA513EEC47F0AD
:1027E8000001CA6F300ECA256A6F6B6B000E6B232F
:1027F800B2EC38F00A0E076E0001EA511DEC48F001
:102808000001CA6F300ECA256A6F6B6B000E6B230E
:10281800B2EC38F0040EA4EF45F054AE0DD0730EB0
:102828000001756FFB0E766F020E4CEC43F07E0EC6
:102838000001756FFB0E0FD0500E0001EA190FE171
:10284800450E756FFC0E766F020E4CEC43F0800E51
:102858000001756FFC0E766F040E4CEF43F0EB2B06
:10286800565004E00101475101E0D6D054A012D0DF
:10287800350E0001756FFC0E766F020E4CEC43F0BE
:10288800A80E0001756FFB0E766F040E4CEC43F03A
:1028980079EF18F0030E571861E189863C0E0101A3
:1028A800546FFF0E0001756FFB0E766F020E4CEC35
:1028B80043F00101366B220E356FFAEC48F0AFC1D8
:1028C8000CF0B0C10DF00F6A640E0E6E42EC46F0CB
:1028D800300E0C2400016A6F000E0D206B6FB2ECF5
:1028E80038F00F6A0A0E0E6EAFC10CF0B0C10DF0D1
:1028F80042EC46F00CC007F00DC008F00A6A0A0E58
:10290800096EC8EC46F0300E072400016A6F000E0D
:1029180008206B6FB2EC38F000016B6B2E0E6A6FFB
:10292800B2EC38F0AFC107F0B0C108F00A6A0A0E7D
:10293800096EC8EC46F0300E072400016A6F000EDD
:1029480008206B6FB2EC38F000016B6B410E6A6FB8
:10295800B2EC38F0040EA4EC45F0C7D3000E0C6AB4
:1029680099EC48F0040E0C6E010E99EC48F0010148
:10297800475138E01A0E0001756FFC0E766F020E93
:102988004CEC43F0E40E0001756FFB0E766F040EFD
:102998004CEC43F0535036E00101366B640E356F52
:1029A8000A0E0B6E53503EEC47F00001CA6F300E12
:1029B800CA256A6F6B6B000E6B23B2EC38F00A0EF7
:1029C800076E53501DEC48F00001CA6F300ECA253F
:1029D8006A6F6B6B000E6B23B2EC38F0040EA4EC3C
:1029E80045F010D0790E0001756FFC0E766F020E5F
:1029F8004CEC43F0640E0001756FFC0E766F040E0C
:102A08004CEC43F0100E0C6E060E99EC48F00C6A74
:102A1800070E99EC48F069D3560404E0020E5618E4
:102A280001E063D3A0EC47F0560416E10001D26B35
:102A38000C0ED26501D010D0AE0ED225D96EDA6A4E
:102A4800030EDA22DF6A2E0ED225D96EDA6A040E58
:102A5800DA22DF6AD22BECD7010146510FE10001DF
:102A6800D26B070ED26501D092D0C00ED225D96E96
:102A7800DA6A030EDA22DF6AD22BF3D7366B650ED9
:102A8800356FB76BB86B3C0E0001F403F3CFCAF097
:102A9800F4CFCBF0F503F350CB27CAC0D0F0CBC0AE
:102AA800D1F0010137510001D05F01013851000117
:102AB800D15BD0C00CF0D1C00DF00F6A3C0E0E6E89
:102AC80042EC46F00CC0CEF00DC0CFF0D0C007F0FD
:102AD800D1C008F00A6A3C0E096EC8EC46F007C07F
:102AE800D0F008C0D1F0CEC00CF0CFC00DF00F6A06
:102AF8000A0E0E6E42EC46F0300E0C2400016A6F8E
:102B0800000E0D206B6F02EC41F0CEC007F0CFC075
:102B180008F00A6A0A0E096EC8EC46F0300E07245F
:102B280000016A6F000E08206B6F02EC41F0350758
:102B3800D8A0360700016B6B3A0E6A6F02EC41F0C1
:102B48003507D8A03607D0C00CF0D1C00DF00F6AF9
:102B58000A0E0E6E42EC46F0300E0C2400016A6F2D
:102B6800000E0D206B6F02EC41F0D0C007F0D1C011
:102B780008F00A6A0A0E096EC8EC46F0300E0724FF
:102B880000016A6F000E08206B6F02EC41F0000133
:102B9800E7AF08D0030E0101E65F140EE6610AD024
:102BA8002C0E07D0030E0101E6272C0EE66502D095
:102BB800140EE66FE6C135F1366BB86B030EB76FCE
:102BC800E6C04BF0E7C04CF0E3EC47F04CBE0BD04E
:102BD8004C5003E1040E4B5C06E300016B6BFE0EE8
:102BE8006A6F02EC41F0030E571850E189863C0EDB
:102BF8000101546F030EE527590EE56502D04A0E10
:102C0800E56FE5C135F1366BB86B030EB76F0001A0
:102C18006B6BFE0E6A6F02EC41F0B86B020EB76F79
:102C2800366B4D0E356FAFC10CF0B0C10DF00F6AA9
:102C3800640E0E6E42EC46F0300E0C2400016A6FF2
:102C4800000E0D206B6F02EC41F00F6A0A0E0E6E3B
:102C5800AFC10CF0B0C10DF042EC46F00CC007F06B
:102C68000DC008F00A6A0A0E096EC8EC46F0300E6C
:102C7800072400016A6F000E08206B6F02EC41F018
:102C880000016B6B410E6A6F02EC41F0050E00010A
:102C9800EB61A7D0020E561801E0A3D00101366BF4
:102CA8001D0E356FB86B010EB76F00016B6BE30E2D
:102CB8006A6F02EC41F0B86B020EB76FE6C04BF0DA
:102CC800E7C04CF0E3EC47F04CBE30D0E90E4B5C6B
:102CD800030E4C582BE30101366B110E356F0001C2
:102CE800E7AF05D06B6B2D0E6A6F02EC41F0010166
:102CF800366B170E356FE6C062F0E7C063F0030E5F
:102D08000001656FE80E646F5FEC42F062C04BF043
:102D180063C04CF0E3EC47F0300E4B2400016A6FBF
:102D2800000E4C206B6F02EC41F00CD00101366BA9
:102D3800170E356F0001E7AF05D06B6B2D0E6A6F6C
:102D480002EC41F00101366B1D0E356F0001656B19
:102D5800640E646FE6C062F0E7C063F05FEC42F0B7
:102D680062C04FF063C050F0526A0A0E516E26ECF2
:102D780044F04FC04BF050C04CF0E3EC47F0300E3D
:102D88004B2400016A6F000E4C206B6F02EC41F07F
:102D98000001656B0A0E646FE6C062F0E7C063F07D
:102DA8005FEC42F062C04FF063C050F0526A0A0E06
:102DB800516E26EC44F04FC04BF050C04CF0E3ECA1
:102DC80047F0300E4B2400016A6F000E4C206B6FE9
:102DD80002EC41F000016B6B410E6A6F02EC41F0AE
:102DE80098D0D26B020ED26501D093D0D2C0B7F181
:102DF8000101B86B366B170E356F0001D251040D07
:102E0800A30EF324D96E010EF420DA6E030EDBAEA6
:102E180006D06B6B2D0E6A6F02EC41F004D00101F5
:102E2800366B1D0E356F2C6A2D6AC80E2E6E420E3B
:102E38002F6E0001D251040DA30EF324D96E010E9A
:102E4800F420DA6EDECF28F0DECF29F0DECF2AF0CC
:102E5800DECF2BF06AEC30F028C041F029C042F0F8
:102E68002AC043F02BC044F068EC40F041C04BF05E
:102E780042C04CF0E3EC47F0300E4B2400016A6F7F
:102E8800000E4C206B6F02EC41F02C6A2D6A200E6C
:102E98002E6E410E2F6E0001D251040DA30EF324A5
:102EA800D96E010EF420DA6EDECF28F0DECF29F0DD
:102EB800DECF2AF0DECF2BF06AEC30F028C041F0EC
:102EC80029C042F02AC043F02BC044F068EC40F01F
:102ED80041C04FF042C050F0526A0A0E516E26ECC3
:102EE80044F04FC04BF050C04CF0E3EC47F0300ECC
:102EF8004B2400016A6F000E4C206B6F02EC41F00E
:102F080000016B6B410E6A6F02EC41F00001D22B9D
:102F180069D7000EA6EC3CF00C6A040E99EC48F058
:102F280054A014D0050E0001EB6108D0350E756F62
:102F3800FC0E766F050E4CEC43F0D3D0A80E756FDF
:102F4800FB0E766F050E4CEC43F0CBD054AA14D090
:102F5800050E0001EB6108D0350E756FFC0E766F1B
:102F6800050E4CEC43F0BDD09E0E756FFB0E766FD0
:102F7800050E4CEC43F0B5D0570403E0020E571889
:102F880031E1CE0E0001756FFC0E766F050E4CEC2C
:102F980043F0535001E1A5D00101366B640E356F43
:102FA8000A0E0B6E53503EEC47F00001CA6F300E0C
:102FB800CA256A6F6B6B000E6B23B2EC38F00A0EF1
:102FC800076E53501DEC48F00001CA6F300ECA2539
:102FD8006A6F6B6B000E6B23B2EC38F0050EA4EC35
:102FE80045F07FD0030E57187CE189863C0E01011D
:102FF800546F070E0001EB6120D0040EEB6115D071
:10300800565013E0020E561808E1A20E756FFB0E1B
:10301800766F050E4CEC43F061D0E00E756FFC0E38
:10302800766F050E4CEC43F059D0FF0E756FFB0E12
:10303800766F050E4CEC43F051D00101366B220E31
:10304800356FFAEC48F0AFC10CF0B0C10DF00F6A63
:10305800640E0E6E42EC46F0300E0C2400016A6FCE
:10306800000E0D206B6FB2EC38F00F6A0A0E0E6E70
:10307800AFC10CF0B0C10DF042EC46F00CC007F047
:103088000DC008F00A6A0A0E096EC8EC46F0300E48
:10309800072400016A6F000E08206B6FB2EC38F04D
:1030A80000016B6B2E0E6A6FB2EC38F0AFC107F0FF
:1030B800B0C108F00A6A0A0E096EC8EC46F0300E74
:1030C800072400016A6F000E08206B6FB2EC38F01D
:1030D80000016B6B410E6A6FB2EC38F0050EA4EC80
:1030E80045F00C6A070E99EC48F00101545102E0D2
:1030F80054071200899612005FEC31F0D86FB50EB4
:10310800B66FF90EB76F0AEC48F0EC513BE1DD6B96
:1031180022D06C0E076E020E086E8E0EDD25D96E5B
:10312800DA6A010EDA22DF504B0DA60EF324096E7F
:10313800E70EF4200A6E12EC40F00750081009E17F
:103148008E0E0001DD25D96EDA6A010EDA22DF5013
:10315800EC6F0001DD2BCA69CB69D851CC6FCD6B00
:10316800CA51CC27CB51CD23DD51CE6FCF6BCC517B
:10317800CE5DCF51800AD06FCD51800AD05901E37E
:1031880006D2C7D702016C5101E0DED10001EC6B19
:10319800FED16C0E4D6E020E4E6E67EC48F04DC0BF
:1031A800D9F04EC0DAF04FC0DBF050C0DCF0D9C027
:1031B80015F0DAC016F0DBC017F0DCC018F0196A99
:1031C8001A6AC00E1B6E400E1C6E4EEC41F011E3E5
:1031D800156A166AA00E176E420E186ED9C019F03D
:1031E800DAC01AF0DBC01BF0DCC01CF04EEC41F07A
:1031F80008E2F70E0001B66FF70EB76F0AEC48F059
:10320800C1D1A3C141F0A4C142F0A5C143F0A6C1F8
:1032180044F068EC40F041C04BF042C04CF0E3ECA5
:1032280047F04BC007F04CC008F0000E08BEFF0E78
:10323800096E0A6E010E4AEC39F007C028F008C082
:1032480029F009C02AF00AC02BF0E9C12CF0EAC124
:103258002DF0EBC12EF0ECC12FF06AEC30F028C055
:10326800D1F029C0D2F02AC0D3F02BC0D4F0136A11
:10327800146A200E156E410E166ED9C00FF0DAC012
:1032880010F0DBC011F0DCC012F063EC2AF00FC0C4
:1032980028F010C029F011C02AF012C02BF0D1C0BC
:1032A8002CF0D2C02DF0D3C02EF0D4C02FF06AEC91
:1032B80030F028C0E9F129C0EAF12AC0EBF12BC0AF
:1032C800ECF1C6EC35F05ED16C0E076E020E086E9E
:1032D800A20E096EFB0E0A6E12EC40F007500810A1
:1032E80002E1020E0ED06C0E076E020E086EE00EA2
:1032F800096EFC0E0A6E12EC40F00750081003E14C
:10330800010E566EDED76C0E076E020E086E950E15
:10331800096EFC0E0A6E12EC40F00750081001E02E
:1033280031D1566AC6EC35F0546A2CD16C0E076E52
:10333800020E086E2C0E096EFC0E0A6E12EC40F09E
:103348000750081002E1010E0ED06C0E076E020E37
:10335800086EDA0E096EFC0E0A6E12EC40F0075089
:10336800081004E1020E0001F36FABD76C0E076E74
:10337800020E086E4D0E096EFC0E0A6E12EC40F03D
:103388000750081001E0FED00001F36B9AD76C0ECD
:10339800076E020E086ED40E096EFC0E0A6E12EC51
:1033A80040F00750081004E1010E0001F26F89D7C0
:1033B8006C0E076E020E086E9C0E096EFC0E0A6EED
:1033C80012EC40F00750081001E0DCD00001F26B6D
:1033D80078D7DD6B6C0E076E020E086EDD51090D95
:1033E800E00EF324096EF10EF4200A6E12EC40F0A0
:1033F8000750081004E1DDC0F1F0C6EC35F000011B
:10340800DD2B040EDD65E6D7BDD0DD6B6C0E076ED7
:10341800020E086EDD510A0DAE0EF324096EF10E90
:10342800F4200A6E12EC40F00750081004E1DDC0E9
:1034380055F0C6EC35F00001DD2B040EDD65E6D74E
:10344800A1D06C0E076E020E086E4D0E096EFC0EB2
:103458000A6E12EC40F00750081003E10001F06B0F
:1034680030D76C0E076E020E086E8E0E096EFC0EBB
:103478000A6E12EC40F00750081001E083D0010EEC
:103488000001F06F1ED7DD6B6C0E076E020E086E22
:10349800DD51120D000EF324096E020EF4200A6E9F
:1034A80012EC40F00750081009E1DDC041F0426A13
:1034B8000001EC5136EC33F0C6EC35F00001DD2BA1
:1034C800040EDD65E1D75ED06C0E076E020E086E45
:1034D800F00E096EFC0E0A6E12EC40F00750081050
:1034E80003E10001EF6BEDD66C0E076E020E086E5D
:1034F800E60E096EFC0E0A6E12EC40F0075008103A
:1035080041E1010E0001EF6FDCD66C0E0A6E020E6F
:103518000B6E07EC3FF00AC0D5F00BC0D6F0D5C053
:1035280041F0D6C042F00001EC5136EC33F0000116
:10353800D76FC6EC35F0D75125E17B0EB66FF90E83
:10354800B76F0AEC48F01ED00001EC51020A01E105
:103558001ED7010A01E13DD7050A01E1E7D60F0AA6
:1035680001E153D7030A01E16CD7060A01E1ACD6A1
:10357800020A01E10ED6010A86E01E0AA5E0030A46
:1035880082E0C3D70001EC6B5FEC31F0D86F0E0E10
:10359800EC6568D2C00EB66FFA0EB76FEC514B0DE2
:1035A800110EF326000EF422A60EF324B86FE70ED0
:1035B800F420B96FEC51F2EC2CF0A5C0BAF0A6C01B
:1035C800BBF00AEC48F04ED2D70EB66FF30EB76FC9
:1035D8000AEC48F0F10EB66FFB0EB76F0AEC48F034
:1035E800950EB66FF70EB76F0AEC48F05C0EB66F23
:1035F800F90EB76F53C1B8F0B96B0AEC48F0240E56
:10360800B66FF40EB76F0AEC48F0DD6B94D0E30E9A
:10361800B66FFA0EB76F8E0EDD25D96EDA6A010E17
:10362800DA22DF504B0DA60EF324B86FE70EF42014
:10363800B96F8E0EDD25D96EDA6A010EDA22DF50F7
:103648004B0D110EF326000EF422A60EF324BA6FCA
:10365800E70EF420BB6F0AEC48F08E0EDD25D96E1C
:10366800DA6A010EDA220E0EDE184FE1BB0EB66FD3
:10367800F80EB76FA3C128F0A4C129F0A5C12AF09C
:10368800A6C12BF02C6A2D6A200E2E6E410E2F6ECD
:103698006AEC30F028C0B8F029C0B9F02AC0BAF0F6
:1036A8002BC0BBF0A7C128F0A8C129F0A9C12AF0F6
:1036B800AAC12BF02C6A2D6A200E2E6E410E2F6E99
:1036C8006AEC30F028C0BCF029C0BDF02AC0BEF0BA
:1036D8002BC0BFF0ABC128F0ACC129F0ADC12AF0B6
:1036E800AEC12BF02C6A2D6A200E2E6E410E2F6E65
:1036F8006AEC30F028C0C0F029C0C1F02AC0C2F07E
:103708002BC0C3F00AEC48F00FD08E0EDD25D96E21
:10371800DA6A010EDA22DF50F2EC2CF0A5C0B6F01E
:10372800A6C0B7F00AEC48F0B50EB66FF90EB76F41
:103738000AEC48F0DD2BCA69CB69D851CC6FCD6B48
:10374800CA51CC27CB51CD23DD51CE6FCF6BCC5195
:10375800CE5DCF51800AD06FCD51800AD05901E299
:1037680056D7F80EB66FFC0EB76F0AEC48F0B1D119
:103778007B0EB66FF60EB76FEC51F2EC2CF0A5C0CD
:10378800B8F0A6C0B9F00AEC48F0A3D13E0EB66F67
:10379800F60EB76FEC51F2EC2CF0A5C0B8F0A6C04D
:1037A800B9F00AEC48F095D1E50EB66FF20EB76F96
:1037B800EDC1B8F0EEC1B9F00AEC48F08AD1B40E08
:1037C800B66FF40EB76FF4C0B8F0F5C0B9F00AECF4
:1037D80048F07FD1B80EB66FF60EB76FEC51F2EC29
:1037E8002CF0A5C0B8F0A6C0B9F0E00EBA6FF10E83
:1037F800BB6F0AEC48F0010EDD6FF40EB66FFC0EDD
:10380800B76FDD51090DE00EF324B86FF10EF42007
:10381800B96F0AEC48F0DD2B040EDD65EED7380EE3
:10382800B66FF50EB76F0AEC48F053D17F0EB66F3E
:10383800F50EB76F0AEC48F0C90EB66FF70EB76F02
:103848000AEC48F0F90EB66FF40EB76FFCC0B8F08A
:10385800FDC0B9F00AEC48F03CD16D0EB66FF40E1D
:10386800B76FF8C0B8F0F9C0B9F00AEC48F031D138
:103878007F0EB66FF50EB76F0AEC48F0C90EB66F3B
:10388800F70EB76F0AEC48F0BF0EB66FF50EB76FBC
:10389800FAC0B8F0FBC0B9F00AEC48F01AD17F0EB4
:1038A800B66FF50EB76F0AEC48F0C90EB66FF70E93
:1038B800B76F0AEC48F03C0EB66FF50EB76FF6C05E
:1038C800B8F0F7C0B9F00AEC48F003D18A0EB66F29
:1038D800F30EB76FEC51F2EC2CF0A5C0B8F0A6C00F
:1038E800B9F00AEC48F0F5D0FF0EB66FF50EB76FD9
:1038F800EC51F2EC2CF0A5C0B8F0A6C0B9F0AE0EB1
:10390800BA6FF10EBB6F0AEC48F0010EDD6FF40ED2
:10391800B66FFC0EB76FDD510A0DAE0EF324B86F0B
:10392800F10EF420B96F0AEC48F0DD2B040EDD65CA
:10393800EED7380EB66FF50EB76F0AEC48F0C9D05F
:10394800880EB66FF20EB76FEC51F2EC2CF0A5C0F2
:10395800B8F0A6C0B9F00AEC48F0BBD0F20EB66FCA
:10396800F60EB76FA3C128F0A4C129F0A5C12AF0AB
:10397800A6C12BF02C6A2D6A200E2E6E410E2F6EDA
:103988006AEC30F028C0B8F029C0B9F02AC0BAF003
:103998002BC0BBF00AEC48F09CD0AD0EB66FFA0E07
:1039A800B76F000EB86F020EB96F0AEC48F0010E3F
:1039B800DD6FF40EB66FFC0EB76FDD51120D000E01
:1039C800F324B86F020EF420B96F0AEC48F0DD2B2F
:1039D800050EDD65EED7380EB66FF50EB76F0AEC3B
:1039E80048F077D0600EB66FF70EB76F0AEC48F064
:1039F80070D03A0EB66FF30EB76F0AEC48F069D084
:103A08002A0EB66FF70EB76F0AEC48F062D00E0EAA
:103A1800B66FFA0EB76FEC514B0D450EF326000E3C
:103A2800F422A60EF324F66EE70EF420F76E0900D2
:103A3800F5CFB8F00A00F5CFB9F0EC514B0D470EB1
:103A4800F326000EF422A60EF324F66EE70EF420F9
:103A5800F76E0900F5CFBAF00A00F5CFBBF00AEC13
:103A680048F037D0EC5101E1AFD5020A01E180D628
:103A7800010A01E1AFD6070A01E1EFD6010A01E127
:103A88000ED7030A01E122D7010A01E18DD60F0AF8
:103A980001E195D6010A01E127D7030A01E150D7D0
:103AA800010A01E1E5D6070A01E170D6010A01E140
:103AB800BDD6030A01E152D7010A01E16ED71E0AF9
:103AC80091E0030A01E169D7060A93E0020A98E047
:103AD8009ED70101576B596B12000001D86F5FEC3C
:103AE80031F0D76F3C0E0101546F89860001F00553
:103AF80004E154B881B201D054980101525112E145
:103B0800050E0001D8190EE1010145510BE1010E26
:103B1800526F29C11DF12AC11EF12BC11FF12CC101
:103B280020F17ED10101520528E1D00E1D250001AA
:103B3800D36F070E01011E210001D46F000E010191
:103B48001F210001D56F000E010120210001D66F51
:103B5800010129510001D35D01012A510001D45905
:103B680001012B510001D55901012C510001D659F1
:103B780004E2020E0101526F1FD0010152050AE151
:103B8800070E0001D81906E10101526B456B49EC9B
:103B980013F046D10E0E0101521910E1020E000178
:103BA800D8190CE10101515109E0E96BEA6B800E6B
:103BB800EB6F3F0EEC6F516B010E7DD0010E0101D2
:103BC80052657BD0020E0001D81906E0030ED81901
:103BD80003E0060ED81971E1010145516EE151511A
:103BE80056E159D0E2C007F0E3C008F00A6A640E53
:103BF800096E030E0C6EE70E0B6E0001D851F7EC40
:103C080045F007C0E2F008C0E3F053D05251EFECA2
:103C180034F04BC031F14CC032F131C107F032C140
:103C280008F0010152514B0D450EF326000EF42207
:103C3800A60EF324F66EE70EF420F76E0900F5CF12
:103C480009F00A00F5CF0AF052514B0D470EF32642
:103C5800000EF422A60EF324F66EE70EF420F76E9B
:103C68000900F5CF0BF00A00F5CF0CF00001D85190
:103C7800F7EC45F007C031F108C032F131C141F02D
:103C880032C142F00101525136EC33F012D0525198
:103C98000E0AA8E0BBD752C10EF08E0E0F6E010EB1
:103CA800106ED7C011F00001D8515BEC44F001014F
:103CB800526F010EA8D0456FB3D0010E01015265B5
:103CC800A4D0050E0001D81901E09FD0010145518B
:103CD80001E09BD0010E456F515167E0516B0E0E0C
:103CE800521901E09DD033510001E21906E10101AA
:103CF80034510001E31901E193D033C107F034C115
:103D080008F0096A0A6A000E4AEC39F007C028F080
:103D180008C029F009C02AF00AC02BF0E9C12CF02C
:103D2800EAC12DF0EBC12EF0ECC12FF06AEC30F0B7
:103D380028C019F129C01AF12AC01BF12BC01CF1A7
:103D4800E2C007F0E3C008F0096A0A6A000E4AEC0C
:103D580039F007C028F008C029F009C02AF00AC0C5
:103D68002BF019C12CF01AC12DF01BC12EF01CC16B
:103D78002FF06AEC30F028C0E9F129C0EAF12AC036
:103D8800EBF12BC0ECF1E2C007F0E3C008F0096AE0
:103D98000A6A000E4AEC39F007C0A3F108C0A4F182
:103DA80009C0A5F10AC0A6F13BD0010E516F0E0E55
:103DB800521919E1A3C141F0A4C142F0A5C143F0D1
:103DC800A6C144F068EC40F041C04BF042C04CF052
:103DD800E3EC47F04BC0E2F04CC0E3F0E2C033F153
:103DE800E3C034F11DD0170E52191AE1526B516B12
:103DF800546A0001EA6B536A0101466B49EC13F0FF
:103E0800C6EC35F0020E010156D7070E0001D8198D
:103E180007E10101456B086A0A0E076EA9EC46F036
:103E28000101450503E0520501E033D1520523E1C4
:103E3800000E0C6A99EC48F0040E0C6E010E99EC19
:103E480048F0890E0001756FFB0E766F020E4CEC80
:103E580043F0230E0001756FFC0E766F040E4CECD8
:103E680043F0100E0C6E060E99EC48F00C6A070E23
:103E780099EC48F00BD152514B0D080EF326000E69
:103E8800F422A60EF3240001B66FE70EF420B76FF4
:103E9800020EB86FAAEC3EF0E1D0FAEC48F001014E
:103EA80051514BE043EC48F0366B280E356FE2C0B9
:103EB8000CF0E3C00DF00F6A640E0E6E42EC46F093
:103EC800300E0C2400016A6F000E0D206B6FB2ECEF
:103ED80038F00A6A640E096EE2C007F0E3C008F021
:103EE800C8EC46F007C00CF008C00DF00F6A0A0EC7
:103EF8000E6E42EC46F0300E0C2400016A6F000E84
:103F08000D206B6FB2EC38F000016B6B2E0E6A6FF0
:103F1800B2EC38F0E2C007F0E3C008F00A6A0A0E13
:103F2800096EC8EC46F0300E072400016A6F000ED7
:103F380008206B6FB2EC38F078D0000E366F280E80
:103F4800356FA3C141F0A4C142F0A5C143F0A6C199
:103F580044F068EC40F041C04BF042C04CF0E3EC58
:103F680047F04BC062F04CC063F00001656B640E13
:103F7800646F5FEC42F0300E62256A6F000E6321B9
:103F88006B6FB2EC38F0000E526E640E516EA3C126
:103F980041F0A4C142F0A5C143F0A6C144F068ECC9
:103FA80040F041C04BF042C04CF0E3EC47F04BC04E
:103FB8004FF04CC050F026EC44F04FC062F050C0B7
:103FC80063F0656B0A0E646F5FEC42F0300E622599
:103FD8006A6F000E63216B6FB2EC38F000016B6BF7
:103FE8002E0E6A6FB2EC38F0A3C141F0A4C142F0C2
:103FF800A5C143F0A6C144F068EC40F041C04BF0C5
:1040080042C04CF0E3EC47F04BC04FF04CC050F0CE
:10401800526A0A0E516E26EC44F0300E4F246A6F35
:10402800000E50206B6FB2EC38F0366B580E356FBF
:1040380000016B6B410E6A6FB2EC38F0040EA4EC11
:1040480045F012D05251F2EC2CF0A5C0B6F0A6C043
:10405800B7F0040EB86FAAEC3EF006D00101525139
:104068000E0A01E11AD7EED7070E136EAA0E146EC8
:10407800FC0E156EF10E076EFB0E086E89EC46F00D
:104088000750FA0DF3507A0FF0EC43F0020E0101DD
:10409800456F29C121F12AC122F12BC123F12CC17D
:1040A80024F1506BD8C0E7F10001EB6B120000015E
:1040B800D56FDE6BDF6BD66BD76BD36BD46BCF6BE7
:1040C800D06BD16BD26BF1510DE1010EE06F2D0E6B
:1040D800E025D96EDA6A010EDA22DF6AE02B030ED8
:1040E800E065F5D7020E01012D190EE10001FA5124
:1040F800E85DFB51E95908E20A0EE803F3CFC9F07D
:10410800F4CFCAF0E90308D00A0E0001FA03F3CF8E
:10411800C9F0F4CFCAF0FB03F350CA27C9C043F172
:10412800CAC044F1020EF16104D043C111F144C187
:1041380012F1E06B2D0EE025D96EDA6A010EDA2253
:10414800020EDE181AE1DE4BDF2BE051020D110ED4
:10415800F324D96E010EF420DA6EDE50D627DD5036
:10416800D723E051020DAF0EF324D96E010EF420CF
:10417800DA6EDE50D327DD50D423E02B030EE06542
:10418800D9D7D5513CE1020E561839E00A0EFC0386
:10419800F3CFC9F0F4CFCAF0FD03F350CA270101E9
:1041A80041510001C95DDC6F010142510001CA594A
:1041B800DD6FDDBF11D0DD5102E1DC050DE3DCC0B0
:1041C80062F0DDC063F0656B040E646F5FEC42F073
:1041D8006251E427635103D0DC51E427DD51E52324
:1041E800E5AF02D0E46BE56BE5BF09D0210EE45DD5
:1041F800030EE55904E3030EE56F200EE46F020E8B
:1042080056186FE1E7AF16D0E7AF0AD0F60EE65DB5
:10421800FF0EE75905E2050EE427000EE52317D047
:10422800E6C062F0E7C063F0656B040E646F5FEC94
:1042380042F009D0E6C062F0E7C063F0656B020E99
:10424800646F5FEC42F06251E45F6351E55BF851E3
:10425800DE03F3CFC9F0F4CFCAF0DF03F350CA2767
:10426800F951DE03F350CA270A0EC903F3CFCBF086
:10427800F4CFCCF0CA03F350CC27CB51E45DCC513A
:10428800E55902E3E5AF2BD0F851DE03F3CFC9F0CF
:10429800F4CFCAF0DF03F350CA27F951DE03F35015
:1042A800CA270A0EC903F3CFCBF0F4CFCCF0CA0368
:1042B800F350CC27CBC0E4F0CCC0E5F0DE51DF11E1
:1042C8000EE0F451F5110BE0E7BF09D0E75103E127
:1042D8000B0EE65D04E3010E0101466F02D00101F9
:1042E800466B0001F1051BE10A0EF603F3CFC9F096
:1042F800F4CFCAF0F703F350CA27E451C95DE5517A
:10430800CA590DE20A0EF603F3CFC9F0F4CFCAF08A
:10431800F703F350CA27C9C0E4F0CAC0E5F0D35187
:104328000101415D0001D86FD451010142590001DA
:10433800D96FD9AF02D0D86BD96B565014E1F105BB
:104348000EE10A0EF603F3CFC9F0F4CFCAF0F70373
:10435800F350CA27C9C0E4F0CAC0E5F004D043C18D
:10436800E4F044C1E5F0DE51DF1101E127D1D55178
:1043780012E0020E56180FE00A0EFC03F3CFC9F044
:10438800F4CFCAF0FD03F350CA27D851C95DE46FD2
:10439800D951CA59E56FE5BF37D0F851DE03F3CFDD
:1043A800C9F0F4CFCAF0DF03F350CA27F951DE038E
:1043B800F350CA270A0EC903F3CFCBF0F4CFCCF0E1
:1043C800CA03F350CC27CB51E45DCC51E5591CE32B
:1043D800020E56183DE1E7BF3BD0E75103E10B0E53
:1043E800E65D36E30A0EFC03F3CFC9F0F4CFCAF05A
:1043F800FD03F350CA27010141510001C95D0101C4
:1044080042510001CA5924E2F851DE03F3CFC9F042
:10441800F4CFCAF0DF03F350CA27F951DE03F35093
:10442800CA270A0EC903F3CFCBF0F4CFCCF0CA03E6
:10443800F350CC27CBC0E4F0CCC0E5F001014F2B02
:10444800F40E0001B66FFA0EB76F0AEC48F002D00E
:1044580001014F6B0001E451D65DD751800AC96F45
:10446800E551800AC95904E2D6C0E4F0D7C0E5F0A6
:10447800E4C0DAF0E5C0DBF0E06BDAC062F0DBC084
:1044880063F0DEC064F0DFC065F05FEC42F062C04C
:10449800CDF063C0CEF02D0EE025D96EDA6A010E9C
:1044A800DA22020EDE183EE1E051CF0FD96EDA6A49
:1044B800DF5038E1E051020D110EF324D96E010EE0
:1044C800F420DA6EDE50CD5DDE50CE592BE3E0519C
:1044D800020D110EF324D96E010EF420DA6EE051AC
:1044E800020DAF0EF324E16E010EF420E26EDECF72
:1044F800E6FFDDCFE5FFE051CF0FD96EDA6A010E96
:10450800DF6EDE07D8A0DF07E051020DAF0EF324FF
:10451800D96E010EF420DA6EDE50DA5FDD50DB5B17
:10452800E06B01D0E02B040EE06103D0DE51DF1117
:10453800A4E1E06BDE51DF1141E02D0EE025D96EDC
:10454800DA6A010EDA22020EDE1831E1E051CF0FED
:10455800D96EDA6ADF502BE1DAC062F0DBC063F0B3
:10456800DEC064F0DFC065F05FEC42F0E051020DA0
:10457800AF0EF324D96E010EF420DA6E62C0DEFFAE
:1045880063C0DDFFE051CF0FD96EDA6A010EDF6E2E
:10459800DE07D8A0DF07E051020DAF0EF324D96E75
:1045A800010EF420DA6EDE50DA5FDD50DB5BE02BC3
:1045B800040EE06103D0DE51DF11BFE1F105D8A49C
:1045C8001200E06BE02B030EE065FCD7030C04D26D
:1045D80020EE03F04C50D9264D50DA22100EDFAEF3
:1045E8001C0E0001686F716B6D0E076E4CC008F0F1
:1045F8004DC009F07151040DF35068250A6E030E81
:104608000B6E57EC2FF06DC00FF06EC010F06FC03E
:1046180011F070C012F0136A146A200E156E410E64
:10462800166E63EC2AF000017151040DF3CF60F0AF
:10463800F4CF61F060514F24D96E61515020DA6E89
:104648000FC0DEFF10C0DEFF11C0DEFF12C0DEFFAC
:104658001C0E681901E083D07151040DF3CF60F08E
:10466800F4CF61F060514F24D96E61515020DA6E59
:10467800DECF0FF0DECF10F0DECF11F0DECF12F07C
:10468800E9C113F0EAC114F0EBC115F0ECC116F062
:1046980063EC2AF000017151040DF3CF62F0F4CFFE
:1046A80063F062514F24D96E63515020DA6E0FC007
:1046B800DEFF10C0DEFF11C0DEFF12C0DEFF0A0EF3
:1046C800156ED70E166E230E176EBC0E186E71512E
:1046D800040DF3CF60F0F4CF61F060514F24D96E30
:1046E80061515020DA6EDECF19F0DECF1AF0DECF3E
:1046F8001BF0DECF1CF04EEC41F031E200017151AD
:10470800040DF3CF60F0F4CF61F060514F24D96EFF
:1047180061515020DA6EDECF15F0DECF16F0DECF15
:1047280017F0DECF18F00A0E196ED70E1A6E230E88
:104738001B6E3C0E1C6E4EEC41F011E200017151F3
:10474800040DF3CF60F0F4CF61F060514F24D96EBF
:1047580061515020DA6EDE6ADE6ADE6ADD6A0001C7
:10476800712B020E716540D7020C0001716B6D0E42
:10477800076E4CC008F04DC009F07151040DF3CF1D
:104788000AF04E50120D0A0EF324D96E020EF420D0
:10479800DA6EDF500B6E57EC2FF06DC00FF06EC065
:1047A80010F06FC011F070C012F0136A146A200E76
:1047B800156E410E166E63EC2AF000017151040D5E
:1047C800F3CF60F0F4CF61F060514F24D96E61519E
:1047D8005020DA6E0FC0DEFF10C0DEFF11C0DEFF12
:1047E80012C0DEFF6D0E076E4CC008F04DC009F018
:1047F8007151040DF3500C0F0A6E4E50120D0A0E33
:10480800F324D96E020EF420DA6EDF500B6E57ECEB
:104818002FF070AF2BD07151040DF3CF60F0F4CFAF
:1048280061F060514F24D96E61515020DA6EDECFAD
:1048380007F0DECF08F0DECF09F0DECF0AF089EC12
:1048480048F000017151040DF3CF62F0F4CF63F02A
:1048580062514F24D96E63515020DA6E07C0DEFFD3
:1048680008C0DEFF09C0DEFF0AC0DEFF712B020EA2
:1048780071657DD7020C4E50120D0D0EF324D96EC2
:10488800020EF420DA6E080EDE1842E10001716BA8
:104898006D0E076E4CC008F04DC009F07151040D43
:1048A800F3CF0AF04E50120D0A0EF324D96E020E01
:1048B800F420DA6EDF500B6E57EC2FF06DC00FF05E
:1048C8006EC010F06FC011F070C012F0136A146A55
:1048D800200E156E410E166E63EC2AF00001715120
:1048E800040DF3CF60F0F4CF61F060514F24D96E1E
:1048F80061515020DA6E0FC0DEFF10C0DEFF11C01C
:10490800DEFF12C0DEFF712B020E7165C1D7020CEB
:104918000001716B690E076E4CC008F04DC009F0BC
:104928007151040DF3CF0AF04E50120D0A0EF32404
:10493800D96E020EF420DA6EDF500B6E57EC2FF0B2
:104948004E50120D0D0EF324D96E020EF420DA6EBD
:10495800DF50606F600562EC3FF041C064F042C018
:1049680065F043C066F044C067F069C007F06AC0EC
:1049780008F06BC009F06CC00AF0010E4AEC39F07F
:1049880007C028F008C029F009C02AF00AC02BF097
:1049980064C02CF065C02DF066C02EF067C02FF003
:1049A8006AEC30F000017151040DF3CF60F0F4CFE0
:1049B80061F060514F24D96E61515020DA6E28C0E1
:1049C800DEFF29C0DEFF2AC0DEFF2BC0DEFF712B11
:1049D800020E71659FD7020C4E50010A01E1F8D50D
:1049E800050A01E1C2D647D7435044100BE043C043
:1049F800D9FF44C0DAFF41C0DEFF42C0DDFF02D06C
:104A0800414A422A41C0D9FF42C0DAFFDF50466E10
:104A1800465078EC48F0F4E2476A2D0E461805E156
:104A2800010E476E414A422A03D02B0E4618FAE07F
:104A3800466A496A4A6A4B6A4C6A486A47B809D062
:104A480041C0D9FF42C0DAFF2E0EDE1802E14788C6
:104A580034D041C0D9FF42C0DAFFDF50D2EC48F071
:104A68002FE34782090E461826E047B84806462A2B
:104A780049C007F04AC008F04BC009F04CC00AF022
:104A88000A0E0B6E0C6A0D6A0E6ADBEC41F007C069
:104A980049F008C04AF009C04BF00AC04CF041C0C8
:104AA800D9FF42C0DAFFDF50D00F4926000E4A2254
:104AB8004B224C2202D047A8482A414A422ABED754
:104AC800466A41C0D9FF42C0DAFF650EDE1807E02A
:104AD80041C0D9FF42C0DAFF450EDE1858E1414A0D
:104AE800422A41C0D9FF42C0DAFF2D0EDE1802E18A
:104AF800478607D041C0D9FF42C0DAFF2B0EDE1827
:104B080002E1414A422A41C0D9FF42C0DAFF300ED1
:104B1800DE18F7E041C0D9FF42C0DAFFDF50D2EC1F
:104B280048F033E341C0D9FF42C0DAFFDF50D00F6D
:104B3800466E414A422A41C0D9FF42C0DAFFDF50DF
:104B4800D2EC48F022E341C0D9FF42C0DAFFDF507F
:104B5800456E46500A0DF3504524D00F466E414A23
:104B6800422A41C0D9FF42C0DAFFDF50D2EC48F0F8
:104B78000CE341C0D9FF42C0DAFFDF50456E465012
:104B88000A0DF3504524D00F466E47B6466C465082
:104B98004826435044100AE047A208D043C0D9FF32
:104BA80044C0DAFF41C0DEFF42C0DDFF49C007F064
:104BB8004AC008F04BC009F04CC00AF0010E4AEC9C
:104BC80039F007C049F008C04AF009C04BF00AC0E4
:104BD8004CF049C007F04AC008F04BC009F04CC07F
:104BE8000AF00B6A0C6A0D6A0E6A8DEC44F005E354
:104BF800416A426A436A446A120048AE5CD0486C13
:104C08001CD049C028F04AC029F04BC02AF04CC03B
:104C18002BF0F90E2C6E020E2D6E150E2E6E500E08
:104C28002F6E6AEC30F028C049F029C04AF02AC03B
:104C38004BF02BC04CF0F60E48264850800A760FF1
:104C48001AE3DFD749C028F04AC029F04BC02AF040
:104C58004CC02BF02C6A2D6A200E2E6E410E2F6E42
:104C68006AEC30F028C049F029C04AF02AC04BF05D
:104C78002BC04CF048064850E5E149C015F04AC041
:104C880016F04BC017F04CC018F0196A1A6A800E5B
:104C98001B6E1C6A4EEC41F06CE247A006D0416ADC
:104CA800426A800E436E446E800C416A426A800EEE
:104CB800436E446A000C4850800A7F0F1DE259D0A9
:104CC80049C00FF04AC010F04BC011F04CC012F0B0
:104CD800F90E136E020E146E150E156E500E166E2A
:104CE80063EC2AF00FC049F010C04AF011C04BF035
:104CF80012C04CF0F60E48260A0E4860E1D719D0CB
:104D080049C00FF04AC010F04BC011F04CC012F06F
:104D1800136A146A200E156E410E166E63EC2AF0A3
:104D28000FC049F010C04AF011C04BF012C04CF04F
:104D380048064850E5E1156816687F0E176E186E2C
:104D480049C019F04AC01AF04BC01BF04CC01CF007
:104D58004EEC41F00EE247A006D0416A426A800E4E
:104D6800436E446E800C416A426A800E436E446A08
:104D7800000C47A012D049C007F04AC008F04BC049
:104D880009F04CC00AF089EC48F007C049F008C0A7
:104D98004AF009C04BF00AC04CF049C041F04AC083
:104DA80042F04BC043F04CC044F01200726F000157
:104DB80072AFEAD0726D7251800A120F01E283D08D
:104DC800656B0A0E646F526A640E516E72514F6EB3
:104DD800506A4FBE500626EC44F04FC062F050C0F7
:104DE80063F05FEC42F06251090F040D520EF32498
:104DF800F66EE70EF420F76E0900F5CF13F0090000
:104E0800F5CF14F00900F5CF15F00A00F5CF16F02C
:104E1800656B640E646F7251626F636B62BF630788
:104E28005FEC42F06251120F040D520EF324F66E3D
:104E3800E70EF420F76E0900F5CF0FF00900F5CF63
:104E480010F00900F5CF11F00A00F5CF12F063EC6D
:104E58002AF00FC06EF010C06FF011C070F012C0D1
:104E680071F06EC00FF06FC010F070C011F071C01B
:104E780012F0526A0A0E516E000172514F6E506A5A
:104E88004FBE500626EC44F04F50040D520EF3244A
:104E9800F66EE70EF420F76E0900F5CF13F009005F
:104EA800F5CF14F00900F5CF15F00A00F5CF16F08C
:104EB80063EC2AF00FC06AF010C06BF011C06CF000
:104EC80012C06DF012007251800A750F48E3656BCD
:104ED8000A0E646F7251626F636B62BF63075FECA7
:104EE80042F06251090F040D520EF324F66EE70EDC
:104EF800F420F76E0900F5CF0FF00900F5CF10F098
:104F08000900F5CF11F00A00F5CF12F0526A0A0E27
:104F1800516E72514F6E506A4FBE500626EC44F0E7
:104F28004F50040D520EF324F66EE70EF420F76E80
:104F38000900F5CF13F00900F5CF14F00900F5CFFB
:104F480015F00A00F5CF16F063EC2AF00FC06AF0EE
:104F580010C06BF011C06CF012C06DF012007251ED
:104F6800040D520EF324F66EE70EF420F76E0900D6
:104F7800F5CF6AF00900F5CF6BF00900F5CF6CF0BA
:104F88000A00F5CF6DF012007251800A120F01E28B
:104F980083D0656B0A0E646F526A640E516E72514B
:104FA8004F6E506A4FBE500626EC44F04FC062F078
:104FB80050C063F05FEC42F06251090F040D1E0E01
:104FC800F324F66EE70EF420F76E0900F5CF13F020
:104FD8000900F5CF14F00900F5CF15F00A00F5CF58
:104FE80016F0656B640E646F7251626F636B62BF1B
:104FF80063075FEC42F06251120F040D1E0EF3249A
:10500800F66EE70EF420F76E0900F5CF0FF00900F1
:10501800F5CF10F00900F5CF11F00A00F5CF12F026
:1050280063EC2AF00FC06EF010C06FF011C070F082
:1050380012C071F06EC00FF06FC010F070C011F0A8
:1050480071C012F0526A0A0E516E000172514F6E11
:10505800506A4FBE500626EC44F04F50040D1E0E09
:10506800F324F66EE70EF420F76E0900F5CF13F07F
:105078000900F5CF14F00900F5CF15F00A00F5CFB7
:1050880016F063EC2AF00FC06AF010C06BF011C084
:105098006CF012C06DF012007251800A750F48E36F
:1050A800656B0A0E646F7251626F636B62BF630750
:1050B8005FEC42F06251090F040D1E0EF324F66EE8
:1050C800E70EF420F76E0900F5CF0FF00900F5CFD1
:1050D80010F00900F5CF11F00A00F5CF12F0526A6E
:1050E8000A0E516E72514F6E506A4FBE500626EC32
:1050F80044F04F50040D1E0EF324F66EE70EF42014
:10510800F76E0900F5CF13F00900F5CF14F0090088
:10511800F5CF15F00A00F5CF16F063EC2AF00FC0B2
:105128006AF010C06BF011C06CF012C06DF0120084
:105138007251040D1E0EF324F66EE70EF420F76E7E
:105148000900F5CF6AF00900F5CF6BF00900F5CF3B
:105158006CF00A00F5CF6DF012000101006B016BD5
:10516800026B036B046B056B066B076B0A6B0B6BAF
:10517800070E0001CB65070CC9C0D9FFCAC0DAFF0A
:10518800DF500101006F000120EE01F0C951D9265E
:10519800CA51DA22DF500101016FC9C007F0CAC045
:1051A80008F0CBC009F0BAEC43F00750081001E151
:1051B800FDD01200080E0001CB1934E1020E0101E6
:1051C8000B6F000120EE02F0C951D926CA51DA222C
:1051D800DF50CD6FCC6B20EE03F0C951D926CA51F0
:1051E800DA22DF50CC110101026F0001CD5101011B
:1051F800036F000120EE04F0C951D926CA51DA2202
:10520800DF50CD6FCC6B20EE05F0C951D926CA51BD
:10521800DA22DF50CC110101046F0001CD510101E8
:10522800056FCED020EE02F0C951D926CA51DA2234
:10523800DF5001010A6F0A510001CC6FCD6BFB0EE4
:10524800CE6FCF69CB51D06FD16BCE51D027CF5114
:10525800D123CC51D01905E1CD51D11902E1030E6A
:105268009BD0580EB66FFA0EB76F0AEC48F0A8D06C
:10527800080E0001CB1937E1010E01010B6F000187
:1052880020EE02F0C951D926CA51DA22DF50CD6F7B
:10529800CC6B20EE03F0C951D926CA51DA22DF506F
:1052A800CC110101026F0001CD510101036F056BA3
:1052B800010E046F000120EE04F0C951D926CA512D
:1052C800DA22DF50CD6FCC6B20EE05F0C951D9261C
:1052D800CA51DA22DF50CC110101066F0001CD510D
:1052E8000101076F6DD0580EB66FFA0EB76F0AEC52
:1052F80048F066D0000120EE02F0C951D926CA5103
:10530800DA22DF50CD6FCC6B20EE03F0C951D926DD
:10531800CA51DA22DF50CC110101026F0001CD51D0
:105328000101036F000120EE04F0C951D926CA51CA
:10533800DA22DF50CD6FCC6B20EE05F0C951D926AB
:10534800CA51DA22DF50CC110101046F0001CD519E
:105358000101056F080E0001CB1981E020EE06F06F
:10536800C951D926CA51DA22DF5001010A6F0A5100
:105378000001CC6FCD6BF70ECE6FCF69CB51D06FDC
:10538800D16BCE51D027CF51D123CC51D01907E1C1
:10539800CD51D11904E1020E01010B6F11D0580E45
:1053A800B66FFA0EB76F0AEC48F00AD00101015146
:1053B800040A01E1FFD6020A01E15AD7160A9AE067
:1053C80001010B5172E00A5170E0C9C008F1CAC06E
:1053D80009F10001CB51010108250001CC6F000E35
:1053E800010109210001CD6F01010A510001CC5FC3
:1053F800000ECD5BFE0ECC250101086FFF0E0001EB
:10540800CD210101096F51D0106B00C10CF101C110
:105418000DF102C10EF103C10FF1120000510C1978
:105428000DE10D5101190AE1010E106F040E011969
:1054380006E10EC102F10FC103F101D0106B0C6B34
:105448000D6B0E6B0F6B120000510C190CE10D5116
:10545800011909E1010E106F030E0B6F0C6B0D6B38
:105468000E6B0F6B0BD0106B020E0B6F00C10CF1A3
:1054780001C10DF102C10EF103C10FF10251031177
:1054880005E0035103E1050E025D0CE3035104E15D
:10549800810E025DD8A01200035110E1850E025D55
:1054A800D8B01200020E0B6F020C0B51010ACCE0AF
:1054B800030AAAE0010AD8A41200B0D712001250B9
:1054C800800B1B6E12501224216E11BE21802150B8
:1054D80008E0212804E10F6A106A116A126A118E25
:1054E80004D00F6A106A116A126A1650800B1B1AD0
:1054F800165016241C6E15BE1C801C5008E01C2873
:1055080004E1136A146A156A166A158E04D0136AC0
:10551800146A156A166A1C5002E0215005E10F6AE8
:10552800106A116A126A120015500F02F3CF26F0A2
:10553800F4CF27F026501D6E1E6A1F6A206A275076
:10554800226E236A246A256A14501002F3CF26F0CB
:10555800F4CF27F026501D26000E1E221F222022DF
:1055680027502226000E232224222522135011021E
:10557800F3CF26F0F4CF27F026501D26000E1E226A
:105588001F22202227502226000E232224222522F1
:105598001FC020F01EC01FF01DC01EF01D6A135052
:1055A8001002F3CF26F0F4CF27F026501D262750FF
:1055B8001E22000E1F22202214500F02F3CF26F0C5
:1055C800F4CF27F026501D2627501E22000E1F223A
:1055D80020221FC020F01EC01FF01DC01EF01D6A33
:1055E80013500F02F3CF26F0F4CF27F026501D26D4
:1055F80027501E22000E1F22202215501002F3CF22
:1056080026F0F4CF27F02650222627502322000E1A
:105618002422252214501102F3CF26F0F4CF27F0CC
:105628002650222627502322000E242225221550F8
:105638001102F3CF26F0F4CF27F02650176E27502B
:10564800186E196A1A6A19C01AF018C019F017C02A
:1056580018F0176A175022261850232219502422AE
:105668001A50252220502226000E232224222522E9
:105678001FC020F01EC01FF01DC01EF01D6A1C5068
:1056880021C017F0186A1726000E1822820E172458
:10569800266EFF0E1820276E0FD0D890223623369C
:1056A8002436253620BE2280D8901D361E361F3659
:1056B80020362606D8A0270624AEEFD71C6A20AECF
:1056C80013D01D50176E1E50186E1F50196E7F0E86
:1056D80020141A6E1750181019101A1003E0010E32
:1056E8001C6E02D022B0FBD71C500EE0222A000EFE
:1056F80023222422252225A007D02534253224322E
:1057080023322232264A272A27BE0AD0275002E10E
:10571800262806E3226A236A800E246E7F0E15D09F
:1057280027BE04D0275008E1260406E2226A236A2D
:10573800246A256A1B6A0AD026C021F07F0E241627
:10574800256A21B0248ED8902130256E1B50251251
:1057580022C00FF023C010F024C011F025C012F0B1
:1057680012003A50800B436E3A503A24456E39BEC7
:105778004580455008E0452804E1376A386A396AA7
:105788003A6A398E03D0376A386A396A3A6A3E50BB
:10579800800B446E431801E0438C3E503E24446E17
:1057A8003DBE4480445008E0442804E13B6A3C6A1A
:1057B8003D6A3E6A3D8E03D03B6A3C6A3D6A3E6A5A
:1057C8004550445C22E243AC02D0800E431A45C0E7
:1057D80046F044C045F046C044F037C046F03BC0F0
:1057E80037F046C03BF038C046F03CC038F046C001
:1057F8003CF039C046F03DC039F046C03DF03AC0F3
:1058080046F03EC03AF046C03EF0466A455044C0B5
:105818003FF0406A3F5E000E405A40BE25D04050DF
:1058280003E11A0E3F5C20E33750381039103A1064
:10583800010ED8B4000E466E376A386A396A3A6A79
:1058480044C045F014D046A005D0D8904630010990
:10585800466E02D0D890463237B0468E3A343A3245
:10586800393238323732452A4450455CECE343BC80
:1058780023D0455005E1376A386A396A3A6A120016
:105888003B5037263C5038223D5039223E503A2270
:105898003AA068D046A005D0D89046300109466E97
:1058A80002D0D890463237B0468E3A343A3239323E
:1058B80038323732452A56D03B50375C3C5038583E
:1058C8003D5039583A50800A3F6E3E50800A3F5842
:1058D80023E237503B5C3F6E38503C58406E39509D
:1058E8003D58416E3A503E58426EFF0E3F24376E87
:1058F800FF0E4020386EFF0E4120396EFF0E422009
:105908003A6E800E431A466C46500EE1372A000E56
:10591800382239223A2208D03B50375E3C50385A58
:105928003D50395A3E503A5A3750381039103A10CB
:1059380017E1465015E1376A386A396A3A6A12003F
:10594800D8903736383639363A3646BE378046A08C
:1059580002D0D88001D0D8904636455001E045069F
:1059680039AEEED7446A46AE0AD046C03FF07F0E45
:105978003F1603E0010E446E02D037B0FBD7445007
:105988000FE0372A000E382239223A223AA008D0EE
:105998003A343A32393238323732452801E0452A2A
:1059A800452802E0455007E1376A386A396A3A6A99
:1059B800455001E1436A45A002D0398E01D0399E95
:1059C800D89045303A6E43BE3A8E37C037F038C06B
:1059D80038F039C039F03AC03AF012000001A96F26
:1059E800A951EFEC34F04BC0B4F04CC0B5F0F0D096
:1059F800F25105E0790EA56FF20EA66F1200600E47
:105A0800A56FF20EA66F1200560405E1730EA56F7E
:105A1800F20EA66F1200020E561805E16D0EA56F64
:105A2800F20EA66F1200590EA56FF20EA66F1200A5
:105A3800AA0E996F870E9A6FFC0E9B6FEDC19CF0B2
:105A4800EEC19DF070EC47F0AA0EA56FA66B120090
:105A5800F451F5110DE0AA0E996F550E9A6FFC0ED0
:105A68009B6FF4C09CF0F5C09DF070EC47F0ECD74C
:105A78003F0EA56FF20EA66F1200F151090DE00E50
:105A8800F324A56FF10EF420A66F1200AA0E996FE9
:105A9800880E9A6FFC0E9B6FB4C09CF0B5C09DF049
:105AA80070EC47F0D1D7F30505E1480EA56FF20E6B
:105AB800A66F1200020EF319DBE1670EA56FF20E56
:105AC800A66F120055500A0DAE0EF324A56FF10E05
