:040000009DEF01F07F
:100008004982FACF05F0FBCF06F0E9CF07F0EACF37
:1000180008F0E1CF09F0E2CF0AF0D9CF0BF0DACF40
:100028000CF0F3CF0DF0F4CF0EF0F6CF0FF0F7CFC2
:1000380010F0F8CF11F0F5CF12F049C013F04AC014
:1000480014F04BC015F04CC016F032D0AECF63F1AF
:10005800030E01012725016E000E2821026E000EF5
:100068002921036E000E2A21046E3350015C34509E
:1000780002583550035836500458D8B002D0000EF4
:10008800616F320E6119D8B461076151010DA20E7A
:10009800F324D96E020EF420DA6E63C1DFFF612B00
:1000A80033C027F134C028F135C029F136C02AF110
:1000B8009EBACCD79EB89DA850D001015D51010DC4
:1000C800000EF324D96E030EF420DA6EDF50AD6E05
:1000D8005D2B5C515D19D8B404D0320E5D19D8A4DB
:1000E8003CD09D98000E5D6F38D071B4D0A20BD073
:1000F8004804D8A408D074CF63F101016351D8A48F
:1001080004D0FF0002D074CF63F1D08263C173FFC3
:10011800320E01016019D8B46007080E6319D8A41B
:1001280005D06051D8B402D0600717D00D0E6319FE
:10013800D8B404D00A0E6319D8A404D0000E636F93
:1001480060295E6F6051010D3E0EF324D96E020ED8
:10015800F420DA6E63C1DFFF602BA4AAC2D0C5D732
:100168004604D8A456D03A50D8A404D0030E481850
:10017800D8B427D02C0E01013D5D010E3E59D8B0F0
:1001880002D0809801D08088808A3D51016E3E510E
:10019800026E3D4B3E2B910E015C010E0258D8A019
:1001A80060D082B20AD0890E3D5D130E3E59D8A0A8
:1001B80058D0000E3E6F000E53D0010E3E6F900EC9
:1001C8004FD02C0E01013F5D010E4059D8B003D02D
:1001D8008088809A02D08088808A3F51016E405181
:1001E800026E3F4B402B910E015C010E0258D8A0C5
:1001F8005BD082A20AD0890E3F5D130E4059D8A069
:1002080053D0000E406F000E4ED0010E406F900E7E
:100218004AD0020E4618D8A44BD03A50D8A404D0DD
:10022800030E4818D8B422D0580E01013D5D020EC5
:100238003E59D8B002D0809801D08088808A3D513C
:10024800016E3E51026E3D4B3E2BBD0E015C020E0F
:100258000258D8A006D082B2A6D7020E3E6FBC0EB6
:100268003D6F000E406F000E3F6F22D0580E010107
:100278003F5D020E4059D8B003D08088809A02D0E2
:100288008088808A3F51016E4051026E3F4B402B5F
:10029800BD0E015C020E0258D8A006D082A2ABD7D0
:1002A800020E406FBC0E3F6F000E3E6F000E3D6F9A
:1002B800010E3326000E342235223622010139512F
:1002C8003A11D8B403D03907D8A03A0754075429AB
:1002D800D8A406D051C167FF0A0E546F010E536FA0
:1002E8007E907EB03DD716C04CF015C04BF014C0C0
:1002F8004AF013C049F012C0F5FF11C0F8FF10C052
:10030800F7FF0FC0F6FF0EC0F4FF0DC0F3FF0CC0DF
:10031800DAFF0BC0D9FF0AC0E2FF09C0E1FF08C03D
:10032800EAFF07C0E9FF06C0FBFF05C0FAFF4992D4
:10033800110091EF48F0B1EF0CF0250E0001D8192B
:10034800D8B438D020EE02F0B151D926B251DA2211
:10035800DE50DE10D8B417D020EE02F0B151D92605
:10036800B251DA22DECFB7F0DDCFB8F002D8B1EF64
:100378000CF00500FA6EB751FD6EB851FE6EFF6ABB
:10038800FA50D8511200B1C0D9FFB2C0DAFFDECF9F
:10039800B7F0DDCFB8F0B7C0D9FFB8C0DAFFD8C022
:1003A800DFFFB1C0D9FFB2C0DAFFDE2A000EDD22BE
:1003B800B1EF0CF0000E0001D36F000ED26F000EEB
:1003C800D76F000ED66F07D00001D68702D0000184
:1003D800D685B34BB42BB3C0F6FFB4C0F7FFF86AA9
:1003E8000F0EF76403D00800F55005D0F6CFE1FFF3
:1003F800F7CFE2FFE7502D0AD8B4E6D71D0AD8B4E4
:10040800E6D70001D6B7D695B3C0F6FFB4C0F7FF5C
:10041800F86A0F0EF76403D00800F55005D0F6CF40
:10042800E1FFF7CFE2FFE750FCEC4EF0D8A049D04F
:10043800000E0001D36F000ED26FD2C01DF0D3C0E2
:100448001EF0000E206E0A0E1F6E63EC4EF01DC0EB
:10045800D2F01EC0D3F0D00E0001B76FFF0EB86FF8
:10046800B3C0F6FFB4C0F7FFF86A0F0EF76403D005
:100478000800F55005D0F6CFE1FFF7CFE2FFE750CF
:100488000001B96FBA6BB751B927B851BA23B9513E
:10049800D227BA51D323B34BB42BB3C0F6FFB4C0A1
:1004A800F7FFF86A0F0EF76403D00800F55005D07F
:1004B800F6CFE1FFF7CFE2FFE750FCEC4EF0D8B003
:1004C800BCD7B3C0F6FFB4C0F7FFF86A0F0EF764E5
:1004D80003D00800F55005D0F6CFE1FFF7CFE2FFD3
:1004E800E7502E0AD8A446D00001D78DB34BB42BC1
:1004F800000ED56F000ED46F28D0D4C01DF0D5C023
:100508001EF0000E206E0A0E1F6E63EC4EF0B3C094
:10051800F6FFB4C0F7FFF86A0F0EF76403D00800BF
:10052800F55005D0F6CFE1FFF7CFE2FFE750000125
:10053800B76FB7511D26000E1E22D00E1D24D46F92
:10054800FF0E1E20D56FB34BB42BB3C0F6FFB4C05B
:10055800F7FFF86A0F0EF76403D00800F55005D0CE
:10056800F6CFE1FFF7CFE2FFE750FCEC4EF0D8A062
:100578006DD1C3D7000E0001D56F000ED46FD78997
:1005880065D1D78597D1D68F95D1B5C0D9FFB6C0DB
:10059800DAFFDFCFB7F0020EDE26DFCFB8F0000EAD
:1005A800DD22B7C0D9FFB8C0DAFFDECFC0F0DDCF9B
:1005B800C1F0C051C111D8A404D04A0EC06FFC0EBE
:1005C800C16F000EC36F000EC26F03D00001C24B93
:1005D800C32BC251C025B76FC351C121B86FB7C073
:1005E800F6FFB8C0F7FFF86A0F0EF76403D00800EB
:1005F800F55005D0F6CFE1FFF7CFE2FFE75000094D
:10060800D8A4E4D70001D451D511D8B40AD0C25126
:10061800D45DC351D559D8B004D0D4C0C2F0D5C028
:10062800C3F0D251C25DD351C359D8B005D0C2511D
:10063800D25FC351D35B04D0000ED36F000ED26FCC
:10064800D6A736D099D020EE02F0B151D926B251B2
:10065800DA22DE50DE10D8B416D020EE02F0B15106
:10066800D926B251DA22DECFB7F0DDCFB8F001D803
:100678001FD00500FA6EB751FD6EB851FE6EFF6AC5
:10068800FA50200E1200B1C0D9FFB2C0DAFFDECF97
:10069800B7F0DDCFB8F0B7C0D9FFB8C0DAFF200E89
:1006A800DF6EB1C0D9FFB2C0DAFFDE2A000EDD224C
:1006B8000001D207D8A0D307D229C5E1D329D8B4DD
:1006C8005BD0C1D720EE02F0B151D926B251DA225F
:1006D800DE50DE10D8B429D020EE02F0B151D92670
:1006E800B251DA22DECFB7F0DDCFB8F001D819D099
:1006F8000500FA6EB751FD6EB851FE6EFF6AFA50EA
:10070800C0C0F6FFC1C0F7FFF86A0F0EF76403D048
:100718000800F55005D0F6CFE1FFF7CFE2FFE7502C
:1007280012000001C04BC12B27D0C0C0F6FFC1C0CA
:10073800F7FFF86AB1C0D9FFB2C0DAFFDECFB7F071
:10074800DDCFB8F0B7C0D9FFB8C0DAFF0F0EF76435
:1007580003D00800F55005D0F6CFE1FFF7CFE2FF50
:10076800E750DF6E0001C04BC12BB1C0D9FFB2C04A
:10077800DAFFDE2A000EDD22C207D8A0C307C2298D
:10078800A1E1C329D8A49ED7D6B737D0B1EF0CF0D2
:1007980020EE02F0B151D926B251DA22DE50DE1035
:1007A800D8B416D020EE02F0B151D926B251DA22CF
:1007B800DECFB7F0DDCFB8F001D81FD00500FA6E54
:1007C800B751FD6EB851FE6EFF6AFA50200E120046
:1007D800B1C0D9FFB2C0DAFFDECFB7F0DDCFB8F0D5
:1007E800B7C0D9FFB8C0DAFF200EDF6EB1C0D9FF9D
:1007F800B2C0DAFFDE2A000EDD220001D207D8A03F
:10080800D307D229C5E1D329D8B4B1EF0CF0C0D7AA
:10081800B5C0D9FFB6C0DAFFDFCFB7F0020EDE26CB
:10082800DFCFB8F0000EDD22B7C0D9FFB8C0DAFFBD
:10083800DF50D86FD80EC06F000EC16F000EC36FA7
:10084800010EC26FDFD6C00ED61334D00001B351EB
:10085800B76FB451B86FB34BB42BB7C0F6FFB8C07D
:10086800F7FFF86A0F0EF76403D00800F55005D0BB
:10087800F6CFE1FFF7CFE2FFE7500001D86FD8517C
:10088800000AD8B4CEEF0CF0630AD8B4C1D7070A6F
:10089800D8B410D0020AD8B474D60F0AD8B40AD083
:1008A8001A0AD8B472D6060AD8B4CDD70D0AD8B465
:1008B8006AD6C0D7070ED715D8B4ACEF09F0D7A9B8
:1008C80004D0000ED56F060ED46FB5C0D9FFB6C0E0
:1008D800DAFFDFCFB7F0040EDE26DFCFB8F0000E68
:1008E800DD22B7C0D9FFB8C0DAFFDECFCEF0DECF49
:1008F800CFF0DECFD0F0DECFD1F0D1AF15D0CEC063
:1009080017F0CFC018F0D0C019F0D1C01AF0E6EC3B
:100918004DF017C0CEF018C0CFF019C0D0F01AC0F3
:10092800D1F0030E0001D613000EC56F000EC46F80
:10093800CE51CF11D011D111D8B483D0D035D13503
:10094800820FC46FC56BFF0EC523C407D8A0C507A7
:10095800C4C01DF0C5C01EF0000E206E030E1F6E31
:1009680063EC4EF01DC0C4F01EC0C5F0C4C01DF03D
:10097800C5C01EF0000E206E0A0E1F6E0EEC48F069
:100988001DC0C4F01EC0C5F00001C5AF03D0C40728
:10099800D8A0C507C4510008B4EC26F06DC0C6F055
:1009A8006EC0C7F06FC0C8F070C0C9F0C6C025F0EF
:1009B800C7C026F0C8C027F0C9C028F0CEC029F0AB
:1009C800CFC02AF0D0C02BF0D1C02CF022EC2FF0F1
:1009D80025C0C6F026C0C7F027C0C8F028C0C9F097
:1009E800C6C06EF0C7C06FF0C8C070F0C9C071F063
:1009F800000E0001726F000E736F800E746F3F0E51
:100A0800756F99EC40F00001D8B004D0C407D8A0A5
:100A1800C50717D0C6C06EF0C7C06FF0C8C070F069
:100A2800C9C071F0000E726F000E736F200E746FE4
:100A3800410E756F99EC40F00001D8A002D0C44B6C
:100A4800C52BD5BF06D0D55121E10D0ED45DD8B048
:100A58001DD0CEC07AF0CFC07BF0D0C07CF0D1C022
:100A68007DF0D4516AEC32F06DC07EF06EC07FF03C
:100A78006FC080F070C081F0CBEC30F07AC0CEF05F
:100A88007BC0CFF07CC0D0F07DC0D1F00001C5BFE5
:100A980006D0C55122E10A0EC45DD8B01ED0CE5191
:100AA800CF11D011D111D8B462D0CEC0A7F0CFC029
:100AB800A8F0D0C0A9F0D1C0AAF041EC44F00001E0
:100AC800A751A811A911AA11D8B4C5BF50D0C551B2
:100AD80004E1020EC45DD8A04AD0C6C06EF0C7C0FB
:100AE8006FF0C8C070F0C9C071F05F0E726F700E01
:100AF800736F890E746F400E756F99EC40F00001AA
:100B0800D8B002D0F70E01D0F80EC427FF0EC523C7
:100B1800C451B4EC26F06DC0C6F06EC0C7F06FC00B
:100B2800C8F070C0C9F0CEC017F0CFC018F0D0C060
:100B380019F0D1C01AF0C6C01BF0C7C01CF0C8C05D
:100B48001DF0C9C01EF005EC40F017C0CAF018C06F
:100B5800CBF019C0CCF01AC0CDF0000E0001CE6F5A
:100B6800000ECF6F000ED06F000ED16F3CD0CEC0FC
:100B7800A7F0CFC0A8F0D0C0A9F0D1C0AAF041EC2E
:100B880044F0A7C0CAF0A8C0CBF0A9C0CCF0AAC056
:100B9800CDF0CEC08EF0CFC08FF0D0C090F0D1C0D5
:100BA80091F0CAC060F0CBC061F0CCC062F0CDC09B
:100BB80063F0000E24EC3EF060C092F061C093F048
:100BC80062C094F063C095F043EC4CF08EC0CEF058
:100BD8008FC0CFF090C0D0F091C0D1F0000E0001CE
:100BE800C56F000EC46F010ED86F0A0ED819D8B49D
:100BF8001BD0D851040D4E0EF324F66EE90EF420E6
:100C0800F76EF86A000EF8220900F550CA5D09006F
:100C1800F550CB590900F550CC590900F550CD597C
:100C2800D8A002D0D82BE1D7D8C0B7F0B86BB7BFDF
:100C3800B807D451B727D551B823C451B727C551E0
:100C4800B823B751D25FB851D35BD451D511D8B4BA
:100C580003D0D207D8A0D307030ED615B76F000E5E
:100C6800D715B86FB751B811D8B403D0D207D8A0E8
:100C7800D307D6A583D0030ED615B76F000ED715A8
:100C8800B86FB751B811D8B470D020EE02F0B15196
:100C9800D926B251DA22DE50DE10D8B416D020EEB2
:100CA80002F0B151D926B251DA22DECFB7F0DDCF4A
:100CB800B8F001D85AD00500FA6EB751FD6EB85198
:100CC800FE6EFF6AFA502D0E1200B1C0D9FFB2C0F5
:100CD800DAFFDECFB7F0DDCFB8F0B7C0D9FFB8C0C4
:100CE800DAFF2D0EDF6EB1C0D9FFB2C0DAFFDE2AFF
:100CF800000EDD223AD0000120EE02F0B151D926D3
:100D0800B251DA22DE50DE10D8B416D020EE02F04E
:100D1800B151D926B251DA22DECFB7F0DDCFB8F023
:100D280001D81FD00500FA6EB751FD6EB851FE6E9E
:100D3800FF6AFA50300E1200B1C0D9FFB2C0DAFF14
:100D4800DECFB7F0DDCFB8F0B7C0D9FFB8C0DAFF53
:100D5800300EDF6EB1C0D9FFB2C0DAFFDE2A000E56
:100D6800DD220001D207D8A0D3070001D3BFFED0EF
:100D7800D351C1E1D205D8A0F9D0BDD7D6A73AD072
:100D880040D020EE02F0B151D926B251DA22DE501D
:100D9800DE10D8B416D020EE02F0B151D926B251E7
:100DA800DA22DECFB7F0DDCFB8F001D81FD00500CA
:100DB800FA6EB751FD6EB851FE6EFF6AFA50200EFA
:100DC8001200B1C0D9FFB2C0DAFFDECFB7F0DDCF75
:100DD800B8F0B7C0D9FFB8C0DAFF200EDF6EB1C0D7
:100DE800D9FFB2C0DAFFDE2A000EDD220001D207E9
:100DF800D8A0D307D3BF05D0D351C3E1D205D8B00B
:100E0800C0D7030ED615B76F000ED715B86FB751F8
:100E1800B811D8B4ABD020EE02F0B151D926B251F6
:100E2800DA22DE50DE10D8B416D020EE02F0B1512E
:100E3800D926B251DA22DECFB7F0DDCFB8F001D82B
:100E480095D00500FA6EB751FD6EB851FE6EFF6A77
:100E5800FA502D0E1200B1C0D9FFB2C0DAFFDECFB2
:100E6800B7F0DDCFB8F0B7C0D9FFB8C0DAFF2D0EA4
:100E780075D0CAC017F0CBC018F0CCC019F0CDC0DF
:100E88001AF00001D851040D4E0EF324F66EE90E47
:100E9800F420F76EF86A000EF8220900F5CF1BF06F
:100EA8000900F5CF1CF00900F5CF1DF00A00F5CFB9
:100EB8001EF050EC48F017C0C6F018C0C7F019C0B3
:100EC800C8F01AC0C9F0C6C024F0C7C025F0C8C011
:100ED80026F0C9C027F00A0E286E000E296E000EF3
:100EE8002A6E000E2B6E98EC4AF024C0C6F025C07E
:100EF800C7F026C0C8F027C0C9F0000120EE02F0F4
:100F0800B151D926B251DA22DE50DE10D8B417D04A
:100F180020EE02F0B151D926B251DA22DECFB7F075
:100F2800DDCFB8F001D822D00500FA6EB751FD6EBA
:100F3800B851FE6EFF6AFA50C651300F1200000118
:100F4800C651300FB1C0D9FFB2C0DAFFDECFB7F05B
:100F5800DDCFB8F0B7C0D9FFB8C0DAFFDF6EB1C0D7
:100F6800D9FFB2C0DAFFDE2A000EDD220001D80761
:100F7800D829D8B43AD07DD720EE02F0B151D9267D
:100F8800B251DA22DE50DE10D8B416D020EE02F0CC
:100F9800B151D926B251DA22DECFB7F0DDCFB8F0A1
:100FA80001D81FD00500FA6EB751FD6EB851FE6E1C
:100FB800FF6AFA50300E1200B1C0D9FFB2C0DAFF92
:100FC800DECFB7F0DDCFB8F0B7C0D9FFB8C0DAFFD1
:100FD800300EDF6EB1C0D9FFB2C0DAFFDE2A000ED4
:100FE800DD220001C407D8A0C507C5BF05D0C5517B
:100FF800C3E1C405D8B0C0D7D5BF09D0D55104E1E5
:10100800090ED45DD8A003D0080ED86F02D0D4C082
:10101800D8F0D851D45F000ED8BFFF0ED55BD85199
:10102800D8B435D020EE02F0B151D926B251DA2227
:10103800DE50DE10D8B416D020EE02F0B151D92619
:10104800B251DA22DECFB7F0DDCFB8F001D81FD029
:101058000500FA6EB751FD6EB851FE6EFF6AFA5080
:101068002E0E1200B1C0D9FFB2C0DAFFDECFB7F042
:10107800DDCFB8F0B7C0D9FFB8C0DAFF2E0EDF6EEB
:10108800B1C0D9FFB2C0DAFFDE2A000EDD220001AE
:10109800D851B4EC26F06DC0BBF06EC0BCF06FC088
:1010A800BDF070C0BEF0CEC029F0CFC02AF0D0C0CD
:1010B8002BF0D1C02CF0BBC025F0BCC026F0BDC0C1
:1010C80027F0BEC028F022EC2FF025C0A7F026C0DC
:1010D800A8F027C0A9F028C0AAF041EC44F0A7C0A6
:1010E800CAF0A8C0CBF0A9C0CCF0AAC0CDF0A7D058
:1010F800CAC017F0CBC018F0CCC019F0CDC01AF098
:101108000001D851040D4E0EF324F66EE90EF420BA
:10111800F76EF86A000EF8220900F5CF1BF00900F7
:10112800F5CF1CF00900F5CF1DF00A00F5CF1EF031
:1011380050EC48F017C0C6F018C0C7F019C0C8F086
:101148001AC0C9F0C6C024F0C7C025F0C8C026F030
:10115800C9C027F00A0E286E000E296E000E2A6EEE
:10116800000E2B6E98EC4AF024C0C6F025C0C7F0DC
:1011780026C0C8F027C0C9F0000120EE02F0B15126
:10118800D926B251DA22DE50DE10D8B417D020EEBC
:1011980002F0B151D926B251DA22DECFB7F0DDCF55
:1011A800B8F001D822D00500FA6EB751FD6EB851DB
:1011B800FE6EFF6AFA50C651300F12000001C65188
:1011C800300FB1C0D9FFB2C0DAFFDECFB7F0DDCF44
:1011D800B8F0B7C0D9FFB8C0DAFFDF6EB1C0D9FF29
:1011E800B2C0DAFFDE2A000EDD22CAC024F0CBC06E
:1011F80025F0CCC026F0CDC027F00001D851040D51
:101208004E0EF324F66EE90EF420F76EF86A000E1F
:10121800F8220900F5CF28F00900F5CF29F00900D8
:10122800F5CF2AF00A00F5CF2BF098EC4AF024C04D
:10123800CAF025C0CBF026C0CCF027C0CDF0000105
:10124800D807D829D8B43AD053D720EE02F0B151F4
:10125800D926B251DA22DE50DE10D8B416D020EEEC
:1012680002F0B151D926B251DA22DECFB7F0DDCF84
:10127800B8F001D81FD00500FA6EB751FD6EB8510D
:10128800FE6EFF6AFA50300E1200B1C0D9FFB2C02C
:10129800DAFFDECFB7F0DDCFB8F0B7C0D9FFB8C0FE
:1012A800DAFF300EDF6EB1C0D9FFB2C0DAFFDE2A36
:1012B800000EDD220001D407D8A0D507D451D511DE
:1012C800D8A4C3D7D6B7D3BF48D3D35103E1D205E7
:1012D800D8A043D320EE02F0B151D926B251DA2278
:1012E800DE50DE10D8B416D020EE02F0B151D92667
:1012F800B251DA22DECFB7F0DDCFB8F001D81FD077
:101308000500FA6EB751FD6EB851FE6EFF6AFA50CD
:10131800200E1200B1C0D9FFB2C0DAFFDECFB7F09D
:10132800DDCFB8F0B7C0D9FFB8C0DAFF200EDF6E46
:10133800B1C0D9FFB2C0DAFFDE2A000EDD220001FB
:10134800D207D8A0D307D251D311D8B406D3C2D765
:10135800C00ED615B76F000ED715B86FB751B811B4
:10136800D8A426D0B5C0D9FFB6C0DAFFDFCFB7F012
:10137800020EDE26DFCFB8F0000EDD22B7C0D9FF9F
:10138800B8C0DAFFDECFCAF0DDCFCBF0000ECBBF9E
:10139800FF0ECC6FCD6FCDAF25D0030ED613CD1F6A
:1013A800CC1FCB1FCA6D000ECB23CC23CD231AD064
:1013B800B5C0D9FFB6C0DAFFDFCFB7F0020EDE2620
:1013C800DFCFB8F0000EDD22B7C0D9FFB8C0DAFF12
:1013D800DECFB9F0DDCFBAF0B9C0CAF0BAC0CBF0F1
:1013E800CC6BCD6BD451D511D8A44BD0CA51CB11ED
:1013F800CC11CD11D8A445D0D44BD52B42D0010E59
:10140800D86F0A0ED819D8B447D0D851040D4E0E4B
:10141800F324F66EE90EF420F76EF86A000EF8224F
:101428000900F550CA5D0900F550CB590900F5507F
:10143800CC590900F550CD59D8A02ED0D82BE1D7DA
:10144800010ED86F080ED819D8B426D0D851040D7B
:10145800760EF324F66EE90EF420F76EF86A000EA5
:10146800F8220900F550CA5D0900F550CB5909006A
:10147800F550CC590900F550CD59D8A00DD0D82B2E
:10148800E1D7D651C00B000AD8B4B9D7800AD8B46E
:10149800D7D7400AD8B4B3D7800ED8BF7F0EB76F5E
:1014A800D451D85DD551800AB759D8B003D0D4C02B
:1014B800D8F010D0D551800AB76FD851D45D800EBE
:1014C800D8BF7F0EB759D8B005D0D851D46FD56BD7
:1014D800D4BFD507D251D311D8B40DD0030ED61529
:1014E800B76F000ED715B86FB751B811D8B403D07D
:1014F800D207D8A0D307D7AD13D0D251D45DD551D8
:10150800800AB76FD351800AB759D8B005D0D451E3
:10151800D25FD551D35B04D0000ED36F000ED26FCB
:10152800800ED8BF7F0EB76FD251D85DD351800AD5
:10153800B759D8B007D0D851D25F000ED8BFFF0E28
:10154800D35B04D0000ED36F000ED26FD6A57ED029
:10155800030ED615B76F000ED715B86FB751B8116F
:10156800D8B435D020EE02F0B151D926B251DA22E2
:10157800DE50DE10D8B416D020EE02F0B151D926D4
:10158800B251DA22DECFB7F0DDCFB8F001D81FD0E4
:101598000500FA6EB751FD6EB851FE6EFF6AFA503B
:1015A8002D0E1200B1C0D9FFB2C0DAFFDECFB7F0FE
:1015B800DDCFB8F0B7C0D9FFB8C0DAFF2D0EDF6EA7
:1015C800B1C0D9FFB2C0DAFFDE2A000EDD22000169
:1015D800D251D311D8B473D120EE02F0B151D9262B
:1015E800B251DA22DE50DE10D8B416D020EE02F066
:1015F800B151D926B251DA22DECFB7F0DDCFB8F03B
:1016080001D81FD00500FA6EB751FD6EB851FE6EB5
:10161800FF6AFA50300E1200B1C0D9FFB2C0DAFF2B
:10162800DECFB7F0DDCFB8F0B7C0D9FFB8C0DAFF6A
:10163800300EDF6EB1C0D9FFB2C0DAFFDE2A000E6D
:10164800DD220001D207D8A0D307C2D7D251D311C7
:10165800D8A4D6B73DD020EE02F0B151D926B25168
:10166800DA22DE50DE10D8B416D020EE02F0B151E6
:10167800D926B251DA22DECFB7F0DDCFB8F001D8E3
:101688001FD00500FA6EB751FD6EB851FE6EFF6AA5
:10169800FA50200E1200B1C0D9FFB2C0DAFFDECF77
:1016A800B7F0DDCFB8F0B7C0D9FFB8C0DAFF200E69
:1016B800DF6EB1C0D9FFB2C0DAFFDE2A000EDD222C
:1016C8000001D207D8A0D307D251D311D8A4C3D7C9
:1016D800030ED615B76F000ED715B86FB751B811EE
:1016E800D8B4EDD020EE02F0B151D926B251DA22A9
:1016F800DE50DE10D8B416D020EE02F0B151D92653
:10170800B251DA22DECFB7F0DDCFB8F001D8D7D0AA
:101718000500FA6EB751FD6EB851FE6EFF6AFA50B9
:101728002D0E1200B1C0D9FFB2C0DAFFDECFB7F07C
:10173800DDCFB8F0B7C0D9FFB8C0DAFF2D0EDF6E25
:10174800B7D0D4C0B7F0D5C0B8F00001D890B7373B
:10175800B837D890B737B8374E0EB725F66EE90EBA
:10176800B821F76EF86A000EF8220900F5CF1BF0D1
:101778000900F5CF1CF00900F5CF1DF00A00F5CFE0
:101788001EF0CAC017F0CBC018F0CCC019F0CDC0FD
:101798001AF050EC48F017C024F018C025F019C012
:1017A80026F01AC027F00A0E286E000E296E000EC9
:1017B8002A6E000E2B6E98EC4AF02450300F000170
:1017C800D86F48D0CAC017F0CBC018F0CCC019F0F9
:1017D800CDC01AF0D4C0B7F0D5C0B8F0D890B7379C
:1017E800B837D890B737B837760EB725F66EE90E02
:1017F800B821F76EF86A000EF8220900F5CF1BF041
:101808000900F5CF1CF00900F5CF1DF00A00F5CF4F
:101818001EF050EC48F017500F0B0001BF6FBF517E
:10182800010DE60EF324F66EFA0EF420F76EF86A50
:10183800000EF8220800F5CFD8F00CD00001D651E0
:10184800C00B000AD8B47DD7800AD8B4BBD7400AE9
:10185800D8B477D720EE02F0B151D926B251DA22A6
:10186800DE50DE10D8B416D020EE02F0B151D926E1
:10187800B251DA22DECFB7F0DDCFB8F001D81FD0F1
:101888000500FA6EB751FD6EB851FE6EFF6AFA5048
:10189800D8511200B1C0D9FFB2C0DAFFDECFB7F01D
:1018A800DDCFB8F0B7C0D9FFB8C0DAFFD8C0DFFFC6
:1018B800B1C0D9FFB2C0DAFFDE2A000EDD22000176
:1018C800D407D8A0D507D429B9E1D529D8A4B6D743
:1018D800D6B7D3BF42D0D35103E1D205D8A03DD06B
:1018E80020EE02F0B151D926B251DA22DE50DE10D4
:1018F800D8B416D020EE02F0B151D926B251DA226E
:10190800DECFB7F0DDCFB8F001D81FD00500FA6EF2
:10191800B751FD6EB851FE6EFF6AFA50200E1200E4
:10192800B1C0D9FFB2C0DAFFDECFB7F0DDCFB8F073
:10193800B7C0D9FFB8C0DAFF200EDF6EB1C0D9FF3B
:10194800B2C0DAFFDE2A000EDD220001D207D8A0DD
:10195800D307D251D311D8A4C3D70001B351B76F5D
:10196800B451B86FB34BB42BB7C0F6FFB8C0F7FF8C
:10197800F86A0F0EF76403D00800F55005D0F6CFCB
:10198800E1FFF7CFE2FFE7500001D86FD851D8A4A4
:10199800A1EF01F0000EB26F000EB16F1200000E41
:1019A8000201EC6F050EEB6F000EE76F000EE36FA0
:1019B800000EEA6F000EE96F000EE46F010EE26F91
:1019C80022EE00F012EED6F00B0EDBCFE3FFE806B6
:1019D800FCE2B0EC44F093EC3AF03FC01DF040C09C
:1019E8001EF0000E206E0A0E1F6E63EC4EF01DC036
:1019F80041F11EC042F14BEC49F0B4EC4DF0D082FD
:101A08003750D8A4CEEC3EF001015E51D8A4F1ECD9
:101A180015F001015D51D8B4ACA201D08A9A90ECBE
:101A280046F0A30E946E00F000F08250210B0201E4
:101A3800F36FF339E8461F0B0101F76F0201F35109
:101A4800F325020B0101F711F76F8150010BF71114
:101A5800F76F820E946E070EF719D8A404D0F651CA
:101A6800F719D8B403D0F751DFEC23F0010E0101C8
:101A780058651DD0140E58611AD0880E2325E86FBA
:101A8800130E2421E96F000E2521EA6F000E26218E
:101A9800EB6F3350E85D3450E9593550EA59365008
:101AA800EB59D8B004D05751D8B4CDEC43F081B439
:101AB80039D00201E42BE4050101E86F050EE86561
:101AC80034D039513A11D8A428D04450D8B414D0BD
:101AD8004F51D8B405D0000E4F6F010E486E02D09A
:101AE800010E4F6F6B0E9D6FFB0E9E6F4FC19FF1E6
:101AF800A06B49EC4DF00BD0030E4818D8A407D0C2
:101B0800010E486E3750D8A402D00F0E386E430429
:101B1800D8B43AA802D081A23A98000E01013A6FCF
:101B2800C80E396F000E0201E46F4304D8B481A2D5
:101B380005D0010E486E3A88000E396E050E481819
:101B4800D8A424D03650351006E1E90E335C030ED4
:101B58003458D8A01BD0000E0001746F010E736FAB
:101B6800000E766F000E756F455012EC4EF0340E75
:101B780001019D6FF80E9E6F49EC4DF0000E336E1B
:101B8800000E346E000E356E000E366E4804D8A472
:101B9800B0D0000EBD6E82848198000E01012B6FBB
:101BA8002CEC4AF00201ED6FED05D8A404D03A9A66
:101BB8003A90000E386E020EED19D8A49AD0020E93
:101BC80001016419D8A48FD04F51D8A403D0445030
:101BD800D8A489D00201EC2BEC050101E86F190E9D
:101BE800E86587D00DEC3CF0E806D8B43A86385062
:101BF800D8A47FD03A50D8A47CD0000E0201EA6F56
:101C08007EEC47F08E0E01019D6FF90E9E6F4BC161
:101C18009FF14CC1A0F13DC0A1F13EC0A2F149EC39
:101C28004DF03D5001014B5D3E504C59D8B00BD0A2
:101C38004BC11DF04CC11EF0000E206E0A0E1F6E27
:101C480063EC4EF00AD03DC01DF03EC01EF0000E01
:101C5800206E0A0E1F6E63EC4EF01DC049F11EC0C7
:101C68004AF1010E456422D0000E0001746F020E85
:101C7800736F49C175F04AC176F0455012EC4EF0C9
:101C8800C90E01019D6FF80E9E6F49C19FF14AC1AF
:101C9800A0F149EC4DF0060E486E000E336E000EB2
:101CA800346E000E356E000E366E23D04BC11DF01B
:101CB8004CC11EF0000E206E0A0E1F6E63EC4EF033
:101CC8001DC00FF11EC010F1010E01012B6F020E95
:101CD800486E3C0E5A6F8086510E9D6FFB0E9E6FAC
:101CE80049EC4DF006D0020E0101646F000E0201AE
:101CF800EC6F060E4818D8A40BD03650351006E104
:101D0800E90E335C030E3458D8A002D0010E486E99
:101D1800020E4818D8A4C1D0070EBC64A8D0180E6B
:101D2800BC60A5D02CEC4AF00201ED6FED05D8A4FB
:101D38001FD001016405D8A419D00201EC2BEC05D1
:101D48000101E86F190EE86592D0010E486E370E52
:101D58009D6FFB0E9E6F49EC4DF0010E456487D0D8
:101D6800050E486EE90E336E030E3BD0010E72D09D
:101D7800030EED19D8A474D0030E01016419D8A478
:101D880068D00201EA05D8A464D0EC2BEC05010167
:101D9800E86F190EE8656BD03A50D8A468D038506F
:101DA800D8A465D0010E456422D0000E0001746FDE
:101DB800030E736F49C175F04AC176F0455012ECB5
:101DC8004EF0EC0E01019D6FF80E9E6F49C19FF118
:101DD8004AC1A0F149EC4DF0070E486E000E336E73
:101DE800000E346E000E356E000E366E40D049C1BE
:101DF8000FF14AC110F10DEC3CF00009D8A427D02E
:101E0800020E01012B6F000E866F000E856F010E0A
:101E180089EC20F08188000E0201EA6F030E486EFB
:101E2800000E396E000E336E000E346E000E356EE5
:101E3800000E366E01015851D8B4F6EC1BF05E0E58
:101E480001019D6FFB0E9E6F49EC4DF010D03A8654
:101E58000ED0030E0101646F000E0201EC6F07D073
:101E6800020E01016419D8B402D0000E646FE60EA8
:101E7800BC6413D0F10EBC64FDD7F10EBC6401D074
:101E8800BC502CEC4AF00201ED6F040EED19D8A4F9
:101E980002D0010E01D0000EEA6F070E4818D8A430
:101EA80015D03650351006E1E90E335C030E345870
:101EB800D8A00CD0000E0201EA6F020E486E970EF1
:101EC80001019D6FFA0E9E6F49EC4DF0030E481804
:101ED800D8A476D0070EBC6473D0180EBC6070D03E
:101EE8002CEC4AF00201ED6FED05D8B403D0ED51AA
:101EF800D8A42AD001016405D8A424D00201EC2B6F
:101F0800EC050101E86F190EE8655AD0010E486E1C
:101F1800440E9D6FFB0E9E6F49EC4DF04BEC49F063
:101F2800010E45640BD0050E486EE90E336E030EA4
:101F3800346E000E356E000E366E42D0000E010172
:101F48002B6F3ED0010E34D0020EED19D8A435D037
:101F5800020E01016419D8A429D00201EC2BEC056A
:101F68000101E86F190EE8652BD081984BEC49F018
:101F7800000E0201EA6F020E486E010E45640BD096
:101F8800080E486EE90E336E030E346E000E356E81
:101F9800000E366E03D0000E01012B6F9F0E01015B
:101FA8009D6FFA0E9E6F49EC4DF00AD0020E0101AA
:101FB800646F000E0201EC6F03D0000E0101646F24
:101FC800080E4818D8A424D03650351006E1E90E7A
:101FD800335C030E3458D8A01BD0000E0001746F78
:101FE800040E736F000E766F000E756F455012EC7D
:101FF8004EF05A0E01019D6FF80E9E6F49EC4DF0A0
:10200800000E336E000E346E000E356E000E366E06
:10201800ABA202D0AB98AB8871A202D0719871883C
:10202800D6CFF3F23C0ED764E9D0000ED76E000E7F
:10203800D66EFDEC4AF001014E51D8B41CD0375190
:10204800E86F3851E96F374B382B93C11DF094C1B5
:102058001EF0000E206E3C0E1F6E63EC4EF0010168
:10206800E8511D5CE9511E58D8B009D0010E486EE0
:10207800000E4E6F04D0000E386F000E376F3850C8
:10208800D8A43806370E596102D03AB43A943AC007
:10209800E8F1210EE817D8B40AD0020E456007D03F
:1020A8000DEC3CF00009D8A402D03A903A9A02010B
:1020B800EB51D8B43AB21DD03A82010E486EAC0E3C
:1020C80001019D6FF90E9E6F49EC4DF0000E020163
:1020D800F36F030EF36501D00FD0F351010D2B0EF2
:1020E800F324D96E010EF420DA6E000EDF6EF32BA6
:1020F800F0D7EB51D8A4EB07400E010159651CD06D
:102108003A84010E486E3A0E9D6FFA0E9E6F49ECA6
:102118004DF0000E0201F36F030EF36501D00CD0F1
:10212800F351010D2B0EF324D96E010EF420DA6E53
:10213800000EDF6EF32BF0D73AC0E8F1290E01014B
:10214800E817D8B41FD03A96020E4718D8A40BD077
:102158003850D8A406D0CA0E9D6FF90E9E6F49EC70
:102168004DF03A8A0BD03850D8A407D0300E010170
:102178009D6FF90E9E6F49EC4DF03A80010E486E46
:102188003C0E386EF6EC1BF04750D8B40BD0020169
:10219800E207E229D8A406D0010E0101506F010E12
:1021A8000201E26F4750D8A429D0000E0101486F00
:1021B800000E476F0201E951D8A4E907020E4560F5
:1021C8001DD0E951D8A41AD0000E89EC20F045049E
:1021D800D8B40BEC4FF0020E4818D8B404D0030E54
:1021E8004818D8A406D085C1B1F086C1B2F042EC37
:1021F80042F0020E0201E96F0A0EEB6F0101505125
:10220800D8B41BD0020E456018D00CD09BC177F013
:102218004250CBEC4AF00ED099C177F04150CBEC4C
:102228004AF008D001015051010AD8B4EFD7030A87
:10223800D8B4F2D7000E0101506F6151D8B4CEEF77
:1022480015F0030E2725E86F000E2821E96F000E10
:102258002921EA6F000E2A21EB6F3350E85D3450D4
:10226800E9593550EA593650EB59D8B0CEEF15F048
:10227800700E176E020E186EA20E196E020E1A6EEE
:1022880061C11BF01C6A8AEC4CF061C15FF1000E61
:102298000101616F700E0001FA6F020EFB6F5FC1E2
:1022A800FCF046EC2DF0030E01010B19D8A498D0D0
:1022B8000A0E0201EB6F8ED04250D8B421D0010132
:1022C8009B510019D8A41CD008C1A7F009C1A8F0D7
:1022D80042C0A9F0790E0001AA6F010EAB6FA6ECFF
:1022E80039F04150D8B408D0020E0101506F010EE8
:1022F8000201E36FCEEF15F027EC2BF0CEEF15F0CF
:102308000201E351D8B4CEEF15F04150D8B4CEEF66
:1023180015F0010199510019D8A4CEEF15F008C1A4
:10232800A7F009C1A8F041C0A9F0D60E0001AA6F14
:10233800020EAB6FA6EC39F0000E0201F36F020E2D
:10234800F36501D042D0F351040DD60EF324D96EB3
:10235800020EF420DA6EDECF17F0DECF18F0DECFF3
:1023680019F0DECF1AF0E6EC4DF017C07AF018C07D
:102378007BF019C07CF01AC07DF00201F351040D06
:10238800790EF324D96E010EF420DA6EDECF7EF0DA
:10239800DECF7FF0DECF80F0DECF81F0CBEC30F007
:1023A8000201F351040D790EF324D96E010EF420C5
:1023B800DA6E00017AC0DEFF7BC0DEFF7CC0DEFF84
:1023C8007DC0DEFF0201F32BBAD7000EE36F27ECC6
:1023D8002BF0E0D301010151040AD8B46DD7DAD348
:1023E800020E0B19D8A458D10A0E0201EB6F48D17E
:1023F800455001010019D8A4CDD3035104E1A00E22
:10240800025DD8A015D0035113E1A30E025DD8B028
:102418000FD0000E00016D6FA00E6C6F000E6F6F75
:10242800010E6E6F000E716F030E706FE0EC46F0D8
:102438000101035104E1C00E025DD8A016D003517A
:1024480014E1CA0E025DD8B010D0000E00016D6F05
:10245800C00E6C6F000E6F6F020E6E6F000E716F04
:10246800090E706F2FEC47F095D30101035104E179
:10247800E00E025DD8A08ED3035103E1E80E025DA1
:10248800D8B088D3000E00016D6FE00E6C6F000E9F
:102498006F6F0B0E6E6F000E716F090E706F2FEC61
:1024A80047F078D3010E010100651FD0050E0061C9
:1024B8001CD002510311D8B408D0035106E1050E0F
:1024C800025DD8B002D0030E0ED00101035104E121
:1024D800810E025DD8A009D0035107E1850E025D87
:1024E800D8B003D0020E0201E76F01010051D8B441
:1024F80004D045500019D8A44DD3035104E1C00EAF
:10250800025DD8A011D003510FE1CA0E025DD8B008
:102518000BD0000EC96FC00EC86F000ECB6F020E35
:10252800CA6FF5EC49F036D30101035104E1E00E1E
:10253800025DD8A02FD3035103E1E80E025DD8B0A5
:1025480029D3000EC96FE00EC86F000ECB6F0B0EBB
:10255800CA6FF5EC49F01ED301010051D8B404D07C
:1025680045500019D8A416D302050311D8A450D099
:10257800010E45644DD0FE0EE86FFF0EE96F455021
:10258800EA6FEB6BD890EA37EB37E851EA27E95165
:10259800EB23EA510825D96EEB510921DA6EDF5099
:1025A800EC6FEC51EE6FED6BFF0EEF6FFF0EF06FFF
:1025B8004550F16FF26BD890F137F237EF51F127B0
:1025C800F051F223F1510825D96EF2510921DA6E42
:1025D800DF50F36FF351ED110201E56F0101EE5188
:1025E8000201E66F710E01019D6FF60E9E6F00C12C
:1025F8009FF1A06B02C1A1F103C1A2F1E5C2A3F151
:10260800E6C2A4F149EC4DF0020E0201E76FC2D216
:102618000101035104E1C00E025DD8A015D0035199
:1026280013E1CA0E025DD8B00FD0000EC96FC00EFC
:10263800C86F000ECB6F020ECA6F000ECD6F090E69
:10264800CC6FB9EC41F0A6D20101035104E1E00ED0
:10265800025DD8A09FD2035103E1E80E025DD8B015
:1026680099D2000EC96FE00EC86F000ECB6F0B0E2B
:10267800CA6F000ECD6F090ECC6FB9EC41F08AD24B
:1026880001010151040AD8B4B3D6020AD8B40AD752
:10269800160AD8B461D77ED24204D8A465D0700E89
:1026A800176E020E186E5FC119F0CCEC47F017C018
:1026B800D4F218C0D5F20A0E01015F656BD2500E34
:1026C80002017219D8A466D27305D8A463D2470E42
:1026D800D41903E10F0ED519D8A45CD2060EE86F01
:1026E800030E756502D0030E756F000EF36F35D0BB
:1026F800EE0E176E020E186E700E196E020E1A6E1E
:10270800E8C21BF0000E1C6E20EC35F0EEC225F07E
:10271800EFC226F0F0C227F0F1C228F08DC129F0EF
:102728008EC12AF08FC12BF090C12CF022EC2FF033
:102738000201F351040D790EF324D96E010EF42031
:10274800DA6E25C0DEFF26C0DEFF27C0DEFF28C008
:10275800DEFFE851040FE86FF32B7551F35DD8A045
:10276800C7D727EC2BF016D2280E01019D6FFB0E60
:102778009E6F49EC4DF00ED201010051D8A442D011
:10278800010E45643FD02CD0E5C285F1E6C286F142
:10279800020E4818D8B404D0030E4818D8A406D09E
:1027A80085C1B1F086C1B2F042EC42F00F0E0101D2
:1027B8009D6FF90E9E6F85C19FF186C1A0F149EC0E
:1027C8004DF020D0010E486E06C13AF03C0E386E2E
:1027D800A50E01019D6FF80E9E6F49EC4DF012D0C9
:1027E80021EE02F0DECFE8F1DDCFE9F10101E95198
:1027F800000AD8A407D0E851010AD8B4C5D7030AFB
:10280800D8B4E0D7455001010019D8B470D0CAD166
:10281800010E486EF70E9D6FFA0E9E6F49EC4DF053
:10282800C1D1010106510711D8A408D03A862A0E51
:102838009D6FFC0E9E6F49EC4DF0B4D106C1B1F00E
:1028480007C1B2F042EC42F0020E486EE50E0101FB
:102858009D6FF70E9E6F06C19FF107C1A0F149EC6D
:102868004DF0A0D1010106510711D8A408D03A862D
:10287800320E9D6FFC0E9E6F49EC4DF093D106C150
:10288800B1F007C1B2F042EC42F08188000E0201BB
:10289800EA6F030E486E000E396E000E336E000E9E
:1028A800346E000E356E000E366E01015851D8B4E4
:1028B800F6EC1BF0800E01019D6FF80E9E6F06C1AD
:1028C8009FF107C1A0F149EC4DF05E0E01019D6F2B
:1028D800FB0E9E6F49EC4DF065D1020E486E0E0E50
:1028E80001019D6FF80E9E6F49EC4DF05BD121EE12
:1028F80002F0DECFE8F1DDCFE9F10101E951000A8C
:10290800D8A450D1E851810AD8B482D7030AD8B4E0
:1029180088D7010AD8B4A6D7070AD8B4DED742D1D7
:102928004504D8A43FD1010100050201F26F19D175
:102938000201F251010D2B0EF324D96E010EF42081
:10294800DA6E000EDF6E000E89EC20F0810E0101B8
:102958009D6FFA0E9E6FF2C29FF1A06B49EC4DF08D
:10296800000E0001746F810E736F000E766F000EFB
:10297800756F0101005112EC4EF014D10DEC3CF0D2
:102988000009D8A42FD00201F251010D2B0EF32417
:10299800D96E010EF420DA6E010EDF6EF251020DCF
:1029A8000F0EF324D96E010EF420DA6E06C1DEFF95
:1029B80007C1DDFF3BC01DF03CC01EF0000E206EBD
:1029C8000A0E1F6E63EC4EF00201F251020D850EE5
:1029D800F324D96E010EF420DA6E1DC0DEFF1EC08E
:1029E800DDFF0DD00201F251020D850EF324D96EE0
:1029F800010EF420DA6E000EDE6E000EDD6E020EA1
:102A080001019D6FFA0E9E6FF2C29FF1A06B06C185
:102A1800A1F107C1A2F149EC4DF0000E0001746F5D
:102A2800820E736F0201F251020D850EF324D96EE6
:102A3800010EF420DA6EDECF75F0DDCF76F00101FD
:102A4800005112EC4EF0AED00DEC3CF00009D8A4C9
:102A580027D00201F251010D2B0EF324D96E010E7D
:102A6800F420DA6E020EDF6EF251020D0F0EF3241F
:102A7800D96E010EF420DA6E06C1DEFF07C1DDFF54
:102A8800F251020D850EF324D96E010EF420DA6E90
:102A9800000EDE6E000EDD6E010E89EC20F00DD00A
:102AA8000201F251020D850EF324D96E010EF420B5
:102AB800DA6E000EDE6E000EDD6EE60E01019D6F11
:102AC800F90E9E6FF2C29FF1A06B0201F251020D46
:102AD800850EF324D96E010EF420DA6EDECFA1F153
:102AE800DDCFA2F149EC4DF0000E0001746F830EAA
:102AF800736F0201F251020D850EF324D96E010E97
:102B0800F420DA6EDECF75F0DDCF76F001010051EA
:102B180012EC4EF047D00201F251010D2B0EF324B6
:102B2800D96E010EF420DA6E000EDF6E000E89EC0D
:102B380020F01E0E01019D6FFA0E9E6FF2C29FF1EA
:102B4800A06B49EC4DF0000E0001746F840E736F9A
:102B5800000E766F000E756F0101005112EC4EF0F9
:102B680021D021EE02F0DECFE8F1DDCFE9F101015D
:102B7800E951000AD8A416D0E851010AD8B4D8D629
:102B8800030AD8B4FBD6010AD8B45ED7070AD8B46A
:102B9800C2D708D00201E751020AD8B4EDD5010A1C
:102BA800D8B4BED63AA205D00A0E0201EB19D8B4A1
:102BB8003A923AC0E8F1210E0101E817D8B408D0DA
:102BC8003850D8A405D0010E456402D03A903A9AFC
:102BD800000E0201E76F04EF0DF0AFEC38F00101D1
:102BE800E26FA90E9D6FF90E9E6F49EC4DF0010141
:102BF8005B51D8A445D0000EE76F29D03E0E176E62
:102C0800020E186EE751010D670EF324D96E010EFE
:102C1800F420DA6EDF50C86FC851480D960EF324C1
:102C2800196EE90EF4201A6EFAEC4BF017501810D2
:102C3800D8A40BD00101E751010D670EF324D96E1A
:102C4800010EF420DA6EDF505B6F0101E72BFF0EF7
:102C5800C86FFF0EC96FE251CA6FCB6BC851CA2744
:102C6800C951CB23E751CC6FCD6BCA51CC5DCD5147
:102C7800800ACE6FCB51800ACE59D8B072D2BED757
:102C880002013E51D8A445D2000E01015B6F69D202
:102C98003E0E0001B36F020EB46F3CEC4EF0B3C0B1
:102CA800E3F1B4C0E4F1B5C0E5F1B6C0E6F1E3C1C3
:102CB8006EF0E4C16FF0E5C170F0E6C171F0000E8E
:102CC8000001726F000E736FC00E746F400E756F47
:102CD80099EC40F00001D8A015D0000E6E6F000EE0
:102CE8006F6FA00E706F420E716FE3C172F0E4C196
:102CF80073F0E5C174F0E6C175F099EC40F000019D
:102D0800D8B008D08E0E01019D6FF70E9E6F49EC6A
:102D18004DF020D279C18EF07AC18FF07BC190F04E
:102D28007CC191F08DC192F08EC193F08FC194F067
:102D380090C195F0C5EC33F08EC0CFF18FC0D0F1C3
:102D480090C0D1F191C0D2F1000E296E000E2A6E0A
:102D5800200E2B6E410E2C6EE3C125F0E4C126F047
:102D6800E5C127F0E6C128F022EC2FF025C08EF04F
:102D780026C08FF027C090F028C091F0CFC192F004
:102D8800D0C193F0D1C194F0D2C195F0C5EC33F025
:102D98008EC08DF18FC08EF190C08FF191C090F1EF
:102DA8009CEC37F0D7D13E0E176E020E186EB10E9E
:102DB800196EFB0E1A6EFAEC4BF017501810D8A4C7
:102DC80005D0020E476E9CEC37F0C4D13E0E176E4C
:102DD800020E186EE30E196EFC0E1A6EFAEC4BF02A
:102DE80017501810D8A405D0010E476E9CEC37F088
:102DF800B1D13E0E176E020E186E9E0E196EFC0EA5
:102E08001A6EFAEC4BF017501810D8A4A3D1000E84
:102E1800476E9CEC37F0000E3A6E9CD13E0E176E52
:102E2800020E186E090E196EFC0E1A6EFAEC4BF0B3
:102E380017501810D8A405D0010E466E9CEC37F038
:102E480089D13E0E176E020E186EDD0E196EFC0E3D
:102E58001A6EFAEC4BF017501810D8A405D0020ED1
:102E6800466E9CEC37F076D13E0E176E020E186E49
:102E78003A0E196EFC0E1A6EFAEC4BF01750181039
:102E8800D8A468D1000E466E9CEC37F063D13E0E94
:102E9800176E020E186ED70E196EFC0E1A6EFAEC2B
:102EA8004BF017501810D8A406D0010E01019C6FE2
:102EB8009CEC37F04FD13E0E176E020E186EAC0E1A
:102EC800196EFC0E1A6EFAEC4BF017501810D8A4B5
:102ED80041D1000E01019C6F9CEC37F03BD13E0EB6
:102EE800176E020E186E3A0E196EFC0E1A6EFAEC78
:102EF8004BF017501810D8A405D0000E456E9CEC66
:102F080037F028D13E0E176E020E186EA50E196EF8
:102F1800FC0E1A6EFAEC4BF017501810D8A405D016
:102F2800010E456E9CEC37F015D13E0E176E020E61
:102F3800186E740E196EFC0E1A6EFAEC4BF01750E0
:102F48001810D8A405D0020E456E9CEC37F002D1BB
:102F58003E0E176E020E186E7B0E196EFC0E1A6E60
:102F6800FAEC4BF017501810D8A405D0030E456E94
:102F78009CEC37F0EFD03E0E176E020E186E820EE4
:102F8800196EFC0E1A6EFAEC4BF017501810D8A4F4
:102F9800E1D0040E456E9CEC37F0DCD03E0E176E87
:102FA800020E186E3A0E196EFC0E1A6EFAEC4BF001
:102FB80017501810D8A405D0000E446E9CEC37F0BA
:102FC800C9D03E0E176E020E186E970E196EFC0EC3
:102FD8001A6EFAEC4BF017501810D8A4BBD0010E9B
:102FE800446E9CEC37F0B6D03E0E176E020E186E8B
:102FF8003A0E196EFC0E1A6EFAEC4BF017501810B8
:10300800D8A405D0000E436E9CEC37F0A3D03E0E3A
:10301800176E020E186E900E196EFC0E1A6EFAECF0
:103028004BF017501810D8A495D0010E436E9CECA5
:1030380037F090D0000E0101E76F040EE76501D06C
:1030480089D03E0E176E020E186EE751110D7E0ED6
:10305800F324196EEF0EF4201A6EFAEC4BF01750A9
:103068001810D8A40AD0E7C1FAF00001FB6B010ED2
:10307800FC6F01015B5174EC3DF00101E72BDDD7DA
:103088003E0E176E020E186EEE0E196EFC0E1A6EBC
:10309800FAEC4BF017501810D8A406D0000E010116
:1030A8009A6F9CEC37F056D03E0E176E020E186ED3
:1030B800E90E196EFC0E1A6EFAEC4BF01750181048
:1030C800D8A448D0010E01019A6F9CEC37F042D089
:1030D8003E0E236E020E246E1CEC45F023C0D3F185
:1030E80024C0D4F1D3C1FAF0D4C1FBF0010E000121
:1030F800FC6F01015B5174EC3DF00101DD6FDD51A6
:10310800D8A428D06F0E9D6FF90E9E6F49EC4DF034
:1031180021D001015B51020AD8B4B9D6010AD8B44A
:10312800DED6050AD8B47AD60F0AD8B437D7030A38
:10313800D8B45AD7060AD8B436D6020AD8B4A8D50D
:10314800010AD8B477D71E0AD8B49AD7030AD8B4D4
:1031580071D7BED7000E01015B6FAFEC38F00101EB
:10316800E26F0E0E5B65FDD2D40E9D6FFA0E9E6F58
:103178005B51480D100EF326000EF422960EF32430
:103188009F6FE90EF420A06F5B5163EC36F0E5C049
:10319800A1F1E6C0A2F149EC4DF0E3D28A0E01019B
:1031A8009D6FF20E9E6F49EC4DF0CE0E01019D6FA2
:1031B800FB0E9E6F49EC4DF0090E01019D6FF60E56
:1031C8009E6F49EC4DF0500E01019D6FF90E9E6FF8
:1031D80059C19FF1A06B49EC4DF0D70E01019D6FCD
:1031E800F20E9E6F49EC4DF0000E0101E76F21D100
:1031F800080E9D6FFB0E9E6FE751010D670EF324BD
:10320800D96E010EF420DA6EDF50C86FC851480D30
:10321800960EF3249F6FE90EF420A06FE751010D7D
:10322800670EF324D96E010EF420DA6EDF50C96FF1
:10323800C951480D100EF326000EF422960EF32401
:10324800A16FE90EF420A26F49EC4DF00101E7519E
:10325800010D670EF324D96E010EF420DA6E0E0EFE
:10326800DE18D8A4CBD079C1A7F07AC1A8F07BC169
:10327800A9F07CC1AAF041EC44F0A7C0DEF1A8C0D7
:10328800DFF1000E296E000E2A6E200E2B6E410E05
:103298002C6E79C125F07AC126F07BC127F07CC15C
:1032A80028F022EC2FF025C0A7F026C0A8F027C0F0
:1032B800A9F028C0AAF041EC44F0A7C0B1F0A8C01A
:1032C800B2F0000E0001B46F0A0EB36FCEEC4CF0F2
:1032D800B1C0E0F1B2C0E1F17DC1A7F07EC1A8F0B4
:1032E8007FC1A9F080C1AAF041EC44F0A7C0D5F194
:1032F800A8C0D6F1000E296E000E2A6E200E2B6E85
:10330800410E2C6E7DC125F07EC126F07FC127F0CD
:1033180080C128F022EC2FF025C0A7F026C0A8F025
:1033280027C0A9F028C0AAF041EC44F0A7C0B1F02A
:10333800A8C0B2F0000E0001B46F0A0EB36FCEEC55
:103348004CF0B1C0D7F1B2C0D8F181C1A7F082C1A9
:10335800A8F083C1A9F084C1AAF041EC44F0A7C049
:10336800D9F1A8C0DAF1000E296E000E2A6E200EDF
:103378002B6E410E2C6E81C125F082C126F083C1CF
:1033880027F084C128F022EC2FF025C0A7F026C032
:10339800A8F027C0A9F028C0AAF041EC44F0A7C0C3
:1033A800B1F0A8C0B2F0000E0001B46F0A0EB36FFE
:1033B800CEEC4CF0B1C0DBF1B2C0DCF1BA0E0101C9
:1033C8009D6FF70E9E6FDEC19FF1DFC1A0F1E0C1D6
:1033D800A1F1E1C1A2F1D5C1A3F1D6C1A4F1D7C130
:1033E800A5F1D8C1A6F1D9C1A7F1DAC1A8F1DBC10D
:1033F800A9F1DCC1AAF149EC4DF012D00101E75165
:10340800010D670EF324D96E010EF420DA6EDF5039
:1034180063EC36F0E5C09DF1E6C09EF149EC4DF055
:10342800A90E01019D6FF90E9E6F49EC4DF0010147
:10343800E72BFF0EC86FFF0EC96FE251CA6FCB6B47
:10344800C851CA27C951CB23E751CC6FCD6BCA519C
:10345800CC5DCD51800ACE6FCB51800ACE59D8A011
:10346800C7D6F90E9D6FFC0E9E6F49EC4DF0B4D196
:10347800EF0E01019D6FF40E9E6F5B5163EC36F009
:10348800E5C09FF1E6C0A0F149EC4DF0A5D1B20E20
:1034980001019D6FF40E9E6F5B5163EC36F0E5C041
:1034A8009FF1E6C0A0F149EC4DF096D19A0E0101CA
:1034B8009D6FF10E9E6F95C19FF196C1A0F149ECE9
:1034C8004DF08AD1670E01019D6FF30E9E6F93C177
:1034D8009FF194C1A0F149EC4DF07ED13C0E010161
:1034E8009D6FF10E9E6F5B5163EC36F0E5C09FF166
:1034F800E6C0A0F149EC4DF06FD1720E01019D6F4D
:10350800F40E9E6F49EC4DF0050E01019D6FF70E0C
:103518009E6F49EC4DF0AC0E01019D6FF30E9E6F4E
:103528003FC09FF140C0A0F149EC4DF055D1200EAD
:1035380001019D6FF30E9E6F3BC09FF13CC0A0F14F
:1035480049EC4DF049D1720E01019D6FF40E9E6F4A
:1035580049EC4DF0050E01019D6FF70E9E6F49EC89
:103568004DF0310E01019D6FF40E9E6F3DC09FF12D
:103578003EC0A0F149EC4DF02FD1720E01019D6FB4
:10358800F40E9E6F49EC4DF0680E01019D6FF50E2B
:103598009E6F49EC4DF0EF0E01019D6FF30E9E6F8B
:1035A80097C19FF198C1A0F149EC4DF015D13D0E9E
:1035B80001019D6FF20E9E6F5B5163EC36F0E5C022
:1035C8009FF1E6C0A0F149EC4DF006D1EF0E0101E4
:1035D8009D6FF10E9E6F5B5163EC36F0E5C09FF175
:1035E800E6C0A0F149EC4DF0F7D0DA0E01019D6F6D
:1035F800F00E9E6F5B5163EC36F0E5C09FF1E6C0BC
:10360800A0F149EC4DF0E8D079C1A7F07AC1A8F053
:103618007BC1A9F07CC1AAF041EC44F0A7C0DEF15F
:10362800A8C0DFF1000E296E000E2A6E200E2B6E48
:10363800410E2C6E79C125F07AC126F07BC127F0A6
:103648007CC128F022EC2FF025C0A7F026C0A8F0F6
:1036580027C0A9F028C0AAF041EC44F0A7C0B1F0F7
:10366800A8C0B2F0000E0001B46F0A0EB36FCEEC22
:103678004CF0B1C0E0F1B2C0E1F12C0E01019D6F38
:10368800F50E9E6FDEC19FF1DFC1A0F1E0C1A1F18F
:10369800E1C1A2F149EC4DF09FD0D40E01019D6F1C
:1036A800F60E9E6F49EC4DF0010E0101E76F040E16
:1036B800E76501D011D0F20E9D6FFC0E9E6FE751A9
:1036C800110D7E0EF3249F6FEF0EF420A06F49ECCE
:1036D8004DF00101E72BEBD7EB0E9D6FF30E9E6FBC
:1036E80049EC4DF079D03D0E01019D6FF60E9E6FAD
:1036F80049EC4DF071D0A00E01019D6FF50E9E6F43
:1037080049EC4DF069D0330E01019D6FF70E9E6FA5
:1037180049EC4DF0010E0101E76F040EE76501D099
:1037280011D0F20E9D6FFC0E9E6FE751110D7E0EAB
:10373800F3249F6FEF0EF420A06F49EC4DF00101C8
:10374800E72BEBD7EB0E9D6FF30E9E6F49EC4DF018
:1037580043D0A30E01019D6FF60E9E6F49EC4DF00C
:103768003BD001015B51000AD8B418D5020AD8B47D
:103778007FD6010AD8B4B2D6070AD8B4D8D6010A77
:10378800D8B4FBD6030AD8B412D7010AD8B48ED657
:103798000F0AD8B497D6010AD8B418D7030AD8B4F0
:1037A80024D7010AD8B4CFD6070AD8B470D6010AEC
:1037B800D8B4A3D6030AD8B427D7010AD8B46DD78A
:1037C8001F0AD8B490D7010AD8B495D7030AD8B439
:1037D8009AD7010AD8B4BDD7000E01015E6F000E5A
:1037E800606F120001015851D8B409D0392A790EF6
:1037F8003918D8A41200000E586F93EC3AF00A0E4C
:103808003918D8A402D0000E396E3A50D8B4C3D0B3
:1038180080863C0E01015A6F3AA221D0EE0E0001BB
:10382800BD6FFB0EBE6F000E0FEC49F08D0E000150
:10383800BD6FFB0EBE6F020E0FEC49F0B30E000118
:10384800BD6FFC0EBE6F040E0FEC49F0580E000160
:10385800BD6FFC0EBE6F060E0FEC49F012003AA4C5
:1038680011D0B90E0001BD6FFC0EBE6F020E0FEC39
:1038780049F0A30E0001BD6FFB0EBE6F040E0FECE6
:1038880049F089D03AA848D0392A39040001C06FD4
:10389800050EC06120D0E50EBD6FFB0EBE6F000E99
:1038A8000FEC49F0CB0E0001BD6FFC0EBE6F020E8F
:1038B8000FEC49F01A0E0001BD6FFC0EBE6F040E2E
:1038C8000FEC49F0D30E0001BD6FFB0EBE6F060E64
:1038D8000FEC49F01200BF0E0001BD6FFC0EBE6F69
:1038E800000E0FEC49F05F0E0001BD6FFC0EBE6FBD
:1038F800020E0FEC49F0FD0E0001BD6FFB0EBE6F0E
:10390800040E0FEC49F0C50E0001BD6FFC0EBE6F32
:10391800060E0FEC49F012003AAC3DD0220E000121
:10392800BD6FFC0EBE6F020E0FEC49F0770E000162
:10393800BD6FFB0EBE6F040E0FEC49F0000E0101C7
:10394800366F640E356F37C01DF01E6A000E206E8C
:103958000A0E1F6E0EEC48F0300E1D240001B66FE3
:10396800000E1E20B76FC3EC3CF037C017F0186A82
:10397800000E1A6E0A0E196EBDEC49F0300E1724AF
:103988000001B66F000E1820B76FC3EC3CF0040EB0
:1039980063EC4AF01200500E3718D8A411D0220E4A
:1039A8000001BD6FFC0EBE6F020E0FEC49F06D0EEC
:1039B8000001BD6FFC0EBE6F040E0FEC49F0120043
:1039C800392A4750D8A4A5D0030E4818D8A464D0E3
:1039D800DC0E0001BD6FFB0EBE6F020E0FEC49F04E
:1039E800000E0101366F220E356FAAEC4EF085C12C
:1039F8001DF086C11EF0000E206E640E1F6E0EECC8
:103A080048F0300E1D240001B66F000E1E20B76F5F
:103A1800C3EC3CF0000E206E0A0E1F6E85C11DF02F
:103A280086C11EF00EEC48F01DC017F01EC018F03D
:103A3800000E1A6E0A0E196EBDEC49F0300E1724EE
:103A48000001B66F000E1820B76FC3EC3CF0000EF3
:103A58000001B76F2E0EB66FC3EC3CF085C117F0AE
:103A680086C118F0000E1A6E0A0E196EBDEC49F0E8
:103A7800300E17240001B66F000E1820B76FC3EC84
:103A88003CF0000E0001B76F410EB66FC3EC3CF07E
:103A9800040E63EC4AF031D3000E1C6E000E99EC54
:103AA8004EF0040E1C6E010E99EC4EF001014F51C0
:103AB800D8A403D04450D8A411D0F70E0001BD6F8C
:103AC800FB0EBE6F020E0FEC49F0C10E0001BD6F78
:103AD800FB0EBE6F040E0FEC49F010D0660E00010D
:103AE800BD6FFC0EBE6F020E0FEC49F0510E0001C7
:103AF800BD6FFC0EBE6F040E0FEC49F0100E1C6E6D
:103B0800060E99EC4EF0000E1C6E070E99EC4EF066
:103B1800F4D24704D8B404D0020E4718D8A4EDD282
:103B28002CEC4DF0010144AF07D0030EF55F140EE5
:103B3800F56109D02C0E06D0030EF5272C0EF5657D
:103B480002D0140EF56FF5C135F1366B000E926F89
:103B5800030E916F43C1B1F044C1B2F027EC4EF0AF
:103B68000001B2BF0CD0B25104E1040EB15DD8A07F
:103B780006D0000EB66FFE0EB56F3CEC46F0030E95
:103B88004818D8A459D080863C0E01015A6F030EFC
:103B9800F427590EF46502D04A0EF46FF4C135F1DA
:103BA800366B000E926F030E916F000E0001B66F18
:103BB800FE0EB56F3CEC46F0000E0101926F020E4E
:103BC800916F000E366F4D0E356F85C11DF086C1A1
:103BD8001EF0000E206E640E1F6E0EEC48F0300EC4
:103BE8001D240001B56F000E1E20B66F3CEC46F098
:103BF800000E206E0A0E1F6E85C11DF086C11EF0D4
:103C08000EEC48F01DC017F01EC018F0000E1A6E1A
:103C18000A0E196EBDEC49F0300E17240001B56F7D
:103C2800000E1820B66F3CEC46F0000E0001B66F8F
:103C3800410EB56F3CEC46F0050E3960B6D0020E69
:103C48004718D8A4B2D0000E0101366F1D0E356F8B
:103C5800000E926F010E916F000E0001B66FE30E19
:103C6800B56F3CEC46F0000E0101926F020E916FA9
:103C780043C1B1F044C1B2F027EC4EF00001B2BF2D
:103C880033D0E90EB15D030EB259D8A02DD0000E85
:103C98000101366F110E356F44AF07D0000E0001D9
:103CA800B66F2D0EB56F3CEC46F0000E0101366F75
:103CB800170E356F43C11DF044C11EF0030E206E70
:103CC800E80E1F6E0EEC48F01DC0B1F01EC0B2F039
:103CD80027EC4EF0300E0001B125B56F000EB22171
:103CE800B66F3CEC46F00ED0000E0101366F170E91
:103CF800356F44AF07D0000E0001B66F2D0EB56FBB
:103D08003CEC46F0000E0101366F1D0E356F000EBB
:103D1800206E640E1F6E43C11DF044C11EF00EECF0
:103D280048F01DC017F01EC018F0000E1A6E0A0EDB
:103D3800196EBDEC49F017C0B1F018C0B2F027EC0D
:103D48004EF0300E0001B125B56F000EB221B66FEE
:103D58003CEC46F0000E206E0A0E1F6E43C11DF0AB
:103D680044C11EF00EEC48F01DC017F01EC018F03C
:103D7800000E1A6E0A0E196EBDEC49F017C0B1F0AC
:103D880018C0B2F027EC4EF0300E0001B125B56F27
:103D9800000EB221B66F3CEC46F0000E0001B66F83
:103DA800410EB56F3CEC46F0A3D0000E0001C46F85
:103DB800020EC46501D09CD0C4C091F10101926B80
:103DC800000E366F170E356F0001C451040D790EC1
:103DD800F324D96E010EF420DA6E030EDBAE07D0A1
:103DE800000EB66F2D0EB56F3CEC46F005D0000EF8
:103DF8000101366F1D0E356F000E0001926F000E27
:103E0800936FC80E946F420E956FC451040D790ECE
:103E1800F324D96E010EF420DA6EDECF8EF0DECFF9
:103E28008FF0DECF90F0DECF91F0C5EC33F08EC08E
:103E3800A7F08FC0A8F090C0A9F091C0AAF041ECFB
:103E480044F0A7C0B1F0A8C0B2F027EC4EF0300E95
:103E58000001B125B56F000EB221B66F3CEC46F0FB
:103E6800000E0001926F000E936F200E946F410EAA
:103E7800956FC451040D790EF324D96E010EF42008
:103E8800DA6EDECF8EF0DECF8FF0DECF90F0DECFB1
:103E980091F0C5EC33F08EC0A7F08FC0A8F090C0A9
:103EA800A9F091C0AAF041EC44F0A7C017F0A8C04F
:103EB80018F0000E1A6E0A0E196EBDEC49F017C004
:103EC800B1F018C0B2F027EC4EF0300E0001B12569
:103ED800B56F000EB221B66F3CEC46F0000E000143
:103EE800B66F410EB56F3CEC46F00001C42B60D7AD
:103EF800000E51EC43F0000E1C6E040E99EC4EF0CF
:103F08003AA015D0050E396009D0120E0001BD6F18
:103F1800FC0EBE6F050E0FEC49F0EAD0B70E00019B
:103F2800BD6FFB0EBE6F050E0FEC49F0E1D03AAA4B
:103F380015D0050E396009D0120E0001BD6FFC0EB8
:103F4800BE6F050E0FEC49F0D3D0AD0E0001BD6F6A
:103F5800FB0EBE6F050E0FEC49F0CAD04804D8B46A
:103F680004D0020E4818D8A438D0D10E0001BD6F75
:103F7800FC0EBE6F050E0FEC49F03850D8B4B8D01F
:103F8800000E0101366F640E356F38C01DF01E6AD1
:103F9800000E206E0A0E1F6E0EEC48F0300E1D2427
:103FA8000001B66F000E1E20B76FC3EC3CF038C09E
:103FB80017F0186A000E1A6E0A0E196EBDEC49F059
:103FC800300E17240001B66F000E1820B76FC3EC2F
:103FD8003CF0050E63EC4AF08BD0030E4818D8A4C9
:103FE80087D080863C0E01015A6F070E396025D0B4
:103FF800040E396019D04750D8B416D0020E4718AD
:10400800D8A409D0B10E0001BD6FFB0EBE6F050E1E
:104018000FEC49F06AD0E30E0001BD6FFC0EBE6FD5
:10402800050E0FEC49F061D0DC0E0001BD6FFB0EF0
:10403800BE6F050E0FEC49F058D0000E0101366F27
:10404800220E356FAAEC4EF085C11DF086C11EF018
:10405800000E206E640E1F6E0EEC48F0300E1D240C
:104068000001B66F000E1E20B76FC3EC3CF0000EC7
:10407800206E0A0E1F6E85C11DF086C11EF00EEC63
:1040880048F01DC017F01EC018F0000E1A6E0A0E78
:10409800196EBDEC49F0300E17240001B66F000E02
:1040A8001820B76FC3EC3CF0000E0001B76F2E0E5E
:1040B800B66FC3EC3CF085C117F086C118F0000E4E
:1040C8001A6E0A0E196EBDEC49F0300E1724000165
:1040D800B66F000E1820B76FC3EC3CF0000E00015D
:1040E800B76F410EB66FC3EC3CF0050E63EC4AF0B7
:1040F800000E1C6E070E99EC4EF001015A51D8B40F
:1041080002D05A071200809612000101C76F000EF4
:104118000101CD6F000ECC6F000EC26F000EC16F93
:10412800000EC06F000EBF6F1FC1BBF120C1BCF1F4
:1041380021C1BDF122C1BEF14550D8A412D0010E53
:10414800CE6F030ECE6501D00CD0CE51010D2B0ED3
:10415800F324D96E010EF420DA6E000EDF6ECE2B3A
:10416800F0D7020E2B19D8A411D03D504B5D3E500C
:104178004C59D8B00BD04BC11DF04CC11EF0000EED
:10418800206E0A0E1F6E63EC4EF00AD03DC01DF083
:104198003EC01EF0000E206E0A0E1F6E63EC4EF03D
:1041A8001DC049F11EC04AF1020E456004D049C144
:1041B8000FF14AC110F1000E0101CE6F030ECE655A
:1041C80001D028D0CE51010D2B0EF324D96E010E4B
:1041D800F420DA6E020EDE18D8A41AD0CC4BCD2B00
:1041E800CE51020D0F0EF324D96E010EF420DA6EB3
:1041F800DE50C127DD50C223CE51020D850EF324B7
:10420800D96E010EF420DA6EDE50BF27DD50C023D0
:10421800CE2BD4D7C751D8A44DD0020E4718D8B446
:1042280049D047C1FAF048C1FBF00001FA1FFB1F53
:10423800FA4BFB2B3FC01DF040C01EF0000E206E55
:104248000A0E1F6E63EC4EF00001FA511D240101A5
:10425800C86F0001FB511E200101C96FC9BF14D0EE
:10426800C95103E1C805D8A00FD0C8C11DF0C9C104
:104278001EF0000E206E040E1F6E0EEC48F01D504E
:10428800010141271E5003D0C8514127C95142237B
:1042980042AF04D0000E426F000E416F42BF0AD0F9
:1042A800210E415D030E4259D8A004D0030E426F7F
:1042B800200E416FC751D8A46CD0020E4718D8A45D
:1042C80068D044AF19D044AF0CD0F60E435DFF0E52
:1042D8004459D8B006D0050E4125416F000E422141
:1042E8001FD043C11DF044C11EF0000E206E040E05
:1042F8001F6E0EEC48F00AD043C11DF044C11EF0F9
:10430800000E206E020E1F6E0EEC48F01D1E1E1EC3
:104318001D4A1E2A010141511D24416F42511E2090
:10432800426F3BC01DF03CC01EF0000E206E0A0E0E
:104338001F6E63EC4EF01D500101415D1E50425945
:10434800D8A002D042AF23D03BC01DF03CC01EF025
:10435800000E206E0A0E1F6E63EC4EF01DC041F178
:104368001EC042F1030E4818D8A40ED00101935183
:104378009411D8A444BF08D0445104E10B0E435D06
:10438800D8A002D0010E04D0000E010101D0000E09
:104398004E6F3DC01DF03EC01EF0000E206E0A0E8E
:1043A8001F6E63EC4EF0010141511D5C42511E58D5
:1043B800D8B00ED03DC01DF03EC01EF0000E206EDD
:1043C8000A0E1F6E63EC4EF01DC041F11EC042F193
:1043D800BFC11DF0C0C11EF0000E206E0A0E1F6E78
:1043E80063EC4EF01D1E1E1E1D4A1E2A0101475178
:1043F8001D24CA6F48511E20CB6FCBAF04D0000ECE
:10440800CB6F000ECA6F4750D8A416D04550D8B409
:104418000FD03FC01DF040C01EF0000E206E0A0EE7
:104428001F6E63EC4EF01DC041F11EC042F104D076
:1044380049C141F14AC142F10101CC51CD11D8B471
:104448001200C751D8B41DD0CAC1FAF0CBC1FBF0D5
:104458000001FA1FFB1FFA4BFB2B3FC01DF040C0A9
:104468001EF0000E206E0A0E1F6E63EC4EF0000167
:10447800FA511D240101416F0001FB511E20010169
:10448800426F42BF1FD03BC01DF03CC01EF0CCC1E4
:104498001FF0CDC120F063EC4EF01DC0C3F11EC06B
:1044A800C4F1C3C11DF0C4C11EF0000E206E0A0E77
:1044B8001F6E63EC4EF01D500101415D1E504259C4
:1044C800D8B024D0552B190E9D6FFB0E9E6F49EC6A
:1044D8004DF03BC01DF03CC01EF0CCC11FF0CDC15B
:1044E80020F063EC4EF01DC0C3F11EC0C4F1C3C17F
:1044F8001DF0C4C11EF0000E206E0A0E1F6E63EC84
:104508004EF01DC041F11EC042F103D0000E010162
:10451800556F01014151C15DC251800A0001FA6F16
:1045280001014251800A0001FA59D8B004D0C1C132
:1045380041F1C2C142F141C1C5F142C1C6F1610EAA
:1045480001019D6FF70E9E6F47C19FF148C1A0F111
:1045580041C1A1F142C1A2F1CAC1A3F1CBC1A4F1E9
:1045680049EC4DF0000E0101CE6FC5C11DF0C6C16A
:104578001EF0CCC11FF0CDC120F00EEC48F01DC0DC
:10458800B5F11EC0B6F10101CE51010D2B0EF32479
:10459800D96E010EF420DA6E020EDE18D8A44FD0C0
:1045A800CE51010DBB0EF324D96E010EF420DA6E44
:1045B800DF50D8A444D0CE51020D0F0EF324D96E8B
:1045C800010EF420DA6EDE50B55DB651800A0001A6
:1045D800FC6FDE50800AFC59D8A031D00101CE51C1
:1045E800020D0F0EF324D96E010EF420DA6ECE51AF
:1045F800020D850EF324E16E010EF420E26EDECF8B
:10460800E6FFDDCFE5FFCE51010DBB0EF324D96ED9
:10461800010EF420DA6E010EDF6ECC07D8A0CD07AC
:10462800CE51020D850EF324D96E010EF420DA6EF8
:10463800DE50C55FDD50C65B000ECE6F02D00101B3
:10464800CE2B040ECE6104D0CC51CD11D8A48DD779
:10465800000ECE6FCC51CD11D8B44FD0CE51010D34
:104668002B0EF324D96E010EF420DA6E020EDE183A
:10467800D8A43BD0CE51010DBB0EF324D96E010E48
:10468800F420DA6EDF50D8A430D0C5C11DF0C6C101
:104698001EF0CCC11FF0CDC120F00EEC48F0010196
:1046A800CE51020D850EF324D96E010EF420DA6E78
:1046B8001DC0DEFF1EC0DDFFCE51010DBB0EF32471
:1046C800D96E010EF420DA6E010EDF6ECC07D8A089
:1046D800CD07CE51020D850EF324D96E010EF420BC
:1046E800DA6EDE50C55FDD50C65BCE2B040ECE61A0
:1046F80004D0CC51CD11D8A4B1D7000ECE6F030E83
:10470800CE6501D051D0CE51020D850EF324D96E5D
:10471800010EF420DA6EDECF1DF0DDCF1EF0000EA4
:10472800206E0A0E1F6E0EEC48F01DC0B7F11EC0B9
:10473800B8F10101CE51020D850EF324D96E010E98
:10474800F420DA6EDECF17F0DDCF18F0000E1A6E07
:104758000A0E196EBDEC49F017C0B9F118C0BAF1CC
:10476800AC0E01019D6FFA0E9E6FCEC19FF1A06B3A
:10477800CE51010D2B0EF324D96E010EF420DA6E02
:10478800DF500001FA6FFA510101A16FA26BB7C1A6
:10479800A3F1B8C1A4F1B9C1A5F1BAC1A6F149EC18
:1047A8004DF00101CE2BABD7250E9D6FFB0E9E6FF2
:1047B80049EC4DF012000001FF6FAFEC38F000013A
:1047C800FE6F3C0E01015A6F80864304D8B43AA8A4
:1047D80002D081A23A985851D8A414D0050E0001ED
:1047E800FF19D8A40FD001014D51D8A40BD0010E48
:1047F800586F33C01BF134C01CF135C01DF136C0F1
:104808001EF170D101015805D8A419D0D00E1B256E
:10481800C86F070E1C21C96F000E1D21CA6F000E3C
:104828001E21CB6F3350C85D3450C9593550CA5911
:104838003650CB59D8B003D0020E586F28D058053F
:10484800D8A40DD0070E0001FF19D8A408D0000E77
:104858000101586F000E4D6FF6EC1BF043D10E0EA0
:1048680001015819D8A415D0020E0001FF19D8A4C7
:1048780010D001015751D8B40CD0000E8D6F000E26
:104888008E6F800E8F6F3F0E906F000E576F010E68
:1048980071D0010E010158656FD0020E0001FF1999
:1048A800D8B408D0030EFF19D8B404D0060EFF19E7
:1048B800D8A462D001014D51D8A45ED05751D8B4C4
:1048C8004AD05851CBEC42F017C02FF118C030F144
:1048D8002FC117F030C118F001015851480D440E8E
:1048E800F326000EF422960EF324F66EE90EF42059
:1048F800F76EF86A000EF8220900F5CF19F00A00E1
:10490800F5CF1AF05851480D460EF326000EF42242
:10491800960EF324F66EE90EF420F76EF86A000E90
:10492800F8220900F5CF1BF00A00F5CF1CF00001B2
:10493800FF5156EC4BF017C02FF118C030F12FC1C2
:10494800FAF030C1FBF0000E0001FC6F0101585174
:1049580074EC3DF0B6D058C11EF0670E1F6E010E04
:10496800206EFEC021F00001FF5185EC49F00101E5
:10497800586FA7D04D6FB6D0010E01015865A4D06D
:10498800050E0001FF19D8A49FD001014D51D8A4EC
:104998009BD05751D8B468D0000E576F0E0E5819D7
:1049A800D8A48FD03151331904E132513419D8B415
:1049B80088D031C160F032C161F00001626B636B75
:1049C800000E24EC3EF060C08EF061C08FF062C033
:1049D80090F063C091F08DC192F08EC193F08FC1B9
:1049E80094F090C195F0C5EC33F08EC017F18FC0EC
:1049F80018F190C019F191C01AF133C160F034C1B7
:104A080061F00001626B636B000E24EC3EF060C045
:104A18008EF061C08FF062C090F063C091F017C152
:104A280092F018C193F019C194F01AC195F0C5EC31
:104A380033F08EC08DF18FC08EF190C08FF191C090
:104A480090F133C160F034C161F00001626B636BB7
:104A5800000E24EC3EF060C079F161C07AF162C0CA
:104A68007BF163C07CF12DD0010E0101576F0E0E52
:104A78005819D8A413D079C1A7F07AC1A8F07BC17E
:104A8800A9F07CC1AAF041EC44F0A7C033F1A8C05A
:104A980034F133C131F134C132F113D0140E0101B4
:104AA8005819D8A40ED0000E586F000E576F000E7C
:104AB8003A6E000E376E000E386E9CEC37F0F6EC4E
:104AC8001BF0010E010156D7070E0001FF19D8A4EB
:104AD80009D0000E01014D6F000E186E0A0E176EF8
:104AE800F0EC4CF001014D05D8B403D05805D8A41A
:104AF80028D15805D8A425D0000E1C6E000E99ECBC
:104B08004EF0040E1C6E010E99EC4EF0980E00014A
:104B1800BD6FFB0EBE6F020E0FEC49F0000E0001D8
:104B2800BD6FFC0EBE6F040E0FEC49F0100E1C6E2C
:104B3800060E99EC4EF0000E1C6E070E99EC4EF026
:104B4800FDD001015851480D070EF326000EF4223E
:104B5800960EF3240001F46FE90EF420F56F020EAF
:104B6800F66F83EC45F00E0E01015819D8A4D9D080
:104B7800AAEC4EF001015751D8B454D0CDEC4DF009
:104B8800000E0101366F280E356F33C12CF034C189
:104B98002DF0000E2F6E640E2E6E80EC4BF0300E52
:104BA8002C240001B66F000E2D20B76FC3EC3CF02B
:104BB800000E0001B46F640EB36F33C1B1F034C19D
:104BC800B2F0CEEC4CF0B1C02CF0B2C02DF0000E1B
:104BD8002F6E0A0E2E6E80EC4BF0300E2C24000146
:104BE800B66F000E2D20B76FC3EC3CF0000E00012D
:104BF800B76F2E0EB66FC3EC3CF033C1B1F034C1C1
:104C0800B2F0000E0001B46F0A0EB36FCEEC4CF098
:104C1800300E0001B125B66F000EB221B76FC3EC9C
:104C28003CF06FD0000E0101366F280E356F79C148
:104C3800A7F07AC1A8F07BC1A9F07CC1AAF041EC29
:104C480044F0A7C02CF0A8C02DF0000E2F6E640E03
:104C58002E6E80EC4BF0300E2C240001B66F000E47
:104C68002D20B76FC3EC3CF0000E0001B46F640E4A
:104C7800B36F79C1A7F07AC1A8F07BC1A9F07CC154
:104C8800AAF041EC44F0A7C0B1F0A8C0B2F0CEEC55
:104C98004CF0B1C02CF0B2C02DF0000E2F6E0A0EF1
:104CA8002E6E80EC4BF0300E2C240001B66F000EF7
:104CB8002D20B76FC3EC3CF0000E0001B76F2E0E2D
:104CC800B66FC3EC3CF079C1A7F07AC1A8F07BC1FC
:104CD800A9F07CC1AAF041EC44F0A7C0B1F0A8C08B
:104CE800B2F0000E0001B46F0A0EB36FCEEC4CF0B8
:104CF800300E0001B125B66F000EB221B76FC3ECBC
:104D08003CF0000E0101366F580E356F000E0001A1
:104D1800B76F410EB66FC3EC3CF0040E63EC4AF07B
:104D28000DD00101585163EC36F0E5C0F4F0E6C04F
:104D3800F5F0040E0001F66F83EC45F0020E010158
:104D48004D6F33C023F134C024F135C025F136C08E
:104D580026F1000E566FFFC0F6F1000E396E1200F4
:104D68000001756F000175AF24D1756D7551800A0A
:104D7800120FD8A0A3D0000E206E0A0E1F6E000ED0
:104D88001A6E640E196E7551176E186A17BE1806DA
:104D9800BDEC49F017C01DF018C01EF00EEC48F02D
:104DA800D8901D361E36D8901D361E36240E1D2668
:104DB800000E1E221A0E1D24F66EE90E1E20F76E36
:104DC800F86A000EF8220900F5CF29F00900F5CF9E
:104DD8002AF00900F5CF2BF00A00F5CF2CF0000ED1
:104DE800206E640E1F6E000175511D6E1E6A1DBE79
:104DF8001E060EEC48F0D8901D361E36D8901D368B
:104E08001E36480E1D26000E1E221A0E1D24F66E92
:104E1800E90E1E20F76EF86A000EF8220900F5CF99
:104E280025F00900F5CF26F00900F5CF27F00A0094
:104E3800F5CF28F022EC2FF025C071F026C072F0D3
:104E480027C073F028C074F071C025F072C026F036
:104E580073C027F074C028F0000E1A6E0A0E196E7F
:104E680000017551176E186A17BE1806BDEC49F097
:104E7800D89017361836D890173618361A0E1724C1
:104E8800F66EE90E1820F76EF86A000EF82209008F
:104E9800F5CF29F00900F5CF2AF00900F5CF2BF05E
:104EA8000A00F5CF2CF022EC2FF025C06DF026C0BB
:104EB8006EF027C06FF028C070F012000001755125
:104EC800800A750FD8A05CD0000E206E0A0E1F6EE7
:104ED80075511D6E1E6A1DBE1E060EEC48F0D89058
:104EE8001D361E36D8901D361E36240E1D26000E81
:104EF8001E221A0E1D24F66EE90E1E20F76EF86AA1
:104F0800000EF8220900F5CF25F00900F5CF26F0AC
:104F18000900F5CF27F00A00F5CF28F0000E1A6E29
:104F28000A0E196E00017551176E186A17BE180619
:104F3800BDEC49F0D89017361836D8901736183681
:104F48001A0E1724F66EE90E1820F76EF86A000E8E
:104F5800F8220900F5CF29F00900F5CF2AF0090059
:104F6800F5CF2BF00A00F5CF2CF022EC2FF025C05E
:104F78006DF026C06EF027C06FF028C070F01200E8
:104F880000017551040D1A0EF324F66EE90EF42093
:104F9800F76EF86A000EF8220900F5CF6DF00900E7
:104FA800F5CF6EF00900F5CF6FF00A00F5CF70F07D
:104FB80012007551800A120FD8A0A3D0000E206EDF
:104FC8000A0E1F6E000E1A6E640E196E7551176E5A
:104FD800186A17BE1806BDEC49F017C01DF018C0B6
:104FE8001EF00EEC48F0D8901D361E36D8901D36AF
:104FF8001E36240E1D26000E1E22E60E1D24F66EF9
:10500800E80E1E20F76EF86A000EF8220900F5CFA8
:1050180029F00900F5CF2AF00900F5CF2BF00A0096
:10502800F5CF2CF0000E206E640E1F6E0001755136
:105038001D6E1E6A1DBE1E060EEC48F0D8901D3669
:105048001E36D8901D361E36480E1D26000E1E220E
:10505800E60E1D24F66EE80E1E20F76EF86A000EA6
:10506800F8220900F5CF25F00900F5CF26F0090050
:10507800F5CF27F00A00F5CF28F022EC2FF025C055
:1050880071F026C072F027C073F028C074F071C0A8
:1050980025F072C026F073C027F074C028F0000E07
:1050A8001A6E0A0E196E00017551176E186A17BE2E
:1050B8001806BDEC49F0D89017361836D890173630
:1050C8001836E60E1724F66EE80E1820F76EF86A02
:1050D800000EF8220900F5CF29F00900F5CF2AF0D3
:1050E8000900F5CF2BF00A00F5CF2CF022EC2FF0B9
:1050F80025C06DF026C06EF027C06FF028C070F094
:10510800120000017551800A750FD8A05CD0000EFE
:10511800206E0A0E1F6E75511D6E1E6A1DBE1E067C
:105128000EEC48F0D8901D361E36D8901D361E3627
:10513800240E1D26000E1E22E60E1D24F66EE80E15
:105148001E20F76EF86A000EF8220900F5CF25F048
:105158000900F5CF26F00900F5CF27F00A00F5CFB2
:1051680028F0000E1A6E0A0E196E00017551176E9E
:10517800186A17BE1806BDEC49F0D89017361836CD
:10518800D89017361836E60E1724F66EE80E182053
:10519800F76EF86A000EF8220900F5CF29F0090029
:1051A800F5CF2AF00900F5CF2BF00A00F5CF2CF047
:1051B80022EC2FF025C06DF026C06EF027C06FF0EE
:1051C80028C070F0120000017551040DE60EF3249A
:1051D800F66EE80EF420F76EF86A000EF822090061
:1051E800F5CF6DF00900F5CF6EF00900F5CF6FF03F
:1051F8000A00F5CF70F012000001A951AA11D8B425
:105208000CD0A9C0D9FFAAC0DAFFA7C0DEFFA8C08A
:10521800DDFF03D00001A74BA82BA7C0D9FFA8C06A
:10522800DAFFDF50AC6FAC5150EC4EF0D8B0F2D78B
:10523800000E0001AD6F2D0EAC19D8A403D0010EDD
:10524800AD6F04D02B0EAC19D8A402D0A74BA82B55
:10525800000EAC6F000EAF6F000EB06F000EB16F96
:10526800000EB26F000EAE6FADB90AD0A7C0D9FF5D
:10527800A8C0DAFF2E0EDE18D8A402D0AD893ED021
:10528800A7C0D9FFA8C0DAFFDF50FCEC4EF0D8A0C9
:1052980038D00001AD83090EAC19D8B42DD0ADB902
:1052A800AE07AC2BAFC017F0B0C018F0B1C019F002
:1052B800B2C01AF00A0E1B6E000E1C6E000E1D6E98
:1052C800000E1E6E2BEC4BF017C0AFF018C0B0F0FC
:1052D80019C0B1F01AC0B2F0A7C0D9FFA8C0DAFF50
:1052E800DF500001AB6FD00EAB27AB51AF27000EDC
:1052F800B023B123B22302D0ADA9AE2BA74BA82B64
:10530800B3D7000E0001AC6FA7C0D9FFA8C0DAFF61
:10531800650EDE18D8B408D0A7C0D9FFA8C0DAFF38
:10532800450EDE18D8A462D0A74BA82BA7C0D9FF7A
:10533800A8C0DAFF2D0EDE18D8A402D0AD8708D099
:10534800A7C0D9FFA8C0DAFF2B0EDE18D8A402D058
:10535800A74BA82BA7C0D9FFA8C0DAFF300EDE18CC
:10536800D8B4F6D7A7C0D9FFA8C0DAFFDF50FCEC45
:105378004EF0D8A038D0A7C0D9FFA8C0DAFFDF50B8
:10538800D00F0001AC6FA74BA82BA7C0D9FFA8C0AE
:10539800DAFFDF50FCEC4EF0D8A025D0A7C0D9FF2B
:1053A800A8C0DAFFDF500001AB6FAC510A0DF35013
:1053B800AB25D00FAC6FA74BA82BA7C0D9FFA8C0AF
:1053C800DAFFDF50FCEC4EF0D8A00DD0A7C0D9FF13
:1053D800A8C0DAFFDF500001AB6FAC510A0DF350E3
:1053E800AB25D00FAC6F0001ADB7AC6DAC51AE279B
:1053F800A951AA11D8A4ADA308D0A9C0D9FFAAC0A1
:10540800DAFFA7C0DEFFA8C0DDFFAFC060F0B0C004
:1054180061F0B1C062F0B2C063F0010E24EC3EF05E
:1054280060C0AFF061C0B0F062C0B1F063C0B2F06C
:105438000001AF51B011B111B211D8A409D0000EBA
:10544800A76F000EA86F000EA96F000EAA6F1200BA
:10545800AEAF6DD0AE6D1DD0AFC08EF0B0C08FF0C6
:10546800B1C090F0B2C091F0F90E926F020E936F36
:10547800150E946F500E956FC5EC33F08EC0AFF0DB
:105488008FC0B0F090C0B1F091C0B2F0F60E00013C
:10549800AE27AE51800A760FD8A01DD0DDD7AFC099
:1054A8008EF0B0C08FF0B1C090F0B2C091F0000E95
:1054B800926F000E936F200E946F410E956FC5EC9E
:1054C80033F08EC0AFF08FC0B0F090C0B1F091C093
:1054D800B2F00001AE07AE51D8A4E1D7AFC06EF06C
:1054E800B0C06FF0B1C070F0B2C071F0000E726F52
:1054F800000E736F800E746F000E756F99EC40F09C
:105508000001D8B083D0ADA109D0000EA76F000E5E
:10551800A86F800EA96F800EAA6F1200000EA76FE9
:10552800000EA86F800EA96F000EAA6F1200AE5170
:10553800800A7F0FD8B01ED069D0AFC025F0B0C0A8
:1055480026F0B1C027F0B2C028F0F90E296E020E7D
:105558002A6E150E2B6E500E2C6E22EC2FF025C0E5
:10556800AFF026C0B0F027C0B1F028C0B2F0F60EF8
:105578000001AE270A0EAE61E0D71CD0AFC025F0FF
:10558800B0C026F0B1C027F0B2C028F0000E296ED6
:10559800000E2A6E200E2B6E410E2C6E22EC2FF080
:1055A80025C0AFF026C0B0F027C0B1F028C0B2F0D7
:1055B8000001AE07AE51D8A4E1D7FF0E6E6FFF0E03
:1055C8006F6F7F0E706F7F0E716FAFC072F0B0C0DB
:1055D80073F0B1C074F0B2C075F099EC40F00001FE
:1055E800D8B014D0ADA109D0000EA76F000EA86FD7
:1055F800800EA96F800EAA6F1200000EA76F000E12
:10560800A86F800EA96F000EAA6F1200ADA112D06C
:10561800AFC017F0B0C018F0B1C019F0B2C01AF09E
:10562800E6EC4DF017C0AFF018C0B0F019C0B1F0FB
:105638001AC0B2F0AFC0A7F0B0C0A8F0B1C0A9F0CE
:10564800B2C0AAF01200000E0101486F000E476FA9
:10565800000E466F000E456F000E446F000E436F3C
:10566800000ED96F020ED96501D0A1D047C160F0F4
:1056780048C161F00001626B636B000E24EC3EF0E0
:1056880060C06EF061C06FF062C070F063C071F00E
:105698000101D951040D790EF324D96E010EF420BD
:1056A800DA6EDECF72F0DECF73F0DECF74F0DECFCD
:1056B80075F099EC40F00001D8B017D00101D9512C
:1056C800040D790EF324D96E010EF420DA6EDECFC4
:1056D800A7F0DECFA8F0DECFA9F0DECFAAF041EC2C
:1056E80044F0A7C047F1A8C048F10101D951040D01
:1056F800790EF324D96E010EF420DA6EDECF6EF047
:10570800DECF6FF0DECF70F0DECF71F045C160F014
:1057180046C161F00001000E61BFFF0E626F636F4A
:10572800010E24EC3EF060C072F061C073F062C0FC
:1057380074F063C075F099EC40F00001D8B017D050
:105748000101D951040D790EF324D96E010EF4200C
:10575800DA6EDECFA7F0DECFA8F0DECFA9F0DECF7D
:10576800AAF041EC44F0A7C045F1A8C046F10101F8
:10577800D951040D790EF324D96E010EF420DA6E96
:10578800DECFA7F0DECFA8F0DECFA9F0DECFAAF0FB
:1057980041EC44F0010143510001A7250101436F89
:1057A80044510001A8210101446FD92B5BD7475010
:1057B800D8B462D1020E45605FD1000E89EC20F0AA
:1057C800030E0101556111D03FC01DF040C01EF00D
:1057D800000E206E140E1F6E63EC4EF0010147514F
:1057E8001D5C48511E58D8B023D03A86000ED96F98
:1057F800030ED96501D00CD0D951010D2B0EF3241D
:10580800D96E010EF420DA6E000EDF6ED92BF0D7B8
:10581800000E0001746F020E736F000E766F010E9A
:10582800756F000E12EC4EF0000E0101556F04D09A
:105838004550D8A40BEC4FF0020E4818D8B404D049
:10584800030E4818D8A406D085C1B1F086C1B2F0BD
:1058580042EC42F095C11DF096C11EF0FF0E206E7D
:10586800F60E1F6E63EC4EF01DC0D7F11EC0D8F1C6
:105878004C0E01019D6FF00E9E6F400E48249F6FE5
:10588800A06B000EA0233AC0A1F1A26BD7C1A3F16F
:10589800D8C1A4F145C1A5F146C1A6F138C0A7F108
:1058A800A86B37C1A9F138C1AAF155C1ABF1AC6BEE
:1058B80047C12CF048C12DF0000E2F6E0A0E2E6E37
:1058C80080EC4BF02CC0ADF12DC0AEF147C1B1F06A
:1058D80048C1B2F0000E0001B46F0A0EB36FCEECEF
:1058E8004CF0B1C0AFF1B2C0B0F141C12CF042C12F
:1058F8002DF0000E2F6E0A0E2E6E80EC4BF02CC091
:10590800B1F12DC0B2F141C1B1F042C1B2F0000E07
:105918000001B46F0A0EB36FCEEC4CF0B1C0B3F116
:10592800B2C0B4F149EC4DF081C17EF082C17FF084
:1059380083C180F084C181F07DC17AF07EC17BF0A3
:105948007FC17CF080C17DF0CBEC30F07AC0CFF124
:105958007BC0D0F17CC0D1F17DC0D2F179C17EF09D
:105968007AC17FF07BC180F07CC181F0CFC17AF031
:10597800D0C17BF0D1C17CF0D2C17DF0CBEC30F04E
:105988007AC08EF07BC08FF07CC090F07DC091F023
:10599800000E0001926F000E936F200E946F410E5F
:1059A800956FC5EC33F08EC0D3F18FC0D4F190C0A1
:1059B800D5F191C0D6F1D50E01019D6FF50E9E6F00
:1059C80079C18EF07AC18FF07BC190F07CC191F0E3
:1059D800000E0001926F000E936F200E946F410E1F
:1059E800956FC5EC33F08EC09FF18FC0A0F190C0C9
:1059F800A1F191C0A2F17DC18EF07EC18FF07FC16F
:105A080090F080C191F0000E0001926F000E936F2C
:105A1800200E946F410E956FC5EC33F08EC0A3F144
:105A28008FC0A4F190C0A5F191C0A6F181C18EF0FC
:105A380082C18FF083C190F084C191F0000E000103
:105A4800926F000E936F200E946F410E956FC5EC08
:105A580033F08EC0A7F18FC0A8F190C0A9F191C012
:105A6800AAF1D3C1ABF1D4C1ACF1D5C1ADF1D6C166
:105A7800AEF149EC4DF01200000E0101486F000E26
:105A8800476F1200000E0101006F000E016F000E3B
:105A9800036F000E026F000E056F000E046F000EFC
:105AA800076F000E066F000E0A6F000E0B6F070ED1
:105AB8000001FC651200FAC0D9FFFBC0DAFFDF5015
:105AC8000101006F000120EE01F0FA51D926FB51C7
:105AD800DA22DF500101016FFAC017F0FBC018F09D
