:020000040000FA
:0400000097EF01F085
:100008005582D9CF09F0DACF0AF022D0AECF51F01D
:10001800030127512611251104E1040E245DD8A0FF
:1000280002D0000E5F6F320E5F19D8B45F07640EFE
:100038005F25D96EDA6A050EDA2251C0DFFF5F2B21
:10004800000E246F000E256F000E266F000E276F1E
:100058009EBADCD79EA88DD09DB822D08AD0AC504D
:100068000109AC6E2BD0000EC525D96EDA6A050ED3
:10007800DA22DF505FEC65F0AC50FE0B0110AC6E7D
:100088000101C52B1BD0000EC525D96EDA6A050EF5
:10009800DA22DF5047EC65F0AC50FE0B0110EFD7C9
:1000A8000101BB51000AD8B4DAD7010AD8B4D7D7AE
:1000B800030AD8B4D8D7010AD8B4E5D7000EC525A5
:1000C800D96EDA6A050EDA22DF50AD6EC52B030150
:1000D8005B510101C519D8B404D0320EC519D8A492
:1000E80003D09D98000EC56F000E0301246F000E0B
:1000F800256F000E266F000E276F3BD071B4D0A27B
:100108000AD05404D8A407D074CF51F05150D8A4C1
:1001180004D0FF0002D074CF51F0D08203015F51A8
:10012800D8B405D0240E6019D8A451C073FF320E7C
:100138005E19D8B45E07080E5118D8A405D05E51D0
:10014800D8B402D05E0715D00D0E5118D8B404D01B
:100158000A0E5118D8A404D0000E516E5E295C6FA7
:10016800600E5E25D96EDA6A030EDA2251C0DFFF0F
:100178005E2BA4AAD0D0C2D75304D8A460D05250C2
:10018800D8A404D0030E5418D8B42CD02C0E0301D4
:100198003A5D010E3B59D8B002D0899801D08988C0
:1001A800898A3A51076E3B51086E3A4B3B2B910EA8
:1001B800075C010E0858D8A010D082B20AD0890E68
:1001C8003A5D130E3B59D8A008D0000E3B6F000EC5
:1001D80003D0010E3B6F900E3A6F000E3D6F000E7C
:1001E8003C6F81D02C0E03013C5D010E3D59D8B007
:1001F80003D08988899A02D08988898A3C51076EF8
:100208003D51086E3C4B3D2B910E075C010E085882
:10021800D8A010D082A20AD0890E3C5D130E3D5999
:10022800D8A008D0000E3D6F000E03D0010E3D6F20
:10023800900E3C6F000E3B6F000E3A6F54D0020ECA
:100248005318D8A450D05250D8A404D0030E541830
:10025800D8B424D0580E03013A5D020E3B59D8B0E9
:1002680002D0899801D08988898A3A51076E3B5112
:10027800086E3A4B3B2BBD0E075C020E0858D8A0FF
:10028800ACD782A207D0890E3A5D130E3B59D8B07D
:100298009CD7A3D7020E3B6FBC0E9ED7580E030106
:1002A8003C5D020E3D59D8B003D08988899A02D0A6
:1002B8008988898A3C51076E3D51086E3C4B3D2B1D
:1002C800BD0E075C020E0858D8A0B4D782B207D07A
:1002D800890E3C5D130E3D59D8B0A4D7ABD7020E9A
:1002E8003D6FBC0EA6D7010E4B26000E4C224D22A8
:1002F8004E22010E03012427000E2523262327233F
:1003080056075629D8A406D053C367FF0A0E566F5E
:10031800010E556F7E907EB02FD70AC0DAFF09C054
:10032800D9FF55921100A0EF58F0000E0501CE6FCD
:10033800000ECF6F050ECD6F000EAC6F000EAF6FC5
:10034800000E9C6F000ECA6FCC69000EAD6F000ED8
:10035800AE6F000E9D6F010EAB6F010EB06F25EEF4
:100368009EF00B0EDE6AE806FDE2000E986F000EA6
:10037800996F000E9A6F000E9B6F020ECB6F08EC00
:1003880059F0D7EC46F0DAC10FF0DBC110F0000EDF
:10039800126E0A0E116E07EC66F00FC0BDF110C0A8
:1003A800BEF1898690EC5FF0FCEC64F0D08293ECAF
:1003B8004FF00501D26F020ED219D8A402D0800ED8
:1003C800526E0101C051D8A40CEC53F003015C51EA
:1003D800D8A40CEC1DF04B51D8B41FD027512611CE
:1003E800251104E1650E245DD8A017D00101BB5189
:1003F800D8A404D0240EAC6E900E03D0640EAC6E5C
:10040800D00EAB6E8A8A000E0C6E010E0B6E21ECBC
:1004180064F09D88000E03014B6F0101C551D8B4EB
:10042800ACA201D08A9AD1EC5CF0A30E946E00F0D5
:1004380000F08250210B0501D26FD239E8461F0B1C
:100448000101D36F0501D251D225020B0101D3114D
:10045800D36F8150010BD311D36F820E946E070EA8
:10046800D319D8A406D00301F6510101D319D8B481
:1004780003D0D35178EC2DF0010EC26525D0200EA3
:10048800C26122D0880E0301202501019F6F130E3F
:10049800030121210101A06F000E030122210101A6
:1004A800A16F000E030123210101A26F4B509F5D34
:1004B8004C50A0594D50A1594E50A259D8B004D013
:1004C800C151D8B42FEC58F00101C251D8A44FD073
:1004D800060ED319D8A44BD0D251D8B448D00501B0
:1004E800AA51D8A444D0020E0101D06140D0030E15
:1004F800CF19D8A43CD0D251FF0A030BD26FD60E25
:100508005216000E506E000E03014C6F0101D0050B
:10051800D8A40AD0000E316EA80E306ED2C132F0C7
:10052800336A000E95EC64F0050E0501AA6F4F5072
:10053800D8A408D0540E0101006FF90E016F2EECFB
:1005480065F020D09CEC63F00501B16FB151010159
:10055800C819D8B417D0130E0E6FFC0E0F6FB1C5A3
:1005680010F1116B4AEC60F0B1C5C8F10BD0050170
:10057800AA51D8B407D0070E0101D319D8A402D0C4
:100588000501AA0781A402D0010E01D0000E0501C1
:10059800AB19D8A403D0CE51D8B4BAD19D2B9D05A0
:1005A80001019F6F060E9F6104D00501CE51D8B49A
:1005B800B2D1000E81B4010E0501AB6FAB51D8B4B6
:1005C800FAD09BD103014F51D8B405D0000E4F6F1C
:1005D800010E546E02D0010E4F6F4F50D8A407D0B1
:1005E8007A0E0101006FFA0E016F2EEC65F04F5084
:1005F800D8A408D01B0E0101006FFA0E016F2EEC73
:1006080065F0E8D09CEC63F00501B26FB2510101CE
:10061800C819D8B4DFD0130E0E6FFC0E0F6FB2C519
:1006280010F1116B4AEC60F0B2C5C8F1D3D0010EDD
:1006380003014F6F4F50D8A408D01B0E0101006F63
:10064800FA0E016F2EEC65F0C5D09CEC63F0050145
:10065800B36FB3510101C819D8B4BCD0130E0E6FD3
:10066800FC0E0F6FB3C510F1116B4AEC60F0B3C507
:10067800C8F1B0D00501CE51D8A40AD0010ECE6F72
:100688004BC098F54CC099F54DC09AF54EC09BF5F6
:10069800CE51D8B49FD0DC0E982501019F6F050E6E
:1006A800050199210101A06F000E05019A210101A0
:1006B800A16F000E05019B210101A26F4B509F5DA8
:1006C8004C50A0594D50A1594E50A259D8B082D083
:1006D800030E5418D8A47ED0010E546EC051D8A46D
:1006E80002D00F0E506E020E0501CE6F4F50D8A4E7
:1006F80008D01B0E0101006FFA0E016F2EEC65F099
:1007080069D09CEC63F00501B46FB4510101C819BC
:10071800D8B460D0130E0E6FFC0E0F6FB4C510F175
:10072800116B4AEC60F0B4C5C8F154D0020ED2196E
:10073800D8A405D0010ED26F000E03014C6F010141
:10074800D005D8A447D0D251D8B444D0000E316EC9
:10075800A80E306ED2C132F0336A000E95EC64F008
:1007680039D0030E5418D8A435D0010E546EC05198
:10077800D8A402D00F0E506E4F50D8A407D01B0E2D
:10078800006FFA0E016F2EEC65F024D09CEC63F03C
:100798000501B56FB5510101C819D8B41BD0130EA6
:1007A8000E6FFC0E0F6FB5C510F1116B4AEC60F0BF
:1007B800B5C5C8F10FD00101CF51010AD8B402D78D
:1007C800030AD8B434D7010AD8B454D7070AD8B41E
:1007D800ADD7C7D70101CE05D8B452A802D081A29F
:1007E80052983C0E03015A6F898692D0000E03017D
:1007F8004F6F010E546E4F50D8A408D01B0E010144
:10080800006FFA0E016F2EEC65F082D09CEC63F05D
:100818000501B66FB6510101C819D8B479D0130EC5
:100828000E6FFC0E0F6FB6C510F1116B4AEC60F03D
:10083800B6C5C8F16DD0020E0501CE19D8B443D0A3
:100848000101D205D8A402D0020E05D0020ED21999
:10085800D8A402D0010ED26FD60E5216000E506EDA
:10086800000E03014C6F0101D005D8A40DD0D25160
:10087800D8B40AD0000E316EA80E306ED2C132F054
:10088800336A000E95EC64F04F50D8A408D01B0EC4
:100898000101006FFA0E016F2EEC65F014D09CEC8C
:1008A80063F00501B76FB7510101C819D8B40BD06F
:1008B800130E0E6FFC0E0F6FB7C510F1116B4AECDB
:1008C80060F0B7C5C8F1000E0501CE6F21D0D20582
:1008D800D8A402D0020ED26FD005D8A419D0D25114
:1008E800D8B416D0000E316EA80E306ED2C132F0D8
:1008F800336A000E95EC64F00BD00101CF51020A67
:10090800D8B474D7010AD8B496D7070AD8B4DFD7B1
:10091800000E05019D6F0101CE05D8B481A226D035
:1009280081A224D0010E546E100E526E000EC36FB9
:100938004F50D8A407D0400E006FF90E016F2EEC6F
:1009480065F014D09CEC63F00501B86FB851010153
:10095800C819D8B40BD0130E0E6FFC0E0F6FB8C5A4
:1009680010F1116B4AEC60F0B8C5C8F1050E5418C7
:10097800D8A427D04E504D1006E1E90E4B5C030E6B
:100988004C58D8A01ED0000E316E010E306E000EED
:10099800336E000E326E0101D05195EC64F04F5069
:1009A800D8A407D05A0E0101006FF60E016F2EEC85
:1009B80065F0000E4B6E000E4C6E000E4D6E000E74
:1009C8004E6E5404D8A414D1000EBD6E82848A9849
:1009D800000E0301286F67EC61F00101C66FC605C0
:1009E800D8A42CD0529A5290000E506E000EC76FA9
:1009F8000501CB51D8A402D0010ECB6F4F50D8A41B
:100A080008D0160E0101006FF90E016F2EEC65F08B
:100A1800EFD09CEC63F00501B96FB9510101C81919
:100A2800D8B4E6D0130E0E6FFC0E0F6FB9C510F1D7
:100A3800116B4AEC60F0B9C5C8F1DAD0020EC619DC
:100A4800D8B404D0020EC619D8A4B0D05250D8A435
:100A5800ADD05050D8A4AAD003014F51D8B4A6D0D5
:100A6800020E0101C719D8A49BD00501CF2BCF05D1
:100A780001019F6F190E9F65BBD0000E0501CA6F5B
:100A88006EEC5DF04F50D8A406D0CB0E006FF70E79
:100A9800016F2EEC65F00101D8510301485D010199
:100AA800D95103014959D8B00BD048C30FF049C3F5
:100AB80010F0000E126E0A0E116E07EC66F00AD0E6
:100AC800D8C10FF0D9C110F0000E126E0A0E116EC7
:100AD80007EC66F00FC046F310C047F3010E0101A2
:100AE800D06520D0000E316E020E306E46C332F053
:100AF80047C333F0D05195EC64F04F50D8A407D0D9
:100B0800E80E0101006FF50E016F2EEC65F0060E80
:100B1800546E000E4B6E000E4C6E000E4D6E000EA5
:100B28004E6E66D048C30FF049C310F0000E126E27
:100B38000A0E116E07EC66F00FC000F310C001F347
:100B480046C3D6F347C3D7F3010E0301286F020E3D
:100B5800546E1E0E0501CC6F3C0E03015A6F898638
:100B68004F50D8A408D0530E0101006FFA0E016F40
:100B78002EEC65F03DD09CEC63F00501BA6FBA51DC
:100B88000101C819D8B434D0130E0E6FFC0E0F6FC4
:100B9800BAC510F1116B4AEC60F0BAC5C8F128D09B
:100BA800020EC76F000E0501CF6F22D04F50D8A498
:100BB80008D0160E0101006FF90E016F2EEC65F0DA
:100BC80014D09CEC63F00501BB6FBB510101C8193F
:100BD800D8B40BD0130E0E6FFC0E0F6FBBC510F1FF
:100BE800116B4AEC60F0BBC5C8F1000E0101C76F7C
:100BF800060E5418D8A40BD04E504D1006E1E90E3D
:100C08004B5C030E4C58D8A002D0010E546E020E55
:100C18005418D8A411D1060EBC64FDD7190EBC60B7
:100C2800FAD767EC61F00101C66FC605D8A437D0C2
:100C3800C705D8A432D00501CF2BCF0501019F6F7E
:100C4800190E9F65EAD0010E546E4F50D8A407D0F4
:100C5800390E006FFA0E016F2EEC65F014D09CEC83
:100C680063F00501BC6FBC510101C819D8B40BD0A1
:100C7800130E0E6FFC0E0F6FBCC510F1116B4AEC12
:100C880060F0BCC5C8F1010E0101D065C6D0050EE3
:100C9800546EE90E4B6E030E38D0010EA1D0030E30
:100CA800C619D8A4A2D0030EC719D8A497D0050195
:100CB800CA05D8A493D0CF2BCF0501019F6F190E79
:100CC8009F65ABD05250D8A4A8D05050D8A4A5D076
:100CD800010ED06520D0000E316E030E306E46C373
:100CE80032F047C333F0D05195EC64F04F50D8A49C
:100CF80007D00E0E0101006FF60E016F2EEC65F0A5
:100D0800070E546E000E4B6E000E4C6E000E4D6EAC
:100D1800000E4E6E82D046C300F347C301F3C7EC02
:100D28004DF00009D8A458D0020E0301286F000E18
:100D3800D76F000ED66F010EF5EC30F08A880501EA
:100D4800CC69000ECA6F030E546E000E0101C36F0A
:100D5800000E4B6E000E4C6E000E4D6E000E4E6E69
:100D6800000E0301396F000E386F0101CA51D8B463
:100D78000ED00501CB51D8B40AD014C318F315C34B
:100D880019F316C31AF317C31BF3000ECB6F010137
:100D9800C251D8B448EC28F04F50D8A408D0600EFF
:100DA8000101006FFA0E016F2EEC65F036D09CEC55
:100DB80063F00501BD6FBD510101C819D8B42DD02C
:100DC800130E0E6FFC0E0F6FBDC510F1116B4AECC0
:100DD80060F0BDC5C8F121D052861FD0030E0101B5
:100DE800C76F000E0501CF6F18D00501CC51D8A4EC
:100DF80011D0140E546E030EAD6F000EBD6E8294AA
:100E08004F50D8A407D0230E0101006FF80E016FD0
:100E18002EEC65F0000E0101C76FF10EBC64FDD722
:100E280067EC61F005019C6F040E9C19D8A402D0F0
:100E3800010E01D0000ECA6F140E5418D8A427D082
:100E48000501AD51D8A423D0020E546E8284CC691A
:100E58004F50D8A408D0F90E0101006FF90E016FA8
:100E68002EEC65F014D09CEC63F00501BE6FBE510A
:100E78000101C819D8B40BD0130E0E6FFC0E0F6FFA
:100E8800BEC510F1116B4AEC60F0BEC5C8F1070E83
:100E98005418D8A42DD04E504D1006E1E90E4B5CE5
:100EA800030E4C58D8A024D0000E0501CA6F020EBC
:100EB800546E4F50D8A408D0010E0101006FF90EEE
:100EC800016F2EEC65F014D09CEC63F00501BF6F48
:100ED800BF510101C819D8B40BD0130E0E6FFC0E08
:100EE8000F6FBFC510F1116B4AEC60F0BFC5C8F1B8
:100EF800030E5418D8A499D0060EBC64FDD7190E59
:100F0800BC60FAD767EC61F00101C66FC605D8B4BA
:100F180003D0C651D8A438D0C705D8A433D005010A
:100F2800CF2BCF0501019F6F190E9F657ED08A9840
:100F3800010E546E4F50D8A407D0460E006FFA0E1B
:100F4800016F2EEC65F014D09CEC63F00501C06FC6
:100F5800C0510101C819D8B40BD0130E0E6FFC0E86
:100F68000F6FC0C510F1116B4AEC60F0C0C5C8F135
:100F780090EC5FF0010E0101D06502D0050E3FD064
:100F8800000E48D0010E4AD0020EC619D8A44BD084
:100F9800020EC719D8A441D00501CF2BCF050101F6
:100FA8009F6F190E9F6541D08A98020E546E4F505C
:100FB800D8A407D0090E006FF90E016F2EEC65F06A
:100FC80014D09CEC63F00501C16FC1510101C8192F
:100FD800D8B40BD0130E0E6FFC0E0F6FC1C510F1F5
:100FE800116B4AEC60F0C1C5C8F190EC5FF0000EDF
:100FF8000501CA6F010E0101D0650BD0080E546EB1
:10100800E90E4B6E030E4C6E000E4D6E000E4E6ECA
:101018000CD0010E0301286F08D0020EC76F000E16
:101028000501CF6F02D0000EC76F080E5418D8A460
:1010380027D04E504D1006E1E90E4B5C030E4C587C
:10104800D8A01ED0000E316E040E306E000E336E26
:10105800000E326E0101D05195EC64F04F50D8A4C7
:1010680007D0800E0101006FF60E016F2EEC65F0BF
:10107800000E4B6E000E4C6E000E4D6E000E4E6E46
:10108800ABA202D0AB98AB8871A202D071987188DC
:10109800D6CFD2F53C0ED764B0D10101C751D8B430
:1010A80004D0030E5418D8B4A8D1000ED76E000E81
:1010B800D66E79EC63F0020E5418D8A404D005015A
:1010C800CC29D8A4CC07140E5418D8A404D00501F0
:1010D800AD51D8A4AD0703014C51D8B441D0FBC3DE
:1010E8000FF0FCC310F0000E126E3C0E116E07ECF0
:1010F80066F00301345101019F6F0301355101016D
:10110800A06F0301344B352B0F5001019F5D105028
:10111800A059D8A029D0000E03014C6F000E356FDE
:10112800000E346F5286000E0501D26F030ED26591
:1011380001D00AD0280ED225D96EDA6A030EDA2237
:10114800000EDF6ED22BF2D7000E316E020E306E1B
:10115800000E336E200E326E000E95EC64F004D053
:10116800000E356F000E346F5050D8A4500603019E
:101178005951800A490FD8A052A401D0529452C0A4
:101188009FF1210E01019F17D8B41ED0020ED06125
:101198001BD0C7EC4DF00009D8A416D05290529A33
:1011A8004F50D8A407D0EC0E0101006FF60E016F66
:1011B8002EEC65F0000E316E020E306E52C032F029
:1011C800336A000E95EC64F00501CD51D8B452B2E3
:1011D80033D05282010E546E4F50D8A408D04E0E10
:1011E8000101006FF70E016F2EEC65F014D09CEC36
:1011F80063F00501C26FC2510101C819D8B40BD000
:10120800130E0E6FFC0E0F6FC2C510F1116B4AEC76
:1012180060F0C2C5C8F1000E0501D26F030ED26599
:1012280001D00DD0280ED225D96EDA6A030EDA2243
:10123800000EDF6ED22BF2D7CD51D8A4CD07030113
:101248005951800A3F0FD8A033D05284010E546EF2
:101258004F50D8A408D00D0E0101006FF70E016F92
:101268002EEC65F014D09CEC63F00501C36FC351FC
:101278000101C819D8B40BD0130E0E6FFC0E0F6FF6
:10128800C3C510F1116B4AEC60F0C3C5C8F1000E7C
:101298000501D26F030ED26501D00AD0280ED225DF
:1012A800D96EDA6A030EDA22000EDF6ED22BF2D77D
:1012B80052A644D05296020E0101D219D8A40ED0DB
:1012C8005050D8A409D04F50D8A406D0070E006FAC
:1012D800F80E016F2EEC65F0528A0DD05050D8A44C
:1012E80009D04F50D8A406D02E0E006FF70E016F0C
:1012F8002EEC65F05280010E546E4F50D8A408D0E1
:10130800A60E0101006FF80E016F2EEC65F014D0E7
:101318009CEC63F00501C46FC4510101C819D8B42D
:101328000BD0130E0E6FFC0E0F6FC4C510F1116BAE
:101338004AEC60F0C4C5C8F13C0E506E48EC28F089
:101348000101D251D8A42BD0000E0301436F000E27
:10135800426F0501AE51D8A4AE07020E0101D0615B
:101368001ED00501AE51D8A41AD0000EF5EC30F00D
:10137800D005D8B4DFEC66F0020E5418D8B404D007
:10138800030E5418D8A406D0D6C387F0D7C388F064
:1013980033EC54F0020E0501AE6F0A0ECD6F030E4A
:1013A8005418D8A403D00301384B392B4F50D8A474
:1013B8004F060101BF51D8A40CD00501B051D8A4E3
:1013C80008D0010EB06F010E0101BF6FBFC152F30B
:1013D80014D00501CD51D8A40DD0010EB06F010E67
:1013E8000101BF6FBFC152F3000E0501AF6F090EB7
:1013F800CD6F03D0B051D8A4B007020E0101D0615F
:1014080078D073D0000E526F58D0DE51D8B406D0C1
:10141800DDC137F0DE513CEC55F067D0BFC152F367
:10142800BF2B63D0DE51D8B4F9D7DE05D8B4F6D7D0
:10143800DDC137F0DE51D1EC61F057D0CC51D8B4D2
:10144800EDD7DCC137F0CC513CEC55F04ED0CC5147
:10145800D8B4E4D7DCC137F0CC51D1EC61F045D039
:10146800CA51D8B4DBD7C9C137F0CA513CEC55F0E2
:101478003CD0CA51D8B4D2D7C9C137F0CA51D1EC7F
:1014880061F033D0CA51D8B4C9D7C9C137F0CA51ED
:10149800DFEC62F02AD0C0EC4CF0000E0101BF6F07
:1014A800DE51D8B404D00501AF51D8B403D00A0E28
:1014B8000501CD6F000EAF6F18D00101BF51010AB1
:1014C800D8B4A3D7030AD8B4ADD7010AD8B4B6D7CD
:1014D800070AD8B4BCD7010AD8B4C2D7030AD8B40B
:1014E800C8D7010AD8B4CED7D6D703015251D8A449
:1014F80089D703015F51D8B437EF0FF02751261170
:10150800251105E1040E245DD8A037EF0FF0320E47
:101518000B6E050E0C6E640E0D6E050E0E6E5FC31F
:101528000FF0106A5DEC62F05FC35DF3000E03011B
:101538005F6F320E01010E6F050E0F6F5DC310F164
:10154800DDEC3AF0030E0101B619D8B46DD174D1AF
:10155800DE51D8B423D0DD51AB19D8A41FD0DE5149
:10156800190D0D0EF324D96E040EF420DA6EDE5038
:10157800AD1914E1DE50AE19D8A410D0B3C188F06B
:10158800B4C189F0DEC18AF0CA0E00018B6F030E68
:101598008C6F56EC34F00501AF6F41D1DE51D8B4F1
:1015A80021D0DD51AB19D8A41DD0DE51190D100E74
:1015B800F324D96E040EF420DA6EDE50AD1912E170
:1015C800DE50AE19D8A40ED0B3C188F0B4C189F0EA
:1015D800DEC18AF0BE0E00018B6F030E8C6FA5EC86
:1015E8005AF01DD1CC51D8B461D0DC51AB19D8A474
:1015F8005DD0CC51190D0D0EF324D96E040EF420D4
:10160800DA6EDE50AD1952E1DE50AE19D8A44ED0D4
:10161800B3C188F0B4C189F0CCC18AF09E0E000134
:101628008B6F050E8C6F56EC34F00501AF51D8B4B2
:10163800F6D0000ED26F020ED26501D0F0D0D25192
:10164800040DCA0EF324D96E030EF420DA6EDECF31
:101658007DF0DECF7EF0DECF7FF0DECF80F0D2519E
:10166800040D9E0EF324D96E050EF420DA6EDECF3B
:1016780081F0DECF82F0DECF83F0DECF84F031EC74
:1016880063F00501D251040DCA0EF324D96E030E7E
:10169800F420DA6E00017DC0DEFF7EC0DEFF7FC071
:1016A800DEFF80C0DEFF0501D22BC5D7CC51D8B4F0
:1016B80021D0DC51AB19D8A41DD0CC51190D100E76
:1016C800F324D96E040EF420DA6EDE50AD1912E15F
:1016D800DE50AE19D8A40ED0B3C188F0B4C189F0D9
:1016E800CCC18AF0BE0E00018B6F030E8C6FA5EC87
:1016F8005AF095D0CA51D8B421D0C951AB19D8A441
:101708001DD0CA51190D0D0EF324D96E040EF42004
:10171800DA6EDE50AD1912E1DE50AE19D8A40ED043
:10172800B3C188F0B4C189F0CAC18AF0B20E000111
:101738008B6F030E8C6F56EC34F071D0CA51D8B44D
:1017480021D0C951AB19D8A41DD0CA51190D100EFA
:10175800F324D96E040EF420DA6EDE50AD1912E1CE
:10176800DE50AE19D8A40ED0B3C188F0B4C189F048
:10177800CAC18AF0BE0E00018B6F030E8C6FA5ECF8
:101788005AF04DD0CA51D8B44AD0C951AB19D8A4CF
:1017980046D0CA51190D130EF324D96E040EF42045
:1017A800DA6EDE50AD193BE1DE50AE19D8A437D061
:1017B800B3C188F0B4C189F0CAC18AF020EC5DF0E9
:1017C80088C014F389C015F38AC016F38BC017F3C9
:1017D800020E0501CB19D8A408D014C318F315C3F9
:1017E80019F316C31AF317C31BF314C37DF015C3FB
:1017F8007EF016C37FF017C380F018C381F019C3B9
:1018080082F01AC383F01BC384F031EC63F07DC00F
:101818001CF37EC01DF37FC01EF380C01FF3BFC141
:1018280052F30101BF2B1FD3AC51030AD8B490D691
:10183800070AD8B48DD617D3020EB619D8B4B3D0C8
:10184800C0D0D051AB19D8A40ED33EEC56F0050148
:10185800D06FD029D8B407D3D05186EC60F003D329
:10186800010EAB651ED0050EAB611BD0AD51AE119C
:10187800D8B408D0AE5106E1050EAD5DD8B002D09F
:10188800030E0DD0AE5104E1810EAD5DD8A009D094
:10189800AE5107E1850EAD5DD8B003D0020E05014B
:1018A800AC6F0A0E0101AB19D8A412D0A80EAD195D
:1018B800AE11D8A40DD04F0EB1190AE1490EB219D4
:1018C800D8A406D0C051D8A403D0010EC06FCBD283
:1018D800AB51D8B404D0D051AB19D8A4C4D23EEC83
:1018E80056F00501D06FD029D8B403D0D0510EECF2
:1018F8005FF0020E0501AC6FB6D2AB51D8B404D07C
:10190800D051AB19D8A4AFD2AD05AE11D8A440D0F0
:10191800010ED0653DD0D0519F6FA06BD8909F37F6
:10192800A03721EEB3F0DECFA1F1DDCFA2F19F51B8
:10193800A127A051A223FE0EA125D96EFF0EA22138
:10194800DA6EDF50A36FA351A56FA46BD051A66FB9
:10195800A76BD890A637A73721EEB3F0DECFA8F152
:10196800DDCFA9F1A651A827A751A923FF0EA825C5
:10197800D96EFF0EA921DA6EDF50AA6FAA51A41101
:101988000501966F0101A5510501976F020EAC6F15
:101998003EEC56F00501D06FD029D8B464D2D051AE
:1019A800B9EC54F060D2AC51030AD8B44AD7070A4C
:1019B800D8B447D7020AD8B453D7160AD8B49DD793
:1019C80052D2000EBF6FBFC152F3BD0E006FF80EAA
:1019D800016F2EEC65F047D20101AB51D8A453D06A
:1019E800010ED06550D03ED096C5D6F397C5D7F333
:1019F800020E5418D8B404D0030E5418D8A406D034
:101A0800D6C387F0D7C388F033EC54F00A0E05012B
:101A1800CD6F39D0B1C152F05250D8B434D0010E84
:101A2800546E3C0E506E4F50D8A407D0A60E006FCF
:101A3800F60E016F2EEC65F026D09CEC63F00501E4
:101A4800C56FC5510101C819D8B41DD0130E0E6F4A
:101A5800FC0E0F6FC5C510F1116B4AEC60F0C5C5DF
:101A6800C8F111D021EEADF0DECF9FF1DDCFA0F1AE
:101A7800A051000AD8A407D09F51010AD8B4B4D7FE
:101A8800030AD8B4C7D70101D051AB19D8B4B8D01C
:101A9800F2D1010E546E4F50D8A407D0E80E006F53
:101AA800F90E016F2EEC65F0E6D19CEC63F00501B0
:101AB800C66FC6510101C819D8B4DDD1130E0E6F17
:101AC800FC0E0F6FC6C510F1116B4AEC60F0C6C56D
:101AD800C8F1D1D1B151B211D8A402D05286CBD11C
:101AE800B1C187F0B2C188F033EC54F0020E546EE5
:101AF8001E0E0501CC6F3C0E03015A6F89864F50AC
:101B0800D8A408D0BC0E0101006FF50E016F2EECB1
:101B180065F0B1D19CEC63F00501C76FC7510101B5
:101B2800C819D8B4A8D1130E0E6FFC0E0F6FC7C515
:101B380010F1116B4AEC60F0C7C5C8F19CD1B151E6
:101B4800B211D8B4CBD7B1C187F0B2C188F033ECA9
:101B580054F08A88000E0501CA6F030E546ECC69D2
:101B6800000E0101C36F000E4B6E000E4C6E000E8E
:101B78004D6E000E4E6EC251D8B448EC28F04F504E
:101B8800D8A408D0600E0101006FFA0E016F2EEC88
:101B980065F071D19CEC63F00501C86FC851010173
:101BA800C819D8B468D1130E0E6FFC0E0F6FC8C5D4
:101BB80010F1116B4AEC60F0C8C5C8F15CD1020E97
:101BC800546E4F50D8A407D0340E006FF60E016F34
:101BD8002EEC65F050D19CEC63F00501C96FC9513A
:101BE8000101C819D8B447D1130E0E6FFC0E0F6F40
:101BF800C9C510F1116B4AEC60F0C9C5C8F13BD1F9
:101C080021EEADF0DECF9FF1DDCFA0F1A051000AAB
:101C1800D8A431D19F51810AD8B43BD7030AD8B48C
:101C280059D7010AD8B48BD7070AD8B4C8D723D153
:101C38000101D005D8A41FD1AB050501D16FFAD099
:101C4800280E0501D125D96EDA6A030EDA22000EB4
:101C5800DF6E000EF5EC30F04F50D8A406D0EB0E36
:101C6800006FF80E016F2EEC65F0000E316E810EDC
:101C7800306E000E336E000E326E0101AB5195ECE2
:101C880064F0F9D0C7EC4DF00009D8A42DD0280E87
:101C98000501D125D96EDA6A030EDA22010EDF6E4C
:101CA800D151020D000EF324D96E030EF420DA6E22
:101CB800B1C1DEFFB2C1DDFFD6C10FF0D7C110F050
:101CC800000E126E0A0E116E07EC66F00501D15176
:101CD800020DD60EF324D96E030EF420DA6E0FC06F
:101CE800DEFF10C0DDFF0DD00501D151020DD60E6B
:101CF800F324D96E030EF420DA6E000EDE6E000EA9
:101D0800DD6E4F50D8A407D08D0E0101006FF70E7D
:101D1800016F2EEC65F0000E316E820E306E0501FB
:101D2800D151020DD60EF324D96E030EF420DA6ECB
:101D3800DECF32F0DDCF33F00101AB5195EC64F02A
:101D48009AD0C7EC4DF00009D8A425D0280E05017B
:101D5800D125D96EDA6A030EDA22020EDF6ED1516E
:101D6800020D000EF324D96E030EF420DA6EB1C111
:101D7800DEFFB2C1DDFFD151020DD60EF324D96EBC
:101D8800030EF420DA6E000EDE6E000EDD6E010E1C
:101D9800F5EC30F00DD00501D151020DD60EF3242B
:101DA800D96E030EF420DA6E000EDE6E000EDD6EC4
:101DB8004F50D8A407D06E0E0101006FF70E016FC7
:101DC8002EEC65F0000E316E830E306E0501D15198
:101DD800020DD60EF324D96E030EF420DA6EDECF90
:101DE80032F0DDCF33F00101AB5195EC64F043D014
:101DF800280E0501D125D96EDA6A030EDA22010E02
:101E0800DF6E000EF5EC30F04F50D8A406D03F0E30
:101E1800006FF80E016F2EEC65F0000E316E840E27
:101E2800306E000E336E000E326E0101AB5195EC30
:101E380064F021D021EEADF0DECF9FF1DDCFA0F12F
:101E48000101A051000AD8A416D09F51010AD8B4A4
:101E5800F7D6030AD8B416D7010AD8B472D7070A36
:101E6800D8B4C6D708D00501AC51020AD8B4B4D545
:101E7800010AD8B4DDD652A205D00A0E0501CD1943
:101E8800D8B4529252C09FF1210E01019F17D8B4C5
:101E980008D05050D8A405D0010ED06502D0529079
:101EA800529A000E0501AC6FE5EF01F0EAEF1CF065
:101EB800250ED819D8B431D0A251D96EDA6A020EDB
:101EC800D926DE50DE10D8B413D0A251D96EDA6A02
:101ED800020ED92602D8EAEF1CF00500FA6EDE5091
:101EE800FD6EDE50FE6EF850FF6EFA50D8511200AB
:101EF800A251D96EDA6ADECFA7F0DDCFA8F0A7C06D
:101F0800D9FFA8C0DAFFD8C0DFFFA251D96EDA6ABC
:101F1800DE2A000EDD22EAEF1CF0000ED56F000E5F
:101F2800D46F000EDA6F000ED96F0DD00001D9877B
:101F380008D00001D98105D00001DA8702D000015C
:101F4800D985A34BA42BA3C0F6FFA4C0F7FFF86A5A
:101F58000F0EF76403D00800F55005D0F6CFE9FF5F
:101F6800F7CFEAFFEF50200AD8B4E3D7030AD8B472
:101F7800E3D70E0AD8B4DAD71D0AD8B4E0D70001DF
:101F8800D9B7D995A3C0F6FFA4C0F7FFF86A0F0E1A
:101F9800F76403D00800F55005D0F6CFE9FFF7CF76
:101FA800EAFFEF50B2EC66F0D8A04AD0000E00016C
:101FB800D56F000ED46FD4C00FF0D5C010F0000E4E
:101FC800126E0A0E116E07EC66F00FC0D4F010C046
:101FD800D5F0D00E0001A76FFF0EA86FA3C0F6FFC3
:101FE800A4C0F7FFF86A0F0EF76403D00800F55095
:101FF80005D0F6CFE9FFF7CFEAFFEF500001A96F50
:10200800AA6BA751A927A851AA23A951D427AA5135
:10201800D523A34BA42BA3C0F6FFA4C0F7FFF86AEF
:102028000F0EF76403D00800F55005D0F6CFE9FF8E
:10203800F7CFEAFFEF50B2EC66F0D8A02BD0BBD7B1
:10204800A3C0F6FFA4C0F7FFF86A0F0EF76403D029
:102058000800F55005D0F6CFE9FFF7CFEAFFEF50BB
:102068002A0AD8A417D0A5C0D9FFA6C0DAFFDFCFA7
:10207800A7F0020EDE26DFCFA8F0000EDD22A7C0F3
:10208800D9FFA8C0DAFFDECFD4F0DDCFD5F000014C
:10209800A34BA42BA3C0F6FFA4C0F7FFF86A0F0E4A
:1020A800F76403D00800F55005D0F6CFE9FFF7CF65
:1020B800EAFFEF502E0AD8A482D00001DA8DA34B94
:1020C800A42BA3C0F6FFA4C0F7FFF86A0F0EF764AD
:1020D80003D00800F55005D0F6CFE9FFF7CFEAFFA7
:1020E800EF502A0AD8A420D0A5C0D9FFA6C0DAFF8D
:1020F800DFCFA7F0020EDE26DFCFA8F0000EDD222C
:10210800A7C0D9FFA8C0DAFFDECFD6F0DDCFD7F061
:102118000001D7AF06D0000ED76F000ED66FDA9D3C
:10212800DA89A34BA42BA8D1000E0001D76F000EAB
:10213800D66F30D0D6C00FF0D7C010F0000E126E98
:102148000A0E116E07EC66F00FC0D6F010C0D7F07B
:10215800D00E0001A76FFF0EA86FA3C0F6FFA4C0A2
:10216800F7FFF86A0F0EF76403D00800F55005D0A2
:10217800F6CFE9FFF7CFEAFFEF500001A96FAA6B8E
:10218800A751A927A851AA23A951D627AA51D723CD
:10219800A34BA42BA3C0F6FFA4C0F7FFF86A0F0E49
:1021A800F76403D00800F55005D0F6CFE9FFF7CF64
:1021B800EAFFEF50B2EC66F0D8A05ED1BBD7000EB4
:1021C8000001D76F000ED66FDA8956D1DA858ED125
:1021D800D98D8CD1D98BD98F89D1A5C0D9FFA6C06B
:1021E800DAFFDFCFA7F0020EDE26DFCFA8F0000E61
:1021F800DD22A7C0D9FFA8C0DAFFDECFC2F0DDCF4D
:10220800C3F0C251C311D8A404D01B0EC26FFC0E78
:10221800C36F000EC56F000EC46F03D00001C44B1E
:10222800C52BC451C225A76FC551C321A86FA7C02C
:10223800F6FFA8C0F7FFF86A0F0EF76403D008008E
:10224800F55005D0F6CFE9FFF7CFEAFFEF500009C8
:10225800D8A4E4D70001D651D711D8B40ED0C451B0
:10226800D65DD751800AA76FC551800AA759D8B043
:1022780004D0D6C0C4F0D7C0C5F0D451C45DD55180
:10228800C559D8B005D0C451D45FC551D55B04D069
:10229800000ED56F000ED46FD9A72FD08BD0A251C6
:1022A800D96EDA6A020ED926DE50DE10D8B412D002
:1022B800A251D96EDA6A020ED92601D81ED00500BD
:1022C800FA6EDE50FD6EDE50FE6EF850FF6EFA506C
:1022D800200E1200A251D96EDA6ADECFA7F0DDCF48
:1022E800A8F0A7C0D9FFA8C0DAFF200EDF6EA25160
:1022F800D96EDA6ADE2A000EDD220001D407D8A0E2
:10230800D507D429CCE1D529D8B454D0C8D7A251FF
:10231800D96EDA6A020ED926DE50DE10D8B425D07E
:10232800A251D96EDA6A020ED92601D81AD0050050
:10233800FA6EDE50FD6EDE50FE6EF850FF6EFA50FB
:10234800C2C0F6FFC3C0F7FFF86A0F0EF76403D0E8
:102358000800F55005D0F6CFE9FFF7CFEAFFEF50B8
:1023680012000001C24BC32B25D0C2C0F6FFC3C068
:10237800F7FFF86AA251D96EDA6ADECFA7F0DDCF8F
:10238800A8F0A7C0D9FFA8C0DAFF0F0EF76403D0E2
:102398000800F55005D0F6CFE9FFF7CFEAFFEF5078
:1023A800DF6E0001C24BC32BA251D96EDA6ADE2A56
:1023B800000EDD22C407D8A0C507C429A8E1C52995
:1023C800D8A4A5D7D9B730D0EAEF1CF0A251D96E5E
:1023D800DA6A020ED926DE50DE10D8B412D0A25125
:1023E800D96EDA6A020ED92601D81ED00500FA6E17
:1023F800DE50FD6EDE50FE6EF850FF6EFA50200E75
:102408001200A251D96EDA6ADECFA7F0DDCFA8F0AC
:10241800A7C0D9FFA8C0DAFF200EDF6EA251D96E7F
:10242800DA6ADE2A000EDD220001D407D8A0D5071B
:10243800D429CCE1D529D8B4EAEF1CF0C7D7A5C078
:10244800D9FFA6C0DAFFDFCFA7F0020EDE26DFCF66
:10245800A8F0000EDD22A7C0D9FFA8C0DAFFDF5020
:10246800D86FD80EC26FC36B000EC56F010EC46F54
:10247800F1D6C00ED9133AD00001A351A76FA451C9
:10248800A86FA34BA42BA7C0F6FFA8C0F7FFF86A54
:102498000F0EF76403D00800F55005D0F6CFE9FF1A
:1024A800F7CFEAFFEF500001D86FD851000AD8B42F
:1024B80007EF1DF0580AD8B48DD63B0AD8B4BFD759
:1024C800070AD8B413D0020AD8B480D60F0AD8B4F1
:1024D8000DD0060AD8B47CD61C0AD8B47ED6060A13
:1024E800D8B4C7D70D0AD8B476D6BBD7070EDA1535
:1024F800D8B403EF18F0DAA904D0000ED76F060E8F
:10250800D66FA5C0D9FFA6C0DAFFDFCFA7F0040EAB
:10251800DE26DFCFA8F0000EDD22A7C0D9FFA8C0B5
:10252800DAFFDECFCCF0DECFCDF0DECFCEF0DECFDF
:10253800CFF0CFAF14D0CCC00BF0CDC00CF0CEC0D4
:102548000DF0CFC00EF077EC65F00BC0CCF00CC0EE
:10255800CDF00DC0CEF00EC0CFF0030ED913000E93
:10256800C76F000EC66FCCC00BF0CDC00CF0CEC04C
:102578000DF0CFC00EF0000E0F6E000E106E000EA4
:10258800116E000E126E02EC5EF0D8B083D000011E
:10259800CE35CF35820FC66FC76BFF0EC723C60770
:1025A800D8A0C707C6C00FF0C7C010F0000E126E43
:1025B800030E116E07EC66F00FC0C6F010C0C7F02E
:1025C800C6C091F0C7C092F0000E0001946F0A0EC9
:1025D800936F47EC5EF091C0C6F092C0C7F0C7AFEA
:1025E80003D0C607D8A0C707C6510008F2EC38F0D8
:1025F80099C0C8F09AC0C9F09BC0CAF09CC0CBF083
:10260800C8C023F0C9C024F0CAC025F0CBC026F04A
:10261800CCC027F0CDC028F0CEC029F0CFC02AF01A
:1026280063EC3EF023C0C8F024C0C9F025C0CAF04E
:1026380026C0CBF0C8C023F0C9C024F0CAC025F01A
:10264800CBC026F0000E276E000E286E800E296E75
:102658003F0E2A6E70EC59F0D8B005D00001C607BD
:10266800D8A0C70717D0C8C023F0C9C024F0CAC073
:1026780025F0CBC026F0000E276E000E286E200E27
:10268800296E410E2A6E70EC59F0D8A003D00001D3
:10269800C64BC72B0001D7BF06D0D75121E10D0E7D
:1026A800D65DD8B01DD0CCC06DF0CDC06EF0CEC018
:1026B8006FF0CFC070F0D6514EEC49F03CC071F0CD
:1026C8003DC072F03EC073F03FC074F0F9EC3FF0CB
:1026D8006DC0CCF06EC0CDF06FC0CEF070C0CFF042
:1026E800C7BF06D0C7512FE10A0EC65DD8B02BD0A0
:1026F800CCC00BF0CDC00CF0CEC00DF0CFC00EF0AA
:10270800000E0F6E000E106E000E116E000E126E8F
:1027180002EC5EF0D8B062D0CCC07DF0CDC07EF0C7
:10272800CEC07FF0CFC080F066EC5BF07D517E11AB
:102738007F118011D8B4C7BF51D0C75104E1020E30
:10274800C65DD8A04BD0C8C023F0C9C024F0CAC009
:1027580025F0CBC026F05F0E276E700E286E890E0E
:10276800296E400E2A6E70EC59F0D8B003D00001E3
:10277800F70E02D00001F80EC627FF0EC723C65178
:10278800F2EC38F099C0C8F09AC0C9F09BC0CAF002
:102798009CC0CBF0CCC00BF0CDC00CF0CEC00DF07F
:1027A800CFC00EF0C8C00FF0C9C010F0CAC011F0F9
:1027B800CBC012F03CEC57F00BC0D0F00CC0D1F0FD
:1027C8000DC0D2F00EC0D3F0000E0001CC6F000E89
:1027D800CD6F000ECE6F000ECF6F3BD0CCC07DF01A
:1027E800CDC07EF0CEC07FF0CFC080F066EC5BF04D
:1027F8007DC0D0F07EC0D1F07FC0D2F080C0D3F0D1
:10280800CCC07DF0CDC07EF0CEC07FF0CFC080F0D0
:10281800D0C015F0D1C016F0D2C017F0D3C018F050
:10282800000ECDEC51F015C081F016C082F017C033
:1028380083F018C084F031EC63F07DC0CCF07EC02A
:10284800CDF07FC0CEF080C0CFF0000EC76F000E75
:10285800C66F010ED86F0A0ED819D8B418D0D8513F
:10286800040D7C0EF324F66EEE0EF420F76E0900CC
:10287800F550D05D0900F550D1590900F550D259ED
:102888000900F550D359D8A002D0D82BE4D7D85195
:10289800D625A76F000ED721A86FC651A727C75105
:1028A800A823A751D45FA851D55BDAB704D0D65175
:1028B800D711D8B403D0D407D8A0D507D9C0A7F06A
:1028C800030EA717D8B403D0D407D8A0D507D9A525
:1028D800B5D0D9C0A7F0030EA717D8B442D0A251DB
:1028E800D96EDA6A020ED926DE50DE10D8B41CD0B2
:1028F800D9B104D0000EB16F2B0E03D0000EB16F0A
:102908002D0EB06FA251D96EDA6A020ED92601D8FF
:1029180028D00500FA6EDE50FD6EDE50FE6EF850CF
:10292800FF6EFA50B0511200D9B104D0000EB36F47
:102938002B0E03D0000EB36F2D0EB26FA251D96EBD
:10294800DA6ADECFA7F0DDCFA8F0A7C0D9FFA8C00C
:10295800DAFFB2C0DFFFA251D96EDA6ADE2A000EB2
:10296800DD220001D9A161D0A251D96EDA6A020E26
:10297800D926DE50DE10D8B412D0A251D96EDA6A48
:10298800020ED92601D851D00500FA6EDE50FD6E30
:10299800DE50FE6EF850FF6EFA50200E1200A25163
:1029A800D96EDA6ADECFA7F0DDCFA8F0A7C0D9FFCD
:1029B800A8C0DAFF200EDF6EA251D96EDA6ADE2ACD
:1029C800000EDD2232D0A251D96EDA6A020ED92663
:1029D800DE50DE10D8B412D0A251D96EDA6A020ED7
:1029E800D92601D81ED00500FA6EDE50FD6EDE50E5
:1029F800FE6EF850FF6EFA50300E1200A251D96EDA
:102A0800DA6ADECFA7F0DDCFA8F0A7C0D9FFA8C04B
:102A1800DAFF300EDF6EA251D96EDA6ADE2A000EB6
:102A2800DD220001D407D8A0D5070001D5BF1FD1EA
:102A3800D551C9E1D405D8A01AD1C5D7D9A733D063
:102A480039D0A251D96EDA6A020ED926DE50DE10CC
:102A5800D8B412D0A251D96EDA6A020ED92601D89A
:102A68001ED00500FA6EDE50FD6EDE50FE6EF85088
:102A7800FF6EFA50200E1200A251D96EDA6ADECF2C
:102A8800A7F0DDCFA8F0A7C0D9FFA8C0DAFF200EB5
:102A9800DF6EA251D96EDA6ADE2A000EDD2200014D
:102AA800D407D8A0D507D5BF05D0D551CAE1D405DC
:102AB800D8B0C7D7D9C0A7F0030EA717D8B43DD050
:102AC800A251D96EDA6A020ED926DE50DE10D8B4C9
:102AD8001CD0D9B104D0000EB56F2B0E03D0000E58
:102AE800B56F2D0EB46FA251D96EDA6A020ED926CF
:102AF80001D8BDD00500FA6EDE50FD6EDE50FE6EC8
:102B0800F850FF6EFA50B4511200D9B104D0000E3B
:102B1800B76F2B0E03D0000EB76F2D0EB66FA251F4
:102B2800D96EDA6ADECFA7F0DDCFA8F0A7C0D9FF4B
:102B3800A8C0DAFFB6C0DFFF94D0D9A198D0A251BF
:102B4800D96EDA6A020ED926DE50DE10D8B412D059
:102B5800A251D96EDA6A020ED92601D888D00500AA
:102B6800FA6EDE50FD6EDE50FE6EF850FF6EFA50C3
:102B7800200E1200A251D96EDA6ADECFA7F0DDCF9F
:102B8800A8F0A7C0D9FFA8C0DAFF200E69D0D0C02E
:102B98000BF0D1C00CF0D2C00DF0D3C00EF0D8515C
:102BA800040D7C0EF324F66EEE0EF420F76E090089
:102BB800F5CF0FF00900F5CF10F00900F5CF11F0AF
:102BC8000A00F5CF12F04FEC5FF00BC0C8F00CC054
:102BD800C9F00DC0CAF00EC0CBF0C8C018F0C9C00B
:102BE80019F0CAC01AF0CBC01BF00A0E1C6E000EFA
:102BF8001D6E000E1E6E000E1F6E9EEC61F018C05A
:102C0800C8F019C0C9F01AC0CAF01BC0CBF0A25155
:102C1800D96EDA6A020ED926DE50DE10D8B413D087
:102C2800A251D96EDA6A020ED92601D820D0050041
:102C3800FA6EDE50FD6EDE50FE6EF850FF6EFA50F2
:102C4800C851300F1200A251D96EDA6ADECFA7F050
:102C5800DDCFA8F0A7C0D9FFA8C0DAFFC851300F50
:102C6800DF6EA251D96EDA6ADE2A000EDD2200017B
:102C7800D807D829D8B433D08AD7A251D96EDA6AFE
:102C8800020ED926DE50DE10D8B412D0A251D96E69
:102C9800DA6A020ED92601D81ED00500FA6EDE5077
:102CA800FD6EDE50FE6EF850FF6EFA50300E1200C8
:102CB800A251D96EDA6ADECFA7F0DDCFA8F0A7C09F
:102CC800D9FFA8C0DAFF300EDF6EA251D96EDA6ADA
:102CD800DE2A000EDD220001C607D8A0C707C7BF3D
:102CE80005D0C751CAE1C605D8B0C7D7D7BF09D0E4
:102CF800D75104E1090ED65DD8A003D0080ED86FCD
:102D080002D0D6C0D8F0D851D65F000ED75BD851C4
:102D1800D8A402D0DAA72ED0A251D96EDA6A020E50
:102D2800D926DE50DE10D8B412D0A251D96EDA6A94
:102D3800020ED92601D81ED00500FA6EDE50FD6EAF
:102D4800DE50FE6EF850FF6EFA502E0E1200A251A1
:102D5800D96EDA6ADECFA7F0DDCFA8F0A7C0D9FF19
:102D6800A8C0DAFF2E0EDF6EA251D96EDA6ADE2A0B
:102D7800000EDD220001D851F2EC38F099C0ABF01A
:102D88009AC0ACF09BC0ADF09CC0AEF0CCC027F0B0
:102D9800CDC028F0CEC029F0CFC02AF0ABC023F0B8
:102DA800ACC024F0ADC025F0AEC026F063EC3EF018
:102DB80023C07DF024C07EF025C07FF026C080F0BF
:102DC80066EC5BF07DC0D0F07EC0D1F07FC0D2F061
:102DD80080C0D3F097D0D0C00BF0D1C00CF0D2C0D7
:102DE8000DF0D3C00EF0D851040D7C0EF324F66E0E
:102DF800EE0EF420F76E0900F5CF0FF00900F5CFBD
:102E080010F00900F5CF11F00A00F5CF12F04FECE1
:102E18005FF00BC0C8F00CC0C9F00DC0CAF00EC0FE
:102E2800CBF0C8C018F0C9C019F0CAC01AF0CBC09E
:102E38001BF00A0E1C6E000E1D6E000E1E6E000E9C
:102E48001F6E9EEC61F018C0C8F019C0C9F01AC016
:102E5800CAF01BC0CBF0A251D96EDA6A020ED9268D
:102E6800DE50DE10D8B413D0A251D96EDA6A020E41
:102E7800D92601D820D00500FA6EDE50FD6EDE504E
:102E8800FE6EF850FF6EFA50C851300F1200A25172
:102E9800D96EDA6ADECFA7F0DDCFA8F0A7C0D9FFD8
:102EA800A8C0DAFFC851300FDF6EA251D96EDA6AB6
:102EB800DE2A000EDD22D0C018F0D1C019F0D2C031
:102EC8001AF0D3C01BF00001D851040D7C0EF32476
:102ED800F66EEE0EF420F76E0900F5CF1CF009002F
:102EE800F5CF1DF00900F5CF1EF00A00F5CF1FF051
:102EF8009EEC61F018C0D0F019C0D1F01AC0D2F021
:102F08001BC0D3F0D807D829D8B433D064D7A2517E
:102F1800D96EDA6A020ED926DE50DE10D8B412D085
:102F2800A251D96EDA6A020ED92601D81ED0050040
:102F3800FA6EDE50FD6EDE50FE6EF850FF6EFA50EF
:102F4800300E1200A251D96EDA6ADECFA7F0DDCFBB
:102F5800A8F0A7C0D9FFA8C0DAFF300EDF6EA251D3
:102F6800D96EDA6ADE2A000EDD220001D607D8A063
:102F7800D707D651D711D8A4CAD7D9B7D5BFEAEF42
:102F88001CF0D55104E1D405D8A0EAEF1CF0A251F9
:102F9800D96EDA6A020ED926DE50DE10D8B412D005
:102FA800A251D96EDA6A020ED92601D81ED00500C0
:102FB800FA6EDE50FD6EDE50FE6EF850FF6EFA506F
:102FC800200E1200A251D96EDA6ADECFA7F0DDCF4B
:102FD800A8F0A7C0D9FFA8C0DAFF200EDF6EA25163
:102FE800D96EDA6ADE2A000EDD220001D407D8A0E5
:102FF800D507D451D511D8B4EAEF1CF0C8D7D9C039
:10300800A7F0C00EA717D8A426D0A5C0D9FFA6C080
:10301800DAFFDFCFA7F0020EDE26DFCFA8F0000E22
:10302800DD22A7C0D9FFA8C0DAFFDECFD0F0DDCF00
:10303800D1F0000ED1BFFF0ED26FD36FD3AF25D022
:10304800030ED913D31FD21FD11FD06D000ED12369
:10305800D223D3231AD0A5C0D9FFA6C0DAFFDFCF69
:10306800A7F0020EDE26DFCFA8F0000EDD22A7C0F3
:10307800D9FFA8C0DAFFDECFA9F0DDCFAAF0A9C03A
:10308800D0F0AAC0D1F0D26BD36BD651D711D8A447
:1030980063D0D051D111D211D311D8A45DD0D64B61
:1030A800D72B5AD0010ED86F0A0ED819D8B462D0CF
:1030B800D851040D7C0EF324F66EEE0EF420F76E54
:1030C8000900F550D05D0900F550D1590900F550B7
:1030D800D2590900F550D359D8A04CD0D82BE4D7F1
:1030E800010ED86F080ED819D8B444D0D851040DA1
:1030F800520EF324F66EE10EF420F76E0900F55037
:10310800D05D0900F550D1590900F550D259090090
:10311800F550D359D8A02ED0D82BE4D7010ED86FAC
:103128000B0ED819D8B426D0D851040D260EF32486
:10313800F66EE10EF420F76E0900F550D05D090037
:10314800F550D1590900F550D2590900F550D35915
:10315800D8A010D0D82BE4D7D951C00B000AD8B4C6
:10316800A1D7400AD8B4DAD7C00AD8B4B9D7400A28
:10317800D8B498D7D851A76FA86BD651A75DA851D6
:10318800800AA96FD751800AA959D8B003D0D6C0F0
:10319800D8F010D0D851A76FA86BA751D65DD751DA
:1031A800800AA96FA851800AA959D8B003D0D8C0FD
:1031B800D6F0D76BD451D511D8B409D0D9C0A7F05F
:1031C800030EA717D8B403D0D407D8A0D507DAAD13
:1031D80013D0D451D65DD751800AA76FD551800A34
:1031E800A759D8B005D0D651D45FD751D55B04D0F4
:1031F800000ED56F000ED46FC40EA76F080EA86F0F
:10320800D9C0A9F0DAC0AAF0A751A917A851AA17DE
:10321800400EA9190CE1080EAA19D8A408D0D45157
:10322800D511D8B428D0D407D8A0D50724D0C00E3B
:10323800A76F080EA86FD9C0A9F0DAC0AAF0A751E5
:10324800A917A851AA17800EA91915E1080EAA19DD
:10325800D8A411D0D5BF0BD0D55104E1030ED45D4D
:10326800D8A005D0FE0ED427FF0ED52304D0000E1B
:10327800D56F000ED46FD851A76FA86BD451A75D36
:10328800A851800AA96FD551800AA959D8B005D08C
:10329800D851D45F000ED55B04D0000ED56F000E58
:1032A800D46FD9A515D1D9C0A7F0030EA717D8B4E4
:1032B80028D0A251D96EDA6A020ED926DE50DE1065
:1032C800D8B412D0A251D96EDA6A020ED92601D822
:1032D800C7D00500FA6EDE50FD6EDE50FE6EF85067
:1032E800FF6EFA502D0E1200A251D96EDA6ADECFA7
:1032F800A7F0DDCFA8F0A7C0D9FFA8C0DAFF2D0E30
:1033080029D0D9A129D0A251D96EDA6A020ED926BC
:10331800DE50DE10D8B412D0A251D96EDA6A020E8D
:10332800D92601D89DD00500FA6EDE50FD6EDE501C
:10333800FE6EF850FF6EFA50200E1200A251D96EA0
:10334800DA6ADECFA7F0DDCFA8F0A7C0D9FFA8C002
:10335800DAFF200EDF6E7ED0C00EA76F080EA86FB2
:10336800D9C0A9F0DAC0AAF0A751A917A851AA177D
:10337800800EA91975E1080EAA19D8A471D0A25116
:10338800D96EDA6A020ED926DE50DE10D8B412D011
:10339800A251D96EDA6A020ED92601D81ED00500CC
:1033A800FA6EDE50FD6EDE50FE6EF850FF6EFA507B
:1033B800300E1200A251D96EDA6ADECFA7F0DDCF47
:1033C800A8F0A7C0D9FFA8C0DAFF300EDF6EA2515F
:1033D800D96EDA6ADE2A000EDD220001A251D96E0A
:1033E800DA6A020ED926DE50DE10D8B41CD0D9BB5A
:1033F80004D0000EB96F780E03D0000EB96F580EC6
:10340800B86FA251D96EDA6A020ED92601D828D02F
:103418000500FA6EDE50FD6EDE50FE6EF850FF6E4F
:10342800FA50B8511200D9BB04D0000EBB6F780E09
:1034380003D0000EBB6F580EBA6FA251D96EDA6A6C
:10344800DECFA7F0DDCFA8F0A7C0D9FFA8C0DAFF6C
:10345800BAC0DFFFA251D96EDA6ADE2A000EDD2279
:103468000001D451D511D8B46AD2A251D96EDA6A02
:10347800020ED926DE50DE10D8B412D0A251D96E71
:10348800DA6A020ED92601D81ED00500FA6EDE507F
:10349800FD6EDE50FE6EF850FF6EFA50300E1200D0
:1034A800A251D96EDA6ADECFA7F0DDCFA8F0A7C0A7
:1034B800D9FFA8C0DAFF300EDF6EA251D96EDA6AE2
:1034C800DE2A000EDD220001D407D8A0D507C9D70F
:1034D800D451D511D8A4D9B736D0A251D96EDA6A49
:1034E800020ED926DE50DE10D8B412D0A251D96E01
:1034F800DA6A020ED92601D81ED00500FA6EDE500F
:10350800FD6EDE50FE6EF850FF6EFA50200E12006F
:10351800A251D96EDA6ADECFA7F0DDCFA8F0A7C036
:10352800D9FFA8C0DAFF200EDF6EA251D96EDA6A81
:10353800DE2A000EDD220001D407D8A0D507D45119
:10354800D511D8A4CAD7D9C0A7F0030EA717D8B4E5
:1035580028D0A251D96EDA6A020ED926DE50DE10C2
:10356800D8B412D0A251D96EDA6A020ED92601D87F
:1035780048D00500FA6EDE50FD6EDE50FE6EF85043
:10358800FF6EFA502D0E1200A251D96EDA6ADECF04
:10359800A7F0DDCFA8F0A7C0D9FFA8C0DAFF2D0E8D
:1035A80029D0D9A12ED0A251D96EDA6A020ED92615
:1035B800DE50DE10D8B412D0A251D96EDA6A020EEB
:1035C800D92601D81ED00500FA6EDE50FD6EDE50F9
:1035D800FE6EF850FF6EFA50200E1200A251D96EFE
:1035E800DA6ADECFA7F0DDCFA8F0A7C0D9FFA8C060
:1035F800DAFF200EDF6EA251D96EDA6ADE2A000EDB
:10360800DD22C00E0001A76F080EA86FD9C0A9F06F
:10361800DAC0AAF0A751A917A851AA17400EA919EC
:103628002DE1080EAA19D8A429D0A251D96EDA6AB8
:10363800020ED926DE50DE10D8B412D0A251D96EAF
:10364800DA6A020ED92601D87AD10500FA6EDE5060
:10365800FD6EDE50FE6EF850FF6EFA50300E12000E
:10366800A251D96EDA6ADECFA7F0DDCFA8F0A7C0E5
:10367800D9FFA8C0DAFF300EDF6E5BD1C00EA76F8E
:10368800080EA86FD9C0A9F0DAC0AAF0A751A917E7
:10369800A851AA17800EA91903E1080EAA19D8A4DF
:1036A8004ED1A251D96EDA6A020ED926DE50DE104A
:1036B800D8B412D0A251D96EDA6A020ED92601D82E
:1036C8001ED00500FA6EDE50FD6EDE50FE6EF8501C
:1036D800FF6EFA50300E1200A251D96EDA6ADECFB0
:1036E800A7F0DDCFA8F0A7C0D9FFA8C0DAFF300E39
:1036F800DF6EA251D96EDA6ADE2A000EDD220001E1
:10370800A251D96EDA6A020ED926DE50DE10D8B47C
:103718001CD0D9BB04D0000EBD6F780E03D0000EAC
:10372800BD6F580EBC6FA251D96EDA6A020ED92647
:1037380001D805D10500FA6EDE50FD6EDE50FE6E32
:10374800F850FF6EFA50BC511200D9BB04D0000EDD
:10375800BF6F780E03D0000EBF6F580EBE6FA25118
:10376800D96EDA6ADECFA7F0DDCFA8F0A7C0D9FFFF
:10377800A8C0DAFFBEC0DFFFDCD0D6C0A7F0D7C034
:10378800A8F0D890A737A837D890A737A8377C0EC5
:10379800A725F66EEE0EA821F76E0900F5CF0FF0FB
:1037A8000900F5CF10F00900F5CF11F00A00F5CFA8
:1037B80012F0D0C00BF0D1C00CF0D2C00DF0D3C0C5
:1037C8000EF04FEC5FF00BC018F00CC019F00DC0F4
:1037D8001AF00EC01BF00A0E1C6E000E1D6E000EB5
:1037E8001E6E000E1F6E9EEC61F0185069D0D0C09E
:1037F8000BF0D1C00CF0D2C00DF0D3C00EF0D6C083
:10380800A7F0D7C0A8F0D890A737A837D890A7377F
:10381800A837520EA725F66EE10EA821F76E09000B
:10382800F5CF0FF00900F5CF10F00900F5CF11F032
:103838000A00F5CF12F04FEC5FF00B500F0BAF6F93
:10384800D9BB04D0D70EC06FF90E03D0C60EC06F17
:10385800F90EC16FAF51C025A76F000EC121A86F27
:10386800A7C0F6FFA8C0F7FF0800F5CFD8F039D0F9
:10387800D0C00BF0D1C00CF0D2C00DF0D3C00EF008
:10388800D6C0A7F0D7C0A8F0D890A737A837D89047
:10389800A737A837260EA725F66EE10EA821F76EE2
:1038A8000900F5CF0FF00900F5CF10F00900F5CFAA
:1038B80011F00A00F5CF12F04FEC5FF00B50070B38
:1038C800300FD86F0ED0D951C00B000AD8B455D7D5
:1038D800400AD8B4CDD7C00AD8B489D7400AD8B4DA
:1038E8004CD7A251D96EDA6A020ED926DE50DE1004
:1038F800D8B412D0A251D96EDA6A020ED92601D8EC
:103908001ED00500FA6EDE50FD6EDE50FE6EF850D9
:10391800FF6EFA50D8511200A251D96EDA6ADECF82
:10392800A7F0DDCFA8F0A7C0D9FFA8C0DAFFD8C09C
:10393800DFFFA251D96EDA6ADE2A000EDD2200010D
:10394800D607D8A0D707D629BEE1D729D8A4BBD790
:10395800D9B7D5BF3BD0D55103E1D405D8A036D0CF
:10396800A251D96EDA6A020ED926DE50DE10D8B41A
:1039780012D0A251D96EDA6A020ED92601D81ED009
:103988000500FA6EDE50FD6EDE50FE6EF850FF6EDA
:10399800FA50200E1200A251D96EDA6ADECFA7F0D3
:1039A800DDCFA8F0A7C0D9FFA8C0DAFF200EDF6ED0
:1039B800A251D96EDA6ADE2A000EDD220001D40790
:1039C800D8A0D507D451D511D8A4CAD70001A3517E
:1039D800A76FA451A86FA34BA42BA7C0F6FFA8C03C
:1039E800F7FFF86A0F0EF76403D00800F55005D00A
:1039F800F6CFE9FFF7CFEAFFEF500001D86FD851B3
:103A0800D8A45CEF0FF0000EA36F000EA26F120097
:103A1800E3EC42F0996F240E03016019D8A408D092
:103A2800C3EC22F0000E03015C6F000E5E6F120003
:103A38004F50D8B406D0000E03015C6F000E5E6FC5
:103A48001200E60E0101006FF70E016F2EEC65F013
:103A58000101C451D8A441D0000E9E6F25D0600E3C
:103A68000B6E030E0C6E920E9E25D96EDA6A030E4B
:103A7800DA22DF508B6F8B514B0D720EF3240D6ED3
:103A8800E10EF4200E6E00EC62F00B500C10D8A47E
:103A980009D0920E01019E25D96EDA6A030EDA2248
:103AA800DF50C46F01019E2BFF0E8B6FFF0E8C6FD2
:103AB80099518D6F8E6B8B518D278C518E239E5112
:103AC8008F6F906B8D518F5D9051800A916F8E51E1
:103AD800800A9159D8B046D2C2D703016051D8A400
:103AE80014D2000E0101C46F3DD2600E0001786F40
:103AF800030E796FE1EC65F078C09AF179C09BF11B
:103B08007AC09CF17BC09DF19AC123F09BC124F03F
:103B18009CC125F09DC126F0000E276E000E286E70
:103B2800C00E296E400E2A6E70EC59F0D8A014D041
:103B3800000E236E000E246EA00E256E420E266E19
:103B48009AC127F09BC128F09CC129F09DC12AF099
:103B580070EC59F0D8B008D08F0E0101006FF50E47
:103B6800016F2EEC65F0F8D1CAC37DF0CBC37EF0AF
:103B7800CCC37FF0CDC380F066EC5BF07DC087F0EE
:103B88007EC088F0A3EC65F087C015F088C016F0F9
:103B9800000E16BEFF0E176E186E010ECDEC51F01A
:103BA80015C03CF016C03DF017C03EF018C03FF0FD
:103BB800F7C340F0F8C341F0F9C342F0FAC343F049
:103BC80092EC45F03CC092F13DC093F13EC094F1B7
:103BD8003FC095F1000E276E000E286E200E296E4C
:103BE800410E2A6E9AC123F09BC124F09CC125F096
:103BF8009DC126F063EC3EF023C03CF024C03DF0AC
:103C080025C03EF026C03FF092C140F093C141F07C
:103C180094C142F095C143F092EC45F03CC0F7F3F3
:103C28003DC0F8F33EC0F9F33FC0FAF345EC44F069
:103C380093D1600E0B6E030E0C6E020E0D6EFB0E12
:103C48000E6E00EC62F00B500C10D8A402D0020EDD
:103C58000FD0600E0B6E030E0C6EB10E0D6EFC0EC7
:103C68000E6E00EC62F00B500C10D8A404D0010EBC
:103C78000101D26FDBD7600E0B6E030E0C6E5A0E6D
:103C88000D6EFC0E0E6E00EC62F00B500C10D8A4FA
:103C980063D1000E0101D26F45EC44F0000E526E64
:103CA8005BD1600E0B6E030E0C6EB10E0D6EFB0E2B
:103CB8000E6E00EC62F00B500C10D8A402D0010E6E
:103CC8001FD0600E0B6E030E0C6EAB0E0D6EFC0E4D
:103CD8000E6E00EC62F00B500C10D8A402D0020E4D
:103CE8000FD0600E0B6E030E0C6EFB0E0D6EFB0EEE
:103CF8000E6E00EC62F00B500C10D8A42DD1000E03
:103D0800536E94D7600E0B6E030E0C6EA50E0D6EDF
:103D1800FC0E0E6E00EC62F00B500C10D8A402D012
:103D2800010E0FD0600E0B6E030E0C6E610E0D6E41
:103D3800FC0E0E6E00EC62F00B500C10D8A40CD1E7
:103D4800000E0101D16F72D7000E9E6F600E0B6ED0
:103D5800030E0C6E9E51090D4F0EF3240D6EEE0EE0
:103D6800F4200E6E00EC62F00B500C10D8A404D0B6
:103D78009EC1D0F145EC44F001019E2B040E9E65D6
:103D8800E5D7EAD0000E9E6F600E0B6E030E0C6E28
:103D98009E510A0D1D0EF3240D6EEE0EF4200E6ECC
:103DA80000EC62F00B500C10D8A404D09EC1CFF1E7
:103DB80045EC44F001019E2B040E9E65E5D7CCD05E
:103DC800000E9E6F600E0B6E030E0C6E9E510A0D58
:103DD800A40EF3240D6EEE0EF4200E6E00EC62F0CD
:103DE8000B500C10D8A404D09EC1CBF145EC44F084
:103DF80001019E2B010E9E65E5D7AED0600E0B6EBD
:103E0800030E0C6EFB0E0D6EFB0E0E6E00EC62F0D8
:103E18000B500C10D8A402D0000E0FD0600E0B6E01
:103E2800030E0C6E530E0D6EFC0E0E6E00EC62F05F
:103E38000B500C10D8A490D0010E0101CE6FF6D60D
:103E4800000E9E6F600E0B6E030E0C6E9E51190DC8
:103E5800000EF3240D6E040EF4200E6E00EC62F0DA
:103E68000B500C10D8A409D09EC139F101013A6B4E
:103E7800C45180EC41F045EC44F001019E2B050E45
:103E88009E65E0D769D0600E0B6E030E0C6EEB0ECC
:103E98000D6EFC0E0E6E00EC62F00B500C10D8A4E8
:103EA80002D0000E0FD0600E0B6E030E0C6ED20EF9
:103EB8000D6EFC0E0E6E00EC62F00B500C10D8A4C8
:103EC8004BD0010E0101CD6FB1D6600E156E030EF9
:103ED800166ED8EC59F015C096F116C097F196C138
:103EE80039F197C13AF10101C45180EC41F0986F62
:103EF80045EC44F001019851D8A42ED0AC0E006FC7
:103F0800F70E016F2EEC65F027D00101C451020AAB
:103F1800D8B4F8D6010AD8B417D7050AD8B4C1D688
:103F28000C0AD8B42FD7010AD8B468D7060AD8B46F
:103F380080D6020AD8B4D9D51F0AD8B481D7010AC5
:103F4800D8B43ED7020AD8B49ED7070AD8B478D7CF
:103F5800020AD8B475D7B9D7000E0101C46FE3ECD3
:103F680042F0996F0E0EC465C2D2B40E006FF90EFE
:103F7800016FC4514B0D110EF326000EF422720E80
:103F8800F324026FE10EF420036FC451AFEC3CF050
:103F9800E9C004F1EAC005F12EEC65F0A8D2060EDE
:103FA800006FF10E016F2EEC65F05B0E0101006FE2
:103FB800FB0E016F2EEC65F0FD0E0101006FF40E93
:103FC800016F2EEC65F0E90E0101006FF70E016F2D
:103FD800030159510101026F036B02BF03072EEC65
:103FE80065F0530E0101006FF10E016F2EEC65F0C4
:103FF800000E01019E6FA2D00A0E006FFA0E016F2B
:10400800920E9E25D96EDA6A030EDA22DF508B6F84
:104018008B514B0D720EF324026FE10EF420036FE7
:10402800920E9E25D96EDA6A030EDA22DF508C6F63
:104038008C514B0D110EF326000EF422720EF32450
:10404800046FE10EF420056F2EEC65F0920E01016D
:104058009E25D96EDA6A030EDA220F0EDE18D8A46E
:1040680055D0CA0E006FF60E016FCAC33CF0CBC321
:104078003DF0CCC33EF0CDC33FF0000E406E000EC5
:10408800416E200E426E410E436E92EC45F03CC0EC
:1040980002F13DC003F13EC004F13FC005F1CEC3BB
:1040A8003CF0CFC33DF0D0C33EF0D1C33FF0000E8B
:1040B800406E000E416E200E426E410E436E92EC31
:1040C80045F03CC006F13DC007F13EC008F13FC0D5
:1040D80009F1D2C33CF0D3C33DF0D4C33EF0D5C3FD
:1040E8003FF0000E406E000E416E200E426E410EF3
:1040F800436E92EC45F03CC00AF13DC00BF13EC066
:104108000CF13FC00DF12EEC65F00FD0920E9E25FC
:10411800D96EDA6A030EDA22DF50AFEC3CF0E9C060
:1041280000F1EAC001F12EEC65F0E60E0101006F26
:10413800F70E016F2EEC65F001019E2BFF0E8B6FC1
:10414800FF0E8C6F99518D6F8E6B8B518D278C5113
:104158008E239E518F6F906B8D518F5D9051800A89
:10416800916F8E51800A9159D8A046D7F90E006FE9
:10417800FC0E016F2EEC65F05ED4AA0E006FF30EF4
:10418800016FC451AFEC3CF0E9C002F1EAC003F1A1
:104198002EEC65F050D46D0E006FF30E016FC45114
:1041A800AFEC3CF0E9C002F1EAC003F12EEC65F097
:1041B80042D4C50E006FEF0E016FFDC302F1FEC3BE
:1041C80003F12EEC65F037D4E30E006FF10E016FAA
:1041D800FBC302F1FCC303F12EEC65F02CD46A0E8C
:1041E800006FF00E016FE0C302F1E1C303F12EECA2
:1041F80065F021D4E70E006FF30E016FC451AFECE8
:104208003CF0E9C002F1EAC003F14F0E0101046F6E
:10421800EE0E056F2EEC65F0010E01019E6FEF0E9C
:10422800006FFC0E016F9E51090D4F0EF324026FB3
:10423800EE0EF420036F2EEC65F001019E2B040EA8
:104248009E65EDD7670E006FF20E016F2EEC65F0DC
:104258001FEF1DF0AE0E006FF20E016F2EEC65F031
:10426800610E0101006FF50E016F2EEC65F0280E4E
:104278000101006FF20E016FDAC102F1DBC103F137
:104288002EEC65F01FEF1DF09C0E006FF10E016F14
:10429800D6C102F1D7C103F12EEC65F01FEF1DF076
:1042A800AE0E006FF20E016F2EEC65F0610E01018B
:1042B800006FF50E016F2EEC65F0EE0E0101006F38
:1042C800F20E016FD8C102F1D9C103F12EEC65F0ED
:1042D8001FEF1DF0AE0E006FF20E016F2EEC65F0B1
:1042E800610E0101006FF50E016F2EEC65F06B0E8B
:1042F8000101006FF20E016FD4C102F1D5C103F1C3
:104308002EEC65F01FEF1DF0B90E006FF00E016F77
:10431800C451AFEC3CF0E9C002F1EAC003F12EEC65
:1043280065F01FEF1DF02E0E006FF30E016FC451E4
:10433800AFEC3CF0E9C002F1EAC003F11D0E010147
:10434800046FEE0E056F2EEC65F0010E01019E6FF5
:10435800EF0E006FFC0E016F9E510A0D1D0EF32427
:10436800026FEE0EF420036F2EEC65F001019E2B18
:10437800040E9E65EDD7670E006FF20E016F2EECEE
:1043880065F01FEF1DF00B0E006FEF0E016FC451AB
:10439800AFEC3CF0E9C002F1EAC003F12EEC65F0A5
:1043A8001FEF1DF0680E006FEF0E016FC451AFECE8
:1043B8003CF0E9C002F1EAC003F12EEC65F01FEF12
:1043C8001DF05A0E006FF40E016FCAC33CF0CBC348
:1043D8003DF0CCC33EF0CDC33FF0000E406E000E62
:1043E800416E200E426E410E436E92EC45F03CC089
:1043F80002F13DC003F13EC004F13FC005F12EECCF
:1044080065F01FEF1DF0A10E006FF90E016F000E91
:10441800026F040E036F2EEC65F0010E01019E6F12
:10442800EF0E006FFC0E016F9E51190D000EF32464
:10443800026F040EF420036F2EEC65F001019E2B31
:10444800060E9E65EDD7670E006FF20E016F2EEC1B
:1044580065F01FEF1DF0C80E006FF40E016F2EEC13
:1044680065F01FEF1DF01A0E006FF00E016F2EECB5
:1044780065F01FEF1DF0210E006FF40E016F2EEC9A
:1044880065F01FEF1DF0920E006FF40E016F2EEC19
:1044980065F01FEF1DF05B0E006FF80E016FC45141
:1044A8004B0D450EF326000EF422720EF324F66E21
:1044B800E10EF420F76E0900F5CF02F10A00F5CFFE
:1044C80003F1C4514B0D470EF326000EF422720E71
:1044D800F324F66EE10EF420F76E0900F5CF04F12F
:1044E8000A00F5CF05F12EEC65F01FEF1DF0010174
:1044F800C451000AD8B453D5020AD8B43ED6010A2A
:10450800D8B478D6070AD8B4BFD6010AD8B4E2D648
:10451800030AD8B4F9D6010AD8B44BD60F0AD8B4CE
:1045280053D6010AD8B45BD6030AD8B4FCD6010A1C
:10453800D8B429D7070AD8B4B3D6010AD8B42BD629
:10454800030AD8B487D6010AD8B43BD71F0AD8B40F
:104558005AD7010AD8B426D7020AD8B47CD7070A92
:10456800D8B451D7020AD8B44ED70E0AD8B47BD7DC
:10457800010AD8B480D7020AD8B485D78CD7000EE0
:104588000101796F000E0C6E640E0B6E21EC64F065
:10459800000E01018A6F000E896F1ED0600E8925FA
:1045A800D96E030E8A21DA6E5E0EDE18D8B42BD0CF
:1045B800600E8925D96E030E8A21DA6E2A0EDE185E
:1045C800D8B421D0600E8925D96E030E8A21DA6EFF
:1045D800DF50791B894B8A2BFE0E436FFF0E446F09
:1045E80003015C510101456F466B43514527445116
:1045F80046234551895D8A51800A476F4651800A92
:104608004759D8A0CBD78ABF06D08A510BE1020EF2
:10461800895DD8B007D0F30E0E6FFC0E0F6F4AEC11
:1046280060F01200600E8925D96E030E8A21DA6EB9
:104638005E0EDE18D8A41ED0610E8925176E030EF3
:104648008A21186E000E196E000E1A6E000E1C6E6E
:10465800100E1B6EB0EC4EF017500101706F7951BF
:104668007019D8B40ED0F30E0E6FFC0E0F6F4AEC13
:1046780060F01200F30E0E6FFC0E0F6F4AEC60F044
:1046880012000A0E4F6E470E03016119D8B437D3D2
:1046980065D3CD0E01010E6FFC0E0F6F4AEC60F072
:1046A8001200450E01010E6FFC0E0F6F4AEC60F010
:1046B8001200030E01010E6FFC0E0F6FD4C110F132
:1046C800D5C111F14AEC60F01200F30E01010E6F32
:1046D800FC0E0F6F4AEC60F01200DF0E01010E6F46
:1046E800FA0E0F6FD6C390F0D7C391F0000E0001F9
:1046F800936F0A0E926F08EC63F090C010F191C0AE
:1047080011F1030E0101136F3D0E126F4AEC60F0B8
:104718001200A80E01010E6FFB0E0F6F4AEC60F03D
:104728001200C2C323F0C3C324F0C4C325F0C5C319
:1047380026F0BEC327F0BFC328F0C0C329F0C1C309
:104748002AF070EC59F0D8A023D0C6C323F0C7C311
:1047580024F0C8C325F0C9C326F0C2C327F0C3C3D9
:1047680028F0C4C329F0C5C32AF070EC59F0D8A0CA
:1047780005D0C60E0101776F030E04D0C20E0101E9
:10478800776F030E786F77C175F178C176F105D030
:10479800BE0E0101756F030E766FCA51D8A41CD0E6
:1047A800D6C30FF0D7C310F0000E126E640E116E50
:1047B80007EC66F00FC015F010C016F0176A186AFB
:1047C800000ECDEC51F015C071F116C072F117C092
:1047D80073F118C074F146D0B2C371F0B3C372F06C
:1047E800B4C373F0B5C374F0B6C36DF0B7C36EF05D
:1047F800B8C36FF0B9C370F0F9EC3FF06DC048F181
:104808006EC049F16FC04AF170C04BF1BAC371F084
:10481800BBC372F0BCC373F0BDC374F048C16DF084
:1048280049C16EF04AC16FF04BC170F0F9EC3FF02E
:104838006DC023F06EC024F06FC025F070C026F064
:10484800000E276E000E286EC80E296E420E2A6EC4
:1048580063EC3EF023C071F124C072F125C073F1FE
:1048680026C074F171C17DF072C17EF073C17FF012
:1048780074C180F066EC5BF07DC06CF17EC06DF1B8
:1048880075C1D9FF76C1DAFFDECF23F0DECF24F081
:10489800DECF25F0DECF26F0000E276E000E286E44
:1048A8007A0E296E440E2A6E63EC3EF023C083F123
:1048B80024C084F125C085F126C086F1D40E0101FB
:1048C8000E6FFA0E0F6F6CC110F16DC111F183C13B
:1048D80012F184C113F185C114F186C115F14AECB6
:1048E80060F01200BD0E01010E6FFC0E0F6F000E7E
:1048F800116F000E106F4AEC60F0120059510F6EE4
:10490800106A0FBE1006000E126E0A0E116E07EC2A
:1049180066F00FC06EF110C06FF1860E01010E6FC8
:10492800FA0E0F6F6EC110F16FC111F1F60E136F11
:10493800000E126FF60E156F000E146F4AEC60F041
:104948001200BA0E01010E6FFB0E0F6F9CEC63F0A4
:104958000101436F4351106F116B38C312F139C312
:1049680013F14AEC60F01200F30E01010E6FFC0E19
:104978000F6F4AEC60F01200000E276E000E286ED2
:10498800610E296E450E2A6E1CC323F01DC324F048
:104998001EC325F01FC326F063EC3EF023C04CF184
:1049A80024C04DF125C04EF126C04FF14CC123F073
:1049B8004DC124F04EC125F04FC126F0000E276EE0
:1049C800000E286E7A0E296E440E2A6E63EC3EF0B5
:1049D80023C083F124C084F125C085F126C086F167
:1049E80014C323F015C324F016C325F017C326F00B
:1049F800000E276E000E286E7A0E296E440E2A6E5F
:104A080063EC3EF023C07AF124C07BF125C07CF131
:104A180026C07DF16D0E01010E6FFA0E0F6F83C176
:104A280010F184C111F185C112F186C113F17AC167
:104A380014F17BC115F17CC116F17DC117F14AEC67
:104A480060F012008E0E01010E6FF90E0F6F5B0EF3
:104A5800106FFB0E116F9F0E126FFC0E136F4AEC56
:104A680060F01200BD0E01010E6FFC0E0F6FD2C177
:104A780010F1116B4AEC60F01200CAC323F0CBC3EB
:104A880024F0CCC325F0CDC326F0000E276E000E0F
:104A9800286EC80E296E420E2A6E63EC3EF023C0C3
:104AA80050F124C051F125C052F126C053F1CEC3B4
:104AB80023F0CFC324F0D0C325F0D1C326F0000ED5
:104AC800276E000E286EC80E296E420E2A6E63EC01
:104AD8003EF023C083F124C084F125C085F126C0AF
:104AE80086F1D2C323F0D3C324F0D4C325F0D5C3B1
:104AF80026F0000E276E000E286EC80E296E420E94
:104B08002A6E63EC3EF023C07AF124C07BF125C005
:104B18007CF126C07DF1B2C323F0B3C324F0B4C343
:104B280025F0B5C326F0000E276E000E286EC80EBD
:104B3800296E420E2A6E63EC3EF023C054F124C065
:104B480055F125C056F126C057F1B6C323F0B7C3B7
:104B580024F0B8C325F0B9C326F0000E276E000E66
:104B6800286EC80E296E420E2A6E63EC3EF023C0F2
:104B780058F124C059F125C05AF126C05BF1BAC3D7
:104B880023F0BBC324F0BCC325F0BDC326F0000E40
:104B9800276E000E286EC80E296E420E2A6E63EC30
:104BA8003EF023C05CF124C05DF125C05EF126C053
:104BB8005FF1BEC323F0BFC324F0C0C325F0C1C357
:104BC80026F0000E276E000E286E7A0E296E440E0F
:104BD8002A6E63EC3EF023C060F124C061F125C069
:104BE80062F126C063F1C2C323F0C3C324F0C4C377
:104BF80025F0C5C326F0000E276E000E286E7A0E2B
:104C0800296E440E2A6E63EC3EF023C064F124C082
:104C180065F125C066F126C067F1C6C323F0C7C396
:104C280024F0C8C325F0C9C326F0000E276E000E75
:104C3800286E7A0E296E440E2A6E63EC3EF023C06D
:104C480068F124C069F125C06AF126C06BF1310E04
:104C580001010E6FF50E0F6F50C110F151C111F126
:104C680052C112F153C113F183C114F184C115F17A
:104C780085C116F186C117F17AC118F17BC119F106
:104C88007CC11AF17DC11BF154C11CF155C11DF144
:104C980056C11EF157C11FF158C120F159C121F168
:104CA8005AC122F15BC123F15CC124F15DC125F138
:104CB8005EC126F15FC127F160C128F161C129F108
:104CC80062C12AF163C12BF164C12CF165C12DF1D8
:104CD80066C12EF167C12FF168C130F169C131F1A8
:104CE8006AC132F16BC133F14AEC60F01200F30E85
:104CF80001010E6FFC0E0F6F4AEC60F0120062515A
:104D0800330AD8B4C6D4720AD8B4CBD4020AD8B4F9
:104D1800D0D4070AD8B4D9D4010AD8B4DED4030A47
:104D2800D8B4F7D4010AD8B4FCD40F0AD8B4DAD569
:104D3800180AD8B4E3D5030AD8B403D6070AD8B4F6
:104D480013D6010AD8B418D6030AD8B47BD60E0AEB
:104D5800D8B488D6010AD8B490D6C9D7460E6119F6
:104D6800D8B4A0D0BCD0F60E01010E6FFC0E0F6FA8
:104D78004AEC60F0FF001200F60E01010E6FFC0E07
:104D88000F6F4AEC60F01200F30E01010E6FFC0E7B
:104D98000F6F4AEC60F01200F60E01010E6FFC0E68
:104DA8000F6F4AEC60F0000E03014F6F010E546E56
:104DB8004F50D8A408D07B0E0101006FF90E016F87
:104DC8002EEC65F012009CEC63F00101806F8051BD
:104DD800C819D8B41200130E0E6FFC0E0F6F80C1E5
:104DE80010F1116B4AEC60F080C1C8F11200F60EA8
:104DF80001010E6FFC0E0F6F4AEC60F0010E03010B
:104E08004F6F4F50D8A408D07B0E0101006FF90EE8
:104E1800016F2EEC65F012009CEC63F00101816FCC
:104E28008151C819D8B41200130E0E6FFC0E0F6F03
:104E380081C110F1116B4AEC60F081C1C8F1120018
:104E4800F60E01010E6FFC0E0F6F4AEC60F0010EBA
:104E5800546E3C0E506E4F50D8A408D07B0E010102
:104E6800006FF90E016F2EEC65F012009CEC63F0F8
:104E78000101826F8251C819D8B41200130E0E6F47
:104E8800FC0E0F6F82C110F1116B4AEC60F082C109
:104E9800C8F11200F30E01010E6FFC0E0F6F4AEC01
:104EA80060F012006251300AD8B466D7010AD8B44B
:104EB80063D7730AD8B460D7060AD8B46DD7010A85
:104EC800D8B495D7030AD8B45FD7160AD8B454D73C
:104ED800020AD8B448D7010AD8B4B2D7DBD7530EE0
:104EE8006119D8B4BED0C8D0050E5C6557D0630E22
:104EF800156E030E166ED8EC59F015C087F116C062
:104F080088F1010188BF1BD0885104E1060E875D36
:104F1800D8A015D08751DA5D8851DB59D8A00FD0B9
:104F280087C1D8F188C1D9F1BD0E0E6FFC0E0F6F85
:104F3800D8C110F1D9C111F14AEC60F021D088BF75
:104F480006D0885109E1060E875DD8B005D0000E5D
:104F5800D96F060ED86F0AD08751DA5D8851DB59B0
:104F6800D8B004D0DAC1D8F1DBC1D9F1B70E0E6FD1
:104F7800FC0E0F6FD8C110F1D9C111F14AEC60F0E5
:104F88005C0E03015C25D96EDA6A030EDA22560E2E
:104F9800DE18D8B4120045EC44F01200B70E010137
:104FA8000E6FFC0E0F6FD8C110F1D9C111F14AEC88
:104FB80060F01200F30E01010E6FFC0E0F6F4AEC49
:104FC80060F01200050E5C653CD0630E156E030E92
:104FD800166ED8EC59F015C07EF116C07FF10101AC
:104FE8007FBF28D07FBF06D07F5124E1030E7E5DAE
:104FF800D8B020D07EC1D2F1000E506E000E030151
:105008004C6F0101D005D8A40DD0D251D8B40AD024
:10501800000E316EA80E306ED2C132F0336A000E27
:1050280095EC64F0F60E01010E6FFC0E0F6F4AEC62
:1050380060F01200F30E0E6FFC0E0F6F4AEC60F07A
:105048001200F30E01010E6FFC0E0F6F4AEC60F0B8
:105058001200F30E01010E6FFC0E0F6F4AEC60F0A8
:1050680012006251430AD8B43FD70F0AD8B4A2D766
:10507800140AD8B4A7D7EDD7F30E01010E6FFC0EB2
:105088000F6F4AEC60F012000101C251D8B409D088
:10509800C32B790EC319D8A41200000EC26FD7EC27
:1050A80046F00A0E0101C319D8A402D0000EC36F3E
:1050B8005250D8B4E5D089863C0E03015A6F52A2EB
:1050C80021D0840E0001A36FFB0EA46F000E6DECBF
:1050D80052F0A80E0001A36FFA0EA46F020E6DEC39
:1050E80052F07B0E0001A36FFC0EA46F040E6DEC52
:1050F80052F0290E0001A36FFC0EA46F060E6DEC92
:1051080052F0120052A421D0F40E0001A36FFA0E3F
:10511800A46F000E6DEC52F0810E0001A36FFC0E1F
:10512800A46F020E6DEC52F0720E0001A36FFB0E1D
:10513800A46F040E6DEC52F0C30E0001A36FFB0EBA
:10514800A46F060E6DEC52F0120052A849D001016E
:10515800C32BC305436F050E436121D07B0E0001AD
:10516800A36FFB0EA46F000E6DEC52F0930E0001BE
:10517800A36FFC0EA46F020E6DEC52F0D30E00016B
:10518800A36FFB0EA46F040E6DEC52F0690E0001C4
:10519800A36FFB0EA46F060E6DEC52F01200870E83
:1051A8000001A36FFC0EA46F000E6DEC52F0300EE0
:1051B8000001A36FFC0EA46F020E6DEC52F0930E6B
:1051C8000001A36FFB0EA46F040E6DEC52F08D0E60
:1051D8000001A36FFC0EA46F060E6DEC52F01200D6
:1051E80052AC3BD0E30E0001A36FFB0EA46F020E7E
:1051F8006DEC52F0920E0001A36FFA0EA46F040E2C
:105208006DEC52F0000E0301336F640E326F0A0E1C
:105218000F6E0101C0515DEC64F00101436F300E67
:1052280043250001996F9A6B000E9A2327EC51F0E1
:105238000A0E0B6E0101C051B8EC65F00101436F15
:10524800300E43250001996F9A6B000E9A2327ECC4
:1052580051F0040E2FEC62F0120052AE11D0B30ED2
:105268000001A36FFA0EA46F020E6DEC52F0BE0E91
:105278000001A36FFA0EA46F040E6DEC52F0120039
:10528800500E0101C019D8A411D0E30E0001A36F7C
:10529800FB0EA46F020E6DEC52F03E0E0001A36FE0
:1052A800FC0EA46F040E6DEC52F01200C32BD25109
:1052B800D8B404D003014F51D8A4E4D0000E106E26
:1052C800000E83EC66F0040E106E010E83EC66F09F
:1052D800100E106E060E83EC66F0000E106E070EB0
:1052E80083EC66F052A011D0CB0E0001A36FFB0E29
:1052F800A46F020E6DEC52F0080E0001A36FFB0EB6
:10530800A46F040E6DEC52F0E7D3030E5418D8A422
:105318004BD089863C0E03015A6F720E0001A36FB1
:10532800FB0EA46F020E6DEC52F0D6C315F0D7C376
:1053380016F0176A186A000ECDEC51F015C03CF053
:1053480016C03DF017C03EF018C03FF0000E406E8A
:10535800000E416E200E426E410E436E92EC45F0F7
:105368003CC052F13DC053F13EC054F13FC055F12D
:10537800460EE96F010EEA6F620EEB6FFB0EEC6FE3
:1053880052C1EDF053C1EEF054C1EFF055C1F0F049
:10539800010EF16FB5EC4BF0460EA36F010EA46F32
:1053A800040E6DEC52F098D35404D8A41AD0030E0E
:1053B8000101C619D8B415D0020EC619D8B411D037
:1053C800DB0E0001A36FFB0EA46F020E6DEC52F012
:1053D800EA0E0001A36FFA0EA46F040E6DEC52F0F2
:1053E8007BD303014F51D8B43CD08D0E0001A36F7D
:1053F800FB0EA46F020E6DEC52F04E0E0001A36F6F
:10540800FB0EA46F040E6DEC52F05050D8B464D368
:10541800000E0301336F640E326F0A0E0F6E505088
:105428005DEC64F00101436F300E43250001996F74
:105438009A6B000E9A2327EC51F00A0E0B6E50500F
:10544800B8EC65F00101436F300E43250001996FF8
:105458009A6B000E9A2327EC51F0040E2FEC62F0A1
:105468003BD3370E0001A36FFC0EA46F020E6DEC48
:1054780052F0220E0001A36FFC0EA46F040E6DEC17
:1054880052F02AD30101D205D8B404D0020ED219A1
:10549800D8A422D3C9EC64F0D205D8A418D0000E41
:1054A800566F0C0E566501D012D01D0E5625D96EBA
:1054B800DA6A060EDA22000EDF6E9D0E5625D96EC8
:1054C800DA6A060EDA22000EDF6E562BEAD70301DF
:1054D8004C51D8A411D0000E0101566F070E566525
:1054E80001D05AD02F0E5625D96EDA6A060EDA2266
:1054F800000EDF6E562BF2D7FBC30FF0FCC310F083
:10550800000E126E3C0E116E07EC66F00FC050F1E3
:1055180010C051F1030134510101505D506F030176
:10552800355101015159516F50C190F051C191F05D
:10553800000E0001936F3C0E926F08EC63F090C070
:1055480044F191C045F150C18BF051C18CF0000E6F
:105558008E6F3C0E8D6FBFEC63F08BC050F18CC02A
:1055680051F1460EDB6F010EDC6F120EDD6FFB0E84
:10557800DE6F44C1DFF045C1E0F050C1E1F051C138
:10558800E2F040EC64F0000E1D6E460E1E6E010E39
:105598001F6E640ECCEC5EF003013FAF07D0030E24
:1055A800F55F140EF56109D02C0E06D0030EF52711
:1055B8002C0EF56502D0140EF56FF5C332F3336B7C
:1055C800000EDF6F030EDE6F3EC387F03FC388F027
:1055D800A3EC65F088BF0CD0885104E1040E875D08
:1055E800D8A006D0000E166EFE0E156E07EC5BF006
:1055F8000101CA51D8B427D0460E0001E96F010E47
:10560800EA6FEB0EEB6FFB0EEC6F1CC3EDF01DC3E6
:10561800EEF01EC3EFF01FC3F0F0010EF16FB5EC12
:105628004BF0000E1D6E460E1E6E010E1F6E640EB0
:10563800CCEC5EF0010E1D6ED70E1E6EFC0E1F6EBA
:105648006A0ECCEC5EF0030E5418D8A4A8D0898654
:105658003C0E03015A6F030EF427590EF46502D06D
:105668004A0EF46FF4C332F3336B000EDF6F030E90
:10567800DE6F000E166EFE0E156E07EC5BF0010174
:10568800CA51D8B44CD0020ED219D8B448D0000EA2
:10569800566F020E566501D082D05651040DB20ED7
:1056A800F324D96E030EF420DA6EDECF3CF0DECFA1
:1056B8003DF0DECF3EF0DECF3FF0000E406E000E34
:1056C800416E200E426E410E436E92EC45F03CC096
:1056D80052F13DC053F13EC054F13FC055F1460E62
:1056E800E96F010EEA6FC80EEB6FFC0EEC6F52C14A
:1056F800EDF053C1EEF054C1EFF055C1F0F0000EDB
:10570800F16FB5EC4BF056C11DF0460E1E6E010E42
:105718001F6E4D0ECCEC5EF00101562BBAD7D6C3E6
:1057280015F0D7C316F0176A186A000ECDEC51F0C1
:1057380015C03CF016C03DF017C03EF018C03FF051
:10574800000E406E000E416E200E426E410E436EFA
:1057580092EC45F03CC052F13DC053F13EC054F1CB
:105768003FC055F1460EE96F010EEA6FC80EEB6FA8
:10577800FC0EEC6F52C1EDF053C1EEF054C1EFF0E6
:1057880055C1F0F0000EF16FB5EC4BF0020E1D6E36
:10579800460E1E6E010E1F6E4D0ECCEC5EF0050E11
:1057A8000101C36157D0020ED219D8A453D0000EFC
:1057B8000301336F290E326F000EDF6F010EDE6FAB
:1057C800000E166EE30E156E07EC5BF03EC315F087
:1057D8003FC316F0000E16BEFF0E176E186E010EB0
:1057E800CDEC51F015C03CF016C03DF017C03EF0AE
:1057F80018C03FF0000E406E000E416E200E426E43
:10580800410E436E92EC45F03CC052F13DC053F15D
:105818003EC054F13FC055F1460EE96F010EEA6FE4
:10582800C30EEB6FFC0EEC6F52C1EDF053C1EEF0FE
:1058380054C1EFF055C1F0F0000EF16FB5EC4BF02C
:10584800020E1D6E460E1E6E010E1F6E170ECCEC5C
:105858005EF048D0000E566F020E566501D042D059
:105868005651040DCA0EF324D96E030EF420DA6ED5
:10587800DECF3CF0DECF3DF0DECF3EF0DECF3FF0B6
:10588800000E406E000E416E200E426E410E436EB9
:1058980092EC45F03CC052F13DC053F13EC054F18A
:1058A8003FC055F1460EE96F010EEA6FC30EEB6F6C
:1058B800FC0EEC6F52C1EDF053C1EEF054C1EFF0A5
:1058C80055C1F0F0000EF16FB5EC4BF056C11DF06C
:1058D800460E1E6E010E1F6E170ECCEC5EF0010117
:1058E800562BBAD7000EB6EC57F0000E106E040E09
:1058F80083EC66F052A016D0050E0101C36109D0F1
:10590800CB0E0001A36FFB0EA46F050E6DEC52F0D9
:10591800DED0080E0001A36FFB0EA46F050E6DEC20
:1059280052F0D5D052AA16D0050E0101C36109D094
:10593800CB0E0001A36FFB0EA46F050E6DEC52F0A9
:10594800C6D0FE0E0001A36FFA0EA46F050E6DEC13
:1059580052F0BDD05050D8B41DD05404D8B404D09F
:10596800020E5418D8A416D0460E0001DB6F010EA3
:10597800DC6F960EDD6FFB0EDE6F50C0DFF0E06B64
:1059880040EC64F0460EA36F010EA46F050E6DEC9B
:1059980052F09DD05404D8A412D0030E0101C619A8
:1059A800D8B40DD0020EC619D8B409D0990E00018A
:1059B800A36FFC0EA46F050E6DEC52F088D0020E9A
:1059C8005418D8B40CD05404D8A412D0030E010132
:1059D800C619D8B404D0020EC619D8A409D0EA0E44
:1059E8000001A36FFA0EA46F050E6DEC52F06FD094
:1059F800030E5418D8A46BD089863C0E03015A6F45
:105A0800070E0101C36125D0040EC36119D0D2511C
:105A1800D8B416D0020ED219D8A409D0020E0001AB
:105A2800A36FFB0EA46F050E6DEC52F050D0B10EB3
:105A38000001A36FFC0EA46F050E6DEC52F047D069
:105A4800720E0001A36FFB0EA46F050E6DEC52F0F1
:105A58003ED0D6C315F0D7C316F0176A186A000EE1
:105A6800CDEC51F015C03CF016C03DF017C03EF02B
:105A780018C03FF0000E406E000E416E200E426EC0
:105A8800410E436E92EC45F03CC052F13DC053F1DB
:105A98003EC054F13FC055F1460EE96F010EEA6F62
:105AA800600EEB6FFB0EEC6F52C1EDF053C1EEF0E0
:105AB80054C1EFF055C1F0F0010EF16FB5EC4BF0A9
:105AC800460EA36F010EA46F050E6DEC52F0000E8A
