:0400000036EF01F0E6
:100008005B82D9CF03F0DACF04F025D0AECFBCF0B5
:10001800320E0001A11901E1A1077E0EBC1907E10A
:10002800070EA16502D0A1C09FF0A16B14D07D0E70
:10003800BC1903E1010E9F6F0ED09F0503E19F6B72
:10004800200EBC1BA20EA125D96EDA6A010EDA2297
:10005800BCC0DFFFA12B9EBAD9D79EB89DA846D0B9
:10006800000E00019D25D96EDA6A010EDA22DF50F2
:10007800A26FA2C0ADFF9D5103E07E0EA21903E05E
:10008800310E9D1903E19D989D6B30D09D2B2ED08C
:1000980071B4D0A209D05A0407E174CFBCF00001B2
:1000A800BC5104E1FF0002D074CFBCF0BCC073FFA8
:1000B800320E0001A01901E1A007080EBC1904E1E5
:1000C800A05102E0A00712D00D0EBC1903E00A0EE1
:1000D800BC1903E1BC6BA0299E6F700EA025D96ED8
:1000E800DA6A010EDA22BCC0DFFFA02BA4BAD0D78F
:1000F800B1D00001C00550E1575003E1030E5A1872
:1001080025E02C0E805D010E815902E2899801D00C
:100118008988898A8051016E8151026E804B812BBA
:10012800910E015C010E02580EE382B208D0890ECE
:10013800805D130E815907E3806B816B04D0010E3B
:10014800816F900E806F826B836B6FD02C0E825DF7
:10015800010E835903E28988899A02D08988898A9D
:100168008251016E8351026E824B832B910E015C8A
:10017800010E02580EE382A208D0890E825D130E8A
:10018800835907E3826B836B04D0010E836F900E53
:10019800826F806B816B49D0020EC01946E15750BF
:1001A80003E1030E5A1820E0580E805D020E8159B3
:1001B80002E2899801D08988898A8051016E81512B
:1001C800026E804B812BBD0E015C020E0258BBE310
:1001D80082A206D0890E805D130E8159ADE2B3D795
:1001E800020E816FBC0EAED7580E825D020E835987
:1001F80003E28988899A02D08988898A8251016EA6
:100208008351026E824B832BBD0E015C020E025895
:10021800C0E382B206D0890E825D130E8359B2E222
:10022800B8D7020E836FBC0EB3D7702B000E7123A4
:10023800722373237E517F1103E07E07D8A07F07C6
:100248009307932906E190C067FF0A0E936F010E8A
:10025800926F7E907EB04DD704C0DAFF03C0D9FFFD
:100268005B921100D1EF24F00101DA6B050ED76F14
:10027800D66BD56BD46B96EC21F041EC21F00A0ECD
:100288000001BA03F3CFF0F0F4CFF1F0BB03F35061
:10029800F127F0C084F0F1C085F09AEC24F0ECEC82
:1002A80026F0D0820001945102E0D1EC1EF09E515C
:1002B80002E069EC07F09D5102E1ACB28A9AD2ECF7
:1002C80022F0A30E946E00F000F08250210B010181
:1002D800DF6FDF39E8461F0B0001F86F0101DF51BE
:1002E800DF25020B0001F8138150010BF813820E71
:1002F800946E070EF81903E1F751F81903E0F85165
:1003080096EC0DF0985119E0880E6C25F06F130EDD
:100318006D21F16F000E6E21F26F000E6F21F36FE9
:100328007051F05D7151F1597251F2597351F3598D
:1003380004E2975102E1F6EC1AF081B432D00101DF
:10034800D42BD4050001F06F050EF0652CD07E513A
:100358007F1124E1BE5112E08F5104E08F6B010E32
:100368005A6E02D0010E8F6FFA0EC16FFA0EC26F6D
:100378008FC0C3F0C46B4AEC18F009D0030E5A18AA
:1003880006E1010E5A6E945102E10F0E966FBD05FB
:1003980005E1050E571802E181A2576A7F6BC80E66
:1003A8007E6F0101D46B0001BD0507E181A205D074
:1003B800010E5A6E050E576E9A6B050E5A1819E102
:1003C8007351721105E1E90E705D030E715911E365
:1003D800010E106E116A126A58049BEC25F0220E69
:1003E800C16FF70EC26F4AEC18F0706B716B726BCD
:1003F800736B5A047CE1BD6A82848A98746B70ECD2
:1004080025F00101DD6FDD0502E10001966B020EAA
:100418000101DD196CE1020E0001A31964E18F519D
:1004280002E1BE5160E10101DA2BDA050001F06F4B
:10043800190EF0655CD056EC1FF0E80602E1040ED8
:10044800576E965154E1575052E10101D66B19ECA1
:1004580023F0C30EC16FF80EC26F8AC0C3F08BC001
:10046800C4F0B8C0C5F0B9C0C6F04AEC18F0B8512D
:100478008A5DB9518B5905E28AC088F08BC089F032
:1004880004D0B8C088F0B9C089F0010E586419D0FA
:10049800020E106E116A88C012F058049BEC25F009
:1004A800DC0EC16FF70EC26F88C0C3F089C0C4F0FC
:1004B8004AEC18F0060E5A6E706B716B726B736BA8
:1004C80016D08AC032F18BC033F1010E746F020E60
:1004D8005A6E1E0E9B6F8986D30EC16FFA0EC26FBD
:1004E8004AEC18F004D0020EA36F0101DA6B060E75
:1004F8005A180BE100017351721105E1E90E705DA4
:10050800030E715902E3010E5A6E020E5A1801E0E9
:10051800A6D0070EBC648FD0180EBC608CD070ECCF
:1005280025F00101DD6FDD0524E10001A3051CE1D3
:100538000101DA2BDA050001F06F190EF0657BD0A6
:10054800010E5A6EB90EC16FFA0EC26F4AEC18F05E
:10055800010E586470D0050E5A6EE90E706F030EC6
:10056800716F726B736B67D0010EA36F0101DA6B49
:1005780062D0030EDD195AE1030E0001A31953E1FD
:100588000101D60550E1DA2BDA050001F06F190EEA
:10059800F06551D057504FE196514DE1010E586426
:1005A80019D0030E106E116A88C012F058049BEC23
:1005B80025F0FF0EC16FF70EC26F88C0C3F089C067
:1005C800C4F04AEC18F0070E5A6E706B716B726BC0
:1005D800736B31D088C032F189C033F156EC1FF00B
:1005E80000091EE1020E746F606B616B010E68EC0E
:1005F80014F08A880101D66B030E5A6E00019A6BBB
:10060800706B716B726B736B985102E140EC12F076
:10061800E00E0001C16FFA0EC26F4AEC18F00BD061
:10062800040E576E08D0030E00019FD7020E00017A
:10063800A31901E0A36BE60EBC6411D0F10EBC64F3
:10064800FDD7BC6401D0BC5070EC25F00101DD6F12
:10065800040EDD1903E1010ED66F01D0D66B070E2B
:100668005A1814E100017351721105E1E90E705D29
:10067800030E71590BE30101D66B020E5A6EFE0E82
:100688000001C16FF90EC26F4AEC18F0030E5A1838
:1006980068E1070EBC6465D0180EBC6062D070ECCF
:1006A80025F00101DD6FDD0502E0DD512AE10001E1
:1006B800A30522E10101DA2BDA050001F06F190E1A
:1006C800F0654FD0010E5A6EC60EC16FFA0EC26F9A
:1006D8004AEC18F09AEC24F0010E58640AD0050E82
:1006E8005A6EE90E0001706F030E716F726B736BB7
:1006F80038D00001746B35D0010EA36F0101DA6B9D
:1007080030D0020EDD192BE1020E0001A31925E1FC
:100718000101DA2BDA050001F06F190EF06521D01E
:100728008A989AEC24F00101D66B020E5A6E010EDB
:1007380058640AD0080E5A6EE90E0001706F030E55
:10074800716F726B736B02D00001746B060EC16F10
:10075800FA0EC26F4AEC18F004D0020ECED7000190
:10076800A36B080E5A181AE100017351721105E1C2
:10077800E90E705D030E715911E3040E106E116AD3
:10078800126A58049BEC25F0480EC16FF70EC26F31
:100798004AEC18F0706B716B726B736B040E571820
:1007A8000EE10001965106E1650EC16FF80EC26FA9
:1007B8004AEC18F0010E576E5A6E3C0E966FABA2BB
:1007C80002D0AB98AB8871A202D071987188D6CF4D
:1007D800DFF13C0ED7647BD0D76AD66AF1EC25F0FE
:1007E800965101E09607370E996104D0030E571809
:1007F80001E1576A570408E1020E586005D056EC2B
:100808001FF0000901E1576A0101D7511AE1575059
:1008180018E1020E576E010E5A6EE10E0001C16F0B
:10082800F80EC26F4AEC18F00101DF6B030EDF65AA
:1008380001D00AD0DF51740FD96EDA6ADF6ADF2B74
:10084800F5D7D75101E0D707400E0001996517D0B9
:10085800030E576E010E5A6E8A0EC16FF90EC26FE3
:100868004AEC18F00101DF6B030EDF6501D007D0F9
:10087800DF51740FD96EDA6ADF6ADF2BF5D740ECE7
:1008880012F0595024E10001866B876B0101D551A4
:1008980001E0D507020E58601AD0D55118E1000EB4
:1008A80068EC14F0580402E1EAEC21F0020E5A1840
:1008B80003E0030E5A1806E160C041F061C042F03F
:1008C80046EC1EF0020E0101D56F0A0ED76F010E1D
:1008D80000019F65E7D4A20E056E010E066E9FC04B
:1008E80007F062EC24F005C08CF006C08DF00A0E0B
:1008F80000019F650DD1500E0101A41901E008D136
:10090800A50501E005D1470E00018C1903E10F0E82
:100918008D19D8A4FDD0060E0101D96F0001866B90
:10092800876B030E0101A76501D0A76FDF6B99D014
:10093800DF51040DF350A40FD86FA20ED925D96E3C
:10094800DA6A010EDA22D851E16EE26ADFCFE7FFF8
:10095800D92BD82BA20ED925D96EDA6A010EDA2244
:10096800D851E16EE26ADFCFE7FFD92BD82BA20E70
:10097800D925D96EDA6A010EDA22D851E16EE26A17
:10098800DFCFE7FFD92BD82BA20ED925D96EDA6A8B
:10099800010EDA22D851E16EE26ADFCFE7FFD92BE8
:1009A800DF51040DF350A40FD96EDA6ADECF05F0DB
:1009B800DECF06F0DECF07F0DECF08F0B0C009F0DA
:1009C800B1C00AF0B2C00BF0B3C00CF0A4EC19F03F
:1009D8000101DF51040DF350A40FD96EDA6A05C086
:1009E800DEFF06C0DEFF07C0DEFF08C0DEFF86C0F0
:1009F80005F087C006F0076A086A000EBAEC1DF019
:100A080005C013F006C014F007C015F008C016F0B2
:100A18000101DF51040DF350A40FD96EDA6ADECF5D
:100A280017F0DECF18F0DECF19F0DECF1AF08AEC1F
:100A380022F015E20101DF51040DF350A40FD96E25
:100A4800DA6ADECF37F0DECF38F0DECF39F0DECF2E
:100A58003AF03CEC22F037C086F038C087F001014C
:100A6800DF2BA751DF5D01E263D7A50EA61905E1CB
:100A78000001945102E1010E946F595045E0020EB5
:100A8800586042D0000E68EC14F0030E95610ED049
:100A9800140EBA03F3CFF0F0F4CFF1F0BB03F35028
:100AA800F1278651F05D8751F1591AE2040E576E0D
:100AB8000101DF6B030EDF6501D007D0DF51740F32
:100AC800D96EDA6ADF6ADF2BF5D7020E106E010ED7
:100AD800116E96C012F0000E9BEC25F0956B04D0B9
:100AE800585002E0EAEC21F0020E5A1803E0030E17
:100AF8005A1806E160C041F061C042F046EC1EF0B1
:100B08000A0E0101D76FC7D10001866B876BC3D16D
:100B1800060E00019F65BFD1500E0101A41901E026
:100B2800BAD1020EA51901E0B6D1470E00018C1901
:100B380003E10F0E8D19D8A4AED1A7C1E0F1A8C169
:100B4800DEF1AAC1DBF10101DC6B0A0ED76FE051BF
:100B580029E1DE0527E1010E586424D05850020D22
:100B6800A60EF324D96E010EF420DA6EDF500001D0
:100B7800606F616B020E5A1803E0030E5A1806E103
:100B880060C041F061C042F046EC1EF0440E000126
:100B9800C16FF80EC26F60C0C3F061C0C4F04AEC08
:100BA80018F014D0E05112E1020EDE190FE1010E27
:100BB80058640CD05A6EA9C157F03C0E0001966FCC
:100BC800B80EC16FF70EC26F4AEC18F00101E05180
:100BD8000001F06FF16BF269F3695850F46FF56B2F
:100BE800F251F427F351F523F051F41978E1F1515A
:100BF800F51975E1810E0101DE190AE1010E5A6E3F
:100C08004D0E0001C16FFA0EC26F4AEC18F067D0A2
:100C1800820EDE1921E1DB51DC110AE1040E576E68
:100C2800200E0001C16FFC0EC26F4AEC18F057D0BD
:100C3800DBC141F0DCC142F046EC1EF0020E5A6EF8
:100C4800810E0001C16FF60EC26FDBC1C3F0DCC1BB
:100C5800C4F04AEC18F043D0830EDE1934E1DB51BE
:100C6800DC110AE1040E576E280E0001C16FFC0E5C
:100C7800C26F4AEC18F033D0DBC141F0DCC142F05E
:100C880046EC1EF08A880101D66B030E5A6E0001ED
:100C98009A6B706B716B726B736B985102E140ECDD
:100CA80012F06E0E0001C16FF70EC26FDBC1C3F008
:100CB800DCC1C4F04AEC18F0E00EC16FFA0EC26F46
:100CC8004AEC18F00CD0840EDE1909E1020E5A6EB7
:100CD800FC0E0001C16FF60EC26F4AEC18F0580402
:100CE80001E0D9D00101DE051AE1E051740FD96E97
:100CF800DA6ADF6A000E68EC14F0E80EC16FF90ECC
:100D0800C26FE0C1C3F0C46B4AEC18F0810E106EDC
:100D1800116A126A0101E0519BEC25F0BCD0020E69
:100D2800DE1949E156EC1FF000091EE10101E0510E
:100D3800740FD96EDA6A010EDF6EE051020D320EC1
:100D4800F324D96E010EF420DA6EDBC1DEFFDCC1BC
:100D5800DDFFE051020DF350600FD96EDA6AB6C0BC
:100D6800DEFFB7C0DDFF09D00101E051020DF350ED
:100D7800600FD96EDA6ADE6ADD6A390E0001C16F6A
:100D8800F90EC26FE0C1C3F0C46BDBC1C5F0DCC1B2
:100D9800C6F04AEC18F0820E106E116A0101E0519B
:100DA800020DF350600FD96EDA6ADF50126EE0510F
:100DB8009BEC25F070D0030EDE1951E156EC1FF0C4
:100DC80000091FE10101E051740FD96EDA6A020EC1
:100DD800DF6EE051020D320EF324D96E010EF420BD
:100DE800DA6EDBC1DEFFDCC1DDFFE051020DF3503E
:100DF800600FD96EDA6ADE6ADD6A010E68EC14F0FB
:100E080009D00101E051020DF350600FD96EDA6A82
:100E1800DE6ADD6A1D0E0001C16FF90EC26FE0C106
:100E2800C3F0C46B0101E051020DF350600FD96E9D
:100E3800DA6ADECFC5F0DDCFC6F04AEC18F0830ED3
:100E4800106E116A0101E051020DF350600FD96E66
:100E5800DA6ADF50126EE0519BEC25F01CD0040ECC
:100E6800DE1919E1E051740FD96EDA6ADF6A000EF3
:100E780068EC14F0550EC16FF90EC26FE0C1C3F0F3
:100E8800C46B4AEC18F0840E106E116A126A0101E4
:100E9800E0519BEC25F000019F6B020E571805E10D
:100EA8000A0E0101D71901E1576A570402E056EF0B
:100EB80001F00001965102E056EF01F0010E58646E
:100EC80056EF01F0576A56EF01F0DE0EC16FF80ECB
:100ED800C26F4AEC18F09C5101E0C0D0700E056E4C
:100EE800010E066ED70E076EFC0E086E5EEC23F040
:100EF8000550061007E1595002E1580403E1010EBC
:100F080000019C6F700E056E010E066EF50E076EE1
:100F1800FC0E086E5EEC23F00550061003E1020E8D
:100F280000019C6F700E056E010E066EF10E076EC5
:100F3800FC0E086E5EEC23F00550061007E15950D0
:100F480002E1580403E1030E00019C6F700E056E68
:100F5800010E066EED0E076EFC0E086E5EEC23F0B9
:100F68000550061005E1595003E0040E00019C6F7E
:100F7800700E056E010E066EE30E076EFC0E086E0F
:100F88005EEC23F00550061003E1050E00019C6F8E
:100F9800700E056E010E066EE80E076EFC0E086EEA
:100FA8005EEC23F00550061005E10001BF5102E197
:100FB800060E9C6F700E056E010E066E700E076EA3
:100FC800FC0E086E5EEC23F00550061003E1070ED8
:100FD80000019C6F700E056E010E066EC50E076E41
:100FE800FC0E086E5EEC23F00550061005E10001CA
:100FF800BF5102E0080E9C6F700E056E010E066E62
:10100800850E076EFC0E086E5EEC23F00550061088
:1010180003E1090E00019C6F700E056E010E066E4D
:10102800930E076EFC0E086E5EEC23F0055006105A
:1010380003E10A0E00019C6F700E056E010E066E2C
:10104800CB0E076EFC0E086E5EEC23F00550061002
:1010580001E00BD20B0E00019C6F07D20101705109
:1010680003E100019C6B01D200019C0509E0020E1E
:101078009C1906E0030E9C1903E0080E9C195BE11D
:10108800700E086E010E096ED5EC1FF008C0EEF068
:1010980009C0EFF000019C0511E1EF5103E10A0ED0
:1010A800EE5D0CE3EF510AE1650EEE5D07E2EEC07E
:1010B800BAF0EFC0BBF030EC20F0D3D7020E9C1989
:1010C8000FE1EF5103E10A0EEE5D0AE3EF5108E18B
:1010D800510EEE5D05E2EEC0B8F0EFC0B9F0EBD707
:1010E800030E9C190FE1EF5103E1060EEE5D0AE3D2
:1010F800EF5108E1110EEE5D05E2EEC0B6F0EFC06B
:10110800B7F0D9D7080E9C190FE1EF5103E10D0E86
:10111800EE5D0AE3EF5108E1510EEE5D05E2EEC027
:10112800B4F0EFC0B5F0C7D7A40EC16FF80EC26F08
:101138004AEC18F096D7040E9C197DE1700E436EA8
:10114800010E446E64EC27F043C0EAF044C0EBF0B3
:1011580045C0ECF046C0EDF0EAC013F0EBC014F067
:10116800ECC015F0EDC016F0176A186AC00E196EBB
:10117800400E1A6E8AEC22F011E3136A146AA00E6C
:10118800156E420E166EEAC017F0EBC018F0ECC0F0
:1011980019F0EDC01AF08AEC22F008E2290E0001DD
:1011A800C16FF60EC26F4AEC18F05BD7A4C01EF0F0
:1011B800A5C01FF0A6C020F0A7C021F0B0C022F043
:1011C800B1C023F0B2C024F0B3C025F02EEC1CF05F
:1011D8001EC0DAF01FC0DBF020C0DCF021C0DDF05B
:1011E800096A0A6A200E0B6E410E0C6EEAC005F001
:1011F800EBC006F0ECC007F0EDC008F0A4EC19F065
:1012080005C01EF006C01FF007C020F008C021F07E
:10121800DAC022F0DBC023F0DCC024F0DDC025F00A
:101228002EEC1CF01EC0B0F01FC0B1F020C0B2F010
:1012380021C0B3F040D7050E9C1923E1700E056E4E
:10124800010E066EDD0E076EFC0E086E5EEC23F0D6
:101258000550061003E1010E596E2DD7700E056E6C
:10126800010E066E7E0E076EFC0E086E5EEC23F015
:101278000550061001E0F5D6596A30EC20F0576A9F
:10128800F0D6060E9C1931E1700E056E010E066E41
:10129800F70E076EFB0E086E5EEC23F00550061085
:1012A80002E1010E0ED0700E056E010E066ED10E13
:1012B800076EFC0E086E5EEC23F00550061004E184
:1012C800020E0001C06FF7D6700E056E010E066E95
:1012D800300E076EFC0E086E5EEC23F0055006100B
:1012E80001E0BFD60001C06BE6D6070E9C1922E1CB
:1012F800700E056E010E066EBF0E076EFC0E086EB0
:101308005EEC23F00550061004E1010E0001BF6FEA
:10131800D2D6700E056E010E066E9A0E076EFC0E82
:10132800086E5EEC23F00550061001E09AD6000125
:10133800BF6BC1D6090E9C194DE1700E056E010EEA
:10134800066E300E076EFC0E086E5EEC23F005503C
:10135800061002E1586AAFD6700E056E010E066ED1
:101368008C0E076EFC0E086E5EEC23F0055006101E
:1013780002E1010E2DD0700E056E010E066E540EA0
:10138800076EFC0E086E5EEC23F00550061002E1B5
:10139800020E1ED0700E056E010E066E5B0E076EF5
:1013A800FC0E086E5EEC23F00550061002E1030EF9
:1013B8000FD0700E056E010E066E620E076EFC0EE3
:1013C800086E5EEC23F00550061001E04AD6040EC4
:1013D800586E71D60A0E9C1922E1700E056E010E28
:1013E800066E300E076EFC0E086E5EEC23F005509C
:1013F800061003E10001BE6B5ED6700E056E010E8D
:10140800066E770E076EFC0E086E5EEC23F0055034
:10141800061001E026D6010E0001BE6F4CD60B0E59
:101428009C1901E01ED6700E056E010E066E300E78
:10143800076EFC0E086E5EEC23F00550061003E103
:101448000001BD6B38D6700E056E010E066E690E72
:10145800076EFC0E086E5EEC23F00550061001E0E6
:1014680000D6010E0001BD6F26D600019C5101E097
:10147800E8D1420EC16FF40EC26F4AEC18F0860E26
:10148800C16FFB0EC26F4AEC18F0670EC16FF50E04
:10149800C26F4AEC18F0850EC16FF80EC26F99C082
:1014A800C3F0C46B4AEC18F0820EC16FF40EC26F21
:1014B8004AEC18F0980EC16FF00EC26F4AEC18F0A3
:1014C800DF0EC16FF90EC26F4AEC18F0BF5107E08A
:1014D800AB0EC16FFA0EC26F4AEC18F006D06F0E51
:1014E800C16FFA0EC26F4AEC18F0690EC16FF00EA8
:1014F800C26F4AEC18F0E10EC16FF90EC26F4AECE8
:1015080018F0595007E0180EC16FFC0EC26F4AEC74
:1015180018F006D0E50EC16FFB0EC26F4AEC18F04A
:10152800650EC16FF10EC26F4AEC18F0D30EC16F91
:10153800F90EC26F4AEC18F0585007E1320EC16F2D
:10154800FB0EC26F4AEC18F023D0580407E1EE0EE8
:10155800C16FFB0EC26F4AEC18F01AD0020E581871
:1015680007E1C10EC16FFB0EC26F4AEC18F010D034
:10157800030E581807E1CA0EC16FFB0EC26F4AEC82
:1015880018F006D0D30EC16FFB0EC26F4AEC18F0EC
:10159800595002E1580410E1A50EC16FF10EC26F57
:1015A8004AEC18F0FF0EC16FF80EC26FBAC0C3F054
:1015B800BBC0C4F04AEC18F0C50EC16FF00EC26F84
:1015C8004AEC18F0BE0EC16FF90EC26FB8C0C3F076
:1015D800B9C0C4F04AEC18F0595002E1580410E1BF
:1015E800060EC16FF00EC26F4AEC18F0C60EC16F3E
:1015F800F90EC26FB6C0C3F0B7C0C4F04AEC18F019
:10160800BF5111E0190EC16FF10EC26F4AEC18F00C
:10161800BA0EC16FF90EC26FB4C0C3F0B5C0C4F042
:101628004AEC18F025D0400EC16FF10EC26F4AEC9B
:1016380018F0D70EC16FF90EC26F4AEC18F0C0054A
:1016480007E13D0EC16FFB0EC26F4AEC18F010D0D7
:10165800020EC01907E1100EC16FFC0EC26F4AECF2
:1016680018F006D0320EC16FFB0EC26F4AEC18F0AC
:10167800595001E1A9D0A4C037F0A5C038F0A6C0E0
:1016880039F0A7C03AF03CEC22F037C046F038C039
:1016980047F0496A0A0E486E19EC26F046C0E6F093
:1016A80047C0E7F0A4C037F0A5C038F0A6C039F0AD
:1016B800A7C03AF03CEC22F037C041F038C042F005
:1016C800446A0A0E436E5DEC26F041C0E8F042C061
:1016D800E9F0A8C037F0A9C038F0AAC039F0ABC00B
:1016E8003AF03CEC22F037C046F038C047F0496A7F
:1016F8000A0E486E19EC26F046C0DEF047C0DFF04F
:10170800A8C037F0A9C038F0AAC039F0ABC03AF089
:101718003CEC22F037C041F038C042F0446A0A0E6F
:10172800436E5DEC26F041C0E0F042C0E1F0ACC091
:1017380037F0ADC038F0AEC039F0AFC03AF03CEC8D
:1017480022F037C046F038C047F0496A0A0E486EA2
:1017580019EC26F046C0E2F047C0E3F0ACC037F021
:10176800ADC038F0AEC039F0AFC03AF03CEC22F072
:1017780037C041F038C042F0446A0A0E436E5DEC4F
:1017880026F041C0E4F042C0E5F0B40E0001C16F9C
:10179800F20EC26FE6C0C3F0E7C0C4F0E8C0C5F0FF
:1017A800E9C0C6F0DEC0C7F0DFC0C8F0E0C0C9F0CD
:1017B800E1C0CAF0E2C0CBF0E3C0CCF0E4C0CDF0A9
:1017C800E5C0CEF04AEC18F0860EC16FF10EC26F7C
:1017D8004AEC18F0D10EC16FF90EC26F4AEC18F03E
:1017E800BE5107E1320EC16FFB0EC26F4AEC18F012
:1017F80006D0DC0EC16FFB0EC26F4AEC18F0F00E7B
:10180800C16FF00EC26F4AEC18F0DB0EC16FF90E13
:10181800C26F4AEC18F0BD5107E1320EC16FFB0EE2
:10182800C26F4AEC18F006D0520EC16FFB0EC26FA1
:101838004AEC18F0F90EC16FFC0EC26F4AEC18F0B2
:101848006ED19C0517E1020EC16FF40EC26F4AEC0F
:1018580018F0CE0EC16FF50EC26F4AEC18F0FA0EF2
:10186800C16FF20EC26FBAC0C3F0BBC0C4F04AEC7D
:1018780018F055D1020E9C1917E1020EC16FF40E33
:10188800C26F4AEC18F0CE0EC16FF50EC26F4AEC6B
:1018980018F0C10EC16FF30EC26FB8C0C3F0B9C063
:1018A800C4F04AEC18F03BD1030E9C190BE16D0E05
:1018B800C16FF20EC26FB6C0C3F0B7C0C4F04AEC35
:1018C80018F02DD1040E9C193EE1A4C037F0A5C034
:1018D80038F0A6C039F0A7C03AF03CEC22F037C087
:1018E80046F038C047F0496A0A0E486E19EC26F0EF
:1018F80046C0E6F047C0E7F0A4C037F0A5C038F00E
:10190800A6C039F0A7C03AF03CEC22F037C041F04D
:1019180038C042F0446A0A0E436E5DEC26F041C0BE
:10192800E8F042C0E9F0BE0E0001C16FF40EC26FCC
:10193800E6C0C3F0E7C0C4F0E8C0C5F0E9C0C6F02F
:101948004AEC18F0ECD0050E9C191CE18E0EC16F04
:10195800FA0EC26F4AEC18F0595007E0ED0EC16F4D
:10196800FA0EC26F4AEC18F006D09D0EC16FFA0E3F
:10197800C26F4AEC18F0930EC16FF70EC26F4AECB3
:1019880018F0CDD0060E9C1926E1130EC16FFA0E81
:10199800C26F4AEC18F0020EC01907E1100EC16FB1
:1019A800FC0EC26F4AEC18F00FD0C00507E13D0EDF
:1019B800C16FFB0EC26F4AEC18F006D05C0EC16F07
:1019C800FB0EC26F4AEC18F0320EC16FF50EC26FF3
:1019D8004AEC18F0A4D0070E9C191CE15E0EC16FEA
:1019E800FA0EC26F4AEC18F0BF5107E0AB0EC16F98
:1019F800FA0EC26F4AEC18F006D06F0EC16FFA0EDD
:101A0800C26F4AEC18F0D30EC16FF60EC26F4AECE3
:101A180018F085D0080E9C1917E1020EC16FF40E5C
:101A2800C26F4AEC18F0FA0EC16FF40EC26F4AEC9E
:101A380018F03D0EC16FF30EC26FB4C0C3F0B5C04D
:101A4800C4F04AEC18F06BD0090E9C192BE1710E0A
:101A5800C16FF90EC26F4AEC18F0585007E1320E08
:101A6800C16FFB0EC26F4AEC18F015D0580407E19D
:101A7800EE0EC16FFB0EC26F4AEC18F00CD0660E6A
:101A8800C16FFB0EC26FFF0E5824C36FC46BFF0EED
:101A9800C4234AEC18F07F0EC16FF30EC26F4AECF4
:101AA80018F03DD00A0E9C191CE1220EC16FF80EE9
:101AB800C26F4AEC18F0BE5107E1320EC16FFB0E3F
:101AC800C26F4AEC18F006D0DC0EC16FFB0EC26F75
:101AD8004AEC18F0AA0EC16FF60EC26F4AEC18F065
:101AE8001ED00B0E9C191BE1550EC16FF60EC26F6E
:101AF8004AEC18F0BD5107E1320EC16FFB0EC26F00
:101B08004AEC18F006D0520EC16FFB0EC26F4AECB9
:101B180018F09B0EC16FF50EC26F4AEC18F09E6B61
:101B2800A06B1200DE6F1E0E00019B6F8986BD053B
:101B380005E1050E571802E181A2576A985110E194
:101B4800050EDE190DE18E510BE1010E986F70C084
:101B580068F071C069F072C06AF073C06BF05AD255
:101B6800980518E1D00E6825DA6F070E6921DB6F3A
:101B7800000E6A21DC6F000E6B21DD6F7051DA5D9B
:101B88007151DB597251DC597351DD5903E20A0E68
:101B9800986F18D0980508E1070EDE1905E1986BD3
:101BA8008E6B40EC12F036D2500E98190DE1020EF1
:101BB800DE190AE1975108E0B06BB16B400EB26FC5
:101BC800B36F976B010ED0D0985101E1CFD00A0EB8
:101BD800056E98512CEC27F0000901E0C7D0030EE0
:101BE8000001DE1901E0C2D08E5101E19FD0BED0C4
:101BF800975107E0BF5102E0BF6BB4D0010EBF6F31
:101C0800B1D0140E91D0975107E0595002E0596AAB
:101C1800A9D0010E596EA6D0640E86D0975107E060
:101C2800040E581802E1586A9DD0582A9BD0595082
:101C380002E1580402E11E0E77D0280E75D09751A4
:101C4800FCE0BA4BBB2BBB5104E1650EBA5D01E267
:101C580089D0BB6B640E07D197510AE0B84BB92BFA
:101C6800B95103E1510EB85D7DE3B96B500EE5D073
:101C7800595002E1580402E1320E56D0BF5102E039
:101C8800460E52D03C0E50D097510AE0B64BB72BB7
:101C9800B75103E1110EB65D65E3B76B100EBFD007
:101CA800BF51EEE1EFD7975107E0020EC01902E1EC
:101CB800C06B58D0C02B56D097510AE0B44BB52B07
:101CC800B55103E1510EB45D4DE3B56B500E88D0AC
:101CD800595002E0500E28D06E0E26D09751FCE0E5
:101CE8007B5103E13C0E7A5D3DE3E80E7A5D030E1D
:101CF8007B5938E27A4B7B2B35D0975107E0BE51A0
:101D080002E0BE6B2FD0010EBE6F2CD0780E0CD027
:101D1800975107E0BD5102E0BD6B24D0010EBD6FA5
:101D280021D05A0E01D00A0E986F1CD098510A0A79
:101D380001E15ED71E0A01E166D70A0A80E0360A89
:101D48008BE01A0AA1E00E0AAEE07A0AB5E0160A9C
:101D5800C5E00A0AE8E03E0A01E160D70A0ACDE0D8
:101D6800160AD6E0010E00018E6F54D10001985179
:101D780001E1B1D00A0E056E98512CEC27F000094C
:101D880001E0A9D0060E0001DE1901E0A4D08E51B1
:101D980001E183D0A0D097519FE0BD51BDE1BED7EE
:101DA800975103E0BE51ADE1AED7595093E178D7D2
:101DB800975101E175D77B5103E13D0E7A5DD2E37E
:101DC8007A07D8A07B07CED797510CE0B407D8A0E4
:101DD800B507B551C7E10D0EB45DC4E2B56B0D0E84
:101DE800B46FC0D7975107E0C05103E1020EC06F2E
:101DF800B9D7C007B7D7595001E03ED7580401E119
:101E08003BD71BD7975101E118D7B607D8A0B7071A
:101E1800B751A8E1060EB65DA5E2B76B060EB66F20
:101E2800A1D797510CE0B807D8A0B907B9519AE1E2
:101E38000A0EB85D97E2B96B0A0EB86F93D759507E
:101E480001E0F9D6580401E1F6D6E6D6975101E14A
:101E5800E3D6BA07D8A0BB07BB5184E10A0EBA5D26
:101E680081E2BB6B0A0EBA6F7DD7975101E1C9D6E3
:101E7800585003E1040E586E75D7580673D797511A
:101E880001E151D7595001E0C2D6C3D6975101E1BB
:101E980048D7BF5101E0B0D6B1D698510A0AF6E04A
:101EA8001E0AEDE00A0AD2E0360ABBE01A0AAAE0E6
:101EB8000E0A98E07A0A88E0160A01E179D70A0A38
:101EC80001E124D73E0AD1E00A0A01E169D7160ADE
:101ED80001E161D747D7090E0001986592D0050E38
:101EE800DE1901E08ED08E5101E08BD0975164E06D
:101EF800976B500E981901E035D778517A1904E19B
:101F080079517B1901E12ED778C005F079C006F028
:101F1800076A086A000EBAEC1DF005C01EF006C07C
:101F28001FF007C020F008C021F0B0C022F0B1C0F7
:101F380023F0B2C024F0B3C025F02EEC1CF01EC074
:101F48003AF11FC03BF120C03CF121C03DF17AC0FD
:101F580005F07BC006F0076A086A000EBAEC1DF0AF
:101F680005C01EF006C01FF007C020F008C021F011
:101F78003AC122F03BC123F03CC124F03DC125F019
:101F88002EEC1CF01EC0B0F01FC0B1F020C0B2F0A3
:101F980021C0B3F07AC005F07BC006F0076A086A72
:101FA800000EBAEC1DF005C0A4F006C0A5F007C0ED
:101FB800A6F008C0A7F0D6D6010E976F500E981954
:101FC80013E1A4C037F0A5C038F0A6C039F0A7C007
:101FD8003AF03CEC22F037C07AF038C07BF07AC097
:101FE80078F07BC079F0BED65A0E981901E0BAD6BF
:101FF800986B976B576A946B30EC20F040EC12F0BA
:10200800B1D6070EDE1906E18E6B066A0A0E056E5A
:102018003EEC26F000018E0503E0980501E01ED293
:10202800980521E1000E0A6AA5EC27F0040E0A6E55
:10203800010EA5EC27F0270E546EFB0E556E020E0E
:1020480007EC25F0B80E546EFB0E556E040E07EC27
:1020580025F0100E0A6E060EA5EC27F00A6A070E88
:10206800A5EC27F0F8D10A0E98191DE1220E546E3E
:10207800F20E556E020E566EE5EC23F00001BF51CC
:1020880009E0470E546EF20E556E040E566EE5ECDE
:1020980023F0E1D11B0E546EF20E556E040E566EEF
:1020A800E5EC23F0D8D1140E98191CE15C0E546E9F
:1020B800F20E556E020E566EE5EC23F0595009E00B
:1020C800410E546EF20E556E040E566EE5EC23F07A
:1020D800C2D1140E546EF20E556E040E566EE5EC17
:1020E80023F0B9D1640E98193FE1C40E546EF10E75
:1020F800556E020E566EE5EC23F0585009E1CD0EF0
:10210800546EF10E556E040E566EE5EC23F0A3D115
:10211800580409E10D0E546EF20E556E040E566EFB
:10212800E5EC23F098D1020E581809E1F70E546E29
:10213800F10E556E040E566EE5EC23F08CD1030EAD
:10214800581809E1EF0E546EF10E556E040E566ED6
:10215800E5EC23F080D1E70E546EF10E556E040EB7
:10216800566EE5EC23F077D11E0E98190FE13B0E61
:10217800546EF20E556E020E566EE5EC23F0BAC0A0
:1021880054F0BBC055F08BEC20F065D1280E98199F
:102198000FE1690E546EF20E556E020E566EE5ECA6
:1021A80023F0B8C054F0B9C055F08BEC20F053D1EF
:1021B800320E98190FE1650E546EF20E556E020E2E
:1021C800566EE5EC23F0B6C054F0B7C055F08BEC72
:1021D80020F041D13C0E981921E1570E546EF20EB1
:1021E800556E020E566EE5EC23F00001C00509E1BC
:1021F800D60E546EF10E556E040E566EE5EC23F0B5
:102208002AD1020EC01901E07AD7350E546EF20EAB
:10221800556E040E566EE5EC23F01DD1460E981946
:102228000FE12F0E546EF20E556E020E566EE5EC4F
:1022380023F0B4C054F0B5C055F08BEC20F00BD1AE
:10224800500E981901E0C4D0610E546EF20E556E0E
:10225800020E566EE5EC23F0D0EC27F00001975102
:1022680047E096EC27F07D6B280E7C6F7AC046F02D
:102278007BC047F0496A640E486E19EC26F0300EB0
:1022880046244D6E000E47204E6E22EC1DF0446A27
:10229800640E436E7AC041F07BC042F05DEC26F0DC
:1022A80041C046F042C047F0496A0A0E486E19EC30
:1022B80026F0300E46244D6E000E47204E6E22EC5E
:1022C8001DF04E6A2E0E4D6E22EC1DF07AC041F0C4
:1022D8007BC042F0446A0A0E436E5DEC26F0300E75
:1022E80041244D6E000E42204E6E22EC1DF064D04B
:1022F800000E7D6F280E7C6FA4C037F0A5C038F0A3
:10230800A6C039F0A7C03AF03CEC22F037C046F03E
:1023180038C047F0496A640E486E19EC26F0300E52
:1023280046244D6E000E47204E6E22EC1DF0000E26
:10233800446E640E436EA4C037F0A5C038F0A6C042
:1023480039F0A7C03AF03CEC22F037C041F038C071
:1023580042F05DEC26F041C046F042C047F0496AC1
:102368000A0E486E19EC26F0300E46244D6E000E0B
:1023780047204E6E22EC1DF04E6A2E0E4D6E22EC5A
:102388001DF0A4C037F0A5C038F0A6C039F0A7C02A
:102398003AF03CEC22F037C041F038C042F0446AD1
:1023A8000A0E436E5DEC26F0300E41244D6E000E91
:1023B80042204E6E22EC1DF07D6B580E7C6F4E6AEB
:1023C800410E4D6E22EC1DF0040EC6EC25F043D0F4
:1023D8006E0E981915E1060E546EF20E556E020E29
:1023E800566EE5EC23F00001BE5101E188D6FF0EE0
:1023F800546EF10E556E040E566EE5EC23F02BD09C
:10240800780E981915E1290E546EF20E556E020ECB
:10241800566EE5EC23F00001BD5101E170D6DF0EE8
:10242800546EF10E556E040E566EE5EC23F013D083
:102438005A0E981910E1520E546EF20E556E020E95
:10244800566EE5EC23F04D0E546EF20E556E040EEA
:10245800566EE5EC23F0020E00018E6F70C06CF032
:1024680071C06DF072C06EF073C06FF0080EF66F39
:10247800DEC0F7F09A6B12000001985108E09A2B21
:10248800790E9A19D8A41200986B41EC21F00A0E23
:1024980000019A1901E19A6B575001E1AFD0898682
:1024A8001E0E9B6F57040BE1A60E546EFB0E556E65
:1024B800020E07EC25F0000E546EFC0EACD0020E96
:1024C800571819E1A60E546EFB0E556E000E07EC58
:1024D80025F01C0E546EFB0E556E020E07EC25F00F
:1024E800A10E546EFC0E556E040E07EC25F03F0E3F
:1024F800546EFC0E48D0030E57180BE1A70E546E0D
:10250800FC0E556E020E07EC25F0480E546EFB0EBD
:1025180082D0050E57183BE19A2B9A05C76F050E16
:10252800C76119D09D0E546EFB0E556E000E07EC58
:1025380025F0B90E546EFC0E556E020E07EC25F010
:10254800000E546EFC0E556E040E07EC25F08B0E33
:10255800546EFB0E18D0AD0E546EFC0E556E000E68
:1025680007EC25F0460E546EFC0E556E020E07EC75
:1025780025F0B50E546EFB0E556E040E07EC25F0D3
:10258800B30E546EFC0E556E060E07EF25F0060EC0
:102598005718D8A41200080E546EFC0E556E020E81
:1025A80007EC25F0060E546EFB0E556E040E07EC74
:1025B80025F000017D6B640E7C6F0A0E056E945148
:1025C800D2EC26F00001C76F300EC7254D6E4E6A5B
:1025D800000E4E2222EC1DF00A0E056E94512CECD2
:1025E80027F00001C76F300EC7254D6E4E6A000EEA
:1025F8004E2222EC1DF0040EC6EF25F0500E941961
:102608000EE1080E546EFC0E556E020E07EC25F016
:102618004D0E546EFC0E556E040E07EF25F09A2BE6
:102628009A05C76F040EC76576D0595074E0790EC5
:10263800546EFB0E556E020E07EC25F0D0EC27F019
:102648000001C86BC851240D100EF3247C6F000ED6
:10265800F4207D6F226A236AC80E246E420E256E0E
:10266800C851040DF350A40FD96EDA6ADECF1EF0FC
:10267800DECF1FF0DECF20F0DECF21F02EEC1CF0F5
:102688001EC037F01FC038F020C039F021C03AF022
:102698003CEC22F0300E37244D6E000E38204E6E82
:1026A80022EC1DF0226A236A200E246E410E256E4C
:1026B800C851040DF350A40FD96EDA6ADECF1EF0AC
:1026C800DECF1FF0DECF20F0DECF21F02EEC1CF0A5
:1026D8001EC037F01FC038F020C039F021C03AF0D2
:1026E8003CEC22F037C041F038C042F0446A0A0E90
:1026F800436E5DEC26F0300E41244D6E000E4220F4
:102708004E6E22EC1DF0C82B020EC8659BD7040E36
:10271800C6EC25F0D2D05A0403E0020E5A185DE147
:10272800000E0A6AA5EC27F0040E0A6E010EA5EC4D
:1027380027F000018F5102E1BE510FE1AF0E546E38
:10274800FB0E556E020E07EC25F0700E546EFB0E54
:10275800556E040E07EC25F00ED0930E546EFC0E49
:10276800556E020E07EC25F0380E546EFC0E556EB1
:10277800040E07EC25F0100E0A6E060EA5EC27F0E5
:102788000A6A070EA5EC27F00001965101E195D0E1
:102798007D6B640E7C6F0A0E056E9651D2EC26F0A6
:1027A8000001C76F300EC7254D6E4E6A000E4E22CF
:1027B80022EC1DF00A0E056E96512CEC27F0000154
:1027C800C76F300EC7254D6E4E6A000E4E2222ECA2
:1027D8001DF0040EC6EC25F070D0030E5A186DE1FA
:1027E80089861E0E9B6F940E546EFB0E556E020E5C
:1027F80007EC25F000017D6B100E7C6FD0EC27F004
:1028080060C005F061C006F0086A0A0E076E26EC83
:1028180024F0300E05244D6E000E06204E6E22EC7C
:102828001DF060C005F061C006F0086A0A0E076E68
:102838003CEC25F0300E05244D6E000E06204E6E41
:1028480022EC1DF04E6A410E4D6E22EC1DF05950DF
:1028580031E04E6A280E4D6E22EC1DF0BAC046F0EB
:10286800BBC047F0496A0A0E486E19EC26F0300ED4
:1028780046244D6E000E47204E6E22EC1DF0BAC065
:1028880041F0BBC042F0446A0A0E436E5DEC26F08C
:10289800300E41244D6E000E42204E6E22EC1DF08B
:1028A8004E6A410E4D6E22EC1DF04E6A290E4D6E99
:1028B80022EC1DF0040EC6EC25F000019B5102E04D
:1028C8009B071200899612000001E26FEB6BEC6B1C
:1028D800E36BE46BE06BE16BDC6BDD6BDE6BDF6B9A
:1028E80058500BE1010EED6FED51740FD96EDA6A95
:1028F800DF6AED2B030EED65F7D7020E74190AE1B6
:10290800B8518A5DB9518B5905E28AC088F08BC0ED
:1029180089F004D0B8C088F0B9C089F0020E5860B8
:1029280004D088C032F189C033F1ED6BED51740FDA
:10293800D96EDA6A020EDE1818E1EB4BEC2BED517A
:10294800020D320EF324D96E010EF420DA6EDE5039
:10295800E327DD50E423ED51020DF350600FD96EEB
:10296800DA6ADE50E027DD50E123ED2B030EED653A
:10297800DDD7E2512BE10A0EBA03F3CF51F0F4CFC1
:1029880052F0BB03F35052268651515CE76F8751D2
:102998005258E86FE8BF12D0E85102E1E7050EE3AC
:1029A800E7C005F0E8C006F0086A040E076E26ECDA
:1029B80024F0055000018427065003D0E7518427EE
:1029C800E851852385AF02D0846B856BF60E516E76
:1029D80052685150E003F3CF53F0F4CF54F0E103C1
:1029E800F35054265250E003F35054268651532492
:1029F800E96F87515420EA6FEAAF02D0E96BEA6BBE
:102A0800595017E1585008E00A0EBA03F3CF51F0B5
:102A1800F4CF52F0BB0307D00A0E8803F3CF51F06E
:102A2800F4CF52F08903F350522651C084F052C0BB
:102A380085F0EB51EC11D8B41200E2510FE00A0E08
:102A4800BA03F3CF51F0F4CF52F0BB03F350522640
:102A5800E951515C846FEA515258856F85BF1BD08C
:102A6800EB51B603F3CF51F0F4CF52F0B703F35064
:102A78005226EC51B603F35052260A0E5102F3CFF8
:102A880053F0F4CF54F05202F35054265350845D5F
:102A98005450855922E2952B7F0EC16FFA0EC26FF2
:102AA8004AEC18F0EB51B603F3CF51F0F4CF52F0E3
:102AB800B703F3505226EC51B603F35052260A0ED0
:102AC8005102F3CF53F0F4CF54F05202F35054268E
:102AD80053C084F054C085F001D0956B0A0EE3030F
:102AE800F3CF51F0F4CF52F0E403F350522684515F
:102AF800515C5250800A536E8551800A53580DE23A
:102B08000A0EE303F3CF51F0F4CF52F0E403F3508D
:102B1800522651C084F052C085F084C005F085C0AB
:102B280006F0086A0A0E076E26EC24F005C0E5F0E8
:102B380006C0E6F0FC0E0001C16FF50EC26F86C03C
:102B4800C3F087C0C4F084C0C5F085C0C6F0E9C032
:102B5800C7F0EAC0C8F04AEC18F0ED6BE5C005F024
:102B6800E6C006F0EBC007F0ECC008F026EC24F055
:102B780005C0DAF006C0DBF00001ED51740FD96E24
:102B8800DA6A020EDE183EE1ED51DC0FD96EDA6A20
:102B9800DF5038E1ED51020D320EF324D96E010EEB
:102BA800F420DA6EDE50DA5DDB51800A536EDE50B7
:102BB800800A535827E3ED51020D320EF324D96EE3
:102BC800010EF420DA6EED51020DF350600FE16E44
:102BD800E26ADECFE6FFDDCFE5FFED51DC0FD96E0F
:102BE800DA6A010EDF6EEB07D8A0EC07ED51020D93
:102BF800F350600FD96EDA6ADE50E55FDD50E65BB0
:102C0800ED6B01D0ED2B040EED6103D0EB51EC110F
:102C1800A5E1ED6BEB51EC113CE0ED51740FD96E71
:102C2800DA6A020EDE182EE1ED51DC0FD96EDA6A8F
:102C3800DF5028E1E5C005F0E6C006F0EBC007F07C
:102C4800ECC008F026EC24F00001ED51020DF35021
:102C5800600FD96EDA6A05C0DEFF06C0DDFFED51F0
:102C6800DC0FD96EDA6A010EDF6EEB07D8A0EC072D
:102C7800ED51020DF350600FD96EDA6ADE50E55F50
:102C8800DD50E65BED2B040EED6103D0EB51EC114A
:102C9800C4E1ED6B3B0EC16FFA0EC26FEDC0C3F01D
:102CA800C46BED51740FD96EDA6ADF50C56FC66B0D
:102CB800ED51020DF350600FD96EDA6ADECFC7F01E
:102CC800DDCFC8F04AEC18F0ED2B030EED65E2D726
:102CD8008B0EC16FFA0EC26F4AEF18F039503A10D6
:102CE8000BE039C0D9FF3AC0DAFF37C0DEFF38C081
:102CF800DDFF02D0374A382A37C0D9FF38C0DAFF9B
:102D0800DF503C6E3C5075EC27F0F4E23D6A2D0E26
:102D18003C1805E1010E3D6E374A382A03D02B0EC8
:102D28003C18FAE03C6A3F6A406A416A426A3E6A75
:102D38003DB809D037C0D9FF38C0DAFF2E0EDE18EB
:102D480002E13D8834D037C0D9FF38C0DAFFDF5000
:102D5800C2EC27F02FE33D82090E3C1826E03DB86F
:102D68003E063C2A3FC005F040C006F041C007F0CF
:102D780042C008F00A0E096E0A6A0B6A0C6AA2ECD5
:102D880023F005C03FF006C040F007C041F008C07E
:102D980042F037C0D9FF38C0DAFFDF50D00F3F26E6
:102DA800000E40224122422202D03DA83E2A374A44
:102DB800382ABED73C6A37C0D9FF38C0DAFF650E5B
:102DC800DE1807E037C0D9FF38C0DAFF450EDE1835
:102DD80058E1374A382A37C0D9FF38C0DAFF2D0EF4
:102DE800DE1802E13D8607D037C0D9FF38C0DAFFC8
:102DF8002B0EDE1802E1374A382A37C0D9FF38C00F
:102E0800DAFF300EDE18F7E037C0D9FF38C0DAFF36
:102E1800DF50C2EC27F033E337C0D9FF38C0DAFF00
:102E2800DF50D00F3C6E374A382A37C0D9FF38C038
:102E3800DAFFDF50C2EC27F022E337C0D9FF38C0F1
:102E4800DAFFDF503B6E3C500A0DF3503B24D00FA5
:102E58003C6E374A382A37C0D9FF38C0DAFFDF500E
:102E6800C2EC27F00CE337C0D9FF38C0DAFFDF50D7
:102E78003B6E3C500A0DF3503B24D00F3C6E3DB6E0
:102E88003C6C3C503E2639503A100AE03DA208D02E
:102E980039C0D9FF3AC0DAFF37C0DEFF38C0DDFFDE
:102EA8003FC005F040C006F041C007F042C008F03E
:102EB800010EBAEC1DF005C03FF006C040F007C097
:102EC80041F008C042F03F5040104110421005E167
:102ED800376A386A396A3A6A12003EAE5CD03E6C8C
:102EE8001CD03FC01EF040C01FF041C020F042C0BF
:102EF80021F0F90E226E020E236E150E246E500E6E
:102F0800256E2EEC1CF01EC03FF01FC040F020C004
:102F180041F021C042F0F60E3E263E50800A760F60
:102F28001AE3DFD73FC01EF040C01FF041C020F0B9
:102F380042C021F0226A236A200E246E410E256EBB
:102F48002EEC1CF01EC03FF01FC040F020C041F026
:102F580021C042F03E063E50E5E13FC013F040C0BC
:102F680014F041C015F042C016F0176A186A800EB6
:102F7800196E1A6A8AEC22F06CE23DA006D0376A14
:102F8800386A800E396E3A6E800C376A386A800E5D
:102F9800396E3A6A000C3E50800A7F0F1DE259D004
:102FA8003FC005F040C006F041C007F042C008F03D
:102FB800F90E096E020E0A6E150E0B6E500E0C6E8F
:102FC800A4EC19F005C03FF006C040F007C041F07E
:102FD80008C042F0F60E3E260A0E3E60E1D719D030
:102FE8003FC005F040C006F041C007F042C008F0FD
:102FF800096A0A6A200E0B6E410E0C6EA4EC19F0D9
:1030080005C03FF006C040F007C041F008C042F0DC
:103018003E063E50E5E1136814687F0E156E166E85
:103028003FC017F040C018F041C019F042C01AF074
:103038008AEC22F00EE23DA006D0376A386A800E8C
:10304800396E3A6E800C376A386A800E396E3A6A81
:10305800000C3DA012D03FC005F040C006F041C0B2
:1030680007F042C008F086EC27F005C03FF006C024
:1030780040F007C041F008C042F03FC037F040C000
:1030880038F041C039F042C03AF01200C30E0001D6
:10309800D16F47D1250ED91904E0D95115EC28F084
:1030A80040D1D76BD86BD66B03D0D685C14BC22B1A
:1030B800C1C0F6FFC2C0F7FFF86A0800F550300A31
:1030C800F4E0C1C0F6FFC2C0F7FFF86A0800F55087
:1030D800C2EC27F064E30001D76BD86BD7C005F0CA
:1030E800D8C006F0086A0A0E076E3FEC27F005C044
:1030F800D7F006C0D8F0D00E4D6E4E68C1C0F6FFAE
:10310800C2C0F7FFF86A0800F5504F6E506A4D507C
:103118004F264E5050224F500001D7275050D823E9
:10312800C14BC22BC1C0F6FFC2C0F7FFF86A080046
:10313800F550C2EC27F033E3D1D7D85103E1020EA2
:10314800D75D04E3D707D8A0D80706D0D76BD86BCC
:1031580003D0200E15EC28F00001D707D8A0D80717
:10316800D729F7E1D82909E0F4D7CF51D96EDA6A1F
:10317800DF5015EC28F00001CF2BD207D8A0D307D9
:10318800D229F3E1D32901E1CCD0EFD7D90ECF6F03
:10319800000ED36F010ED26FD0D7D68D15D0C1C017
:1031A800F6FFC2C0F7FF0001C14BC22BF86A080046
:1031B800F5CFD9F0D951D8B41200640A05E00D0A48
:1031C80003E01C0AEAE0E2D7D6BD12D0D151D96E8D
:1031D800DA6ADECFD4F0DDCFD5F0020ED127D5AF35
:1031E80010D0030ED613D46DD51FD8B0D52B09D067
:1031F800D151D96EDA6ADECFD4F0DDCFD5F0020E28
:10320800D127010ED96F050ED91914E0D951020D35
:10321800FC0EF324F66EEF0EF420F76EF86A000E3B
:10322800F8220900F550D45D0900F550D55902E39C
:10323800D92BE9D7D751D81108E0D6C04DF0030EE5
:103248004D1603E0D707D8A0D807800ED9BF7F0E48
:103258004D6ED751D95DD851800A4D5807E2D951E2
:10326800D75F000ED9BFFF0ED85B02D0D76BD86BE3
:10327800D6A514D0D6C04DF0030E4D1603E02D0E82
:1032880015EC28F00001D751D8111DE0300E15ECCF
:1032980028F00001D707D8A0D807F5D7D751D811FB
:1032A8000AE0200E15EC28F00001D707D8A0D807AF
:1032B800D751D811F6E1D6C04DF0030E4D1603E0F4
:1032C8002D0E15EC28F0D9C0D0F027D0D051020D22
:1032D800FC0EF324F66EEF0EF420F76EF86A000E7B
:1032E800F8220900F5CF48F00A00F5CF49F0D4C01C
:1032F80046F0D5C047F019EC26F046C041F047C06B
:1033080042F0446A0A0E436E5DEC26F04150300FDD
:103318000001D96FD95115EC28F00001D007D02948
:10332800D5E1C1C0F6FFC2C0F7FF0001C14BC22BF7
:10333800F86A0800F5CFD9F0D95101E0ABD61200F0
:103348000850800B116E08500824136E07BE1380B6
:10335800135008E0132804E1056A066A076A086A38
:10336800078E04D0056A066A076A086A0C50800B43
:10337800111A0C500C24126E0BBE1280125008E069
:10338800122804E1096A0A6A0B6A0C6A0B8E04D0D7
:10339800096A0A6A0B6A0C6A125002E0135005E1C6
:1033A800056A066A076A086A12000B500502F3CF1D
:1033B8001CF0F4CF1DF01C50146E156A166A176ABB
:1033C8001D50186E196A1A6A1B6A0A500602F3CF52
:1033D8001CF0F4CF1DF01C501426000E15221622E6
:1033E80017221D501826000E19221A221B220950D6
:1033F8000702F3CF1CF0F4CF1DF01C501426000E6A
:103408001522162217221D501826000E19221A22DC
:103418001B2216C017F015C016F014C015F0146A58
:1034280009500602F3CF1CF0F4CF1DF01C501426EF
:103438001D501522000E162217220A500502F3CF3E
:103448001CF0F4CF1DF01C5014261D501522000E40
:103458001622172216C017F015C016F014C015F062
:10346800146A09500502F3CF1CF0F4CF1DF01C506C
:1034780014261D501522000E162217220B50060284
:10348800F3CF1CF0F4CF1DF01C5018261D50192244
:10349800000E1A221B220A500702F3CF1CF0F4CFA9
:1034A8001DF01C5018261D501922000E1A221B222E
:1034B8000B500702F3CF1CF0F4CF1DF01C500D6E1B
:1034C8001D500E6E0F6A106A0FC010F00EC00FF07C
:1034D8000DC00EF00D6A0D5018260E5019220F500F
:1034E8001A2210501B2217501826000E19221A22D1
:1034F8001B2216C017F015C016F014C015F0146A78
:10350800125013C00DF00E6A0D26000E0E22820E08
:103518000D241C6EFF0E0E201D6E0FD0D89018368D
:1035280019361A361B3617BE1880D8901436153639
:10353800163617361C06D8A01D061AAEEFD7126A23
:1035480017AE13D014500D6E15500E6E16500F6E28
:103558007F0E1714106E0D500E100F10101003E090
:10356800010E126E02D018B0FBD712500EE0182AC6
:10357800000E19221A221B221BA007D01B341B3253
:103588001A32193218321C4A1D2A1DBE0AD01D5083
:1035980002E11C2806E3186A196A800E1A6E7F0E6B
:1035A80015D01DBE04D01D5008E11C0406E2186A9F
:1035B800196A1A6A1B6A116A0AD01CC013F07F0EB6
:1035C8001A161B6A13B01A8ED89013301B6E11503E
:1035D8001B1218C005F019C006F01AC007F01BC06E
:1035E80008F01200DCD0980E056EF00E066E02ECA4
:1035F80027F005C0CAF006C0CBF0980E0001F625EA
:10360800546E556AF00E55229AEC26F0E5D0690EF4
:10361800056EF00E066E02EC27F005C0CAF006C073
:10362800CBF0690E0001F625546E556AF00E55224E
:103638009AEC26F0D1D0650E056EF10E066E02ECFE
:1036480027F005C0CAF006C0CBF0650E0001F625CC
:10365800546E556AF10E55229AEC26F0BDD0A50E8F
:10366800056EF10E066E02EC27F005C0CAF006C022
:10367800CBF0A50E0001F625546E556AF10E5522C1
:103688009AEC26F0A9D0C50E056EF00E066E02EC77
:1036980027F005C0CAF006C0CBF0C50E0001F6251C
:1036A800546E556AF00E55229AEC26F095D0060E07
:1036B800056EF00E066E02EC27F005C0CAF006C0D3
:1036C800CBF0060E0001F625546E556AF00E552211
:1036D8009AEC26F081D0400E056EF10E066E02ECD3
:1036E80027F005C0CAF006C0CBF0400E0001F62551
:1036F800546E556AF10E55229AEC26F06DD0190ECB
:10370800056EF10E066E02EC27F005C0CAF006C081
:10371800CBF0190E0001F625546E556AF10E5522AC
:103728009AEC26F059D0390E056EF00E066E02ECB2
:1037380027F005C0CAF006C0CBF0390E0001F62507
:10374800546E556AF00E55229AEC26F045D0860E36
:10375800056EF10E066E02EC27F005C0CAF006C031
:10376800CBF0860E0001F625546E556AF10E5522EF
:103778009AEC26F031D0F00E056EF00E066E02ECD3
:1037880027F005C0CAF006C0CBF0F00E0001F62500
:10379800546E556AF00E55229AEC26F01DD09851B9
:1037A8000A0A01E120D71E0A01E131D70A0A01E11C
:1037B80056D7360A01E167D71A0A01E178D70E0A07
:1037C8008AE07A0A9CE0160AAEE0340A01E133D7AF
:1037D8000A0ABDE0160ACFE00001F62B090EF61919
:1037E8000DE1600E70256C6FF00E71216D6FFF0E8C
:1037F80072216E6FFF0E73216F6F1200F60EC66F87
:10380800C769CAC0C8F0CBC0C9F0C651C827C751DC
:10381800C923F651C85D000EC9590FE2480E70253C
:103828006C6FF40E71216D6FFF0E72216E6FFF0EBB
:1038380073216F6F080EF66F080CA40E70256C6F5D
:10384800ED0E71216D6FFF0E72216E6FFF0E7321E9
:103858006F6F12002150800B2A6E21502124356E83
:1038680020BE3580355008E0352804E11E6A1F6AFD
:10387800206A216A208E03D01E6A1F6A206A216A84
:103888002550800B2A1A25502524366E24BE3680F2
:10389800365008E0362804E1226A236A246A256A39
:1038A800248E03D0226A236A246A256A22502310B0
:1038B8002410251011E11E6A1F6A206A216A800EF1
:1038C80020127F0E21121EC01EF01FC01FF020C044
:1038D80020F021C021F01200355005E11E6A1F6A50
:1038E800206A216A1200365035C026F0276A265E03
:1038F800000E275A7F0E26242F6E000E2720306ECA
:103908001EC02BF01FC02CF020C02DF021C02EF0BF
:103918001E6A1F6A206A216A316A326A336A346A07
:10392800366A26D0365011E0D8902B362C362D36F4
:103938002E36D8901E361F362036213634BE1E80CD
:10394800D890313632363336343622502B5C2350F9
:103958002C5824502D5825502E5809E3348C2250C9
:103968002B5E23502C5A24502D5A25502E5A362A75
:10397800190E3664D7D72B502C102D102E1011E0AD
:1039880031800FD0D8901E361F362036213634BEEF
:103998001E80D89031363236333634362F06D8A0CA
:1039A800300620AEEFD7366A34AE13D03150266ECB
:1039B8003250276E3350286E7F0E3414296E2650ED
:1039C80027102810291003E0010E366E02D01EB011
:1039D800FBD736500EE01E2A000E1F22202221227D
:1039E80021A007D02134213220321F321E322F4A23
:1039F800302A30BE0AD0305002E12F2806E3306A60
:103A08002F681E6A1F6A206A216A30BE04D03050AF
:103A180009E12F0407E22F6A306A1E6A1F6A206ACA
:103A2800216A2A6A2FC035F035A002D0208E01D035
:103A3800209ED8903530216E2A5044D77CC0C1F0E2
:103A48000001C36BC26B050E4D02F3CF4FF0F4CFEC
:103A580050F04E02F3505026010E516EEB0E526E8E
:103A68004F50512650505222C3515126000E522217
:103A780051C0F6FF52C0F7FFF86A0800F5CFC4F04E
:103A8800C4A102D0030EC213C4A302D00C0EC213E9
:103A9800C4A502D0300EC213C4A702D0C00EC213F0
:103AA800000EC125D96EDA6A020EDA22C2C0DFFF23
:103AB800C12B000EC125D96EDA6A020EDA22C2C005
:103AC800DFFFC12BC32B040EC365BCD77C51800F0D
:103AD800C16FC36BC26B050E4D02F3CF4FF0F4CF2D
:103AE80050F04E02F3505026010E516EEB0E526EFE
:103AF8004F50512650505222C3515126000E522287
:103B080051C0F6FF52C0F7FFF86A0800F5CF53F02E
:103B180053380F0BC46FC4A102D0030EC213C4A341
:103B280002D00C0EC213C4A502D0300EC213C4A713
:103B380002D0C00EC213000EC125D96EDA6A020E79
:103B4800DA22C2C0DFFFC12B000EC125D96EDA6AA6
:103B5800020EDA22C2C0DFFFC12BC32B040EC365DD
:103B6800B9D70C0E7C27000E7D23000C0D6E0D506E
:103B78001CE008AE1AD005C009F006C00AF007C05C
:103B88000BF008C00CF0091E0A1E0B1E0C1E092A99
:103B9800000E0A220B220C2209C00FF00AC010F0F6
:103BA8000BC011F00CC012F008D005C00FF006C011
:103BB80010F007C011F008C012F0055006100710E9
:103BC800081005E1056A066A076A086A1200960E77
:103BD8000E6E06D00E2AD8901232113210320F32E1
:103BE800096A0A6A0B6AFE0E12140C6E09500A1052
:103BF8000B100C100CE0EED70E2A0F2A000E102224
:103C080011221222D8901232113210320F32096A60
:103C18000A6A0B6A12500C6E09500A100B100C102D
:103C280007E0EAD70E06D8900F361036113612364E
:103C380011BE03D0020E0E60F5D70EB002D07F0E73
:103C48001116D8900E320EC009F00A6A0B6A0C6A77
:103C580009C00CF00B6A0A6A096A09500F120A5067
:103C680010120B5011120C5012120D5002E008BE27
:103C7800128E0FC005F010C006F011C007F012C078
:103C880008F0120041C005F042C006F0086A0A0EAA
:103C9800076E3FEC27F005C041F006C042F04250E5
:103CA80003E13C0E415C2EE34128010E42582AE212
:103CB8009A0E226E990E236E190E246E3F0E256EF3
:103CC80041C005F042C006F0076A086A000EBAEC67
:103CD8001DF005C01EF006C01FF007C020F008C088
:103CE80021F02EEC1CF01EC037F01FC038F020C0A9
:103CF80039F021C03AF03CEC22F037C045F038C02A
:103D080046F036D04128010E42582FE3210E415C7F
:103D1800030E42582AE2226A236A200E246E400EBD
:103D2800256E41C005F042C006F0076A086A000E19
:103D3800BAEC1DF005C01EF006C01FF007C020F049
:103D480008C021F02EEC1CF01EC037F01FC038F060
:103D580020C039F021C03AF03CEC22F0800E372424
:103D6800456E020E3820466E03D0466A640E456ED4
:103D780045C043F046C044F0D89044324332D8900E
:103D8800443243324350BE6E45C043F0030E4316DF
:103D98004338F00B0C09BD6E1200C96B94051DE188
:103DA800666A8A968988898A070E066ED00E056E1D
:103DB8003EEC26F0BD6A8294066A640E056E3EECFF
:103DC80026F070EC25F0040A04E1020E0001946F5D
:103DD80058D0010E0001C96F54D0020E94190FE19A
:103DE800020E5A180CE119EC23F0200E8A198B11D7
:103DF80002E0020EC91B030E946F8A8642D0030E9E
:103E0800941927E1030E5A1824E1010EC06F850E9C
:103E1800936E8A82130E066E880E056E3EEC26F0AF
:103E280082A202D0040EC91B066A0A0E056E3EEC79
:103E380026F081A408D08A92066A0A0E056E3EEC26
:103E480026F081A402D0080EC91B0A0E946F8A9628
:103E580018D00A0E941915E1020E5A1812E1810EB3
:103E6800936E030E066EE80E056E3EEC26F082B2E7
:103E780003D0040EC91B05D0500E946FC06B40ECE4
:103E880012F00001C951D8B41200810E936E8A92C3
:103E98008A948A96C06B060E576EC9C094F0010EBC
:103EA8005A6E010C116A0D6A0E6A126A1250740F6A
:103EB800D96EDA6A020EDE180BE1112A1250020DD1
:103EC800F350600FD96EDA6ADE500D26DD500E22EF
:103ED800122A030E1264EAD7115016E10001B651F6
:103EE800BA5D056EB751BB59066E0A0E0502F3CFCF
:103EF80007F0F4CF08F00602F35008268651075C55
:103F0800875108584DE2010C112AF60E056E066815
:103F180005500D02F3CF07F0F4CF08F00E02F3506E
:103F2800082606500D02F350082600018651072482
:103F38000F6E87510820106E10AE02D00F6A106AFB
:103F4800040E116401D0116E0A0EB603F3CF05F00A
:103F5800F4CF06F0B703F35006261150076E086A2F
:103F680005500702F3CF09F0F4CF0AF00802F35026
:103F78000A2606500702F3500A260F500926105049
:103F88000A220A0EBA03F3CF0BF0F4CF0CF0BB03EE
:103F9800F3500C2609500B5C0A500C5801E2010C36
:103FA800000C02D0084A092A08C0D9FF09C0DAFF64
:103FB800200EDE18F7E008C0D9FF09C0DAFF090EA5
:103FC800DE18F0E00D6A0E6A0C6A08C0D9FF09C055
:103FD800DAFF2D0EDE1802E10C2A07D008C0D9FF3F
:103FE80009C0DAFF2B0EDE181BE1084A092A18D08F
:103FF8000A0E0D02F3CF0AF0F4CF0BF00E02F350C5
:104008000B2608C0D9FF09C0DAFFDF500A26000EC8
:104018000B22D00E0A240D6EFF0E0B200E6EE5D774
:1040280008C0D9FF09C0DAFFDF50C2EC27F0E0E290
:104038000C500DE00DC00AF00EC00BF00A1E0B1E4E
:104048000A4A0B2A0AC008F00BC009F012000DC07A
:1040580008F00EC009F01200F2CF51F0F29EA96AE2
:10406800AA6ABA0E056E076A020E066E7CEC26F086
:10407800B80E056E076A020E066E7CEC26F0B60EC8
:10408800056E076A020E066E7CEC26F0B00E056E11
:10409800076A040E066E7CEC26F0590E056E076A58
:1040A800010E066E7CEC26F0C00E056E076A010E46
:1040B800066E7CEC26F0B40E056E076A020E066EDC
:1040C8007CEC26F0BF0E056E076A010E066E7CECCE
:1040D80026F0580E056E076A010E066E7CEC26F077
:1040E800BE0E056E076A010E066E7CEC26F0BD0E4C
:1040F800056E076A010E066E7CEC26F051C0F2FFD1
:10410800280E0001C16FFA0EC26F4AEF18F0D0EC0A
:1041180027F00001975102E096EC27F0555003E193
:10412800640E545C22E37D6B280E7C6F54C046F00D
:1041380055C047F0496A640E486E19EC26F0300EF7
:1041480046244D6E000E47204E6E22EC1DF054C0E2
:1041580041F055C042F0446A640E436E5DEC26F0AF
:1041680041C054F042C055F003D07D6B2E0E7C6FD9
:1041780054C046F055C047F0496A0A0E486E19EC1B
:1041880026F0300E46244D6E000E47204E6E22EC6F
:104198001DF054C041F055C042F0446A0A0E436E07
:1041A8005DEC26F0300E41244D6E000E42204E6E1E
:1041B80022EC1DF04E6A410E4D6E22EC1DF0040EED
:1041C800C6EF25F00C6A00019D51FDE17E0E01014C
:1041D800006F0C2A2BD005C0D9FF06C0DAFFDF50CC
:1041E8000D6E054A062A110E0D180CE0120E0D1858
:1041F80009E0130E0D1806E07E0E0D1803E07D0E83
:104208000D180BE1200E0D1A000E0C24D96EDA6A77
:10421800010EDA227D0EDF6E0C2A000E0C24D96EF8
:10422800DA6A010EDA220DC0DFFFD3D707060728A6
:10423800D2E1000E0C24D96EDA6A010EDA227E0E63
:10424800DF6E0C2AE80E00017025086E030E71213E
:10425800096E000E72210A6E000E73210B6EA151B9
:1042680009E00850705D095071590A5072590B5095
:104278007359F5E38A8A9D881200F2CF09F0F29EFD
:10428800A96AAA6ABA0E056E076A020E066E18ECCB
:1042980027F0B80E056E076A020E066E18EC27F0B6
:1042A800B60E056E076A020E066E18EC27F0B00E01
:1042B800056E076A040E066E18EC27F0590E056E97
:1042C800076A010E066E18EC27F0C00E056E076A25
:1042D800010E066E18EC27F0B40E056E076A020E82
:1042E800066E18EC27F0BF0E056E076A010E066E03
:1042F80018EC27F0580E056E076A010E066E18ECCA
:1043080027F0BE0E056E076A010E066E18EC27F040
:10431800BD0E056E076A010E066E18EC27F009C07F
:10432800F2FF12006C0ED36E040ED26E9F0ED06E8A
:104338000F013F6B3E6B3D6B806A070E386F926EC4
:10434800816A396B870E936E616EF19E826A3A6B51
:10435800820E946E0D0EB06E040EAF6E080EB86E1F
:10436800240EAC6E900EAB6E766A220E756E080E39
:10437800706E240E726E900E716EA00E426F010E5A
:10438800C26EC16A850EC06E870ED56EF90EBB6E01
:10439800060EBA6EBD6A666AF90E526F060E516F46
:1043A800C76A100EC66E300EC66E9D8AA38A7D80BF
:1043B800F28EF29C8988898A676A0C0E666EA20E54
:1043C8000001C16FF90EC26F4AEF18F001013E6992
:1043D800030E3F6F500E406F020E416F010E426F89
:1043E800436B010E446F070E136E010E126E3E0EE4
:1043F8001324D96EDA6A010EDA22DF6A132A125000
:10440800020DF350600FD96EDA6A3E0E1324E16E86
:10441800E26A010EE222DFCFE7FF132A122A030E17
:104428001264E5D73E0E056E010E066E13C007F046
:1044380062EC24F005C010F006C011F03E0E132403
:10444800D96EDA6A010EDA2210C0DFFF132A3E0E97
:104458001324D96EDA6A010EDA2211C0DFFF132A9B
:104468003E0E056E010E066E13C007F0E6EF20F053
:1044780039343A34406E405005E1376A386A396A4F
:104488003A6A120037C03BF038C03CF039C03DF002
:104498003AC03EF0200E05D0D8903E323D323C3234
:1044A8003B32E82EF9D73B503F6E398E3A6A960E6A
:1044B800405E40AE0CD04050800A970FDEE3D890A3
:1044C8003A32393238323732403EF9D70CD01F0EE3
:1044D800406407D0D2D7D8903736383639363A368E
:1044E80040064050F8E13F5008E03A1E391E381E99
:1044F800376C000E382239223A2237C037F038C0DC
:1045080038F039C039F03AC03AF012001B6A1C6A18
:10451800800E15141D6E7F0E16141E6E1B501C1077
:104528001D101E1004E1136A146A156A166A1B6AC4
:104538001C6A800E19141D6E7F0E1A141E6E1B50F5
:104548001C101D101E1004E1176A186A196A1A6AED
:1045580016AE09D0136C141ED8B0142A151ED8B084
:10456800152A800E16561AAE09D0176C181ED8B028
:10457800182A191ED8B0192A800E1A56800E161A33
:104588001A1A1750135C18501458195015581A5005
:10459800165802E2D8901200D8801200575002E153
:1045A800965120E09251D8B41200050E571802E136
:1045B800140E07D0575004E0965102E00A0E01D0BD
:1045C800030E9127575005E0800E916502D090693F
:1045D80007D0965104E0C80E916501D0F8D7906BCA
:1045E800926B1200BE5104E08F5102E1906B1200F1
:1045F8005A0403E1280E906F280C020E5A1804E1A1
:104608009069800E916F800C030E5A18D8A412007E
:104618009251D8B41200020E9127915106EC28F05D
:1046280052EC27F00001906FDBD7050EC26EA50E85
:10463800C06E066A640E056E3EEC26F0C282C2B2F7
:10464800FED700018B6B0D0E8A6F8B0EC35C010EBB
:10465800C45809E3B20EC35C010EC45804E2000E4C
:104668008B6F100E8A6FC45003E1B00EC35C09E370
:10467800C45007E1C10EC35C04E2000E8B6F200E2C
:104688008A6FC45003E1590EC35C09E3C45007E1C3
:10469800620EC35C04E2000E8B6F3F0E8A6FBF513F
:1046A80004E0B4C08AF0B5C08BF0010EC26E850E6E
:1046B800C06E850C05C0D9FF06C0DAFFDF500B6E4F
:1046C80007C0F6FF08C0F7FFF86A0800F5CF0DF03D
:1046D8000B502DE0020E0526000E06220D500B1879
:1046E80026E12FEEFFF00550D9260650DA22DF50DA
:1046F8000C6E0728096E000E08200A6E09C0F6FF26
:104708000AC0F7FFF86A0800F5CF0DF00C5007E172
:104718000D500C5C056E066AD8A006061200020E43
:104728000726000E08220C500D18F2E1C3D70D50D1
:104738000B5C056E066AD8A0060612000550090231
:10474800F3CF0DF0F4CF0EF00F6A106A05500A028D
:10475800F3500E26F4500F22000E102206500902C4
:10476800F3500E26F4500F22000E102205500B02B3
:10477800F3500F26F450102206500A02F3500F2669
:10478800F450102207500902F3500F26F45010225B
:104798000C500502F350102606500B02F350102659
:1047A80007500A02F350102608500902F350102649
:1047B8000DC005F00EC006F00FC007F010C008F0DD
:1047C8001200D0EC27F00001975103E0040E5618B0
:1047D80005E0975105E1020E561802E196EC27F024
:1047E80054C005F055C006F002EC27F0FA0E00019F
:1047F8000503F3CFC5F0F4CFC6F00603F350C62780
:10480800FF0E0503F350C627400EC5257C6F000E2A
:10481800C6217D6F54C0F6FF55C0F7FFF86A08003F
:10482800F5504D6E4E6A22EC1DF0544A552A54C07C
:10483800F6FF55C0F7FFF86A0800F550EBE156504F
:10484800C6EF25F00A6A08AE06D0076C081ED8B075
:10485800082A010E0A6E06AE06D0056C061ED8B0F0
:10486800062A010E0A1A0B6A0C6A075008101BE088
:10487800010E096E04D0D89007360836092A08AE0A
:10488800FAD7D8900B360C360750055C08500658F6
:1048980005E30750055E0850065A0B80D890083289
:1048A8000732092EEED70A5004E00B6C0C1ED8B064
:1048B8000C2A0BC005F00CC006F012000E680F6839
:1048C8002BD005C0D9FF06C0DAFFDF500A6E0B6A8D
:1048D8000C6A0D6A0E500A18086E08A00CD0D89001
:1048E8000F30096E0E30086E080E08180E6E840E12
:1048F80009180F6E03D0D8900F320E32D8900B32B1
:104908000A320C4A0D2A0DBEE5D70D5003E1080EF8
:104918000C5CE0E3054A062A07060728D2E10E1ECA
:104928000F1E0EC005F00FC006F0FF0C8B908B9881
:10493800066A040E056EE6EC27F08B88066A040EFC
:10494800056EE6EC27F0A20EFEEC27F0C80EFEEC92
:1049580027F0A00EFEEC27F0A60EFEEC27F0240EA2
:10496800FEEC27F0F80EFEEC27F0010EFEEC27F027
:10497800810EFEEC27F0240EFEEC27F02F0EFEEC45
:1049880027F0400EFEEC27F0000EF6EC27F0000EA4
:10499800B4EC27F0AF0EFEEF27F0360EF66E500E91
:1049A800F76E000EF86E0900F5CFF6F00900F5CFA6
:1049B800F7F00900F5CFF8F0390EF66E500EF76EE5
:1049C800000EF86E0900F5CF5AF002EE00F011EE75
:1049D80000F0EE6AE550E150FCE1E250FAE101EE48
:1049E80000F0D40EEE6AE806FDE100EE60F0610E1C
:1049F800EE6AE806FDE1596A586A576A5B905B926D
:104A0800000138EF01F0566ED0EC27F054C005F0E5
:104A180055C006F002EC27F0FA0E00010503F3CFAB
:104A2800C5F0F4CFC6F00603F350C627FF0E050302
:104A3800F350C627400EC5257C6F000EC6217D6F3A
:104A480054C0F6FF55C0F7FFF86A0800F5504D6EE0
:104A58004E6A22EC1DF0544A552A54C0F6FF55C040
:104A6800F7FFF86A0800F550EBE15650C6EF25F05D
:104A78000A6A06AE06D0056C061ED8B0062A010ED4
:104A88000A6E08AE04D0076C081ED8B0082A075072
:104A9800081017E0010E096E04D0D89007360836C2
:104AA800092A08AEFAD70750055C0850065804E3EF
:104AB8000750055E0850065AD89008320732092E6A
:104AC800F2D70A5004E0056C061ED8B0062A05C0C5
:104AD80005F006C006F01200C282C2B2FED7D50E9B
:104AE800C35C030EC45801E3010C5D0EC35C030EE6
:104AF800C45806E3930EC35C030EC45801E2020CCB
:104B0800D10EC35C020EC45806E3200EC35C030E2C
:104B1800C45801E2030CC45003E11A0EC35C06E357
:104B2800C45004E15F0EC35C01E2040C000C136E78
:104B380001013E69030E3F6F500E406F020E416F38
:104B4800010E426F13C043F110C044F111C045F18A
:104B580012C046F13E0E056E010E066E090E076E76
:104B680062EC24F005C014F006C015F014C047F13B
:104B780015C048F13E0E056E010E066E0B0E076E4F
:104B8800E6EF20F00A6E0B6A0AC008F0000E0EEC81
:104B980028F00C6A000E0B24D96EDA6A020EDA22AB
:104BA800DF50EEEC27F00B2A0C2A7F0E0C64F2D7AC
:104BB8000A28086E000E0EEC28F00C6A000E0B2472
:104BC800D96EDA6A020EDA22DF50EEEC27F00B2AF1
:104BD8000C2A7F0E0C64F2D77F0C090EC26E080EE9
:104BE800C16EBD0EC06EC282C2B2FED7C3CF46F040
:104BF800C4CF47F0496A050E486E19EC26F046C046
:104C08004DF047C04EF0010EC26EC16A850EC06EEF
:104C18004E5006E1320E4D5C03E20001996B120022
:104C28004D50CE0F0001996F12004B6A4C6A4850E4
:104C380049101BE0010E4A6E04D0D8904836493618
:104C48004A2A49AEFAD7D8904B364C364850465C7B
:104C58004950475805E34850465E4950475A4B80EB
:104C6800D890493248324A2EEED74BC046F04CC055
:104C780047F0120070C00BF071C00CF072C00DF05C
:104C880073C00EF005500B24076E06500C20086EFA
:104C9800000E0D20096E000E0E200A6E075000014E
:104CA800705D08507159095072590A507359EAE3F6
:104CB80012004350441017E0010E456E04D0D890FE
:104CC80043364436452A44AEFAD74350415C4450F3
:104CD800425804E34350415E4450425AD89044320B
:104CE8004332452EF2D741C041F042C042F0120093
:104CF80005C008F013D0A66AA6840850D96EDA6AEF
:104D0800DF50A86E082AF2BE07D0550EA76EAA0E6D
:104D1800A76EA682A6B2FED7A694A92A0606D8A090
:104D280007060628E8E10728E6E11200C56B7D6B57
:104D3800040E7C6FD0EC27F054C0F6FF55C0F7FF87
:104D4800F86A0800F5504D6E4E6A22EC1DF0544A80
:104D5800552AC52BC505566E080E5664EDD7020EAA
:104D6800C6EF25F00C6E0C50066E076A0550086EEB
:104D7800096A082A000E092206500802F3CF0AF031
:104D8800F4CF0BF00902F3500B2607500802F3503A
:104D98000B260BC00AF00B6A0A501200066E086A4E
:104DA800055014E0010E076E03D0D8900536072A87
:104DB80005AEFBD7D89008360550065C03E30550CE
:104DC800065E0880D8900532072EF4D708501200E6
:104DD800DCEC27F0110E546EFB0E556E020E07EC3C
:104DE80025F0820E546EFB0E556E040E07EC25F06E
:104DF800070E066ED00E056E3EEF26F005C007F0D2
:104E080006C008F002D0074A082A07C0F6FF08C003
:104E1800F7FFF86A0800F550F6E10550075C056EE3
:104E280006500858066E120005C008F0A66A08D099
:104E3800A6800850D96EDA6AA8CFDFFF082AA92A07
:104E48000606D8A007060628F3E10728F1E11200B4
:104E5800066E080E076E086AD89006340834086E85
:104E6800D89006360550085C02E30550085E072E08
:104E7800F3D70850120005500702F3CF09F0F4CF1A
:104E88000AF005500802F3500A2606500702F350AC
:104E98000A2609C005F00AC006F012000F6E0FC0FE
:104EA80010F010BE101E10C005F01050B6EC26F021
:104EB8000D6E0D500D240E6E0FBE0E1E0E501200FC
:104EC80043C037F044C038F0396A3A6A72EC16F0D9
:104ED80037C043F038C044F039C045F03AC046F016
:104EE8001200076E010E066E200E071807E00E0E60
:104EF800076003D0090E076001D0066A06C005F0F6
:104F080005301200055006100710081002E0800E48
:104F1800081A05C005F006C006F007C007F008C06B
:104F280008F012007C6B7D6B4E6A3C0E4D6E22ECD5
:104F38001DF07D6B740E7C6F4E6A3E0E4D6E22EF37
:104F48001DF00B6E0BC008F0000E0EEC28F00C6A7A
:104F58000A50EEEC27F00C2A830E0C64F9D7830C68
:104F6800066E06380F0B1009076E0750FEEC27F087
:104F780006500F0B076E0750FEEF27F0076E066A04
:104F88003A0E076005D02F0E076402D0010E066E98
:104F980006C005F005301200056A000E0524D96E1A
:104FA800DA6A020EDA22DF6A052A0550F6E11200F3
:104FB8000D6A0A6A0D50A5EC27F00D2A070E0D643C
:104FC800F8D7070C0506D8A006060528FBE1062831
:104FD800F9E11200056E8B809E9605C0C9FF9EB64A
:104FE8001200FDD7066E0650BF0BB009076E0750BA
:104FF800FEEF27F0056E8B909E9605C0C9FF9EB602
:105008001200FDD7066E06BE061E06500624056E63
:1050180005501200096E0950B4EC27F00850F6EF5D
:1050280027F0056EA4A8FED705C073FF1200080F6D
:025038000F0166
:10EB00000000000000003E5B4F5B3E3E6B4F6B3EE3
:10EB10001C3E7C3E1C183C7E3C181C577D571C1C20
:10EB20005E7F5E1C00183C1800FFE7C3E7FF00187B
:10EB3000241800FFE7DBE7FF30483A060E26297964
:10EB40002926407F050507407F05253F5A3CE73CC5
:10EB50005A7F3E1C1C08081C1C3E7F14227F221476
:10EB60005F5F005F5F06097F017F006689956A60CD
:10EB70006060606094A2FFA29408047E04081020E4
:10EB80007E201008082A1C08081C2A08081E1010DD
:10EB900010100C1E0C1E0C30383E3830060E3E0E87
:10EBA00006000000000000005F00000007000700F2
:10EBB000147F147F14242A7F2A12231308646236D8
:10EBC000495620500008070300001C224100004164
:10EBD000221C002A1C7F1C2A08083E08080080709E
:10EBE00030000808080808000060600020100804D1
:10EBF000023E5149453E00427F4000724949494624
:10EC00002141494D331814127F1027454545393CA1
:10EC10004A4949314121110907364949493646498E
:10EC200049291E00001400000040340000000814B0
:10EC30002241141414141400412214080201590929
:10EC4000063E415D594E7C1211127C7F494949367E
:10EC50003E414141227F4141413E7F494949417FF7
:10EC6000090909013E414151737F0808087F0041AD
:10EC70007F41002040413F017F081422417F4040F6
:10EC800040407F021C027F7F0408107F3E414141CB
:10EC90003E7F090909063E4151215E7F0919294637
:10ECA000264949493203017F01033F4040403F1F4D
:10ECB0002040201F3F4038403F6314081463030482
:10ECC0007804036159494D43007F414141020408E2
:10ECD0001020004141417F040201020440404040B5
:10ECE00040000307080020545478407F28444438EB
:10ECF0003844444428384444287F38545454180035
:10ED0000087E090218A4A49C787F080404780044B3
:10ED10007D40002040403D007F1028440000417F9E
:10ED200040007C047804787C080404783844444427
:10ED300038FC1824241818242418FC7C080404081F
:10ED4000485454542404043F44243C4040207C1C38
:10ED50002040201C3C4030403C44281028444C902B
:10ED600090907C4464544C44000836410000007785
:10ED70000000004136080002010204023C2623265E
:10ED80003C1EA1A161123A4040207A385454555992
:10ED900021555579412154547841215554784020CA
:10EDA000545579400C1E52721239555555593954E3
:10EDB00054545939555454580000457C410002457B
:10EDC0007D420001457C40F0292429F0F0282528C7
:10EDD000F07C545545002054547C547C0A097F49EA
:10EDE00032494949323248484832324A4848303A32
:10EDF0004141217A3A42402078009DA0A07D3944CB
:10EE00004444393D4040403D3C24FF2424487E4951
:10EE100043662B2FFC2F2BFF0929F620C0887E0983
:10EE20000320545479410000447D413048484A321F
:10EE3000384040227A007A0A0A727D0D19317D2607
:10EE400029292F28262929292630484D40203808ED
:10EE500008080808080808382F10C8ACBA2F10286E
:10EE600034FA00007B000008142A142222142A1409
:10EE700008AA005500AAAA55AA55AA000000FF003A
:10EE8000101010FF00141414FF001010FF00FF10EA
:10EE900010F010F0141414FC001414F700FF00001C
:10EEA000FF00FF1414F404FC141417101F10101F9B
:10EEB000101F1414141F00101010F0000000001F89
:10EEC000101010101F10101010F010000000FF1094
:10EED00010101010107D1211127D000000FF1400A0
:10EEE00000FF00FF00001F10170000FC04F41414C2
:10EEF0001710171414F404F40000FF00F71414148E
:10EF000014141414F700F7141414171410101F100D
:10EF10001F141414F4141010F010F000001F101F30
:10EF20000000001F14000000FC140000F010F03D71
:10EF30004242423D141414FF141010101F00000030
:10EF400000F010FFFFFFFFFFF0F0F0F0F02254544C
:10EF50007842000000FFFF0F0F0F0F0F38444438B6
:10EF6000447C2A2A3E147E02020606027E027E02AB
:10EF700063554941632254547842407E201E200646
:10EF8000027E020299A5E7A5991C2A492A1C4C7207
:10EF900001724C304A4D4D303048784830BC625A8E
:10EFA000463D3E494949007E0101017E2A2A2A2A1E
:10EFB0002A44445F444440514A444040444A5140FA
:10EFC0000000FF0103E080FF000008086B6B083AB7
:10EFD0004444443A060F090F0600001818000000C8
:10EFE0001010003040FF0101001F01011E00191D1B
:10EFF0001712003C3C3C3C000000000001000A00ED
:10F000006400E80310274D494E202020202D205376
:10F010006574204D494E20436861726765204375D1
:10F020007272656E74207468652045562077696C2D
:10F030006C206163636570740043414C2020202084
:10F040002D2043616C6962726174652043543120E4
:10F05000284354322B332077696C6C20616C736FBA
:10F06000206368616E676529004D4F44452020206C
:10F070002D2053657420746F20536D617274206D60
:10F080006F6465206F72204E6F726D616C20455603
:10F090005345206D6F646500434F4E464947202D10
:10F0A0002053657420746F2046697865642043613D
:10F0B000626C65206F722054797065203220536F26
:10F0C000636B6574004D4158202020202D2053652E
:10F0D00074204D4158204368617267652043757202
:10F0E00072656E7420666F722074686520455600E4
:10F0F00052434D4F4E20202D205265736964756137
:10F100006C2043757272656E74204D6F6E69746FFA
:10F1100072206F6E20494F33004341424C452020FE
:10F120002D20536574204669786564204361626CC4
:10F13000652043757272656E74206C696D69740028
:10F140004C4F434B2020202D204361626C65206C86
:10F150006F636B696E67206163747561746F722091
:10F1600074797065004C4F4144424C202D2053650A
:10F1700074204C6F61642042616C616E63696E67DC
:10F18000206D6F646500414343455353202D20415A
:10F19000636365737320636F6E74726F6C206F6E40
:10F1A00020494F32004D41494E5320202D205365B8
:10F1B00074204D6178204D41494E53204375727241
:10F1C000656E74004C4F41442042414C00446973C9
:10F1D00061626C656400536F6C656E6F69640045B5
:10F1E0006E61626C656400536C6176652033005318
:10F1F0006C617665203200536C6176652031005376
:10F20000776974636800414343455353004D61730C
:10F21000746572004E6F726D616C00536F636B6545
:10F220007400434F4E4649470052434D4F4E0043F2
:10F2300041424C45004D6F746F72004D41494E5331
:10F2400000536D617274004669786564004D454EE7
:10F25000550045584954004C4F434B004D4F4445D1
:10F260000043414C004D494E004D4158004D494E20
:10F27000204368617267652043757272656E742001
:10F2800073657420746F3A20257520410D0A456E10
:10F29000746572206E6577204D494E204368617217
:10F2A00067652043757272656E742028362D31367D
:10F2B000293A200043414C202020202D2043616C1E
:10F2C00069627261746520435431202028435431AF
:10F2D0003A2533752E2530317541204354323A2575
:10F2E00033752E2530317541204354333A2533751B
:10F2F0002E2530317541290D0A004D41494E5320CC
:10F3000043757272656E742073657420746F3A2051
:10F31000257520410D0A456E746572206E65772053
:10F320006D6178204D41494E532043757272656E70
:10F3300074202831302D313030293A200046697848
:10F340006564204361626C652043757272656E74FA
:10F35000206C696D69742073657420746F3A202580
:10F360007520410D0A456E746572206E6577206CBC
:10F37000696D6974202831332D3830293A200045D1
:10F380006E746572204C6F61642042616C616E63C3
:10F39000696E67206D6F6465202844495341424C73
:10F3A000452F4D41535445522F534C415645312F13
:10F3B000534C415645322F534C41564533293A2040
:10F3C000004D41582043757272656E7420736574E8
:10F3D00020746F3A20257520410D0A456E746572C0
:10F3E000206E6577204D4158204368617267652023
:10F3F00043757272656E74202831302D3830293A89
:10F4000020005741524E494E47202D20444F204E58
:10F410004F54205345542043555252454E54204892
:10F420004947484552205448414E20594F55522093
:10F430004349524355495420425245414B45520D90
:10F440000A000D0A2D2D2D2D2D2D2D2D2D2D2D2D7F
:10F450002D2D2D2D2D2D2D2D2D2D20534D41525443
:10F46000204556534520202D2D2D2D2D2D2D2D2D74
:10F470002D2D2D2D2D2D2D2D2D2D2D2D2D0D0A200C
:10F4800076002D2D2D2D2D2D2D2D2D2D2D2D2D2D90
:10F490002D2D2D2D2D2D2D2D2D2D2D2D2D2D2D2D9C
:10F4A0002D2D2D2D2D2D2D2D2D2D2D2D2D2D2D2D8C
:10F4B0002D2D2D2D2D2D2D2D2D2D2D0D0A004354AF
:10F4C000312072656164733A202533752E25303101
:10F4D0007520410D0A456E746572206E6577204D6A
:10F4E000656173757265642043757272656E742010
:10F4F000666F72204354313A20004F5220475245E4
:10F5000041544552205448414E20544845205241D0
:10F510005445442056414C5545204F4620544845BB
:10F52000204348415247494E47204341424C450DF4
:10F530000A00456E746572206E6577204361626CC7
:10F5400065206C6F636B206D6F64652028444953A0
:10F5500041424C452F534F4C454E4F49442F4D4F40
:10F56000544F52293A200020666F722064657461FE
:10F57000696C656420696E737472756374696F6E0B
:10F58000732C20736565207777772E736D617274A5
:10F59000657673652E6F72670D0A00526573696434
