:020000040000FA
:040000002FEF01F0ED
:100008005B82D9CF03F0DACF04F01CD0AECF64F115
:10001800010128512711261103E1040E255D01E392
:10002800636B320E631901E16307640E6325D96EB1
:10003800DA6A030EDA2264C1DFFF632B256B266BB5
:10004800276B286B9EBAE2D79EB89DA846D0000EB3
:1000580001015F25D96EDA6A030EDA22DF50AD6E30
:100068005F2B5E515F1903E0320E5F1902E19D9824
:100078005F6B256B266B276B286B2FD071B4D0A2D2
:1000880009D05A0407E174CF64F10101645104E115
:10009800FF0002D074CF64F1D08264C173FF320EC6
:1000A8000101621901E16207080E641904E1625155
:1000B80002E0620712D00D0E641903E00A0E6419FB
:1000C80003E1646B6229606F9E0E6225D96EDA6A5D
:1000D800020EDA2264C1DFFF622BA4BACFD7B3D0F5
:1000E800590452E1585003E1030E5A1826E02C0E29
:1000F80001013D5D010E3E5902E2899801D08988CF
:10010800898A3D51016E3E51026E3D4B3E2B910E48
:10011800015C010E02580EE382B208D0890E3D5DE3
:10012800130E3E5907E33D6B3E6B04D0010E3E6F44
:10013800900E3D6F3F6B406B72D02C0E01013F5DFE
:10014800010E405903E28988899A02D08988898AF0
:100158003F51016E4051026E3F4B402B910E015CA6
:10016800010E02580EE382A208D0890E3F5D130EDD
:10017800405907E33F6B406B04D0010E406F900E6F
:100188003F6F3D6B3E6B4BD0020E591848E15850FB
:1001980003E1030E5A1821E0580E01013D5D020EDD
:1001A8003E5902E2899801D08988898A3D51016EB9
:1001B8003E51026E3D4B3E2BBD0E015C020E0258B5
:1001C800B9E382A206D0890E3D5D130E3E59ABE21B
:1001D800B1D7020E3E6FBC0EACD7580E01013F5D81
:1001E800020E405903E28988899A02D08988898A4F
:1001F8003F51016E4051026E3F4B402BBD0E015CDA
:10020800020E0258BEE382B206D0890E3F5D130E7D
:100218004059B0E2B6D7020E406FBC0EB1D701010B
:10022800292B000E2A232B232C23252B2623272397
:1002380028235707572906E154C167FF0A0E576F4D
:10024800010E566F7E907EB04BD704C0DAFF03C014
:10025800D9FF5B9211000CEF40F0CEEF0AF0250EAB
:10026800A21930E07D51D96EDA6A020ED926DE5025
:10027800DE1013E07D51D96EDA6A020ED92602D853
:10028800CEEF0AF00500FA6EDE50FD6EDE50FE6E0F
:10029800F850FF6EFA50A25112007D51D96EDA6AF9
:1002A800DECF81F0DDCF82F081C0D9FF82C0DAFFD6
:1002B800A2C0DFFF7D51D96EDA6ADE2A000EDD2288
:1002C800CEEF0AF09C6B9D6BA06BA16B07D0000171
:1002D800A08702D00001A0857E4B7F2B7EC0F6FF51
:1002E8007FC0F7FFF86A0F0EF76403D00800F550D7
:1002F80005D0F6CFE9FFF7CFEAFFEF502D0AE7E088
:100308001D0AE8E00001A0B7A0957EC0F6FF7FC0F7
:10031800F7FFF86A0F0EF76403D00800F55005D010
:10032800F6CFE9FFF7CFEAFFEF50DBEC4AF044E302
:1003380000019C6B9D6B9CC005F09DC006F0086A8F
:100348000A0E076E39EC4AF005C09CF006C09DF015
:10035800D00E0001816F82697EC0F6FF7FC0F7FF73
:10036800F86A0F0EF76403D00800F55005D0F6CFF1
:10037800E9FFF7CFEAFFEF500001836F846B8151EB
:1003880083278251842383519C2784519D237E4B4C
:100398007F2B7EC0F6FF7FC0F7FFF86A0F0EF76469
:1003A80003D00800F55005D0F6CFE9FFF7CFEAFFF4
:1003B800EF50DBEC4AF0BFE27EC0F6FF7FC0F7FFEC
:1003C800F86A0F0EF76403D00800F55005D0F6CF91
:1003D800E9FFF7CFEAFFEF502E0A4AE10001A18DAD
:1003E8007E4B7F2B9E6B9F6B2ED09EC005F09FC0CF
:1003F80006F0086A0A0E076E39EC4AF005C09EF04E
:1004080006C09FF0D00E0001816F82697EC0F6FFA2
:100418007FC0F7FFF86A0F0EF76403D00800F550A5
:1004280005D0F6CFE9FFF7CFEAFFEF500001836F61
:10043800846B815183278251842383519E27845161
:100448009F237E4B7F2B7EC0F6FF7FC0F7FFF86AA5
:100458000F0EF76403D00800F55005D0F6CFE9FF7A
:10046800F7CFEAFFEF50DBEC4AF001E22ED1BDD71F
:1004780000019E6B9F6BA18928D1A18556D1A08FC1
:1004880054D18051D96EDA6A020EDF26DF5CD96E4C
:10049800DA6ADECF8AF0DECF8BF08A518B1104E165
:1004A8005E0E8A6FFC0E8B6F8C6B8D6B03D0000118
:1004B8008C4B8D2B8C518A25816F8D518B21826FAE
:1004C80081C0F6FF82C0F7FFF86A0F0EF76403D009
:1004D8000800F55005D0F6CFE9FFF7CFEAFFEF5057
:1004E8000009E5E100019E519F110DE08C519E5DD0
:1004F8009F51800A816F8D51800A815904E29EC004
:100508008CF09FC08DF09C518C5D9D518D5905E2FA
:100518008C519C5F8D519D5B02D09C6B9D6BA0B7ED
:1005280088D02CD07D51D96EDA6A020ED926DE50D9
:10053800DE1011E07D51D96EDA6A020ED92601D893
:100548001DD00500FA6EDE50FD6EDE50FE6EF850CE
:10055800FF6EFA50200C7D51D96EDA6ADECF81F039
:10056800DDCF82F081C0D9FF82C0DAFF200EDF6EB6
:100578007D51D96EDA6ADE2A000EDD2200019C0761
:10058800D8A09D079C29CEE19D2953E0CBD77D516A
:10059800D96EDA6A020ED926DE50DE1025E07D51CA
:1005A800D96EDA6A020ED92601D81AD00500FA6E79
:1005B800DE50FD6EDE50FE6EF850FF6EFA508AC0B7
:1005C800F6FF8BC0F7FFF86A0F0EF76403D0080038
:1005D800F55005D0F6CFE9FFF7CFEAFFEF5012004C
:1005E80000018A4B8B2B25D08AC0F6FF8BC0F7FF02
:1005F800F86A7D51D96EDA6ADECF81F0DDCF82F0FC
:1006080081C0D9FF82C0DAFF0F0EF76403D008005B
:10061800F55005D0F6CFE9FFF7CFEAFFEF50DF6ED0
:1006280000018A4B8B2B7D51D96EDA6ADE2A000EC7
:10063800DD228C07D8A08D078C29A9E18D29A7E197
:10064800A0A7CEEF0AF02CD07D51D96EDA6A020E3F
:10065800D926DE50DE1011E07D51D96EDA6A020E1D
:10066800D92601D81DD00500FA6EDE50FD6EDE5089
:10067800FE6EF850FF6EFA50200C7D51D96EDA6A82
:10068800DECF81F0DDCF82F081C0D9FF82C0DAFFF2
:10069800200EDF6E7D51D96EDA6ADE2A000EDD2269
:1006A80000019C07D8A09D079C29CEE19D2902E165
:1006B800CEEF0AF0C9D7A20E8A6F8B6B8D6B010E35
:1006C8008C6F10D7C00EA01330D000017E51816FFF
:1006D8007F51826F7E4B7F2B81C0F6FF82C0F7FF70
:1006E800F86A0F0EF76403D00800F55005D0F6CF6E
:1006F800E9FFF7CFEAFFEF500001A26FA25102E134
:10070800EBEF0AF0580A01E1BAD63C0A0EE0020AF9
:1007180001E1B3D60F0A09E01A0A01E1B2D6060AC6
:10072800D1E00D0A01E1ABD6C6D7070EA11502E14B
:1007380051EF08F0A1A903D09F6B060E9E6F805160
:10074800D96EDA6ADFCF81F0040EDF268151D96EC7
:10075800DA6ADECF98F0DECF99F0DECF9AF0DECFFE
:100768009BF09BAF15D098C005F099C006F09AC0D1
:1007780007F09BC008F092EC4AF005C098F006C05C
:1007880099F007C09AF008C09BF0030E0001A0136F
:100798008E6B8F6B98C005F099C006F09AC007F071
:1007A8009BC008F0096A0A6A0B6A0C6A67EC46F093
:1007B8007BE200019A359B35820F8E6F8F6BFF0E9F
:1007C8008F238E07D8A08F078EC005F08FC006F044
:1007D800086A030E076E39EC4AF005C08EF006C0B1
:1007E8008FF08EC06CF08FC06DF000016F6B0A0E39
:1007F8006E6F3AEC44F06CC08EF06DC08FF08FAF26
:1008080003D08E07D8A08F078E51000877EC28F008
:1008180074C090F075C091F076C092F077C093F0F4
:1008280090C00DF091C00EF092C00FF093C010F080
:1008380098C011F099C012F09AC013F09BC014F040
:1008480054EC2DF00DC090F00EC091F00FC092F056
:1008580010C093F090C013F091C014F092C015F03E
:1008680093C016F0176A186A800E196E3F0E1A6E3A
:100878002AEC43F005E200018E07D8A08F0714D0B8
:1008880090C013F091C014F092C015F093C016F008
:10089800176A186A200E196E410E1A6E2AEC43F078
:1008A80003E300018E4B8F2B00019FBF05D09F51A2
:1008B80020E10D0E9E5D1DE298C03FF099C040F00A
:1008C8009AC041F09BC042F09E51E3EC2FF026C045
:1008D80043F027C044F028C045F029C046F0A6ECF4
:1008E8002EF03FC098F040C099F041C09AF042C045
:1008F8009BF000018FBF05D08F5128E10A0E8E5D55
:1009080025E298C005F099C006F09AC007F09BC090
:1009180008F0096A0A6A0B6A0C6A67EC46F05CE23E
:1009280098C04FF099C050F09AC051F09BC052F057
:100938008FEC42F04F505010511052104DE18FBFC4
:100948004BD08F5103E1020E8E5D46E390C013F049
:1009580091C014F092C015F093C016F05F0E176E98
:10096800700E186E890E196E400E1A6E2AEC43F03E
:1009780003E20001F70E02D00001F80E8E27FF0EE9
:100988008F238E5177EC28F074C090F075C091F0E9
:1009980076C092F077C093F098C005F099C006F041
:1009A8009AC007F09BC008F090C009F091C00AF007
:1009B80092C00BF093C00CF071EC40F005C094F0BD
:1009C80006C095F007C096F008C097F00001986B34
:1009D800996B9A6B9B6B3AD098C04FF099C050F0C6
:1009E8009AC051F09BC052F08FEC42F04FC094F087
:1009F80050C095F051C096F052C097F098C04FF093
:100A080099C050F09AC051F09BC052F094C005F0C4
:100A180095C006F096C007F097C008F0000EFDECF0
:100A28003BF005C053F006C054F007C055F008C0AD
:100A380056F00DEC49F04FC098F050C099F051C0F5
:100A48009AF052C09BF000018E6B8F6B010EA26F63
:100A58000A0EA21917E0A251040D310EF324F66E06
:100A6800F10EF420F76E0900F550945D0900F55079
:100A780095590900F55096590900F550975902E320
:100A8800A22BE6D7A2519E25816F000E9F21826F6F
:100A98008E5181278F51822381519C5F82519D5BAA
:100AA8009E519F1103E09C07D8A09D07A0C081F02C
:100AB800030E811703E09C07D8A09D07A0A56BD063
:100AC800A0C081F0030E81175DE07D51D96EDA6A0E
:100AD800020ED926DE50DE1011E07D51D96EDA6A99
:100AE800020ED92601D84ED00500FA6EDE50FD6EF2
:100AF800DE50FE6EF850FF6EFA502D0C7D51D96E07
:100B0800DA6ADECF81F0DDCF82F081C0D9FF82C002
:100B1800DAFF2D0EDF6E7D51D96EDA6ADE2A000EFD
:100B2800DD2230D07D51D96EDA6A020ED926DE5028
:100B3800DE1011E07D51D96EDA6A020ED92601D88D
:100B48001DD00500FA6EDE50FD6EDE50FE6EF850C8
:100B5800FF6EFA50300C7D51D96EDA6ADECF81F023
:100B6800DDCF82F081C0D9FF82C0DAFF300EDF6EA0
:100B78007D51D96EDA6ADE2A000EDD2200019C075B
:100B8800D8A09D0700019DBFD7D09D51CBE19C0502
:100B980001E2D2D0C7D7A0B737D030D07D51D96EB7
:100BA800DA6A020ED926DE50DE1011E07D51D96EC8
:100BB800DA6A020ED92601D81DD00500FA6EDE5079
:100BC800FD6EDE50FE6EF850FF6EFA50200C7D511F
:100BD800D96EDA6ADECF81F0DDCF82F081C0D9FF2D
:100BE80082C0DAFF200EDF6E7D51D96EDA6ADE2A06
:100BF800000EDD2200019C07D8A09D079DBF04D0F0
:100C08009D51CCE19C05CAE2A0C081F0030E81177A
:100C180001E192D07D51D96EDA6A020ED926DE50F2
:100C2800DE1011E07D51D96EDA6A020ED92601D89C
:100C380083D00500FA6EDE50FD6EDE50FE6EF85071
:100C4800FF6EFA502D0C7D51D96EDA6ADECF81F035
:100C5800DDCF82F081C0D9FF82C0DAFF2D0E65D0CA
:100C680094C005F095C006F096C007F097C008F04C
:100C7800A251040D310EF324F66EF10EF420F76E36
:100C88000900F5CF09F00900F5CF0AF00900F5CF02
:100C98000BF00A00F5CF0CF0B3EC44F005C090F06F
:100CA80006C091F007C092F008C093F090C012F00F
:100CB80091C013F092C014F093C015F00A0E166E8E
:100CC800176A186A196ACAEC46F012C090F013C085
:100CD80091F014C092F015C093F07D51D96EDA6A84
:100CE800020ED926DE50DE1013E07D51D96EDA6A85
:100CF800020ED92601D820D00500FA6EDE50FD6E0E
:100D0800DE50FE6EF850FF6EFA509051300F120010
:100D18007D51D96EDA6ADECF81F0DDCF82F081C0F5
:100D2800D9FF82C0DAFF9051300FDF6E7D51D96E46
:100D3800DA6ADE2A000EDD220001A207A22931E0CC
:100D48008FD77D51D96EDA6A020ED926DE50DE10B1
:100D580011E07D51D96EDA6A020ED92601D81DD06C
:100D68000500FA6EDE50FD6EDE50FE6EF850FF6E26
:100D7800FA50300C7D51D96EDA6ADECF81F0DDCFC2
:100D880082F081C0D9FF82C0DAFF300EDF6E7D515C
:100D9800D96EDA6ADE2A000EDD2200018E07D8A09D
:100DA8008F078FBF04D08F51CCE18E05CAE29FBF59
:100DB80008D09F5103E1090E9E5D03E3080EA26F60
:100DC80002D09EC0A2F0A2519E5F000E9F5BA2516E
:100DD8002CE07D51D96EDA6A020ED926DE50DE107B
:100DE80011E07D51D96EDA6A020ED92601D81DD0DC
:100DF8000500FA6EDE50FD6EDE50FE6EF850FF6E96
:100E0800FA502E0C7D51D96EDA6ADECF81F0DDCF33
:100E180082F081C0D9FF82C0DAFF2E0EDF6E7D51CD
:100E2800D96EDA6ADE2A000EDD220001A25177ECC3
:100E380028F074C085F075C086F076C087F077C05A
:100E480088F098C011F099C012F09AC013F09BC0B6
:100E580014F085C00DF086C00EF087C00FF088C072
:100E680010F054EC2DF00DC04FF00EC050F00FC034
:100E780051F010C052F08FEC42F04FC094F050C0C7
:100E880095F051C096F052C097F093D094C005F0F9
:100E980095C006F096C007F097C008F0A251040D5F
:100EA800310EF324F66EF10EF420F76E0900F5CF3B
:100EB80009F00900F5CF0AF00900F5CF0BF00A0098
:100EC800F5CF0CF0B3EC44F005C090F006C091F0FB
:100ED80007C092F008C093F090C012F091C013F0D0
:100EE80092C014F093C015F00A0E166E176A186AAD
:100EF800196ACAEC46F012C090F013C091F014C001
:100F080092F015C093F07D51D96EDA6A020ED92697
:100F1800DE50DE1013E07D51D96EDA6A020ED92652
:100F280001D820D00500FA6EDE50FD6EDE50FE6E50
:100F3800F850FF6EFA509051300F12007D51D96E63
:100F4800DA6ADECF81F0DDCF82F081C0D9FF82C0BE
:100F5800DAFF9051300FDF6E7D51D96EDA6ADE2AE2
:100F6800000EDD2294C012F095C013F096C014F064
:100F780097C015F00001A251040D310EF324F66E4E
:100F8800F10EF420F76E0900F5CF16F00900F5CF41
:100F980017F00900F5CF18F00A00F5CF19F0CAECE0
:100FA80046F012C094F013C095F014C096F015C026
:100FB80097F0A207A22931E069D77D51D96EDA6A84
:100FC800020ED926DE50DE1011E07D51D96EDA6AA4
:100FD800020ED92601D81DD00500FA6EDE50FD6E2E
:100FE800DE50FE6EF850FF6EFA50300C7D51D96E0F
:100FF800DA6ADECF81F0DDCF82F081C0D9FF82C00E
:10100800DAFF300EDF6E7D51D96EDA6ADE2A000E05
:10101800DD2200019E07D8A09F079E519F11CDE1B8
:10102800A0B79DBFB7D29D5103E19C0501E2B2D2A2
:101038007D51D96EDA6A020ED926DE50DE1011E033
:101048007D51D96EDA6A020ED92601D81DD0050065
:10105800FA6EDE50FD6EDE50FE6EF850FF6EFA50EE
:10106800200C7D51D96EDA6ADECF81F0DDCF82F0B7
:1010780081C0D9FF82C0DAFF200EDF6E7D51D96EA4
:10108800DA6ADE2A000EDD2200019C07D8A09D073F
:101098009C519D1101E17ED2CBD7A0C081F0C00E3A
:1010A80081171EE18051D96EDA6ADF50DF2ADF2A04
:1010B800D96EDA6ADECF94F0DDCF95F0000E95BFD9
:1010C800FF0E966F976F97AF1DD0030EA013971F53
:1010D800961F951F946D000E95239623972312D083
:1010E8008051D96EDA6ADF50DF2ADF2AD96EDA6AD0
:1010F800DECF81F0DDCF82F081C094F082C095F020
:10110800966B976B9E519F1140E1945195119611E2
:1011180097113BE19E4B9F2B38D0010EA26F0A0E10
:10112800A2193AE0A251040D310EF324F66EF10E25
:10113800F420F76E0900F550945D0900F5509559B3
:101148000900F55096590900F550975925E3A22B47
:10115800E6D7010EA26F080EA2191EE0A251040DD7
:10116800140EF324F66EE60EF420F76E0900F5501F
:10117800945D0900F55095590900F55096590900F4
:10118800F550975909E3A22BE6D7A051C00BC5E04B
:10119800800ADFE0400AC1E0A251816F826B9E5154
:1011A800815D8251800A836F9F51800A835903E2CF
:1011B8009EC0A2F00FD0A251816F826B81519E5DBB
:1011C8009F51800A836F8251800A835903E2A2C02B
:1011D8009EF09F6B9C519D1108E0A0C081F0030E0A
:1011E800811703E09C07D8A09D07A1AD10D09C51A2
:1011F8009E5D9F51800A816F9D51800A815905E249
:101208009E519C5F9F519D5B02D09C6B9D6BA25130
:10121800816F826B9C51815D8251800A836F9D51E1
:10122800800A835905E2A2519C5F000E9D5B02D0A3
:101238009C6B9D6BA0A567D0A0C081F0030E8117A1
:101248002CE07D51D96EDA6A020ED926DE50DE1006
:1012580011E07D51D96EDA6A020ED92601D81DD067
:101268000500FA6EDE50FD6EDE50FE6EF850FF6E21
:10127800FA502D0C7D51D96EDA6ADECF81F0DDCFC0
:1012880082F081C0D9FF82C0DAFF2D0EDF6E7D515A
:10129800D96EDA6ADE2A000EDD2200019C519D110A
:1012A80001E136D17D51D96EDA6A020ED926DE50B7
:1012B800DE1011E07D51D96EDA6A020ED92601D806
:1012C8001DD00500FA6EDE50FD6EDE50FE6EF85041
:1012D800FF6EFA50300C7D51D96EDA6ADECF81F09C
:1012E800DDCF82F081C0D9FF82C0DAFF300EDF6E19
:1012F8007D51D96EDA6ADE2A000EDD2200019C07D4
:10130800D8A09D07CBD79C519D1135E0A0B733D00D
:101318007D51D96EDA6A020ED926DE50DE1011E050
:101328007D51D96EDA6A020ED92601D81DD0050082
:10133800FA6EDE50FD6EDE50FE6EF850FF6EFA500B
:10134800200C7D51D96EDA6ADECF81F0DDCF82F0D4
:1013580081C0D9FF82C0DAFF200EDF6E7D51D96EC1
:10136800DA6ADE2A000EDD2200019C07D8A09D075C
:101378009C519D11CDE1A0C081F0030E811701E1C0
:10138800C7D07D51D96EDA6A020ED926DE50DE103A
:1013980011E07D51D96EDA6A020ED92601D8B8D08B
:1013A8000500FA6EDE50FD6EDE50FE6EF850FF6EE0
:1013B800FA502D0C7D51D96EDA6ADECF81F0DDCF7F
:1013C80082F081C0D9FF82C0DAFF2D0EDF6E9AD07D
:1013D8009EC081F09FC082F0D89081378237D89024
:1013E80081378237310E8125F66EF10E8221F76E34
:1013F8000900F5CF09F00900F5CF0AF00900F5CF8B
:101408000BF00A00F5CF0CF094C005F095C006F07B
:1014180096C007F097C008F0B3EC44F005C012F08E
:1014280006C013F007C014F008C015F00A0E166EB7
:10143800176A186A196ACAEC46F01250300FA26F80
:101448003AD094C005F095C006F096C007F097C052
:1014580008F09EC081F09FC082F0D8908137823713
:10146800D89081378237140E8125F66EE60E8221D8
:10147800F76E0900F5CF09F00900F5CF0AF0090069
:10148800F5CF0BF00A00F5CF0CF0B3EC44F00550A3
:101498000F0B896FD20E8925F66EF76AFA0EF722BE
:1014A8000800F5CFA2F007D0A051C00B91E0800A48
:1014B800C8E0400A8DE07D51D96EDA6A020ED9265D
:1014C800DE50DE1012E07D51D96EDA6A020ED9269E
:1014D80001D81ED00500FA6EDE50FD6EDE50FE6E9D
:1014E800F850FF6EFA50A25112007D51D96EDA6A97
:1014F800DECF81F0DDCF82F081C0D9FF82C0DAFF74
:10150800A2C0DFFF7D51D96EDA6ADE2A000EDD2225
:1015180000019E07D8A09F079E29C6E19F29C4E124
:10152800A0B79DBF37D09D5102E19C0533E37D51A3
:10153800D96EDA6A020ED926DE50DE1011E07D512E
:10154800D96EDA6A020ED92601D81DD00500FA6EC6
:10155800DE50FD6EDE50FE6EF850FF6EFA50200C25
:101568007D51D96EDA6ADECF81F0DDCF82F081C09D
:10157800D9FF82C0DAFF200EDF6E7D51D96EDA6A9C
:10158800DE2A000EDD2200019C07D8A09D079C5191
:101598009D11CDE100017E51816F7F51826F7E4B9D
:1015A8007F2B81C0F6FF82C0F7FFF86A0F0EF76441
:1015B80003D00800F55005D0F6CFE9FFF7CFEAFFD2
:1015C800EF500001A26FA25102E033EF01F07D6BF2
:1015D8007E6B12000101C66BC76B050EC16FBC6B39
:1015E800AC6BBF6BC06BBD6BBE6BAD6B010EBB6FE5
:1015F800AB6F21EEAEF00B0EDE6AE806FDE2A76BDC
:10160800A86BA96BAA6BE1EC41F09CEC38F00A0ED0
:101618000001FD03F3CF9BF1F4CF9CF1FE03F350DF
:1016280001019C279BC141F19CC142F1898677EC5D
:1016380044F060EC49F0D08271EC39F00101CB6FD5
:10164800020ECB1902E1800E586E0001F25102E041
:1016580072EC3BF00101605102E0DAEC13F04C51FE
:101668000FE028512711261103E1070E255D08E335
:101678008A8A066A010E056EB1EC48F09D884C6BAB
:101688005F5102E1ACB28A9A72EC43F0A30E946EF9
:1016980000F000F08250210B0101CB6FCB39E846F6
:1016A8001F0BCF6FCB51CB25020BCF138150010BF2
:1016B800CF13820E946E070ECF1903E1CE51CF19C6
:1016C80003E0CF515CEC21F0010E01015B651CD0F9
:1016D800190E5B6119D0880E21259B6F130E2221EC
:1016E8009C6F000E23219D6F000E24219E6F2951AF
:1016F8009B5D2A519C592B519D592C519E5904E2AE
:101708005A5102E163EC3EF05B5128E1060ECF1915
:1017180025E10001F85122E00101BA511FE1020E52
:101728000001F7611BD0030EF61918E1F81D030B31
:10173800F86FD60E5816576A01014D6B0001F70570
:1017480009E12B6AA80E2A6EF8C02CF02D6A000E4B
:10175800D5EC49F0050E0101BA6F07D00101BA5165
:1017680004E0070ECF1901E1BA07010E81A4000EAB
:10177800BB1903E1C65101E1D0D0AD2BAD059B6F7C
:10178800060E9B6103D0C65101E1C9D0000E81B499
:10179800010EBB6FBB5168E0B8D00101505104E0A5
:1017A800506B010E5A6E02D0010E506F470E0001A9
:1017B800C06FFB0EC16F50C1C2F0C36B13EC4AF08F
:1017C8005ED0010E0101506F5AD00101C6510AE1E5
:1017D800010EC66F29C1A7F12AC1A8F12BC1A9F131
:1017E8002CC1AAF1C6514BE0DC0EA7259B6F050E54
:1017F800A8219C6F000EA9219D6F000EAA219E6F43
:1018080029519B5D2A519C592B519D592C519E5908
:1018180036E2030E5A1833E1010E5A6E0001F251F6
:1018280002E10F0E576E020E0101C66F28D0020E9C
:10183800F81902E1010EF86FF70521E1F8511FE0F0
:101848002B6AA80E2A6EF8C02CF02D6A000ED5EC73
:1018580049F015D0030E5A1812E1010E5A6EF251D2
:101868000EE10F0E576E0BD00001F651010A95E0FC
:10187800030AA7E0010AA9E0070AD9E0EBD70101AA
:10188800990504E158B881B201D058983C0E5D6FB3
:10189800898643D00101506B010E5A6E3ED0020E6C
:1018A8000101C6191DE00001F80502E1020E04D08D
:1018B800020EF81902E1010EF86FD60E5816576A93
:1018C80001014D6B0001F7050BE1F85109E02B6AA6
:1018D800A80E2A6EF8C02CF02D6A000ED5EC49F03F
:1018E8000101C66B1AD0F80502E1020EF86FF70580
:1018F80014E1F85112E02B6AA80E2A6EF8C02CF0F9
:101908002D6A000ED5EC49F008D00001F651020A04
:10191800C1E0010AC4E0070AE6E00101AD6B9905E0
:1019280009E181B281A206D0010E5A6E100E586EDE
:101938000001F36B050E5A181EE101012C512B1101
:1019480005E1E90E295D030E2A5915E32B6A010EFC
:101958002A6E2D6A2C6A0001F751D5EC49F0530E16
:101968000001C06FF80EC16F13EC4AF00101296B3A
:101978002A6B2B6B2C6B5A0401E0C4D0BD6A82849D
:101988008A9801012D6B81EC47F00101C96FC905E7
:1019980005E1589A5890576A656BB4D0020EC91978
:1019A80003E0020EC919F8E15850F6E15750F4E186
:1019B8005051F2E0020E651901E0A1D0C72BC7050E
:1019C8009B6F190E9B659ED0BF6BF9EC43F07E0EA2
:1019D8000001C06FF90EC16F49C1C2F04AC1C3F01E
:1019E800FBC0C4F0FCC0C5F013EC4AF0FB51010188
:1019F800495D0001FC5101014A5909E20A0E4903F7
:101A0800F3CF9BF1F4CF9CF14A03F3500AD00A0EAE
:101A18000001FB03F3CF9BF1F4CF9CF1FC03F350DF
:101A280001019C279BC147F19CC148F1010E0001AF
:101A3800F76542D02B6A020E2A6E47C12CF048C1C6
:101A48002DF0F751D5EC49F047C105F048C106F033
:101A5800076A086A000EFDEC3BF005C026F006C0D8
:101A680027F007C028F008C029F02A6A2B6A200E40
:101A78002C6E410E2D6E27EC33F026C0C2F127C024
:101A8800C3F128C0C4F129C0C5F1070E0001C06F19
:101A9800F80EC16FC2C1C2F0C3C1C3F0C4C1C4F063
:101AA800C5C1C5F013EC4AF0060E5A6E0101296B48
:101AB8002A6B2B6B2C6B26D00A0E01014903F3CF3E
:101AC8009BF1F4CF9CF14A03F3509C279BC111F181
:101AD8009CC112F147C18BF148C18CF1010E2D6FE9
:101AE800020E5A6E1E0EC06F3C0E5D6F89862D0E5B
:101AF8000001C06FFB0EC16F13EC4AF003D0020E59
:101B0800656FC76B060E5A180BE101012C512B119A
:101B180005E1E90E295D030E2A5902E3010E5A6E0A
:101B2800020E5A1801E0DCD0070EBC64C5D0180EAE
:101B3800BC60C2D081EC47F00101C96FC90522E140
:101B480065051CE1C72BC7059B6F190E9B65B4D0B3
:101B5800010E5A6E130E0001C06FFB0EC16F13EC1D
:101B68004AF0010EF765A8D0050E5A6EE90E01017C
:101B7800296F030E2A6F2B6B2C6B9ED0010E656F9D
:101B8800C76B9AD0030EC91901E085D0030E6519F9
:101B980001E07FD0BF057DE1C72BC7059B6F190EFC
:101BA8009B658AD0585001E087D0575001E084D017
:101BB800010E0001F76542D02B6A030E2A6E47C159
:101BC8002CF048C12DF0F751D5EC49F047C105F08C
:101BD80048C106F0076A086A000EFDEC3BF005C034
:101BE80026F006C027F007C028F008C029F02A6AA6
:101BF8002B6A200E2C6E410E2D6E27EC33F026C07A
:101C0800C2F127C0C3F128C0C4F129C0C5F12D0E07
:101C18000001C06FF80EC16FC2C1C2F0C3C1C3F0EA
:101C2800C4C1C4F0C5C1C5F013EC4AF0070E5A6E22
:101C38000101296B2A6B2B6B2C6B3ED047C111F12C
:101C480048C112F1C1EC37F0000921E1020E01018F
:101C58002D6F8B6B8C6B010E3DEC1EF08A88010199
:101C6800C069BF6B030E5A6E0001F36B0101296B4B
:101C78002A6B2B6B2C6B5B5102E10CEC19F03A0EC2
:101C88000001C06FFB0EC16F13EC4AF015D05886E7
:101C980013D0030E74D7C0510DE1140E5A6E030E03
:101CA800BD6FBD6A8294D60E0001C06FF90EC16F78
:101CB80013EC4AF00101656BE60EBC6411D0F10E1D
:101CC800BC64FDD7BC6401D0BC5081EC47F0010175
:101CD800C96F040EC91903E1010EBF6F01D0BF6BB4
:101CE800140E5A1807E10101BD5104E1020E5A6EA3
:101CF8008284C069070E5A1813E101012C512B1177
:101D080005E1E90E295D030E2A590AE3BF6B020EAD
:101D18005A6E850E0001C06FFA0EC16F13EC4AF0BF
:101D2800030E5A185EE1070EBC645BD0180EBC6047
:101D380058D081EC47F00101C96FC90502E0C951CB
:101D480021E165051BE1C72BC7059B6F190E9B6534
:101D580048D08A98010E5A6E200E0001C06FFB0E03
:101D6800C16F13EC4AF077EC44F0010E0001F765FF
:101D780002D0050E26D001012D6B33D0010E656F00
:101D8800C76B2FD0020EC9192BE1020E651926E187
:101D9800C72BC7059B6F190E9B6523D08A98020E27
:101DA8005A6E8D0E0001C06FFA0EC16F13EC4AF027
:101DB80077EC44F00101BF6B010E0001F7650AD012
:101DC800080E5A6EE90E0101296F030E2A6F2B6B5C
:101DD8002C6B07D0010E01012D6F03D0020ECFD757
:101DE800656B080E5A181EE101012C512B1105E1F3
:101DF800E90E295D030E2A5915E32B6A040E2A6E93
:101E08002D6A2C6A0001F751D5EC49F0790E0001D2
:101E1800C06FF80EC16F13EC4AF00101296B2A6BF1
:101E28002B6B2C6BABA202D0AB98AB8871A202D003
:101E380071987188D6CFCBF13C0ED76403D10101DC
:101E4800655104E0030E5A1801E1FCD0D76AD66A3E
:101E5800D7EC47F0020E5A1803E1C02901E0C00789
:101E6800140E5A1803E1BD5101E0BD074D5132E08F
:101E78003C0ED403F3CF9BF1F4CF9CF1D503F35080
:101E88009C2739519D6F3A519E6F394B3A2B9B5184
:101E98009D5D9C519E5920E3010E5A6E4D6B396B26
:101EA8003A6B5886CB6B030ECB6501D009D02D0E4B
:101EB800CB25D96EDA6A010EDA22DF6ACB2BF3D78B
:101EC8002B6A020E2A6E2D6A200E2C6E000ED5EC9F
:101ED80049F002D0396B3A6B575001E05706370E7C
:101EE8005C6102D058B4589458C09BF1210E9B17DE
:101EF8001AE0020E0001F76116D0C1EC37F00009B4
:101F080012E15890589AC10E0001C06FF80EC16FC7
:101F180013EC4AF02B6A020E2A6E58C02CF02D6A78
:101F2800000ED5EC49F00101C1511BE158B219D09E
:101F38005882010E5A6E9C0E0001C06FF90EC16FD7
:101F480013EC4AF00101CB6B030ECB6501D00CD02A
:101F58002D0ECB25D96EDA6A010EDA22DF6ACB2B79
:101F6800F3D7C15101E0C107400E5C6519D0588410
:101F7800010E5A6E280E0001C06FFA0EC16F13ECE5
:101F88004AF00101CB6B030ECB6501D009D02D0EB1
:101F9800CB25D96EDA6A010EDA22DF6ACB2BF3D7AA
:101FA80058A61CD05896020E0001F8190AE157509D
:101FB80006E1BA0EC06FF90EC16F13EC4AF0588AE9
:101FC80009D0575006E1E20EC06FF80EC16F13EC4E
:101FD8004AF05880010E5A6E3C0E576E0CEC19F000
:101FE8000001F85107E00101AB07AB2903E1010E3D
:101FF800536FAB6F0001F85125E10101456B466B4A
:10200800BE5101E0BE07020E0001F7611BD00101BD
:10201800BE5118E1000E3DEC1EF0F70502E1F7ECA9
:102028004AF0020E5A1803E0030E5A1806E18BC153
:1020380062F08CC163F087EC3CF0020E0101BE6FC8
:102048000A0EC16F010153511AE0020E0001F76137
:1020580016D00ED0DBC12FF00001FF5125EC48F05F
:102068000DD0DAC12FF00001F55125EC48F006D06B
:1020780001015351010AEEE0030AF3E0536B010139
:10208800635101E172D328512711261104E1040E8E
:10209800255D01E26AD3320E056E030E066E640EEC
:1020A800076E030E086E63C109F00A6A29EC47F04F
:1020B80063C161F10101636B320E0001D36F030E3E
:1020C800D46F61C1D5F04EEC2AF0030E01010B1953
:1020D80001E19FD0A3D00001FF5132E00101DB51A3
:1020E80000192EE10001FF51120D0B0EF324D96ED9
:1020F800020EF420DA6EDE500101021921E1DE50F1
:1021080003191EE108C14AF009C14BF0FFC04CF0A9
:102118007F0E4D6E010E4E6E42EC24F00101CB6F26
:10212800CB5102E00A0EC16F0001F55106E0020E24
:102138000101536F010EAC6F18D30AEC35F015D3BB
:102148000101AC5101E111D30001F55101E10DD3B9
:102158000101DA51001901E008D30001F551120D0F
:102168000B0EF324D96E020EF420DA6EDE50010154
:10217800021953E1DE50031901E0F7D208C14AF011
:1021880009C14BF0F5C04CF0AE0E4D6E010E4E6E0F
:1021980042EC24F00101CB6B020ECB6501D035D0A7
:1021A800CB51040D7F0EF324D96E010EF420DA6EA4
:1021B800DECF4FF0DECF50F0DECF51F0DECF52F061
:1021C800CB51040DAE0EF324D96E010EF420DA6E55
:1021D800DECF53F0DECF54F0DECF55F0DECF56F031
:1021E8000DEC49F00101CB51040D7F0EF324D96E9B
:1021F800010EF420DA6E4FC0DEFF50C0DEFF51C082
:10220800DEFF52C0DEFFCB2BC7D70A0EC16FAC6B07
:1022180094D70151040A01E15ED7A7D2020E0B1927
:1022280001E1AAD0B3D00001F7510101001901E082
:102238009CD2F5EC3DF00101C86FC82901E195D2A7
:10224800C85199EC46F091D2010E006519D0050EDF
:10225800006116D00251031107E0035105E1050E94
:10226800025D02E2030E0BD0035103E1810E025D11
:1022780007E3035105E1850E025D02E2020EBC6F21
:102288000A0E001910E1A80E021903110CE14F0EF5
:10229800061909E1490E071906E10001F25103E1A7
:1022A800010EF26F62D20101005106E00001F75100
:1022B8000101001901E059D2F5EC3DF00101C86FA8
:1022C800C82903E0C851EEEC44F0020E0101BC6FCE
:1022D8004CD2005106E00001F7510101001901E05C
:1022E80044D2020503113DE1010E0001F76539D022
:1022F800F75101019B6F9C6BD8909B379C3721EE5F
:1023080008F0DECF9DF1DDCF9EF19B519D279C51BA
:102318009E23FE0E9D25D96EFF0E9E21DA6EDF509C
:10232800A06F9F6B0001F7510101A16FA26BD890BC
:10233800A137A23721EE08F0DECFA3F1DDCFA4F15B
:10234800A151A327A251A423FF0EA325D96EFF0EE6
:10235800A421DA6EDF509F11A56FA051A66F020E5F
:10236800BC6FF5EC3DF00101C86FC82901E1FDD152
:10237800C8517FEC3DF0F9D10151040A01E153D76E
:10238800020A01E161D7160AA4E0EFD1F40E0001B8
:10239800C06FFA0EC16F13EC4AF0E7D1005130E17B
:1023A800010E0001F7652CD01DD0A5C18BF1A6C187
:1023B8008CF1020E5A1803E0030E5A1806E18BC17D
:1023C80062F08CC163F087EC3CF00A0E0101C16F2A
:1023D80017D006C158F0585013E0010E5A6E3C0E43
:1023E800576E0ED021EE02F0DECF9BF1DDCF9CF1CF
:1023F80001019C5105E19B51010AD7E0030AE9E07C
:102408000001F751010100193CE0B7D1010E37D0A6
:102418000651071102E15886B0D106C162F007C122
:1024280063F087EC3CF0020E5A6E1E0E0101C06F7D
:102438003C0E5D6F8986A1D106510711ECE006C1FB
:1024480062F007C163F087EC3CF08A880101BF6B3A
:10245800030E5A6EC0690001F36B0101296B2A6BE8
:102468002B6B2C6B5B5102E10CEC19F03A0E00015E
:10247800C06FFB0EC16F13EC4AF07FD1020E5A6E8B
:102488007CD121EE02F0DECF9BF1DDCF9CF19C5197
:1024980001E073D19B51810AB9E0030AB9E0010A4E
:1024A800CBE0070AEBE069D10001F70501E065D14F
:1024B80001010005CA6F44D12D0ECA25D96EDA6A0A
:1024C800010EDA22DF6A000E3DEC1EF06F0EC06FBF
:1024D800FA0EC16FCAC1C2F0C36B13EC4AF02B6A83
:1024E800810E2A6E2D6A2C6A01010051D5EC49F043
:1024F80044D1C1EC37F000092DE12D0E0101CA25A8
:10250800D96EDA6A010EDA22010EDF6ECA51020DA7
:10251800110EF324D96E010EF420DA6E06C1DEFF27
:1025280007C1DDFF0A0E0001F903F3CF9BF1F4CFD9
:102538009CF1FA03F35001019C27CA51020D8B0E3E
:10254800F324D96E010EF420DA6E9BC1DEFF9CC124
:10255800DDFF0BD00101CA51020D8B0EF324D96E99
:10256800010EF420DA6EDE6ADD6A06C105F007C1E5
:1025780006F0076A086A000EFDEC3BF005C026F07D
:1025880006C027F007C028F008C029F02A6A2B6A7D
:10259800200E2C6E410E2D6E27EC33F026C0C2F1B2
:1025A80027C0C3F128C0C4F129C0C5F1210E00011C
:1025B800C06FF90EC16FCAC1C2F0C36BC2C1C4F00B
:1025C800C3C1C5F0C4C1C6F0C5C1C7F013EC4AF019
:1025D8002B6A820E2A6E0101CA51020D8B0EF3245A
:1025E800D96E010EF420DA6EDECF2CF0DDCF2DF09F
:1025F8000051D5EC49F0C1D0C1EC37F0000923E116
:102608002D0E0101CA25D96EDA6A010EDA22020EF0
:10261800DF6ECA51020D110EF324D96E010EF4209B
:10262800DA6E06C1DEFF07C1DDFFCA51020D8B0E4F
:10263800F324D96E010EF420DA6EDE6ADD6A010E2B
:102648003DEC1EF00BD00101CA51020D8B0EF32494
:10265800D96E010EF420DA6EDE6ADD6A0101CA5114
:10266800020D8B0EF324D96E010EF420DA6EDECF44
:102678009BF1DDCF9CF19BC105F09CC106F0076A78
:10268800086A000EFDEC3BF005C026F006C027F0F6
:1026980007C028F008C029F02A6A2B6A200E2C6E81
:1026A800410E2D6E27EC33F026C0C2F127C0C3F1CE
:1026B80028C0C4F129C0C5F1020E0001C06FF90E8F
:1026C800C16FCAC1C2F0C36BC2C1C4F0C3C1C5F0F7
:1026D800C4C1C6F0C5C1C7F013EC4AF02B6A830E1B
:1026E8002A6E0101CA51020D8B0EF324D96E010E18
:1026F800F420DA6EDECF2CF0DDCF2DF00051D5ECD2
:1027080049F03BD02D0ECA25D96EDA6A010EDA22BD
:10271800010EDF6E000E3DEC1EF0F20EC06FF90EDA
:10272800C16FCAC1C2F0C36B13EC4AF02B6A840EA6
:102738002A6E2D6A2C6A01010051D5EC49F01DD092
:1027480021EE02F0DECF9BF1DDCF9CF19C5115E12B
:102758009B51010A01E1B0D6030A01E1CAD6010A78
:1027680001E14AD7070ACEE008D00101BC51020AAC
:1027780001E114D6010A01E197D658A205D00A0E44
:102788000101C11901E1589258C09BF1210E0101C4
:102798009B1708E0575006E1010E0001F76502D0CB
:1027A8005890589A0101BC6B29EF0BF022EC32F0DB
:1027B8000001E26F990EC06FF90EC16F13EC4AF079
:1027C800F4513BE1E76B22D09E0E056E020E066EB9
:1027D800660EE725D96EDA6A010EDA22DF504B0D54
:1027E800340EF324076EE60EF420086E39EC42F03E
:1027F8000550061009E1660E0001E725D96EDA6A70
:10280800010EDA22DF50F46F0001E72BD469D56995
:10281800E251D66FD76BD451D627D551D723E7517C
:10282800D86FD96BD651D85DD951800ADA6FD75194
:10283800800ADA5901E327D2C7D702019E5101E085
:10284800FAD10001F46B1FD29E0E4B6E020E4C6E35
:1028580070EC4AF04BC0E3F04CC0E4F04DC0E5F03A
:102868004EC0E6F0E3C013F0E4C014F0E5C015F084
:10287800E6C016F0176A186AC00E196E400E1A6E76
:102888002AEC43F011E3136A146AA00E156E420E87
:10289800166EE3C017F0E4C018F0E5C019F0E6C002
:1028A8001AF02AEC43F008E2DB0E0001C06FF70EC5
:1028B800C16F13EC4AF0E1D17FC14FF080C150F0F5
:1028C80081C151F082C152F08FEC42F04FC062F0EA
:1028D80050C063F0EBEC49F062C005F063C006F04D
:1028E800000E06BEFF0E076E086E010EFDEC3BF0F3
:1028F80005C026F006C027F007C028F008C029F058
:10290800D0C12AF0D1C12BF0D2C12CF0D3C12DF007
:1029180027EC33F026C0DBF027C0DCF028C0DDF060
:1029280029C0DEF0116A126A200E136E410E146E71
:10293800E3C00DF0E4C00EF0E5C00FF0E6C010F003
:1029480054EC2DF00DC026F00EC027F00FC028F073
:1029580010C029F0DBC02AF0DCC02BF0DDC02CF061
:10296800DEC02DF027EC33F026C0D0F127C0D1F11E
:1029780028C0D2F129C0D3F1E1EC36F07ED19E0E09
:10298800056E020E066EA30E076EFB0E086E39EC7E
:1029980042F00550061002E1020E0ED09E0E056EA2
:1029A800020E066EE10E076EFC0E086E39EC42F060
:1029B8000550061004E1010E0001F86FDDD79E0EE8
:1029C800056E020E066E960E076EFC0E086E39EC4A
:1029D80042F00550061001E050D10001F86BE1EC1F
:1029E80036F0586A4AD19E0E056E020E066E2D0EFE
:1029F800076EFC0E086E39EC42F00550061002E135
:102A0800010E0ED09E0E056E020E066EDB0E076ED0
:102A1800FC0E086E39EC42F00550061003E1020E78
:102A2800596EAAD79E0E056E020E066E4E0E076EE2
:102A3800FC0E086E39EC42F00550061001E01DD17D
:102A4800596A9AD79E0E056E020E066ED50E076E4F
:102A5800FC0E086E39EC42F00550061004E1010E38
:102A680001019A6F89D79E0E056E020E066E9D0EA5
:102A7800076EFC0E086E39EC42F00550061001E0B6
:102A8800FCD001019A6B78D7E76B9E0E056E020E9B
:102A9800066EE751090D040EF324076EF10EF420BB
:102AA800086E39EC42F00550061004E1E7C0F7F073
:102AB800E1EC36F00001E72B040EE765E6D7DDD040
:102AC800E76B9E0E056E020E066EE7510A0DD20EDA
:102AD800F324076EF00EF420086E39EC42F005502E
:102AE800061004E1E7C0F6F0E1EC36F00001E72B50
:102AF800040EE765E6D7C1D0E76B9E0E056E020EA1
:102B0800066EE7510A0D590EF324076EF10EF420F4
:102B1800086E39EC42F00550061004E1E7C097F161
:102B2800E1EC36F00001E72B010EE765E6D7A5D00A
:102B38009E0E056E020E066E4E0E076EFC0E086E99
:102B480039EC42F00550061003E10101996B14D7E6
:102B58009E0E056E020E066E8F0E076EFC0E086E38
:102B680039EC42F00550061001E087D0010E010152
:102B7800996F02D7E76B9E0E056E020E066EE7513F
:102B8800120D000EF324076E020EF420086E39ECC5
:102B980042F00550061009E1E7C03FF0406A000125
:102BA800F4511CEC34F0E1EC36F00001E72B040E94
:102BB800E765E1D762D09E0E056E020E066EF10E35
:102BC800076EFC0E086E39EC42F00550061003E162
:102BD8000101986BD1D69E0E056E020E066EE70EA9
:102BE800076EFC0E086E39EC42F00550061045E100
:102BF800010E0101986FC0D69E0E086E020E096E76
:102C08002DEC41F008C0DFF009C0E0F0DFC03FF074
:102C1800E0C040F00001F4511CEC34F00001E16F19
:102C2800E1EC36F0E15129E15F0EC06FF90EC16F9A
:102C380013EC4AF022D00001F451020A01E102D754
:102C4800010A01E121D7050A01E1CDD60C0A01E10B
:102C580037D7010A01E16CD7060A01E190D6020ACA
:102C680001E1F2D51F0A86E0010A01E145D7020A0F
:102C7800A2E0070A01E17ED7BFD70001F46B22EC7E
:102C880032F00001E26F0E0EF46581D2C00EC06F03
:102C9800FA0EC16FF4514B0D110EF326000EF422FB
:102CA800340EF324C26FE60EF420C36FF45100EC27
:102CB8002CF0AFC0C4F0B0C0C5F013EC4AF067D236
:102CC800BB0EC06FF30EC16F13EC4AF0F20EC06F6B
:102CD800FB0EC16F13EC4AF0790EC06FF70EC16F8F
:102CE80013EC4AF0400EC06FF90EC16F5CC1C2F020
:102CF800C36B13EC4AF0080EC06FF40EC16F13ECEF
:102D08004AF0E76B94D0E30EC06FFA0EC16F660EFF
:102D1800E725D96EDA6A010EDA22DF504B0D340E40
:102D2800F324C26FE60EF420C36F660EE725D96E52
:102D3800DA6A010EDA22DF504B0D110EF326000E6F
:102D4800F422340EF324C46FE60EF420C56F13EC9E
:102D58004AF0660EE725D96EDA6A010EDA220F0EFE
:102D6800DE184FE19F0EC06FF80EC16F7FC126F0CD
:102D780080C127F081C128F082C129F02A6A2B6A14
:102D8800200E2C6E410E2D6E27EC33F026C0C2F0BB
:102D980027C0C3F028C0C4F029C0C5F083C126F0FD
:102DA80084C127F085C128F086C129F02A6A2B6AD8
:102DB800200E2C6E410E2D6E27EC33F026C0C6F087
:102DC80027C0C7F028C0C8F029C0C9F087C126F0BD
:102DD80088C127F089C128F08AC129F02A6A2B6A9C
:102DE800200E2C6E410E2D6E27EC33F026C0CAF053
:102DF80027C0CBF028C0CCF029C0CDF013EC4AF0A6
:102E08000FD0660EE725D96EDA6A010EDA22DF5096
:102E180000EC2CF0AFC0C0F0B0C0C1F013EC4AF029
:102E2800990EC06FF90EC16F13EC4AF0E72BD46905
:102E3800D569E251D66FD76BD451D627D551D72350
:102E4800E751D86FD96BD651D85DD951800ADA6F5E
:102E5800D751800ADA5901E256D7F90EC06FFC0E35
:102E6800C16F13EC4AF0D0D15F0EC06FF60EC16F80
:102E7800F45100EC2CF0AFC0C2F0B0C0C3F013ECBA
:102E88004AF0C2D1220EC06FF60EC16FF45100ECA9
:102E98002CF0AFC0C2F0B0C0C3F013EC4AF0B4D10C
:102EA8007A0EC06FF20EC16FD6C1C2F0D7C1C3F09F
:102EB80013EC4AF0A9D1980EC06FF40EC16FD4C1BB
:102EC800C2F0D5C1C3F013EC4AF09ED11F0EC06FFB
:102ED800F30EC16F95C1C2F096C1C3F013EC4AF06E
:102EE80093D19C0EC06FF60EC16FF45100EC2CF01C
:102EF800AFC0C2F0B0C0C3F0040EC46FF10EC56F0E
:102F080013EC4AF0010EE76FF50EC06FFC0EC16FAF
:102F1800E751090D040EF324C26FF10EF420C36FBC
:102F280013EC4AF0E72B040EE765EED71C0EC06FD2
:102F3800F50EC16F13EC4AF067D1630EC06FF50E42
:102F4800C16F13EC4AF0AD0EC06FF70EC16F13ECF2
:102F58004AF0DD0EC06FF40EC16FFDC0C2F0FEC0B6
:102F6800C3F013EC4AF050D1510EC06FF40EC16F8C
:102F7800F9C0C2F0FAC0C3F013EC4AF045D1630EB1
:102F8800C06FF50EC16F13EC4AF0AD0EC06FF70EAF
:102F9800C16F13EC4AF0A30EC06FF50EC16FFBC0F2
:102FA800C2F0FCC0C3F013EC4AF02ED1630EC06F20
:102FB800F50EC16F13EC4AF0AD0EC06FF70EC16F7E
:102FC80013EC4AF0200EC06FF50EC16FD8C1C2F0E5
:102FD800D9C1C3F013EC4AF017D16E0EC06FF30ECF
:102FE800C16FF45100EC2CF0AFC0C2F0B0C0C3F018
:102FF80013EC4AF009D1E30EC06FF50EC16FF4511E
:1030080000EC2CF0AFC0C2F0B0C0C3F0D20EC46F59
:10301800F00EC56F13EC4AF0010EE76FF50EC06FA6
:10302800FC0EC16FE7510A0DD20EF324C26FF00EE9
:10303800F420C36F13EC4AF0E72B040EE765EED7D4
:103048001C0EC06FF50EC16F13EC4AF0DDD0C00E38
:10305800C06FF10EC16FF45100EC2CF0AFC0C2F09C
:10306800B0C0C3F013EC4AF0CFD01D0EC06FF20E03
:10307800C16FF45100EC2CF0AFC0C2F0B0C0C3F087
:1030880013EC4AF0C1D0D60EC06FF60EC16F7FC1E7
:1030980026F080C127F081C128F082C129F02A6A70
:1030A8002B6A200E2C6E410E2D6E27EC33F026C0B5
:1030B800C2F027C0C3F028C0C4F029C0C5F013EC83
:1030C8004AF0A2D0AD0EC06FFA0EC16F000EC26FEB
:1030D800020EC36F13EC4AF0010EE76FF50EC06FD6
:1030E800FC0EC16FE751120D000EF324C26F020EE1
:1030F800F420C36F13EC4AF0E72B050EE765EED713
:103108001C0EC06FF50EC16F13EC4AF07DD0440E53
:10311800C06FF70EC16F13EC4AF076D0CF0EC06FB8
:10312800F20EC16F13EC4AF06FD00E0EC06FF70E9F
:10313800C16F13EC4AF068D00E0EC06FFA0EC16F63
:10314800F4514B0D450EF326000EF422340EF324F1
:10315800F66EE60EF420F76E0900F5CFC2F00A000D
:10316800F5CFC3F0F4514B0D470EF326000EF422B1
:10317800340EF324F66EE60EF420F76E0900F5CF50
:10318800C4F00A00F5CFC5F013EC4AF03DD0F45175
:1031980001E196D5020A01E167D6010A01E1A1D64B
:1031A800070A01E1E1D6010A01E100D7030A01E1BA
:1031B80014D7010A01E174D60F0A01E17CD6010A8D
:1031C80001E184D6030A01E116D7010A01E13FD7DC
:1031D800070A01E1D4D6010A01E154D6030A01E144
:1031E800ACD6010A01E14FD71F0A01E16BD7010AEA
:1031F80001E13BD7020A8BE0070A01E163D7020A23
:103208008DE00E0A92E098D70101606B626B1200A4
:1032180001015B510AE00001F32B790EF319D8A4E0
:10322800120001015B6B9CEC38F00A0E0001F319E7
:1032380001E1F36B585001E1C2D089863C0E0101CF
:103248005D6F58A21DD0120E00017F6FFC0E806FBB
:10325800000E27EC45F0690E00017F6FFB0E806FB2
:10326800020E27EC45F0B10E00017F6FFC0E806F57
:10327800040E27EC45F06C0E00017F6FFC0E53D056
:1032880058A411D0B70E00017F6FFC0E806F020E9C
:1032980027EC45F0950E00017F6FFB0E806F040E42
:1032A80027EC45F08CD058A842D00001F32BF30549
:1032B800D46F050ED4611CD0090E7F6FFC0E806F91
:1032C800000E27EC45F0C90E00017F6FFC0E806FE1
:1032D800020E27EC45F03E0E00017F6FFC0E806F5A
:1032E800040E27EC45F0F70E00017F6FFB0E1BD094
:1032F800BD0E7F6FFC0E806F000E27EC45F0730E3D
:1033080000017F6FFC0E806F020E27EC45F0210E46
:1033180000017F6FFC0E806F040E27EC45F0C30E92
:1033280000017F6FFC0E806F060E27EF45F058AC4A
:1033380037D0460E00017F6FFC0E806F020E27EC1F
:1033480045F0530E00017F6FFB0E806F040E27ECD3
:1033580045F00101386B640E376F0A0E096E0001E3
:10336800F25146EC49F00001D46F300ED425746F49
:10337800756B000E7523DAEC3AF00A0E056E000143
:10338800F25126EC4AF00001D46F300ED425746F48
:10339800756B000E7523DAEC3AF0040EACEF47F0CB
:1033A80058AE0DD0740E00017F6FFB0E806F020EB9
:1033B80027EC45F07F0E00017F6FFB0E0FD0500EFB
:1033C8000001F2190FE1460E7F6FFC0E806F020EAE
:1033D80027EC45F0810E00017F6FFC0E806F040E14
:1033E80027EF45F0F32BF85104E00101505101E0BB
:1033F800D6D058A012D0360E00017F6FFC0E806F19
:10340800020E27EC45F0A90E00017F6FFB0E806FBE
:10341800040E27EC45F036EF1EF0030E5A1861E152
:1034280089863C0E01015D6F000E00017F6FFC0E66
:10343800806F020E27EC45F00101386B220E376FC2
:1034480003EC4BF08BC10AF08CC10BF00D6A640ED3
:103458000C6E4AEC48F0300E0A240001746F000E1E
:103468000B20756FDAEC3AF00D6A0A0E0C6E8BC100
:103478000AF08CC10BF04AEC48F00AC005F00BC00A
:1034880006F0086A0A0E076ED0EC48F0300E0524E4
:103498000001746F000E0620756FDAEC3AF0000137
:1034A800756B2E0E746FDAEC3AF08BC105F08CC197
:1034B80006F0086A0A0E076ED0EC48F0300E0524B4
:1034C8000001746F000E0620756FDAEC3AF0000107
:1034D800756B410E746FDAEC3AF0040EACEC47F001
:1034E800C1D3000E0A6AA2EC4AF0040E0A6E010E5D
:1034F800A2EC4AF00101505138E01B0E00017F6F29
:10350800FC0E806F020E27EC45F0E50E00017F6F80
:10351800FB0E806F040E27EC45F0575036E0010192
:10352800386B640E376F0A0E096E575046EC49F037
:103538000001D46F300ED425746F756B000E75239F
:10354800DAEC3AF00A0E056E575026EC4AF0000104
:10355800D46F300ED425746F756B000E7523DAECBA
:103568003AF0040EACEC47F010D07A0E00017F6FF1
:10357800FC0E806F020E27EC45F0650E00017F6F90
:10358800FC0E806F040E27EC45F0100E0A6E060E36
:10359800A2EC4AF00A6A070EA2EC4AF063D30001D3
:1035A800F80504E0020EF81901E05CD3A8EC49F034
:1035B800F80515E1DC6B0C0EDC6501D010D0E00ECF
:1035C800DC25D96EDA6A030EDA22DF6A600EDC25A2
:1035D800D96EDA6A040EDA22DF6ADC2BECD7010135
:1035E8004D510FE10001DC6B070EDC6501D092D074
:1035F800F20EDC25D96EDA6A030EDA22DF6ADC2BDA
:10360800F3D7386B650E376F936B946B3C0ED4030E
:10361800F3CFD4F0F4CFD5F0D503F3500001D5277C
:10362800D4C0DAF0D5C0DBF0010139510001DA5F0E
:1036380001013A510001DB5BDAC00AF0DBC00BF094
:103648000D6A3C0E0C6E4AEC48F00AC0D8F00BC06C
:10365800D9F0DAC005F0DBC006F0086A3C0E076E48
:10366800D0EC48F005C0DAF006C0DBF0D8C00AF0AC
:10367800D9C00BF00D6A0A0E0C6E4AEC48F0300EF9
:103688000A240001746F000E0B20756FDEEC42F007
:10369800D8C005F0D9C006F0086A0A0E076ED0EC4B
:1036A80048F0300E05240001746F000E0620756F77
:1036B800DEEC42F03707D8A038070001756B3A0EE8
:1036C800746FDEEC42F03707D8A03807DAC00AF08A
:1036D800DBC00BF00D6A0A0E0C6E4AEC48F0300E97
:1036E8000A240001746F000E0B20756FDEEC42F0A7
:1036F800DAC005F0DBC006F0086A0A0E076ED0ECE7
:1037080048F0300E05240001746F000E0620756F16
:10371800DEEC42F00001F1AF08D0030E0101CD5FED
:10372800140ECD610AD02C0E07D0030E0101CD274F
:103738002C0ECD6502D0140ECD6FCDC137F1386B8C
:10374800946B030E936FF0C062F0F1C063F0EBEC82
:1037580049F063BF0AD0635103E1040E625D05E3DB
:10376800756BFE0E746FDEEC42F0030E5A1850E1D2
:1037780089863C0E01015D6F030ECC27590ECC657E
:1037880002D04A0ECC6FCCC137F1386B946B030E64
:10379800936F0001756BFE0E746FDEEC42F0946B54
:1037A800020E936F386B4D0E376F8BC10AF08CC1C8
:1037B8000BF00D6A640E0C6E4AEC48F0300E0A24C9
:1037C8000001746F000E0B20756FDEEC42F00D6A7D
:1037D8000A0E0C6E8BC10AF08CC10BF04AEC48F053
:1037E8000AC005F00BC006F0086A0A0E076ED0EC96
:1037F80048F0300E05240001746F000E0620756F26
:10380800DEEC42F00001756B410E746FDEEC42F0A5
:10381800050E0001F361A4D0020EF81901E0A0D052
:103828000101386B1D0E376F946B010E936F000109
:10383800756BE30E746FDEEC42F0946B020E936FBF
:10384800F0C062F0F1C063F0EBEC49F063BF2FD039
:10385800E90E625D030E63592AE30101386B110E0C
:10386800376F0001F1AF05D0756B2D0E746FDEEC6C
:1038780042F00101386B170E376FF0C06CF0F1C0E1
:103888006DF0030E00016F6FE80E6E6F3AEC44F0B6
:103898006CC062F06DC063F0EBEC49F0300E62254D
:1038A800746F000E6321756FDEEC42F00CD00101DD
:1038B800386B170E376F0001F1AF05D0756B2D0E01
:1038C800746FDEEC42F00101386B1D0E376F00019A
:1038D8006F6B640E6E6FF0C06CF0F1C06DF03AEC77
:1038E80044F06CC066F06DC067F0696B0A0E686FD3
:1038F80001EC46F066C062F067C063F0EBEC49F09B
:10390800300E6225746F000E6321756FDEEC42F095
:1039180000016F6B0A0E6E6FF0C06CF0F1C06DF0B5
:103928003AEC44F06CC066F06DC067F0696B0A0E43
:10393800686F01EC46F066C062F067C063F0EBECBC
:1039480049F0300E6225746F000E6321756FDEEC4E
:1039580042F00001756B410E746FDEEC42F096D0B8
:10396800DC6B020EDC6501D091D0DCC093F1010163
:10397800946B386B170E376F0001DC51040D7F0E06
:10398800F324D96E010EF420DA6E030EDBAE06D0F6
:10399800756B2D0E746FDEEC42F004D00101386BAC
:1039A8001D0E376F2A6A2B6AC80E2C6E420E2D6EBA
:1039B8000001DC51040D7F0EF324D96E010EF420B2
:1039C800DA6EDECF26F0DECF27F0DECF28F0DECFAE
:1039D80029F027EC33F026C04FF027C050F028C05C
:1039E80051F029C052F08FEC42F04FC062F050C045
:1039F80063F0EBEC49F0300E6225746F000E632122
:103A0800756FDEEC42F02A6A2B6A200E2C6E410E8E
:103A18002D6E0001DC51040D7F0EF324D96E010ECA
:103A2800F420DA6EDECF26F0DECF27F0DECF28F0E6
:103A3800DECF29F027EC33F026C04FF027C050F036
:103A480028C051F029C052F08FEC42F04FC066F008
:103A580050C067F0696B0A0E686F01EC46F066C0EB
:103A680062F067C063F0EBEC49F0300E6225746FCA
:103A7800000E6321756FDEEC42F00001756B410E9C
:103A8800746FDEEC42F00001DC2B6BD7000ED0EC3B
:103A98003EF00A6A040EA2EC4AF058A014D0050EB3
:103AA8000001F36108D0360E7F6FFC0E806F050EA3
:103AB80027EC45F0D3D0A90E7F6FFB0E806F050E63
:103AC80027EC45F0CBD058AA14D0050E0001F361BD
:103AD80008D0360E7F6FFC0E806F050E27EC45F080
:103AE800BDD09F0E7F6FFB0E806F050E27EC45F053
:103AF800B5D05A0403E0020E5A1831E1CF0E000186
:103B08007F6FFC0E806F050E27EC45F0575001E1E2
:103B1800A5D00101386B640E376F0A0E096E575035
:103B280046EC49F00001D46F300ED425746F756BE4
:103B3800000E7523DAEC3AF00A0E056E575026ECA3
:103B48004AF00001D46F300ED425746F756B000EE7
:103B58007523DAEC3AF0050EACEC47F07FD0030E93
:103B68005A187CE189863C0E01015D6F070E000141
:103B7800F36120D0040EF36115D0F85113E0020E62
:103B8800F81908E1A30E7F6FFB0E806F050E27EC76
:103B980045F061D0E10E7F6FFC0E806F050E27ECBB
:103BA80045F059D0000E7F6FFC0E806F050E27EC94
:103BB80045F051D00101386B220E376F03EC4BF002
:103BC8008BC10AF08CC10BF00D6A640E0C6E4AECC6
:103BD80048F0300E0A240001746F000E0B20756F38
:103BE800DAEC3AF00D6A0A0E0C6E8BC10AF08CC141
:103BF8000BF04AEC48F00AC005F00BC006F0086A62
:103C08000A0E076ED0EC48F0300E05240001746FE0
:103C1800000E0620756FDAEC3AF00001756B2E0E77
:103C2800746FDAEC3AF08BC105F08CC106F0086AC3
:103C38000A0E076ED0EC48F0300E05240001746FB0
:103C4800000E0620756FDAEC3AF00001756B410E34
:103C5800746FDAEC3AF0050EACEC47F00A6A070E1E
:103C6800A2EC4AF001015D5102E05D07120089965D
:103C780012000001DF6FEA6BEB6BE06BE16BDD6B51
:103C8800DE6BD96BDA6BDB6BDC6BF7510DE1010E88
:103C9800EC6F2D0EEC25D96EDA6A010EDA22DF6A96
:103CA800EC2B030EEC65F5D7020E01012D1913E17B
:103CB8000001FB510101495D0001FC5101014A5914
:103CC8000AE20A0E4903F3CFD3F0F4CFD4F04A0343
:103CD800F350000109D00A0E0001FB03F3CFD3F023
:103CE800F4CFD4F0FC03F350D427D3C047F1D4C0A9
:103CF80048F1020EF76104D047C111F148C112F131
:103D0800EC6B2D0EEC25D96EDA6A010EDA22020E62
:103D1800DE181AE1EA4BEB2BEC51020D110EF324DD
:103D2800D96E010EF420DA6EDE50E027DD50E12373
:103D3800EC51020D8B0EF324D96E010EF420DA6ECD
:103D4800DE50DD27DD50DE23EC2B030EEC65D9D7E2
:103D5800DF5101E087D0020EF81901E183D00A0E85
:103D6800FD03F3CFD3F0F4CFD4F0FE03F350D42700
:103D7800010145510001D35DE66F01014651000183
:103D8800D459E76FE7BF15D0E75102E1E60511E323
:103D9800E6C06CF0E7C06DF06F6B040E6E6F3AEC26
:103DA80044F06C510101412700016D51010142238A
:103DB80049D0000E2A6E2B6E800E2C6E3F0E2D6E93
:103DC800E6C005F0E7C006F0000E06BEFF0E076E5F
:103DD800086E010EFDEC3BF005C026F006C027F08A
:103DE80007C028F008C029F027EC33F026C043F0BC
:103DF80027C044F028C045F029C046F041C105F06D
:103E080042C106F0000E06BEFF0E076E086E010ED8
:103E1800FDEC3BF005C03FF006C040F007C041F0A4
:103E280008C042F0A6EC2EF03FC04FF040C050F062
:103E380041C051F042C052F08FEC42F04FC041F106
:103E480050C042F1010142AF02D0416B426B42BF08
:103E580009D0210E415D030E425904E3030E426F5F
:103E6800200E416F020E0001F81901E094D0F60E01
:103E7800D36FD469D35101019503F3CFD5F0F4CFB3
:103E8800D6F09603F3500001D627D45101019503CB
:103E98000001F350D627F051D525E86FF151D6210E
:103EA800E96FE9AF17D0E9AF0BD0F60EE85DFF0E6A
:103EB800E95906E2050E01014127000E42231AD0F6
:103EC800E8C06CF0E9C06DF06F6B040E6E6F3AECF1
:103ED80044F009D0E8C06CF0E9C06DF06F6B020ED9
:103EE8006E6F3AEC44F06C510101415F00016D5175
:103EF8000101425B0001F951EA03F3CFD3F0F4CF9B
:103F0800D4F0EB03F350D427FA51EA03F350D42743
:103F18000A0ED303F3CFD5F0F4CFD6F0D403F35081
:103F2800D627D5510101415D0001D6510101425901
:103F380002E342AF2ED00001F951EA03F3CFD3F0E8
:103F4800F4CFD4F0EB03F350D427FA51EA03F3503B
:103F5800D4270A0ED303F3CFD5F0F4CFD6F0D40389
:103F6800F350D627D5C041F1D6C042F1EA51EB1142
:103F780010E00101D451D5110CE00001E9BF09D0CE
:103F8800E95103E10B0EE85D04E3010E01014D6FF9
:103F980002D001014D6B0001F70523E10A0E010172
:103FA800D803F3CFD3F0F4CFD4F0D903F350000102
:103FB800D427010141510001D35D010142510001A3
:103FC800D4590FE20A0E0101D803F3CFD3F0F4CF8E
:103FD800D4F0D903F3500001D427D3C041F1D4C0A1
:103FE80042F1DD510101455D0001E26FDE51010141
:103FF80046590001E36FE3AF02D0E26BE36BF8517F
:1040080016E1F70510E10A0E0101D803F3CFD3F04A
:10401800F4CFD4F0D903F3500001D427D3C041F131
:10402800D4C042F104D047C141F148C142F1EA513C
:10403800EB1101E134D1DF5115E0020EF81912E05D
:104048000A0EFD03F3CFD3F0F4CFD4F0FE03F35000
:10405800D427E251D35D0101416F0001E351D459E6
:104068000101426F010142BF3CD00001F951EA034E
:10407800F3CFD3F0F4CFD4F0EB03F350D427FA51B5
:10408800EA03F350D4270A0ED303F3CFD5F0F4CFC5
:10409800D6F0D403F350D627D5510101415D000174
:1040A800D651010142591DE3020E0001F8193EE103
:1040B800F1BF3CD0F15103E10B0EF05D37E30A0E7E
:1040C800FD03F3CFD3F0F4CFD4F0FE03F350D4279D
:1040D800010145510001D35D010146510001D45948
:1040E80025E20001F951EA03F3CFD3F0F4CFD4F07D
:1040F800EB03F350D427FA51EA03F350D4270A0EFE
:10410800D303F3CFD5F0F4CFD6F0D403F350D627AA
:10411800D5C041F1D6C042F10101582B040E00016F
:10412800C06FFB0EC16F13EC4AF002D00101586B4F
:10413800010141510001E05DE151800AD36F0101A5
:104148004251800A0001D35904E2E0C041F1E1C0C4
:1041580042F141C1E4F042C1E5F0EC6BE4C06CF01F
:10416800E5C06DF0EAC06EF0EBC06FF03AEC44F0D9
:104178006CC0D7F06DC0D8F02D0EEC25D96EDA6A78
:10418800010EDA22020EDE183EE1EC51D90FD96E8B
:10419800DA6ADF5038E1EC51020D110EF324D96EC2
:1041A800010EF420DA6EDE50D75DDE50D8592BE3CD
:1041B800EC51020D110EF324D96E010EF420DA6EC3
:1041C800EC51020D8B0EF324E16E010EF420E26E29
:1041D800DECFE6FFDDCFE5FFEC51D90FD96EDA6A05
:1041E800010EDF6EEA07D8A0EB07EC51020D8B0E2B
:1041F800F324D96E010EF420DA6EDE50E45FDD5050
:10420800E55BEC6B01D0EC2B040EEC6103D0EA51BA
:10421800EB11A4E1EC6BEA51EB1141E02D0EEC251A
:10422800D96EDA6A010EDA22020EDE1831E1EC519B
:10423800D90FD96EDA6ADF502BE1E4C06CF0E5C023
:104248006DF0EAC06EF0EBC06FF03AEC44F0EC5160
:10425800020D8B0EF324D96E010EF420DA6E6CC0B9
:10426800DEFF6DC0DDFFEC51D90FD96EDA6A010EA1
:10427800DF6EEA07D8A0EB07EC51020D8B0EF32492
:10428800D96E010EF420DA6EDE50E45FDD50E55B96
:10429800EC2B040EEC6103D0EA51EB11BFE1F705FA
:1042A800D8A41200EC6BEC2B030EEC65FCD7030CC6
:1042B8000001E26F22EC32F00001E16F3C0E0101D7
:1042C8005D6F8986990504E158B881B201D0589884
:1042D8005B5112E1050E0001E2190EE101014B519B
:1042E8000BE1010E5B6F29C11DF12AC11EF12BC123
:1042F8001FF12CC120F17BD101015B0528E1D00E13
:104308001D250001DD6F070E01011E210001DE6F72
:10431800000E01011F210001DF6F000E01012021A5
:104328000001E06F010129510001DD5D01012A5101
:104338000001DE5901012B510001DF5901012C5107
:104348000001E05904E2020E01015B6F1FD0010178
:104358005B050AE1070E0001E21906E101015B6B4A
:104368004B6B0CEC19F043D10F0E01015B1910E1F6
:10437800020E0001E2190CE101015A5109E0D06B6B
:10438800D16B800ED26F3F0ED36F5A6B010E7DD06A
:10439800010E01015B657BD0020E0001E21906E007
:1043A800030EE21903E0060EE21971E101014B5117
:1043B8006EE15A5156E159D035C105F036C106F0C3
:1043C800086A640E076E030E0A6EE70E096E000196
:1043D800E251FFEC47F005C035F106C036F153D085
:1043E8005B51F6EC35F062C031F163C032F131C196
:1043F80005F032C106F001015B514B0D450EF32665
:10440800000EF422340EF324F66EE60EF420F76E56
:104418000900F5CF07F00A00F5CF08F05B514B0D06
:10442800470EF326000EF422340EF324F66EE60E41
:10443800F420F76E0900F5CF09F00A00F5CF0AF06D
:104448000001E251FFEC47F005C031F106C032F13E
:1044580031C13FF032C140F001015B511CEC34F036
:1044680012D05B510F0AA8E0BBD75BC10CF0660EF7
:104478000D6E010E0E6EE1C00FF00001E25135EC39
:1044880046F001015B6F010EA5D04B6FB0D0010E55
:1044980001015B65A1D0050E0001E21901E09CD085
:1044A80001014B5101E098D0010E4B6F5A5164E065
:1044B8005A6B0F0E5B1901E09AD03351351904E19C
:1044C8003451361901E193D033C105F034C106F0F7
:1044D800076A086A000EFDEC3BF005C026F006C02E
:1044E80027F007C028F008C029F0D0C12AF0D1C1B0
:1044F8002BF0D2C12CF0D3C12DF027EC33F026C01D
:1045080019F127C01AF128C01BF129C01CF135C1C7
:1045180005F036C106F0076A086A000EFDEC3BF0AC
:1045280005C026F006C027F007C028F008C029F00B
:1045380019C12AF01AC12BF01BC12CF01CC12DF097
:1045480027EC33F026C0D0F127C0D1F128C0D2F132
:1045580029C0D3F135C105F036C106F0076A086AEB
:10456800000EFDEC3BF005C07FF106C080F107C0EE
:1045780081F108C082F13BD0010E5A6F0F0E5B1912
:1045880019E17FC14FF080C150F081C151F082C163
:1045980052F08FEC42F04FC062F050C063F0EBEC89
:1045A80049F062C035F163C036F135C133F136C127
:1045B80034F11DD0190E5B191AE15B6B5A6B586AFE
:1045C8000001F26B576A01014D6B0CEC19F0E1EC3C
:1045D80036F0020E010159D7070E0001E21907E172
:1045E80001014B6B066A0A0E056EB1EC48F0010139
:1045F8004B0503E05B0501E033D15B0523E1000EC9
:104608000A6AA2EC4AF0040E0A6E010EA2EC4AF005
:104618008A0E00017F6FFB0E806F020E27EC45F0BB
:10462800240E00017F6FFC0E806F040E27EC45F00E
:10463800100E0A6E060EA2EC4AF00A6A070EA2ECE9
:104648004AF00BD15B514B0D080EF326000EF422F5
:10465800340EF3240001C06FE60EF420C16F020E81
:10466800C26FD0EC40F0E1D003EC4BF001015A519D
:104678004BE04CEC4AF0386B280E376F35C10AF026
:1046880036C10BF00D6A640E0C6E4AEC48F0300E21
:104698000A240001746F000E0B20756FDAEC3AF0F3
:1046A800086A640E076E35C105F036C106F0D0EC15
:1046B80048F005C00AF006C00BF00D6A0A0E0C6E31
:1046C8004AEC48F0300E0A240001746F000E0B20EB
:1046D800756FDAEC3AF00001756B2E0E746FDAEC38
:1046E8003AF035C105F036C106F0086A0A0E076EC1
:1046F800D0EC48F0300E05240001746F000E06203F
:10470800756FDAEC3AF078D0000E386F280E376FF4
:104718007FC14FF080C150F081C151F082C152F089
:104728008FEC42F04FC062F050C063F0EBEC49F000
:1047380062C06CF063C06DF06F6B640E6E6F3AEC24
:1047480044F0300E6C25746F000E6D21756FDAEC35
:104758003AF0000E0001696F640E686F7FC14FF078
:1047680080C150F081C151F082C152F08FEC42F00B
:104778004FC062F050C063F0EBEC49F062C066F0E5
:1047880063C067F001EC46F066C06CF067C06DF07E
:104798006F6B0A0E6E6F3AEC44F0300E6C25746F36
:1047A800000E6D21756FDAEC3AF00001756B2E0E74
:1047B800746FDAEC3AF07FC14FF080C150F081C1DC
:1047C80051F082C152F08FEC42F04FC062F050C0FD
:1047D80063F0EBEC49F062C066F063C067F0696BA8
:1047E8000A0E686F01EC46F0300E6625746F000EF5
:1047F8006721756FDAEC3AF0386B580E376F0001A5
:10480800756B410E746FDAEC3AF0040EACEC47F0BD
:1048180012D05B5100EC2CF0AFC0C0F0B0C0C1F0BA
:10482800040EC26FD0EC40F006D001015B510F0AB4
:1048380001E11AD7EED7070E116EAB0E126EFC0E01
:10484800136EF20E056EFB0E066E91EC48F00550E5
:10485800FA0DF3507A0FCBEC45F0020E01014B6FC5
:1048680029C121F12AC122F12BC123F12CC124F144
:10487800596BE2C0CEF10001F36B120049D220EE71
:1048880003F04A50D9264B50DA22DF5001E1000CE0
:1048980020EE03F04A50D9264B50DA22100EDFAE34
:1048A8001C0E0001646F6D6B690E056E4AC006F040
:1048B8004BC007F06D51040DF3506425086E030ECC
:1048C800096E0FEC31F069C00DF06AC00EF06BC0D4
:1048D8000FF06CC010F0116A126A200E136E410EB0
:1048E800146E54EC2DF000016D51040DF3CF4FF010
:1048F800F4CF50F04F504D24D96E50504E20DA6E00
:104908000DC0DEFF0EC0DEFF0FC0DEFF10C0DEFFF1
:104918001C0E641901E087D06D51040DF3CF4FF0E0
:10492800F4CF50F04F504D24D96E50504E20DA6ECF
:10493800DECF0DF0DECF0EF0DECF0FF0DECF10F0C1
:10494800D0C111F0D1C112F0D2C113F0D3C114F00B
:1049580054EC2DF000016D51040DF3CF51F0F4CF5C
:1049680052F051504D24D96E52504E20DA6E0DC07F
:10497800DEFF0EC0DEFF0FC0DEFF10C0DEFF0A0E36
:10498800136ED70E146E230E156EBC0E166E6D5177
:10499800040DF3CF4FF0F4CF50F04F504D24D96EA3
:1049A80050504E20DA6EDECF17F0DECF18F0DECF93
:1049B80019F0DECF1AF02AEC43F031E200016D5114
:1049C800040DF3CF4FF0F4CF50F04F504D24D96E73
:1049D80050504E20DA6EDECF13F0DECF14F0DECF6B
:1049E80015F0DECF16F00A0E176ED70E186E230ECE
:1049F800196E3C0E1A6E2AEC43F011E200016D515B
:104A0800040DF3CF4FF0F4CF50F04F504D24D96E32
:104A180050504E20DA6EDE6ADE6ADE6ADD6A010E0A
:104A280001014E6F02D001014E6B00016D2B020E89
:104A38006D653AD720EE01F04A50D9264B50DA225C
:104A48000F0EDF6429D01C0E641926E1010E010146
:104A58004F6F97514F6E506AD8904F36503620EEB0
:104A680001F04A50D9264B50DA22DF50030B4F1879
:104A7800501001E155D1020E0001F761010C080E3A
:104A88002B6E2A6AD890010197352C6E2D6A2D3627
:104A98000A0ED5EC49F0010C01014F6B010C000125
:104AA8006D6B690E056E4AC006F04BC007F06D517C
:104AB800040DF3CF08F04C50120D0A0EF324D96EF2
:104AC800020EF420DA6EDF50096E0FEC31F069C087
:104AD8000DF06AC00EF06BC00FF06CC010F0116AD8
:104AE800126A200E136E410E146E54EC2DF0000164
:104AF8006D51040DF3CF4FF0F4CF50F04F504D24CB
:104B0800D96E50504E20DA6E0DC0DEFF0EC0DEFFAB
:104B18000FC0DEFF10C0DEFF690E056E4AC006F04A
:104B28004BC007F06D51040DF3500C0F086E4C503C
:104B3800120D0A0EF324D96E020EF420DA6EDF503D
:104B4800096E0FEC31F06CAF2BD06D51040DF3CF23
:104B58004FF0F4CF50F04F504D24D96E50504E20A6
:104B6800DA6EDECF05F0DECF06F0DECF07F0DECF5F
:104B780008F092EC4AF000016D51040DF3CF51F0AA
:104B8800F4CF52F051504D24D96E52504E20DA6E67
:104B980005C0DEFF06C0DEFF07C0DEFF08C0DEFF7F
:104BA8006D2B020E6D657DD701014E6B010C4C50CB
:104BB800120D0D0EF324D96E020EF420DA6E080ED3
:104BC800DE1842E100016D6B690E056E4AC006F001
:104BD8004BC007F06D51040DF3CF08F04C50120D87
:104BE8000A0EF324D96E020EF420DA6EDF50096E35
:104BF8000FEC31F069C00DF06AC00EF06BC00FF019
:104C08006CC010F0116A126A200E136E410E146EF9
:104C180054EC2DF000016D51040DF3CF4FF0F4CF9B
:104C280050F04F504D24D96E50504E20DA6E0DC0C2
:104C3800DEFF0EC0DEFF0FC0DEFF10C0DEFF6D2BF3
:104C4800020E6D65C1D7B0D700016D6B650E056E9C
:104C58004AC006F04BC007F06D51040DF3CF08F0C1
:104C68004C50120D0A0EF324D96E020EF420DA6E9F
:104C7800DF50096E0FEC31F04C50120D0D0EF3247D
:104C8800D96E020EF420DA6EDF504F6E4F0488ECB6
:104C980041F03FC060F040C061F041C062F042C0E6
:104CA80063F065C005F066C006F067C007F068C02D
:104CB80008F0010EFDEC3BF005C026F006C027F019
:104CC80007C028F008C029F060C02AF061C02BF0A6
:104CD80062C02CF063C02DF027EC33F000016D5159
:104CE800040DF3CF4FF0F4CF50F04F504D24D96E50
:104CF80050504E20DA6E26C0DEFF27C0DEFF28C0E7
:104D0800DEFF29C0DEFF6D2B020E6D659FD74CD7E5
:104D18004C50010A01E1B3D5050A01E1C0D647D7D5
:104D2800010C415042100BE041C0D9FF42C0DAFFEC
:104D38003FC0DEFF40C0DDFF02D03F4A402A3FC0EF
:104D4800D9FF40C0DAFFDF50446E445081EC4AF08E
:104D5800F4E2456A2D0E441805E1010E456E3F4AFE
:104D6800402A03D02B0E4418FAE0446A476A486A7E
:104D7800496A4A6A466A45B809D03FC0D9FF40C067
:104D8800DAFF2E0EDE1802E1458834D03FC0D9FF85
:104D980040C0DAFFDF50DBEC4AF02FE34582090E12
:104DA800441826E045B84606442A47C005F048C0DE
:104DB80006F049C007F04AC008F00A0E096E0A6AF0
:104DC8000B6A0C6AB6EC43F005C047F006C048F021
:104DD80007C049F008C04AF03FC0D9FF40C0DAFF19
:104DE800DF50D00F4726000E482249224A2202D01F
:104DF80045A8462A3F4A402ABED7446A3FC0D9FF41
:104E080040C0DAFF650EDE1807E03FC0D9FF40C09A
:104E1800DAFF450EDE1858E13F4A402A3FC0D9FF65
:104E280040C0DAFF2D0EDE1802E1458607D03FC0EC
:104E3800D9FF40C0DAFF2B0EDE1802E13F4A402AB4
:104E48003FC0D9FF40C0DAFF300EDE18F7E03FC0A0
:104E5800D9FF40C0DAFFDF50DBEC4AF033E33FC054
:104E6800D9FF40C0DAFFDF50D00F446E3F4A402AD6
:104E78003FC0D9FF40C0DAFFDF50DBEC4AF022E345
:104E88003FC0D9FF40C0DAFFDF50436E44500A0DDF
:104E9800F3504324D00F446E3F4A402A3FC0D9FF05
:104EA80040C0DAFFDF50DBEC4AF00CE33FC0D9FF2B
:104EB80040C0DAFFDF50436E44500A0DF3504324DC
:104EC800D00F446E45B6446C4450462641504210BB
:104ED8000AE045A208D041C0D9FF42C0DAFF3FC06E
:104EE800DEFF40C0DDFF47C005F048C006F049C0FE
:104EF80007F04AC008F0010EFDEC3BF005C047F092
:104F080006C048F007C049F008C04AF047C005F09D
:104F180048C006F049C007F04AC008F0096A0A6AA2
:104F28000B6A0C6A67EC46F005E33F6A406A416A1F
:104F3800426A120046AE5CD0466C1CD047C026F0D0
:104F480048C027F049C028F04AC029F0F90E2A6E57
:104F5800020E2B6E150E2C6E500E2D6E27EC33F0B4
:104F680026C047F027C048F028C049F029C04AF0B9
:104F7800F60E46264650800A760F1AE3DFD747C05A
:104F880026F048C027F049C028F04AC029F02A6A0C
:104F98002B6A200E2C6E410E2D6E27EC33F026C0A6
:104FA80047F027C048F028C049F029C04AF0460613
:104FB8004650E5E147C013F048C014F049C015F069
:104FC8004AC016F0176A186A800E196E1A6A2AEC17
:104FD80043F06CE245A006D03F6A406A800E416EFD
:104FE800426E800C3F6A406A800E416E426A000C35
:104FF8004650800A7F0F1DE259D047C00DF048C0C7
:105008000EF049C00FF04AC010F0F90E116E020EF2
:10501800126E150E136E500E146E54EC2DF00DC05A
:1050280047F00EC048F00FC049F010C04AF0F60E25
:1050380046260A0E4660E1D719D047C00DF048C091
:105048000EF049C00FF04AC010F0116A126A200E23
:10505800136E410E146E54EC2DF00DC047F00EC0C7
:1050680048F00FC049F010C04AF046064650E5E146
:10507800136814687F0E156E166E47C017F048C087
:1050880018F049C019F04AC01AF02AEC43F00EE2B1
:1050980045A006D03F6A406A800E416E426E800C81
:1050A8003F6A406A800E416E426A000C45A012D0E9
:1050B80047C005F048C006F049C007F04AC008F0EC
:1050C80092EC4AF005C047F006C048F007C049F026
:1050D80008C04AF047C03FF048C040F049C041F01E
:1050E8004AC042F012007C6F00017CAFEAD07C6DB0
:1050F8007C51800A120F01E283D06F6B0A0E6E6F2B
:10510800696B640E686F7C51666F676B66BF670773
:1051180001EC46F066C06CF067C06DF03AEC44F004
:105128006C51090F040DE00EF324F66EE50EF42021
:10513800F76E0900F5CF11F00900F5CF12F009005C
:10514800F5CF13F00A00F5CF14F06F6B640E6E6F95
:105158007C516C6F6D6B6CBF6D073AEC44F06C5111
:10516800120F040DE00EF324F66EE50EF420F76E30
:105178000900F5CF0DF00900F5CF0EF00900F5CFC5
:105188000FF00A00F5CF10F054EC2DF00DC078F0B8
:105198000EC079F00FC07AF010C07BF078C00DF027
:1051A80079C00EF07AC00FF07BC010F00001696B77
:1051B8000A0E686F7C51666F676B66BF670701EC04
:1051C80046F06651040DE00EF324F66EE50EF42069
:1051D800F76E0900F5CF11F00900F5CF12F00900BC
:1051E800F5CF13F00A00F5CF14F054EC2DF00DC0F4
:1051F80074F00EC075F00FC076F010C077F0120092
:105208007C51800A750F48E36F6B0A0E6E6F7C51F4
:105218006C6F6D6B6CBF6D073AEC44F06C51090F05
:10522800040DE00EF324F66EE50EF420F76E090087
:10523800F5CF0DF00900F5CF0EF00900F5CF0FF00E
:105248000A00F5CF10F0696B0A0E686F7C51666F23
:10525800676B66BF670701EC46F06651040DE00E08
:10526800F324F66EE50EF420F76E0900F5CF11F081
:105278000900F5CF12F00900F5CF13F00A00F5CFB9
:1052880014F054EC2DF00DC074F00EC075F00FC082
:1052980076F010C077F012007C51040DE00EF32474
:1052A800F66EE50EF420F76E0900F5CF74F00900EC
:1052B800F5CF75F00900F5CF76F00A00F5CF77F055
:1052C80012007C51800A120F01E283D06F6B0A0E24
:1052D8006E6F696B640E686F7C51666F676B66BF33
:1052E800670701EC46F066C06CF067C06DF03AECF9
:1052F80044F06C51090F040DAC0EF324F66EE50E64
:10530800F420F76E0900F5CF11F00900F5CF12F07F
:105318000900F5CF13F00A00F5CF14F06F6B640E97
:105328006E6F7C516C6F6D6B6CBF6D073AEC44F01F
:105338006C51120F040DAC0EF324F66EE50EF4203A
:10534800F76E0900F5CF0DF00900F5CF0EF0090052
:10535800F5CF0FF00A00F5CF10F054EC2DF00DC08A
:1053680078F00EC079F00FC07AF010C07BF078C0EA
:105378000DF079C00EF07AC00FF07BC010F000017C
:10538800696B0A0E686F7C51666F676B66BF67074B
:1053980001EC46F06651040DAC0EF324F66EE50EF2
:1053A800F420F76E0900F5CF11F00900F5CF12F0DF
:1053B8000900F5CF13F00A00F5CF14F054EC2DF0E6
:1053C8000DC074F00EC075F00FC076F010C077F005
:1053D80012007C51800A750F48E36F6B0A0E6E6FDE
:1053E8007C516C6F6D6B6CBF6D073AEC44F06C517F
:1053F800090F040DAC0EF324F66EE50EF420F76EDB
:105408000900F5CF0DF00900F5CF0EF00900F5CF32
:105418000FF00A00F5CF10F0696B0A0E686F7C5127
:10542800666F676B66BF670701EC46F06651040D4F
:10543800AC0EF324F66EE50EF420F76E0900F5CFF6
:1054480011F00900F5CF12F00900F5CF13F00A00AA
:10545800F5CF14F054EC2DF00DC074F00EC075F0BB
:105468000FC076F010C077F012007C51040DAC0E1E
:10547800F324F66EE50EF420F76E0900F5CF74F00C
:105488000900F5CF75F00900F5CF76F00A00F5CFE1
:1054980077F012000101006B016B026B036B046B68
:1054A800056B066B076B0A6B0B6B070E0001D56566
:1054B800070CD3C0D9FFD4C0DAFFDF500101006F59
:1054C800000120EE01F0D351D926D451DA22DF5061
:1054D8000101016FD3C005F0D4C006F0D5C007F0B4
:1054E80095EC45F00550061001E1FDD01200080EBC
:1054F8000001D51934E1020E01010B6F000120EE05
:1055080002F0D351D926D451DA22DF50D76FD66BA7
:1055180020EE03F0D351D926D451DA22DF50D61128
:105528000101026F0001D7510101036F000120EE54
:1055380004F0D351D926D451DA22DF50D76FD66B75
:1055480020EE05F0D351D926D451DA22DF50D611F6
:105558000101046F0001D7510101056FCED020EE83
:1055680002F0D351D926D451DA22DF5001010A6F53
:105578000A510001D66FD76BFB0ED86FD969D55188
:10558800DA6FDB6BD851DA27D951DB23D651DA1918
:1055980005E1D751DB1902E1030E9BD0580EC06F0D
:1055A800FA0EC16F13EC4AF0A8D0080E0001D51905
:1055B80037E1010E01010B6F000120EE02F0D3511B
:1055C800D926D451DA22DF50D76FD66B20EE03F0FC
:1055D800D351D926D451DA22DF50D6110101026FF6
:1055E8000001D7510101036F056B010E046F000123
:1055F80020EE04F0D351D926D451DA22DF50D76FE8
:10560800D66B20EE05F0D351D926D451DA22DF50DB
:10561800D6110101066F0001D7510101076F6DD046
:10562800580EC06FFA0EC16F13EC4AF066D0000135
:1056380020EE02F0D351D926D451DA22DF50D76FA9
:10564800D66B20EE03F0D351D926D451DA22DF509D
:10565800D6110101026F0001D7510101036F00014A
:1056680020EE04F0D351D926D451DA22DF50D76F77
:10567800D66B20EE05F0D351D926D451DA22DF506B
:10568800D6110101046F0001D7510101056F080E01
:105698000001D51981E020EE06F0D351D926D45166
:1056A800DA22DF5001010A6F0A510001D66FD76B69
:1056B800F70ED86FD969D551DA6FDB6BD851DA2775
:1056C800D951DB23D651DA1907E1D751DB1904E1A7
:1056D800020E01010B6F11D0580EC06FFA0EC16F88
:1056E80013EC4AF00AD001010151040A01E1FFD686
:1056F800020A01E15AD7160A9AE001010B5172E039
:105708000A5170E0D3C008F1D4C009F10001D551A5
:10571800010108250001D66F000E010109210001D1
:10572800D76F01010A510001D65F000ED75BFE0E4C
:10573800D6250101086FFF0E0001D7210101096F6D
:1057480051D0106B00C10CF101C10DF102C10EF175
:1057580003C10FF1120000510C190DE10D5101198F
:105768000AE1010E106F040E011906E10EC102F1E3
:105778000FC103F101D0106B0C6B0D6B0E6B0F6B2F
:10578800120000510C190CE10D51011909E1010E2B
:10579800106F030E0B6F0C6B0D6B0E6B0F6B0BD03A
:1057A800106B020E0B6F00C10CF101C10DF102C1AB
:1057B8000EF103C10FF10251031105E0035103E19A
:1057C800050E025D0CE3035104E1810E025DD8A0D1
:1057D8001200035110E1850E025DD8B01200020ECE
:1057E8000B6F020C0B51010ACCE0030AAAE0010A74
:1057F800D8A41200B0D712000001B36FB351F6EC71
:1058080035F062C0BEF063C0BFF006D101019A5105
:1058180006E0B10E0001AF6FF10EB06F1200980EE6
:105828000001AF6FF10EB06F1200F80505E1AB0E85
:10583800AF6FF10EB06F1200020EF81905E1A50E58
:10584800AF6FF10EB06F1200910EAF6FF10EB06F27
:105858001200B40EA36F880EA46FFC0EA56FBEC015
:10586800A6F0BFC0A7F078EC49F0B40EAF6FB06BEC
:1058780012000101D451D5110EE0B40E0001A36F3E
:10588800560EA46FFC0EA56FBEC0A6F0BFC0A7F051
:1058980078EC49F0EAD7770E0001AF6FF10EB06FE0
:1058A8001200F751090D040EF324AF6FF10EF42026
:1058B800B06F1200B40EA36F890EA46FFC0EA56F13
:1058C800BEC0A6F0BFC0A7F078EC49F0CED7590407
:1058D80005E1800EAF6FF10EB06F1200020E59187D
:1058E800DAE19F0EAF6FF10EB06F1200F6510A0D9C
:1058F800D20EF324AF6FF00EF420B06F1200010146
:105908009951C9E0890E0001AF6FF10EB06F120016
:10591800120EBE03F3CFB1F0F4CFB2F0BF03F350D1
:10592800B227000EB125AF6F020EB221B06F120080
:10593800010197510A0D590EF3240001AF6FF10EC2
:10594800F420B06F1200B40EA36FB30EA46FFB0E59
:10595800A56FBEC0A6F0BFC0A7F0BEC0A8F0BFC06C
:10596800A9F078EC49F081D70101985106E06D0E55
:105978000001AF6FF10EB06F1200BC0E0001AF6FE7
:10598800F10EB06F1200DB0EAF6FFB0EB06F12009E
:10599800C70EAF6FFB0EB06F1200D10EAF6FFB0ECC
:1059A800B06F1200BD0EAF6FFB0EB06F1200BEC01D
:1059B800B1F0BFC0B2F0B25108E1B151E4E0010A60
:1059C800E7E0030AEAE0010AEDE0080EBE19BF119C
:1059D80005E1A40EAF6FFC0EB06F1200B40EA36FFA
:1059E800EC0EA46FFC0EA56FBE5188EC41F03FC0D1
:1059F800A6F040C0A7F041C0A8F042C0A9F078ECDA
:105A080049F033D7B70EAF6FF10EB06F12009B0E8F
:105A1800AF6FF90EB06F1200B351020A01E1F6D66A
:105A2800010A01E13ED7070A01E144D7010A01E171
:105A380041D7030A01E14BD7010A01E10AD70F0A4E
:105A480001E117D7010A01E135D7030A01E14ED771
:105A5800010A01E154D7070A01E12CD7010A01E143
:105A6800E4D6030A01E126D71E0A01E151D7010A4B
:105A780001E15ED7030A01E166D7010A01E174D7A3
:105A8800070A01E145D7010A01E15DD7030A8FE062
:105A9800010A01E158D70F0A98E0010AB3E0B7D725
:105AA8001050800B196E105010241F6E0FBE1F80EF
:105AB8001F5008E01F2804E10D6A0E6A0F6A106A79
:105AC8000F8E04D00D6A0E6A0F6A106A1450800B8C
