:040000009DEF01F07F
:100008004982FACF05F0FBCF06F0E9CF07F0EACF37
:1000180008F0E1CF09F0E2CF0AF0D9CF0BF0DACF40
:100028000CF0F3CF0DF0F4CF0EF0F6CF0FF0F7CFC2
:1000380010F0F8CF11F0F5CF12F049C013F04AC014
:1000480014F04BC015F04CC016F032D0AECF63F1AF
:10005800030E01012725016E000E2821026E000EF5
:100068002921036E000E2A21046E3350015C34509E
:1000780002583550035836500458D8B002D0000EF4
:10008800616F320E6119D8B461076151010DA20E7A
:10009800F324D96E020EF420DA6E63C1DFFF612B00
:1000A80033C027F134C028F135C029F136C02AF110
:1000B8009EBACCD79EB89DA850D001015D51010DC4
:1000C800000EF324D96E030EF420DA6EDF50AD6E05
:1000D8005D2B5C515D19D8B404D0320E5D19D8A4DB
:1000E8003CD09D98000E5D6F38D071B4D0A20BD073
:1000F8004804D8A408D074CF63F101016351D8A48F
:1001080004D0FF0002D074CF63F1D08263C173FFC3
:10011800320E01016019D8B46007080E6319D8A41B
:1001280005D06051D8B402D0600717D00D0E6319FE
:10013800D8B404D00A0E6319D8A404D0000E636F93
:1001480060295E6F6051010D3E0EF324D96E020ED8
:10015800F420DA6E63C1DFFF602BA4AAC2D0C5D732
:100168004604D8A456D03A50D8A404D0030E481850
:10017800D8B427D02C0E01013D5D010E3E59D8B0F0
:1001880002D0809801D08088808A3D51016E3E510E
:10019800026E3D4B3E2B910E015C010E0258D8A019
:1001A80060D082B20AD0890E3D5D130E3E59D8A0A8
:1001B80058D0000E3E6F000E53D0010E3E6F900EC9
:1001C8004FD02C0E01013F5D010E4059D8B003D02D
:1001D8008088809A02D08088808A3F51016E405181
:1001E800026E3F4B402B910E015C010E0258D8A0C5
:1001F8005BD082A20AD0890E3F5D130E4059D8A069
:1002080053D0000E406F000E4ED0010E406F900E7E
:100218004AD0020E4618D8A44BD03A50D8A404D0DD
:10022800030E4818D8B422D0580E01013D5D020EC5
:100238003E59D8B002D0809801D08088808A3D513C
:10024800016E3E51026E3D4B3E2BBD0E015C020E0F
:100258000258D8A006D082B2A6D7020E3E6FBC0EB6
:100268003D6F000E406F000E3F6F22D0580E010107
:100278003F5D020E4059D8B003D08088809A02D0E2
:100288008088808A3F51016E4051026E3F4B402B5F
:10029800BD0E015C020E0258D8A006D082A2ABD7D0
:1002A800020E406FBC0E3F6F000E3E6F000E3D6F9A
:1002B800010E3326000E342235223622010139512F
:1002C8003A11D8B403D03907D8A03A0754075429AB
:1002D800D8A406D051C167FF0A0E546F010E536FA0
:1002E8007E907EB03DD716C04CF015C04BF014C0C0
:1002F8004AF013C049F012C0F5FF11C0F8FF10C052
:10030800F7FF0FC0F6FF0EC0F4FF0DC0F3FF0CC0DF
:10031800DAFF0BC0D9FF0AC0E2FF09C0E1FF08C03D
:10032800EAFF07C0E9FF06C0FBFF05C0FAFF4992D4
:10033800110000EF47F0B2EF0CF0250E0001D619BE
:10034800D8B438D020EE02F0AF51D926B051DA2215
:10035800DE50DE10D8B417D020EE02F0AF51D92607
:10036800B051DA22DECFB5F0DDCFB6F002D8B2EF69
:100378000CF00500FA6EB551FD6EB651FE6EFF6ABF
:10038800FA50D6511200AFC0D9FFB0C0DAFFDECFA5
:10039800B5F0DDCFB6F0B5C0D9FFB6C0DAFFD6C02C
:1003A800DFFFAFC0D9FFB0C0DAFFDE2A000EDD22C2
:1003B800B2EF0CF0000E0001D16F000ED06F000EEE
:1003C800D56F000ED46F07D00001D48702D000018A
:1003D800D485B14BB22BB1C0F6FFB2C0F7FFF86AB3
:1003E8000F0EF76403D00800F55005D0F6CFE1FFF3
:1003F800F7CFE2FFE7502D0AD8B4E6D71D0AD8B4E4
:10040800E6D70001D4B7D495B1C0F6FFB2C0F7FF64
:10041800F86A0F0EF76403D00800F55005D0F6CF40
:10042800E1FFF7CFE2FFE7505AEC4FF0D8A049D0F0
:10043800000E0001D16F000ED06FD0C01DF0D1C0EA
:100448001EF0000E206E0A0E1F6EC1EC4EF01DC08D
:10045800D0F01EC0D1F0D00E0001B56FFF0EB66F00
:10046800B1C0F6FFB2C0F7FFF86A0F0EF76403D009
:100478000800F55005D0F6CFE1FFF7CFE2FFE750CF
:100488000001B76FB86BB551B727B651B823B7514C
:10049800D027B851D123B14BB22BB1C0F6FFB2C0AF
:1004A800F7FFF86A0F0EF76403D00800F55005D07F
:1004B800F6CFE1FFF7CFE2FFE7505AEC4FF0D8B0A4
:1004C800BCD7B1C0F6FFB2C0F7FFF86A0F0EF764E9
:1004D80003D00800F55005D0F6CFE1FFF7CFE2FFD3
:1004E800E7502E0AD8A446D00001D58DB14BB22BC7
:1004F800000ED36F000ED26F28D0D2C01DF0D3C02B
:100508001EF0000E206E0A0E1F6EC1EC4EF0B1C038
:10051800F6FFB2C0F7FFF86A0F0EF76403D00800C1
:10052800F55005D0F6CFE1FFF7CFE2FFE750000125
:10053800B56FB5511D26000E1E22D00E1D24D26F98
:10054800FF0E1E20D36FB14BB22BB1C0F6FFB2C065
:10055800F7FFF86A0F0EF76403D00800F55005D0CE
:10056800F6CFE1FFF7CFE2FFE7505AEC4FF0D8A003
:100578006DD1C3D7000E0001D36F000ED26FD5899D
:1005880065D1D58597D1D48F95D1B3C0D9FFB4C0E3
:10059800DAFFDFCFB5F0020EDE26DFCFB6F0000EB1
:1005A800DD22B5C0D9FFB6C0DAFFDECFBEF0DDCFA1
:1005B800BFF0BE51BF11D8A404D0460EBE6FFC0ECA
:1005C800BF6F000EC16F000EC06F03D00001C04B9B
:1005D800C12BC051BE25B56FC151BF21B66FB5C083
:1005E800F6FFB6C0F7FFF86A0F0EF76403D00800ED
:1005F800F55005D0F6CFE1FFF7CFE2FFE75000094D
:10060800D8A4E4D70001D251D311D8B40AD0C0512C
:10061800D25DC151D359D8B004D0D2C0C0F0D3C034
:10062800C1F0D051C05DD151C159D8B005D0C05129
:10063800D05FC151D15B04D0000ED16F000ED06FD6
:10064800D4A736D099D020EE02F0AF51D926B051B8
:10065800DA22DE50DE10D8B416D020EE02F0AF5108
:10066800D926B051DA22DECFB5F0DDCFB6F001D809
:100678001FD00500FA6EB551FD6EB651FE6EFF6AC9
:10068800FA50200E1200AFC0D9FFB0C0DAFFDECF9B
:10069800B5F0DDCFB6F0B5C0D9FFB6C0DAFF200E91
:1006A800DF6EAFC0D9FFB0C0DAFFDE2A000EDD2250
:1006B8000001D007D8A0D107D029C5E1D129D8B4E5
:1006C8005BD0C1D720EE02F0AF51D926B051DA2263
:1006D800DE50DE10D8B429D020EE02F0AF51D92672
:1006E800B051DA22DECFB5F0DDCFB6F001D819D09F
:1006F8000500FA6EB551FD6EB651FE6EFF6AFA50EE
:10070800BEC0F6FFBFC0F7FFF86A0F0EF76403D04C
:100718000800F55005D0F6CFE1FFF7CFE2FFE7502C
:1007280012000001BE4BBF2B27D0BEC0F6FFBFC0D2
:10073800F7FFF86AAFC0D9FFB0C0DAFFDECFB5F077
:10074800DDCFB6F0B5C0D9FFB6C0DAFF0F0EF7643B
:1007580003D00800F55005D0F6CFE1FFF7CFE2FF50
:10076800E750DF6E0001BE4BBF2BAFC0D9FFB0C052
:10077800DAFFDE2A000EDD22C007D8A0C107C02993
:10078800A1E1C129D8A49ED7D4B737D0B2EF0CF0D5
:1007980020EE02F0AF51D926B051DA22DE50DE1039
:1007A800D8B416D020EE02F0AF51D926B051DA22D3
:1007B800DECFB5F0DDCFB6F001D81FD00500FA6E58
:1007C800B551FD6EB651FE6EFF6AFA50200E12004A
:1007D800AFC0D9FFB0C0DAFFDECFB5F0DDCFB6F0DD
:1007E800B5C0D9FFB6C0DAFF200EDF6EAFC0D9FFA3
:1007F800B0C0DAFFDE2A000EDD220001D007D8A043
:10080800D107D029C5E1D129D8B4B2EF0CF0C0D7AF
:10081800B3C0D9FFB4C0DAFFDFCFB5F0020EDE26D1
:10082800DFCFB6F0000EDD22B5C0D9FFB6C0DAFFC3
:10083800DF50D66FD60EBE6F000EBF6F000EC16FB1
:10084800010EC06FDFD6C00ED41334D00001B151F1
:10085800B56FB251B66FB14BB22BB5C0F6FFB6C08B
:10086800F7FFF86A0F0EF76403D00800F55005D0BB
:10087800F6CFE1FFF7CFE2FFE7500001D66FD65180
:10088800000AD8B4CFEF0CF0630AD8B4C1D7070A6E
:10089800D8B410D0020AD8B474D60F0AD8B40AD083
:1008A8001A0AD8B472D6060AD8B4CDD70D0AD8B465
:1008B8006AD6C0D7070ED515D8B4ADEF09F0D5A9BB
:1008C80004D0000ED36F060ED26FB3C0D9FFB4C0E8
:1008D800DAFFDFCFB5F0040EDE26DFCFB6F0000E6C
:1008E800DD22B5C0D9FFB6C0DAFFDECFCCF0DECF4F
:1008F800CDF0DECFCEF0DECFCFF0CFAF15D0CCC06D
:1009080017F0CDC018F0CEC019F0CFC01AF044ECE3
:100918004EF017C0CCF018C0CDF019C0CEF01AC0F8
:10092800CFF0030E0001D413000EC36F000EC26F88
:10093800CC51CD11CE11CF11D8B482D0CE35CF3510
:10094800820FC26FC36BFF0EC323C207D8A0C307B1
:10095800C2C01DF0C3C01EF0000E206E030E1F6E35
:10096800C1EC4EF01DC0C2F01EC0C3F0C2C01DF0E5
:10097800C3C01EF0000E206E0A0E1F6ECEEC48F0AB
:100988001DC0C2F01EC0C3F00001C3AF03D0C20730
:10099800D8A0C307C25100080BEC27F06DC0C4F003
:1009A8006EC0C5F06FC0C6F070C0C7F0C4C025F0F7
:1009B800C5C026F0C6C027F0C7C028F0CCC029F0B3
:1009C800CDC02AF0CEC02BF0CFC02CF078EC2FF0A1
:1009D80025C0C4F026C0C5F027C0C6F028C0C7F09F
:1009E800C4C025F0C5C026F0C6C027F0C7C028F08F
:1009F800000E296E000E2A6E800E2B6E3F0E2C6E96
:100A08000AEC41F0D8B005D00001C207D8A0C3074E
:100A180017D0C4C025F0C5C026F0C6C027F0C7C08F
:100A280028F0000E296E000E2A6E200E2B6E410E45
:100A38002C6E0AEC41F0D8A003D00001C24BC32BA6
:100A48000001D3BF06D0D35121E10D0ED25DD8B03D
:100A58001DD0CCC07AF0CDC07BF0CEC07CF0CFC02A
:100A68007DF0D251C0EC32F06DC07EF06EC07FF0E8
:100A78006FC080F070C081F021EC31F07AC0CCF00A
:100A88007BC0CDF07CC0CEF07DC0CFF00001C3BFED
:100A980006D0C35122E10A0EC25DD8B01ED0CC5197
:100AA800CD11CE11CF11D8B463D0CCC0A7F0CDC032
:100AB800A8F0CEC0A9F0CFC0AAF0B1EC44F0000174
:100AC800A751A811A911AA11D8B4C3BF51D0C351B5
:100AD80004E1020EC25DD8A04BD0C4C025F0C5C049
:100AE80026F0C6C027F0C7C028F05F0E296E700E2A
:100AF8002A6E890E2B6E400E2C6E0AEC41F0D8B08F
:100B080003D00001F70E02D00001F80EC227FF0E35
:100B1800C323C2510BEC27F06DC0C4F06EC0C5F002
:100B28006FC0C6F070C0C7F0CCC017F0CDC018F0C9
:100B3800CEC019F0CFC01AF0C4C01BF0C5C01CF05D
:100B4800C6C01DF0C7C01EF076EC40F017C0C8F054
:100B580018C0C9F019C0CAF01AC0CBF0000E0001C5
:100B6800CC6F000ECD6F000ECE6F000ECF6F3CD055
:100B7800CCC0A7F0CDC0A8F0CEC0A9F0CFC0AAF0D5
:100B8800B1EC44F0A7C0C8F0A8C0C9F0A9C0CAF029
:100B9800AAC0CBF0CCC08EF0CDC08FF0CEC090F004
:100BA800CFC091F0C8C017F0C9C018F0CAC019F07A
:100BB800CBC01AF0000E97EC3EF017C092F018C0A8
:100BC80093F019C094F01AC095F0A1EC4CF08EC0C7
:100BD800CCF08FC0CDF090C0CEF091C0CFF0000E19
:100BE8000001C36F000EC26F010ED66F0A0ED61930
:100BF800D8B41BD0D651040D240EF324F66EE90E9A
:100C0800F420F76EF86A000EF8220900F550C85D66
:100C18000900F550C9590900F550CA590900F5509D
:100C2800CB59D8A002D0D62BE1D7D6C0B5F0B66B39
:100C3800B5BFB607D251B527D351B623C251B52790
:100C4800C351B623B551D05FB651D15BD251D31140
:100C5800D8B403D0D007D8A0D107030ED415B56FE8
:100C6800000ED515B66FB551B611D8B403D0D0075C
:100C7800D8A0D107D4A583D0030ED415B56F000E24
:100C8800D515B66FB551B611D8B470D020EE02F0B4
:100C9800AF51D926B051DA22DE50DE10D8B416D0C2
:100CA80020EE02F0AF51D926B051DA22DECFB5F0EE
:100CB800DDCFB6F001D85AD00500FA6EB551FD6EF9
:100CC800B651FE6EFF6AFA502D0E1200AFC0D9FF62
:100CD800B0C0DAFFDECFB5F0DDCFB6F0B5C0D9FFD2
:100CE800B6C0DAFF2D0EDF6EAFC0D9FFB0C0DAFF95
:100CF800DE2A000EDD223AD0000120EE02F0AF51CC
:100D0800D926B051DA22DE50DE10D8B416D020EE43
:100D180002F0AF51D926B051DA22DECFB5F0DDCFDF
:100D2800B6F001D81FD00500FA6EB551FD6EB65168
:100D3800FE6EFF6AFA50300E1200AFC0D9FFB0C085
:100D4800DAFFDECFB5F0DDCFB6F0B5C0D9FFB6C05B
:100D5800DAFF300EDF6EAFC0D9FFB0C0DAFFDE2A8F
:100D6800000EDD220001D007D8A0D1070001D1BFB5
:100D7800FED0D151C1E1D005D8A0F9D0BDD7D4A7B4
:100D88003AD040D020EE02F0AF51D926B051DA2245
:100D9800DE50DE10D8B416D020EE02F0AF51D926BE
:100DA800B051DA22DECFB5F0DDCFB6F001D81FD0D2
:100DB8000500FA6EB551FD6EB651FE6EFF6AFA5027
:100DC800200E1200AFC0D9FFB0C0DAFFDECFB5F0F9
:100DD800DDCFB6F0B5C0D9FFB6C0DAFF200EDF6EA2
:100DE800AFC0D9FFB0C0DAFFDE2A000EDD22000155
:100DF800D007D8A0D107D1BF05D0D151C3E1D005C4
:100E0800D8B0C0D7030ED415B56F000ED515B66F80
:100E1800B551B611D8B4ABD020EE02F0AF51D926F7
:100E2800B051DA22DE50DE10D8B416D020EE02F02F
:100E3800AF51D926B051DA22DECFB5F0DDCFB6F00A
:100E480001D895D00500FA6EB551FD6EB651FE6E0B
:100E5800FF6AFA502D0E1200AFC0D9FFB0C0DAFFFA
:100E6800DECFB5F0DDCFB6F0B5C0D9FFB6C0DAFF3A
:100E78002D0E75D0C8C017F0C9C018F0CAC019F037
:100E8800CBC01AF00001D651040D240EF324F66EDF
:100E9800E90EF420F76EF86A000EF8220900F5CF83
:100EA8001BF00900F5CF1CF00900F5CF1DF00A0072
:100EB800F5CF1EF010EC49F017C0C4F018C0C5F00B
:100EC80019C0C6F01AC0C7F0C4C024F0C5C025F0C8
:100ED800C6C026F0C7C027F00A0E286E000E296E7D
:100EE800000E2A6E000E2B6E4EEC4BF024C0C4F0A0
:100EF80025C0C5F026C0C6F027C0C7F0000120EE07
:100F080002F0AF51D926B051DA22DE50DE10D8B443
:100F180017D020EE02F0AF51D926B051DA22DECF39
:100F2800B5F0DDCFB6F001D822D00500FA6EB55184
:100F3800FD6EB651FE6EFF6AFA50C451300F1200B2
:100F48000001C451300FAFC0D9FFB0C0DAFFDECF07
:100F5800B5F0DDCFB6F0B5C0D9FFB6C0DAFFDF6EA9
:100F6800AFC0D9FFB0C0DAFFDE2A000EDD220001D3
:100F7800D607D629D8B43AD07DD720EE02F0AF51A3
:100F8800D926B051DA22DE50DE10D8B416D020EEC1
:100F980002F0AF51D926B051DA22DECFB5F0DDCF5D
:100FA800B6F001D81FD00500FA6EB551FD6EB651E6
:100FB800FE6EFF6AFA50300E1200AFC0D9FFB0C003
:100FC800DAFFDECFB5F0DDCFB6F0B5C0D9FFB6C0D9
:100FD800DAFF300EDF6EAFC0D9FFB0C0DAFFDE2A0D
:100FE800000EDD220001C207D8A0C307C3BF05D089
:100FF800C351C3E1C205D8B0C0D7D3BF09D0D351BC
:1010080004E1090ED25DD8A003D0080ED66F02D035
:10101800D2C0D6F0D651D25F000ED6BFFF0ED35B3A
:10102800D651D8B435D020EE02F0AF51D926B05100
:10103800DA22DE50DE10D8B416D020EE02F0AF511E
:10104800D926B051DA22DECFB5F0DDCFB6F001D81F
:101058001FD00500FA6EB551FD6EB651FE6EFF6ADF
:10106800FA502E0E1200AFC0D9FFB0C0DAFFDECFA3
:10107800B5F0DDCFB6F0B5C0D9FFB6C0DAFF2E0E99
:10108800DF6EAFC0D9FFB0C0DAFFDE2A000EDD2266
:101098000001D6510BEC27F06DC0B9F06EC0BAF064
:1010A8006FC0BBF070C0BCF0CCC029F0CDC02AF036
:1010B800CEC02BF0CFC02CF0B9C025F0BAC026F0B6
:1010C800BBC027F0BCC028F078EC2FF025C0A7F0F3
:1010D80026C0A8F027C0A9F028C0AAF0B1EC44F0B7
:1010E800A7C0C8F0A8C0C9F0A9C0CAF0AAC0CBF070
:1010F800A7D0C8C017F0C9C018F0CAC019F0CBC033
:101108001AF00001D651040D240EF324F66EE90EF0
:10111800F420F76EF86A000EF8220900F5CF1BF0EC
:101128000900F5CF1CF00900F5CF1DF00A00F5CF36
:101138001EF010EC49F017C0C4F018C0C5F019C073
:10114800C6F01AC0C7F0C4C024F0C5C025F0C6C098
:1011580026F0C7C027F00A0E286E000E296E000E72
:101168002A6E000E2B6E4EEC4BF024C0C4F025C046
:10117800C5F026C0C6F027C0C7F0000120EE02F077
:10118800AF51D926B051DA22DE50DE10D8B417D0CC
:1011980020EE02F0AF51D926B051DA22DECFB5F0F9
:1011A800DDCFB6F001D822D00500FA6EB551FD6E3C
:1011B800B651FE6EFF6AFA50C451300F120000019A
:1011C800C451300FAFC0D9FFB0C0DAFFDECFB5F0E1
:1011D800DDCFB6F0B5C0D9FFB6C0DAFFDF6EAFC05D
:1011E800D9FFB0C0DAFFDE2A000EDD22C8C024F025
:1011F800C9C025F0CAC026F0CBC027F00001D651DF
:10120800040D240EF324F66EE90EF420F76EF86A46
:10121800000EF8220900F5CF28F00900F5CF29F0D3
:101228000900F5CF2AF00A00F5CF2BF04EEC4BF071
:1012380024C0C8F025C0C9F026C0CAF027C0CBF02A
:101248000001D607D629D8B43AD053D720EE02F0F9
:10125800AF51D926B051DA22DE50DE10D8B416D0FC
:1012680020EE02F0AF51D926B051DA22DECFB5F028
:10127800DDCFB6F001D81FD00500FA6EB551FD6E6E
:10128800B651FE6EFF6AFA50300E1200AFC0D9FF99
:10129800B0C0DAFFDECFB5F0DDCFB6F0B5C0D9FF0C
:1012A800B6C0DAFF300EDF6EAFC0D9FFB0C0DAFFCC
:1012B800DE2A000EDD220001D207D8A0D307D251C2
:1012C800D311D8A4C3D7D4B7D1BF48D3D15103E1E0
:1012D800D005D8A043D320EE02F0AF51D926B051A3
:1012E800DA22DE50DE10D8B416D020EE02F0AF516C
:1012F800D926B051DA22DECFB5F0DDCFB6F001D86D
:101308001FD00500FA6EB551FD6EB651FE6EFF6A2C
:10131800FA50200E1200AFC0D9FFB0C0DAFFDECFFE
:10132800B5F0DDCFB6F0B5C0D9FFB6C0DAFF200EF4
:10133800DF6EAFC0D9FFB0C0DAFFDE2A000EDD22B3
:101348000001D007D8A0D107D051D111D8B406D305
:10135800C2D7C00ED415B56F000ED515B66FB551EE
:10136800B611D8A426D0B3C0D9FFB4C0DAFFDFCFF6
:10137800B5F0020EDE26DFCFB6F0000EDD22B5C0D6
:10138800D9FFB6C0DAFFDECFC8F0DDCFC9F0000E56
:10139800C9BFFF0ECA6FCB6FCBAF25D0030ED413D6
:1013A800CB1FCA1FC91FC86D000EC923CA23CB2370
:1013B8001AD0B3C0D9FFB4C0DAFFDFCFB5F0020E40
:1013C800DE26DFCFB6F0000EDD22B5C0D9FFB6C0ED
:1013D800DAFFDECFB7F0DDCFB8F0B7C0C8F0B8C0DD
:1013E800C9F0CA6BCB6BD251D311D8A44BD0C8511A
:1013F800C911CA11CB11D8A445D0D24BD32B42D096
:10140800010ED66F0A0ED619D8B447D0D651040D9E
:10141800240EF324F66EE90EF420F76EF86A000E37
:10142800F8220900F550C85D0900F550C9590900AE
:10143800F550CA590900F550CB59D8A02ED0D62B53
:10144800E1D7010ED66F080ED619D8B426D0D651DA
:10145800040D4C0EF324F66EE90EF420F76EF86ACC
:10146800000EF8220900F550C85D0900F550C95969
:101478000900F550CA590900F550CB59D8A00DD02C
:10148800D62BE1D7D451C00B000AD8B4B9D7800AFB
:10149800D8B4D7D7400AD8B4B3D7800ED6BF7F0EFA
:1014A800B56FD251D65DD351800AB559D8B003D0A3
:1014B800D2C0D6F010D0D351800AB56FD651D25DC4
:1014C800800ED6BF7F0EB559D8B005D0D651D26F91
:1014D800D36BD2BFD307D051D111D8B40DD0030EDE
:1014E800D415B56F000ED515B66FB551B611D8B471
:1014F80003D0D007D8A0D107D5AD13D0D051D25D35
:10150800D351800AB56FD151800AB559D8B005D0EA
:10151800D251D05FD351D15B04D0000ED16F000EF1
:10152800D06F800ED6BF7F0EB56FD051D65DD1512A
:10153800800AB559D8B007D0D651D05F000ED6BFB3
:10154800FF0ED15B04D0000ED16F000ED06FD4A572
:101558007ED0030ED415B56F000ED515B66FB551F4
:10156800B611D8B435D020EE02F0AF51D926B0511B
:10157800DA22DE50DE10D8B416D020EE02F0AF51D9
:10158800D926B051DA22DECFB5F0DDCFB6F001D8DA
:101598001FD00500FA6EB551FD6EB651FE6EFF6A9A
:1015A800FA502D0E1200AFC0D9FFB0C0DAFFDECF5F
:1015B800B5F0DDCFB6F0B5C0D9FFB6C0DAFF2D0E55
:1015C800DF6EAFC0D9FFB0C0DAFFDE2A000EDD2221
:1015D8000001D051D111D8B473D120EE02F0AF512F
:1015E800D926B051DA22DE50DE10D8B416D020EE5B
:1015F80002F0AF51D926B051DA22DECFB5F0DDCFF7
:10160800B6F001D81FD00500FA6EB551FD6EB6517F
:10161800FE6EFF6AFA50300E1200AFC0D9FFB0C09C
:10162800DAFFDECFB5F0DDCFB6F0B5C0D9FFB6C072
:10163800DAFF300EDF6EAFC0D9FFB0C0DAFFDE2AA6
:10164800000EDD220001D007D8A0D107C2D7D051A3
:10165800D111D8A4D4B73DD020EE02F0AF51D9268D
:10166800B051DA22DE50DE10D8B416D020EE02F0E7
:10167800AF51D926B051DA22DECFB5F0DDCFB6F0C2
:1016880001D81FD00500FA6EB551FD6EB651FE6E39
:10169800FF6AFA50200E1200AFC0D9FFB0C0DAFFBF
:1016A800DECFB5F0DDCFB6F0B5C0D9FFB6C0DAFFF2
:1016B800200EDF6EAFC0D9FFB0C0DAFFDE2A000E01
:1016C800DD220001D007D8A0D107D051D111D8A46C
:1016D800C3D7030ED415B56F000ED515B66FB55127
:1016E800B611D8B4EDD020EE02F0AF51D926B051E2
:1016F800DA22DE50DE10D8B416D020EE02F0AF5158
:10170800D926B051DA22DECFB5F0DDCFB6F001D858
:10171800D7D00500FA6EB551FD6EB651FE6EFF6A60
:10172800FA502D0E1200AFC0D9FFB0C0DAFFDECFDD
:10173800B5F0DDCFB6F0B5C0D9FFB6C0DAFF2D0ED3
:10174800DF6EB7D0D2C0B5F0D3C0B6F00001D890E4
:10175800B537B637D890B537B637240EB525F66EF7
:10176800E90EB621F76EF86A000EF8220900F5CFE7
:101778001BF00900F5CF1CF00900F5CF1DF00A0099
:10178800F5CF1EF0C8C017F0C9C018F0CAC019F0CC
:10179800CBC01AF010EC49F017C024F018C025F09F
:1017A80019C026F01AC027F00A0E286E000E296EFE
:1017B800000E2A6E000E2B6E4EEC4BF02450300FAC
:1017C8000001D66F48D0C8C017F0C9C018F0CAC009
:1017D80019F0CBC01AF0D2C0B5F0D3C0B6F0D8908B
:1017E800B537B637D890B537B6374C0EB525F66E3F
:1017F800E90EB621F76EF86A000EF8220900F5CF57
:101808001BF00900F5CF1CF00900F5CF1DF00A0008
:10181800F5CF1EF010EC49F017500F0B0001BD6F0B
:10182800BD51010DC40EF324F66EFA0EF420F76EC6
:10183800F86A000EF8220800F5CFD6F00CD00001A7
:10184800D451C00B000AD8B47DD7800AD8B4BBD70E
:10185800400AD8B477D720EE02F0AF51D926B0515C
:10186800DA22DE50DE10D8B416D020EE02F0AF51E6
:10187800D926B051DA22DECFB5F0DDCFB6F001D8E7
:101888001FD00500FA6EB551FD6EB651FE6EFF6AA7
:10189800FA50D6511200AFC0D9FFB0C0DAFFDECF80
:1018A800B5F0DDCFB6F0B5C0D9FFB6C0DAFFD6C007
:1018B800DFFFAFC0D9FFB0C0DAFFDE2A000EDD229D
:1018C8000001D207D8A0D307D229B9E1D329D8A4D7
:1018D800B6D7D4B7D1BF42D0D15103E1D005D8A0F3
:1018E8003DD020EE02F0AF51D926B051DA22DE50B9
:1018F800DE10D8B416D020EE02F0AF51D926B05180
:10190800DA22DECFB5F0DDCFB6F001D81FD0050062
:10191800FA6EB551FD6EB651FE6EFF6AFA50200E92
:101928001200AFC0D9FFB0C0DAFFDECFB5F0DDCF0F
:10193800B6F0B5C0D9FFB6C0DAFF200EDF6EAFC073
:10194800D9FFB0C0DAFFDE2A000EDD220001D00781
:10195800D8A0D107D051D111D8A4C3D70001B15113
:10196800B56FB251B66FB14BB22BB5C0F6FFB6C06A
:10197800F7FFF86A0F0EF76403D00800F55005D09A
:10198800F6CFE1FFF7CFE2FFE7500001D66FD6515F
:10199800D8A4A1EF01F0000EB06F000EAF6F1200D7
:1019A800000E0201EC6F050EEB6F000EE86F000EE3
:1019B800E36F000EEA6F000EE96F000EE46F010E90
:1019C800E26F22EE00F012EED6F00B0EDBCFE3FF53
:1019D800E806FCE220EC45F006EC3BF03FC01DF0C9
:1019E80040C01EF0000E206E0A0E1F6EC1EC4EF0B5
:1019F8001DC041F11EC042F1CBEC49F012EC4EF093
:101A0800D0823750D8A43FEC3FF001015E51D8A4F2
:101A1800F1EC15F001015D51D8B4ACA201D08A9A5D
:101A280050EC47F0A30E946E00F000F08250210BAA
:101A38000201F36FF339E8461F0B0101F66F02014B
:101A4800F351F325020B0101F611F66F8150010BDA
:101A5800F611F66F820E946E070EF619D8A404D00C
:101A6800F551F619D8B403D0F65112EC24F0010E52
:101A7800010158651DD0140E58611AD0880E23250F
:101A8800E46F130E2421E56F000E2521E66F000E8A
:101A98002621E76F3350E45D3450E5593550E65957
:101AA8003650E759D8B004D05751D8B43DEC44F07B
:101AB80081B439D00201E42BE4050101E46F050E7D
:101AC800E46534D039513A11D8A428D04450D8B458
:101AD80014D04F51D8B405D0000E4F6F010E486E88
:101AE80002D0010E4F6F490E9D6FFB0E9E6F4FC1C6
:101AF8009FF1A06BA7EC4DF00BD0030E4818D8A4AB
:101B080007D0010E486E3750D8A402D00F0E386E99
:101B18004304D8B43AA802D081A23A98000E010131
:101B28003A6FC80E396F000E0201E46F4304D8B44F
:101B380081A205D0010E486E3A88000E396E050E56
:101B48004818D8A424D03650351006E1E90E335C85
:101B5800030E3458D8A01BD0000E0001746F010E7C
:101B6800736F000E766F000E756F455070EC4EF077
:101B7800120E01019D6FF80E9E6FA7EC4DF0000E3E
:101B8800336E000E346E000E356E000E366E48044D
:101B9800D8A4B0D0000EBD6E82848198000E0101D9
:101BA8002B6FACEC4AF00201ED6FED05D8A404D020
:101BB8003A9A3A90000E386E020EED19D8A49AD0CF
:101BC800020E01016419D8A48FD04F51D8A403D0B4
:101BD8004450D8A489D00201EC2BEC050101E46F34
:101BE800190EE46587D080EC3CF0E806D8B43A8654
:101BF8003850D8A47FD03A50D8A47CD0000E020127
:101C0800EA6F3EEC48F06C0E01019D6FF90E9E6F75
:101C18004BC19FF14CC1A0F13DC0A1F13EC0A2F162
:101C2800A7EC4DF03D5001014B5D3E504C59D8B0EA
:101C38000BD04BC11DF04CC11EF0000E206E0A0ED9
:101C48001F6EC1EC4EF00AD03DC01DF03EC01EF024
:101C5800000E206E0A0E1F6EC1EC4EF01DC049F139
:101C68001EC04AF1010E456422D0000E0001746FB7
:101C7800020E736F49C175F04AC176F0455070EC99
:101C88004EF0A70E01019D6FF80E9E6F49C19FF19E
:101C98004AC1A0F1A7EC4DF0060E486E000E336E57
:101CA800000E346E000E356E000E366E23D04BC11A
:101CB8001DF04CC11EF0000E206E0A0E1F6EC1EC06
:101CC8004EF01DC00FF11EC010F1010E01012B6F67
:101CD800020E486E3C0E5A6F80862F0E9D6FFB0ECB
:101CE8009E6FA7EC4DF006D0020E0101646F000E46
:101CF8000201EC6F060E4818D8A40BD036503510E8
:101D080006E1E90E335C030E3458D8A002D0010E68
:101D1800486E020E4818D8A4C1D0070EBC64A8D0DB
:101D2800180EBC60A5D0ACEC4AF00201ED6FED05D1
:101D3800D8A41FD001016405D8A419D00201EC2B46
:101D4800EC050101E46F190EE46592D0010E486EAE
:101D5800150E9D6FFB0E9E6FA7EC4DF0010E4564AE
:101D680087D0050E486EE90E336E030E3BD0010E88
:101D780072D0030EED19D8A474D0030E01016419B2
:101D8800D8A468D00201EA05D8A464D0EC2BEC05ED
:101D98000101E46F190EE4656BD03A50D8A468D0FD
:101DA8003850D8A465D0010E456422D0000E000139
:101DB800746F030E736F49C175F04AC176F04550D0
:101DC80070EC4EF0CA0E01019D6FF80E9E6F49C16E
:101DD8009FF14AC1A0F1A7EC4DF0070E486E000E26
:101DE800336E000E346E000E356E000E366E40D027
:101DF80049C10FF14AC110F180EC3CF00009D8A4A8
:101E080027D0020E01012B6F000E866F000E856F22
:101E1800010EBCEC20F08188000E0201EA6F030E6F
:101E2800486E000E396E000E336E000E346E000ED2
:101E3800356E000E366E01015851D8B429EC1CF0ED
:101E48003C0E01019D6FFB0E9E6FA7EC4DF010D06C
:101E58003A860ED0030E0101646F000E0201EC6F8A
:101E680007D0020E01016419D8B402D0000E646FC5
:101E7800E60EBC6413D0F10EBC64FDD7F10EBC6451
:101E880001D0BC50ACEC4AF00201ED6F040EED1924
:101E9800D8A402D0010E01D0000EEA6F070E481830
:101EA800D8A415D03650351006E1E90E335C030E80
:101EB8003458D8A00CD0000E0201EA6F020E486E0A
:101EC800750E01019D6FFA0E9E6FA7EC4DF0030E83
:101ED8004818D8A476D0070EBC6473D0180EBC601E
:101EE80070D0ACEC4AF00201ED6FED05D8B403D028
:101EF800ED51D8A42AD001016405D8A424D0020148
:101F0800EC2BEC050101E46F190EE4655AD0010EC3
:101F1800486E220E9D6FFB0E9E6FA7EC4DF0CBEC2A
:101F280049F0010E45640BD0050E486EE90E336E7C
:101F3800030E346E000E356E000E366E42D0000E63
:101F480001012B6F3ED0010E34D0020EED19D8A43A
:101F580035D0020E01016419D8A429D00201EC2B56
:101F6800EC050101E46F190EE4652BD08198CBECE8
:101F780049F0000E0201EA6F020E486E010E456438
:101F88000BD0080E486EE90E336E030E346E000E49
:101F9800356E000E366E03D0000E01012B6F7D0EDC
:101FA80001019D6FFA0E9E6FA7EC4DF00AD0020E4C
:101FB8000101646F000E0201EC6F03D0000E0101F5
:101FC800646F080E4818D8A424D03650351006E19E
:101FD800E90E335C030E3458D8A01BD0000E000164
:101FE800746F040E736F000E766F000E756F455098
:101FF80070EC4EF0380E01019D6FF80E9E6FA7EC45
:102008004DF0000E336E000E346E000E356E000E6D
:10201800366EABA202D0AB98AB8871A202D0719891
:102028007188D6CFF3F23C0ED764E9D0000ED76E94
:10203800000ED66E81EC4BF001014E51D8B41CD085
:102048003751E46F3851E56F374B382B93C11DF08A
:1020580094C11EF0000E206E3C0E1F6EC1EC4EF0B7
:102068000101E4511D5CE5511E58D8B009D0010E9C
:10207800486E000E4E6F04D0000E386F000E376F9A
:102088003850D8A43806370E596102D03AB43A9479
:102098003AC0E4F1210EE417D8B40AD0020E456024
:1020A80007D080EC3CF00009D8A402D03A903A9AC4
:1020B8000201EB51D8B43AB21DD03A82010E486EF3
:1020C8008A0E01019D6FF90E9E6FA7EC4DF0000E70
:1020D8000201F36F030EF36501D00FD0F351010D28
:1020E8002B0EF324D96E010EF420DA6E000EDF6E8B
:1020F800F32BF0D7EB51D8A4EB07400E010159653B
:102108001CD03A84010E486E180E9D6FFA0E9E6F11
:10211800A7EC4DF0000E0201F36F030EF36501D03A
:102128000CD0F351010D2B0EF324D96E010EF420BF
:10213800DA6E000EDF6EF32BF0D73AC0E4F1290E09
:102148000101E417D8B41FD03A96020E4718D8A454
:102158000BD03850D8A406D0A80E9D6FF90E9E6FEC
:10216800A7EC4DF03A8A0BD03850D8A407D00E0E01
:1021780001019D6FF90E9E6FA7EC4DF03A80010E9C
:10218800486E3C0E386E29EC1CF04750D8B40BD082
:102198000201E207E229D8A406D0010E0101506F1E
:1021A800010E0201E26F4750D8A429D0000E0101A8
:1021B800486F000E476F0201E951D8A4E907020EE3
:1021C80045601DD0E951D8A41AD0000EBCEC20F00F
:1021D8004504D8B469EC4FF0020E4818D8B404D0BE
:1021E800030E4818D8A406D085C1AFF086C1B0F058
:1021F800B2EC42F0020E0201E96F0A0EEB6F010128
:102208005051D8B41BD0020E456018D00CD09BC1D9
:1022180077F04250E3EC4AF00ED099C177F0415084
:10222800E3EC4AF008D001015051010AD8B4EFD7C5
:10223800030AD8B4F2D7000E0101506F6151D8B427
:10224800CEEF15F0030E2725E46F000E2821E56F69
:10225800000E2921E66F000E2A21E76F3350E45D56
:102268003450E5593550E6593650E759D8B0CEEFD5
:1022780015F0700E176E020E186EA20E196E020E71
:102288001A6E61C11BF01C6AE8EC4CF061C15FF189
:10229800000E0101616F700E0001FA6F020EFB6FF4
:1022A8005FC1FCF09CEC2DF0030E01010B19D8A4C2
:1022B80098D00A0E0201EB6F8ED04250D8B421D0CC
:1022C80001019B510019D8A41CD008C1A7F009C16D
:1022D800A8F042C0A9F0790E0001AA6F010EAB6FF9
:1022E8000FEC39F04150D8B408D0020E0101506FFC
:1022F800010E0201E36FCEEF15F07FEC2BF0CEEF6D
:1023080015F00201E351D8B4CEEF15F04150D8B41E
:10231800CEEF15F0010199510019D8A4CEEF15F0B0
:1023280008C1A7F009C1A8F041C0A9F0D60E000164
:10233800AA6F020EAB6F0FEC39F0000E0201F36FBB
:10234800020EF36501D042D0F351040DD60EF324EA
:10235800D96E020EF420DA6EDECF17F0DECF18F059
:10236800DECF19F0DECF1AF044EC4EF017C07AF049
:1023780018C07BF019C07CF01AC07DF00201F3513F
:10238800040D790EF324D96E010EF420DA6EDECF37
:102398007EF0DECF7FF0DECF80F0DECF81F021EC63
:1023A80031F00201F351040D790EF324D96E010EB8
:1023B800F420DA6E00017AC0DEFF7BC0DEFF7CC04D
:1023C800DEFF7DC0DEFF0201F32BBAD7000EE36FFC
:1023D8007FEC2BF0DFD301010151040AD8B46DD78B
:1023E800D9D3020E0B19D8A457D10A0E0201EB6FEC
:1023F80047D1455001010019D8A4CCD3035104E1B9
:10240800A00E025DD8A015D0035113E1A30E025D02
:10241800D8B00FD0000E00016D6FA00E6C6F000ECB
:102428006F6F010E6E6F000E716F030E706FA0EC70
:1024380047F00101035104E1C00E025DD8A016D097
:10244800035114E1CA0E025DD8B010D0000E00018D
:102458006D6FC00E6C6F000E6F6F020E6E6F000E08
:10246800716F0A0E706FEFEC47F094D301010351BE
:1024780004E1E00E025DD8A08DD3035103E1E80E1C
:10248800025DD8B087D3000E00016D6FE00E6C6F4F
:10249800000E6F6F0C0E6E6F000E716F080E706F6E
:1024A800EFEC47F077D3010E010100651FD0050E50
:1024B80000611CD002510311D8B408D0035106E1C1
:1024C800050E025DD8B002D0030E0ED001010351F3
:1024D80004E1810E025DD8A009D0035107E1850E01
:1024E800025DD8B003D0020E0201E86F010100516D
:1024F800D8B404D045500019D8A44CD3035104E1F2
:10250800C00E025DD8A011D003510FE1CA0E025DC2
:10251800D8B00BD0000EC56FC00EC46F000EC76FC9
:10252800020EC66F75EC4AF035D30101035104E180
:10253800E00E025DD8A02ED3035103E1E80E025D40
:10254800D8B028D3000EC56FE00EC46F000EC76F59
:102558000C0EC66F75EC4AF01DD301010051D8B4BA
:1025680004D045500019D8A415D302050311D8A4E6
:102578004FD0010E45644CD0FE0EE46FFF0EE56FA0
:102588004550E66FE76BD890E637E737E451E62722
:10259800E551E723E6510825D96EE7510921DA6E9E
:1025A800DF50E86FE851EA6FE96BFF0EEB6FFF0E43
:1025B800EC6F4550ED6FEE6BD890ED37EE37EB5181
:1025C800ED27EC51EE23ED510825D96EEE51092186
:1025D800DA6EDF50EF6FEF51E9110201E56F01018B
:1025E800EA510201E66FAE0E01019D6FF60E9E6F75
:1025F80000C19FF1A06B02C1A1F103C1A2F1E5C224
:10260800A3F1E6C2A4F1A7EC4DF0020E0201AAD094
:102618000101035104E1C00E025DD8A015D0035199
:1026280013E1CA0E025DD8B00FD0000EC56FC00E00
:10263800C46F000EC76F020EC66F000EC96F0A0E78
:10264800C86F29EC42F0A6D20101035104E1E00E63
:10265800025DD8A09FD2035103E1E80E025DD8B015
:1026680099D2000EC56FE00EC46F000EC76F0C0E36
:10267800C66F000EC96F080EC86F29EC42F08AD2E7
:1026880001010151040AD8B4B4D6020AD8B40BD750
:10269800160AD8B462D77ED24204D8A465D0700E88
:1026A800176E020E186E5FC119F08CEC48F017C057
:1026B800D4F218C0D5F20A0E01015F656BD2500E34
:1026C80002017219D8A466D27305D8A463D2470E42
:1026D800D41903E10F0ED519D8A45CD2060EE76F02
:1026E800030E756502D0030E756F000EF36F35D0BB
:1026F800EE0E176E020E186E700E196E020E1A6E1E
:10270800E7C21BF0000E1C6EC8EC36F0EEC225F0D6
:10271800EFC226F0F0C227F0F1C228F08DC129F0EF
:102728008EC12AF08FC12BF090C12CF078EC2FF0DD
:102738000201F351040D790EF324D96E010EF42031
:10274800DA6E25C0DEFF26C0DEFF27C0DEFF28C008
:10275800DEFFE751040FE76FF32B7551F35DD8A047
:10276800C7D7010EE86F16D2060E01019D6FFB0E4A
:102778009E6FA7EC4DF00ED201010051D8A442D0B3
:10278800010E45643FD02CD0E5C285F1E6C286F142
:10279800020E4818D8B404D0030E4818D8A406D09E
:1027A80085C1AFF086C1B0F0B2EC42F0ED0E010188
:1027B8009D6FF80E9E6F85C19FF186C1A0F1A7ECB1
:1027C8004DF020D0010E486E06C13AF03C0E386E2E
:1027D800830E01019D6FF80E9E6FA7EC4DF012D08D
:1027E80021EE02F0DECFE4F1DDCFE5F10101E551A4
:1027F800000AD8A407D0E451010AD8B4C5D7030AFF
:10280800D8B4E0D7455001010019D8B470D0CAD166
:10281800010E486ED50E9D6FFA0E9E6FA7EC4DF017
:10282800C1D1010106510711D8A408D03A861E0E5D
:102838009D6FFC0E9E6FA7EC4DF0B4D106C1AFF0B2
:1028480007C1B0F0B2EC42F0020E486EC30E0101AF
:102858009D6FF70E9E6F06C19FF107C1A0F1A7EC0F
:102868004DF0A0D1010106510711D8A408D03A862D
:10287800260E9D6FFC0E9E6FA7EC4DF093D106C1FE
:10288800AFF007C1B0F0B2EC42F08188000E02014F
:10289800EA6F030E486E000E396E000E336E000E9E
:1028A800346E000E356E000E366E01015851D8B4E4
:1028B80029EC1CF05E0E01019D6FF80E9E6F06C19B
:1028C8009FF107C1A0F1A7EC4DF03C0E01019D6FEF
:1028D800FB0E9E6FA7EC4DF065D1020E486EEC0E14
:1028E80001019D6FF70E9E6FA7EC4DF05BD121EEB5
:1028F80002F0DECFE4F1DDCFE5F10101E551000A98
:10290800D8A450D1E451810AD8B482D7030AD8B4E4
:1029180088D7010AD8B4A6D7070AD8B4DED742D1D7
:102928004504D8A43FD1010100050201F26F19D175
:102938000201F251010D2B0EF324D96E010EF42081
:10294800DA6E000EDF6E000EBCEC20F05F0E0101A7
:102958009D6FFA0E9E6FF2C29FF1A06BA7EC4DF02F
:10296800000E0001746F810E736F000E766F000EFB
:10297800756F0101005170EC4EF014D180EC3CF001
:102988000009D8A42FD00201F251010D2B0EF32417
:10299800D96E010EF420DA6E010EDF6EF251020DCF
:1029A8000F0EF324D96E010EF420DA6E06C1DEFF95
:1029B80007C1DDFF3BC01DF03CC01EF0000E206EBD
:1029C8000A0E1F6EC1EC4EF00201F251020D850E87
:1029D800F324D96E010EF420DA6E1DC0DEFF1EC08E
:1029E800DDFF0DD00201F251020D850EF324D96EE0
:1029F800010EF420DA6E000EDE6E000EDD6EE00EC3
:102A080001019D6FF90E9E6FF2C29FF1A06B06C186
:102A1800A1F107C1A2F1A7EC4DF0000E0001746FFF
:102A2800820E736F0201F251020D850EF324D96EE6
:102A3800010EF420DA6EDECF75F0DDCF76F00101FD
:102A4800005170EC4EF0AED080EC3CF00009D8A4F8
:102A580027D00201F251010D2B0EF324D96E010E7D
:102A6800F420DA6E020EDF6EF251020D0F0EF3241F
:102A7800D96E010EF420DA6E06C1DEFF07C1DDFF54
:102A8800F251020D850EF324D96E010EF420DA6E90
:102A9800000EDE6E000EDD6E010EBCEC20F00DD0D7
:102AA8000201F251020D850EF324D96E010EF420B5
:102AB800DA6E000EDE6E000EDD6EC40E01019D6F33
:102AC800F90E9E6FF2C29FF1A06B0201F251020D46
:102AD800850EF324D96E010EF420DA6EDECFA1F153
:102AE800DDCFA2F1A7EC4DF0000E0001746F830E4C
:102AF800736F0201F251020D850EF324D96E010E97
:102B0800F420DA6EDECF75F0DDCF76F001010051EA
:102B180070EC4EF047D00201F251010D2B0EF32458
:102B2800D96E010EF420DA6E000EDF6E000EBCECDA
:102B380020F0FC0E01019D6FF90E9E6FF2C29FF10D
:102B4800A06BA7EC4DF0000E0001746F840E736F3C
:102B5800000E766F000E756F0101005170EC4EF09B
:102B680021D021EE02F0DECFE4F1DDCFE5F1010165
:102B7800E551000AD8A416D0E451010AD8B4D8D631
:102B8800030AD8B4FBD6010AD8B45ED7070AD8B46A
:102B9800C2D708D00201E851020AD8B4EDD5010A1B
:102BA800D8B4BED63AA205D00A0E0201EB19D8B4A1
:102BB8003A923AC0E4F1210E0101E417D8B408D0E2
:102BC8003850D8A405D0010E456402D03A903A9AFC
:102BD800000E0201E86F05EF0DF012EC3AF001016A
:102BE800DE6F870E9D6FF90E9E6FA7EC4DF0010109
:102BF8005B51D8A445D0000EE36F29D03E0E176E66
:102C0800020E186EE351010D670EF324D96E010E02
:102C1800F420DA6EDF50C46FC451480D6C0EF324F3
:102C2800196EE90EF4201A6E58EC4CF01750181073
:102C3800D8A40BD00101E351010D670EF324D96E1E
:102C4800010EF420DA6EDF505B6F0101E32BFF0EFB
:102C5800C46FFF0EC56FDE51C66FC76BC451C62760
:102C6800C551C723E351C86FC96BC651C85DC95167
:102C7800800ACA6FC751800ACA59D8B0E1D2BED7F4
:102C880002013E51D8A4B4D2000E01015B6FD8D224
:102C98003E0E0001B26F020EB36F9AEC4EF0B2C056
:102CA800DFF1B3C0E0F1B4C0E1F1B5C0E2F1DFC1DA
:102CB80025F0E0C126F0E1C127F0E2C128F0000EBE
:102CC800296E000E2A6EC00E2B6E400E2C6E0AEC7A
:102CD80041F0D8A014D0000E256E000E266EA00E6E
:102CE800276E420E286EDFC129F0E0C12AF0E1C14B
:102CF8002BF0E2C12CF00AEC41F0D8B008D06C0EF1
:102D080001019D6FF70E9E6FA7EC4DF092D279C12D
:102D18008EF07AC18FF07BC190F07CC191F08DC1AB
:102D280092F08EC193F08FC194F090C195F01BEC96
:102D380034F08EC0CBF18FC0CCF190C0CDF191C0F2
:102D4800CEF1000E296E000E2A6E200E2B6E410E5B
:102D58002C6EDFC125F0E0C126F0E1C127F0E2C109
:102D680028F078EC2FF025C08EF026C08FF027C011
:102D780090F028C091F0CBC192F0CCC193F0CDC1B6
:102D880094F0CEC195F01BEC34F08EC08DF18FC05D
:102D98008EF190C08FF191C090F10BEC38F049D2D0
:102DA8003E0E176E020E186EA50E196EFB0E1A6EE9
:102DB80058EC4CF017501810D8A405D0020E476EE6
:102DC8000BEC38F036D23E0E176E020E186EE60E79
:102DD800196EFC0E1A6E58EC4CF017501810D8A447
:102DE80005D0010E476E0BEC38F023D23E0E176E5D
:102DF800020E186E9A0E196EFC0E1A6E58EC4CF0F4
:102E080017501810D8A415D2000E476E0BEC38F0E6
:102E1800000E3A6E0ED23E0E176E020E186EFD0EA2
:102E2800196EFB0E1A6E58EC4CF017501810D8A4F7
:102E380005D0010E466E0BEC38F0FBD13E0E176E36
:102E4800020E186EE00E196EFC0E1A6E58EC4CF05D
:102E580017501810D8A405D0020E466E0BEC38F0A7
:102E6800E8D13E0E176E020E186E2E0E196EFC0E6D
:102E78001A6E58EC4CF017501810D8A4DAD1000E7E
:102E8800466E0BEC38F0D5D13E0E176E020E186E5A
:102E9800DA0E196EFC0E1A6E58EC4CF0175018101A
:102EA800D8A406D0010E01019C6F0BEC38F0C1D1FB
:102EB8003E0E176E020E186EAF0E196EFC0E1A6ECD
:102EC80058EC4CF017501810D8A4B3D1000E0101DB
:102ED8009C6F0BEC38F0ADD13E0E176E020E186EDB
:102EE8002E0E196EFC0E1A6E58EC4CF01750181076
:102EF800D8A405D0000E456E0BEC38F09AD13E0EE2
:102F0800176E020E186EA80E196EFC0E1A6E58EC8B
:102F18004CF017501810D8A405D0010E456E0BECD4
:102F280038F087D13E0E176E020E186E700E196EAD
:102F3800FC0E1A6E58EC4CF017501810D8A405D097
:102F4800020E456E0BEC38F074D13E0E176E020E71
:102F5800186E770E196EFC0E1A6E58EC4CF017505E
:102F68001810D8A405D0030E456E0BEC38F061D1CB
:102F78003E0E176E020E186E7E0E196EFC0E1A6E3D
:102F880058EC4CF017501810D8A453D1040E456EC5
:102F98000BEC38F04ED13E0E176E020E186E2E0E48
:102FA800196EFC0E1A6E58EC4CF017501810D8A475
:102FB80005D0000E446E0BEC38F03BD13E0E176E78
:102FC800020E186E930E196EFC0E1A6E58EC4CF029
:102FD80017501810D8A42DD1010E446E0BEC38F000
:102FE80028D13E0E176E020E186E2E0E196EFC0EAC
:102FF8001A6E58EC4CF017501810D8A405D0000ED3
:10300800436E0BEC38F015D13E0E176E020E186E9B
:103018008C0E196EFC0E1A6E58EC4CF017501810E6
:10302800D8A407D1010E436E0BEC38F002D13E0E46
:10303800176E020E186E2E0E196EFC0E1A6E58ECD4
:103048004CF017501810D8A405D0000E426E0BECA7
:1030580038F0EFD03E0E176E020E186E810E196E04
:10306800FB0E1A6E58EC4CF017501810D8A405D067
:10307800010E426E0BEC38F0DCD03E0E176E020EDD
:10308800186E8C0E196EFB0E1A6E58EC4CF0175019
:103098001810D8A405D0030E426E0BEC38F0C9D036
:1030A8003E0E176E020E186E360E196EFC0E1A6E54
:1030B80058EC4CF017501810D8A405D00A0E426EE0
:1030C8000BEC38F0B6D03E0E176E020E186EA10E3D
:1030D800196EFC0E1A6E58EC4CF017501810D8A444
:1030E800A8D0140E426E0BEC38F0A3D03E0E176E2B
:1030F800020E186EF10E196EFC0E1A6E58EC4CF09A
:1031080017501810D8A406D0000E01019A6F0BECC6
:1031180038F08FD03E0E176E020E186EEC0E196E38
:10312800FC0E1A6E58EC4CF017501810D8A481D029
:10313800010E01019A6F0BEC38F07BD03E0E176E32
:10314800020E186E2E0E196EFC0E1A6E58EC4CF00C
:1031580017501810D8A405D0000E416E0BEC38F0AB
:1031680068D03E0E176E020E186E360E196EFC0EE3
:103178001A6E58EC4CF017501810D8A405D00A0E47
:10318800416E0BEC38F055D03E0E176E020E186EDD
:10319800A10E196EFC0E1A6E58EC4CF01750181050
:1031A800D8A447D0140E416E0BEC38F042D03E0E36
:1031B800236E020E246E8CEC45F023C0CFF124C0A0
:1031C800D0F1CFC1FAF0D0C1FBF0010E0001FC6FC5
:1031D80001015B51E7EC3DF00101D96FD951D8A449
:1031E80028D04D0E9D6FF90E9E6FA7EC4DF021D0A3
:1031F80001015B51020AD8B447D6010AD8B4D0D528
:10320800050AD8B469D60F0AD8B405D6030AD8B4C3
:10321800C2D6010AD8B4E5D6050AD8B439D5010A08
:10322800D8B405D71E0AD8B461D7030AD8B486D74C
:10323800BED7000E01015B6F12EC3AF00101DE6FA0
:103248000E0E5B65C1D2B20E9D6FFA0E9E6F5B517A
:10325800480D100EF326000EF4226C0EF3249F6F17
:10326800E90EF420A06F5B5176EC35F0E3C0A1F1D4
:10327800E4C0A2F1A7EC4DF0A7D2880E01019D6F22
:10328800F20E9E6FA7EC4DF0C20E01019D6FFB0E72
:103298009E6FA7EC4DF0460E01019D6FF60E9E6FD6
:1032A800A7EC4DF02E0E01019D6FF90E9E6F59C1CE
:1032B8009FF1A06BA7EC4DF0D50E01019D6FF20EAA
:1032C8009E6FA7EC4DF0000E0101E36F21D1E60ED1
:1032D8009D6FFA0E9E6FE351010D670EF324D96EB0
:1032E800010EF420DA6EDF50C46FC451480D6C0E25
:1032F800F3249F6FE90EF420A06FE351010D670ED0
:10330800F324D96E010EF420DA6EDF50C56FC55173
:10331800480D100EF326000EF4226C0EF324A16F54
:10332800E90EF420A26FA7EC4DF00101E351010D65
:10333800670EF324D96E010EF420DA6E0E0EDE1835
:10334800D8A4CBD079C1A7F07AC1A8F07BC1A9F0E5
:103358007CC1AAF0B1EC44F0A7C0DAF1A8C0DBF157
:10336800000E296E000E2A6E200E2B6E410E2C6E5A
:1033780079C125F07AC126F07BC127F07CC128F0FD
:1033880078EC2FF025C0A7F026C0A8F027C0A9F038
:1033980028C0AAF0B1EC44F0A7C0AFF0A8C0B0F0C4
:1033A800000E0001B26F0A0EB16F2CEC4DF0AFC0E9
:1033B800DCF1B0C0DDF17DC1A7F07EC1A8F07FC10E
:1033C800A9F080C1AAF0B1EC44F0A7C0D1F1A8C01F
:1033D800D2F1000E296E000E2A6E200E2B6E410EC1
:1033E8002C6E7DC125F07EC126F07FC127F080C1FB
:1033F80028F078EC2FF025C0A7F026C0A8F027C049
:10340800A9F028C0AAF0B1EC44F0A7C0AFF0A8C05A
:10341800B0F0000E0001B26F0A0EB16F2CEC4DF047
:10342800AFC0D3F1B0C0D4F181C1A7F082C1A8F078
:1034380083C1A9F084C1AAF0B1EC44F0A7C0D5F1CA
:10344800A8C0D6F1000E296E000E2A6E200E2B6E33
:10345800410E2C6E81C125F082C126F083C127F070
:1034680084C128F078EC2FF025C0A7F026C0A8F07A
:1034780027C0A9F028C0AAF0B1EC44F0A7C0AFF06B
:10348800A8C0B0F0000E0001B26F0A0EB16F2CECAC
:103498004DF0AFC0D7F1B0C0D8F1980E01019D6FC3
:1034A800F70E9E6FDAC19FF1DBC1A0F1DCC1A1F17B
:1034B800DDC1A2F1D1C1A3F1D2C1A4F1D3C1A5F15B
:1034C800D4C1A6F1D5C1A7F1D6C1A8F1D7C1A9F138
:1034D800D8C1AAF1A7EC4DF012D00101E351010DBA
:1034E800670EF324D96E010EF420DA6EDF5076EC05
:1034F80035F0E3C09DF1E4C09EF1A7EC4DF0870ED6
:1035080001019D6FF90E9E6FA7EC4DF00101E32BB1
:10351800FF0EC46FFF0EC56FDE51C66FC76BC45177
:10352800C627C551C723E351C86FC96BC651C85DCB
:10353800C951800ACA6FC751800ACA59D8A0C7D6CC
:10354800F80E9D6FFC0E9E6FA7EC4DF078D12C0EF7
:1035580001019D6FF50E9E6F5B5176EC35F0E3C06F
:103568009FF1E4C0A0F1A7EC4DF069D1EF0E010185
:103578009D6FF40E9E6F5B5176EC35F0E3C09FF1C2
:10358800E4C0A0F1A7EC4DF05AD1980E01019D6F4F
:10359800F10E9E6F95C19FF196C1A0F1A7EC4DF079
:1035A8004ED1650E01019D6FF30E9E6F93C19FF181
:1035B80094C1A0F1A7EC4DF042D1E20E01019D6F3C
:1035C800F00E9E6F5B5176EC35F0E3C09FF1E4C0DE
:1035D800A0F1A7EC4DF033D1700E01019D6FF40EF0
:1035E8009E6FA7EC4DF0110E01019D6FF70E9E6FB7
:1035F800A7EC4DF0AA0E01019D6FF30E9E6F3FC020
:103608009FF140C0A0F1A7EC4DF019D11E0E0101A9
:103618009D6FF30E9E6F3BC09FF13CC0A0F1A7ECDD
:103628004DF00DD1700E01019D6FF40E9E6FA7EC49
:103638004DF0110E01019D6FF70E9E6FA7EC4DF036
:103648002F0E01019D6FF40E9E6F3DC09FF13EC08D
:10365800A0F1A7EC4DF0F3D0700E01019D6FF40EB0
:103668009E6FA7EC4DF0A50E01019D6FF50E9E6FA4
:10367800A7EC4DF0ED0E01019D6FF30E9E6F97C103
:103688009FF198C1A0F1A7EC4DF0D9D03B0E0101F4
:103698009D6FF20E9E6F5B5176EC35F0E3C09FF1A3
:1036A800E4C0A0F1A7EC4DF0CAD0ED0E01019D6F6A
:1036B800F10E9E6F5B5176EC35F0E3C09FF1E4C0EC
:1036C800A0F1A7EC4DF0BBD0800E01019D6FF00E6C
:1036D8009E6F5B5176EC35F0E3C09FF1E4C0A0F13A
:1036E800A7EC4DF0ACD079C1A7F07AC1A8F07BC1A6
:1036F800A9F07CC1AAF0B1EC44F0A7C0DAF1A8C0E7
:10370800DBF1000E296E000E2A6E200E2B6E410E84
:103718002C6E79C125F07AC126F07BC127F07CC1D7
:1037280028F078EC2FF025C0A7F026C0A8F027C015
:10373800A9F028C0AAF0B1EC44F0A7C0AFF0A8C027
:10374800B0F0000E0001B26F0A0EB16F2CEC4DF014
:10375800AFC0DCF1B0C0DDF1690E01019D6FF50E5F
:103768009E6FDAC19FF1DBC1A0F1DCC1A1F1DDC11F
:10377800A2F1A7EC4DF063D0400E01019D6FF10E50
:103788009E6FA7EC4DF05BD07A0E01019D6FF60E8F
:103798009E6FA7EC4DF053D0DD0E01019D6FF50E25
:1037A8009E6FA7EC4DF04BD0B00E01019D6FF40E4B
:1037B8009E6FA7EC4DF043D0E00E01019D6FF60E11
:1037C8009E6FA7EC4DF03BD001015B51000AD8B4C5
:1037D80054D5020AD8B4BBD6010AD8B4C7D6070A4A
:1037E800D8B4D3D6010AD8B4DCD6030AD8B4E5D6FF
:1037F800010AD8B40BD70F0AD8B42ED7010AD8B407
:1038080045D7030AD8B451D7010AD8B45DD7070AF7
:10381800D8B408D7010AD8B4DFD6030AD8B463D716
:10382800010AD8B4A9D71F0AD8B4AED7010AD8B4A8
:10383800B3D7030AD8B4B8D7010AD8B4BDD7000E95
:1038480001015E6F000E606F120001015851D8B47B
:1038580009D0392A790E3918D8A41200000E586FE9
:1038680006EC3BF00A0E3918D8A402D0000E396EC7
:103878003A50D8B4C3D080863C0E01015A6F3AA2A0
:1038880021D0E20E0001C26FFB0EC36F000E8FEC59
:1038980049F06B0E0001C26FFB0EC36F020E8FEC76
:1038A80049F0B60E0001C26FFC0EC36F040E8FEC18
:1038B80049F0540E0001C26FFC0EC36F060E8FEC68
:1038C80049F012003AA411D0BC0E0001C26FFC0EE0
:1038D800C36F020E8FEC49F0970E0001C26FFB0E0A
:1038E800C36F040E8FEC49F089D03AA848D0392A22
:1038F80039040001C56F050EC56120D0D90EC26F0D
:10390800FB0EC36F000E8FEC49F0CE0E0001C26FA4
:10391800FC0EC36F020E8FEC49F00E0E0001C26F51
:10392800FC0EC36F040E8FEC49F0C70E0001C26F86
:10393800FB0EC36F060E8FEC49F01200C20E000199
:10394800C26FFC0EC36F000E8FEC49F05B0E0001D6
:10395800C26FFC0EC36F020E8FEC49F0F10E00012E
:10396800C26FFB0EC36F040E8FEC49F0C80E000146
:10397800C26FFC0EC36F060E8FEC49F012003AAC12
:103988003DD0160E0001C26FFC0EC36F020E8FEC05
:1039980049F0550E0001C26FFB0EC36F040E8FEC89
:1039A80049F0000E0101366F640E356F37C01DF007
:1039B8001E6A000E206E0A0E1F6ECEEC48F0300E06
:1039C8001D240001BB6F000E1E20BC6F36EC3DF0BD
:1039D80037C017F0186A000E1A6E0A0E196E3DEC01
:1039E8004AF0300E17240001BB6F000E1820BC6F80
:1039F80036EC3DF0040E19EC4BF01200500E37185F
:103A0800D8A411D0160E0001C26FFC0EC36F020EAF
:103A18008FEC49F0690E0001C26FFC0EC36F040EF3
:103A28008FEC49F01200392A4750D8A4A5D0030ECC
:103A38004818D8A464D0D00E0001C26FFB0EC36F23
:103A4800020E8FEC49F0000E0101366F220E356F21
:103A580008EC4FF085C11DF086C11EF0000E206EE7
:103A6800640E1F6ECEEC48F0300E1D240001BB6FB3
:103A7800000E1E20BC6F36EC3DF0000E206E0A0EC4
:103A88001F6E85C11DF086C11EF0CEEC48F01DC02A
:103A980017F01EC018F0000E1A6E0A0E196E3DECD3
:103AA8004AF0300E17240001BB6F000E1820BC6FBF
:103AB80036EC3DF0000E0001BC6F2E0EBB6F36ECED
:103AC8003DF085C117F086C118F0000E1A6E0A0E77
:103AD800196E3DEC4AF0300E17240001BB6F000E42
:103AE8001820BC6F36EC3DF0000E0001BC6F410E93
:103AF800BB6F36EC3DF0040E19EC4BF031D3000EE1
:103B08001C6E000EF7EC4EF0040E1C6E010EF7EC66
:103B18004EF001014F51D8A403D04450D8A411D07D
:103B2800EB0E0001C26FFB0EC36F020E8FEC49F063
:103B3800B50E0001C26FFB0EC36F040E8FEC49F087
:103B480010D0620E0001C26FFC0EC36F020E8FEC24
:103B580049F04D0E0001C26FFC0EC36F040E8FECCE
:103B680049F0100E1C6E060EF7EC4EF0000E1C6E9F
:103B7800070EF7EC4EF0F4D24704D8B404D0020E86
:103B88004718D8A4EDD28AEC4DF0010144AF07D014
:103B9800030EF45F140EF46109D02C0E06D0030E48
:103BA800F4272C0EF46502D0140EF46FF4C135F12D
:103BB800366B000E926F030E916F43C1AFF044C194
:103BC800B0F085EC4EF00001B0BF0CD0B05104E16C
:103BD800040EAF5DD8A006D0000EB46FFE0EB36F12
:103BE800ACEC46F0030E4818D8A459D080863C0E99
:103BF80001015A6F030EF327590EF36502D04A0EDE
:103C0800F36FF3C135F1366B000E926F030E916FAF
:103C1800000E0001B46FFE0EB36FACEC46F0000E60
:103C28000101926F020E916F000E366F4D0E356FC7
:103C380085C11DF086C11EF0000E206E640E1F6E39
:103C4800CEEC48F0300E1D240001B36F000E1E208C
:103C5800B46FACEC46F0000E206E0A0E1F6E85C1E4
:103C68001DF086C11EF0CEEC48F01DC017F01EC036
:103C780018F0000E1A6E0A0E196E3DEC4AF0300E5E
:103C880017240001B36F000E1820B46FACEC46F097
:103C9800000E0001B46F410EB36FACEC46F0050E98
:103CA8003960B6D0020E4718D8A4B2D0000E010170
:103CB800366F1D0E356F000E926F010E916F000E5C
:103CC8000001B46FE30EB36FACEC46F0000E0101D7
:103CD800926F020E916F43C1AFF044C1B0F085EC12
:103CE8004EF00001B0BF33D0E90EAF5D030EB059FE
:103CF800D8A02DD0000E0101366F110E356F44AFDC
:103D080007D0000E0001B46F2D0EB36FACEC46F077
:103D1800000E0101366F170E356F43C11DF044C107
:103D28001EF0030E206EE80E1F6ECEEC48F01DC08C
:103D3800AFF01EC0B0F085EC4EF0300E0001AF259C
:103D4800B36F000EB021B46FACEC46F00ED0000E8D
:103D58000101366F170E356F44AF07D0000E000112
:103D6800B46F2D0EB36FACEC46F0000E0101366F48
:103D78001D0E356F000E206E640E1F6E43C11DF0C0
:103D880044C11EF0CEEC48F01DC017F01EC018F05C
:103D9800000E1A6E0A0E196E3DEC4AF017C0AFF00D
:103DA80018C0B0F085EC4EF0300E0001AF25B36FAF
:103DB800000EB021B46FACEC46F0000E206E0A0E77
:103DC8001F6E43C11DF044C11EF0CEEC48F01DC06B
:103DD80017F01EC018F0000E1A6E0A0E196E3DEC90
:103DE8004AF017C0AFF018C0B0F085EC4EF0300EB6
:103DF8000001AF25B36F000EB021B46FACEC46F0F4
:103E0800000E0001B46F410EB36FACEC46F0A3D0C6
:103E1800000E0001C96F020EC96501D09CD0C9C04F
:103E280091F10101926B000E366F170E356F00018C
:103E3800C951040D790EF324D96E010EF420DA6EFF
:103E4800030EDBAE07D0000EB46F2D0EB36FACECD3
:103E580046F005D0000E0101366F1D0E356F000EBD
:103E68000001926F000E936FC80E946F420E956F0B
:103E7800C951040D790EF324D96E010EF420DA6EBF
:103E8800DECF8EF0DECF8FF0DECF90F0DECF91F078
:103E98001BEC34F08EC0A7F08FC0A8F090C0A9F03A
:103EA80091C0AAF0B1EC44F0A7C0AFF0A8C0B0F040
:103EB80085EC4EF0300E0001AF25B36F000EB02137
:103EC800B46FACEC46F0000E0001926F000E936FD9
:103ED800200E946F410E956FC951040D790EF3248D
:103EE800D96E010EF420DA6EDECF8EF0DECF8FF0C1
:103EF800DECF90F0DECF91F01BEC34F08EC0A7F04F
:103F08008FC0A8F090C0A9F091C0AAF0B1EC44F01D
:103F1800A7C017F0A8C018F0000E1A6E0A0E196E86
:103F28003DEC4AF017C0AFF018C0B0F085EC4EF089
:103F3800300E0001AF25B36F000EB021B46FACECAA
:103F480046F0000E0001B46F410EB36FACEC46F0C2
:103F58000001C92B60D7000EC1EC43F0000E1C6EA7
:103F6800040EF7EC4EF03AA015D0050E396009D0D2
:103F7800060E0001C26FFC0EC36F050E8FEC49F0F0
:103F8800EAD0AB0E0001C26FFB0EC36F050E8FECBB
:103F980049F0E1D03AAA15D0050E396009D0060ECD
:103FA8000001C26FFC0EC36F050E8FEC49F0D3D031
:103FB800A10E0001C26FFB0EC36F050E8FEC49F016
:103FC800CAD04804D8B404D0020E4818D8A438D0AF
:103FD800D40E0001C26FFC0EC36F050E8FEC49F0C2
:103FE8003850D8B4B8D0000E0101366F640E356F62
:103FF80038C01DF01E6A000E206E0A0E1F6ECEEC31
:1040080048F0300E1D240001BB6F000E1E20BC6F4F
:1040180036EC3DF038C017F0186A000E1A6E0A0E1A
:10402800196E3DEC4AF0300E17240001BB6F000EEC
:104038001820BC6F36EC3DF0050E19EC4BF08BD018
:10404800030E4818D8A487D080863C0E01015A6F09
:10405800070E396025D0040E396019D04750D8B4FE
:1040680016D0020E4718D8A409D0A50E0001C26FB9
:10407800FB0EC36F050E8FEC49F06AD0E60E000107
:10408800C26FFC0EC36F050E8FEC49F061D0D00EE5
:104098000001C26FFB0EC36F050E8FEC49F058D0BC
:1040A800000E0101366F220E356F08EC4FF085C106
:1040B8001DF086C11EF0000E206E640E1F6ECEEC41
:1040C80048F0300E1D240001BB6F000E1E20BC6F8F
:1040D80036EC3DF0000E206E0A0E1F6E85C11DF0F5
:1040E80086C11EF0CEEC48F01DC017F01EC018F0B7
:1040F800000E1A6E0A0E196E3DEC4AF0300E1724A7
:104108000001BB6F000E1820BC6F36EC3DF0000EAE
:104118000001BC6F2E0EBB6F36EC3DF085C117F069
:1041280086C118F0000E1A6E0A0E196E3DEC4AF0A0
:10413800300E17240001BB6F000E1820BC6F36EC40
:104148003DF0000E0001BC6F410EBB6F36EC3DF038
:10415800050E19EC4BF0000E1C6E070EF7EC4EF036
:1041680001015A51D8B402D05A07120080961200A1
:104178000101C76F000E0101CD6F000ECC6F000E5C
:10418800C26F000EC16F000EC06F000EBF6F1FC15F
:10419800BBF120C1BCF121C1BDF122C1BEF1455026
:1041A800D8A412D0010ECE6F030ECE6501D00CD06C
:1041B800CE51010D2B0EF324D96E010EF420DA6EC8
:1041C800000EDF6ECE2BF0D7020E2B19D8A411D01B
:1041D8003D504B5D3E504C59D8B00BD04BC11DF0F3
:1041E8004CC11EF0000E206E0A0E1F6EC1EC4EF080
:1041F8000AD03DC01DF03EC01EF0000E206E0A0E13
:104208001F6EC1EC4EF01DC049F11EC04AF1020EEE
:10421800456004D049C10FF14AC110F1000E0101F7
:10422800CE6F030ECE6501D028D0CE51010D2B0ED6
:10423800F324D96E010EF420DA6E020EDE18D8A42B
:104248001AD0CC4BCD2BCE51020D0F0EF324D96EC4
:10425800010EF420DA6EDE50C127DD50C223CE51A4
:10426800020D850EF324D96E010EF420DA6EDE50AD
:10427800BF27DD50C023CE2BD4D7C751D8A44DD0EB
:10428800020E4718D8B449D047C1FAF048C1FBF02C
:104298000001FA1FFB1FFA4BFB2B3FC01DF040C06B
:1042A8001EF0000E206E0A0E1F6EC1EC4EF00001CB
:1042B800FA511D240101C86F0001FB511E200101A4
:1042C800C96FC9BF14D0C95103E1C805D8A00FD020
:1042D800C8C11DF0C9C11EF0000E206E040E1F6E6D
:1042E800CEEC48F01D50010141271E5003D0C851A3
:1042F8004127C951422342AF04D0000E426F000E3D
:10430800416F42BF0AD0210E415D030E4259D8A029
:1043180004D0030E426F200E416FC751D8A46CD051
:10432800020E4718D8A468D044AF19D044AF0CD0B7
:10433800F60E435DFF0E4459D8B006D0050E412550
:10434800416F000E42211FD043C11DF044C11EF031
:10435800000E206E040E1F6ECEEC48F00AD043C14A
:104368001DF044C11EF0000E206E020E1F6ECEEC32
:1043780048F01D1E1E1E1D4A1E2A010141511D2402
:10438800416F42511E20426F3BC01DF03CC01EF0E1
:10439800000E206E0A0E1F6EC1EC4EF01D5001017A
:1043A800415D1E504259D8A002D042AF23D03BC035
:1043B8001DF03CC01EF0000E206E0A0E1F6EC1ECF0
:1043C8004EF01DC041F11EC042F1030E4818D8A49A
:1043D8000ED0010193519411D8A444BF08D0445180
:1043E80004E10B0E435DD8A002D0010E04D0000EEC
:1043F800010101D0000E4E6F3DC01DF03EC01EF001
:10440800000E206E0A0E1F6EC1EC4EF001014151E4
:104418001D5C42511E58D8B00ED03DC01DF03EC0A4
:104428001EF0000E206E0A0E1F6EC1EC4EF01DC06D
:1044380041F11EC042F1BFC11DF0C0C11EF0000E07
:10444800206E0A0E1F6EC1EC4EF01D1E1E1E1D4A68
:104458001E2A010147511D24CA6F48511E20CB6FE7
:10446800CBAF04D0000ECB6F000ECA6F4750D8A454
:1044780016D04550D8B40FD03FC01DF040C01EF034
:10448800000E206E0A0E1F6EC1EC4EF01DC041F1E9
:104498001EC042F104D049C141F14AC142F10101B3
:1044A800CC51CD11D8B41200C751D8B41DD0CAC14F
:1044B800FAF0CBC1FBF00001FA1FFB1FFA4BFB2BF4
:1044C8003FC01DF040C01EF0000E206E0A0E1F6E89
:1044D800C1EC4EF00001FA511D240101416F0001A9
:1044E800FB511E200101426F42BF1FD03BC01DF08F
:1044F8003CC01EF0CCC11FF0CDC120F0C1EC4EF085
:104508001DC0C3F11EC0C4F1C3C11DF0C4C11EF05B
:10451800000E206E0A0E1F6EC1EC4EF01D500101F8
:10452800415D1E504259D8B024D0552BF70E9D6FCF
:10453800FA0E9E6FA7EC4DF03BC01DF03CC01EF07C
:10454800CCC11FF0CDC120F0C1EC4EF01DC0C3F1AD
:104558001EC0C4F1C3C11DF0C4C11EF0000E206E00
:104568000A0E1F6EC1EC4EF01DC041F11EC042F193
:1045780003D0000E0101556F01014151C15DC251C7
:10458800800A0001FA6F01014251800A0001FA59BC
:10459800D8B004D0C1C141F1C2C142F141C1C5F195
:1045A80042C1C6F13F0E01019D6FF70E9E6F47C1D4
:1045B8009FF148C1A0F141C1A1F142C1A2F1CAC114
:1045C800A3F1CBC1A4F1A7EC4DF0000E0101CE6F11
:1045D800C5C11DF0C6C11EF0CCC11FF0CDC120F071
:1045E800CEEC48F01DC0B5F11EC0B6F10101CE51A8
:1045F800010D2B0EF324D96E010EF420DA6E020E93
:10460800DE18D8A44FD0CE51010DBB0EF324D96EBD
:10461800010EF420DA6EDF50D8A444D0CE51020D3A
:104628000F0EF324D96E010EF420DA6EDE50B55D5C
:10463800B651800A0001FC6FDE50800AFC59D8A0F0
:1046480031D00101CE51020D0F0EF324D96E010EA7
:10465800F420DA6ECE51020D850EF324E16E010EC0
:10466800F420E26EDECFE6FFDDCFE5FFCE51010D8F
:10467800BB0EF324D96E010EF420DA6E010EDF6E44
:10468800CC07D8A0CD07CE51020D850EF324D96EE4
:10469800010EF420DA6EDE50C55FDD50C65B000EF9
:1046A800CE6F02D00101CE2B040ECE6104D0CC51C6
:1046B800CD11D8A48DD7000ECE6FCC51CD11D8B462
:1046C8004FD0CE51010D2B0EF324D96E010EF420DC
:1046D800DA6E020EDE18D8A43BD0CE51010DBB0E07
:1046E800F324D96E010EF420DA6EDF50D8A430D04E
:1046F800C5C11DF0C6C11EF0CCC11FF0CDC120F050
:10470800CEEC48F00101CE51020D850EF324D96E8E
:10471800010EF420DA6E1DC0DEFF1EC0DDFFCE5193
:10472800010DBB0EF324D96E010EF420DA6E010ED2
:10473800DF6ECC07D8A0CD07CE51020D850EF3242D
:10474800D96E010EF420DA6EDE50C55FDD50C65B0F
:10475800CE2B040ECE6104D0CC51CD11D8A4B1D744
:10476800000ECE6F030ECE6501D051D0CE51020D92
:10477800850EF324D96E010EF420DA6EDECF1DF01B
:10478800DDCF1EF0000E206E0A0E1F6ECEEC48F034
:104798001DC0B7F11EC0B8F10101CE51020D850E42
:1047A800F324D96E010EF420DA6EDECF17F0DDCFD8
:1047B80018F0000E1A6E0A0E196E3DEC4AF017C07A
:1047C800B9F118C0BAF18A0E01019D6FFA0E9E6FF9
:1047D800CEC19FF1A06BCE51010D2B0EF324D96EE3
:1047E800010EF420DA6EDF500001FA6FFA51010170
:1047F800A16FA26BB7C1A3F1B8C1A4F1B9C1A5F16A
:10480800BAC1A6F1A7EC4DF00101CE2BABD7030E30
:104818009D6FFB0E9E6FA7EC4DF012000101D16F4A
:1048280022EEF4F011EEC8F0040EDBCFE3FFE80649
:10483800FCE2F0C1CDF1F1C1CEF1F2C1CFF112EC41
:104848003AF00101D06F3C0E5A6F80864304D8B409
:104858003AA802D081A23A985851D8A412D0050E8D
:10486800D119D8A40ED04D51D8A40BD0010E586F31
:1048780033C01BF134C01CF135C01DF136C01EF128
:1048880084D15805D8A419D0D00E1B25C46F070EA3
:104898001C21C56F000E1D21C66F000E1E21C76F9B
:1048A8003350C45D3450C5593550C6593650C75970
:1048B800D8B003D0020E586F24D05805D8A40BD016
:1048C800070ED119D8A407D0000E586F000E4D6FEF
:1048D80029EC1CF05AD10E0E01015819D8A413D096
:1048E800020ED119D8A40FD05751D8B40CD0000E4D
:1048F8008D6F000E8E6F800E8F6F3F0E906F000EC3
:10490800576F010E92D0010E586591D0020ED11941
:10491800D8B408D0030ED119D8B404D0060ED119D2
:10492800D8A485D04D51D8A482D05751D8A466D0E8
:104938006ED042C01EF0C80E1F6E010E206E050E0E
:10494800216ED15105EC4AF0426E10D141C01EF0E3
:10495800CD0E1F6E010E206E030E216E0101D15186
:1049680005EC4AF0416E02D1010158513BEC43F08D
:1049780017C02FF118C030F12FC117F030C118F04F
:1049880001015851480D440EF326000EF4226C0E16
:10499800F324F66EE90EF420F76EF86A000EF8229A
:1049A8000900F5CF19F00A00F5CF1AF05851480D53
:1049B800460EF326000EF4226C0EF324F66EE90E72
:1049C800F420F76EF86A000EF8220900F5CF1BF004
:1049D8000A00F5CF1CF0D15105EC4CF017C02FF1AF
:1049E80018C030F12FC1FAF030C1FBF0000E000101
:1049F800FC6F01015851E7EC3DF0B8D00101585166
:104A08000F0AD8B496D71D0AD8B4A0D7ADD758C1C5
:104A18001EF0670E1F6E010E206ED0C121F0D1511D
:104A280005EC4AF00101586FA1D04D6FAED0010ED0
:104A380058659FD0050ED119D8A49BD04D51D8A444
:104A480098D05751D8B465D0000E576F0E0E58192C
:104A5800D8A48CD03151331904E132513419D8B467
:104A680085D031C117F032C118F0196A1A6A000EE0
:104A780097EC3EF017C08EF018C08FF019C090F078
:104A88001AC091F08DC192F08EC193F08FC194F04D
:104A980090C195F01BEC34F08EC017F18FC018F15F
:104AA80090C019F191C01AF133C117F034C118F050
:104AB800196A1A6A000E97EC3EF017C08EF018C0FB
:104AC8008FF019C090F01AC091F017C192F018C178
:104AD80093F019C194F01AC195F01BEC34F08EC014
:104AE8008DF18FC08EF190C08FF191C090F133C1DC
:104AF80017F034C118F0196A1A6A000E97EC3EF0E4
:104B080017C079F118C07AF119C07BF11AC07CF18D
:104B18002DD0010E0101576F0E0E5819D8A413D0CD
:104B280079C1A7F07AC1A8F07BC1A9F07CC1AAF02D
:104B3800B1EC44F0A7C033F1A8C034F133C131F16E
:104B480034C132F113D0140E01015819D8A40ED073
:104B5800000E586F000E576F000E3A6E000E376E3B
:104B6800000E386E0BEC38F029EC1CF0010E010138
:104B78005CD7070ED119D8A408D0000E4D6F000ECF
:104B8800186E0A0E176E4EEC4DF001014D05D8B4A3
:104B980003D05805D8A42CD15805D8A425D0000E88
:104BA8001C6E000EF7EC4EF0040E1C6E010EF7ECB6
:104BB8004EF0760E0001C26FFB0EC36F020E8FEC33
:104BC80049F0F40E0001C26FFB0EC36F040E8FECA8
:104BD80049F0100E1C6E060EF7EC4EF0000E1C6E1F
:104BE800070EF7EC4EF001D101015851480D070EA0
:104BF800F326000EF4226C0EF3240001F46FE90E84
:104C0800F420F56F020EF66FF3EC45F00E0E01017D
:104C18005819D8A4DDD008EC4FF001015751D8B489
:104C280056D02BEC4EF0000E0101366F280E356F72
:104C380033C1B4F034C1B5F0000E0001B76F640E93
:104C4800B66FDBEC4BF0300E0001B425BB6F000EE5
:104C5800B521BC6F36EC3DF0000E0001B26F640E5A
:104C6800B16F33C1AFF034C1B0F02CEC4DF0AFC030
:104C7800B4F0B0C0B5F0000E0001B76F0A0EB66F01
:104C8800DBEC4BF0300E0001B425BB6F000EB521F4
:104C9800BC6F36EC3DF0000E0001BC6F2E0EBB6FF2
:104CA80036EC3DF033C1AFF034C1B0F0000E000176
:104CB800B26F0A0EB16F2CEC4DF0300E0001AF252B
:104CC800BB6F000EB021BC6F36EC3DF071D0000E0A
:104CD8000101366F280E356F79C1A7F07AC1A8F0A7
:104CE8007BC1A9F07CC1AAF0B1EC44F0A7C0B4F034
:104CF800A8C0B5F0000E0001B76F640EB66FDBEC0C
:104D08004BF0300E0001B425BB6F000EB521BC6F0F
:104D180036EC3DF0000E0001B26F640EB16F79C140
:104D2800A7F07AC1A8F07BC1A9F07CC1AAF0B1ECC8
:104D380044F0A7C0AFF0A8C0B0F02CEC4DF0AFC065
:104D4800B4F0B0C0B5F0000E0001B76F0A0EB66F30
:104D5800DBEC4BF0300E0001B425BB6F000EB52123
:104D6800BC6F36EC3DF0000E0001BC6F2E0EBB6F21
:104D780036EC3DF079C1A7F07AC1A8F07BC1A9F063
:104D88007CC1AAF0B1EC44F0A7C0AFF0A8C0B0F065
:104D9800000E0001B26F0A0EB16F2CEC4DF0300E10
:104DA8000001AF25BB6F000EB021BC6F36EC3DF0A3
:104DB800000E0101366F580E356F000E0001BC6FF2
:104DC800410EBB6F36EC3DF0040E19EC4BF00DD0E4
:104DD8000101585176EC35F0E3C0F4F0E4C0F5F089
:104DE800040E0001F66FF3EC45F0020E01014D6F61
:104DF80033C023F134C024F135C025F136C026F183
:104E0800000E566FD1C1F5F1000E396E1200000187
:104E1800756F000175AF24D1756D7551800A120F39
:104E2800D8A0A3D0000E206E0A0E1F6E000E1A6EB8
:104E3800640E196E7551176E186A17BE18063DEC88
:104E48004AF017C01DF018C01EF0CEEC48F0D890FC
:104E58001D361E36D8901D361E36240E1D26000E11
:104E68001E22F00E1D24F66EE80E1E20F76EF86A5C
:104E7800000EF8220900F5CF29F00900F5CF2AF035
:104E88000900F5CF2BF00A00F5CF2CF0000E206EAC
:104E9800640E1F6E000175511D6E1E6A1DBE1E0632
:104EA800CEEC48F0D8901D361E36D8901D361E36EA
:104EB800480E1D26000E1E22F00E1D24F66EE80E6A
:104EC8001E20F76EF86A000EF8220900F5CF25F0CB
:104ED8000900F5CF26F00900F5CF27F00A00F5CF35
:104EE80028F078EC2FF025C071F026C072F027C0AA
:104EF80073F028C074F071C025F072C026F073C03A
:104F080027F074C028F0000E1A6E0A0E196E000100
:104F18007551176E186A17BE18063DEC4AF0D890FE
:104F280017361836D89017361836F00E1724F66E3E
:104F3800E80E1820F76EF86A000EF8220900F5CF7F
:104F480029F00900F5CF2AF00900F5CF2BF00A0067
:104F5800F5CF2CF078EC2FF025C06DF026C06EF060
:104F680027C06FF028C070F0120000017551800A48
:104F7800750FD8A05CD0000E206E0A0E1F6E7551FA
:104F88001D6E1E6A1DBE1E06CEEC48F0D8901D365A
:104F98001E36D8901D361E36240E1D26000E1E22E3
:104FA800F00E1D24F66EE80E1E20F76EF86A000E4D
:104FB800F8220900F5CF25F00900F5CF26F0090001
:104FC800F5CF27F00A00F5CF28F0000E1A6E0A0E6A
:104FD800196E00017551176E186A17BE18063DEC58
:104FE8004AF0D89017361836D89017361836F00E7B
:104FF8001724F66EE80E1820F76EF86A000EF822ED
:105008000900F5CF29F00900F5CF2AF00900F5CFFE
:105018002BF00A00F5CF2CF078EC2FF025C06DF0BE
:1050280026C06EF027C06FF028C070F01200000193
:105038007551040DF00EF324F66EE80EF420F76EA9
:10504800F86A000EF8220900F5CF6DF00900F5CFD7
:105058006EF00900F5CF6FF00A00F5CF70F012007E
:105068007551800A120FD8A0A3D0000E206E0A0E28
:105078001F6E000E1A6E640E196E7551176E186A3F
:1050880017BE18063DEC4AF017C01DF018C01EF0F8
:10509800CEEC48F0D8901D361E36D8901D361E36F8
:1050A800240E1D26000E1E22BC0E1D24F66EE80ED0
:1050B8001E20F76EF86A000EF8220900F5CF29F0D5
:1050C8000900F5CF2AF00900F5CF2BF00A00F5CF3B
:1050D8002CF0000E206E640E1F6E000175511D6EBF
:1050E8001E6A1DBE1E06CEEC48F0D8901D361E3630
:1050F800D8901D361E36480E1D26000E1E22BC0EE8
:105108001D24F66EE80E1E20F76EF86A000EF822CF
:105118000900F5CF25F00900F5CF26F00900F5CFF5
:1051280027F00A00F5CF28F078EC2FF025C071F0B1
:1051380026C072F027C073F028C074F071C025F043
:1051480072C026F073C027F074C028F0000E1A6EE3
:105158000A0E196E00017551176E186A17BE1806E7
:105168003DEC4AF0D89017361836D89017361836CE
:10517800BC0E1724F66EE80E1820F76EF86A000EBB
:10518800F8220900F5CF29F00900F5CF2AF0090027
:10519800F5CF2BF00A00F5CF2CF078EC2FF025C0D6
:1051A8006DF026C06EF027C06FF028C070F01200B6
:1051B80000017551800A750FD8A05CD0000E206ED2
:1051C8000A0E1F6E75511D6E1E6A1DBE1E06CEECA0
:1051D80048F0D8901D361E36D8901D361E36240E3F
:1051E8001D26000E1E22BC0E1D24F66EE80E1E2083
:1051F800F76EF86A000EF8220900F5CF25F00900CD
:10520800F5CF26F00900F5CF27F00A00F5CF28F0F2
:10521800000E1A6E0A0E196E00017551176E186A83
:1052280017BE18063DEC4AF0D89017361836D890B5
:1052380017361836BC0E1724F66EE80E1820F76ECF
:10524800F86A000EF8220900F5CF29F00900F5CF19
:105258002AF00900F5CF2BF00A00F5CF2CF078ECF6
:105268002FF025C06DF026C06EF027C06FF028C063
:1052780070F0120000017551040DBC0EF324F66E97
:10528800E80EF420F76EF86A000EF8220900F5CF50
:105298006DF00900F5CF6EF00900F5CF6FF00A0048
:1052A800F5CF70F012000001A951AA11D8B40CD0A2
:1052B800A9C0D9FFAAC0DAFFA7C0DEFFA8C0DDFFDA
:1052C80003D00001A74BA82BA7C0D9FFA8C0DAFFBD
:1052D800DF50AB6FAB51AEEC4EF0D8B0F2D7000E4A
:1052E8000001AC6F2D0EAB19D8A403D0010EAC6F22
:1052F80004D02B0EAB19D8A402D0A74BA82B000EB4
:10530800AB6F000EAE6F000EAF6F000EB06F000EE9
:10531800B16F000EAD6FACB90AD0A7C0D9FFA8C055
:10532800DAFF2E0EDE18D8A402D0AC893ED0A7C072
:10533800D9FFA8C0DAFFDF505AEC4FF0D8A038D018
:105348000001AC83090EAB19D8B42DD0ACB9AD07A8
:10535800AB2BAEC017F0AFC018F0B0C019F0B1C099
:105368001AF00A0E1B6E000E1C6E000E1D6E000E4B
:105378001E6EB0EC4BF017C0AEF018C0AFF019C0FD
:10538800B0F01AC0B1F0A7C0D9FFA8C0DAFFDF504B
:10539800316ED00E312631500001AE27000EAF23FA
:1053A800B023B12302D0ACA9AD2BA74BA82BB3D700
:1053B800000E0001AB6FA7C0D9FFA8C0DAFF650EC9
:1053C800DE18D8B408D0A7C0D9FFA8C0DAFF450EA8
:1053D800DE18D8A462D0A74BA82BA7C0D9FFA8C0B5
:1053E800DAFF2D0EDE18D8A402D0AC8708D0A7C0EB
:1053F800D9FFA8C0DAFF2B0EDE18D8A402D0A74B1D
:10540800A82BA7C0D9FFA8C0DAFF300EDE18D8B481
:10541800F6D7A7C0D9FFA8C0DAFFDF505AEC4FF083
:10542800D8A038D0A7C0D9FFA8C0DAFFDF50D00F66
:105438000001AB6FA74BA82BA7C0D9FFA8C0DAFF04
:10544800DF505AEC4FF0D8A025D0A7C0D9FFA8C08C
:10545800DAFFDF50316E0001AB510A0DF3503124F1
:10546800D00FAB6FA74BA82BA7C0D9FFA8C0DAFFF6
:10547800DF505AEC4FF0D8A00DD0A7C0D9FFA8C074
:10548800DAFFDF50316E0001AB510A0DF3503124C1
:10549800D00FAB6F0001ACB7AB6DAB51AD27A951C5
:1054A800AA11D8A4ACA308D0A9C0D9FFAAC0DAFF12
:1054B800A7C0DEFFA8C0DDFFAEC017F0AFC018F070
:1054C800B0C019F0B1C01AF0010E97EC3EF017C049
:1054D800AEF018C0AFF019C0B0F01AC0B1F00001BA
:1054E800AE51AF11B011B111D8A409D0000EA76FF9
:1054F800000EA86F000EA96F000EAA6F1200ADAFC4
:105508006DD0AD6D1DD0AEC08EF0AFC08FF0B0C005
:1055180090F0B1C091F0F90E926F020E936F150ED4
:10552800946F500E956F1BEC34F08EC0AEF08FC0A8
:10553800AFF090C0B0F091C0B1F0F60E0001AD2709
:10554800AD51800A760FD8A01DD0DDD7AEC08EF041
:10555800AFC08FF0B0C090F0B1C091F0000E926F64
:10556800000E936F200E946F410E956F1BEC34F074
:105578008EC0AEF08FC0AFF090C0B0F091C0B1F067
:105588000001AD07AD51D8A4E1D7AEC025F0AFC03A
:1055980026F0B0C027F0B1C028F0000E296E000E2A
:1055A8002A6E800E2B6E000E2C6E0AEC41F0D8B0DD
:1055B80084D00001ACA109D0000EA76F000EA86F1F
:1055C800800EA96F800EAA6F1200000EA76F000E42
:1055D800A86F800EA96F000EAA6F1200AD51800A45
:1055E8007F0FD8B01ED069D0AEC025F0AFC026F06E
:1055F800B0C027F0B1C028F0F90E296E020E2A6E4D
:10560800150E2B6E500E2C6E78EC2FF025C0AEF0D8
:1056180026C0AFF027C0B0F028C0B1F0F60E0001E8
:10562800AD270A0EAD61E0D71CD0AEC025F0AFC0E3
:1056380026F0B0C027F0B1C028F0000E296E000E89
:105648002A6E200E2B6E410E2C6E78EC2FF025C0A2
:10565800AEF026C0AFF027C0B0F028C0B1F000010E
:10566800AD07AD51D8A4E1D7FF0E256EFF0E266E0B
:105678007F0E276E7F0E286EAEC029F0AFC02AF0CD
:10568800B0C02BF0B1C02CF00AEC41F0D8B015D066
:105698000001ACA109D0000EA76F000EA86F800E04
:1056A800A96F800EAA6F1200000EA76F000EA86FD8
:1056B800800EA96F000EAA6F12000001ACA112D0D3
:1056C800AEC017F0AFC018F0B0C019F0B1C01AF0F2
:1056D80044EC4EF017C0AEF018C0AFF019C0B0F0EF
:1056E8001AC0B1F0AEC0A7F0AFC0A8F0B0C0A9F022
:1056F800B1C0AAF01200000E0101486F000E476FFA
:10570800000E466F000E456F000E446F000E436F8B
:10571800000ED96F020ED96501D09DD047C117F090
:1057280048C118F0196A1A6A000E97EC3EF017C0C3
:1057380025F018C026F019C027F01AC028F001017A
:10574800D951040D790EF324D96E010EF420DA6EC6
:10575800DECF29F0DECF2AF0DECF2BF0DECF2CF023
:105768000AEC41F0D8B017D00101D951040D790ED7
:10577800F324D96E010EF420DA6EDECFA7F0DECF67
:10578800A8F0DECFA9F0DECFAAF0B1EC44F0A7C0B4
:1057980047F1A8C048F10101D951040D790EF3244D
:1057A800D96E010EF420DA6EDECF25F0DECF26F0BA
:1057B800DECF27F0DECF28F045C117F046C118F03C
:1057C800000E18BEFF0E196E1A6E010E97EC3EF011
:1057D80017C029F018C02AF019C02BF01AC02CF0F5
:1057E8000AEC41F0D8B017D00101D951040D790E57
:1057F800F324D96E010EF420DA6EDECFA7F0DECFE7
:10580800A8F0DECFA9F0DECFAAF0B1EC44F0A7C033
:1058180045F1A8C046F10101D951040D790EF324D0
:10582800D96E010EF420DA6EDECFA7F0DECFA8F035
:10583800DECFA9F0DECFAAF0B1EC44F0010143516C
:105848000001A7250101436F44510001A82101016E
:10585800446FD92B5FD74750D8B464D1020E456046
:1058680061D1000EBCEC20F0030E0101556111D08E
:105878003FC01DF040C01EF0000E206E140E1F6EBB
:10588800C1EC4EF0010147511D5C48511E58D8B07B
:1058980023D03A86000ED96F030ED96501D00CD0FB
:1058A800D951010D2B0EF324D96E010EF420DA6EB6
:1058B800000EDF6ED92BF0D7000E0001746F020EB8
:1058C800736F000E766F010E756F000E70EC4EF060
:1058D800000E0101556F04D04550D8A469EC4FF073
:1058E800020E4818D8B404D0030E4818D8A406D01D
:1058F80085C1AFF086C1B0F0B2EC42F095C11DF0A1
:1059080096C11EF0FF0E206EF60E1F6EC1EC4EF013
:105918001DC0D7F11EC0D8F1F20E01019D6FEF0E28
:105928009E6F400E48249F6FA06B000EA0233AC0C4
:10593800A1F1A26BD7C1A3F1D8C1A4F145C1A5F1CA
:1059480046C1A6F138C0A7F1A86B37C1A9F138C183
:10595800AAF155C1ABF1AC6B47C1B4F048C1B5F081
:10596800000E0001B76F0A0EB66FDBEC4BF0B4C047
:10597800ADF1B5C0AEF147C1AFF048C1B0F0000E0F
:105988000001B26F0A0EB16F2CEC4DF0AFC0AFF151
:10599800B0C0B0F141C1B4F042C1B5F0000E000191
:1059A800B76F0A0EB66FDBEC4BF0B4C0B1F1B5C0FF
:1059B800B2F141C1AFF042C1B0F0000E0001B26FC8
:1059C8000A0EB16F2CEC4DF0AFC0B3F1B0C0B4F11A
:1059D800A7EC4DF081C17EF082C17FF083C180F0D9
:1059E80084C181F07DC17AF07EC17BF07FC17CF0FB
:1059F80080C17DF021EC31F07AC0CFF17BC0D0F1CD
:105A08007CC0D1F17DC0D2F179C17EF07AC17FF03E
:105A18007BC180F07CC181F0CFC17AF0D0C17BF02E
:105A2800D1C17CF0D2C17DF021EC31F07AC08EF08A
:105A38007BC08FF07CC090F07DC091F0000E00011B
:105A4800926F000E936F200E946F410E956F1BECB2
:105A580034F08EC0D3F18FC0D4F190C0D5F191C08D
:105A6800D6F1120E01019D6FF60E9E6F79C18EF070
:105A78007AC18FF07BC190F07CC191F0000E0001DB
:105A8800926F000E936F200E946F410E956F1BEC72
:105A980034F08EC09FF18FC0A0F190C0A1F191C0E9
:105AA800A2F17DC18EF07EC18FF07FC190F080C1E0
:105AB80091F0000E0001926F000E936F200E946F0C
:105AC800410E956F1BEC34F08EC0A3F18FC0A4F18A
:105AD80090C0A5F191C0A6F181C18EF082C18FF06E
