:0400000096EF01F086
:100008004982FACF05F0FBCF06F0E9CF07F0EACF37
:1000180008F0E1CF09F0E2CF0AF0D9CF0BF0DACF40
:100028000CF0F3CF0DF0F4CF0EF0F6CF0FF0F7CFC2
:1000380010F0F8CF11F0F5CF12F049C013F04AC014
:1000480014F04BC015F04CC016F032D0AECF63F1AF
:10005800030E01012925016E000E2A21026E000EF1
:100068002B21036E000E2C21046E3350015C34509A
:1000780002583550035836500458D8B002D0000EF4
:10008800616F320E6119D8B461076151010D640EB8
:10009800F324D96E030EF420DA6E63C1DFFF612BFF
:1000A80033C029F134C02AF135C02BF136C02CF108
:1000B8009EBACCD79EB89DA850D001015D51010DC4
:1000C800000EF324D96E030EF420DA6EDF50AD6E05
:1000D8005D2B5C515D19D8B404D0320E5D19D8A4DB
:1000E8003CD09D98000E5D6F38D071B4D0A20BD073
:1000F8004804D8A408D074CF63F101016351D8A48F
:1001080004D0FF0002D074CF63F1D08263C173FFC3
:10011800320E01016019D8B46007080E6319D8A41B
:1001280005D06051D8B402D0600717D00D0E6319FE
:10013800D8B404D00A0E6319D8A404D0000E636F93
:1001480060295E6F6051010D3E0EF324D96E020ED8
:10015800F420DA6E63C1DFFF602BA4AABBD0C5D739
:100168004604D8A456D03A50D8A404D0030E481850
:10017800D8B427D02C0E01013D5D010E3E59D8B0F0
:1001880002D0809801D08088808A3D51016E3E510E
:10019800026E3D4B3E2B910E015C010E0258D8A019
:1001A80060D082B20AD0890E3D5D130E3E59D8A0A8
:1001B80058D0000E3E6F000E53D0010E3E6F900EC9
:1001C8004FD02C0E01013F5D010E4059D8B003D02D
:1001D8008088809A02D08088808A3F51016E405181
:1001E800026E3F4B402B910E015C010E0258D8A0C5
:1001F8005BD082A20AD0890E3F5D130E4059D8A069
:1002080053D0000E406F000E4ED0010E406F900E7E
:100218004AD0020E4618D8A44BD03A50D8A404D0DD
:10022800030E4818D8B422D0580E01013D5D020EC5
:100238003E59D8B002D0809801D08088808A3D513C
:10024800016E3E51026E3D4B3E2BBD0E015C020E0F
:100258000258D8A006D082B2A6D7020E3E6FBC0EB6
:100268003D6F000E406F000E3F6F22D0580E010107
:100278003F5D020E4059D8B003D08088809A02D0E2
:100288008088808A3F51016E4051026E3F4B402B5F
:10029800BD0E015C020E0258D8A006D082A2ABD7D0
:1002A800020E406FBC0E3F6F000E3E6F000E3D6F9A
:1002B800010E3326000E342235223622010154075E
:1002C8005429D8A406D051C167FF0A0E546F010EF5
:1002D800536F7E907EB044D716C04CF015C04BF0DB
:1002E80014C04AF013C049F012C0F5FF11C0F8FF5E
:1002F80010C0F7FF0FC0F6FF0EC0F4FF0DC0F3FFEC
:100308000CC0DAFF0BC0D9FF0AC0E2FF09C0E1FF49
:1003180008C0EAFF07C0E9FF06C0FBFF05C0FAFFF7
:10032800499211003CEF4CF0BDEF0CF0250E000196
:10033800D819D8B438D020EE02F0AF51D926B05130
:10034800DA22DE50DE10D8B417D020EE02F0AF511A
:10035800D926B051DA22DECFB5F0DDCFB6F002D81B
:10036800BDEF0CF00500FA6EB551FD6EB651FE6E8C
:10037800FF6AFA50D8511200AFC0D9FFB0C0DAFFF7
:10038800DECFB5F0DDCFB6F0B5C0D9FFB6C0DAFF25
:10039800D8C0DFFFAFC0D9FFB0C0DAFFDE2A000E39
:1003A800DD22BDEF0CF0000E0001D36F000ED26FFE
:1003B800000ED76F000ED66F07D00001D68702D087
:1003C8000001D685B14BB22BB1C0F6FFB2C0F7FF22
:1003D800F86A0F0EF76403D00800F55005D0F6CF81
:1003E800E1FFF7CFE2FFE7502D0AD8B4E6D71D0AA0
:1003F800D8B4E6D70001D6B7D695B1C0F6FFB2C0DB
:10040800F7FFF86A0F0EF76403D00800F55005D01F
:10041800F6CFE1FFF7CFE2FFE75035EC54F0D8A074
:1004280049D0000E0001D36F000ED26FD2C01DF06C
:10043800D3C01EF0000E206E0A0E1F6E9CEC53F007
:100448001DC0D2F01EC0D3F0D00E0001B56FFF0E54
:10045800B66FB1C0F6FFB2C0F7FFF86A0F0EF764C7
:1004680003D00800F55005D0F6CFE1FFF7CFE2FF43
:10047800E7500001B76FB86BB551B727B651B8232D
:10048800B751D227B851D323B14BB22BB1C0F6FF25
:10049800B2C0F7FFF86A0F0EF76403D00800F550F2
:1004A80005D0F6CFE1FFF7CFE2FFE75035EC54F087
:1004B800D8B0BCD7B1C0F6FFB2C0F7FFF86A0F0ECC
:1004C800F76403D00800F55005D0F6CFE1FFF7CF69
:1004D800E2FFE7502E0AD8A446D00001D78DB14BD1
:1004E800B22B000ED56F000ED46F28D0D4C01DF0EB
:1004F800D5C01EF0000E206E0A0E1F6E9CEC53F045
:10050800B1C0F6FFB2C0F7FFF86A0F0EF76403D068
:100518000800F55005D0F6CFE1FFF7CFE2FFE7502E
:100528000001B56FB5511D26000E1E22D00E1D24E8
:10053800D46FFF0E1E20D56FB14BB22BB1C0F6FFA2
:10054800B2C0F7FFF86A0F0EF76403D00800F55041
:1005580005D0F6CFE1FFF7CFE2FFE75035EC54F0D6
:10056800D8A06ED1C3D7000E0001D56F000ED46F8E
:10057800D78966D1D7859BD1D68BD68F98D1B3C072
:10058800D9FFB4C0DAFFDFCFB5F0020EDE26DFCF29
:10059800B6F0000EDD22B5C0D9FFB6C0DAFFDECF57
:1005A800C0F0DDCFC1F0C051C111D8A404D0640E91
:1005B800C06FFC0EC16F000EC36F000EC26F03D078
:1005C8000001C24BC32BC251C025B56FC351C12115
:1005D800B66FB5C0F6FFB6C0F7FFF86A0F0EF7643E
:1005E80003D00800F55005D0F6CFE1FFF7CFE2FFC2
:1005F800E7500009D8A4E4D70001D451D511D8B4E4
:100608000AD0C251D45DC351D559D8B004D0D4C092
:10061800C2F0D5C0C3F0D251C25DD351C359D8B0CE
:1006280005D0C251D25FC351D35B04D0000ED36F43
:10063800000ED26FD6A736D099D020EE02F0AF5177
:10064800D926B051DA22DE50DE10D8B416D020EE0A
:1006580002F0AF51D926B051DA22DECFB5F0DDCFA6
:10066800B6F001D81FD00500FA6EB551FD6EB6512F
:10067800FE6EFF6AFA50200E1200AFC0D9FFB0C05C
:10068800DAFFDECFB5F0DDCFB6F0B5C0D9FFB6C022
:10069800DAFF200EDF6EAFC0D9FFB0C0DAFFDE2A66
:1006A800000EDD220001D207D8A0D307D229C5E168
:1006B800D329D8B45BD0C1D720EE02F0AF51D926E8
:1006C800B051DA22DE50DE10D8B429D020EE02F084
:1006D800AF51D926B051DA22DECFB5F0DDCFB6F072
:1006E80001D819D00500FA6EB551FD6EB651FE6EEF
:1006F800FF6AFA50C0C0F6FFC1C0F7FFF86A0F0ED4
:10070800F76403D00800F55005D0F6CFE1FFF7CF26
:10071800E2FFE75012000001C04BC12B27D0C0C038
:10072800F6FFC1C0F7FFF86AAFC0D9FFB0C0DAFF63
:10073800DECFB5F0DDCFB6F0B5C0D9FFB6C0DAFF71
:100748000F0EF76403D00800F55005D0F6CFE1FF8F
:10075800F7CFE2FFE750DF6E0001C04BC12BAFC0FF
:10076800D9FFB0C0DAFFDE2A000EDD22C207D8A00A
:10077800C307C229A1E1C329D8A49ED7D6B737D0C9
:10078800BDEF0CF020EE02F0AF51D926B051DA22BD
:10079800DE50DE10D8B416D020EE02F0AF51D926C4
:1007A800B051DA22DECFB5F0DDCFB6F001D81FD0D8
:1007B8000500FA6EB551FD6EB651FE6EFF6AFA502D
:1007C800200E1200AFC0D9FFB0C0DAFFDECFB5F0FF
:1007D800DDCFB6F0B5C0D9FFB6C0DAFF200EDF6EA8
:1007E800AFC0D9FFB0C0DAFFDE2A000EDD2200015B
:1007F800D207D8A0D307D229C5E1D329D8B4BDEFF1
:100808000CF0C0D7B3C0D9FFB4C0DAFFDFCFB5F062
:10081800020EDE26DFCFB6F0000EDD22B5C0D9FF0E
:10082800B6C0DAFFDF50D86FD80EC06F000EC16FA8
:10083800000EC36F010EC26FDFD6C00ED61337D0BD
:100848000001B151B56FB251B66FB14BB22BB5C003
:10085800F6FFB6C0F7FFF86A0F0EF76403D008007A
:10086800F55005D0F6CFE1FFF7CFE2FFE7500001E2
:10087800D86FD851000AD8B4DAEF0CF0580AD8B4B7
:100888007BD63B0AD8B4BED7070AD8B410D0020A20
:10089800D8B470D60F0AD8B40AD01A0AD8B46FD60A
:1008A800060AD8B4CAD70D0AD8B467D6BDD7070E7A
:1008B800D715D8B4AAEF09F0D7A904D0000ED56F80
:1008C800060ED46FB3C0D9FFB4C0DAFFDFCFB5F0DE
:1008D800040EDE26DFCFB6F0000EDD22B5C0D9FF4C
:1008E800B6C0DAFFDECFCEF0DECFCFF0DECFD0F06D
:1008F800DECFD1F0D1AF15D0CEC017F0CFC018F0F1
:10090800D0C019F0D1C01AF049EC53F017C0CEF09E
:1009180018C0CFF019C0D0F01AC0D1F0030E0001F2
:10092800D613000EC56F000EC46FCE51CF11D01173
:10093800D111D8B482D0D035D135820FC46FC56BF0
:10094800FF0EC523C407D8A0C507C4C01DF0C5C085
:100958001EF0000E206E030E1F6E9CEC53F01DC09F
:10096800C4F01EC0C5F0C4C01DF0C5C01EF0000E06
:10097800206E0A0E1F6E70EC4DF01DC0C4F01EC034
:10098800C5F00001C5AF03D0C407D8A0C507C4513E
:100998000008F6EC2AF06DC0C6F06EC0C7F06FC054
:1009A800C8F070C0C9F0C6C025F0C7C026F0C8C0DE
:1009B80027F0C9C028F0CEC029F0CFC02AF0D0C097
:1009C8002BF0D1C02CF00BEC33F025C0C6F026C0BC
:1009D800C7F027C0C8F028C0C9F0C6C025F0C7C0F6
:1009E80026F0C8C027F0C9C028F0000E296E000EF6
:1009F8002A6E800E2B6E3F0E2C6E73EC45F0D8B02D
:100A080005D00001C407D8A0C50717D0C6C025F077
:100A1800C7C026F0C8C027F0C9C028F0000E296E4C
:100A2800000E2A6E200E2B6E410E2C6E73EC45F0D4
:100A3800D8A003D00001C44BC52B0001D5BF06D0F8
:100A4800D55121E10D0ED45DD8B01DD0CEC07AF0BD
:100A5800CFC07BF0D0C07CF0D1C07DF0D451D2ECB7
:100A680037F06DC07EF06EC07FF06FC080F070C050
:100A780081F0B4EC34F07AC0CEF07BC0CFF07CC00B
:100A8800D0F07DC0D1F00001C5BF06D0C55122E12C
:100A98000A0EC45DD8B01ED0CE51CF11D011D111DD
:100AA800D8B463D0CEC0A7F0CFC0A8F0D0C0A9F00A
:100AB800D1C0AAF08FEC49F00001A751A811A911E3
:100AC800AA11D8B4C5BF51D0C55104E1020EC45D06
:100AD800D8A04BD0C6C025F0C7C026F0C8C027F0A4
:100AE800C9C028F05F0E296E700E2A6E890E2B6E13
:100AF800400E2C6E73EC45F0D8B003D00001F70E11
:100B080002D00001F80EC427FF0EC523C451F6EC2D
:100B18002AF06DC0C6F06EC0C7F06FC0C8F070C0D4
:100B2800C9F0CEC017F0CFC018F0D0C019F0D1C0AE
:100B38001AF0C6C01BF0C7C01CF0C8C01DF0C9C061
:100B48001EF0DFEC44F017C0CAF018C0CBF019C093
:100B5800CCF01AC0CDF0000E0001CE6F000ECF6FA2
:100B6800000ED06F000ED16F3CD0CEC0A7F0CFC022
:100B7800A8F0D0C0A9F0D1C0AAF08FEC49F0A7C066
:100B8800CAF0A8C0CBF0A9C0CCF0AAC0CDF0CEC0A6
:100B98008EF0CFC08FF0D0C090F0D1C091F0CAC015
:100BA80017F0CBC018F0CCC019F0CDC01AF0000E69
:100BB80000EC43F017C092F018C093F019C094F0FD
:100BC8001AC095F091EC51F08EC0CEF08FC0CFF0E6
:100BD80090C0D0F091C0D1F0000E0001C56F000E9A
:100BE800C46F010ED86F0A0ED819D8B41BD0D851CB
:100BF800040D6A0EF324F66EE80EF420F76EF86A18
:100C0800000EF8220900F550CA5D0900F550CB59CD
:100C18000900F550CC590900F550CD59D8A002D09B
:100C2800D82BE1D7D8C0B5F0B66BB5BFB607D4514D
:100C3800B527D551B623C451B527C551B623B551EB
:100C4800D25FB651D35BD451D511D8B403D0D207F3
:100C5800D8A0D307030ED615B56F000ED715B66FFB
:100C6800B551B611D8B403D0D207D8A0D307D6A5AA
:100C780083D0030ED615B56F000ED715B66FB551D4
:100C8800B611D8B470D020EE02F0AF51D926B051C9
:100C9800DA22DE50DE10D8B416D020EE02F0AF51C2
:100CA800D926B051DA22DECFB5F0DDCFB6F001D8C3
:100CB8005AD00500FA6EB551FD6EB651FE6EFF6A48
:100CC800FA502D0E1200AFC0D9FFB0C0DAFFDECF48
:100CD800B5F0DDCFB6F0B5C0D9FFB6C0DAFF2D0E3E
:100CE800DF6EAFC0D9FFB0C0DAFFDE2A000EDD220A
:100CF8003AD0000120EE02F0AF51D926B051DA22E5
:100D0800DE50DE10D8B416D020EE02F0AF51D9264E
:100D1800B051DA22DECFB5F0DDCFB6F001D81FD062
:100D28000500FA6EB551FD6EB651FE6EFF6AFA50B7
:100D3800300E1200AFC0D9FFB0C0DAFFDECFB5F079
:100D4800DDCFB6F0B5C0D9FFB6C0DAFF300EDF6E22
:100D5800AFC0D9FFB0C0DAFFDE2A000EDD220001E5
:100D6800D207D8A0D3070001D3BFFED0D351C1E129
:100D7800D205D8A0F9D0BDD7D6A73AD040D020EE1A
:100D880002F0AF51D926B051DA22DE50DE10D8B4C5
:100D980016D020EE02F0AF51D926B051DA22DECFBC
:100DA800B5F0DDCFB6F001D81FD00500FA6EB55109
:100DB800FD6EB651FE6EFF6AFA50200E1200AFC0EB
:100DC800D9FFB0C0DAFFDECFB5F0DDCFB6F0B5C0E1
:100DD800D9FFB6C0DAFF200EDF6EAFC0D9FFB0C0B2
:100DE800DAFFDE2A000EDD220001D207D8A0D307E1
:100DF800D3BF05D0D351C3E1D205D8B0C0D7030EB5
:100E0800D615B56F000ED715B66FB551B611D8B453
:100E1800ABD020EE02F0AF51D926B051DA22DE5025
:100E2800DE10D8B416D020EE02F0AF51D926B0515A
:100E3800DA22DECFB5F0DDCFB6F001D895D00500C7
:100E4800FA6EB551FD6EB651FE6EFF6AFA502D0E60
:100E58001200AFC0D9FFB0C0DAFFDECFB5F0DDCFEA
:100E6800B6F0B5C0D9FFB6C0DAFF2D0E75D0CAC02E
:100E780017F0CBC018F0CCC019F0CDC01AF00001A3
:100E8800D851040D6A0EF324F66EE80EF420F76EBE
:100E9800F86A000EF8220900F5CF1BF00900F5CF1B
:100EA8001CF00900F5CF1DF00A00F5CF1EF0B2ECDA
:100EB8004DF017C0C6F018C0C7F019C0C8F01AC066
:100EC800C9F0C6C024F0C7C025F0C8C026F0C9C004
:100ED80027F00A0E286E000E296E000E2A6E000EEC
:100EE8002B6E35EC50F024C0C6F025C0C7F026C0E4
:100EF800C8F027C0C9F0000120EE02F0AF51D92692
:100F0800B051DA22DE50DE10D8B417D020EE02F04D
:100F1800AF51D926B051DA22DECFB5F0DDCFB6F029
:100F280001D822D00500FA6EB551FD6EB651FE6E9D
:100F3800FF6AFA50C651300F12000001C651300F37
:100F4800AFC0D9FFB0C0DAFFDECFB5F0DDCFB6F065
:100F5800B5C0D9FFB6C0DAFFDF6EAFC0D9FFB0C0E9
:100F6800DAFFDE2A000EDD220001D807D829D8B41E
:100F78003AD07DD720EE02F0AF51D926B051DA220F
:100F8800DE50DE10D8B416D020EE02F0AF51D926CC
:100F9800B051DA22DECFB5F0DDCFB6F001D81FD0E0
:100FA8000500FA6EB551FD6EB651FE6EFF6AFA5035
:100FB800300E1200AFC0D9FFB0C0DAFFDECFB5F0F7
:100FC800DDCFB6F0B5C0D9FFB6C0DAFF300EDF6EA0
:100FD800AFC0D9FFB0C0DAFFDE2A000EDD22000163
:100FE800C407D8A0C507C5BF05D0C551C3E1C4050E
:100FF800D8B0C0D7D5BF09D0D55104E1090ED45D0A
:10100800D8A003D0080ED86F02D0D4C0D8F0D851D9
:10101800D45F000ED8BFFF0ED55BD851D8B435D0F9
:1010280020EE02F0AF51D926B051DA22DE50DE10A0
:10103800D8B416D020EE02F0AF51D926B051DA223A
:10104800DECFB5F0DDCFB6F001D81FD00500FA6EBF
:10105800B551FD6EB651FE6EFF6AFA502E0E1200A3
:10106800AFC0D9FFB0C0DAFFDECFB5F0DDCFB6F044
:10107800B5C0D9FFB6C0DAFF2E0EDF6EAFC0D9FFFC
:10108800B0C0DAFFDE2A000EDD220001D851F6ECEE
:101098002AF06DC0B9F06EC0BAF06FC0BBF070C076
:1010A800BCF0CEC029F0CFC02AF0D0C02BF0D1C000
:1010B8002CF0B9C025F0BAC026F0BBC027F0BCC0E0
:1010C80028F00BEC33F025C0A7F026C0A8F027C005
:1010D800A9F028C0AAF08FEC49F0A7C0CAF0A8C0B0
:1010E800CBF0A9C0CCF0AAC0CDF0A7D0CAC017F0E9
:1010F800CBC018F0CCC019F0CDC01AF00001D851FF
:10110800040D6A0EF324F66EE80EF420F76EF86A02
:10111800000EF8220900F5CF1BF00900F5CF1CF0EE
:101128000900F5CF1DF00A00F5CF1EF0B2EC4DF026
:1011380017C0C6F018C0C7F019C0C8F01AC0C9F067
:10114800C6C024F0C7C025F0C8C026F0C9C027F023
:101158000A0E286E000E296E000E2A6E000E2B6EE7
:1011680035EC50F024C0C6F025C0C7F026C0C8F042
:1011780027C0C9F0000120EE02F0AF51D926B051C6
:10118800DA22DE50DE10D8B417D020EE02F0AF51CC
:10119800D926B051DA22DECFB5F0DDCFB6F001D8CE
:1011A80022D00500FA6EB551FD6EB651FE6EFF6A8B
:1011B800FA50C651300F12000001C651300FAFC0AF
:1011C800D9FFB0C0DAFFDECFB5F0DDCFB6F0B5C0DD
:1011D800D9FFB6C0DAFFDF6EAFC0D9FFB0C0DAFF03
:1011E800DE2A000EDD22CAC024F0CBC025F0CCC018
:1011F80026F0CDC027F00001D851040D6A0EF32463
:10120800F66EE80EF420F76EF86A000EF822090070
:10121800F5CF28F00900F5CF29F00900F5CF2AF01D
:101228000A00F5CF2BF035EC50F024C0CAF025C0E9
:10123800CBF026C0CCF027C0CDF00001D807D829C4
:10124800D8B43AD053D720EE02F0AF51D926B051D6
:10125800DA22DE50DE10D8B416D020EE02F0AF51FC
:10126800D926B051DA22DECFB5F0DDCFB6F001D8FD
:101278001FD00500FA6EB551FD6EB651FE6EFF6ABD
:10128800FA50300E1200AFC0D9FFB0C0DAFFDECF7F
:10129800B5F0DDCFB6F0B5C0D9FFB6C0DAFF300E75
:1012A800DF6EAFC0D9FFB0C0DAFFDE2A000EDD2244
:1012B8000001D407D8A0D507D451D511D8A4C3D7D5
:1012C800D6B7D3BF56D3D35103E1D205D8A051D353
:1012D80020EE02F0AF51D926B051DA22DE50DE10EE
:1012E800D8B416D020EE02F0AF51D926B051DA2288
:1012F800DECFB5F0DDCFB6F001D81FD00500FA6E0D
:10130800B551FD6EB651FE6EFF6AFA50200E1200FE
:10131800AFC0D9FFB0C0DAFFDECFB5F0DDCFB6F091
:10132800B5C0D9FFB6C0DAFF200EDF6EAFC0D9FF57
:10133800B0C0DAFFDE2A000EDD220001D207D8A0F5
:10134800D307D251D311D8B414D3C2D7C00ED615EF
:10135800B56F000ED715B66FB551B611D8A426D003
:10136800B3C0D9FFB4C0DAFFDFCFB5F0020EDE2676
:10137800DFCFB6F0000EDD22B5C0D9FFB6C0DAFF68
:10138800DECFCAF0DDCFCBF0000ECBBFFF0ECC6FA7
:10139800CD6FCDAF25D0030ED613CD1FCC1FCB1FDD
:1013A800CA6D000ECB23CC23CD231AD0B3C0D9FFEE
:1013B800B4C0DAFFDFCFB5F0020EDE26DFCFB6F01D
:1013C800000EDD22B5C0D9FFB6C0DAFFDECFB7F018
:1013D800DDCFB8F0B7C0CAF0B8C0CBF0CC6BCD6BDE
:1013E800D451D511D8A44BD0CA51CB11CC11CD11A1
:1013F800D8A445D0D44BD52B42D0010ED86F0A0EB5
:10140800D819D8B447D0D851040D6A0EF324F66E13
:10141800E80EF420F76EF86A000EF8220900F5507D
:10142800CA5D0900F550CB590900F550CC5909009F
:10143800F550CD59D8A02ED0D82BE1D7010ED86FB2
:10144800080ED819D8B426D0D851040D920EF3241A
:10145800F66EE80EF420F76EF86A000EF82209001E
:10146800F550CA5D0900F550CB590900F550CC5923
:101478000900F550CD59D8A00DD0D82BE1D7D651B9
:10148800C00B000AD8B4B9D7800AD8B4D7D7400A55
:10149800D8B4B3D7800ED8BF7F0EB56FD451D85DFE
:1014A800D551800AB559D8B003D0D4C0D8F010D0DF
:1014B800D551800AB56FD851D45D800ED8BF7F0E44
:1014C800B559D8B005D0D851D46FD56BD4BFD5078E
:1014D800D251D311D8B40DD0030ED615B56F000E66
:1014E800D715B66FB551B611D8B403D0D207D8A066
:1014F800D307D7AD13D0D251D45DD551800AB56F7B
:10150800D351800AB559D8B005D0D451D25FD5513E
:10151800D35B04D0000ED36F000ED26F800ED8BFFD
:101528007F0EB56FD251D85DD351800AB559D8B066
:1015380007D0D851D25F000ED8BFFF0ED35B04D0BE
:10154800000ED36F000ED26FD6A57ED0030ED6152F
:10155800B56F000ED715B66FB551B611D8B435D0E2
:1015680020EE02F0AF51D926B051DA22DE50DE105B
:10157800D8B416D020EE02F0AF51D926B051DA22F5
:10158800DECFB5F0DDCFB6F001D81FD00500FA6E7A
:10159800B551FD6EB651FE6EFF6AFA502D0E12005F
:1015A800AFC0D9FFB0C0DAFFDECFB5F0DDCFB6F0FF
:1015B800B5C0D9FFB6C0DAFF2D0EDF6EAFC0D9FFB8
:1015C800B0C0DAFFDE2A000EDD220001D251D311AD
:1015D800D8B481D120EE02F0AF51D926B051DA2229
:1015E800DE50DE10D8B416D020EE02F0AF51D92666
:1015F800B051DA22DECFB5F0DDCFB6F001D81FD07A
:101608000500FA6EB551FD6EB651FE6EFF6AFA50CE
:10161800300E1200AFC0D9FFB0C0DAFFDECFB5F090
:10162800DDCFB6F0B5C0D9FFB6C0DAFF300EDF6E39
:10163800AFC0D9FFB0C0DAFFDE2A000EDD220001FC
:10164800D207D8A0D307C2D7D251D311D8A4D6B7BE
:101658003DD020EE02F0AF51D926B051DA22DE504B
:10166800DE10D8B416D020EE02F0AF51D926B05112
:10167800DA22DECFB5F0DDCFB6F001D81FD00500F5
:10168800FA6EB551FD6EB651FE6EFF6AFA50200E25
:101698001200AFC0D9FFB0C0DAFFDECFB5F0DDCFA2
:1016A800B6F0B5C0D9FFB6C0DAFF200EDF6EAFC006
:1016B800D9FFB0C0DAFFDE2A000EDD220001D20712
:1016C800D8A0D307D251D311D8A4C3D7030ED615A7
:1016D800B56F000ED715B66FB551B611D8B4FBD09B
:1016E80020EE02F0AF51D926B051DA22DE50DE10DA
:1016F800D8B416D020EE02F0AF51D926B051DA2274
:10170800DECFB5F0DDCFB6F001D8E5D00500FA6E32
:10171800B551FD6EB651FE6EFF6AFA502D0E1200DD
:10172800AFC0D9FFB0C0DAFFDECFB5F0DDCFB6F07D
:10173800B5C0D9FFB6C0DAFF2D0EDF6EC5D0D4C054
:10174800B5F0D5C0B6F00001D890B537B637D89007
:10175800B537B6376A0EB525F66EE80EB621F76EC0
:10176800F86A000EF8220900F5CF1BF00900F5CF42
:101778001CF00900F5CF1DF00A00F5CF1EF0CAC015
:1017880017F0CBC018F0CCC019F0CDC01AF0B2ECED
:101798004DF017C024F018C025F019C026F01AC063
:1017A80027F00A0E286E000E296E000E2A6E000E13
:1017B8002B6E35EC50F02450300F0001D86F56D006
:1017C800CAC017F0CBC018F0CCC019F0CDC01AF0C1
:1017D800D4C0B5F0D5C0B6F0D890B537B637D890E4
:1017E800B537B637920EB525F66EE80EB621F76E08
:1017F800F86A000EF8220900F5CF1BF00900F5CFB2
:101808001CF00900F5CF1DF00A00F5CF1EF0B2EC70
:101818004DF017500F0B0001BD6FD6BB04D0CE0E94
:10182800BE6FFA0E03D0BD0EBE6FFA0EBF6FBD516C
:10183800010DBEC0B5F0BFC0B6F0F350B527F450E7
:10184800B623B5C0F6FFB6C0F7FFF86A0800F5CFB3
:10185800D8F00CD00001D651C00B000AD8B46FD70D
:10186800800AD8B4ADD7400AD8B469D720EE02F0C0
:10187800AF51D926B051DA22DE50DE10D8B416D0D6
:1018880020EE02F0AF51D926B051DA22DECFB5F002
:10189800DDCFB6F001D81FD00500FA6EB551FD6E48
:1018A800B651FE6EFF6AFA50D8511200AFC0D9FF88
:1018B800B0C0DAFFDECFB5F0DDCFB6F0B5C0D9FFE6
:1018C800B6C0DAFFD8C0DFFFAFC0D9FFB0C0DAFFBB
:1018D800DE2A000EDD220001D407D8A0D507D429BE
:1018E800B9E1D529D8A4B6D7D6B7D3BF42D0D351FA
:1018F80003E1D205D8A03DD020EE02F0AF51D926A1
:10190800B051DA22DE50DE10D8B416D020EE02F044
:10191800AF51D926B051DA22DECFB5F0DDCFB6F01F
:1019280001D81FD00500FA6EB551FD6EB651FE6E96
:10193800FF6AFA50200E1200AFC0D9FFB0C0DAFF1C
:10194800DECFB5F0DDCFB6F0B5C0D9FFB6C0DAFF4F
:10195800200EDF6EAFC0D9FFB0C0DAFFDE2A000E5E
:10196800DD220001D207D8A0D307D251D311D8A4C1
:10197800C3D70001B151B56FB251B66FB14BB22B9D
:10198800B5C0F6FFB6C0F7FFF86A0F0EF76403D0CC
:101998000800F55005D0F6CFE1FFF7CFE2FFE7509A
:1019A8000001D86FD851D8A49AEF01F0000EB06F9B
:1019B800000EAF6F1200000E0301AC6F050EAB6F87
:1019C800000EA76F000EA36F000EAA6F000EA96F7E
:1019D800000EA46F010EA86F010E966F22EE00F0A4
:1019E80013EE97F00B0EDBCFE3FFE806FCE2CDEC3D
:1019F8004AF0FBEC3FF03FC01DF040C01EF0000E67
:101A0800206E0A0E1F6E9CEC53F01DC041F11EC0E3
:101A180042F1E9EC4EF017EC53F0D0823750D8A4DD
:101A2800A8EC43F001015E51D8A4A0EC16F0010126
:101A38005D51D8B4ACA201D08A9A8CEC4CF0A30EBC
:101A4800946E00F000F08250210B0301B36FB3399C
:101A5800E8461F0B0101EB6F0301B351B325020BDD
:101A68000101EB11EB6F8150010BEB11EB6F820E53
:101A7800946E070EEB19D8A404D0EA51EB19D8B428
:101A880003D0EB518FEC25F0010E010158651DD0F4
:101A9800170E58611AD0880E2525DC6F130E2621E3
:101AA800DD6F000E2721DE6F000E2821DF6F335017
:101AB800DC5D3450DD593550DE593650DF59D8B029
:101AC80004D05751D8B41BEC49F081A402D0010EC0
:101AD80001D0000E0301A819D8B499D0A42BA405ED
:101AE8000101DC6F050EDC6594D0000E81B4010E97
:101AF8000301A86FA851D8B453D07FD001014F512A
:101B0800D8B405D0000E4F6F010E486E02D0010EFA
:101B18004F6F530E8B6FFB0E8C6F4FC18DF18E6B19
:101B28007AEC52F04BD0010E01014F6F47D04704B9
:101B3800D8A403D0020E476E07D0010E476E000EE0
:101B4800386E000E01014E6F4504D8A437D0000E40
:101B58000001746FA80E736F47C075F0766B000EA6
:101B6800E5EC52F02BD0010E476E4504D8A426D0E0
:101B7800000E0001746FA80E736F47C075F0766B86
:101B8800000EE5EC52F01AD0030E4818D8A416D06F
:101B9800010E486E3750D8A411D00F0E386E0ED0F3
:101BA8004450010AD8B4AAD7030AD8B4BCD7010A4A
:101BB800D8B4BDD7070AD8B4D6D7E6D74304D8B423
:101BC8003AA822D081B220D03A981ED0000E010146
:101BD8004F6F010E486E18D0020E476E4504D8A408
:101BE80013D0000E0001746FA80E736F47C075F014
:101BF800766B000EE5EC52F007D04450020AD8B4D8
:101C0800E5D7060AD8B4E8D7000E030101D0000EC4
:101C1800A46F4304D8B481A205D0010E486E3A8857
:101C2800000E396E050E4818D8A424D03650351049
:101C380006E1E90E335C030E3458D8A01BD0000E21
:101C48000001746F010E736F000E766F000E756FD2
:101C58004550E5EC52F0200E01018B6FF80E8C6FA9
:101C68007AEC52F0000E336E000E346E000E356EB4
:101C7800000E366E4804D8A4D5D0000EBD6E8284FE
:101C88008198000E01012D6F93EC4FF00301B26FA4
:101C9800B205D8A404D03A9A3A90000E386E020ED3
:101CA800B219D8A4BFD0020E01016419D8A4B4D0C7
:101CB8004F51D8B4B1D00301AC2BAC050101DC6F96
:101CC800190EDC65AFD099EC41F0E806D8B43A8635
:101CD8003850D8A4A7D03A50D8A4A4D0000E0301F5
:101CE800AA6FDBEC4CF0720E01018B6FF90E8C6F52
:101CF8004BC18DF14CC18EF13DC08FF13EC090F1CA
:101D08007AEC52F03D5001014B5D3E504C59D8B031
:101D18000BD04BC11DF04CC11EF0000E206E0A0EF8
:101D28001F6E9CEC53F00AD03DC01DF03EC01EF063
:101D3800000E206E0A0E1F6E9CEC53F01DC049F178
:101D48001EC04AF1010E45644AD0000E0001746FAE
:101D5800020E736F49C175F04AC176F04550E5EC43
:101D680052F049C117F04AC118F0196A1A6A000EF0
:101D780000EC43F017C08EF018C08FF019C090F037
:101D88001AC091F0000E0001926F000E936F200EA2
:101D9800946F410E956F2DEC39F08EC0AEF38FC065
:101DA800AFF390C0B0F391C0B1F3AE0E01018B6FE9
:101DB800F70E8C6FAEC38DF1AFC38EF1B0C38FF148
:101DC800B1C390F17AEC52F0060E486E000E336EF5
:101DD800000E346E000E356E000E366E23D04BC1E9
:101DE8001DF04CC11EF0000E206E0A0E1F6E9CECFA
:101DF80053F01DC011F11EC012F1010E01012D6F2B
:101E0800020E486E3C0E5A6F8086390E8B6FFB0EA1
:101E18008C6F7AEC52F006D0020E0101646F000E4E
:101E28000301AC6F060E4818D8A40BD036503510F5
:101E380006E1E90E335C030E3458D8A002D0010E37
:101E4800486E020E4818D8A4E9D0070EBC64D0D05A
:101E5800180EBC60CDD093EC4FF00301B26FB20501
:101E6800D8A41FD001016405D8A419D00301AC2B54
:101E7800AC050101DC6F190EDC65BAD0010E486EA5
:101E88001F0E8B6FFB0E8C6F7AEC52F0010E4564BF
:101E9800AFD0050E486EE90E336E030E63D0010E07
:101EA8009AD0030EB219D8A49CD0030E010164196C
:101EB800D8A490D00301AA05D8A48CD0AC2BAC052B
:101EC8000101DC6F190EDC6593D03A50D8A490D08C
:101ED8003850D8A48DD0010E45644AD0000E0001B8
:101EE800746F030E736F49C175F04AC176F045509F
:101EF800E5EC52F049C117F04AC118F0196A1A6A9C
:101F0800000E00EC43F017C08EF018C08FF019C017
:101F180090F01AC091F0000E0001926F000E936FBE
:101F2800200E946F410E956F2DEC39F08EC0AEF3F4
:101F38008FC0AFF390C0B0F391C0B1F3D40E0101DC
:101F48008B6FF70E8C6FAEC38DF1AFC38EF1B0C33C
:101F58008FF1B1C390F17AEC52F0070E486E000E83
:101F6800336E000E346E000E356E000E366E40D0A5
:101F780049C111F14AC112F199EC41F00009D8A404
:101F880027D0020E01012D6F000E746F000E736FC3
:101F9800010EBFEC21F08188000E0301AA6F030E29
:101FA800486E000E396E000E336E000E346E000E51
:101FB800356E000E366E01015851D8B436EC1CF05F
:101FC800460E01018B6FFB0E8C6F7AEC52F010D02D
:101FD8003A860ED0030E0101646F000E0301AC6F48
:101FE80007D0020E01016419D8B402D0000E646F44
:101FF800E60EBC6413D0F10EBC64FDD7F10EBC64D0
:1020080001D0BC5093EC4FF00301B26F040EB2192B
:10201800D8A402D0010E01D0000EAA6F070E4818EE
:10202800D8A415D03650351006E1E90E335C030EFE
:102038003458D8A00CD0000E0301AA6F020E486EC7
:102048005D0E01018B6FFA0E8C6F7AEC52F0030E65
:102058004818D8A477D0070EBC6474D0180EBC609A
:1020680071D093EC4FF00301B26FB205D8B403D02E
:10207800B251D8A42BD001016405D8A425D00301FE
:10208800AC2BAC050101DC6F190EDC655BD0010ED1
:10209800486E81982C0E8B6FFB0E8C6F7AEC52F089
:1020A800E9EC4EF0010E45640BD0050E486EE90EC2
:1020B800336E030E346E000E356E000E366E42D04F
:1020C800000E01012D6F3ED0010E34D0020EB21960
:1020D800D8A435D0020E01016419D8A429D003016F
:1020E800AC2BAC050101DC6F190EDC652BD0819897
:1020F800E9EC4EF0000E0301AA6F020E486E010EC5
:1021080045640BD0080E486EE90E336E030E346E2C
:10211800000E356E000E366E03D0000E01012D6FD5
:10212800650E01018B6FFA0E8C6F7AEC52F00AD0B3
:10213800020E0101646F000E0301AC6F03D0000EA4
:102148000101646F080E4818D8A424D03650351001
:1021580006E1E90E335C030E3458D8A01BD0000EFC
:102168000001746F040E736F000E766F000E756FAA
:102178004550E5EC52F0460E01018B6FF80E8C6F5E
:102188007AEC52F0000E336E000E346E000E356E8F
:10219800000E366EABA202D0AB98AB8871A202D00B
:1021A80071987188D6CFB3F33C0ED764E9D0000E8E
:1021B800D76E000ED66E68EC50F001014E51D8B4BF
:1021C8001CD03951DC6F3A51DD6F394B3A2B81C144
:1021D8001DF082C11EF0000E206E3C0E1F6E9CEC9E
:1021E80053F00101DC511D5CDD511E58D8B009D0F7
:1021F800010E486E000E4E6F04D0000E3A6F000EAE
:10220800396F3850D8A43806370E596102D03AB41D
:102218003A943AC0DCF1210EDC17D8B40AD0020E89
:10222800456007D099EC41F00009D8A402D03A9053
:102238003A9A0301AB51D8B43AB21DD03A82010E92
:10224800486E900E01018B6FF90E8C6F7AEC52F08C
:10225800000E0301B36F030EB36501D00FD0B35165
:10226800010D2D0EF324D96E010EF420DA6E000E46
:10227800DF6EB32BF0D7AB51D8A4AB07400E0101EA
:1022880059651CD03A84010E486E000E8B6FFA0E09
:102298008C6F7AEC52F0000E0301B36F030EB36536
:1022A80001D00CD0B351010D2D0EF324D96E010EBF
:1022B800F420DA6E000EDF6EB32BF0D73AC0DCF1F3
:1022C800290E0101DC17D8B41FD03A96020E471820
:1022D800D8A40BD03850D8A406D0AE0E8B6FF90E08
:1022E8008C6F7AEC52F03A8A0BD03850D8A407D0C9
:1022F800D60E01018B6FF80E8C6F7AEC52F03A8093
:10230800010E486E3C0E386E36EC1CF04750D8B4BF
:102318000BD0030196079629D8A406D0010E010117
:10232800506F010E0301966F4750D8A429D0000EB4
:102338000101486F000E476F0301A951D8A4A907EE
:10234800020E45601DD0A951D8A41AD0000EBFECCA
:1023580021F04504D8B444EC54F0020E4818D8B41F
:1023680004D0030E4818D8A406D073C1AFF074C1C6
:10237800B0F092EC46F0020E0301A96F0A0EAB6FA3
:1023880001015051D8B41BD0020E456018D00CD0B2
:1023980089C177F04250F3EC4DF00ED087C177F049
:1023A8004150F3EC4DF008D001015051010AD8B466
:1023B800EFD7030AD8B4F2D7000E0101506F61516C
:1023C800D8B47DEF16F0030E2925DC6F000E2A2104
:1023D800DD6F000E2B21DE6F000E2C21DF6F3350D6
:1023E800DC5D3450DD593550DE593650DF59D8B0F0
:1023F8007DEF16F0320E176E030E186E640E196E0E
:10240800030E1A6E61C11BF01C6AD8EC51F061C151
:102418005FF1000E0101616F320EA56F030EA66F0A
:102428005FC1A7F16AEC2FF0030E01010B19D8A4C4
:10243800BFD00A0E0301AB6FB5D04250D8B434D028
:10244800010189510019D8A42FD04250120D0B0E4A
:10245800F326000EF422850EF324D96E020EF42022
:10246800DA6EDE50021920E1DE500319D8A41CD020
:1024780008C1B1F009C1B2F042C0B3F0670E000163
:10248800B46F010EB56F3CEC31F04150D8B408D0B0
:10249800020E0101506F010E0301A36F7DEF16F0CC
:1024A8009DEC28F07DEF16F00301A351D8B47DEF21
:1024B80016F04150D8B47DEF16F00101875100198C
:1024C800D8A47DEF16F04150120D0B0EF326000E26
:1024D800F422850EF324D96E020EF420DA6EDE5053
:1024E800021903E1DE500319D8A47DEF16F008C1E4
:1024F800B1F009C1B2F041C0B3F0970E0001B46F5A
:10250800030EB56F3CEC31F0000E0301B36F020E01
:10251800B36501D042D0B351040D970EF324D96EA0
:10252800030EF420DA6EDECF17F0DECF18F0DECF20
:1025380019F0DECF1AF049EC53F017C07AF018C042
:102548007BF019C07CF01AC07DF00301B351040D73
:10255800670EF324D96E010EF420DA6EDECF7EF01A
:10256800DECF7FF0DECF80F0DECF81F0B4EC34F048
:102578000301B351040D670EF324D96E010EF42044
:10258800DA6E00017AC0DEFF7BC0DEFF7CC0DEFFB2
:102598007DC0DEFF0301B32BBAD7000EA36F9DECFD
:1025A80028F0A7D301010151040AD8B446D7A1D312
:1025B800020E0B19D8A4BCD00A0E0301AB6FACD025
:1025C800455001010019D8A494D320EC48F0030128
:1025D800AD6FAD29D8B48DD3AD5170EC4EF089D321
:1025E800010E010100651FD0050E00611CD00251CB
:1025F8000311D8B408D0035106E1050E025DD8B026
:1026080002D0030E0ED00101035104E1810E025DD8
:10261800D8A009D0035107E1850E025DD8B003D0D8
:10262800020E0301A76F01010051D8B404D0455030
:102638000019D8A45ED320EC48F00301AD6FAD2992
:10264800D8B457D3AD5129EC4DF053D30101005103
:10265800D8B404D045500019D8A44BD302050311AF
:10266800D8A44FD0010E45644CD0FE0EDC6FFF0E8F
:10267800DD6F4550DE6FDF6BD890DE37DF37DC511A
:10268800DE27DD51DF23DE510825D96EDF51092110
:10269800DA6EDF50E06FE051E26FE16BFF0EE36F3F
:1026A800FF0EE46F4550E56FE66BD890E537E637E7
:1026B800E351E527E451E623E5510825D96EE651B3
:1026C8000921DA6EDF50E76FE751E1110301A56FC9
:1026D8000101E2510301A66F9D0E01018B6FF60EF9
:1026E8008C6F00C18DF18E6B02C18FF103C190F127
:1026F800A5C391F1A6C392F17AEC52F0020E030140
:10270800A76F20EC48F00301AD6FAD29D8B4F1D222
:10271800AD511BEC47F0EDD201010151040AD8B4C8
:102728004FD7020AD8B45CD7160AD8B48FD7E1D2EB
:10273800100E8B6FFB0E8C6F7AEC52F0DAD201011F
:102748000051D8A46AD0010E456467D054D0A5C3FF
:1027580073F1A6C374F1020E4818D8B404D0030E5E
:102768004818D8A406D073C1AFF074C1B0F092EC89
:1027780046F073C117F074C118F0196A1A6A000E8E
:1027880000EC43F017C08EF018C08FF019C090F01D
:102798001AC091F0000E0001926F000E936F200E88
:1027A800946F410E956F2DEC39F08EC0AEF38FC04B
:1027B800AFF390C0B0F391C0B1F36C0E01018B6F11
:1027C800F80E8C6FAEC38DF1AFC38EF1B0C38FF12D
:1027D800B1C390F17AEC52F020D0010E486E06C1D8
:1027E8003AF03C0E386E900E01018B6FF80E8C6F2C
:1027F8007AEC52F012D021EE02F0DECFDCF1DDCF20
:10280800DDF10101DD51000AD8A407D0DC51010A2D
:10281800D8B49DD7030AD8B4E0D7455001010019B0
:10282800D8B4C0D06ED2010E486EDF0E8B6FFA0E90
:102838008C6F7AEC52F065D2010106510711D8A4C9
:1028480008D03A86440E8B6FFC0E8C6F7AEC52F0EF
:1028580058D206C1AFF007C1B0F092EC46F0020EB4
:10286800486E06C117F007C118F0196A1A6A000EF7
:1028780000EC43F017C08EF018C08FF019C090F02C
:102888001AC091F0000E0001926F000E936F200E97
:10289800946F410E956F2DEC39F08EC0AEF38FC05A
:1028A800AFF390C0B0F391C0B1F32E0E01018B6F5E
:1028B800F70E8C6FAEC38DF1AFC38EF1B0C38FF13D
:1028C800B1C390F17AEC52F01CD201010651071104
:1028D800D8A408D03A864C0E8B6FFC0E8C6F7AEC1D
:1028E80052F00FD206C1AFF007C1B0F092EC46F03B
:1028F8008188000E0301AA6F030E486E000E396E20
:10290800000E336E000E346E000E356E000E366EFD
:1029180001015851D8B436EC1CF006C117F007C1B4
:1029280018F0196A1A6A000E00EC43F017C08EF00E
:1029380018C08FF019C090F01AC091F0000E000175
:10294800926F000E936F200E946F410E956F2DECD1
:1029580039F08EC0AEF38FC0AFF390C0B0F391C022
:10296800B1F3860E01018B6FF70E8C6FAEC38DF13C
:10297800AFC38EF1B0C38FF1B1C390F17AEC52F0CE
:10298800460E01018B6FFB0E8C6F7AEC52F0B9D1B9
:10299800020E486EFA0E01018B6FF70E8C6F7AECFF
:1029A80052F0AFD121EE02F0DECFDCF1DDCFDDF168
:1029B8000101DD51000AD8A4A4D1DC51810AD8B4A0
:1029C80032D7030AD8B438D7010AD8B47ED7070A51
:1029D800D8B4DED796D14504D8A493D10101000517
:1029E8000301B46F6DD10301B451010D2D0EF32411
:1029F800D96E010EF420DA6E000EDF6E000EBFEC09
:102A080021F0470E01018B6FFA0E8C6FB4C38DF164
:102A18008E6B7AEC52F0000E0001746F810E736FAA
:102A2800000E766F000E756F01010051E5EC52F053
:102A380068D199EC41F00009D8A42FD00301B45112
:102A4800010D2D0EF324D96E010EF420DA6E010E5D
:102A5800DF6EB451020D110EF324D96E010EF4206D
:102A6800DA6E06C1DEFF07C1DDFF3BC01DF03CC0CA
:102A78001EF0000E206E0A0E1F6E9CEC53F0030130
:102A8800B451020D730EF324D96E010EF420DA6EE0
:102A98001DC0DEFF1EC0DDFF0DD00301B451020DC5
:102AA800730EF324D96E010EF420DA6E000EDE6E7A
:102AB800000EDD6E06C117F007C118F0196A1A6A10
:102AC800000E00EC43F017C08EF018C08FF019C04C
:102AD80090F01AC091F0000E0001926F000E936FF3
:102AE800200E946F410E956F2DEC39F08EC0AEF329
:102AF8008FC0AFF390C0B0F391C0B1F3150E0101D0
:102B08008B6FF90E8C6FB4C38DF18E6BAEC38FF1E2
:102B1800AFC390F1B0C391F1B1C392F17AEC52F026
:102B2800000E0001746F820E736F0301B451020D21
:102B3800730EF324D96E010EF420DA6EDECF75F031
:102B4800DDCF76F001010051E5EC52F0DAD099ECD6
:102B580041F00009D8A427D00301B451010D2D0E6E
:102B6800F324D96E010EF420DA6E020EDF6EB45132
:102B7800020D110EF324D96E010EF420DA6E06C18F
:102B8800DEFF07C1DDFFB451020D730EF324D96EC9
:102B9800010EF420DA6E000EDE6E000EDD6E010E00
:102BA800BFEC21F00DD00301B451020D730EF324D4
:102BB800D96E010EF420DA6E000EDE6E000EDD6EA8
:102BC8000301B451020D730EF324D96E010EF420E3
:102BD800DA6EDECFDCF1DDCFDDF1DCC117F0DDC16F
:102BE80018F0196A1A6A000E00EC43F017C08EF04C
:102BF80018C08FF019C090F01AC091F0000E0001B3
:102C0800926F000E936F200E946F410E956F2DEC0E
:102C180039F08EC0AEF38FC0AFF390C0B0F391C05F
:102C2800B1F3F60E01018B6FF80E8C6FB4C38DF102
:102C38008E6BAEC38FF1AFC390F1B0C391F1B1C346
:102C480092F17AEC52F0000E0001746F830E736FEC
:102C58000301B451020D730EF324D96E010EF42052
:102C6800DA6EDECF75F0DDCF76F001010051E5ECCC
:102C780052F047D00301B451010D2D0EF324D96E43
:102C8800010EF420DA6E000EDF6E000EBFEC21F0AC
:102C9800CA0E01018B6FF90E8C6FB4C38DF18E6B68
:102CA8007AEC52F0000E0001746F840E736F000E00
:102CB800766F000E756F01010051E5EC52F021D0DE
:102CC80021EE02F0DECFDCF1DDCFDDF10101DD51D7
:102CD800000AD8A416D0DC51010AD8B484D6030A55
:102CE800D8B4A7D6010AD8B432D7070AD8B4C2D7FD
:102CF80008D00301A751020AD8B421D5010AD8B4D3
:102D08006AD63AA205D00A0E0301AB19D8B43A9292
:102D18003AC0DCF1210E0101DC17D8B408D03850D4
:102D2800D8A405D0010E456402D03A903A9A000E14
:102D38000301A76F12EF0DF0CBEC3BF00101CE6F52
:102D48008D0E8B6FF80E8C6F7AEC52F001015B518F
:102D5800D8A445D0000ED36F29D03E0E176E020EB0
:102D6800186ED351010D700EF324D96E020EF420A3
:102D7800DA6EDF50C06FC0514A0DB20EF324196EDF
:102D8800E80EF4201A6E97EC50F017501810D8A4DB
:102D98000BD00101D351010D700EF324D96E020E30
:102DA800F420DA6EDF505B6F0101D32BFF0EC06F8A
:102DB800FF0EC16FCE51C26FC36BC051C227C15144
:102DC800C323D351C46FC56BC251C45DC551800ABA
:102DD800C66FC351800AC659D8B045D2BED70201C2
:102DE8003E51D8A418D2000E01015B6F3CD23E0EB2
:102DF8000001B26F020EB36F75EC53F0B2C0CFF1A1
:102E0800B3C0D0F1B4C0D1F1B5C0D2F1CFC125F073
:102E1800D0C126F0D1C127F0D2C128F0000E296E0A
:102E2800000E2A6EC00E2B6E400E2C6E73EC45F011
:102E3800D8A014D0000E256E000E266EA00E276EA8
:102E4800420E286ECFC129F0D0C12AF0D1C12BF093
:102E5800D2C12CF073EC45F0D8B008D05A0E01015D
:102E68008B6FF70E8C6F7AEC52F0F6D167C1A7F032
:102E780068C1A8F069C1A9F06AC1AAF08FEC49F04D
:102E8800A7C0AFF0A8C0B0F060EC53F00001AFC02D
:102E980017F0B0C018F0000E18BEFF0E196E1A6EAB
:102EA800010E00EC43F017C08EF018C08FF019C067
:102EB80090F01AC091F07BC192F07CC193F07DC173
:102EC80094F07EC195F02DEC39F08EC0C7F18FC01B
:102ED800C8F190C0C9F191C0CAF1000E296E000E68
:102EE8002A6E200E2B6E410E2C6ECFC125F0D0C15C
:102EF80026F0D1C127F0D2C128F00BEC33F025C061
:102F08008EF026C08FF027C090F028C091F0C7C17E
:102F180092F0C8C193F0C9C194F0CAC195F02DECE4
:102F280039F08EC07BF18FC07CF190C07DF191C0EB
:102F38007EF1E7EC3CF090D13E0E176E020E186E53
:102F4800990E196EFB0E1A6E97EC50F01750181068
:102F5800D8A405D0020E476EE7EC3CF07DD13E0EBA
:102F6800176E020E186EE10E196EFC0E1A6E97ECB3
:102F780050F017501810D8A405D0010E476EE7EC92
:102F88003CF06AD13E0E176E020E186E9C0E196E3A
:102F9800FC0E1A6E97EC50F017501810D8A45CD19C
:102FA800000E476EE7EC3CF0000E3A6E55D13E0E2F
:102FB800176E020E186E230E196EFC0E1A6E97EC21
:102FC80050F017501810D8A405D0010E466EE7EC43
:102FD8003CF042D13E0E176E020E186EDB0E196ED3
:102FE800FC0E1A6E97EC50F017501810D8A405D0A4
:102FF800020E466EE7EC3CF02FD13E0E176E020E25
:10300800186E540E196EFC0E1A6E97EC50F017508D
:103018001810D8A421D1000E466EE7EC3CF01CD164
:103028003E0E176E020E186ED50E196EFC0E1A6E35
:1030380097EC50F017501810D8A406D0010E0101D3
:103048008A6FE7EC3CF008D13E0E176E020E186E40
:10305800A30E196EFC0E1A6E97EC50F0175018104C
:10306800D8A4FAD0000E01018A6FE7EC3CF0F4D046
:10307800000E0101D36F040ED36501D0EDD03E0ED2
:10308800176E020E186ED351090DD40EF324196E63
:10309800EF0EF4201A6E97EC50F017501810D8A4C1
:1030A80004D0D3C145F0E7EC3CF00101D32BE3D7C2
:1030B800000ED36F040ED36501D0CED03E0E176E2E
:1030C800020E186ED3510A0DA20EF324196EEF0EDC
:1030D800F4201A6E97EC50F017501810D8A404D0AA
:1030E800D3C144F0E7EC3CF00101D32BE3D73E0E0B
:1030F800176E020E186E540E196EFC0E1A6E97ECAF
:1031080050F017501810D8A405D0000E436EE7EC05
:103118003CF0A2D03E0E176E020E186E950E196E78
:10312800FC0E1A6E97EC50F017501810D8A494D0D3
:10313800010E436EE7EC3CF08FD0000E0101D36F17
:10314800040ED36501D088D03E0E176E020E186E9D
:10315800D351120D850EF324196E020EF4201A6E47
:1031680097EC50F017501810D8A409D0D3C131F0FB
:10317800326A01015B51FEEC3DF0E7EC3CF00101E5
:10318800D32BDED73E0E176E020E186EF10E196E97
:10319800FC0E1A6E97EC50F017501810D8A406D0F1
:1031A800000E0101886FE7EC3CF056D03E0E176E1A
:1031B800020E186EE70E196EFC0E1A6E97EC50F0A0
:1031C80017501810D8A448D0010E0101886FE7ECF9
:1031D8003CF042D03E0E236E020E246E66EC4AF09E
:1031E80023C0CBF124C0CCF1CBC131F0CCC132F03B
:1031F80001015B51FEEC3DF00101CD6FE7EC3CF0C5
:103208000101CD51D8A428D0530E8B6FF90E8C6FC5
:103218007AEC52F021D001015B51020AD8B400D7F0
:10322800010AD8B425D7050AD8B4C1D60F0AD8B42C
:103238003FD7030AD8B45BD7060AD8B47DD6020AAA
:10324800D8B4D5D5010AD8B478D71E0AD8B49AD735
:10325800030AD8B472D7BED7000E01015B6FCBEC5E
:103268003BF00101CE6F0E0E5B65BAD2AB0E8B6FD1
:10327800FA0E8C6F5B514A0D100EF326000EF422E5
:10328800B20EF3248D6FE80EF4208E6F5B5153EC71
:1032980036F0E7C08FF1E8C090F17AEC52F0A0D296
:1032A8003D0E01018B6FF20E8C6F7AEC52F0E80E36
:1032B80001018B6FFB0E8C6F7AEC52F0690E0101E5
:1032C8008B6FF60E8C6F7AEC52F0340E01018B6F17
:1032D800F90E8C6F59C18DF18E6B7AEC52F08A0E13
:1032E80001018B6FF20E8C6F7AEC52F0000E010127
:1032F800D36FAED0F00E8B6FFA0E8C6FD351010DD9
:10330800700EF324D96E020EF420DA6EDF50C06F0F
:10331800C0514A0DB20EF3248D6FE80EF4208E6F63
:10332800D351010D700EF324D96E020EF420DA6E1B
:10333800DF50C16FC1514A0D100EF326000EF42262
:10334800B20EF3248F6FE80EF420906F7AEC52F0EF
:103358000101D351010D700EF324D96E020EF42031
:10336800DA6E0E0EDE18D8A458D0B40E8B6FF80E95
:103378008C6F67C18EF068C18FF069C190F06AC127
:1033880091F0000E0001926F000E936F200E946F63
:10339800410E956F2DEC39F08EC08DF18FC08EF1F6
:1033A80090C08FF191C090F16BC18EF06CC18FF01D
:1033B8006DC190F06EC191F0000E0001926F000E89
:1033C800936F200E946F410E956F2DEC39F08EC0DF
:1033D80091F18FC092F190C093F191C094F16FC1B7
:1033E8008EF070C18FF071C190F072C191F0000E33
:1033F8000001926F000E936F200E946F410E956F2F
:103408002DEC39F08EC095F18FC096F190C097F1F0
:1034180091C098F17AEC52F012D00101D351010D0C
:10342800700EF324D96E020EF420DA6EDF5053ECDE
:1034380036F0E7C08BF1E8C08CF17AEC52F08D0ED3
:1034480001018B6FF80E8C6F7AEC52F00101D32BCF
:10345800FF0EC06FFF0EC16FCE51C26FC36BC0515C
:10346800C227C151C323D351C46FC56BC251C45DB8
:10347800C551800AC66FC351800AC659D8A03AD729
:10348800F90E8B6FFC0E8C6F7AEC52F0E5D1E10EE1
:1034980001018B6FF40E8C6F5B5153EC36F0E7C073
:1034A8008DF1E8C08EF17AEC52F0D6D1A40E01016C
:1034B8008B6FF40E8C6F5B5153EC36F0E7C08DF1D7
:1034C800E8C08EF17AEC52F0C7D14B0E01018B6F38
:1034D800F10E8C6F83C18DF184C18EF17AEC52F0BC
:1034E800BBD11A0E01018B6FF30E8C6F81C18DF168
:1034F80082C18EF17AEC52F0AFD11E0E01018B6FB2
:10350800F50E8C6F5B5153EC36F0E7C08DF1E8C0D7
:103518008EF1D40E01018F6FEF0E906F7AEC52F09E
:10352800010E0101D36F040ED36501D011D0F50E41
:103538008B6FFC0E8C6FD351090DD40EF3248D6F55
:10354800EF0EF4208E6F7AEC52F00101D32BEBD7FB
:103558009E0E8B6FF30E8C6F7AEC52F07DD1250E98
:1035680001018B6FF40E8C6F7AEC52F0000E0101A2
:103578008B6FF70E8C6F7AEC52F05F0E01018B6F38
:10358800F30E8C6F3FC08DF140C08EF17AEC52F093
:1035980063D1D30E01018B6FF20E8C6F3BC08DF19E
:1035A8003CC08EF17AEC52F057D1250E01018B6F99
:1035B800F40E8C6F7AEC52F0000E01018B6FF70E4F
:1035C8008C6F7AEC52F0E40E01018B6FF30E8C6F66
:1035D8003DC08DF13EC08EF17AEC52F03DD1250E02
:1035E80001018B6FF40E8C6F7AEC52F0580E0101CA
:1035F8008B6FF50E8C6F7AEC52F0A20E01018B6F77
:10360800F30E8C6F85C18DF186C18EF17AEC52F084
:1036180023D1F00E01018B6FF10E8C6F5B5153ECCF
:1036280036F0E7C08DF1E8C08EF17AEC52F014D193
:10363800650E01018B6FF40E8C6F5B5153EC36F005
:10364800E7C08DF1E8C08EF1A20E01018F6FEF0E79
:10365800906F7AEC52F0010E0101D36F040ED3651E
:1036680001D011D0F50E8B6FFC0E8C6FD3510A0D63
:10367800A20EF3248D6FEF0EF4208E6F7AEC52F0C9
:103688000101D32BEBD79E0E8B6FF30E8C6F7AEC68
:1036980052F0E2D0E90E01018B6FF00E8C6F5B5196
:1036A80053EC36F0E7C08DF1E8C08EF17AEC52F0B9
:1036B800D3D0900E01018B6FF50E8C6F67C18EF021
:1036C80068C18FF069C190F06AC191F0000E0001E5
:1036D800926F000E936F200E946F410E956F2DEC34
:1036E80039F08EC08DF18FC08EF190C08FF191C0EE
:1036F80090F17AEC52F0B0D0980E01018B6FFA0E6F
:103708008C6F850E8D6F020E8E6F7AEC52F0010E63
:103718000101D36F050ED36501D011D0F50E8B6F63
:10372800FC0E8C6FD351120D850EF3248D6F020E93
:10373800F4208E6F7AEC52F00101D32BEBD79E0E5A
:103748008B6FF30E8C6F7AEC52F086D0340E010139
:103758008B6FF60E8C6F7AEC52F07ED0A00E0101C2
:103768008B6FF10E8C6F7AEC52F076D0C80E010197
:103778008B6FF50E8C6F7AEC52F06ED0E60E01016D
:103788008B6FF90E8C6F5B514A0D440EF326000EB9
:10379800F422B20EF324F66EE80EF420F76EF86AFF
:1037A800000EF8220900F5CF8DF10A00F5CF8EF151
:1037B8005B514A0D460EF326000EF422B20EF32496
:1037C800F66EE80EF420F76EF86A000EF82209008B
:1037D800F5CF8FF10A00F5CF90F17AEC52F03CD09A
:1037E80001015B51000AD8B45BD5020AD8B44FD6A0
:1037F800010AD8B482D6070AD8B4CBD6010AD8B4FD
:10380800EED6030AD8B405D7010AD8B45ED60F0A93
:10381800D8B467D6010AD8B40BD7030AD8B43AD7B4
:10382800010AD8B4C2D6070AD8B440D6010AD8B417
:1038380096D6030AD8B43DD7010AD8B45DD71E0A74
:10384800D8B484D7030AD8B457D7060AD8B486D7C9
:10385800020AD8B48BD792D7000E01015E6F000E12
:10386800606F120001015851D8B409D0392A790E75
:103878003918D8A41200000E586FFBEC3FF00A0E5E
:103888003918D8A402D0000E396E3A50D8B4C3D033
:1038980080863C0E01015A6F3AA221D0080E000121
:1038A800C66FFC0EC76F000EADEC4EF0750E000132
:1038B800C66FFB0EC76F020EADEC4EF0B10E0001E5
:1038C800C66FFC0EC76F040EADEC4EF0720E000111
:1038D800C66FFC0EC76F060EADEC4EF012003AA490
:1038E80011D0B70E0001C66FFC0EC76F020EADEC0B
:1038F8004EF08B0E0001C66FFB0EC76F040EADECC9
:103908004EF089D03AA848D0392A39040001C96F45
:10391800050EC96120D0FF0EC66FFB0EC76F000EE3
:10392800ADEC4EF0C90E0001C66FFC0EC76F020E5B
:10393800ADEC4EF0340E0001C66FFC0EC76F040EDE
:10394800ADEC4EF0ED0E0001C66FFB0EC76F060E14
:10395800ADEC4EF01200BD0E0001C66FFC0EC76F35
:10396800000EADEC4EF0790E0001C66FFC0EC76F6D
:10397800020EADEC4EF0170E0001C66FFC0EC76FBD
:10398800040EADEC4EF0C30E0001C66FFC0EC76FFF
:10399800060EADEC4EF012003AAC3DD03C0E0001E4
:1039A800C66FFC0EC76F020EADEC4EF05F0E000145
:1039B800C66FFB0EC76F040EADEC4EF0000E010192
:1039C800386F640E376F37C01DF01E6A000E206E08
:1039D8000A0E1F6E70EC4DF0300E1D240001BF6FF3
:1039E800000E1E20C06F4FEC42F037C017F0186A67
:1039F800000E1A6E0A0E196E5BEC4FF0300E17248B
:103A08000001BF6F000E1820C06F4FEC42F0040E8B
:103A180000EC50F01200500E3718D8A411D03C0E0C
:103A28000001C66FFC0EC76F020EADEC4EF0870E9C
:103A38000001C66FFC0EC76F040EADEC4EF012000D
:103A4800392A4750D8B404D001014F51D8A4A7D07F
:103A5800030E4818D8A469D0F60E0001C66FFB0EF5
:103A6800C76F020EADEC4EF0000E0101386F220E4A
:103A7800376FE3EC53F073C1B8F074C1B9F0000EBE
:103A88000001BB6F640EBA6F1AEC51F0300E0001E2
:103A9800B825BF6F000EB921C06F4FEC42F0000E81
:103AA8000001BB6F0A0EBA6F73C1B8F074C1B9F0E8
:103AB8001AEC51F0B8C0B3F0B9C0B4F0000E000170
:103AC800B66F0A0EB56F1CEC52F0300E0001B3252C
:103AD800BF6F000EB421C06F4FEC42F0000E000122
:103AE800C06F2E0EBF6F4FEC42F073C1B3F074C1BC
:103AF800B4F0000E0001B66F0A0EB56F1CEC52F060
:103B0800300E0001B325BF6F000EB421C06F4FEC1B
:103B180042F0000E0001C06F410EBF6F4FEC42F043
:103B2800040E00EC50F0B7EF21F0000E1C6E000EF2
:103B3800D2EC53F0040E1C6E010ED2EC53F00101CE
:103B48004F51D8B411D0110E0001C66FFC0EC76FCB
:103B5800020EADEC4EF0DB0E0001C66FFB0EC76F18
:103B6800040EADEC4EF010D0800E0001C66FFC0EB6
:103B7800C76F020EADEC4EF06B0E0001C66FFC0E67
:103B8800C76F040EADEC4EF0100E1C6E060ED2EC94
:103B980053F0000E1C6E070ED2EC53F0E4D347042A
:103BA800D8B404D0020E4718D8A4DDD35DEC52F087
:103BB8004704D8A427D0000E0001D16F0C0ED165A0
:103BC80001D020D0D151C96FCA6B4A0EC927000E47
:103BD800CA23B50EC925D96E030ECA21DA6E000EA6
:103BE800DF6ED151C96FCA6BCA0EC927000ECA232E
:103BF800B50EC925D96E030ECA21DA6E000EDF6E26
:103C0800D12BDCD7010139513A11D8A418D0000EB4
:103C18000001D16F070ED16501D0B3D0D151C96F62
:103C2800CA6B5C0EC927000ECA23B50EC925D96E0A
:103C3800030ECA21DA6E000EDF6ED12BEBD7000E11
:103C48000101386F650E376F000E806F000E7F6FB1
:103C580081C11DF082C11EF0000E206E3C0E1F6E49
:103C68009CEC53F01DC0CFF01EC0D0F039C1C9F094
:103C78003AC1CAF00001C91FCA1FC94BCA2BCF518C
:103C8800C925CF6FD051CA21D06FCFC0B8F0D0C0EE
:103C9800B9F0000EBB6F3C0EBA6F1AEC51F0B8C009
:103CA800CDF0B9C0CEF0CFC0B3F0D0C0B4F0000EA4
:103CB8000001B66F3C0EB56F1CEC52F0B3C0CFF0EC
:103CC800B4C0D0F0CDC0B8F0CEC0B9F0000E00013D
:103CD800BB6F0A0EBA6F1AEC51F0300E0001B8250E
:103CE800BF6F000EB921C06FE8EC4BF0CDC0B3F048
:103CF800CEC0B4F0000E0001B66F0A0EB56F1CEC12
:103D080052F0300E0001B325BF6F000EB421C06F12
:103D1800E8EC4BF001013707D8A03807000E000186
:103D2800C06F3A0EBF6FE8EC4BF001013707D8A01F
:103D38003807CFC0B8F0D0C0B9F0000E0001BB6F93
:103D48000A0EBA6F1AEC51F0300E0001B825BF6F99
:103D5800000EB921C06FE8EC4BF0CFC0B3F0D0C073
:103D6800B4F0000E0001B66F0A0EB56F1CEC52F0ED
:103D7800300E0001B325BF6F000EB421C06FE8EC10
:103D88004BF0010144AF07D0030EE95F140EE9615F
:103D980009D02C0E06D0030EE9272C0EE96502D0B7
:103DA800140EE96FE9C137F1386B000E806F030E0E
:103DB8007F6F43C1AFF044C1B0F060EC53F0000135
:103DC800B0BF0CD0B05104E1040EAF5DD8A006D04E
:103DD800000EC06FFE0EBF6FE8EC4BF0030E4818E4
:103DE800D8A45CD080863C0E01015A6F030EE827E8
:103DF800590EE86502D04A0EE86FE8C137F1386B12
:103E0800000E806F030E7F6F000E0001C06FFE0E64
:103E1800BF6FE8EC4BF0000E0101806F020E7F6F60
:103E2800000E386F4D0E376F73C1B8F074C1B9F01A
:103E3800000E0001BB6F640EBA6F1AEC51F0300E21
:103E48000001B825BF6F000EB921C06FE8EC4BF038
:103E5800000E0001BB6F0A0EBA6F73C1B8F074C1CF
:103E6800B9F01AEC51F0B8C0B3F0B9C0B4F0000E14
:103E78000001B66F0A0EB56F1CEC52F0300E00014F
:103E8800B325BF6F000EB421C06FE8EC4BF0000EF5
:103E98000001C06F410EBF6FE8EC4BF0050E3960B2
:103EA800B6D0020E4718D8A4B2D0000E0101386F60
:103EB8001D0E376F000E806F010E7F6F000E000120
:103EC800C06FE30EBF6FE8EC4BF0000E0101806F8E
:103ED800020E7F6F43C1AFF044C1B0F060EC53F005
:103EE8000001B0BF33D0E90EAF5D030EB059D8A0C2
:103EF8002DD0000E0101386F110E376F44AF07D077
:103F0800000E0001C06F2D0EBF6FE8EC4BF0000EE5
:103F18000101386F170E376F43C11DF044C11EF001
:103F2800030E206EE80E1F6E70EC4DF01DC0AFF052
:103F38001EC0B0F060EC53F0300E0001AF25BF6F2B
:103F4800000EB021C06FE8EC4BF00ED0000E01015E
:103F5800386F170E376F44AF07D0000E0001C06FDF
:103F68002D0EBF6FE8EC4BF0000E0101386F1D0EEF
:103F7800376F000E206E640E1F6E43C11DF044C1E2
:103F88001EF070EC4DF01DC017F01EC018F0000EAA
:103F98001A6E0A0E196E5BEC4FF017C0AFF018C01E
:103FA800B0F060EC53F0300E0001AF25BF6F000E8B
:103FB800B021C06FE8EC4BF0000E206E0A0E1F6EA9
:103FC80043C11DF044C11EF070EC4DF01DC017F048
:103FD8001EC018F0000E1A6E0A0E196E5BEC4FF038
:103FE80017C0AFF018C0B0F060EC53F0300E00010D
:103FF800AF25BF6F000EB021C06FE8EC4BF0000E8C
:104008000001C06F410EBF6FE8EC4BF0A3D0000E6B
:104018000001D16F020ED16501D09CD0D1C07FF1D3
:104028000101806B000E386F170E376F0001D151F8
:10403800040D670EF324D96E010EF420DA6E030E18
:10404800DBAE07D0000EC06F2D0EBF6FE8EC4BF053
:1040580005D0000E0101386F1D0E376F000E0001EC
:10406800926F000E936FC80E946F420E956FD151E8
:10407800040D670EF324D96E010EF420DA6EDECF3C
:104088008EF0DECF8FF0DECF90F0DECF91F02DEC0A
:1040980039F08EC0A7F08FC0A8F090C0A9F091C0E9
:1040A800AAF08FEC49F0A7C0AFF0A8C0B0F060EC60
:1040B80053F0300E0001AF25BF6F000EB021C06F66
:1040C800E8EC4BF0000E0001926F000E936F200E8B
:1040D800946F410E956FD151040D670EF324D96E7C
:1040E800010EF420DA6EDECF8EF0DECF8FF0DECF59
:1040F80090F0DECF91F02DEC39F08EC0A7F08FC094
:10410800A8F090C0A9F091C0AAF08FEC49F0A7C020
:1041180017F0A8C018F0000E1A6E0A0E196E5BECA4
:104128004FF017C0AFF018C0B0F060EC53F0300E8D
:104138000001AF25BF6F000EB021C06FE8EC4BF057
:10414800000E0001C06F410EBF6FE8EC4BF000019C
:10415800D12B60D7000E9FEC48F0000E1C6E040EA9
:10416800D2EC53F03AA015D0050E396009D02C0EC8
:104178000001C66FFC0EC76F050EADEC4EF0EED019
:104188009F0E0001C66FFB0EC76F050EADEC4EF01B
:10419800E5D03AAA15D0050E396009D02C0E0001D9
:1041A800C66FFC0EC76F050EADEC4EF0D7D0950E5E
:1041B8000001C66FFB0EC76F050EADEC4EF0CED0FA
:1041C8004804D8B404D0020E4818D8A438D0CF0E6A
:1041D8000001C66FFC0EC76F050EADEC4EF03850EF
:1041E800D8B4BCD0000E0101386F640E376F38C0E8
:1041F8001DF01E6A000E206E0A0E1F6E70EC4DF048
:10420800300E1D240001BF6F000E1E20C06F4FEC42
:1042180042F038C017F0186A000E1A6E0A0E196EAE
:104228005BEC4FF0300E17240001BF6F000E182012
:10423800C06F4FEC42F0050E00EC50F08FD0030E2B
:104248004818D8A48BD080863C0E01015A6F070EFF
:10425800396025D0040E396019D04750D8B416D02B
:10426800020E4718D8A409D0990E0001C66FFB0E9C
:10427800C76F050EADEC4EF06ED0E10E0001C66FB3
:10428800FC0EC76F050EADEC4EF065D0F60E0001C2
:10429800C66FFB0EC76F050EADEC4EF05CD0000E7E
:1042A8000101386F220E376FE3EC53F073C1B8F099
:1042B80074C1B9F0000E0001BB6F640EBA6F1AEC3E
:1042C80051F0300E0001B825BF6F000EB921C06F44
:1042D8004FEC42F0000E0001BB6F0A0EBA6F73C1BB
:1042E800B8F074C1B9F01AEC51F0B8C0B3F0B9C065
:1042F800B4F0000E0001B66F0A0EB56F1CEC52F058
:10430800300E0001B325BF6F000EB421C06F4FEC13
:1043180042F0000E0001C06F2E0EBF6F4FEC42F04E
:1043280073C1B3F074C1B4F0000E0001B66F0A0E89
:10433800B56F1CEC52F0300E0001B325BF6F000EB4
:10434800B421C06F4FEC42F0000E0001C06F410E67
:10435800BF6F4FEC42F0050E00EC50F0000E1C6EE3
:10436800070ED2EC53F001015A51D8B402D05A07C3
:104378001200809612000101BF6F000E0101C56F87
:10438800000EC46F000EBA6F000EB96F000EB46F46
:10439800000EB36F21C1AFF122C1B0F123C1B1F159
:1043A80024C1B2F14550D8A412D0010EC66F030E35
:1043B800C66501D00CD0C651010D2D0EF324D96E5F
:1043C800010EF420DA6E000EDF6EC62BF0D7020E57
:1043D8002D19D8A411D03D504B5D3E504C59D8B042
:1043E8000BD04BC11DF04CC11EF0000E206E0A0E02
:1043F8001F6E9CEC53F00AD03DC01DF03EC01EF06D
:10440800000E206E0A0E1F6E9CEC53F01DC049F181
:104418001EC04AF1020E456004D049C111F14AC1DB
:1044280012F1000E0101C66F030EC66501D028D037
:10443800C651010D2D0EF324D96E010EF420DA6E4B
:10444800020EDE18D8A41AD0C44BC52BC651020DD3
:10445800110EF324D96E010EF420DA6EDE50B9275E
:10446800DD50BA23C651020D730EF324D96E010E26
:10447800F420DA6EDE50B327DD50B423C62BD4D730
:10448800BF51D8A44DD0020E4718D8B449D047C15F
:10449800FEF048C1FFF00001FE1FFF1FFE4BFF2B7F
:1044A8003FC01DF040C01EF0000E206E0A0E1F6EA9
:1044B8009CEC53F00001FE511D240101C06F000166
:1044C800FF511E200101C16FC1BF14D0C15103E1CA
:1044D800C005D8A00FD0C0C11DF0C1C11EF0000E8C
:1044E800206E040E1F6E70EC4DF01D500101412727
:1044F8001E5003D0C0514127C151422342AF04D0BE
:10450800000E426F000E416F42BF0AD0210E415D7E
:10451800030E4259D8A004D0030E426F200E416FFB
:10452800BF51D8A46CD0020E4718D8A468D044AFA5
:1045380019D044AF0CD0F60E435DFF0E4459D8B0E5
:1045480006D0050E4125416F000E42211FD043C100
:104558001DF044C11EF0000E206E040E1F6E70EC9C
:104568004DF00AD043C11DF044C11EF0000E206E6C
:10457800020E1F6E70EC4DF01D1E1E1E1D4A1E2AD7
:10458800010141511D24416F42511E20426F3BC021
:104598001DF03CC01EF0000E206E0A0E1F6E9CEC33
:1045A80053F01D500101415D1E504259D8A002D060
:1045B80042AF23D03BC01DF03CC01EF0000E206E61
:1045C8000A0E1F6E9CEC53F01DC041F11EC042F153
:1045D800030E4818D8A40ED0010181518211D8A425
:1045E80044BF08D0445104E10B0E435DD8A002D06B
:1045F800010E04D0000E010101D0000E4E6F3DC027
:104608001DF03EC01EF0000E206E0A0E1F6E9CECC0
:1046180053F0010141511D5C42511E58D8B00ED0D3
:104628003DC01DF03EC01EF0000E206E0A0E1F6E2B
:104638009CEC53F01DC041F11EC042F1B3C11DF006
:10464800B4C11EF0000E206E0A0E1F6E9CEC53F0D3
:104658001D1E1E1E1D4A1E2A010147511D24C26F20
:1046680048511E20C36FC3AF04D0000EC36F000EA5
:10467800C26F4750D8A416D04550D8B40FD03FC009
:104688001DF040C01EF0000E206E0A0E1F6E9CEC3E
:1046980053F01DC041F11EC042F104D049C141F19F
:1046A8004AC142F10101C451C511D8B41200BF5129
:1046B800D8B41DD0C2C1FEF0C3C1FFF00001FE1F77
:1046C800FF1FFE4BFF2B3FC01DF040C01EF0000E29
:1046D800206E0A0E1F6E9CEC53F00001FE511D2443
:1046E8000101416F0001FF511E200101426F42BFCD
:1046F8001FD03BC01DF03CC01EF0C4C11FF0C5C197
:1047080020F09CEC53F01DC0BBF11EC0BCF1BBC136
:104718001DF0BCC11EF0000E206E0A0E1F6E9CEC30
:1047280053F01D500101415D1E504259D8B024D0AC
:10473800552B010E8B6FFB0E8C6F7AEC52F03BC041
:104748001DF03CC01EF0C4C11FF0C5C120F09CEC98
:1047580053F01DC0BBF11EC0BCF1BBC11DF0BCC1F4
:104768001EF0000E206E0A0E1F6E9CEC53F01DC04A
:1047780041F11EC042F103D0000E0101556F010145
:104788004151B95DBA51800A0001FE6F01014251E1
:10479800800A0001FE59D8B004D0B9C141F1BAC1AC
:1047A80042F141C1BDF142C1BEF147C117F048C154
:1047B80018F0196A1A6A000E00EC43F017C08EF060
:1047C80018C08FF019C090F01AC091F0000E0001C7
:1047D800926F000E936F200E946F410E956F2DEC23
:1047E80039F08EC0B5F18FC0B6F190C0B7F191C065
:1047F800B8F141C117F042C118F0000E18BEFF0E03
:10480800196E1A6E010E00EC43F017C08EF018C036
:104818008FF019C090F01AC091F0000E0001926F4D
:10482800000E936F200E946F410E956F2DEC39F0AA
:104838008EC0A5F18FC0A6F190C0A7F191C0A8F1D4
:10484800C2C117F0C3C118F0000E18BEFF0E196ED2
:104858001A6E010E00EC43F017C08EF018C08FF0EE
:1048680019C090F01AC091F0000E0001926F000E6E
:10487800936F200E946F410E956F2DEC39F08EC01A
:10488800A9F18FC0AAF190C0ABF191C0ACF1FE0EB6
:1048980001018B6FF50E8C6FB5C18DF1B6C18EF12C
:1048A800B7C18FF1B8C190F1A5C191F1A6C192F13C
:1048B800A7C193F1A8C194F1A9C195F1AAC196F134
:1048C800ABC197F1ACC198F17AEC52F0000E01013E
:1048D800C66FBDC11DF0BEC11EF0C4C11FF0C5C169
:1048E80020F070EC4DF01DC0ADF11EC0AEF101011D
:1048F800C651010D2D0EF324D96E010EF420DA6E87
:10490800020EDE18D8A449D0C651010DAF0EF3240B
:10491800D96E010EF420DA6EDF50D8A43ED0C6510D
:10492800020D110EF324D96E010EF420DA6EDE505A
:10493800AD5DDE50AE59D8A030D0C651020D110E73
:10494800F324D96E010EF420DA6EC651020D730EEF
:10495800F324E16E010EF420E26EDECFE6FFDDCF38
:10496800E5FFC651010DAF0EF324D96E010EF420F8
:10497800DA6E010EDF6EC407D8A0C507C651020D56
:10498800730EF324D96E010EF420DA6EDE50BD5F8B
:10499800DD50BE5B000EC66F01D0C62B040EC6618B
:1049A80004D0C451C511D8A494D7000EC66FC45101
:1049B800C511D8B44FD0C651010D2D0EF324D96EB0
:1049C800010EF420DA6E020EDE18D8A43BD0C651D0
:1049D800010DAF0EF324D96E010EF420DA6EDF500C
:1049E800D8A430D0BDC11DF0BEC11EF0C4C11FF097
:1049F800C5C120F070EC4DF00101C651020D730ED7
:104A0800F324D96E010EF420DA6E1DC0DEFF1EC03D
:104A1800DDFFC651010DAF0EF324D96E010EF4204F
:104A2800DA6E010EDF6EC407D8A0C507C651020DA5
:104A3800730EF324D96E010EF420DA6EDE50BD5FDA
:104A4800DD50BE5BC62B040EC66104D0C451C5112F
:104A5800D8A4B1D7000EC66F030EC66501D054D0D6
:104A6800C651020D730EF324D96E010EF420DA6ECE
:104A7800DECFFEF0DDCFFFF0FEC017F0FFC018F06C
:104A8800196A1A6A000E00EC43F017C08EF018C0BD
:104A98008FF019C090F01AC091F0000E0001926FCB
:104AA800000E936F200E946F410E956F2DEC39F028
:104AB8008EC0B5F18FC0B6F190C0B7F191C0B8F112
:104AC800850E01018B6FFA0E8C6FC6C18DF18E6B4E
:104AD800C651010D2D0EF324D96E010EF420DA6EA5
:104AE800DF500001FE6FFE5101018F6F906BB5C161
:104AF80091F1B6C192F1B7C193F1B8C194F17AECD2
:104B080052F00101C62BA8D70D0E8B6FFB0E8C6FD0
:104B18007AEC52F012000001FF6FCBEC3BF0000181
:104B2800FE6F3C0E01015A6F80864304D8B43AA840
:104B380002D081A23A985851D8A414D0050E000189
:104B4800FF19D8A40FD001014D51D8A40BD0010EE4
:104B5800586F33C01DF134C01EF135C01FF136C087
:104B680020F190D101015805D8A419D0D00E1D25E7
:104B7800C06F070E1E21C16F000E1F21C26F000EED
:104B88002021C36F3350C05D3450C1593550C259CC
:104B98003650C359D8B003D0020E586F28D05805E4
:104BA800D8A40DD0070E0001FF19D8A408D0000E14
:104BB8000101586F000E4D6F36EC1CF063D10E0EDC
:104BC80001015819D8A415D0020E0001FF19D8A464
:104BD80010D001015751D8B40CD0000E7B6F000ED5
:104BE8007C6F800E7D6F3F0E7E6F000E576F010E3B
:104BF8008CD0010E010158658AD0020E0001FF1900
:104C0800D8B408D0030EFF19D8B404D0060EFF1983
:104C1800D8A47DD001014D51D8A479D05751D8A43A
:104C28005ED063D035C117F036C118F0000E1A6E89
:104C3800640E196E030E1C6EE70E1B6E0001FF5109
:104C4800F0EC50F017C035F118C036F15CD0010116
:104C5800585106EC3FF0AFC031F1B0C032F131C16C
:104C680017F032C118F0010158514A0D440EF326CD
:104C7800000EF422B20EF324F66EE80EF420F76E5E
:104C8800F86A000EF8220900F5CF19F00A00F5CFEE
:104C98001AF058514A0D460EF326000EF422B20EB1
:104CA800F324F66EE80EF420F76EF86A000EF82288
:104CB8000900F5CF1BF00A00F5CF1CF00001FF51E9
:104CC800F0EC50F017C031F118C032F131C131F0B9
:104CD80032C132F001015851FEEC3DF014D001010F
:104CE80058510E0AD8B49ED7B2D758C11EF0700ECC
:104CF8001F6E020E206EFEC021F00001FF5123EC52
:104D08004FF00101586F010EADD04D6FBBD0010EB1
:104D180001015865A9D0050E0001FF19D8A4A4D037
:104D280001014D51D8A4A0D0010E4D6F5751D8B4F0
:104D380065D0000E576F0E0E5819D8A4A3D0335162
:104D4800351904E134513619D8B49CD033C117F061
:104D580034C118F0196A1A6A000E00EC43F017C043
:104D68008EF018C08FF019C090F01AC091F07BC176
:104D780092F07CC193F07DC194F07EC195F02DEC4A
:104D880039F08EC019F18FC01AF190C01BF191C093
:104D98001CF135C117F036C118F0196A1A6A000EED
:104DA80000EC43F017C08EF018C08FF019C090F0D7
:104DB8001AC091F019C192F01AC193F01BC194F076
:104DC8001CC195F02DEC39F08EC07BF18FC07CF1C1
:104DD80090C07DF191C07EF135C117F036C118F051
:104DE800196A1A6A000E00EC43F017C067F118C080
:104DF80068F119C069F11AC06AF144D0010E0101C5
:104E0800576F0E0E5819D8A419D067C1A7F068C1FA
:104E1800A8F069C1A9F06AC1AAF08FEC49F0A7C04F
:104E2800AFF0A8C0B0F060EC53F0AFC035F1B0C03F
:104E380036F135C133F136C134F124D0170E0101F2
:104E48005819D8A41FD0000E586F000E576F000EC7
:104E58003A6E000E376E000E386E36EC1CF0E7EC3A
:104E68003CF0020E010151D7070E0001FF19D8A42A
:104E780009D0000E01014D6F000E186E0A0E176E54
:104E88003EEC52F001014D05D8B403D05805D8A422
:104E980041D15805D8A425D0000E1C6E000ED2ECC6
:104EA80053F0040E1C6E010ED2EC53F0800E00017C
:104EB800C66FFB0EC76F020EADEC4EF01A0E000166
:104EC800C66FFC0EC76F040EADEC4EF0100E1C6ED4
:104ED800060ED2EC53F0000E1C6E070ED2EC53F007
:104EE80016D1010158514A0D070EF326000EF4227F
:104EF800B20EF3240001F86FE80EF420F96F020EE9
:104F0800FA6F32EC4BF0FDD0E3EC53F0010157514E
:104F1800D8B456D030EC53F0000E0101386F280E8B
:104F2800376F35C1B8F036C1B9F0000E0001BB6F5C
:104F3800640EBA6F1AEC51F0300E0001B825BF6F3D
:104F4800000EB921C06F4FEC42F0000E0001B66FA1
:104F5800640EB56F35C1B3F036C1B4F01CEC52F035
:104F6800B3C0B8F0B4C0B9F0000E0001BB6F0A0EB0
:104F7800BA6F1AEC51F0300E0001B825BF6F000E61
:104F8800B921C06F4FEC42F0000E0001C06F2E0E29
:104F9800BF6F4FEC42F035C1B3F036C1B4F0000E2C
:104FA8000001B66F0A0EB56F1CEC52F0300E00010E
:104FB800B325BF6F000EB421C06F4FEC42F083D011
:104FC800000E0101386F280E376F67C1A7F068C15E
:104FD800A8F069C1A9F06AC1AAF08FEC49F0A7C08E
:104FE800AFF0A8C0B0F060EC53F0AFC0B8F0B0C0FC
:104FF800B9F0000E0001BB6F640EBA6F1AEC51F0E5
:10500800300E0001B825BF6F000EB921C06F4FECFC
:1050180042F0000E0001B66F640EB56F67C1A7F0CD
:1050280068C1A8F069C1A9F06AC1AAF08FEC49F07B
:10503800A7C0AFF0A8C0B0F060EC53F0AFC0B3F0B9
:10504800B0C0B4F01CEC52F0B3C0B8F0B4C0B9F0C2
:10505800000E0001BB6F0A0EBA6F1AEC51F0300E49
:105068000001B825BF6F000EB921C06F4FEC42F0A8
:10507800000E0001C06F2E0EBF6F4FEC42F067C1EB
:10508800A7F068C1A8F069C1A9F06AC1AAF08FECBD
:1050980049F0A7C0AFF0A8C0B0F060EC53F0AFC0C3
:1050A800B3F0B0C0B4F0000E0001B66F0A0EB56FD1
:1050B8001CEC52F0300E0001B325BF6F000EB42176
:1050C800C06F4FEC42F0000E0101386F580E376F79
:1050D800000E0001C06F410EBF6F4FEC42F0040E8E
:1050E80000EC50F014D00101585153EC36F0E7C0F1
:1050F800F8F0E8C0F9F0040E0001FA6F32EC4BF05A
:1051080006D0010158510E0AD8B4FED6ECD7020ECB
:1051180001014D6F33C025F134C026F135C027F1A8
:1051280036C028F1000E566FFFC0EAF1000E396E46
:105138001200000E0101486F000E476F000E466F07
:10514800000E456F000E446F000E436F000EDB6FBC
:10515800020EDB6501D09DD047C117F048C118F099
:10516800196A1A6A000E00EC43F017C025F018C03F
:1051780026F019C027F01AC028F00101DB51040DF0
:10518800670EF324D96E010EF420DA6EDECF29F013
:10519800DECF2AF0DECF2BF0DECF2CF073EC45F01B
:1051A800D8B017D00101DB51040D670EF324D96E76
:1051B800010EF420DA6EDECFA7F0DECFA8F0DECF46
:1051C800A9F0DECFAAF08FEC49F0A7C047F1A8C03C
:1051D80048F10101DB51040D670EF324D96E010E6D
:1051E800F420DA6EDECF25F0DECF26F0DECF27F012
:1051F800DECF28F045C117F046C118F0000E18BEE2
:10520800FF0E196E1A6E010E00EC43F017C029F05C
:1052180018C02AF019C02BF01AC02CF073EC45F016
:10522800D8B017D00101DB51040D670EF324D96EF5
:10523800010EF420DA6EDECFA7F0DECFA8F0DECFC5
:10524800A9F0DECFAAF08FEC49F0A7C045F1A8C0BD
:1052580046F10101DB51040D670EF324D96E010EEE
:10526800F420DA6EDECFA7F0DECFA8F0DECFA9F00B
:10527800DECFAAF08FEC49F0010143510001A725C8
:105288000101436F44510001A8210101446FDB2B48
:105298005FD74750D8B4A0D1020E45609DD1000E0B
:1052A800BFEC21F0030E0101556111D03FC01DF084
:1052B80040C01EF0000E206E140E1F6E9CEC53F0C2
:1052C800010147511D5C48511E58D8B023D03A8679
:1052D800000EDB6F030EDB6501D00CD0DB51010D36
:1052E8002D0EF324D96E010EF420DA6E000EDF6E57
:1052F800DB2BF0D7000E0001746F020E736F000EE7
:10530800766F010E756F000EE5EC52F0000E01018C
:10531800556F04D04550D8A444EC54F0020E4818F8
:10532800D8B404D0030E4818D8A406D073C1AFF07F
:1053380074C1B0F092EC46F045C117F046C118F0C0
:10534800000E18BEFF0E196E1A6E010E00EC43F027
:1053580017C08EF018C08FF019C090F01AC091F0E5
:10536800000E0001926F000E936F200E946F410E95
:10537800956F2DEC39F08EC0C7F18FC0C8F190C081
:10538800C9F191C0CAF147C117F048C118F0196AAC
:105398001A6A000E00EC43F017C08EF018C08FF0A8
:1053A80019C090F01AC091F0000E0001926F000E23
:1053B800936F200E946F410E956F2DEC39F08EC0CF
:1053C800CBF18FC0CCF190C0CDF191C0CEF141C1ED
:1053D80017F042C118F0000E18BEFF0E196E1A6EB3
:1053E800010E00EC43F017C08EF018C08FF019C002
:1053F80090F01AC091F0000E0001926F000E936FAA
:10540800200E946F410E956F2DEC39F08EC0CFF1C0
:105418008FC0D0F190C0D1F191C0D2F1540E0101EA
:105428008B6FF00E8C6F400E48248D6F8E6B000EC4
:105438008E233AC08FF1906B83C191F184C192F1B0
:10544800C7C193F1C8C194F1C9C195F1CAC196F118
:1054580038C097F1986B39C199F13AC19AF155C1A1
:105468009BF19C6BCBC19DF1CCC19EF1CDC19FF14D
:10547800CEC1A0F1CFC1A1F1D0C1A2F1D1C1A3F198
:10548800D2C1A4F17AEC52F06FC17EF070C17FF006
:1054980071C180F072C181F06BC17AF06CC17BF090
:1054A8006DC17CF06EC17DF0B4EC34F07AC0D3F1FC
:1054B8007BC0D4F17CC0D5F17DC0D6F167C17EF048
:1054C80068C17FF069C180F06AC181F0D3C17AF008
:1054D800D4C17BF0D5C17CF0D6C17DF0B4EC34F0FA
:1054E8007AC08EF07BC08FF07CC090F07DC091F0C8
:1054F800000E0001926F000E936F200E946F410E04
:10550800956F2DEC39F08EC0D7F18FC0D8F190C0CF
:10551800D9F191C0DAF1D00E01018B6FF60E8C6FC4
:1055280067C18EF068C18FF069C190F06AC191F0CF
:10553800000E0001926F000E936F200E946F410EC3
:10554800956F2DEC39F08EC08DF18FC08EF190C023
:105558008FF191C090F16BC18EF06CC18FF06DC16D
:1055680090F06EC191F0000E0001926F000E936FE3
:10557800200E946F410E956F2DEC39F08EC091F18D
:105588008FC092F190C093F191C094F16FC18EF0E9
:1055980070C18FF071C190F072C191F0000E0001DE
:1055A800926F000E936F200E946F410E956F2DEC45
:1055B80039F08EC095F18FC096F190C097F191C0E7
:1055C80098F1D7C199F1D8C19AF1D9C19BF1DAC143
:1055D8009CF17AEC52F01200000E0101486F000EA7
:1055E800476F12000001756F000175AF24D1756D0A
:1055F8007551800A120FD8A0A3D0000E206E0A0E93
:105608001F6E000E1A6E640E196E7551176E186AA9
:1056180017BE18065BEC4FF017C01DF018C01EF03F
:1056280070EC4DF0D8901D361E36D8901D361E36BB
:10563800240E1D26000E1E22360E1D24F66EE80EC0
:105648001E20F76EF86A000EF8220900F5CF29F03F
:105658000900F5CF2AF00900F5CF2BF00A00F5CFA5
:105668002CF0000E206E640E1F6E000175511D6E29
:105678001E6A1DBE1E0670EC4DF0D8901D361E36F3
:10568800D8901D361E36480E1D26000E1E22360ED8
:105698001D24F66EE80E1E20F76EF86A000EF8223A
:1056A8000900F5CF25F00900F5CF26F00900F5CF60
:1056B80027F00A00F5CF28F00BEC33F025C071F085
:1056C80026C072F027C073F028C074F071C025F0AE
:1056D80072C026F073C027F074C028F0000E1A6E4E
:1056E8000A0E196E00017551176E186A17BE180652
:1056F8005BEC4FF0D89017361836D8901736183616
:10570800360E1724F66EE80E1820F76EF86A000EAB
:10571800F8220900F5CF29F00900F5CF2AF0090091
:10572800F5CF2BF00A00F5CF2CF00BEC33F025C0A9
:105738006DF026C06EF027C06FF028C070F0120020
:1057480000017551800A750FD8A05CD0000E206E3C
:105758000A0E1F6E75511D6E1E6A1DBE1E0670EC68
:105768004DF0D8901D361E36D8901D361E36240EA4
:105778001D26000E1E22360E1D24F66EE80E1E2073
:10578800F76EF86A000EF8220900F5CF25F0090037
:10579800F5CF26F00900F5CF27F00A00F5CF28F05D
:1057A800000E1A6E0A0E196E00017551176E186AEE
:1057B80017BE18065BEC4FF0D89017361836D890FD
:1057C80017361836360E1724F66EE80E1820F76EC0
:1057D800F86A000EF8220900F5CF29F00900F5CF84
:1057E8002AF00900F5CF2BF00A00F5CF2CF00BECCE
:1057F80033F025C06DF026C06EF027C06FF028C0CA
:1058080070F0120000017551040D360EF324F66E87
:10581800E80EF420F76EF86A000EF8220900F5CFBA
:105828006DF00900F5CF6EF00900F5CF6FF00A00B2
:10583800F5CF70F012007551800A120FD8A0A3D0CE
:10584800000E206E0A0E1F6E000E1A6E640E196E80
:105858007551176E186A17BE18065BEC4FF017C023
:105868001DF018C01EF070EC4DF0D8901D361E3695
:10587800D8901D361E36240E1D26000E1E22020E3E
:105888001D24F66EE80E1E20F76EF86A000EF82248
:105898000900F5CF29F00900F5CF2AF00900F5CF66
:1058A8002BF00A00F5CF2CF0000E206E640E1F6E50
:1058B800000175511D6E1E6A1DBE1E0670EC4DF06E
:1058C800D8901D361E36D8901D361E36480E1D2619
:1058D800000E1E22020E1D24F66EE80E1E20F76E24
:1058E800F86A000EF8220900F5CF25F00900F5CF77
:1058F80026F00900F5CF27F00A00F5CF28F00BECC9
:1059080033F025C071F026C072F027C073F028C0AC
:1059180074F071C025F072C026F073C027F074C00F
:1059280028F0000E1A6E0A0E196E00017551176ED6
:10593800186A17BE18065BEC4FF0D8901736183661
:10594800D89017361836020E1724F66EE80E18206F
:10595800F76EF86A000EF8220900F5CF29F0090061
:10596800F5CF2AF00900F5CF2BF00A00F5CF2CF07F
:105978000BEC33F025C06DF026C06EF027C06FF039
:1059880028C070F0120000017551800A750FD8A068
:105998005CD0000E206E0A0E1F6E75511D6E1E6AB9
:1059A8001DBE1E0670EC4DF0D8901D361E36D890E0
:1059B8001D361E36240E1D26000E1E22020E1D2424
:1059C800F66EE80E1E20F76EF86A000EF82209003F
:1059D800F5CF25F00900F5CF26F00900F5CF27F01F
:1059E8000A00F5CF28F0000E1A6E0A0E196E000193
:1059F8007551176E186A17BE18065BEC4FF0D890F1
:105A080017361836D89017361836020E1724F66E41
:105A1800E80E1820F76EF86A000EF8220900F5CF94
:105A280029F00900F5CF2AF00900F5CF2BF00A007C
:105A3800F5CF2CF00BEC33F025C06DF026C06EF0DE
:105A480027C06FF028C070F0120000017551040DD6
:105A5800020EF324F66EE80EF420F76EF86A000ED4
:105A6800F8220900F5CF6DF00900F5CF6EF00900B6
:105A7800F5CF6FF00A00F5CF70F012000001A951C0
:105A8800AA11D8B40CD0A9C0D9FFAAC0DAFFA7C000
:105A9800DEFFA8C0DDFF03D00001A74BA82BA7C0DD
:105AA800D9FFA8C0DAFFDF50AB6FAB5189EC53F0D8
:105AB800D8B0F2D7000E0001AC6F2D0EAB19D8A4E8
:105AC80003D0010EAC6F04D02B0EAB19D8A402D0B2
:105AD800A74BA82B000EAB6F000EAE6F000EAF6F7A
