:0400000096EF01F086
:100008004982FACF05F0FBCF06F0E9CF07F0EACF37
:1000180008F0E1CF09F0E2CF0AF0D9CF0BF0DACF40
:100028000CF0F3CF0DF0F4CF0EF0F6CF0FF0F7CFC2
:1000380010F0F8CF11F0F5CF12F049C013F04AC014
:1000480014F04BC015F04CC016F032D0AECF61F1B1
:10005800030E01012725016E000E2821026E000EF5
:100068002921036E000E2A21046E3350015C34509E
:1000780002583550035836500458D8B002D0000EF4
:100088005F6F320E5F19D8B45F075F51010D640EC0
:10009800F324D96E030EF420DA6E61C1DFFF5F2B03
:1000A80033C027F134C028F135C029F136C02AF110
:1000B8009EBACCD79EB89DA850D001015B51010DC6
:1000C800000EF324D96E030EF420DA6EDF50AD6E05
:1000D8005B2B5A515B19D8B404D0320E5B19D8A4E3
:1000E8003CD09D98000E5B6F38D071B4D0A20BD075
:1000F8004804D8A408D074CF61F101016151D8A493
:1001080004D0FF0002D074CF61F1D08261C173FFC7
:10011800320E01015E19D8B45E07080E6119D8A421
:1001280005D05E51D8B402D05E0717D00D0E611904
:10013800D8B404D00A0E6119D8A404D0000E616F97
:100148005E295C6F5E51010D3E0EF324D96E020EDE
:10015800F420DA6E61C1DFFF5E2BA4AABBD0C5D73D
:100168004604D8A456D03A50D8A404D0030E481850
:10017800D8B427D02C0E01013B5D010E3C59D8B0F4
:1001880002D0809801D08088808A3B51016E3C5112
:10019800026E3B4B3C2B910E015C010E0258D8A01D
:1001A80060D082B20AD0890E3B5D130E3C59D8A0AC
:1001B80058D0000E3C6F000E53D0010E3C6F900ECD
:1001C8004FD02C0E01013D5D010E3E59D8B003D031
:1001D8008088809A02D08088808A3D51016E3E5185
:1001E800026E3D4B3E2B910E015C010E0258D8A0C9
:1001F8005BD082A20AD0890E3D5D130E3E59D8A06D
:1002080053D0000E3E6F000E4ED0010E3E6F900E82
:100218004AD0020E4618D8A44BD03A50D8A404D0DD
:10022800030E4818D8B422D0580E01013B5D020EC7
:100238003C59D8B002D0809801D08088808A3B5140
:10024800016E3C51026E3B4B3C2BBD0E015C020E15
:100258000258D8A006D082B2A6D7020E3C6FBC0EB8
:100268003B6F000E3E6F000E3D6F22D0580E01010D
:100278003D5D020E3E59D8B003D08088809A02D0E6
:100288008088808A3D51016E3E51026E3D4B3E2B67
:10029800BD0E015C020E0258D8A006D082A2ABD7D0
:1002A800020E3E6FBC0E3D6F000E3C6F000E3B6FA2
:1002B800010E3326000E3422352236220101520760
:1002C8005229D8A406D04FC167FF0A0E526F010EFB
:1002D800516F7E907EB044D716C04CF015C04BF0DD
:1002E80014C04AF013C049F012C0F5FF11C0F8FF5E
:1002F80010C0F7FF0FC0F6FF0EC0F4FF0DC0F3FFEC
:100308000CC0DAFF0BC0D9FF0AC0E2FF09C0E1FF49
:1003180008C0EAFF07C0E9FF06C0FBFF05C0FAFFF7
:1003280049921100D1EF4BF0BDEF0CF0250E000102
:10033800D819D8B438D020EE02F0AF51D926B05130
:10034800DA22DE50DE10D8B417D020EE02F0AF511A
:10035800D926B051DA22DECFB5F0DDCFB6F002D81B
:10036800BDEF0CF00500FA6EB551FD6EB651FE6E8C
:10037800FF6AFA50D8511200AFC0D9FFB0C0DAFFF7
:10038800DECFB5F0DDCFB6F0B5C0D9FFB6C0DAFF25
:10039800D8C0DFFFAFC0D9FFB0C0DAFFDE2A000E39
:1003A800DD22BDEF0CF0000E0001D36F000ED26FFE
:1003B800000ED76F000ED66F07D00001D68702D087
:1003C8000001D685B14BB22BB1C0F6FFB2C0F7FF22
:1003D800F86A0F0EF76403D00800F55005D0F6CF81
:1003E800E1FFF7CFE2FFE7502D0AD8B4E6D71D0AA0
:1003F800D8B4E6D70001D6B7D695B1C0F6FFB2C0DB
:10040800F7FFF86A0F0EF76403D00800F55005D01F
:10041800F6CFE1FFF7CFE2FFE750BDEC53F0D8A0ED
:1004280049D0000E0001D36F000ED26FD2C01DF06C
:10043800D3C01EF0000E206E0A0E1F6E24EC53F07F
:100448001DC0D2F01EC0D3F0D00E0001B56FFF0E54
:10045800B66FB1C0F6FFB2C0F7FFF86A0F0EF764C7
:1004680003D00800F55005D0F6CFE1FFF7CFE2FF43
:10047800E7500001B76FB86BB551B727B651B8232D
:10048800B751D227B851D323B14BB22BB1C0F6FF25
:10049800B2C0F7FFF86A0F0EF76403D00800F550F2
:1004A80005D0F6CFE1FFF7CFE2FFE750BDEC53F000
:1004B800D8B0BCD7B1C0F6FFB2C0F7FFF86A0F0ECC
:1004C800F76403D00800F55005D0F6CFE1FFF7CF69
:1004D800E2FFE7502E0AD8A446D00001D78DB14BD1
:1004E800B22B000ED56F000ED46F28D0D4C01DF0EB
:1004F800D5C01EF0000E206E0A0E1F6E24EC53F0BD
:10050800B1C0F6FFB2C0F7FFF86A0F0EF76403D068
:100518000800F55005D0F6CFE1FFF7CFE2FFE7502E
:100528000001B56FB5511D26000E1E22D00E1D24E8
:10053800D46FFF0E1E20D56FB14BB22BB1C0F6FFA2
:10054800B2C0F7FFF86A0F0EF76403D00800F55041
:1005580005D0F6CFE1FFF7CFE2FFE750BDEC53F04F
:10056800D8A06ED1C3D7000E0001D56F000ED46F8E
:10057800D78966D1D7859BD1D68BD68F98D1B3C072
:10058800D9FFB4C0DAFFDFCFB5F0020EDE26DFCF29
:10059800B6F0000EDD22B5C0D9FFB6C0DAFFDECF57
:1005A800C0F0DDCFC1F0C051C111D8A404D0640E91
:1005B800C06FFC0EC16F000EC36F000EC26F03D078
:1005C8000001C24BC32BC251C025B56FC351C12115
:1005D800B66FB5C0F6FFB6C0F7FFF86A0F0EF7643E
:1005E80003D00800F55005D0F6CFE1FFF7CFE2FFC2
:1005F800E7500009D8A4E4D70001D451D511D8B4E4
:100608000AD0C251D45DC351D559D8B004D0D4C092
:10061800C2F0D5C0C3F0D251C25DD351C359D8B0CE
:1006280005D0C251D25FC351D35B04D0000ED36F43
:10063800000ED26FD6A736D099D020EE02F0AF5177
:10064800D926B051DA22DE50DE10D8B416D020EE0A
:1006580002F0AF51D926B051DA22DECFB5F0DDCFA6
:10066800B6F001D81FD00500FA6EB551FD6EB6512F
:10067800FE6EFF6AFA50200E1200AFC0D9FFB0C05C
:10068800DAFFDECFB5F0DDCFB6F0B5C0D9FFB6C022
:10069800DAFF200EDF6EAFC0D9FFB0C0DAFFDE2A66
:1006A800000EDD220001D207D8A0D307D229C5E168
:1006B800D329D8B45BD0C1D720EE02F0AF51D926E8
:1006C800B051DA22DE50DE10D8B429D020EE02F084
:1006D800AF51D926B051DA22DECFB5F0DDCFB6F072
:1006E80001D819D00500FA6EB551FD6EB651FE6EEF
:1006F800FF6AFA50C0C0F6FFC1C0F7FFF86A0F0ED4
:10070800F76403D00800F55005D0F6CFE1FFF7CF26
:10071800E2FFE75012000001C04BC12B27D0C0C038
:10072800F6FFC1C0F7FFF86AAFC0D9FFB0C0DAFF63
:10073800DECFB5F0DDCFB6F0B5C0D9FFB6C0DAFF71
:100748000F0EF76403D00800F55005D0F6CFE1FF8F
:10075800F7CFE2FFE750DF6E0001C04BC12BAFC0FF
:10076800D9FFB0C0DAFFDE2A000EDD22C207D8A00A
:10077800C307C229A1E1C329D8A49ED7D6B737D0C9
:10078800BDEF0CF020EE02F0AF51D926B051DA22BD
:10079800DE50DE10D8B416D020EE02F0AF51D926C4
:1007A800B051DA22DECFB5F0DDCFB6F001D81FD0D8
:1007B8000500FA6EB551FD6EB651FE6EFF6AFA502D
:1007C800200E1200AFC0D9FFB0C0DAFFDECFB5F0FF
:1007D800DDCFB6F0B5C0D9FFB6C0DAFF200EDF6EA8
:1007E800AFC0D9FFB0C0DAFFDE2A000EDD2200015B
:1007F800D207D8A0D307D229C5E1D329D8B4BDEFF1
:100808000CF0C0D7B3C0D9FFB4C0DAFFDFCFB5F062
:10081800020EDE26DFCFB6F0000EDD22B5C0D9FF0E
:10082800B6C0DAFFDF50D86FD80EC06F000EC16FA8
:10083800000EC36F010EC26FDFD6C00ED61337D0BD
:100848000001B151B56FB251B66FB14BB22BB5C003
:10085800F6FFB6C0F7FFF86A0F0EF76403D008007A
:10086800F55005D0F6CFE1FFF7CFE2FFE7500001E2
:10087800D86FD851000AD8B4DAEF0CF0580AD8B4B7
:100888007BD63B0AD8B4BED7070AD8B410D0020A20
:10089800D8B470D60F0AD8B40AD01A0AD8B46FD60A
:1008A800060AD8B4CAD70D0AD8B467D6BDD7070E7A
:1008B800D715D8B4AAEF09F0D7A904D0000ED56F80
:1008C800060ED46FB3C0D9FFB4C0DAFFDFCFB5F0DE
:1008D800040EDE26DFCFB6F0000EDD22B5C0D9FF4C
:1008E800B6C0DAFFDECFCEF0DECFCFF0DECFD0F06D
:1008F800DECFD1F0D1AF15D0CEC017F0CFC018F0F1
:10090800D0C019F0D1C01AF0A7EC52F017C0CEF041
:1009180018C0CFF019C0D0F01AC0D1F0030E0001F2
:10092800D613000EC56F000EC46FCE51CF11D01173
:10093800D111D8B482D0D035D135820FC46FC56BF0
:10094800FF0EC523C407D8A0C507C4C01DF0C5C085
:100958001EF0000E206E030E1F6E24EC53F01DC017
:10096800C4F01EC0C5F0C4C01DF0C5C01EF0000E06
:10097800206E0A0E1F6E00EC4DF01DC0C4F01EC0A4
:10098800C5F00001C5AF03D0C407D8A0C507C4513E
:100998000008B9EC2AF06DC0C6F06EC0C7F06FC091
:1009A800C8F070C0C9F0C6C025F0C7C026F0C8C0DE
:1009B80027F0C9C028F0CEC029F0CFC02AF0D0C097
:1009C8002BF0D1C02CF0B0EC32F025C0C6F026C018
:1009D800C7F027C0C8F028C0C9F0C6C025F0C7C0F6
:1009E80026F0C8C027F0C9C028F0000E296E000EF6
:1009F8002A6E800E2B6E3F0E2C6E08EC45F0D8B098
:100A080005D00001C407D8A0C50717D0C6C025F077
:100A1800C7C026F0C8C027F0C9C028F0000E296E4C
:100A2800000E2A6E200E2B6E410E2C6E08EC45F03F
:100A3800D8A003D00001C44BC52B0001D5BF06D0F8
:100A4800D55121E10D0ED45DD8B01DD0CEC07AF0BD
:100A5800CFC07BF0D0C07CF0D1C07DF0D4516BEC1E
:100A680037F06DC07EF06EC07FF06FC080F070C050
:100A780081F059EC34F07AC0CEF07BC0CFF07CC066
:100A8800D0F07DC0D1F00001C5BF06D0C55122E12C
:100A98000A0EC45DD8B01ED0CE51CF11D011D111DD
:100AA800D8B463D0CEC0A7F0CFC0A8F0D0C0A9F00A
:100AB800D1C0AAF024EC49F00001A751A811A9114E
:100AC800AA11D8B4C5BF51D0C55104E1020EC45D06
:100AD800D8A04BD0C6C025F0C7C026F0C8C027F0A4
:100AE800C9C028F05F0E296E700E2A6E890E2B6E13
:100AF800400E2C6E08EC45F0D8B003D00001F70E7C
:100B080002D00001F80EC427FF0EC523C451B9EC6A
:100B18002AF06DC0C6F06EC0C7F06FC0C8F070C0D4
:100B2800C9F0CEC017F0CFC018F0D0C019F0D1C0AE
:100B38001AF0C6C01BF0C7C01CF0C8C01DF0C9C061
:100B48001EF074EC44F017C0CAF018C0CBF019C0FE
:100B5800CCF01AC0CDF0000E0001CE6F000ECF6FA2
:100B6800000ED06F000ED16F3CD0CEC0A7F0CFC022
:100B7800A8F0D0C0A9F0D1C0AAF024EC49F0A7C0D1
:100B8800CAF0A8C0CBF0A9C0CCF0AAC0CDF0CEC0A6
:100B98008EF0CFC08FF0D0C090F0D1C091F0CAC015
:100BA80017F0CBC018F0CCC019F0CDC01AF0000E69
:100BB80095EC42F017C092F018C093F019C094F069
:100BC8001AC095F021EC51F08EC0CEF08FC0CFF056
:100BD80090C0D0F091C0D1F0000E0001C56F000E9A
:100BE800C46F010ED86F0A0ED819D8B41BD0D851CB
:100BF800040D6A0EF324F66EE80EF420F76EF86A18
:100C0800000EF8220900F550CA5D0900F550CB59CD
:100C18000900F550CC590900F550CD59D8A002D09B
:100C2800D82BE1D7D8C0B5F0B66BB5BFB607D4514D
:100C3800B527D551B623C451B527C551B623B551EB
:100C4800D25FB651D35BD451D511D8B403D0D207F3
:100C5800D8A0D307030ED615B56F000ED715B66FFB
:100C6800B551B611D8B403D0D207D8A0D307D6A5AA
:100C780083D0030ED615B56F000ED715B66FB551D4
:100C8800B611D8B470D020EE02F0AF51D926B051C9
:100C9800DA22DE50DE10D8B416D020EE02F0AF51C2
:100CA800D926B051DA22DECFB5F0DDCFB6F001D8C3
:100CB8005AD00500FA6EB551FD6EB651FE6EFF6A48
:100CC800FA502D0E1200AFC0D9FFB0C0DAFFDECF48
:100CD800B5F0DDCFB6F0B5C0D9FFB6C0DAFF2D0E3E
:100CE800DF6EAFC0D9FFB0C0DAFFDE2A000EDD220A
:100CF8003AD0000120EE02F0AF51D926B051DA22E5
:100D0800DE50DE10D8B416D020EE02F0AF51D9264E
:100D1800B051DA22DECFB5F0DDCFB6F001D81FD062
:100D28000500FA6EB551FD6EB651FE6EFF6AFA50B7
:100D3800300E1200AFC0D9FFB0C0DAFFDECFB5F079
:100D4800DDCFB6F0B5C0D9FFB6C0DAFF300EDF6E22
:100D5800AFC0D9FFB0C0DAFFDE2A000EDD220001E5
:100D6800D207D8A0D3070001D3BFFED0D351C1E129
:100D7800D205D8A0F9D0BDD7D6A73AD040D020EE1A
:100D880002F0AF51D926B051DA22DE50DE10D8B4C5
:100D980016D020EE02F0AF51D926B051DA22DECFBC
:100DA800B5F0DDCFB6F001D81FD00500FA6EB55109
:100DB800FD6EB651FE6EFF6AFA50200E1200AFC0EB
:100DC800D9FFB0C0DAFFDECFB5F0DDCFB6F0B5C0E1
:100DD800D9FFB6C0DAFF200EDF6EAFC0D9FFB0C0B2
:100DE800DAFFDE2A000EDD220001D207D8A0D307E1
:100DF800D3BF05D0D351C3E1D205D8B0C0D7030EB5
:100E0800D615B56F000ED715B66FB551B611D8B453
:100E1800ABD020EE02F0AF51D926B051DA22DE5025
:100E2800DE10D8B416D020EE02F0AF51D926B0515A
:100E3800DA22DECFB5F0DDCFB6F001D895D00500C7
:100E4800FA6EB551FD6EB651FE6EFF6AFA502D0E60
:100E58001200AFC0D9FFB0C0DAFFDECFB5F0DDCFEA
:100E6800B6F0B5C0D9FFB6C0DAFF2D0E75D0CAC02E
:100E780017F0CBC018F0CCC019F0CDC01AF00001A3
:100E8800D851040D6A0EF324F66EE80EF420F76EBE
:100E9800F86A000EF8220900F5CF1BF00900F5CF1B
:100EA8001CF00900F5CF1DF00A00F5CF1EF042EC4A
:100EB8004DF017C0C6F018C0C7F019C0C8F01AC066
:100EC800C9F0C6C024F0C7C025F0C8C026F0C9C004
:100ED80027F00A0E286E000E296E000E2A6E000EEC
:100EE8002B6EC5EC4FF024C0C6F025C0C7F026C055
:100EF800C8F027C0C9F0000120EE02F0AF51D92692
:100F0800B051DA22DE50DE10D8B417D020EE02F04D
:100F1800AF51D926B051DA22DECFB5F0DDCFB6F029
:100F280001D822D00500FA6EB551FD6EB651FE6E9D
:100F3800FF6AFA50C651300F12000001C651300F37
:100F4800AFC0D9FFB0C0DAFFDECFB5F0DDCFB6F065
:100F5800B5C0D9FFB6C0DAFFDF6EAFC0D9FFB0C0E9
:100F6800DAFFDE2A000EDD220001D807D829D8B41E
:100F78003AD07DD720EE02F0AF51D926B051DA220F
:100F8800DE50DE10D8B416D020EE02F0AF51D926CC
:100F9800B051DA22DECFB5F0DDCFB6F001D81FD0E0
:100FA8000500FA6EB551FD6EB651FE6EFF6AFA5035
:100FB800300E1200AFC0D9FFB0C0DAFFDECFB5F0F7
:100FC800DDCFB6F0B5C0D9FFB6C0DAFF300EDF6EA0
:100FD800AFC0D9FFB0C0DAFFDE2A000EDD22000163
:100FE800C407D8A0C507C5BF05D0C551C3E1C4050E
:100FF800D8B0C0D7D5BF09D0D55104E1090ED45D0A
:10100800D8A003D0080ED86F02D0D4C0D8F0D851D9
:10101800D45F000ED8BFFF0ED55BD851D8B435D0F9
:1010280020EE02F0AF51D926B051DA22DE50DE10A0
:10103800D8B416D020EE02F0AF51D926B051DA223A
:10104800DECFB5F0DDCFB6F001D81FD00500FA6EBF
:10105800B551FD6EB651FE6EFF6AFA502E0E1200A3
:10106800AFC0D9FFB0C0DAFFDECFB5F0DDCFB6F044
:10107800B5C0D9FFB6C0DAFF2E0EDF6EAFC0D9FFFC
:10108800B0C0DAFFDE2A000EDD220001D851B9EC2B
:101098002AF06DC0B9F06EC0BAF06FC0BBF070C076
:1010A800BCF0CEC029F0CFC02AF0D0C02BF0D1C000
:1010B8002CF0B9C025F0BAC026F0BBC027F0BCC0E0
:1010C80028F0B0EC32F025C0A7F026C0A8F027C061
:1010D800A9F028C0AAF024EC49F0A7C0CAF0A8C01B
:1010E800CBF0A9C0CCF0AAC0CDF0A7D0CAC017F0E9
:1010F800CBC018F0CCC019F0CDC01AF00001D851FF
:10110800040D6A0EF324F66EE80EF420F76EF86A02
:10111800000EF8220900F5CF1BF00900F5CF1CF0EE
:101128000900F5CF1DF00A00F5CF1EF042EC4DF096
:1011380017C0C6F018C0C7F019C0C8F01AC0C9F067
:10114800C6C024F0C7C025F0C8C026F0C9C027F023
:101158000A0E286E000E296E000E2A6E000E2B6EE7
:10116800C5EC4FF024C0C6F025C0C7F026C0C8F0B3
:1011780027C0C9F0000120EE02F0AF51D926B051C6
:10118800DA22DE50DE10D8B417D020EE02F0AF51CC
:10119800D926B051DA22DECFB5F0DDCFB6F001D8CE
:1011A80022D00500FA6EB551FD6EB651FE6EFF6A8B
:1011B800FA50C651300F12000001C651300FAFC0AF
:1011C800D9FFB0C0DAFFDECFB5F0DDCFB6F0B5C0DD
:1011D800D9FFB6C0DAFFDF6EAFC0D9FFB0C0DAFF03
:1011E800DE2A000EDD22CAC024F0CBC025F0CCC018
:1011F80026F0CDC027F00001D851040D6A0EF32463
:10120800F66EE80EF420F76EF86A000EF822090070
:10121800F5CF28F00900F5CF29F00900F5CF2AF01D
:101228000A00F5CF2BF0C5EC4FF024C0CAF025C05A
:10123800CBF026C0CCF027C0CDF00001D807D829C4
:10124800D8B43AD053D720EE02F0AF51D926B051D6
:10125800DA22DE50DE10D8B416D020EE02F0AF51FC
:10126800D926B051DA22DECFB5F0DDCFB6F001D8FD
:101278001FD00500FA6EB551FD6EB651FE6EFF6ABD
:10128800FA50300E1200AFC0D9FFB0C0DAFFDECF7F
:10129800B5F0DDCFB6F0B5C0D9FFB6C0DAFF300E75
:1012A800DF6EAFC0D9FFB0C0DAFFDE2A000EDD2244
:1012B8000001D407D8A0D507D451D511D8A4C3D7D5
:1012C800D6B7D3BF56D3D35103E1D205D8A051D353
:1012D80020EE02F0AF51D926B051DA22DE50DE10EE
:1012E800D8B416D020EE02F0AF51D926B051DA2288
:1012F800DECFB5F0DDCFB6F001D81FD00500FA6E0D
:10130800B551FD6EB651FE6EFF6AFA50200E1200FE
:10131800AFC0D9FFB0C0DAFFDECFB5F0DDCFB6F091
:10132800B5C0D9FFB6C0DAFF200EDF6EAFC0D9FF57
:10133800B0C0DAFFDE2A000EDD220001D207D8A0F5
:10134800D307D251D311D8B414D3C2D7C00ED615EF
:10135800B56F000ED715B66FB551B611D8A426D003
:10136800B3C0D9FFB4C0DAFFDFCFB5F0020EDE2676
:10137800DFCFB6F0000EDD22B5C0D9FFB6C0DAFF68
:10138800DECFCAF0DDCFCBF0000ECBBFFF0ECC6FA7
:10139800CD6FCDAF25D0030ED613CD1FCC1FCB1FDD
:1013A800CA6D000ECB23CC23CD231AD0B3C0D9FFEE
:1013B800B4C0DAFFDFCFB5F0020EDE26DFCFB6F01D
:1013C800000EDD22B5C0D9FFB6C0DAFFDECFB7F018
:1013D800DDCFB8F0B7C0CAF0B8C0CBF0CC6BCD6BDE
:1013E800D451D511D8A44BD0CA51CB11CC11CD11A1
:1013F800D8A445D0D44BD52B42D0010ED86F0A0EB5
:10140800D819D8B447D0D851040D6A0EF324F66E13
:10141800E80EF420F76EF86A000EF8220900F5507D
:10142800CA5D0900F550CB590900F550CC5909009F
:10143800F550CD59D8A02ED0D82BE1D7010ED86FB2
:10144800080ED819D8B426D0D851040D920EF3241A
:10145800F66EE80EF420F76EF86A000EF82209001E
:10146800F550CA5D0900F550CB590900F550CC5923
:101478000900F550CD59D8A00DD0D82BE1D7D651B9
:10148800C00B000AD8B4B9D7800AD8B4D7D7400A55
:10149800D8B4B3D7800ED8BF7F0EB56FD451D85DFE
:1014A800D551800AB559D8B003D0D4C0D8F010D0DF
:1014B800D551800AB56FD851D45D800ED8BF7F0E44
:1014C800B559D8B005D0D851D46FD56BD4BFD5078E
:1014D800D251D311D8B40DD0030ED615B56F000E66
:1014E800D715B66FB551B611D8B403D0D207D8A066
:1014F800D307D7AD13D0D251D45DD551800AB56F7B
:10150800D351800AB559D8B005D0D451D25FD5513E
:10151800D35B04D0000ED36F000ED26F800ED8BFFD
:101528007F0EB56FD251D85DD351800AB559D8B066
:1015380007D0D851D25F000ED8BFFF0ED35B04D0BE
:10154800000ED36F000ED26FD6A57ED0030ED6152F
:10155800B56F000ED715B66FB551B611D8B435D0E2
:1015680020EE02F0AF51D926B051DA22DE50DE105B
:10157800D8B416D020EE02F0AF51D926B051DA22F5
:10158800DECFB5F0DDCFB6F001D81FD00500FA6E7A
:10159800B551FD6EB651FE6EFF6AFA502D0E12005F
:1015A800AFC0D9FFB0C0DAFFDECFB5F0DDCFB6F0FF
:1015B800B5C0D9FFB6C0DAFF2D0EDF6EAFC0D9FFB8
:1015C800B0C0DAFFDE2A000EDD220001D251D311AD
:1015D800D8B481D120EE02F0AF51D926B051DA2229
:1015E800DE50DE10D8B416D020EE02F0AF51D92666
:1015F800B051DA22DECFB5F0DDCFB6F001D81FD07A
:101608000500FA6EB551FD6EB651FE6EFF6AFA50CE
:10161800300E1200AFC0D9FFB0C0DAFFDECFB5F090
:10162800DDCFB6F0B5C0D9FFB6C0DAFF300EDF6E39
:10163800AFC0D9FFB0C0DAFFDE2A000EDD220001FC
:10164800D207D8A0D307C2D7D251D311D8A4D6B7BE
:101658003DD020EE02F0AF51D926B051DA22DE504B
:10166800DE10D8B416D020EE02F0AF51D926B05112
:10167800DA22DECFB5F0DDCFB6F001D81FD00500F5
:10168800FA6EB551FD6EB651FE6EFF6AFA50200E25
:101698001200AFC0D9FFB0C0DAFFDECFB5F0DDCFA2
:1016A800B6F0B5C0D9FFB6C0DAFF200EDF6EAFC006
:1016B800D9FFB0C0DAFFDE2A000EDD220001D20712
:1016C800D8A0D307D251D311D8A4C3D7030ED615A7
:1016D800B56F000ED715B66FB551B611D8B4FBD09B
:1016E80020EE02F0AF51D926B051DA22DE50DE10DA
:1016F800D8B416D020EE02F0AF51D926B051DA2274
:10170800DECFB5F0DDCFB6F001D8E5D00500FA6E32
:10171800B551FD6EB651FE6EFF6AFA502D0E1200DD
:10172800AFC0D9FFB0C0DAFFDECFB5F0DDCFB6F07D
:10173800B5C0D9FFB6C0DAFF2D0EDF6EC5D0D4C054
:10174800B5F0D5C0B6F00001D890B537B637D89007
:10175800B537B6376A0EB525F66EE80EB621F76EC0
:10176800F86A000EF8220900F5CF1BF00900F5CF42
:101778001CF00900F5CF1DF00A00F5CF1EF0CAC015
:1017880017F0CBC018F0CCC019F0CDC01AF042EC5D
:101798004DF017C024F018C025F019C026F01AC063
:1017A80027F00A0E286E000E296E000E2A6E000E13
:1017B8002B6EC5EC4FF02450300F0001D86F56D077
:1017C800CAC017F0CBC018F0CCC019F0CDC01AF0C1
:1017D800D4C0B5F0D5C0B6F0D890B537B637D890E4
:1017E800B537B637920EB525F66EE80EB621F76E08
:1017F800F86A000EF8220900F5CF1BF00900F5CFB2
:101808001CF00900F5CF1DF00A00F5CF1EF042ECE0
:101818004DF017500F0B0001BD6FD6BB04D0CE0E94
:10182800BE6FFA0E03D0BD0EBE6FFA0EBF6FBD516C
:10183800010DBEC0B5F0BFC0B6F0F350B527F450E7
:10184800B623B5C0F6FFB6C0F7FFF86A0800F5CFB3
:10185800D8F00CD00001D651C00B000AD8B46FD70D
:10186800800AD8B4ADD7400AD8B469D720EE02F0C0
:10187800AF51D926B051DA22DE50DE10D8B416D0D6
:1018880020EE02F0AF51D926B051DA22DECFB5F002
:10189800DDCFB6F001D81FD00500FA6EB551FD6E48
:1018A800B651FE6EFF6AFA50D8511200AFC0D9FF88
:1018B800B0C0DAFFDECFB5F0DDCFB6F0B5C0D9FFE6
:1018C800B6C0DAFFD8C0DFFFAFC0D9FFB0C0DAFFBB
:1018D800DE2A000EDD220001D407D8A0D507D429BE
:1018E800B9E1D529D8A4B6D7D6B7D3BF42D0D351FA
:1018F80003E1D205D8A03DD020EE02F0AF51D926A1
:10190800B051DA22DE50DE10D8B416D020EE02F044
:10191800AF51D926B051DA22DECFB5F0DDCFB6F01F
:1019280001D81FD00500FA6EB551FD6EB651FE6E96
:10193800FF6AFA50200E1200AFC0D9FFB0C0DAFF1C
:10194800DECFB5F0DDCFB6F0B5C0D9FFB6C0DAFF4F
:10195800200EDF6EAFC0D9FFB0C0DAFFDE2A000E5E
:10196800DD220001D207D8A0D307D251D311D8A4C1
:10197800C3D70001B151B56FB251B66FB14BB22B9D
:10198800B5C0F6FFB6C0F7FFF86A0F0EF76403D0CC
:101998000800F55005D0F6CFE1FFF7CFE2FFE7509A
:1019A8000001D86FD851D8A49AEF01F0000EB06F9B
:1019B800000EAF6F1200000E0301AC6F050EAB6F87
:1019C800000EA76F000EA36F000EAA6F000EA96F7E
:1019D800000EA46F010EA86F010E966F22EE00F0A4
:1019E80013EE97F00B0EDBCFE3FFE806FCE262ECA8
:1019F8004AF094EC3FF03FC01DF040C01EF0000ECE
:101A0800206E0A0E1F6E24EC53F01DC03FF11EC05D
:101A180040F179EC4EF075EC52F0D0823750D8A4F2
:101A28003DEC43F001015C51D8A472EC16F00101C1
:101A38005B51D8B4ACA201D08A9A6FEC4CF0A30EDB
:101A4800946E00F000F08250210B0301B36FB3399C
:101A5800E8461F0B0101E96F0301B351B325020BDF
:101A68000101E911E96F8150010BE911E96F820E5B
:101A7800946E070EE919D8A404D0E851E919D8B42E
:101A880003D0E95155EC25F0010E010156651DD032
:101A9800170E56611AD0880E2325DA6F130E2421EB
:101AA800DB6F000E2521DC6F000E2621DD6F335021
:101AB800DA5D3450DB593550DC593650DD59D8B031
:101AC80004D05551D8B4B0EC48F081A402D0010E2E
:101AD80001D0000E0301A819D8B493D0A42BA405F3
:101AE8000101DA6F050EDA658ED0000E81B4010EA1
:101AF8000301A86FA851D8B44DD079D001014D5138
:101B0800D8B405D0000E4D6F010E486E02D0010EFC
:101B18004D6F530E896FFB0E8A6F4DC18BF18C6B25
:101B28000AEC52F045D0010E01014D6F41D0470437
:101B3800D8A402D0020E01D0010E476E4504D8A4E5
:101B480037D0000E0001746FA80E736F47C075F090
:101B5800766B000ED3EC52F02BD0010E476E450485
:101B6800D8A426D0000E0001746FA80E736F47C06A
:101B780075F0766B000ED3EC52F01AD0030E4818AD
:101B8800D8A416D0010E486E3750D8A411D00F0E25
:101B9800386E0ED04450010AD8B4B0D7030AD8B46E
:101BA800C2D7010AD8B4C3D7070AD8B4D6D7E6D75C
:101BB8004304D8B43AA822D081B220D03A981ED093
:101BC800000E01014D6F010E486E18D0020E476ECF
:101BD8004504D8A413D0000E0001746FA80E736FCB
:101BE80047C075F0766B000ED3EC52F007D0445026
:101BF800020AD8B4E5D7060AD8B4E8D7000E03011C
:101C080001D0000EA46F4304D8B481A205D0010E00
:101C1800486E3A88000E396E050E4818D8A424D0AC
:101C28003650351006E1E90E335C030E3458D8A05F
:101C38001BD0000E0001746F010E736F000E766FDB
:101C4800000E756F4550D3EC52F0200E0101896FDC
:101C5800F80E8A6F0AEC52F0000E336E000E346EE6
:101C6800000E356E000E366E4804D8A4D5D0000E8E
:101C7800BD6E82848198000E01012B6F23EC4FF01A
:101C88000301B26FB205D8A404D03A9A3A90000E74
:101C9800386E020EB219D8A4BFD0020E0101621923
:101CA800D8A4B4D04D51D8B4B1D00301AC2BAC05F5
:101CB8000101DA6F190EDA65AFD02EEC41F0E806B3
:101CC800D8B43A863850D8A4A7D03A50D8A4A4D0CB
:101CD800000E0301AA6F21EC4CF0720E0101896F0E
:101CE800F90E8A6F49C18BF14AC18CF13DC08DF163
:101CF8003EC08EF10AEC52F03D500101495D3E5064
:101D08004A59D8B00BD049C11DF04AC11EF0000E87
:101D1800206E0A0E1F6E24EC53F00AD03DC01DF051
:101D28003EC01EF0000E206E0A0E1F6E24EC53F00B
:101D38001DC047F11EC048F1010E45644AD0000E8F
:101D48000001746F020E736F47C175F048C176F0D9
:101D58004550D3EC52F047C117F048C118F0196A42
:101D68001A6A000E95EC42F017C08EF018C08FF07A
:101D780019C090F01AC091F0000E0001926F000E89
:101D8800936F200E946F410E956FC6EC38F08EC09D
:101D9800AEF38FC0AFF390C0B0F391C0B1F3AE0E05
:101DA8000101896FF70E8A6FAEC38BF1AFC38CF157
:101DB800B0C38DF1B1C38EF10AEC52F0060E486E35
:101DC800000E336E000E346E000E356E000E366E49
:101DD80023D049C11DF04AC11EF0000E206E0A0E24
:101DE8001F6E24EC53F01DC00FF11EC010F1010E40
:101DF80001012B6F020E486E3C0E586F8086390E1B
:101E0800896FFB0E8A6F0AEC52F006D0020E0101B0
:101E1800626F000E0301AC6F060E4818D8A40BD0F1
:101E28003650351006E1E90E335C030E3458D8A05D
:101E380002D0010E486E020E4818D8A4E9D0070E49
:101E4800BC64D0D0180EBC60CDD023EC4FF0030199
:101E5800B26FB205D8A41FD001016205D8A419D069
:101E68000301AC2BAC050101DA6F190EDA65BAD0A3
:101E7800010E486E1F0E896FFB0E8A6F0AEC52F036
:101E8800010E4564AFD0050E486EE90E336E030EA1
:101E980063D0010E9AD0030EB219D8A49CD0030EB9
:101EA80001016219D8A490D00301AA05D8A48CD046
:101EB800AC2BAC050101DA6F190EDA6593D03A50F4
:101EC800D8A490D03850D8A48DD0010E45644AD0FB
:101ED800000E0001746F030E736F47C175F048C19F
:101EE80076F04550D3EC52F047C117F048C118F0CE
:101EF800196A1A6A000E95EC42F017C08EF018C0E5
:101F08008FF019C090F01AC091F0000E0001926F86
:101F1800000E936F200E946F410E956FC6EC38F04B
:101F28008EC0AEF38FC0AFF390C0B0F391C0B1F3E1
:101F3800D40E0101896FF70E8A6FAEC38BF1AFC360
:101F48008CF1B0C38DF1B1C38EF10AEC52F0070EDB
:101F5800486E000E336E000E346E000E356E000EA5
:101F6800366E40D047C10FF148C110F12EEC41F058
:101F78000009D8A427D0020E01012B6F000E726F42
:101F8800000E716F010E85EC21F08188000E0301AF
:101F9800AA6F030E486E000E396E000E336E000EE7
:101FA800346E000E356E000E366E01015651D8B4EF
:101FB80008EC1CF0460E0101896FFB0E8A6F0AECD3
:101FC80052F010D03A860ED0030E0101626F000E57
:101FD8000301AC6F07D0020E01016219D8B402D018
:101FE800000E626FE60EBC6413D0F10EBC64FDD720
:101FF800F10EBC6401D0BC5023EC4FF00301B26F6A
:10200800040EB219D8A402D0010E01D0000EAA6F96
:10201800070E4818D8A415D03650351006E1E90E39
:10202800335C030E3458D8A00CD0000E0301AA6FFD
:10203800020E486E5D0E0101896FFA0E8A6F0AEC76
:1020480052F0030E4818D8A476D0070EBC6473D09B
:10205800180EBC6070D023EC4FF00301B26FB205CC
:10206800D8B403D0B251D8A42AD001016205D8A4AB
:1020780024D00301AC2BAC050101DA6F190EDA6527
:102088005AD0010E486E2C0E896FFB0E8A6F0AEC2F
:1020980052F079EC4EF0010E45640BD0050E486EF7
:1020A800E90E336E030E346E000E356E000E366E7A
:1020B80042D0000E01012B6F3ED0010E34D0020E2B
:1020C800B219D8A435D0020E01016219D8A429D0BA
:1020D8000301AC2BAC050101DA6F190EDA652BD0C0
:1020E800819879EC4EF0000E0301AA6F020E486E3B
:1020F800010E45640BD0080E486EE90E336E030ED0
:10210800346E000E356E000E366E03D0000E0101DF
:102118002B6F650E0101896FFA0E8A6F0AEC52F077
:102128000AD0020E0101626F000E0301AC6F03D0EA
:10213800000E0101626F080E4818D8A424D036504A
:10214800351006E1E90E335C030E3458D8A01BD0D5
:10215800000E0001746F040E736F000E766F000E90
:10216800756F4550D3EC52F0460E0101896FF80E99
:102178008A6F0AEC52F0000E336E000E346E000EB9
:10218800356E000E366EABA202D0AB98AB8871A24A
:1021980002D071987188D6CFB3F33C0ED764E9D0DA
:1021A800000ED76E000ED66EF8EC4FF001014C51C0
:1021B800D8B41CD03751DA6F3851DB6F374B382B16
:1021C8007FC11DF080C11EF0000E206E3C0E1F6EF8
:1021D80024EC53F00101DA511D5CDB511E58D8B0D4
:1021E80009D0010E486E000E4C6F04D0000E386FF7
:1021F800000E376F3850D8A43806370E576102D012
:102208003AB43A943AC0DAF1210EDA17D8B40AD0BF
:10221800020E456007D02EEC41F00009D8A402D088
:102228003A903A9A0301AB51D8B43AB21DD03A82E7
:10223800010E486E900E0101896FF90E8A6F0AEC43
:1022480052F0000E0301B36F030EB36501D00FD037
:10225800B351010D2B0EF324D96E010EF420DA6E62
:10226800000EDF6EB32BF0D7AB51D8A4AB07400EEE
:10227800010157651CD03A84010E486E000E896F23
:10228800FA0E8A6F0AEC52F0000E0301B36F030EC8
:10229800B36501D00CD0B351010D2B0EF324D96EC8
:1022A800010EF420DA6E000EDF6EB32BF0D73AC0C1
:1022B800DAF1290E0101DA17D8B41FD03A96020EC6
:1022C8004718D8A40BD03850D8A406D0AE0E896FC2
:1022D800F90E8A6F0AEC52F03A8A0BD03850D8A41B
:1022E80007D0D60E0101896FF80E8A6F0AEC52F0FA
:1022F8003A80010E486E3C0E386E08EC1CF04750D0
:10230800D8B40BD0030196079629D8A406D0010E9D
:1023180001014E6F010E0301966F4750D8A429D0D2
:10232800000E0101466F000E456F0301A951D8A4A4
:10233800A907020E45601DD0A951D8A41AD0000ED5
:1023480085EC21F04504D8B4CCEC53F0020E4818C3
:10235800D8B404D0030E4818D8A406D071C1AFF081
:1023680072C1B0F027EC46F0020E0301A96F0A0E05
:10237800AB6F01014E51D8B41BD0020E456018D086
:102388000CD087C177F0425083EC4DF00ED085C158
:1023980077F0415083EC4DF008D001014E51010A0D
:1023A800D8B4EFD7030AD8B4F2D7000E01014E6FA4
:1023B8005F51D8B44FEF16F0030E2725DA6F000EE1
:1023C8002821DB6F000E2921DC6F000E2A21DD6F2A
:1023D8003350DA5D3450DB593550DC593650DD590D
:1023E800D8B04FEF16F0320E176E030E186E640E4B
:1023F800196E030E1A6E5FC11BF01C6A68EC51F06F
:102408005FC15DF1000E01015F6F320EA36F030E15
:10241800A46F5DC1A5F1FCEC30F0030E01010B19AE
:10242800D8A498D00A0E0301AB6F8ED04250D8B40E
:1024380021D0010187510019D8A41CD008C1B1F0DE
:1024480009C1B2F042C0B3F0650E0001B46F010ECD
:10245800B56F2DEC2FF04150D8B408D0020E010111
:102468004E6F010E0301A36F4FEF16F060EC28F0DA
:102478004FEF16F00301A351D8B44FEF16F04150B7
:10248800D8B44FEF16F0010185510019D8A44FEFC9
:1024980016F008C1B1F009C1B2F041C0B3F0970E0F
:1024A8000001B46F030EB56F2DEC2FF0000E030181
:1024B800B36F020EB36501D042D0B351040D970E2D
:1024C800F324D96E030EF420DA6EDECF17F0DECFD8
:1024D80018F0DECF19F0DECF1AF0A7EC52F017C0D3
:1024E8007AF018C07BF019C07CF01AC07DF00301A7
:1024F800B351040D650EF324D96E010EF420DA6E83
:10250800DECF7EF0DECF7FF0DECF80F0DECF81F051
:1025180059EC34F00301B351040D650EF324D96E60
:10252800010EF420DA6E00017AC0DEFF7BC0DEFF08
:102538007CC0DEFF7DC0DEFF0301B32BBAD7000EDF
:10254800A36F60EC28F0A7D301010151040AD8B4A5
:102558006DD7A1D3020E0B19D8A4BCD00A0E030163
:10256800AB6FACD0455001010019D8A494D3B5EC99
:1025780047F00301AD6FAD29D8B48DD3AD5100EC50
:102588004EF089D3010E010100651FD0050E0061D0
:102598001CD002510311D8B408D0035106E1050E2E
:1025A800025DD8B002D0030E0ED00101035104E140
:1025B800810E025DD8A009D0035107E1850E025DA6
:1025C800D8B003D0020E0301A76F01010051D8B49F
:1025D80004D045500019D8A45ED3B5EC47F00301E8
:1025E800AD6FAD29D8B457D3AD51B9EC4CF053D336
:1025F80001010051D8B404D045500019D8A44BD3D8
:1026080002050311D8A44FD0010E45644CD0FE0E2C
:10261800DA6FFF0EDB6F4550DC6FDD6BD890DC376F
:10262800DD37DA51DC27DB51DD23DC510825D96E93
:10263800DD510921DA6EDF50DE6FDE51E06FDF6BAE
:10264800FF0EE16FFF0EE26F4550E36FE46BD89029
:10265800E337E437E151E327E251E423E351082566
:10266800D96EE4510921DA6EDF50E56FE551DF11CB
:102678000301A56F0101E0510301A66F9D0E010141
:10268800896FF60E8A6F00C18BF18C6B02C18DF1D8
:1026980003C18EF1A5C38FF1A6C390F10AEC52F0E5
:1026A800020E0301A76FB5EC47F00301AD6FAD292A
:1026B800D8B4F1D2AD51B0EC46F0EDD201010151E0
:1026C800040AD8B44FD7020AD8B45CD7160AD8B4CB
:1026D8008FD7E1D2100E896FFB0E8A6F0AEC52F089
:1026E800DAD201010051D8A46AD0010E456467D03E
:1026F80054D0A5C371F1A6C372F1020E4818D8B41C
:1027080004D0030E4818D8A406D071C1AFF072C126
:10271800B0F027EC46F071C117F072C118F0196AD1
:102728001A6A000E95EC42F017C08EF018C08FF0B0
:1027380019C090F01AC091F0000E0001926F000EBF
:10274800936F200E946F410E956FC6EC38F08EC0D3
:10275800AEF38FC0AFF390C0B0F391C0B1F36C0E7D
:102768000101896FF80E8A6FAEC38BF1AFC38CF18C
:10277800B0C38DF1B1C38EF10AEC52F020D0010E36
:10278800486E06C13AF03C0E386E900E0101896F12
:10279800F80E8A6F0AEC52F012D021EE02F0DECF6A
:1027A800DAF1DDCFDBF10101DB51000AD8A407D053
:1027B800DA51010AD8B49DD7030AD8B4E0D74550F6
:1027C80001010019D8B4C0D06ED2010E486EDF0ED8
:1027D800896FFA0E8A6F0AEC52F065D20101065130
:1027E8000711D8A408D03A86440E896FFC0E8A6F68
:1027F8000AEC52F058D206C1AFF007C1B0F027EC8E
:1028080046F0020E486E06C117F007C118F0196AA3
:102818001A6A000E95EC42F017C08EF018C08FF0BF
:1028280019C090F01AC091F0000E0001926F000ECE
:10283800936F200E946F410E956FC6EC38F08EC0E2
:10284800AEF38FC0AFF390C0B0F391C0B1F32E0ECA
:102858000101896FF70E8A6FAEC38BF1AFC38CF19C
:10286800B0C38DF1B1C38EF10AEC52F01CD2010154
:1028780006510711D8A408D03A864C0E896FFC0E71
:102888008A6F0AEC52F00FD206C1AFF007C1B0F060
:1028980027EC46F08188000E0301AA6F030E486EEC
:1028A800000E396E000E336E000E346E000E356E5B
:1028B800000E366E01015651D8B408EC1CF006C162
:1028C80017F007C118F0196A1A6A000E95EC42F061
:1028D80017C08EF018C08FF019C090F01AC091F090
:1028E800000E0001926F000E936F200E946F410E40
:1028F800956FC6EC38F08EC0AEF38FC0AFF390C0C2
:10290800B0F391C0B1F3860E0101896FF70E8A6F9B
:10291800AEC38BF1AFC38CF1B0C38DF1B1C38EF1EF
:102928000AEC52F0460E0101896FFB0E8A6F0AEC21
:1029380052F0B9D1020E486EFA0E0101896FF70EF6
:102948008A6F0AEC52F0AFD121EE02F0DECFDAF155
:10295800DDCFDBF10101DB51000AD8A4A4D1DA51A3
:10296800810AD8B432D7030AD8B438D7010AD8B400
:102978007ED7070AD8B4DED796D14504D8A493D118
:10298800010100050301B46F6DD10301B451010DBC
:102998002B0EF324D96E010EF420DA6E000EDF6ED2
:1029A800000E85EC21F0470E0101896FFA0E8A6F3F
:1029B800B4C38BF18C6B0AEC52F0000E0001746FFB
:1029C800810E736F000E766F000E756F0101005156
:1029D800D3EC52F068D12EEC41F00009D8A42FD0E6
:1029E8000301B451010D2B0EF324D96E010EF4200E
:1029F800DA6E010EDF6EB451020D0F0EF324D96E9C
:102A0800010EF420DA6E06C1DEFF07C1DDFF3BC010
:102A18001DF03CC01EF0000E206E0A0E1F6E24EC46
:102A280053F00301B451020D710EF324D96E010E57
:102A3800F420DA6E1DC0DEFF1EC0DDFF0DD00301DD
:102A4800B451020D710EF324D96E010EF420DA6E22
:102A5800000EDE6E000EDD6E06C117F007C118F01D
:102A6800196A1A6A000E95EC42F017C08EF018C069
:102A78008FF019C090F01AC091F0000E0001926F0B
:102A8800000E936F200E946F410E956FC6EC38F0D0
:102A98008EC0AEF38FC0AFF390C0B0F391C0B1F366
:102AA800150E0101896FF90E8A6FB4C38BF18C6B17
:102AB800AEC38DF1AFC38EF1B0C38FF1B1C390F146
:102AC8000AEC52F0000E0001746F820E736F03015E
:102AD800B451020D710EF324D96E010EF420DA6E92
:102AE800DECF75F0DDCF76F001010051D3EC52F066
:102AF800DAD02EEC41F00009D8A427D00301B45154
:102B0800010D2B0EF324D96E010EF420DA6E020E9D
:102B1800DF6EB451020D0F0EF324D96E010EF420AE
:102B2800DA6E06C1DEFF07C1DDFFB451020D710E7A
:102B3800F324D96E010EF420DA6E000EDE6E000E5C
:102B4800DD6E010E85EC21F00DD00301B451020DAC
:102B5800710EF324D96E010EF420DA6E000EDE6ECB
:102B6800000EDD6E0301B451020D710EF324D96E0F
:102B7800010EF420DA6EDECFDAF1DDCFDBF1DAC157
:102B880017F0DBC118F0196A1A6A000E95EC42F0CA
:102B980017C08EF018C08FF019C090F01AC091F0CD
:102BA800000E0001926F000E936F200E946F410E7D
:102BB800956FC6EC38F08EC0AEF38FC0AFF390C0FF
:102BC800B0F391C0B1F3F60E0101896FF80E8A6F68
:102BD800B4C38BF18C6BAEC38DF1AFC38EF1B0C3B0
:102BE8008FF1B1C390F10AEC52F0000E0001746F3E
:102BF800830E736F0301B451020D710EF324D96E65
:102C0800010EF420DA6EDECF75F0DDCF76F001012B
:102C18000051D3EC52F047D00301B451010D2B0EF3
:102C2800F324D96E010EF420DA6E000EDF6E000E6A
:102C380085EC21F0CA0E0101896FF90E8A6FB4C3C1
:102C48008BF18C6B0AEC52F0000E0001746F840E4D
:102C5800736F000E766F000E756F01010051D3EC93
:102C680052F021D021EE02F0DECFDAF1DDCFDBF138
:102C78000101DB51000AD8A416D0DA51010AD8B4F0
:102C880084D6030AD8B4A7D6010AD8B432D7070A1B
:102C9800D8B4C2D708D00301A751020AD8B421D5A5
:102CA800010AD8B46AD63AA205D00A0E0301AB19B4
:102CB800D8B43A923AC0DAF1210E0101DA17D8B441
:102CC80008D03850D8A405D0010E456402D03A90F7
:102CD8003A9A000E0301A76F12EF0DF064EC3BF077
:102CE8000101CC6F8D0E896FF80E8A6F0AEC52F0D5
:102CF80001015951D8A445D0000ED16F29D03E0EFC
:102D0800176E020E186ED151010D700EF324D96E94
:102D1800020EF420DA6EDF50BE6FBE514A0DB20EBD
:102D2800F324196EE80EF4201A6E27EC50F01750B1
:102D38001810D8A40BD00101D151010D700EF32445
:102D4800D96E020EF420DA6EDF50596F0101D12BD3
:102D5800FF0EBE6FFF0EBF6FCC51C06FC16BBE516F
:102D6800C027BF51C123D151C26FC36BC051C25DCF
:102D7800C351800AC46FC151800AC459D8B045D222
:102D8800BED702013E51D8A418D2000E0101596FD6
:102D98003CD23E0E0001B26F020EB36FFDEC52F052
:102DA800B2C0CDF1B3C0CEF1B4C0CFF1B5C0D0F14F
:102DB800CDC125F0CEC126F0CFC127F0D0C128F073
:102DC800000E296E000E2A6EC00E2B6E400E2C6E61
:102DD80008EC45F0D8A014D0000E256E000E266E23
:102DE800A00E276E420E286ECDC129F0CEC12AF062
:102DF800CFC12BF0D0C12CF008EC45F0D8B008D0EA
:102E08005A0E0101896FF70E8A6F0AEC52F0F6D15B
:102E180065C1A7F066C1A8F067C1A9F068C1AAF0AA
:102E280024EC49F0A7C0AFF0A8C0B0F0E8EC52F02D
:102E38000001AFC017F0B0C018F0000E18BEFF0EAA
:102E4800196E1A6E010E95EC42F017C08EF018C07C
:102E58008FF019C090F01AC091F079C192F07AC140
:102E680093F07BC194F07CC195F0C6EC38F08EC02D
:102E7800C5F18FC0C6F190C0C7F191C0C8F1000E6E
:102E8800296E000E2A6E200E2B6E410E2C6ECDC1BF
:102E980025F0CEC126F0CFC127F0D0C128F0B0EC84
:102EA80032F025C08EF026C08FF027C090F028C0E1
:102EB80091F0C5C192F0C6C193F0C7C194F0C8C1E2
:102EC80095F0C6EC38F08EC079F18FC07AF190C0D9
:102ED8007BF191C07CF180EC3CF090D13E0E176EF6
:102EE800020E186E990E196EFB0E1A6E27EC50F032
:102EF80017501810D8A405D0020E476E80EC3CF08D
:102F08007DD13E0E176E020E186EE10E196EFC0E84
:102F18001A6E27EC50F017501810D8A405D0010EDF
:102F2800476E80EC3CF06AD13E0E176E020E186EAA
:102F38009C0E196EFC0E1A6E27EC50F017501810E4
:102F4800D8A45CD1000E476E80EC3CF0000E3A6EBF
:102F580055D13E0E176E020E186E230E196EFC0E1A
:102F68001A6E27EC50F017501810D8A405D0010E8F
:102F7800466E80EC3CF042D13E0E176E020E186E83
:102F8800DB0E196EFC0E1A6E27EC50F01750181055
:102F9800D8A405D0020E466E80EC3CF02FD13E0E30
:102FA800176E020E186E540E196EFC0E1A6E27EC70
:102FB80050F017501810D8A421D1000E466E80EC9E
:102FC8003CF01CD13E0E176E020E186ED50E196E0F
:102FD800FC0E1A6E27EC50F017501810D8A406D023
:102FE800010E0101886F80EC3CF008D13E0E176E8F
:102FF800020E186EA30E196EFC0E1A6E27EC50F016
:1030080017501810D8A4FAD0000E0101886F80EC70
:103018003CF0F4D0000E0101D16F040ED16501D04F
:10302800EDD03E0E176E020E186ED151090DD40E5A
:10303800F324196EEF0EF4201A6E27EC50F0175097
:103048001810D8A404D0D1C145F080EC3CF001019F
:10305800D12BE3D7000ED16F040ED16501D0CED0AD
:103068003E0E176E020E186ED1510A0DA20EF324F1
:10307800196EEF0EF4201A6E27EC50F01750181046
:10308800D8A404D0D1C144F080EC3CF00101D12B8C
:10309800E3D73E0E176E020E186E540E196EFC0E14
:1030A8001A6E27EC50F017501810D8A405D0000E4F
:1030B800436E80EC3CF0A2D03E0E176E020E186EE6
:1030C800950E196EFC0E1A6E27EC50F0175018105A
:1030D800D8A494D0010E436E80EC3CF08FD0000E43
:1030E8000101D16F040ED16501D088D03E0E176E54
:1030F800020E186ED151120D850EF324196E020EB0
:10310800F4201A6E27EC50F017501810D8A409D0E4
:10311800D1C131F0326A0101595197EC3DF080EC90
:103128003CF00101D12BDED73E0E176E020E186E51
:10313800F10E196EFC0E1A6E27EC50F0175018108D
:10314800D8A406D0000E0101866F80EC3CF056D062
:103158003E0E176E020E186EE70E196EFC0E1A6EF2
:1031680027EC50F017501810D8A448D0010E0101D0
:10317800866F80EC3CF042D03E0E236E020E246E29
:10318800FBEC49F023C0C9F124C0CAF1C9C131F030
:10319800CAC132F00101595197EC3DF00101CB6FE2
:1031A80080EC3CF00101CB51D8A428D0530E896F94
:1031B800F90E8A6F0AEC52F021D001015951020A26
:1031C800D8B400D7010AD8B425D7050AD8B4C1D6CF
:1031D8000F0AD8B43FD7030AD8B45BD7060AD8B4C5
:1031E8007DD6020AD8B4D5D5010AD8B478D71E0A34
:1031F800D8B49AD7030AD8B472D7BED7000E010143
:10320800596F64EC3BF00101CC6F0E0E5965BAD2D0
:10321800AB0E896FFA0E8A6F59514A0D100EF326BC
:10322800000EF422B20EF3248B6FE80EF4208C6F9C
:103238005951F8EC35F0E7C08DF1E8C08EF10AEC91
:1032480052F0A0D23D0E0101896FF20E8A6F0AEC8E
:1032580052F0E80E0101896FFB0E8A6F0AEC52F0FA
:10326800690E0101896FF60E8A6F0AEC52F0340E6E
:103278000101896FF90E8A6F57C18BF18C6B0AECCB
:1032880052F08A0E0101896FF20E8A6F0AEC52F031
:10329800000E0101D16FAED0F00E896FFA0E8A6F61
:1032A800D151010D700EF324D96E020EF420DA6E9E
:1032B800DF50BE6FBE514A0DB20EF3248B6FE80E7D
:1032C800F4208C6FD151010D700EF324D96E020ECB
:1032D800F420DA6EDF50BF6FBF514A0D100EF3268F
:1032E800000EF422B20EF3248D6FE80EF4208E6FD8
:1032F8000AEC52F00101D151010D700EF324D96E80
:10330800020EF420DA6E0E0EDE18D8A458D0B40ED1
:10331800896FF80E8A6F65C18EF066C18FF067C13C
:1033280090F068C191F0000E0001926F000E936F4B
:10333800200E946F410E956FC6EC38F08EC08BF15D
:103348008FC08CF190C08DF191C08EF169C18EF063
:103358006AC18FF06BC190F06CC191F0000E000152
:10336800926F000E936F200E946F410E956FC6EC0E
:1033780038F08EC08FF18FC090F190C091F191C05C
:1033880092F16DC18EF06EC18FF06FC190F070C177
:1033980091F0000E0001926F000E936F200E946F53
:1033A800410E956FC6EC38F08EC093F18FC094F142
:1033B80090C095F191C096F10AEC52F012D001013B
:1033C800D151010D700EF324D96E020EF420DA6E7D
:1033D800DF50F8EC35F0E7C089F1E8C08AF10AEC73
:1033E80052F08D0E0101896FF80E8A6F0AEC52F0C7
:1033F8000101D12BFF0EBE6FFF0EBF6FCC51C06F06
:10340800C16BBE51C027BF51C123D151C26FC36B1D
:10341800C051C25DC351800AC46FC151800AC459EA
:10342800D8A03AD7F90E896FFC0E8A6F0AEC52F0D1
:10343800E5D1E10E0101896FF40E8A6F5951F8EC5C
:1034480035F0E7C08BF1E8C08CF10AEC52F0D6D128
:10345800A40E0101896FF40E8A6F5951F8EC35F00A
:10346800E7C08BF1E8C08CF10AEC52F0C7D14B0EE3
:103478000101896FF10E8A6F81C18BF182C18CF1D4
:103488000AEC52F0BBD11A0E0101896FF30E8A6F54
:103498007FC18BF180C18CF10AEC52F0AFD11E0EC6
:1034A8000101896FF50E8A6F5951F8EC35F0E7C0C4
:1034B8008BF1E8C08CF1D40E01018D6FEF0E8E6F89
:1034C8000AEC52F0010E0101D16F040ED16501D052
:1034D80011D0F50E896FFC0E8A6FD151090DD40EEB
:1034E800F3248B6FEF0EF4208C6F0AEC52F001017D
:1034F800D12BEBD79E0E896FF30E8A6F0AEC52F030
:103508007DD1250E0101896FF40E8A6F0AEC52F005
:10351800000E0101896FF70E8A6F0AEC52F05F0EF8
:103528000101896FF30E8A6F3FC08BF140C08CF1A7
:103538000AEC52F063D1D30E0101896FF20E8A6F43
:103548003BC08BF13CC08CF10AEC52F057D1250EF0
:103558000101896FF40E8A6F0AEC52F0000E010126
:10356800896FF70E8A6F0AEC52F0E40E0101896F39
:10357800F30E8A6F3DC08BF13EC08CF10AEC52F01D
:103588003DD1250E0101896FF40E8A6F0AEC52F0C5
:10359800580E0101896FF50E8A6F0AEC52F0A20EDF
:1035A8000101896FF30E8A6F83C18BF184C18CF19D
:1035B8000AEC52F023D1F00E0101896FF10E8A6FE7
:1035C8005951F8EC35F0E7C08BF1E8C08CF10AEC02
:1035D80052F014D1650E0101896FF40E8A6F5951AA
:1035E800F8EC35F0E7C08BF1E8C08CF1A20E0101D0
:1035F8008D6FEF0E8E6F0AEC52F0010E0101D16F44
:10360800040ED16501D011D0F50E896FFC0E8A6FBA
:10361800D1510A0DA20EF3248B6FEF0EF4208C6F9C
:103628000AEC52F00101D12BEBD79E0E896FF30EF5
:103638008A6F0AEC52F0E2D0E90E0101896FF00EB0
:103648008A6F5951F8EC35F0E7C08BF1E8C08CF17E
:103658000AEC52F0D3D0900E0101896FF50E8A6FF3
:1036680065C18EF066C18FF067C190F068C191F0B6
:10367800000E0001926F000E936F200E946F410EA2
:10368800956FC6EC38F08EC08BF18FC08CF190C06E
:103698008DF191C08EF10AEC52F0B0D0980E010174
:1036A800896FFA0E8A6F850E8B6F020E8C6F0AEC8B
:1036B80052F0010E0101D16F050ED16501D011D074
:1036C800F50E896FFC0E8A6FD151120D850EF32409
:1036D8008B6F020EF4208C6F0AEC52F00101D12B93
:1036E800EBD79E0E896FF30E8A6F0AEC52F086D0E4
:1036F800340E0101896FF60E8A6F0AEC52F07ED003
:10370800A00E0101896FF10E8A6F0AEC52F076D093
:10371800C80E0101896FF50E8A6F0AEC52F06ED05F
:10372800E60E0101896FF90E8A6F59514A0D440E50
:10373800F326000EF422B20EF324F66EE80EF420FF
:10374800F76EF86A000EF8220900F5CF8BF10A002F
:10375800F5CF8CF159514A0D460EF326000EF4228E
:10376800B20EF324F66EE80EF420F76EF86A000E37
:10377800F8220900F5CF8DF10A00F5CF8EF10AEC99
:1037880052F03CD001015951000AD8B45BD5020A65
:10379800D8B44FD6010AD8B482D6070AD8B4CBD643
:1037A800010AD8B4EED6030AD8B405D7010AD8B4AA
:1037B8005ED60F0AD8B467D6010AD8B40BD7030A65
:1037C800D8B43AD7010AD8B4C2D6070AD8B440D672
:1037D800010AD8B496D6030AD8B43DD7010AD8B49A
:1037E8005DD71E0AD8B484D7030AD8B457D7060AB7
:1037F800D8B486D7020AD8B48BD792D7000E010165
:103808005C6F000E5E6F120001015651D8B409D0EA
:10381800392A790E3918D8A41200000E566F94EC84
:103828003FF00A0E3918D8A402D0000E396E3A506B
:10383800D8B4C3D080863C0E0101586F3AA221D07B
:10384800080E0001C66FFC0EC76F000E3DEC4EF06F
:10385800750E0001C66FFB0EC76F020E3DEC4EF0F1
:10386800B10E0001C66FFC0EC76F040E3DEC4EF0A2
:10387800720E0001C66FFC0EC76F060E3DEC4EF0CF
:1038880012003AA411D0B70E0001C66FFC0EC76F24
:10389800020E3DEC4EF08B0E0001C66FFB0EC76F9B
:1038A800040E3DEC4EF089D03AA848D0392A3904A4
:1038B8000001C96F050EC96120D0FF0EC66FFB0E4F
:1038C800C76F000E3DEC4EF0C90E0001C66FFC0E2E
:1038D800C76F020E3DEC4EF0340E0001C66FFC0EB1
:1038E800C76F040E3DEC4EF0ED0E0001C66FFB0EE7
:1038F800C76F060E3DEC4EF01200BD0E0001C66FFC
:10390800FC0EC76F000E3DEC4EF0790E0001C66F3D
:10391800FC0EC76F020E3DEC4EF0170E0001C66F8D
:10392800FC0EC76F040E3DEC4EF0C30E0001C66FCF
:10393800FC0EC76F060E3DEC4EF012003AAC3DD0BF
:103948003C0E0001C66FFC0EC76F020E3DEC4EF038
:103958005F0E0001C66FFB0EC76F040E3DEC4EF004
:10396800000E0101366F640E356F37C01DF01E6AF8
:10397800000E206E0A0E1F6E00EC4DF0300E1D2456
:103988000001BF6F000E1E20C06FE4EC41F037C08D
:1039980017F0186A000E1A6E0A0E196EEBEC4EF04C
:1039A800300E17240001BF6F000E1820C06FE4EC22
:1039B80041F0040E90EC4FF01200500E3718D8A4C6
:1039C80011D03C0E0001C66FFC0EC76F020E3DEC15
:1039D8004EF0870E0001C66FFC0EC76F040E3DEC5B
:1039E8004EF01200392A4750D8A4A7D0030E481821
:1039F800D8A469D0F60E0001C66FFB0EC76F020E81
:103A08003DEC4EF0000E0101366F220E356F6BEC67
:103A180053F071C1B8F072C1B9F0000E0001BB6F6C
:103A2800640EBA6FAAEC50F0300E0001B825BF6FD3
:103A3800000EB921C06FE4EC41F0000E0001BB6F2D
:103A48000A0EBA6F71C1B8F072C1B9F0AAEC50F0A1
:103A5800B8C0B3F0B9C0B4F0000E0001B66F0A0EDA
:103A6800B56FACEC51F0300E0001B325BF6F000EFE
:103A7800B421C06FE4EC41F0000E0001C06F2E0EBF
:103A8800BF6FE4EC41F071C1B3F072C1B4F0000E45
:103A98000001B66F0A0EB56FACEC51F0300E0001A4
:103AA800B325BF6F000EB421C06FE4EC41F0000EE7
:103AB8000001C06F410EBF6FE4EC41F0040E90ECC2
:103AC8004FF07DEF21F0000E1C6E000E5AEC53F003
:103AD800040E1C6E010E5AEC53F001014D51D8B47E
:103AE80011D0110E0001C66FFC0EC76F020E3DEC1F
:103AF8004EF0DB0E0001C66FFB0EC76F040E3DECE7
:103B08004EF010D0800E0001C66FFC0EC76F020E7B
:103B18003DEC4EF06B0E0001C66FFC0EC76F040E35
:103B28003DEC4EF0100E1C6E060E5AEC53F0000ED3
:103B38001C6E070E5AEC53F0DCD34704D8B404D0FB
:103B4800020E4718D8A4D5D3EDEC51F04704D8A4F9
:103B580027D0000E0001D16F0C0ED16501D020D006
:103B6800D151C96FCA6B4A0EC927000ECA23B50EB8
:103B7800C925D96E030ECA21DA6E000EDF6ED15147
:103B8800C96FCA6BCA0EC927000ECA23B50EC9254C
:103B9800D96E030ECA21DA6E000EDF6ED12BDCD788
:103BA800010137513811D8A418D0000E0001D16F87
:103BB800080ED16501D0ABD0D151C96FCA6B590E6F
:103BC800C927000ECA23B50EC925D96E030ECA210E
:103BD800DA6E000EDF6ED12BEBD7000E0101366FC7
:103BE800630E356F000E7E6F000E7D6F7FC11DF076
:103BF80080C11EF0000E206E3C0E1F6E24EC53F0A8
:103C08001DC0CFF01EC0D0F037C1C9F038C1CAF00E
:103C18000001C91FCA1FC94BCA2BCF51C925CF6F75
:103C2800D051CA21D06FCFC0B8F0D0C0B9F0000EC3
:103C3800BB6F3C0EBA6FAAEC50F0B8C0CDF0B9C05B
:103C4800CEF0CFC0B3F0D0C0B4F0000E0001B66F14
:103C58003C0EB56FACEC51F0B3C0CFF0B4C0D0F0AF
:103C6800CDC0B8F0CEC0B9F0000E0001BB6F0A0E8F
:103C7800BA6FAAEC50F0300E0001B825BF6F000EE5
:103C8800B921C06F7DEC4BF0CDC0B3F0CEC0B4F01D
:103C9800000E0001B66F0A0EB56FACEC51F0300E95
:103CA8000001B325BF6F000EB421C06F7DEC4BF04F
:103CB800000E0001C06F3A0EBF6F7DEC4BF0CFC015
:103CC800B8F0D0C0B9F0000E0001BB6F0A0EBA6F91
:103CD800AAEC50F0300E0001B825BF6F000EB921D4
:103CE800C06F7DEC4BF0CFC0B3F0D0C0B4F0000E85
:103CF8000001B66F0A0EB56FACEC51F0300E000142
:103D0800B325BF6F000EB421C06F7DEC4BF00101ED
:103D180042AF07D0030EE75F140EE76109D02C0EFF
:103D280006D0030EE7272C0EE76502D0140EE76FC6
:103D3800E7C135F1366B000E7E6F030E7D6F41C112
:103D4800AFF042C1B0F0E8EC52F00001B0BF0CD0C7
:103D5800B05104E1040EAF5DD8A006D0000EC06FCC
:103D6800FE0EBF6F7DEC4BF0030E4818D8A45CD054
:103D780080863C0E0101586F030EE627590EE66552
:103D880002D04A0EE66FE6C135F1366B000E7E6F43
:103D9800030E7D6F000E0001C06FFE0EBF6F7DEC3D
:103DA8004BF0000E01017E6F020E7D6F000E366F24
:103DB8004D0E356F71C1B8F072C1B9F0000E000137
:103DC800BB6F640EBA6FAAEC50F0300E0001B82534
:103DD800BF6F000EB921C06F7DEC4BF0000E0001E3
:103DE800BB6F0A0EBA6F71C1B8F072C1B9F0AAEC14
:103DF80050F0B8C0B3F0B9C0B4F0000E0001B66F0F
:103E08000A0EB56FACEC51F0300E0001B325BF6F50
:103E1800000EB421C06F7DEC4BF0000E0001C06FA6
:103E2800410EBF6F7DEC4BF0050E3960B6D0020E27
:103E38004718D8A4B2D0000E0101366F1D0E356F99
:103E4800000E7E6F010E7D6F000E0001C06FE30E45
:103E5800BF6F7DEC4BF0000E01017E6F020E7D6F8F
:103E680041C1AFF042C1B0F0E8EC52F00001B0BF80
:103E780033D0E90EAF5D030EB059D8A02DD0000E97
:103E88000101366F110E356F42AF07D0000E0001E9
:103E9800C06F2D0EBF6F7DEC4BF0000E0101366F29
:103EA800170E356F41C11DF042C11EF0030E206E82
:103EB800E80E1F6E00EC4DF01DC0AFF01EC0B0F054
:103EC800E8EC52F0300E0001AF25BF6F000EB021B4
:103ED800C06F7DEC4BF00ED0000E0101366F170E4F
:103EE800356F42AF07D0000E0001C06F2D0EBF6FB7
:103EF8007DEC4BF0000E0101366F1D0E356F000E84
:103F0800206E640E1F6E41C11DF042C11EF000EC10
:103F18004DF01DC017F01EC018F0000E1A6E0A0EE4
:103F2800196EEBEC4EF017C0AFF018C0B0F0E8EC2B
:103F380052F0300E0001AF25BF6F000EB021C06FE8
:103F48007DEC4BF0000E206E0A0E1F6E41C11DF075
:103F580042C11EF000EC4DF01DC017F01EC018F055
:103F6800000E1A6E0A0E196EEBEC4EF017C0AFF089
:103F780018C0B0F0E8EC52F0300E0001AF25BF6F6A
:103F8800000EB021C06F7DEC4BF0000E0001C06F39
:103F9800410EBF6F7DEC4BF0A3D0000E0001D16F36
:103FA800020ED16501D09CD0D1C07DF101017E6B9C
:103FB800000E366F170E356F0001D151040D650ED6
:103FC800F324D96E010EF420DA6E030EDBAE07D0AF
:103FD800000EC06F2D0EBF6F7DEC4BF005D0000EAC
:103FE8000101366F1D0E356F000E0001926F000E35
:103FF800936FC80E946F420E956FD151040D650EE4
:10400800F324D96E010EF420DA6EDECF8EF0DECF07
:104018008FF0DECF90F0DECF91F0C6EC38F08EC096
:10402800A7F08FC0A8F090C0A9F091C0AAF024EC26
:1040380049F0A7C0AFF0A8C0B0F0E8EC52F0300EDD
:104048000001AF25BF6F000EB021C06F7DEC4BF0B3
:10405800000E0001926F000E936F200E946F410EB8
:10406800956FD151040D650EF324D96E010EF4201D
:10407800DA6EDECF8EF0DECF8FF0DECF90F0DECFBF
:1040880091F0C6EC38F08EC0A7F08FC0A8F090C0B1
:10409800A9F091C0AAF024EC49F0A7C017F0A8C075
:1040A80018F0000E1A6E0A0E196EEBEC4EF017C0DF
:1040B800AFF018C0B0F0E8EC52F0300E0001AF25B8
:1040C800BF6F000EB021C06F7DEC4BF0000E0001F9
:1040D800C06F410EBF6F7DEC4BF00001D12B60D754
:1040E800000E34EC48F0000E1C6E040E5AEC53F02F
:1040F8003AA015D0050E396009D02C0E0001C66F04
:10410800FC0EC76F050E3DEC4EF0EED09F0E000181
:10411800C66FFB0EC76F050E3DEC4EF0E5D03AAA10
:1041280015D0050E396009D02C0E0001C66FFC0EA3
:10413800C76F050E3DEC4EF0D7D0950E0001C66F47
:10414800FB0EC76F050E3DEC4EF0CED04804D8B438
:1041580004D0020E4818D8A438D0CF0E0001C66F7C
:10416800FC0EC76F050E3DEC4EF03850D8B4BCD0ED
:10417800000E0101366F640E356F38C01DF01E6ADF
:10418800000E206E0A0E1F6E00EC4DF0300E1D243E
:104198000001BF6F000E1E20C06FE4EC41F038C074
:1041A80017F0186A000E1A6E0A0E196EEBEC4EF034
:1041B800300E17240001BF6F000E1820C06FE4EC0A
:1041C80041F0050E90EC4FF08FD0030E4818D8A49C
:1041D8008BD080863C0E0101586F070E396025D0C0
:1041E800040E396019D04750D8B416D0020E4718BB
:1041F800D8A409D0990E0001C66FFB0EC76F050E33
:104208003DEC4EF06ED0E10E0001C66FFC0EC76F9C
:10421800050E3DEC4EF065D0F60E0001C66FFB0EA4
:10422800C76F050E3DEC4EF05CD0000E0101366FF5
:10423800220E356F6BEC53F071C1B8F072C1B9F052
:10424800000E0001BB6F640EBA6FAAEC50F0300E7E
:104258000001B825BF6F000EB921C06FE4EC41F032
:10426800000E0001BB6F0A0EBA6F71C1B8F072C1BF
:10427800B9F0AAEC50F0B8C0B3F0B9C0B4F0000E71
:104288000001B66F0A0EB56FACEC51F0300E0001AC
:10429800B325BF6F000EB421C06FE4EC41F0000EEF
:1042A8000001C06F2E0EBF6FE4EC41F071C1B3F096
:1042B80072C1B4F0000E0001B66F0A0EB56FACEC17
:1042C80051F0300E0001B325BF6F000EB421C06F4E
:1042D800E4EC41F0000E0001C06F410EBF6FE4EC4A
:1042E80041F0050E90EC4FF0000E1C6E070E5AECD4
:1042F80053F001015851D8B402D0580712008096E3
:1043080012000101BD6F000E0101C36F000EC26FE4
:10431800000EB86F000EB76F000EB26F000EB16FCF
:104328001FC1ADF120C1AEF121C1AFF122C1B0F181
:104338004550D8A412D0010EC46F030EC46501D035
:104348000CD0C451010D2B0EF324D96E010EF420AC
:10435800DA6E000EDF6EC42BF0D7020E2B19D8A42C
:1043680011D03D50495D3E504A59D8B00BD049C193
:104378001DF04AC11EF0000E206E0A0E1F6E24ECBE
:1043880053F00AD03DC01DF03EC01EF0000E206E56
:104398000A0E1F6E24EC53F01DC047F11EC048F1F1
:1043A800020E456004D047C10FF148C110F1000E5C
:1043B8000101C46F030EC46501D028D0C451010D9A
:1043C8002B0EF324D96E010EF420DA6E020EDE18DD
:1043D800D8A41AD0C24BC32BC451020D0F0EF3241C
:1043E800D96E010EF420DA6EDE50B727DD50B823FF
:1043F800C451020D710EF324D96E010EF420DA6E49
:10440800DE50B127DD50B223C42BD4D7BD51D8A478
:104418004DD0020E4718D8B449D045C1FEF046C168
:10442800FFF00001FE1FFF1FFE4BFF2B3FC01DF0DA
:1044380040C01EF0000E206E0A0E1F6E24EC53F0D2
:104448000001FE511D240101BE6F0001FF511E2015
:104458000101BF6FBFBF14D0BF5103E1BE05D8A093
:104468000FD0BEC11DF0BFC11EF0000E206E040E9D
:104478001F6E00EC4DF01D5001013F271E5003D068
:10448800BE513F27BF51402340AF04D0000E406FBC
:10449800000E3F6F40BF0AD0210E3F5D030E40590A
:1044A800D8A004D0030E406F200E3F6FBD51D8A492
:1044B8006CD0020E4718D8A468D042AF19D042AFCA
:1044C8000CD0F60E415DFF0E4259D8B006D0050E4D
:1044D8003F253F6F000E40211FD041C11DF042C152
:1044E8001EF0000E206E040E1F6E00EC4DF00AD078
:1044F80041C11DF042C11EF0000E206E020E1F6E5B
:1045080000EC4DF01D1E1E1E1D4A1E2A01013F51C2
:104518001D243F6F40511E20406F3BC01DF03CC022
:104528001EF0000E206E0A0E1F6E24EC53F01D5074
:1045380001013F5D1E504059D8A002D040AF23D0A2
:104548003BC01DF03CC01EF0000E206E0A0E1F6E10
:1045580024EC53F01DC03FF11EC040F1030E481873
:10456800D8A40ED001017F518011D8A442BF08D031
:10457800425104E10B0E415DD8A002D0010E04D0D7
:10458800000E010101D0000E4C6F3DC01DF03EC071
:104598001EF0000E206E0A0E1F6E24EC53F001016F
:1045A8003F511D5C40511E58D8B00ED03DC01DF083
:1045B8003EC01EF0000E206E0A0E1F6E24EC53F053
:1045C8001DC03FF11EC040F1B1C11DF0B2C11EF0C7
:1045D800000E206E0A0E1F6E24EC53F01D1E1E1EC8
:1045E8001D4A1E2A010145511D24C06F46511E2037
:1045F800C16FC1AF04D0000EC16F000EC06F47502D
:10460800D8A416D04550D8B40FD03FC01DF040C034
:104618001EF0000E206E0A0E1F6E24EC53F01DC013
:104628003FF11EC040F104D047C13FF148C140F1FD
:104638000101C251C311D8B41200BD51D8B41DD064
:10464800C0C1FEF0C1C1FFF00001FE1FFF1FFE4BFD
:10465800FF2B3FC01DF040C01EF0000E206E0A0E5A
:104668001F6E24EC53F00001FE511D2401013F6F21
:104678000001FF511E200101406F40BF1FD03BC009
:104688001DF03CC01EF0C2C11FF0C3C120F024ECD5
:1046980053F01DC0B9F11EC0BAF1B9C11DF0BAC1BD
:1046A8001EF0000E206E0A0E1F6E24EC53F01D50F3
:1046B80001013F5D1E504059D8B024D0532B010E44
:1046C800896FFB0E8A6F0AEC52F03BC01DF03CC0AC
:1046D8001EF0C2C11FF0C3C120F024EC53F01DC06E
:1046E800B9F11EC0BAF1B9C11DF0BAC11EF0000E71
:1046F800206E0A0E1F6E24EC53F01DC03FF11EC041
:1047080040F103D0000E0101536F01013F51B75D25
:10471800B851800A0001FE6F01014051800A000172
:10472800FE59D8B004D0B7C13FF1B8C140F13FC17C
:10473800BBF140C1BCF145C117F046C118F0196A78
:104748001A6A000E95EC42F017C08EF018C08FF070
:1047580019C090F01AC091F0000E0001926F000E7F
:10476800936F200E946F410E956FC6EC38F08EC093
:10477800B3F18FC0B4F190C0B5F191C0B6F13FC1AB
:1047880017F040C118F0000E18BEFF0E196E1A6E11
:10479800010E95EC42F017C08EF018C08FF019C0CA
:1047A80090F01AC091F0000E0001926F000E936F06
:1047B800200E946F410E956FC6EC38F08EC0A3F1B1
:1047C8008FC0A4F190C0A5F191C0A6F1C0C117F0A7
:1047D800C1C118F0000E18BEFF0E196E1A6E010E38
:1047E80095EC42F017C08EF018C08FF019C090F009
:1047F8001AC091F0000E0001926F000E936F200E08
:10480800946F410E956FC6EC38F08EC0A7F18FC03B
:10481800A8F190C0A9F191C0AAF1FE0E0101896F1B
:10482800F50E8A6FB3C18BF1B4C18CF1B5C18DF1AE
:10483800B6C18EF1A3C18FF1A4C190F1A5C191F1C8
:10484800A6C192F1A7C193F1A8C194F1A9C195F1AC
:10485800AAC196F10AEC52F0000E0101C46FBBC167
:104868001DF0BCC11EF0C2C11FF0C3C120F000EC96
:104878004DF01DC0ABF11EC0ACF10101C451010DDA
:104888002B0EF324D96E010EF420DA6E020EDE1818
:10489800D8A449D0C451010DAD0EF324D96E010E30
:1048A800F420DA6EDF50D8A43ED0C451020D0F0EAA
:1048B800F324D96E010EF420DA6EDE50AB5DDE50C3
:1048C800AC59D8A030D0C451020D0F0EF324D96EC4
:1048D800010EF420DA6EC451020D710EF324E16E5C
:1048E800010EF420E26EDECFE6FFDDCFE5FFC45116
:1048F800010DAD0EF324D96E010EF420DA6E010E0F
:10490800DF6EC207D8A0C307C451020D710EF3248D
:10491800D96E010EF420DA6EDE50BB5FDD50BC5B51
:10492800000EC46F01D0C42B040EC46104D0C25160
:10493800C311D8A494D7000EC46FC251C311D8B400
:104948004FD0C451010D2B0EF324D96E010EF42063
:10495800DA6E020EDE18D8A43BD0C451010DAD0E9C
:10496800F324D96E010EF420DA6EDF50D8A430D0CB
:10497800BBC11DF0BCC11EF0C2C11FF0C3C120F0F5
:1049880000EC4DF00101C451020D710EF324D96EF3
:10499800010EF420DA6E1DC0DEFF1EC0DDFFC4511B
:1049A800010DAD0EF324D96E010EF420DA6E010E5E
:1049B800DF6EC207D8A0C307C451020D710EF324DD
:1049C800D96E010EF420DA6EDE50BB5FDD50BC5BA1
:1049D800C42B040EC46104D0C251C311D8A4B1D7EA
:1049E800000EC46F030EC46501D054D0C451020D2B
:1049F800710EF324D96E010EF420DA6EDECFFEF0CC
:104A0800DDCFFFF0FEC017F0FFC018F0196A1A6A70
:104A1800000E95EC42F017C08EF018C08FF019C048
:104A280090F01AC091F0000E0001926F000E936F83
:104A3800200E946F410E956FC6EC38F08EC0B3F11E
:104A48008FC0B4F190C0B5F191C0B6F1850E0101E7
:104A5800896FFA0E8A6FC4C18BF18C6BC451010D3A
:104A68002B0EF324D96E010EF420DA6EDF5000010C
:104A7800FE6FFE5101018D6F8E6BB3C18FF1B4C112
:104A880090F1B5C191F1B6C192F10AEC52F0010171
:104A9800C42BA8D70D0E896FFB0E8A6F0AEC52F053
:104AA80012000001FF6F64EC3BF00001FE6F3C0E4A
:104AB8000101586F80864304D8B43AA802D081A275
:104AC8003A985651D8A414D0050E0001FF19D8A45D
:104AD8000FD001014B51D8A40BD0010E566F33C033
:104AE8001BF134C01CF135C01DF136C01EF18DD14B
:104AF80001015605D8A419D0D00E1B25BE6F070E8C
:104B08001C21BF6F000E1D21C06F000E1E21C16F3A
:104B18003350BE5D3450BF593550C0593650C15915
:104B2800D8B003D0020E566F28D05605D8A40DD0A1
:104B3800070E0001FF19D8A408D0000E0101566F16
:104B4800000E4B6F08EC1CF060D10E0E01015619D7
:104B5800D8A415D0020E0001FF19D8A410D0010165
:104B68005551D8B40CD0000E796F000E7A6F800EB4
:104B78007B6F3F0E7C6F000E556F010E8BD0010EC0
:104B88000101566589D0020E0001FF19D8B408D07A
:104B9800030EFF19D8B404D0060EFF19D8A47CD090
:104BA80001014B51D8A478D05551D8A45ED063D018
:104BB80033C117F034C118F0000E1A6E640E196E66
:104BC800030E1C6EE70E1B6E0001FF5180EC50F0C7
:104BD80017C033F118C034F107D1010156519FECC9
:104BE8003EF0AFC02FF1B0C030F12FC117F030C187
:104BF80018F0010156514A0D440EF326000EF42216
:104C0800B20EF324F66EE80EF420F76EF86A000E82
:104C1800F8220900F5CF19F00A00F5CF1AF056511D
:104C28004A0D460EF326000EF422B20EF324F66E59
:104C3800E80EF420F76EF86A000EF8220900F5CFA6
:104C48001BF00A00F5CF1CF00001FF5180EC50F07A
:104C580017C02FF118C030F12FC131F030C132F038
:104C68000101565197EC3DF0BFD0010156510E0A93
:104C7800D8B49ED7B2D756C11EF0700E1F6E020E62
:104C8800206EFEC021F00001FF51B3EC4EF001018F
:104C9800566FAAD04B6FB9D0010E01015665A7D047
:104CA800050E0001FF19D8A4A2D001014B51D8A4C8
:104CB8009ED05551D8B465D0000E556F0E0E5619BA
:104CC800D8A492D03151331904E132513419D8B4EF
:104CD8008BD031C117F032C118F0196A1A6A000E68
:104CE80095EC42F017C08EF018C08FF019C090F004
:104CF8001AC091F079C192F07AC193F07BC194F017
:104D08007CC195F0C6EC38F08EC017F18FC018F151
:104D180090C019F191C01AF133C117F034C118F0DD
:104D2800196A1A6A000E95EC42F017C08EF018C086
:104D38008FF019C090F01AC091F017C192F018C105
:104D480093F019C194F01AC195F0C6EC38F08EC0F2
:104D580079F18FC07AF190C07BF191C07CF133C1B9
:104D680017F034C118F0196A1A6A000E95EC42F06F
:104D780017C065F118C066F119C067F11AC068F16B
:104D880033D0010E0101556F0E0E5619D8A419D053
:104D980065C1A7F066C1A8F067C1A9F068C1AAF00B
:104DA80024EC49F0A7C0AFF0A8C0B0F0E8EC52F08E
:104DB800AFC033F1B0C034F133C131F134C132F195
:104DC80013D0170E01015619D8A40ED0000E566F35
:104DD800000E556F000E3A6E000E376E000E386EDC
:104DE80080EC3CF008EC1CF0010E010153D7070ED3
:104DF8000001FF19D8A409D0000E01014B6F000E65
:104E0800186E0A0E176ECEEC51F001014B05D8B49E
:104E180003D05605D8A441D15605D8A425D0000EF4
:104E28001C6E000E5AEC53F0040E1C6E010E5AEC68
:104E380053F0800E0001C66FFB0EC76F020E3DECEB
:104E48004EF01A0E0001C66FFC0EC76F040E3DEC43
:104E58004EF0100E1C6E060E5AEC53F0000E1C6E2F
:104E6800070E5AEC53F016D1010156514A0D070EA0
:104E7800F326000EF422B20EF3240001F86FE80EB8
:104E8800F420F96F020EFA6FC7EC4AF0FDD06BEC14
:104E980053F001015551D8B456D08EEC52F0000EA3
:104EA8000101366F280E356F33C1B8F034C1B9F03F
:104EB800000E0001BB6F640EBA6FAAEC50F0300E02
:104EC8000001B825BF6F000EB921C06FE4EC41F0B6
:104ED800000E0001B66F640EB56F33C1B3F034C174
:104EE800B4F0ACEC51F0B3C0B8F0B4C0B9F0000EF7
:104EF8000001BB6F0A0EBA6FAAEC50F0300E000129
:104F0800B825BF6F000EB921C06FE4EC41F0000E68
:104F18000001C06F2E0EBF6FE4EC41F033C1B3F057
:104F280034C1B4F0000E0001B66F0A0EB56FACECD8
:104F380051F0300E0001B325BF6F000EB421C06FD1
:104F4800E4EC41F083D0000E0101366F280E356F76
:104F580065C1A7F066C1A8F067C1A9F068C1AAF049
:104F680024EC49F0A7C0AFF0A8C0B0F0E8EC52F0CC
:104F7800AFC0B8F0B0C0B9F0000E0001BB6F640E4E
:104F8800BA6FAAEC50F0300E0001B825BF6F000EC2
:104F9800B921C06FE4EC41F0000E0001B66F640E59
:104FA800B56F65C1A7F066C1A8F067C1A9F068C16F
:104FB800AAF024EC49F0A7C0AFF0A8C0B0F0E8EC24
:104FC80052F0AFC0B3F0B0C0B4F0ACEC51F0B3C025
:104FD800B8F0B4C0B9F0000E0001BB6F0A0EBA6F8A
:104FE800AAEC50F0300E0001B825BF6F000EB921B1
:104FF800C06FE4EC41F0000E0001C06F2E0EBF6FD1
:10500800E4EC41F065C1A7F066C1A8F067C1A9F05A
:1050180068C1AAF024EC49F0A7C0AFF0A8C0B0F06E
:10502800E8EC52F0AFC0B3F0B0C0B4F0000E00012D
:10503800B66F0A0EB56FACEC51F0300E0001B32517
:10504800BF6F000EB421C06FE4EC41F0000E010107
:10505800366F580E356F000E0001C06F410EBF6FDE
:10506800E4EC41F0040E90EC4FF014D001015651DD
:10507800F8EC35F0E7C0F8F0E8C0F9F0040E0001EC
:10508800FA6FC7EC4AF006D0010156510E0AD8B49F
:10509800FED6ECD7020E01014B6F33C023F134C0AA
:1050A80024F135C025F136C026F1000E546FFFC03B
:1050B800E8F1000E396E1200000E0101466F000E75
:1050C800456F000E446F000E436F000E426F000ED6
:1050D800416F000ED96F020ED96501D09DD045C130
:1050E80017F046C118F0196A1A6A000E95EC42F0DA
:1050F80017C025F018C026F019C027F01AC028F0EC
:105108000101D951040D650EF324D96E010EF42066
:10511800DA6EDECF29F0DECF2AF0DECF2BF0DECF3D
:105128002CF008EC45F0D8B017D00101D951040D86
:10513800650EF324D96E010EF420DA6EDECFA7F0E7
:10514800DECFA8F0DECFA9F0DECFAAF024EC49F03C
:10515800A7C045F1A8C046F10101D951040D650E5B
:10516800F324D96E010EF420DA6EDECF25F0DECFFF
:1051780026F0DECF27F0DECF28F043C117F044C178
:1051880018F0000E18BEFF0E196E1A6E010E95EC7F
:1051980042F017C029F018C02AF019C02BF01AC025
:1051A8002CF008EC45F0D8B017D00101D951040D06
:1051B800650EF324D96E010EF420DA6EDECFA7F067
:1051C800DECFA8F0DECFA9F0DECFAAF024EC49F0BC
:1051D800A7C043F1A8C044F10101D951040D650EDF
:1051E800F324D96E010EF420DA6EDECFA7F0DECFFD
:1051F800A8F0DECFA9F0DECFAAF024EC49F0010137
:1052080041510001A7250101416F42510001A82128
:105218000101426FD92B5FD74750D8B4A0D1020EF5
:1052280045609DD1000E85EC21F0030E010153610C
:1052380011D03FC01DF040C01EF0000E206E140EAD
:105248001F6E24EC53F0010145511D5C46511E5858
:10525800D8B023D03A86000ED96F030ED96501D095
:105268000CD0D951010D2B0EF324D96E010EF42068
:10527800DA6E000EDF6ED92BF0D7000E0001746FC6
:10528800020E736F000E766F010E756F000ED3EC71
:1052980052F0000E0101536F04D04550D8A4CCEC55
:1052A80053F0020E4818D8B404D0030E4818D8A4F6
:1052B80006D071C1AFF072C1B0F027EC46F043C11F
:1052C80017F044C118F0000E18BEFF0E196E1A6EC2
:1052D800010E95EC42F017C08EF018C08FF019C07F
:1052E80090F01AC091F0000E0001926F000E936FBB
:1052F800200E946F410E956FC6EC38F08EC0C5F144
:105308008FC0C6F190C0C7F191C0C8F145C117F070
:1053180046C118F0196A1A6A000E95EC42F017C0D7
:105328008EF018C08FF019C090F01AC091F0000EDE
:105338000001926F000E936F200E946F410E956FCF
:10534800C6EC38F08EC0C9F18FC0CAF190C0CBF15D
:1053580091C0CCF13FC117F040C118F0000E18BE43
:10536800FF0E196E1A6E010E95EC42F017C08EF002
:1053780018C08FF019C090F01AC091F0000E00010B
:10538800926F000E936F200E946F410E956FC6ECCE
:1053980038F08EC0CDF18FC0CEF190C0CFF191C062
:1053A800D0F1540E0101896FF00E8A6F400E482427
:1053B8008B6F8C6B000E8C233AC08DF18E6B81C184
:1053C8008FF182C190F1C5C191F1C6C192F1C7C1F7
:1053D80093F1C8C194F138C095F1966B37C197F134
:1053E80038C198F153C199F19A6BC9C19BF1CAC1EF
:1053F8009CF1CBC19DF1CCC19EF1CDC19FF1CEC135
:10540800A0F1CFC1A1F1D0C1A2F10AEC52F06DC157
:105418007EF06EC17FF06FC180F070C181F069C10C
:105428007AF06AC17BF06BC17CF06CC17DF059ECFD
:1054380034F07AC0D1F17BC0D2F17CC0D3F17DC009
:10544800D4F165C17EF066C17FF067C180F068C1A4
:1054580081F0D1C17AF0D2C17BF0D3C17CF0D4C144
:105468007DF059EC34F07AC08EF07BC08FF07CC0B0
:1054780090F07DC091F0000E0001926F000E936FC6
:10548800200E946F410E956FC6EC38F08EC0D5F1A2
:105498008FC0D6F190C0D7F191C0D8F1D00E0101DC
:1054A800896FF60E8A6F65C18EF066C18FF067C18D
:1054B80090F068C191F0000E0001926F000E936F9A
:1054C800200E946F410E956FC6EC38F08EC08BF1AC
:1054D8008FC08CF190C08DF191C08EF169C18EF0B2
:1054E8006AC18FF06BC190F06CC191F0000E0001A1
:1054F800926F000E936F200E946F410E956FC6EC5D
:1055080038F08EC08FF18FC090F190C091F191C0AA
:1055180092F16DC18EF06EC18FF06FC190F070C1C5
:1055280091F0000E0001926F000E936F200E946FA1
:10553800410E956FC6EC38F08EC093F18FC094F190
:1055480090C095F191C096F1D5C197F1D6C198F167
:10555800D7C199F1D8C19AF10AEC52F01200000EA5
:105568000101466F000E456F12000001756F0001C2
:1055780075AF24D1756D7551800A120FD8A0A3D0CC
:10558800000E206E0A0E1F6E000E1A6E640E196E43
:105598007551176E186A17BE1806EBEC4EF017C057
:1055A8001DF018C01EF000EC4DF0D8901D361E36C8
:1055B800D8901D361E36240E1D26000E1E22360ECD
:1055C8001D24F66EE80E1E20F76EF86A000EF8220B
:1055D8000900F5CF29F00900F5CF2AF00900F5CF29
:1055E8002BF00A00F5CF2CF0000E206E640E1F6E13
:1055F800000175511D6E1E6A1DBE1E0600EC4DF0A1
:10560800D8901D361E36D8901D361E36480E1D26DB
:10561800000E1E22360E1D24F66EE80E1E20F76EB2
:10562800F86A000EF8220900F5CF25F00900F5CF39
:1056380026F00900F5CF27F00A00F5CF28F0B0ECE6
:1056480032F025C071F026C072F027C073F028C070
:1056580074F071C025F072C026F073C027F074C0D2
:1056680028F0000E1A6E0A0E196E00017551176E99
:10567800186A17BE1806EBEC4EF0D8901736183695
:10568800D89017361836360E1724F66EE80E1820FE
:10569800F76EF86A000EF8220900F5CF29F0090024
:1056A800F5CF2AF00900F5CF2BF00A00F5CF2CF042
:1056B800B0EC32F025C06DF026C06EF027C06FF058
:1056C80028C070F0120000017551800A750FD8A02B
:1056D8005CD0000E206E0A0E1F6E75511D6E1E6A7C
:1056E8001DBE1E0600EC4DF0D8901D361E36D89013
:1056F8001D361E36240E1D26000E1E22360E1D24B3
:10570800F66EE80E1E20F76EF86A000EF822090001
:10571800F5CF25F00900F5CF26F00900F5CF27F0E1
:105728000A00F5CF28F0000E1A6E0A0E196E000155
:105738007551176E186A17BE1806EBEC4EF0D89024
:1057480017361836D89017361836360E1724F66ED0
:10575800E80E1820F76EF86A000EF8220900F5CF57
:1057680029F00900F5CF2AF00900F5CF2BF00A003F
:10577800F5CF2CF0B0EC32F025C06DF026C06EF0FD
:1057880027C06FF028C070F0120000017551040D99
:10579800360EF324F66EE80EF420F76EF86A000E63
:1057A800F8220900F5CF6DF00900F5CF6EF0090079
:1057B800F5CF6FF00A00F5CF70F012007551800A2E
:1057C800120FD8A0A3D0000E206E0A0E1F6E000E76
:1057D8001A6E640E196E7551176E186A17BE180680
:1057E800EBEC4EF017C01DF018C01EF000EC4DF0A9
:1057F800D8901D361E36D8901D361E36240E1D260E
:10580800000E1E22020E1D24F66EE80E1E20F76EF4
:10581800F86A000EF8220900F5CF29F00900F5CF43
:105828002AF00900F5CF2BF00A00F5CF2CF0000E76
:10583800206E640E1F6E000175511D6E1E6A1DBE1E
:105848001E0600EC4DF0D8901D361E36D8901D3639
:105858001E36480E1D26000E1E22020E1D24F66E50
:10586800E80E1E20F76EF86A000EF8220900F5CF40
:1058780025F00900F5CF26F00900F5CF27F00A003A
:10588800F5CF28F0B0EC32F025C071F026C072F0E8
:1058980027C073F028C074F071C025F072C026F0DC
:1058A80073C027F074C028F0000E1A6E0A0E196E25
:1058B80000017551176E186A17BE1806EBEC4EF00A
:1058C800D89017361836D89017361836020E17247F
:1058D800F66EE80E1820F76EF86A000EF822090036
:1058E800F5CF29F00900F5CF2AF00900F5CF2BF004
:1058F8000A00F5CF2CF0B0EC32F025C06DF026C0D0
:105908006EF027C06FF028C070F0120000017551CA
:10591800800A750FD8A05CD0000E206E0A0E1F6E8C
:1059280075511D6E1E6A1DBE1E0600EC4DF0D89006
:105938001D361E36D8901D361E36240E1D26000E26
:105948001E22020E1D24F66EE80E1E20F76EF86A5F
:10595800000EF8220900F5CF25F00900F5CF26F052
:105968000900F5CF27F00A00F5CF28F0000E1A6ECF
:105978000A0E196E00017551176E186A17BE1806BF
:10598800EBEC4EF0D89017361836D89017361836F4
:10599800020E1724F66EE80E1820F76EF86A000E4D
:1059A800F8220900F5CF29F00900F5CF2AF00900FF
:1059B800F5CF2BF00A00F5CF2CF0B0EC32F025C073
:1059C8006DF026C06EF027C06FF028C070F012008E
:1059D80000017551040D020EF324F66EE80EF42052
:1059E800F76EF86A000EF8220900F5CF6DF009008D
:1059F800F5CF6EF00900F5CF6FF00A00F5CF70F023
:105A080012000001A951AA11D8B40CD0A9C0D9FF1D
:105A1800AAC0DAFFA7C0DEFFA8C0DDFF03D00001DF
:105A2800A74BA82BA7C0D9FFA8C0DAFFDF50AB6FE0
:105A3800AB5111EC53F0D8B0F2D7000E0001AC6FA7
:105A48002D0EAB19D8A403D0010EAC6F04D02B0EC9
:105A5800AB19D8A402D0A74BA82B000EAB6F000E31
:105A6800AE6F000EAF6F000EB06F000EB16F000E7C
:105A7800AD6FACB90AD0A7C0D9FFA8C0DAFF2E0E07
:105A8800DE18D8A402D0AC893ED0A7C0D9FFA8C0E0
:105A9800DAFFDF50BDEC53F0D8A038D00001AC835A
:105AA800090EAB19D8B42DD0ACB9AD07AB2BAEC02D
:105AB80017F0AFC018F0B0C019F0B1C01AF00A0E54
:105AC8001B6E000E1C6E000E1D6E000E1E6E55EC39
:105AD80050F017C0AEF018C0AFF019C0B0F01AC03F
