:0400000035EF01F0E7
:100008005982D9CF05F0DACF06F02ED0AECF60F105
:10001800030E01012325016E000E2421026E000E3D
:100028002521036E000E2621046E2751015C2851FC
:100038000258295103582A51045801E25F6B320EC5
:100048005F1901E15F07640E5F25D96EDA6A030E56
:10005800DA2260C1DFFF5F2B27C123F128C124F119
:1000680029C125F12AC126F19EBAD0D79EB89DA8EC
:1000780042D0000E01015B25D96EDA6A030EDA223E
:10008800DF50AD6E5B2B5A515B1903E0320E5B19E2
:1000980032E19D985B6B2FD071B4D0A209D058047F
:1000A80007E174CF60F10101605104E1FF0002D063
:1000B80074CF60F1D08260C173FF320E01015E1906
:1000C80001E15E07080E601904E15E5102E05E0777
:1000D80012D00D0E601903E00A0E601903E1606B7F
:1000E8005E295C6F320E5E25D96EDA6A020EDA225C
:1000F80060C1DFFF5E2BA4BACFD7ABD001018F055B
:1001080050E1545003E1030E581825E02C0E395DD8
:10011800010E3A5902E2809801D08088808A3951CC
:10012800016E3A51026E394B3A2B910E015C010E69
:1001380002580EE382B208D0890E395D130E3A597F
:1001480007E3396B3A6B04D0010E3A6F900E396FA2
:100158003B6B3C6B6FD02C0E3B5D010E3C5903E2B0
:100168008088809A02D08088808A3B51016E3C51F9
:10017800026E3B4B3C2B910E015C010E02580EE3C4
:1001880082A208D0890E3B5D130E3C5907E33B6BF6
:100198003C6B04D0010E3C6F900E3B6F396B3A6B91
:1001A80049D0020E8F1946E1545003E1030E581846
:1001B80020E0580E395D020E3A5902E2809801D0CB
:1001C8008088808A3951016E3A51026E394B3A2B38
:1001D800BD0E015C020E0258BBE382A206D0890E56
:1001E800395D130E3A59ADE2B3D7020E3A6FBC0E21
:1001F800AED7580E3B5D020E3C5903E28088809AC8
:1002080002D08088808A3B51016E3C51026E3B4B84
:100218003C2BBD0E015C020E0258C0E382B206D030
:10022800890E3B5D130E3C59B2E2B8D7020E3C6F03
:10023800BC0EB3D7272B000E282329232A235007C7
:10024800502906E14DC167FF0A0E506F010E4F6F2E
:100258007E907EB053D706C0DAFF05C0D9FF599209
:10026800110036EF33F031EF07F0250EC1191CE00D
:1002780055EC07F011E09A51D96E4DEC07F002D811
:1002880031EF07F00500FA6E9E51FD6E9F51FE6E2C
:10029800FF6AFA50C151120041EC07F0C1C0DFFFFC
:1002A8006BEC07F031EF07F0BB6BBC6BBF6BC06B3F
:1002B80007D00001BF8702D00001BF859B4B9C2B54
:1002C8008CEC07F0F76403D00800F55002D07AEC04
:1002D80007F02D0AEEE01D0AEFE00001BFB7BF9559
:1002E8008CEC07F0F76403D00800F55002D07AECE4
:1002F80007F0C9EC3BF035E30001BB6BBC6BBBC03E
:100308000BF0BCC00CF023EC1AF0F3EC3AF00BC085
:10031800BBF00CC0BCF0D00E00019E6F9F698CEC46
:1003280007F0F76403D00800F55002D07AEC07F024
:100338000001A06FA16B9E51A0279F51A123A0513E
:10034800BB27A151BC239B4B9C2B8CEC07F0F7647B
:1003580003D00800F55002D07AEC07F0C9EC3BF066
:10036800CEE28CEC07F0F76403D00800F55002D019
:100378007AEC07F02E0A2FE10001C08D9B4B9C2BD5
:10038800BD6BBE6B1AD0BDC00BF0BEC00CF023EC29
:100398001AF0F3EC3AF08CEC07F0F76403D008009D
:1003A800F55002D07AEC07F027EC08F00001BD6F99
:1003B800FF0E0C20BE6F9B4B9C2B8CEC07F0F76458
:1003C80003D00800F55002D07AEC07F0C9EC3BF0F6
:1003D80001E2DAD0D8D70001BD6BBE6BC089D4D09A
:1003E800C085F6D0BF8BBF8FF3D09D51D96EDA6A26
:1003F800020EDF26DF5CD96EDA6ADECFA9F0DECF27
:10040800AAF0A951AA1104E1640EA96FFC0EAA6F03
:10041800AB6BAC6B03D00001AB4BAC2BAB51A9253C
:100428009E6FAC51AA219F6FFEEC07F0F86A0F0E81
:10043800F76403D00800F55002D07AEC07F0000901
:10044800EAE10001BD51BE1109E0AB51BD5DAC51FF
:10045800BE5904E2BDC0ABF0BEC0ACF0BB51AB5D51
:10046800BC51AC5905E2AB51BB5FAC51BC5B02D08F
:10047800BB6BBC6BBFB750D017D055EC07F00FE083
:100488009A51D96E4DEC07F001D80ED00500FA6EDE
:100498009E51FD6E9F51FE6EFF6AFA50200C41EC92
:1004A80007F0200E63EC07F02DEC08F0E6E1BC291C
:1004B80033E0E3D755EC07F01DE09A51D96E4DECC7
:1004C80007F001D813D00500FA6E9E51FD6E9F51BA
:1004D800FE6EFF6AFA5033EC08F00F0EF76403D093
:1004E8000800F55002D07AEC07F012000001A94B81
:1004F800AA2B12D033EC08F041EC07F00F0EF7648A
:1005080003D00800F55002D07AEC07F0DF6E000146
:10051800A94BAA2B6BEC07F0AB07D8A0AC07AB290B
:10052800C9E1AC29C7E1BFA731EF07F017D055ECF7
:1005380007F00FE09A51D96E4DEC07F001D80ED0B4
:100548000500FA6E9E51FD6E9F51FE6EFF6AFA50CD
:10055800200C41EC07F0200E63EC07F02DEC08F0BE
:10056800E6E1BC2902E131EF07F0E1D7D0EC07F072
:10057800DF50C16FC10EA96FAA6BAC6B010EAB6FD8
:1005880060D7C00EBF1324D0D9EC07F0F76403D0AE
:100598000800F55002D07AEC07F00001C16FC15194
:1005A80002E13EEF07F0580A01E11CD73B0ADEE002
:1005B800070A0EE0020A01E113D70F0A09E01A0A36
:1005C80001E113D7060ADDE00D0A01E10CD7D2D705
:1005D800070EC01501E1C3D2C0A903D0BE6B060E39
:1005E800BD6F9D51D96EDA6ADFCF9EF0040EDF260B
:1005F8009E51D96EDA6ADECFB7F0DECFB8F0DECF23
:10060800B9F0DECFBAF0BAAF14D0B7C007F0B8C0AF
:1006180008F0B9C009F0BAC00AF070EC3BF007C0A6
:10062800B7F008C0B8F009C0B9F00AC0BAF0030EB4
:10063800BF13AD6BAE6B3EEC08F05EE0B935BA3572
:10064800820FAD6FAE6BFF0EAE23AD07D8A0AE071D
:10065800ADC00BF0AEC00CF00E6A030E0D6EF3ECDD
:100668003AF00BC0ADF00CC0AEF0ADC089F0AEC032
:100678008AF0C3EC17F0C4EC35F089C0ADF08AC03D
:10068800AEF0AEAF03D0AD07D8A0AE07AD510008AD
:100698004EEC21F015EC08F0AFC015F0B0C016F024
:1006A800B1C017F0B2C018F003EC08F0C1EC23F0A9
:1006B80015C0AFF016C0B0F017C0B1F018C0B2F056
:1006C800C7EC07F039EC08F03F0E1C6EFBEC34F079
:1006D80005E20001AD07D8A0AE070ED0C7EC07F0C1
:1006E800196A1A6A200E1B6E410E1C6EFBEC34F060
:1006F80003E30001AD4BAE2B0001BEBF05D0BE51D8
:1007080020E10D0EBD5D1DE2B7C03FF0B8C040F05E
:10071800B9C041F0BAC042F0BD514EEC2AF02EC02B
:1007280043F02FC044F030C045F031C046F092ECA1
:1007380022F03FC0B7F040C0B8F041C0B9F042C0A5
:10074800BAF00001AEBF05D0AE5116E10A0EAD5D9C
:1007580013E23EEC08F049E01EEC08F085EC33F0BB
:10076800755176117711781140E1AEBF3ED0AE5188
:1007780003E1020EAD5D39E3C7EC07F05F0E196EB9
:10078800700E1A6E890E48EC08F0FBEC34F003E2A8
:100798000001F70E02D00001F80EAD27FF0EAE23C0
:1007A800AD514EEC21F015EC08F0B7C007F0B8C019
:1007B80008F0B9C009F0BAC00AF0AFC00BF0B0C079
:1007C8000CF0B1C00DF0B2C00EF0E3EC31F007C090
:1007D800B3F008C0B4F009C0B5F00AC0B6F0000123
:1007E800B76BB86BB96BBA6B2ED01EEC08F085EC02
:1007F80033F00CEC08F0B7C060F0B8C061F0B9C0D5
:1008080062F0BAC063F0B3C007F0B4C008F0B5C076
:1008180009F0B6C00AF0000EBAEC2CF007C064F07C
:1008280008C065F009C066F00AC067F0CFEC39F07F
:1008380060C0B7F061C0B8F062C0B9F063C0BAF088
:100848000001AD6BAE6B010EC16F0A0EC11906E057
:1008580045DB2FDB7ADB02E3C12BF7D7C1C09EF063
:100868009F6B9EBF9F07BD519E27BE519F23AD51D1
:100878009E27AE519F239E51BB5F9F51BC5BBD51CC
:10088800BE1103E0BB07D8A0BC079DDB03E0BB0794
:10089800D8A0BC07BFA535D096DB2BE002DB0EE065
:1008A8009A51D96EF6DA01D824D00500FA6E9E5115
:1008B800FD6E9F51FE6EFF6AFA502D0CDEDA2D0E8A
:1008C800FEDA17D0EEDA0EE09A51D96EE2DA01D8E4
:1008D8000CD00500FA6E9E51FD6E9F51FE6EFF6AA8
:1008E800FA50300CCADA300EEADA0001BB07D8A099
:1008F800BC070001BCBF52D0BC51E4E1BB054EE3CC
:10090800E1D7BFB71ED017D0CCDA0EE09A51D96E16
:10091800C0DA01D80CD00500FA6E9E51FD6E9F51C9
:10092800FE6EFF6AFA50200CA8DA200EC8DA000121
:10093800BB07D8A0BC07BCBF04D0BC51E5E1BB05D0
:10094800E3E241DB2BE0ADDA0EE09A51D96EA1DA91
:1009580001D824D00500FA6E9E51FD6E9F51FE6E9F
:10096800FF6AFA502D0C89DA2D0E17D0FADAB6DAAA
:10097800A0DAC2DA01EC36F0D2DAB2EC37F0FADA01
:1009880090DA08E09A51D96E84DA01D807D00500C8
:10099800FA6E7DD072DAAF51300F91DA0001C107DB
:1009A800C12918E0E3D77DDA0EE09A51D96E71DAE1
:1009B80001D80CD00500FA6E9E51FD6E9F51FE6E57
:1009C800FF6AFA50300C59DA300E79DA0001AD07B7
:1009D800D8A0AE07AEBF04D0AE51E5E1AD05E3E265
:1009E800BEBF08D0BE5103E1090EBD5D03E3080E8A
:1009F800C16F02D0BDC0C1F0C151BD5F000EC1BF03
:100A0800FF0EBE5BC15113E04CDA0EE09A51D96E6D
:100A180040DA01D80CD00500FA6E9E51FD6E9F5148
:100A2800FE6EFF6AFA502E0C28DA2E0E48DA000104
:100A3800C1514EEC21F091C0A2F092C0A3F093C036
:100A4800A4F094C0A5F0DBDAA2C015F0A3C016F09C
:100A5800A4C017F0A5C018F0C1EC23F0A1EC28F051
:100A680085EC33F0D5DA3ED07CDA38DA22DA44DAAB
:100A780001EC36F054DAB2EC37F07CDA12DA0EE038
:100A88009A51D96E06DA01D80DD00500FA6E9E513A
:100A9800FD6E9F51FE6EFF6AFA50FAD2EED9AF5141
:100AA800300F0DDAB3C014F0B4C015F0B5C016F0AD
:100AB800B6C017F0000112DAFCD9F5CF18F009001A
:100AC800F5CF19F00900F5CF1AF00A00F5CF1BF0A1
:100AD800B2EC37F014C0B3F015C0B4F016C0B5F0DE
:100AE80017C0B6F0C107C12918E0BED7DAD90EE0A1
:100AF8009A51D96ECED901D80CD00500FA6E9E5104
:100B0800FD6E9F51FE6EFF6AFA50300CB6D9300E5A
:100B1800D6D90001BD07D8A0BE07BD51BE11E6E178
:100B2800BFB7BCBF9AD1BC5103E1BB0501E295D167
:100B3800B8D90EE09A51D96EACD901D80CD00500BD
:100B4800FA6E9E51FD6E9F51FE6EFF6AFA50200CA0
:100B580094D9200EB4D947DA01E17FD1E9D7BFC0D3
:100B68009EF0C00E9E1717E117DADECFB3F0DDCF87
:100B7800B4F0000EB4BFFF0EB56FB66FB6AF16D0A7
:100B8800030EBF13B61FB51FB41FB36D000EB423F9
:100B9800B523B6230BD000DADECF9EF0DDCF9FF071
:100BA8009EC0B3F09FC0B4F0B56BB66BBD51BE111B
:100BB80024E1B351B411B511B6111FE1BD4BBE2BE1
:100BC8001CD0010EC16F0A0EC1191EE087D971D958
:100BD800BCD91AE3C12BF7D7010EC16F080EC11992
:100BE80013E0C151040D6A0EF324F66EE80EF420EA
:100BF80060D9ABD909E3C12BF1D7BF51C00BE1E0F4
:100C0800800AEAE0400ADDE03ADABD51C15DBE5132
:100C1800800A9E5903E2BDC0C1F00FD0BE51800AC0
:100C28009E6FC151BD5D800EC1BF7F0E9E5905E20A
:100C3800C151BD6FBE6BBDBFBE07BB51BC1105E046
:100C4800C2D903E0BB07D8A0BC07C0AD10D0BB51C8
:100C5800BD5DBE51800A9E6FBC51800A9E5905E257
:100C6800BD51BB5FBE51BC5B02D0BB6BBC6B07DA2E
:100C7800BB51C15DBC51800A9E5907E2C151BB5F9F
:100C8800000EC1BFFF0EBC5B02D0BB6BBC6BBFA527
:100C980032D099D913E005D90EE09A51D96EF9D816
:100CA80001D80CD00500FA6E9E51FD6E9F51FE6E64
:100CB800FF6AFA502D0CE1D82D0E01D90001BB5165
:100CC800BC1101E1A6D0EDD80EE09A51D96EE1D859
:100CD80001D80CD00500FA6E9E51FD6E9F51FE6E34
:100CE800FF6AFA50300CC9D8300EE9D80001BB07AA
:100CF800D8A0BC07E4D7BB51BC1117E0BFB715D0CB
:100D0800D0D80EE09A51D96EC4D801D80CD00500BD
:100D1800FA6E9E51FD6E9F51FE6EFF6AFA50200CCE
:100D2800ACD8200ECCD85FD9EBE14DD972E0B9D858
:100D38000EE09A51D96EADD801D86BD00500FA6E85
:100D48009E51FD6E9F51FE6EFF6AFA502D0C95D88C
:100D58002D0EDF6E5DD03CD9D90E9E25F66EEF0EB6
:100D68009F21A7D8C9D8FDD801EC36F007C014F0E8
:100D780008C015F009C016F00AC017F00A0E186E60
:100D8800196A1A6A1B6AB2EC37F01450300FC16F37
:100D98002BD0E7D81DD96A0E9E25F66EE80E9F2146
:100DA80088D8AAD801EC36F007500F0BA66FBFBB46
:100DB80004D0CE0EA76FFA0E03D0BD0EA76FFA0EA1
:100DC800A86FA651A7259E6F000EA8219F6F12D964
:100DD800F86A0800F5CFC1F007D0BF51C00BBBE0DF
:100DE800800AD7E0400AB7E05CD80FE09A51D96E84
:100DF80050D801D80ED00500FA6E9E51FD6E9F5155
:100E0800FE6EFF6AFA50C151120037D8C1C0DFFF29
:100E18005ED80001BD07D8A0BE07BD29DEE1BE2906
:100E2800DCE1BFB7BCBF19D0BC5102E1BB0515E37B
:100E380038D80EE09A51D96E2CD801D80CD00500BC
:100E4800FA6E9E51FD6E9F51FE6EFF6AFA50200C9D
:100E580014D8200E34D8C7D8EBE1A7D8F76403D04C
:100E68000800F55001D042D80001C16FC15102E01D
:100E780039EF01F09A6B9B6B12009A51D96EDA6ABE
:100E8800DECF9EF0DDCF9FF09EC0D9FF9FC0DAFF76
:100E98001200DA6A020ED926DECF9EF0DDCF9FF06F
:100EA800020C9A51D96EDA6A020ED926DE50DE108B
:100EB8001200F76EF86A000EF82209001200DF6EC1
:100EC8009A51D96EDA6ADE2A000EDD22000C9A5198
:100ED800D96EDA6ADE2A000EDD22000CC151040D3B
:100EE800D90EF324F66EEF0EF4201200F6CFE1FFD0
:100EF800F7CFE2FFE7501200F5CF0BF00900F5CF6E
:100F08000CF00900F5CF0DF00A00F5CF0EF0120035
:100F18009BC0F6FF9CC0F7FFF86A0F0E120007C0CF
:100F2800AFF008C0B0F009C0B1F00AC0B2F0AFC06D
:100F380014F0B0C015F0B1C016F0B2C017F00A0E28
:100F4800186E196A1A6A1B6A0A0CF550B35D090013
:100F5800F550B4590900F550B5590900F550B6597E
:100F68001200B3C007F0B4C008F0B5C009F0B6C0AD
:100F78000AF0120014C0AFF015C0B0F016C0B1F0FE
:100F880017C0B2F01200AFC015F0B0C016F0B1C073
:100F980017F0B2C018F012009D51D96EDA6ADF500E
:100FA800DF2ADF2AD96EDA6A120000019B519E6F90
:100FB8009C519F6F9B4B9C2B9EC0F6FF9FC0F7FFD9
:100FC800F86A0F0E1200BFC09EF0030E9E17030CA6
:100FD800BDC09EF0BEC09FF0D8909E379F37D89076
:100FE8009E379F3712000001BB07D8A0BC07BB5132
:100FF800BC1112009EC0F6FF9FC0F7FF1200B7C0D9
:1010080019F0B8C01AF0B9C01BF0BAC01CF0120031
:1010180075C0B3F076C0B4F077C0B5F078C0B6F05C
:10102800120091C0AFF092C0B0F093C0B1F094C07C
:10103800B2F01200B7C075F0B8C076F0B9C077F05A
:10104800BAC078F012000B26000E0C22D00E0B242A
:1010580012000001BB07D8A0BC07BB291200A9C019
:10106800F6FFAAC0F7FFF86A1200196A1A6A800E1A
:101078001B6E800CB751B811B911BA111200800E4D
:10108800C1BF7F0E9E6F12001B6E400E1C6E400C7F
:10109800AF51300F12000101E76B050EE66FE26BEE
:1010A800DE6BE56BE46BDF6B010EE36FD16F21EE56
:1010B800D2F00B0EDE6AE806FDE2E5EC32F00CEC4D
:1010C8002BF001EC1AF0F3EC3AF039EC1AF075EC6D
:1010D80036F028EC3AF0D082515102E031EC2CF095
:1010E80001015C5102E049EC0FF05B5102E1ACB246
:1010F8008A9A83EC35F0A30E946E00F000F08250CB
:10110800210B0101EE6FEE39E8461F0BF36FEE512C
:10111800EE25020BF3138150010BF313820E946E2C
:10112800070EF31903E1F251F31903E0F3517FECD1
:101138001AF0010E556515D0170E556112D0880E9C
:101148001F25C76F130E2021C86F000E2121C96FFC
:10115800000E2221F4EC0EF004E2545102E185EC79
:1011680031F0010E81A4000EE31968E0DF2BDF05E2
:10117800C76F050EC76563D0000E81B4010EE36F1B
:10118800E35139E056D04B5103E041EC0FF002D067
:10119800010E4B6F530E0001DF6FFB0EE06F4BC16A
:1011A800E1F0E26BCDEC3AF030D0010E4B6F2DD070
:1011B800570403E1020E576E04D0010E576E536AAE
:1011C8004A6B560422E1BAEC0EF018EC3BF01DD045
:1011D800010E576E560419E1BAEC0EF018EC3BF00C
:1011E80014D0030E581811E1010E586E51510DE13B
:1011F8000F0E536E0AD08D51010AC5E0030AD5E0DF
:10120800010AD6E0070AE4E0ECD701018C0516E1F3
:1012180054B881B213D0549811D041EC0FF00ED0CD
:10122800020E576E56040AE1BAEC0EF018EC3BF0C9
:1012380005D08D51020AF1E0060AF2E0DF6B8C0559
:1012480006E181A204D0010E586E5488576B050E32
:10125800581815E12A51291103E102EC0FF00FE3A8
:10126800356A010E2DEC0FF018EC3BF0200E000152
:10127800DF6FF80EE06FCDEC3AF0E4EC0EF05804B6
:1012880001E084D0BD6A828481982B6B12EC38F01F
:101298000101ED6FED0503E1549A5490536A020E73
:1012A800ED1974E1020E61196EE14B516CE0FEEC30
:1012B8000EF0C7656BD042EC2DF0E80601E15486CC
:1012C800535064E1545062E10101E56BB5EC34F030
:1012D800720E0001DF6FF90EE06F47C1E1F048C1FF
:1012E800E2F084C1E3F085C1E4F0CDEC3AF001010D
:1012F80075EC1AF007E2AEEC0EF023EC1AF0F3EC02
:101308003AF004D013EC1AF0F3EC3AF07AEC1AF055
:10131800010E56641ED0356A020E15EC0FF018EC5B
:101328003BF010EC0FF0E1EC0EF0BAEC2CF07AEC9C
:101338000EF0F4EC26F092EC0EF0AE0EDF6FF70E26
:101348009BEC0EF0CDEC3AF0060E586EE4EC0EF085
:101358001DD0AEEC0EF023EC1AF0F3EC3AF00BC013
:101368000FF10CC010F1010E01012B6F020E586E27
:101378003C0E586F8086390E0001DF6FFB0EE06F60
:10138800CDEC3AF003D0020E616FE76B060E5818E9
:1013980009E101012A51291103E102EC0FF002E3EE
:1013A800010E586E020E581801E08CD0070EBC646E
:1013B80075D0180EBC6072D012EC38F00101ED6FD8
:1013C800ED0519E1610513E1FEEC0EF0C76566D085
:1013D800010E586E1F0E0001DF6FFB0EE06FCDECA3
:1013E8003AF0010E56645AD0EAEC0EF057D0010ECE
:1013F800616FE76B53D0030EED194CE1030E6119D1
:1014080047E1E50545E1FEEC0EF0C76547D05450CD
:1014180045E1535043E1010E56641ED0356A030E70
:1014280015EC0FF018EC3BF010EC0FF0E1EC0EF0BF
:10143800BAEC2CF07AEC0EF0F4EC26F092EC0EF00C
:10144800D40EDF6FF70E9BEC0EF0CDEC3AF0070EE2
:10145800586EE4EC0EF022D06BEC1AF042EC2DF052
:10146800000914E1020E01012B6F6E6B6F6B010E08
:10147800E2EC17F0D5EC0EF002E1B2EC13F0460EF8
:10148800000145EC0FF0CDEC3AF008D0548606D0B8
:10149800030EAED7020E611901E0616BE60EBC6463
:1014A80011D0F10EBC64FDD7BC6401D0BC5012EC65
:1014B80038F00101ED6F040EED1903E1010EE56F3F
:1014C80001D0E56B070E581811E101012A512911C5
:1014D80003E102EC0FF00AE3E56B020E586E5D0EB5
:1014E8000001DF6FFA0EE06FCDEC3AF0030E5818EA
:1014F80056E1070EBC6453D0180EBC6050D012ECF5
:1015080038F00101ED6FED0502E0ED511FE16105D5
:1015180019E1FEEC0EF0C76542D0010E586E8198B5
:101528002C0E0001DF6FFB0EE06FCDEC3AF075EC8E
:1015380036F0010E566403D0EAEC0EF030D001010B
:101548002B6B2DD0010E616FE76B29D0020EED19C0
:1015580025E1020E611920E1FEEC0EF0C7651FD0EF
:10156800819875EC36F00101E56B020E586E010E9C
:10157800566409D0080E586EE90E276F030E286FBF
:10158800296B2A6B01D02B6B650E0001DF6FFA0EF9
:10159800E06FCDEC3AF003D0020ED5D7616B080EA0
:1015A800581815E101012A51291103E102EC0FF045
:1015B8000EE3356A040E2DEC0FF018EC3BF0460EE6
:1015C8000001DF6FF80EE06FCDEC3AF0F9DBABA26B
:1015D80002D0AB98AB8871A202D071987188D6CF2F
:1015E800EEF13C0ED764B8D0D76AD66A3DEC38F035
:1015F8004A5114E03751C76F3851C86F374B382BF1
:101608006CEC17F0F3EC3AF00101C7510B5CC851D0
:101618000C5806E2010E586E4A6B02D0376B386BD5
:10162800535001E05306370E566102D054B4549417
:1016380054C0C7F1210EC71709E0020E566006D044
:1016480042EC2DF0000902E15490549A0101E65150
:1016580018E154B216D05482010E586E900E000153
:10166800DF6FF90EE06FCDEC3AF00101EE6B030E7F
:10167800EE6501D009D02B0EEE2563DBDF6AEE2B79
:10168800F6D7E65101E0E607400E566516D05484B9
:10169800010E586E000E0001DF6FFA0EE06FCDEC00
:1016A8003AF00101EE6B030EEE6501D006D02B0E69
:1016B800EE2547DBDF6AEE2BF6D754C0C7F1290EBB
:1016C800C7171DE05496020E57180BE1535007E157
:1016D800AE0E0001DF6FF90EE06FCDEC3AF0548AE0
:1016E8000AD0535007E1D60E0001DF6FF80EE06F05
:1016F800CDEC3AF05480010E586E3C0E536EB2ECAD
:1017080013F0575007E00101D107D12903E1010E79
:101718004C6FD16F575020E10101436B446BE4518A
:1017280001E0E407020E566017D0E45115E1000EFF
:10173800E2EC17F0560402E1E5EC3BF0020E581813
:1017480003E0030E581803E173DB28EC2FF0020EB8
:101758000101E46F0A0EE66F01014C5116E0020E1A
:10176800566013D00CD08BC139F0555004EC39F0C9
:101778000BD088C139F0895104EC39F005D04C51AF
:10178800010AF1E0030AF5E04C6B5F5101E18FD2E9
:10179800030E2325C76F000E2421C86F000E2521D4
:1017A800C96F000E26211CDB01E381D2320E076EC1
:1017B800030E086E640E096E030E0A6E5FC10BF00D
:1017C8000C6A70EC39F05FC15DF15F6B320E906F9F
:1017D800030E916F5DC192F1D5EC24F0030E010167
:1017E8000B1968E10A0EE66F61D0555018E08B516D
:1017F800001915E133DB55C082F0620E0001836FDA
:10180800010E846FE7EC25F00101895105E0020E15
:101818004C6F010EDE6F4BD27AEC1EF048D2DE51CF
:1018280001E145D2895101E142D28851001901E014
:101838003ED214DB89C182F0D20E0001836F010E03
:10184800846FE7EC25F00101EE6B020EEE6501D026
:101858002BD0EE51E3EC1FF0DECF60F0DECF61F06D
:10186800DECF62F0DECF63F0EE51040DD20EF3242A
:10187800D96E010EF420DA6EDECF64F0DECF65F0AB
:10188800DECF66F0DECF67F0CFEC39F00101EE5124
:10189800E3EC1FF060C0DEFF61C0DEFF62C0DEFF68
:1018A80063C0DEFFEE2BD1D7DE6BB6D70151040A39
:1018B8009CE0FDD1020E0B1901E0A4D00A0EE66FE0
:1018C80097D05650001901E0F2D164EC30F0E86F7F
:1018D800E82901E1ECD1E85181EC37F0E8D1010EBB
:1018E800006519D0050E006116D00251031107E0FA
:1018F800035105E1050E025D02E2030E0BD0035110
:1019080003E1810E025D07E3035105E1850E025DE7
:1019180002E2020EE26F005103E0561801E0C7D15F
:1019280064EC30F0E86FE82901E1C1D1E8513CEC02
:1019380036F0BDD1005103E0561801E0B8D10205D8
:1019480003114CE1010E566449D05650C76FC86B5D
:10195800D890C737C83721EE08F0DECFC9F1DDCF00
:10196800CAF1C751C927C851CA23FE0EC925D96E65
:10197800FF0ECA21DA6EDF50CC6FCB6B5650CD6F9D
:10198800CE6BD890CD37CE3721EE08F0DECFCFF131
:10199800DDCFD0F1CD51CF27CE51D023FF0ECF25AB
:1019A800D96EFF0ED021DA6EDF50CB11E06FCC512B
:1019B800E16F9D0E0001DF6FF60EE06F00C1E1F0F0
:1019C800E26B02C1E3F003C1E4F0E0C1E5F0E1C17C
:1019D800E6F0CDEC3AF0020E0101E26F64EC30F073
:1019E800E86FE82901E163D1E85194EC2FF05FD169
:1019F8000151040A01E165D7020A01E170D7160A0C
:101A080099E055D1100E0001DF6FFB0EE06FCDECB1
:101A18003AF04DD1005138E1010E566435D02DD041
:101A2800E0C16EF1E1C16FF1020E581803E0030E38
:101A3800581803E1FDD928EC2FF06EC107F06FC1EB
:101A480008F0BBD9BAEC2CF051D9F4EC26F066D9E1
:101A58006C0EDF6FF80E6BD9CDEC3AF015D0010E95
:101A6800586E06C154F03C0E536E900E0001DF6FA5
:101A7800F80EE06FCDEC3AF007D07FD905E1C751F9
:101A8800010ACEE0030AEBE056500101001959E0C3
:101A980016D1010E586EDF0E0001DF6FFA0EE06FEF
:101AA800CDEC3AF00CD10651071109E15486440EE9
:101AB8000001DF6FFC0EE06FCDEC3AF000D1D3D916
:101AC80028EC2FF0020E586E4AD9BAEC2CF00ED939
:101AD800F4EC26F023D92E0EDF6FF70E28D9CDECC3
:101AE8003AF0EDD00651071109E154864C0E000179
:101AF800DF6FFC0EE06FCDEC3AF0E1D0B4D928EC02
:101B08002FF04FD902E1B2EC13F029D9BAEC2CF03E
:101B1800EDD8F4EC26F002D9860EDF6FF70E07D960
:101B2800CDEC3AF0460EADD9CDEC3AF0C8D0020E65
:101B3800586EFA0E0001DF6FF70EE06FCDEC3AF049
:101B4800BED01BD901E0BBD0C751810AA2E0030A6D
:101B5800AAE0010AC7E0070AEAE0B1D0560401E0AA
:101B6800AED00005EF6F95D02B0EEF25EAD8DF6ACF
:101B7800000EE2EC17F0470E0001DF6FFA0E47D9AE
:101B8800CDEC3AF0356A810E58D918EC3BF097D075
:101B980042EC2DF0000914E136D9D3D8010EDF6EDE
:101BA800EF51F9EC19F064D91BEC1AF0F3EC3AF0A8
:101BB8000101EF51ABD80BC0DEFF0CC0DDFF05D033
:101BC8000101EF51A3D8DE6ADD6AC9D8BAEC2CF05E
:101BD8008DD8F4EC26F0A2D8150EDF6FF90EE06F61
:101BE800D4D8CDEC3AF0356A820EB0D88FD82BD93C
:101BF80018EC3BF064D042EC2DF0000910E103D959
:101C0800A0D8020EDF6EEF51F9EC19F031D9EF517F
:101C18007DD8DE6ADD6A010EE2EC17F005D001011D
:101C2800EF5174D8DE6ADD6A0101EF516FD8DECF5B
:101C3800C7F1DDCFC8F1C7C107F0C8C108F0BDD8EA
:101C4800BAEC2CF053D8F4EC26F068D8F60EDF6F17
:101C5800F80EE06F9AD8CDEC3AF0356A830E76D854
:101C680055D8F1D818EC3BF02AD02B0EEF2569D8BF
:101C7800DF6A000EE2EC17F0CA0E0001DF6FF90E02
:101C8800C6D8CDEC3AF0356A840ED7D818EC3BF0BC
:101C980016D073D814E1C751010A01E165D7030AC8
:101CA80001E176D7010AA7E0070ADFE008D00101C1
:101CB800E251020A01E1AED6010A01E14FD754A26E
:101CC80005D00A0E0101E61901E1549254C0C7F18A
:101CD800210E0101C71707E0535005E1010E5664B4
:101CE80002D05490549AE26B70EF08F007C060F08D
:101CF80008C061F009C062F00AC063F00001646BBB
:101D0800656B200E666F410E676F410C020D6E0EFB
:101D1800F324D96E010EF420DA6E120060C0E9F1E6
:101D280061C0EAF162C0EBF163C0ECF11200E06F50
:101D3800E9C1E1F0EAC1E2F0EBC1E3F0ECC1E4F0A3
:101D48001200D96EDA6A010EDA221200346E01012D
:101D5800EF51120047C10BF048C10CF0120006C148
:101D680007F007C108F0096A0A6A000C356AA80E6C
:101D7800346E57C036F0376A000C21EE02F0DECF21
:101D8800C7F1DDCFC8F1C8511200EFC1E1F0E26B35
:101D9800E9C1E3F0EAC1E4F0EBC1E5F0ECC1E6F03B
:101DA800120081880101E56B030E586E576B276B93
:101DB800286B296B2A6B55511200096A0A6A000CB4
:101DC8000101276B286B296B2A6B1200050E586ED0
:101DD800E90E0101276F030E286F296B2A6B030C8C
:101DE800CA6F2751C75D2851C8592951C9592A5165
:101DF800CA591200E72BE705C76F190CE90E275DD2
:101E0800030E285912002B0E0101EF251200E06F76
:101E1800EFC1E1F0E26B120045C107F046C108F0DE
:101E28001200346E45C136F046C137F056501200E4
:101E38006EC17FF06FC180F01200346E376A366A67
:101E4800010100511200DECF36F0DDCF37F000512E
:101E58001200346E376A366A5650120008C180F094
:101E680009C181F0120006C17FF007C180F012009D
:101E780006C1DEFF07C1DDFF12004B6B010E586E75
:101E8800010CDF6FFB0EE06F1200C3EC2DF0B96F91
:101E98008D0E0001AEEC13F0CDEC3AF00101595172
:101EA8001BE1BE6B15D0D1DB640EBE25BEDB4A0D2F
:101EB8008A0EF324096EE80EF4200A6E90EC38F0CE
:101EC8000750081003E1F7DBB0DB596F0101BE2BA7
:101ED800D2DB01E3ADD1E7D70201325101E086D16F
:101EE8000101596BA5D1320E0001816F020E826F7C
:101EF8004EEC3BF081C0BAF182C0BBF183C0BCF1AB
:101F080084C0BDF1BAC115F0BBC116F0BCC117F051
:101F1800BDC118F0196A1A6AC00E48EC08F0FBEC4B
:101F280034F011E3156A166AA00E176E420E186E89
:101F3800BAC119F0BBC11AF0BCC11BF0BDC11CF07D
:101F4800FBEC34F008E25A0E0001DF6FF70EE06F89
:101F5800CDEC3AF068D1B1EC1CF085EC33F0BAEC7A
:101F68001CF0A5EC3AF07FC007F080C008F0EBEC5D
:101F78001FF0BAEC2CF007C060F087EC2FF0C8EC2B
:101F88001CF0F4EC26F060C0B2F161C0B3F162C09D
:101F9800B4F163C0B5F137EC1EF0BAC115F0BBC19E
:101FA80016F0BCC117F0BDC118F0C1EC23F015C084
:101FB80060F016C061F017C062F018C063F0B2C1DB
:101FC80064F0B3C165F0B4C166F0B5C167F0F4EC74
:101FD80026F0BFEC1CF084EC29F025D136DB990EF5
:101FE800096EFB0E0A6E90EC38F00750081002E1FB
:101FF800020E0BD02ADBE10E096EFC0E0A6E90EC85
:1020080038F00750081003E1010E576EE4D71DDBC6
:102018009C0E096EFC0E0A6E90EC38F00750081002
:1020280001E001D1576A84EC29F0546AFCD00DDB39
:10203800230E096EFC0E0A6E90EC38F0075008105B
:1020480002E1010E0BD001DBDB0E096EFC0E0A6EFD
:1020580090EC38F00750081004E1020E01018F6F70
:10206800BAD7F3DA60DB90EC38F00750081001E0DB
:10207800DAD001018F6BAFD7E8DAD50E096EFC0E06
:102088000A6E90EC38F00750081004E1010E0101C7
:102098008E6FA1D7DADAA30E096EFC0E0A6E90ECE9
:1020A80038F00750081001E0BED001018E6B93D7BD
:1020B800BE6BCBDABE51090DAC0EF324096EEF0EE0
:1020C800F4200A6E90EC38F00750081004E1BEC105
:1020D80056F084EC29F024DBBE65EBD7A4D0BE6BA8
:1020E800B4DABE510A0D7A0EF324096EEF0EF4200D
:1020F8000A6E90EC38F00750081004E1BEC18DF16B
:1021080084EC29F00DDBBE65EBD78DD09EDA0BDBB6
:1021180090EC38F00750081003E101018C6B5BD795
:1021280094DA950E096EFC0E0A6E90EC38F00750A2
:10213800081079E1010E01018C6F4DD7BE6B85DA6D
:10214800BE51120D790EF324096E020EF4200A6EA8
:1021580090EC38F00750081009E1BEC12EF02F6A44
:1021680001015951B1EC28F084EC29F0D9DABE65A7
:10217800E6D759D06ADAF10E096EFC0E0A6E90ECB9
:1021880038F00750081003E101018A6B24D75DDAA3
:10219800E70E096EFC0E0A6E90EC38F00750081036
:1021A80042E1010E01018A6F16D7320E116E020E3E
:1021B800126E6BEC34F011C0B6F112C0B7F1B6C1B3
:1021C8002EF0B7C12FF001015951B1EC28F00101EF
:1021D800B86F84EC29F00101B85125E1530E0001D4
:1021E800DF6FF90EE06FCDEC3AF01DD001015951C7
:1021F800020A01E141D7010A01E15AD7050A01E1C2
:1022080016D70F0A01E16BD7030A80E0060A01E13D
:10221800E5D6020A01E167D6010A90E01E0AAAE0A3
:10222800030A8CE0C2D70101596BC3EC2DF0B96FDA
:102238000E0E5965B1D1AB0E0001DF6FFA0E7DDAD3
:1022480045DAEDD975DA0101595106EC20F0CEC016
:10225800E3F0CFC0E4F0CDEC3AF09ED13D0E0001A2
:10226800DF6FF20EE06FCDEC3AF0E80EDF6FFB0E99
:10227800E06FCDEC3AF0690EDF6FF60EE06FCDEC53
:102288003AF0340EDF6FF90EE06F56C1E1F0E26B01
:10229800CDEC3AF08A0EDF6FF20EE06FCDEC3AF03B
:1022A8000101BE6B44D0F00E0001DF6FFA0EE06F43
:1022B80002DABBD94A0D8A0EF324000139DAFBD9B8
:1022C800B4D904DAACD9E36FE80EF420E46FCDECAE
:1022D8003AF0F1D9D96EDA6A020EDA220E0EDE1859
:1022E80015E1B40E0001DF6FF80EA5D991D9F4EC11
:1022F80026F0E5D9D5D98CD9F4EC26F0ABD988D914
:10230800F4EC26F0F4D9CDEC3AF00BD0640EBE25EF
:102318008CD906EC20F0CEC0DFF0CFC0E0F0CDECD9
:102328003AF08D0E17DACDEC3AF00101BE2BA3D9A5
:10233800BAE3F90E0001DF6FFC0EE06FCDEC3AF066
:1023480063D1E10E0001DF6FF40EE6D906EC20F050
:10235800C9D9CDEC3AF058D1A40E0001DF6FF40EC4
:10236800DBD906EC20F0BED9CDEC3AF04DD14B0EBE
:102378000001DF6FF10EE06F7EC1E1F07FC1E2F096
:10238800CDEC3AF041D11A0E0001DF6FF30EE06F89
:102398007CC1E1F07DC1E2F0CDEC3AF035D11E0E02
:1023A8000001DF6FF50EB8D906EC20F09BD9AC0E12
:1023B800E36FEF0EE46FCDEC3AF0C8D98BD9090D75
:1023C800AC0EF3240001E16FEF0EF420E26FCDECC8
:1023D8003AF0A6D9BE65F2D799D9CDEC3AF014D126
:1023E8008FD9CDEC3AF0ADD9CDEC3AF05F0EDF6F76
:1023F800F30EE06F86C1E1F087C1E2F0CDEC3AF070
:1024080003D1D30E0001DF6FF20EE06F82C1E1F05D
:1024180083C1E2F0CDEC3AF0F7D072D9CDEC3AF0C6
:1024280090D9CDEC3AF0E40EDF6FF30EE06F84C183
:10243800E1F085C1E2F0CDEC3AF0E6D061D9CDEC1F
:102448003AF0580EDF6FF50EE06FCDEC3AF0A20EC1
:10245800DF6FF30EE06F80C1E1F081C1E2F0CDECF7
:102468003AF0D2D0F00E0001DF6FF10E55D906EC2C
:1024780020F038D9CDEC3AF0C7D0650E0001DF6FF7
:10248800F40E4AD906EC20F02DD97A0EE36FEF0E40
:10249800E46FCDEC3AF05AD91DD946EC21F0E16F42
:1024A800EF0EF420E26FCDEC3AF03AD9BE65F4D7DE
:1024B8002DD9CDEC3AF0A8D0E90E0001DF6FF00E6F
:1024C8002BD906EC20F00ED9CDEC3AF09DD0900E29
:1024D8000001DF6FF50EAFD89BD8F4EC26F0EFD8EB
:1024E80063C0E4F0CDEC3AF08FD0980E0001DF6FB6
:1024F800FA0EE06F790EE16F020EE26FCDEC3AF062
:1025080025D9E8D8120D790EF3240001E16F020EE7
:10251800F420E26FCDEC3AF00101BE2B050EBE654A
:10252800F0D7F4D8CDEC3AF06FD0340E0001DF6F5D
:10253800F60EE06FCDEC3AF067D0A00E0001DF6F29
:10254800F10EE06FCDEC3AF05FD0C80E0001DF6FFE
:10255800F50EE06FCDEC3AF057D0E60E0001DF6FD4
:10256800F90EEBD84A0D440E7CEC31F05DEC07F027
:10257800F5CFE1F00A00F5CFE2F059514A0D460EC9
:102588007CEC31F05DEC07F0F5CFE3F00A00F5CF15
:10259800E4F0CDEC3AF038D00101595101E15ED6B2
:1025A800020A01E1CED6010A01E1F9D6070A01E1E2
:1025B80028D7010A01E142D7030A01E153D7010AEA
:1025C80001E1D5D60F0A01E1DED6010A01E155D7AE
:1025D800030A01E171D7010A01E11FD7070A01E1E6
:1025E800BBD6010A01E1FCD6030A01E170D7010A52
:1025F80001E17BD71E0A99E0030A01E176D7060AB2
:102608009CE0020AA2E0A9D701015C6B5E6B120094
:10261800646B656B200E666F410E676F410C000E90
:10262800F4228A0EF32400011200D96EDA6A020E2F
:10263800DA22DF501200E06F62C160F063C161F01E
:1026480064C162F065C163F01200320E076E020EBB
:10265800086E120060C0E5F061C0E6F062C0E7F005
:1026680063C0E8F06AC160F06BC161F06CC162F0F0
:102678006DC163F01200AB69AC69B951AD6FAE6B57
:10268800AB51AD27AC51AE23BE51AF6FB06BAD515E
:10269800AF5DB051800AB16FAE51800AB1591200D6
:1026A80063C0E4F066C160F067C161F068C162F0C0
:1026B80069C163F01200640E0101BE25120060C0FA
:1026C800E1F061C0E2F062C0E3F012004A0D100EC2
:1026D800F326100CF50E0001DF6FFC0EE06F010110
:1026E800BE511200CEC0E1F0CFC0E2F0120060C0CF
:1026F800E9F061C0EAF062C0EBF063C0ECF01200F0
:10270800250E0001DF6FF40EE06F12009E0E00012F
:10271800DF6FF30EE06F1200E06F010159511200F4
:102728000101BE2B040C540E096EFC0E0A6E120039
:10273800E16FE80EF420E26F1200E06F01015951D9
:102748001200000EDF6FF70EE06F1200010E01019C
:10275800BE6F010CDF6FF80EE06F120001015551DA
:1027680008E0572B790E5719D8A41200556B0CECBA
:102778002BF00A0E571901E1576B545001E198D01C
:1027880080863C0E586F54A21DD0080E00019A6F27
:10279800FC0E9B6F000E18EC37F0750E00019A6F57
:1027A800FB0E9B6F020E18EC37F0B10E00019A6F0A
:1027B800FC0E9B6F040E18EC37F0720E00019A6F36
:1027C800FC0E53D054A411D0B70E00019A6FFC0E22
:1027D8009B6F020E18EC37F08B0E00019A6FFB0E00
:1027E8009B6F040E18EC37F063D054A842D0572BD7
:1027F800570500019D6F050E9D611CD0FF0E9A6F55
:10280800FB0E9B6F000E18EC37F0C90E00019A6F93
:10281800FC0E9B6F020E18EC37F0340E00019A6F15
:10282800FC0E9B6F040E18EC37F0ED0E00019A6F4A
:10283800FB0E1BD0BD0E9A6FFC0E9B6F000E18ECA2
:1028480037F0790E00019A6FFC0E9B6F020E18ECA0
:1028580037F0170E00019A6FFC0E9B6F040E18ECF0
:1028680037F0C30E00019A6FFC0E9B6F060E18EF2F
:1028780037F054AC1DD03DDB18EC37F05F0E00018B
:102888009A6FFB0E9B6F040E18EC37F03EDB51512C
:1028980042EC3AF0B6DAB6EC2EF00A0E076E515159
:1028A800E0EC3AF0AEDAB6EC2EF0040E67EF38F052
:1028B800500E010151190BE11CDB18EC37F0870EA3
:1028C80000019A6FFC0E9B6F040E18EF37F0572B20
:1028D800575002E04B515DE1030E581827E13CDBED
:1028E800020E18EC37F0010162DB06EC3CF0CADAA4
:1028F80029EC39F09FDAB6EC2EF0BCDA29EC39F085
:10290800A1DAB0EC39F075DAB6EC2EF0E9DAB6EC0B
:102918002EF0D6DAB0EC39F06CDAB6EC2EF001DB3A
:10292800B6EC2EF0040E67EC38F05CD2000E0C6AA0
:1029380090EC3BF040DB90EC3BF001014B5111E097
:10294800110E00019A6FFC0E9B6F020E18EC37F007
:10295800DB0E00019A6FFB0E9B6F040E18EC37F02C
:1029680010D0800E00019A6FFC0E9B6F020E18ECBF
:1029780037F06B0E00019A6FFC0E9B6F040E18EC7B
:1029880037F00ADB90EC3BF00C6A070E90EC3BF05A
:1029980029D2570404E0020E571801E023D25CEC58
:1029A8003AF0570414E10001A56B0C0EA56501D09F
:1029B8000ED0E00EA525D96EDA6A030EDA22DF6A98
:1029C800600EA525D96EDA6A040EEDDAEED701019C
:1029D800375138110DE10001A56B070EA56501D02F
:1029E8005DD0F20EA525D96EDA6A030EDCDAF5D7CA
:1029F800366B650E356F7A6B7B6B6ADAF3EC3AF0FF
:102A08000BC0A3F00CC0A4F0010137510001A35F73
:102A1800010138510001A45B94DA3C0E0E6E29ECDA
:102A280039F00CC0A1F00DC0A2F091DA0A6A3C0E90
:102A3800096EB0EC39F007C0A3F008C0A4F0A1C03B
:102A48000CF0A2C00DF0A4DA29EC39F003DA20EC7E
:102A580034F0A1C007F0A2C008F047DAB0EC39F0B2
:102A680001DA20EC34F03507D8A036070001926B64
:102A78003A0E916F20EC34F03507D8A0360761DAAA
:102A88000A0E0E6E29EC39F0E5D920EC34F05FDA45
:102A98002CDAB0EC39F0E6D920EC34F0010140AF83
:102AA80007D0030EF15F140EF16109D02C0E06D089
:102AB800030EF1272C0EF16502D0140EF16FF1C14F
:102AC80035F15ADA38DAA5EC3AF080BF08D08051EF
:102AD80003E1040E7F5D03E362DA20EC34F0030EB9
:102AE800581828E144DA030EF027590EF06502D091
:102AF8004A0EF06FF0C135F13FDA7A6F00014FDA14
:102B080020EC34F07B6B020E7A6F366B4D0E356F0E
:102B1800B9D929EC39F09ED920EC34F0ABD929EC9D
:102B280039F090D9B0EC39F09DD920EC34F0F4D9D3
:102B380020EC34F0050E0101576166D0020E5718DB
:102B480063E1366B1D0E356F7B6B010E7A6F0001EA
:102B5800926BE30E916F20EC34F07B6B020EEBD995
:102B6800A5EC3AF080BF23D0E90E7F5D030E8059B3
:102B78001EE30101366B110E356F40AF03D0F2D959
:102B880020EC34F0366B170E356F84D9030E000134
:102B98008C6FE80E8B6FC4EC35F089C07FF08AC06B
:102BA80080F0A5EC3AF03FD920EC34F009D00101CF
:102BB800366B170E356F40AF03D0D4D920EC34F004
:102BC800366B1D0E356F00018C6B640E8B6F62D9EE
:102BD800C4EC35F06DD94DEC37F0A8D9A5EC3AF036
:102BE80022D920EC34F0CBD955D9C4EC35F060D9D2
:102BF8004DEC37F09BD9A5EC3AF015D920EC34F020
:102C08008BD920EC34F054D00001A56B020EA565D9
:102C180001D04ED0A5C07AF101017B6B366B170E3F
:102C2800356F0001A551E3EC1FF0030EDBAE06D0B3
:102C3800926B2D0E916F20EC34F004D00101366BAD
:102C48001D0E356F0001646B656BC80E666F420E12
:102C5800676FA551E3EC1FF022D9F4EC26F0DAD81F
:102C680085EC33F0BAEC1CF0A5EC3AF0DCD820EC9B
:102C780034F000010CEC13F0A551E3EC1FF00FD970
:102C8800F4EC26F0C7D885EC33F075C083F076C035
:102C980084F07AD94DEC37F049D9A5EC3AF0C3D88D
:102CA80020EC34F039D920EC34F00001A52BAED754
:102CB800000E93EC32F00C6A040E90EC3BF054A03A
:102CC80011D0050E0101576104D019D918EC37F05D
:102CD80085D09F0E00019A6FFB0E9B6F050E18ECB6
:102CE80037F07CD054AA11D0050E0101576104D0E9
:102CF80006D918EC37F072D0950E00019A6FFB0ECA
:102D08009B6F050E18EC37F069D0580403E0020EEB
:102D180058181DE1CF0E00019A6FFC0E9B6F050E2F
:102D280018EC37F053505AE0F0D8535042EC3AF0D0
:102D380068D8B6EC2EF00A0E076E5350E0EC3AF065
:102D480060D8B6EC2EF0050E67EC38F047D0030ECD
:102D5800581844E10CD9070E57611FD0040E57616B
:102D680017D0575015E0020E571809E1990E0001C7
:102D78009A6FFB0E9B6F050E18EC37F02CD0E10E06
:102D880000019A6FFC0E9B6F050E18EC37F023D0EC
:102D9800E3D8050E18EC37F01ED009D906EC3CF044
:102DA80071D829EC39F046D8B6EC2EF063D829EC66
:102DB80039F048D8B0EC39F01CD8B6EC2EF090D8E1
:102DC800B6EC2EF07DD8B0EC39F013D8B6EC2EF076
:102DD800A8D8B6EC2EF0050E67EC38F00C6A070E92
:102DE80090EC3BF00101585102E058071200809620
:102DF8001200300E07240001916F000E0820926F18
:102E0800120000019D6F300E9D25916F926B000E90
:102E18009223000C60C075F061C076F062C077F054
:102E280063C078F01200300E7F25916F000E80216C
:102E3800926F1200300E0C240001916F000E0D20CD
:102E4800926F12000CC007F00DC008F00A6A0A0E53
:102E5800096E0A0C300E0C240001916F000E0D2033
:102E6800926F1200300E07240001916F000E0820A7
:102E7800926F12000F6A0A0E0E6E6EC10CF06FC1CF
:102E88000DF00A0C6EC10CF06FC10DF00F6A640EE4
:102E98000E6E640C3FC189F040C18AF01200DECF8B
:102EA80060F0DECF61F0DECF62F0DECF63F01200BB
:102EB80089C083F08AC084F0866B0A0E856F0A0C7D
:102EC8006EC107F06FC108F00A6A0A0E096E0A0C93
:102ED8007CC10BF07DC10CF00E6A3C0E0D6E3C0CF3
:102EE8000001926B2E0E916F2E0C0A6A0A0E096E63
:102EF8000A0C3C0E00019A6FFC0E9B6F020C2C0E04
:102F080000019A6FFC0E9B6F050C0101366B640E75
:102F1800356F0A0E0B6E0A0C0001926B410E916F11
:102F2800410C0001926B410E916F410C83C07FF000
:102F380084C080F012007A6F3FC17FF040C180F0FA
:102F48001200A3C00CF0A4C00DF00F6A1200A3C0B9
:102F580007F0A4C008F01200F60E00019A6FFB0EED
:102F68009B6F12000001926B2D0E916F2D0C8086C5
:102F78003C0E0101586F3C0C366B7B6B030C000157
:102F88008C6B0A0E8B6F0A0C866B0A0E856F0A0C07
:102F98000F6A0A0E0E6E0A0C100E0C6E060C926B5F
:102FA800FE0E916FFE0CDA22DF6AA52B1200366B3B
:102FB800220E356F220C040E0C6E010CAA6F010153
:102FC800AF6BB06BA46BA56B9E6B9F6B9A6B9B6B87
:102FD8009C6B9D6B56500BE1010EB16F2B0EB1250A
:102FE800A5EC0EF0DF6AB12B030EB165F7D7020E20
:102FF8002B1908E176DA06E2AEEC0EF020DAF3ECF3
:103008003AF003D00CDAF3EC3AF070DA020E5660BC
:1030180001D05DDA0101B16B2B0EB125A5EC0EF0E4
:10302800020EDE180FE1AF4BB02BB151DED9DE50E6
:10303800A427DD50A523B1518AEC0EF0DE509E275F
:10304800DD509F23B12B030EB165E6D7AA5134E1B9
:10305800020E571831E0D1D9F3EC3AF0010143518F
:103068000B5CAB6F44510C58AC6FACBF12D0AC5179
:1030780002E1AB050EE3ABC189F0ACC18AF022DAFC
:10308800C4EC35F0895101013D2700018A51010145
:1030980003D0AB513D27AC513E233EAF02D03D6B30
:1030A8003E6B3EBF09D0210E3D5D030E3E5904E341
:1030B800030E3E6F200E3D6FAA5144E1020E5718D1
:1030C80041E140AF12D040AF0AD0F60E3F5DFF0E8F
:1030D800405905E2050E3D27000E3E2315D04EEC63
:1030E80017F0F0D9C4EC35F008D04EEC17F0000119
:1030F8008C6B020E8B6FC4EC35F0895101013D5F7A
:1031080000018A5101013E5B92D9F3EC3AF0CFD924
:1031180002E33EAF15D08BD9F3EC3AF0A6D9030EF3
:1031280058180EE101017C517D110AE040BF08D01A
:10313800405103E10B0E3F5D03E3010E4A6F02D0DD
:1031480001014A6B6CD9F3EC3AF001013D510B5C7B
:103158003E510C5804E263D9F3EC3AF086D99EC18B
:103168000BF09FC10CF0BFEC2DF0F3EC3AF001012D
:1031780043510B24AD6F44510C20AE6FAEAF02D05B
:10318800AD6BAE6B57500BE1565005E036D9F3ECFA
:103198003AF06BD904D045C13DF146C13EF1010179
:1031A800AF51B011D8B41200AA510AE026D9F3ECF5
:1031B8003AF00101AD510B5C3D6FAE510C583E6FBA
:1031C8003EBF0BD082C10BF06BD9F3EC3AF03FD97C
:1031D80036D9F3EC3AF06BD913E2522B010E000109
:1031E800DF6FFB0EE06FCDEC3AF082C10BF058D9DF
:1031F800F3EC3AF02CD923D9F3EC3AF036D901D0D4
:10320800526B01013D51A45DA551800A0001FE6F7A
:1032180001013E51800A0001FE5904E2A4C13DF1BA
:10322800A5C13EF13DC1A8F13EC1A9F1FAEC1FF0DC
:10323800BAEC2CF07AEC0EF0F4EC26F01BD910D98D
:10324800EBEC1FF0BAEC2CF07AEC0EF0F4EC26F074
:1032580060C090F161C091F162C092F163C093F1D6
:10326800ADC107F0AEC108F0EBEC1FF0BAEC2CF0E2
:103278007AEC0EF0F4EC26F060C094F161C095F1A0
:1032880062C096F163C097F1FE0EDF6FF50EE06F36
:10329800A0C1E1F0A1C1E2F0A2C1E3F0A3C1E4F052
:1032A80090C1E5F091C1E6F092C1E7F093C1E8F072
:1032B80094C1E9F095C1EAF096C1EBF097C1ECF042
:1032C800CDEC3AF00101B16BDED8C4EC35F089C021
:1032D80098F18AC099F1E0D8A5EC0EF0020EDE183C
:1032E8001FE1B1D8EAD81CE1B1517FD8DE50985D12
:1032F800DE50995915E3B15178D8B151020D6E0ECF
:10330800F324E16E010EF420E26EDECFE6FFDDCF9E
:10331800E5FF99D87AD88AEC0EF0DED8B16B01D0E7
:10332800B12B040EB16103D0AF51B011CDE1B16B37
:10333800AF51B01121E02B0EB125A5EC0EF0020E15
:10334800DE1813E180D8B9D810E19DD8C4EC35F067
:103358000101B1518AEC0EF089C0DEFF8AC0DDFFA1
:1033680072D853D88AEC0EF0B7D8B12B040EB161DD
:1033780003D0AF51B011DFE1B16BB1518AEC0EF05F
:10338800DECFFEF0DDCFFFF0FEC007F0FFC008F093
:10339800E1EC0EF0BAEC2CF07AEC0EF0F4EC26F03E
:1033A80069D8850EDF6FFA0EE06FB1C1E1F0E26B0C
:1033B80073D8A5EC0EF0DF500001E36FE46BA0C1F9
:1033C800E5F0A1C1E6F0A2C1E7F0A3C1E8F0CDECB9
:1033D8003AF00101B12B030EB165CFD70D0E0001F4
:1033E800DF6FFB0EE06FCDEF3AF0020D0F0EF32406
:1033F800D96E010EF420DA6E120086C10BF087C177
:103408000CF00E6A0A0E0D6E0A0CDA6A010EDA2248
:10341800010EDF6EAF07D8A0B007B151120084C10A
:103428000BF085C10CF00E6A0A0E0D6E0A0C82C1F3
:103438000BF083C10CF00E6A0A0E0D6E0A0C0E6AB0
:103448000A0E0D6E0A0C9A0EB125D96E12000BC029
:10345800A6F10CC0A7F1A6C10BF0A7C10CF0120091
:103468003DC107F03EC108F012000BC03DF10CC091
:103478003EF1120060C0A0F161C0A1F162C0A2F1EA
:1034880063C0A3F11200A8C189F0A9C18AF0AFC135
:103498008BF0B0C18CF012002B0E0101B125120087
:1034A80083C10CF0AFC10DF0B0C10EF012000B508B
:1034B80001013D5D0C503E591200DA6A010EDA2214
:1034C800DF50120000018C6B040E8B6F040C45C199
:1034D8000FF146C110F11200DE50A85FDD50A95B64
:1034E80012008451475D8551485912000BC045F1BF
:1034F8000CC046F112000001FF6FC3EC2DF0000173
:10350800FE6F3C0E0101586F80868C0504E154B8AB
:1035180081B201D05498555112E1050E0001FF19EE
:103528000EE1010149510BE1010E556F27C11BF155
:1035380028C11CF129C11DF12AC11EF12DD101019B
:10354800550518E1D00E1B25AB6F070E1C21AC6F7B
:10355800000E1D21AD6F000E1E21AE6F2751AB5D11
:103568002851AC592951AD592A51AE5903E2020EDE
:10357800556F1ED055050AE1070E0001FF1906E137
:103588000101556B496BB2EC13F006D10E0E010127
:10359800551910E1020E0001FF190CE10101545107
:1035A80009E0766B776B800E786F3F0E796F546BFE
:1035B800010E71D0010E010155656FD0020E000198
:1035C800FF1906E0030EFF1903E0060EFF1965E177
:1035D8000101495162E154514AE14DD033C107F02C
:1035E80034C108F00A6A640E096E030E0C6EE70E09
:1035F8000B6E0001FF51DEEC38F007C033F108C054
:1036080034F147D05551D6EC27F07FC02FF180C058
:1036180030F12FC107F030C108F0010155514A0DB2
:10362800440E7CEC31F05DEC07F0F5CF09F00A00B0
:10363800F5CF0AF055514A0D460E7CEC31F05DECA1
:1036480007F0F5CF0BF00A00F5CF0CF00001FF51A1
:10365800DEEC38F007C02FF108C030F12FC12EF092
:1036680030C12FF001015551B1EC28F012D055515D
:103678000E0AB4E0C7D755C10EF0640E0F6E020EE5
:10368800106EFEC011F00001FF51E3EC37F00101AC
:10369800556F010E75D0496F7FD0010E0101556538
:1036A80071D0050E0001FF196DE1010149516AE170
:1036B800010E496F545143E0546B0E0E55196CE1DD
:1036C8003151331903E13251341966E031C107F041
:1036D80032C108F0E1EC0EF0BAEC2CF007C060F053
:1036E80087EC2FF051D9F4EC26F060C017F161C0D7
:1036F80018F162C019F163C01AF14FD9E1EC0EF06C
:10370800BAEC2CF007C060F087EC2FF017C164F01A
:1037180018C165F019C166F01AC167F0F4EC26F01B
:103728002AD93BD9E1EC0EF0BAEC2CF007C062F1D3
:1037380008C063F109C064F10AC065F12DD0010E1B
:10374800546F0E0E55190FE108D985EC33F00ED9D8
:10375800A5EC3AF07FC033F180C034F133C131F1C8
:1037680034C132F119D0170E551916E1556B546B47
:10377800546A516B536AB2EC13F084EC29F0020ED0
:10378800010189D7070E0001FF1906E10101496B04
:10379800B2EC2CF091EC39F00101490503E0550534
:1037A80001E0CED0550521E1000E0C6A90EC3BF00B
:1037B800DFEC17F090EC3BF0800E00019A6FFB0EE7
:1037C8009B6F020E18EC37F01A0E00019A6FFC0E70
:1037D8009B6F040E18EC37F0D0EC17F090EC3BF030
:1037E8000C6A070E90EC3BF0A8D055514A0D070E15
:1037F800F32613EC13F0DF6FE80EF420E06F020EEF
:10380800E16F41EC35F093D006EC3CF001015451E6
:1038180032E02AEC3BF0366B280E356F33C10CF0E2
:1038280034C10DF00F6A640E0E6E29EC39F01EECEF
:1038380017F0B6EC2EF00A6A640E096EBFD8B0EC29
:1038480039F007C00CF008C00DF0CCEC17F029ECEB
:1038580039F01EEC17F0B6EC2EF074EC17F0B6EC5D
:103868002EF0ACD879EC17F0B0EC39F0FDEC16F08E
:10387800B6EC2EF045D0000E366F280E356F6DD899
:1038880085EC33F073D8A5EC3AF07FC089F080C09E
:103898008AF08C6B640E8B6FC4EC35F083D8B6EC71
:1038A8002EF0000E0001866F640E856F56D885ECE9
:1038B80033F05CD8A5EC3AF07CD84DEC37F08DECC1
:1038C80022F08C6B0A0E8B6FC4EC35F06BD8B6EC1B
:1038D8002EF074EC17F0B6EC2EF03FD885EC33F0F0
:1038E80045D8A5EC3AF065D8C8EC17F04DEC37F0A0
:1038F800300E8325916F000E8421926FB6EC2EF066
:10390800366B580E356F95EC17F0B6EC2EF0040EAA
:1039180067EC38F012D0555106EC20F0CEC0DFF03D
:10392800CFC0E0F0040EE16F41EC35F006D00101A4
:1039380055510E0A01E168D7EED7020E0101496F11
:1039480027C11FF128C120F129C121F12AC122F183
:10395800536BFFC0F2F1576B120062C175F063C17F
:1039680076F064C177F065C178F0120075C07FF019
:1039780076C080F0120060C076F161C077F162C055
:1039880078F163C079F1120076C164F077C165F00F
:1039980078C166F079C167F0120033C107F034C10D
:1039A80008F01200300E8925916F000E8A21926F5F
:1039B80012007FC083F080C084F0120033C107F08A
:1039C80034C108F012007751781105E081D903D08D
:1039D8000001754B762B42D9DF507A6F7A515FEC34
:1039E8003BF0F6E200017B6B2D0E7A1905E1010E22
:1039F8007B6F754B762B03D02B0E7A19FAE07A6B16
:103A08007D6B7E6B7F6B806B7C6B7BB906D026D918
:103A18002E0EDE1802E17B892FD020D9DF50C9ECA9
:103A28003BF02DE300017B83090E7A1923E07BB973
:103A38007C077A2B7DC007F07EC008F07FC009F0B4
:103A480080C00AF00A0E0B6E0C6A0D6A0E6AB8EC9A
:103A580038F007C07DF008C07EF009C07FF00AC0CA
:103A680080F0FCD8DF50D00F7D27000E7E237F2307
:103A7800802302D07BA97C2B754B762BC6D70001FF
:103A88007A6BECD8650EDE1804E0E8D8450EDE182F
:103A980031E1754B762BE2D82D0EDE1802E17B87DB
:103AA80004D0DCD82B0EDE1802E1754B762BD6D865
:103AB800300EDE18FAE0D2D8DF50C9EC3BF017E33D
:103AC800CDD8DF50D00F00017A6F754B762BC6D852
:103AD800DF50C9EC3BF00BE3C1D8CCD8754B762B43
:103AE800BDD8DF50C9EC3BF002E3B8D8C3D8000119
:103AF8007BB77A6D7A517C277751781102E07BB3D6
:103B0800E7D87DC007F07EC008F07FC009F080C00C
:103B18000AF0010EBAEC2CF007C07DF008C07EF068
:103B280009C07FF00AC080F000017D517E117F112D
:103B3800801105E1756B766B776B786B12007CAF43
:103B480035D07C6D0ED0A9D8F90E646F020E656F62
:103B5800150E666F500E676FF4EC26F095D8F60ECA
:103B68007C277C51800A760F08E3EDD796D80CECB9
:103B780013F0F4EC26F088D87C077C51F7E17DC07F
:103B880015F07EC016F07FC017F080C018F039EC31
:103B980008F01C6AFBEC34F043E200017BA103D07F
:103BA800A0D8786F800C9DD8786B000C7C51800A67
:103BB8007F0F10E235D07AD8F90E196E020E1A6E00
:103BC800150E1B6E500E1C6EC1EC23F078D8F60E45
:103BD80000017C270A0E7C61EED707D067D843D84E
:103BE800C1EC23F06CD800017C077C51F7E1156823
:103BF80016687F0E176E186E7DC019F07EC01AF019
:103C08007FC01BF080C01CF0FBEC34F009E200011F
:103C18007BA103D066D8786F800C63D8786B000CD2
:103C280000017BA112D07DC007F07EC008F07FC0E4
:103C380009F080C00AF070EC3BF007C07DF008C0C6
:103C48007EF009C07FF00AC080F07DC075F07EC0AC
:103C580076F07FC077F080C078F0120075C0D9FF89
:103C680076C0DAFF1200196A1A6A200E1B6E410E1E
:103C78001C6E410CDF500001796F7A510A0DF35028
:103C88007925D00F7A6F120060C07DF061C07EF098
:103C980062C07FF063C080F012007DC060F07EC01B
:103CA80061F07FC062F080C063F012007DC015F043
:103CB8007EC016F07FC017F080C018F0120015C043
:103CC8007DF016C07EF017C07FF018C080F012009B
:103CD80077C0D9FF78C0DAFF75C0DEFF76C0DDFF98
:103CE8001200756B766B800E776F800C0101436B49
:103CF800446B416B426B3F6B406BC66B77D9BAEC38
:103D08002CF007C015F008C016F009C017F00AC05B
:103D180018F00101C65153D9DECF19F0DECF1AF0E1
:103D2800DECF1BF0DECF1CF0FBEC34F00AE2010121
:103D3800C65145D952D985EC33F075C043F176C0E8
:103D480044F10101C6513BD9DECF15F0DECF16F0A4
:103D5800DECF17F0DECF18F050D939D9BAEC2CF0F5
:103D680007C019F008C01AF009C01BF00AC01CF0FF
:103D7800FBEC34F00AE20101C65121D92ED985ECB9
:103D880033F075C041F176C042F10101C65117D92F
:103D980024D985EC33F0755101013F270001765194
:103DA80001014023C62B020EC665A8D7575001E172
:103DB80003D1020E566000D1000EE2EC17F0030E9C
:103DC800010152610CD086C10BF087C10CF00E6A5C
:103DD800140E0D6EF3EC3AF0B9EC2DF016E25486A1
:103DE800C66B2B0EC625A5EC0EF0DF6AC62B030E9C
:103DF800C665F7D7356A020E346E376A010E366E1D
:103E0800000E18EC3BF0526B04D0565002E0E5EC83
:103E18003BF0020E581803E0030E581804E11CEC9E
:103E28000FF028EC2FF0E9D8D2D8BAEC2CF07AECC5
:103E38000EF0F4EC26F060C0B2F161C0B3F162C0DC
:103E4800B4F163C0B5F1D2D8BAEC2CF07AEC0EF02C
:103E5800F4EC26F060C0B6F161C0B7F162C0B8F109
:103E680063C0B9F134EC1AF0B2D8BAEC2CF07AECA1
:103E78000EF0F4EC26F060C0BAF161C0BBF162C08C
:103E8800BCF163C0BDF1540EDF6FF00EE06F400E61
:103E98005824E16FE26B000EE22354C0E3F0E46BB8
:103EA8007EC1E5F07FC1E6F0B2C1E7F0B3C1E8F04A
:103EB800B4C1E9F0B5C1EAF053C0EBF0EC6B37C11F
:103EC800EDF038C1EEF052C1EFF0F06BB6C1F1F091
:103ED800B7C1F2F0B8C1F3F0B9C1F4F0BAC1F5F066
:103EE800BBC1F6F0BCC1F7F0BDC1F8F0CDEC3AF0BB
:103EF8006AC143F06BC144F06CC145F06DC146F036
:103F080066C13FF067C140F068C141F069C142F045
:103F180092EC22F03FC0BEF140C0BFF141C0C0F1F9
:103F280042C0C1F162C143F063C144F064C145F0CD
:103F380065C146F0BEC13FF0BFC140F0C0C141F00D
:103F4800C1C142F092EC22F03FC060F040C061F085
:103F580041C062F042C063F000010CEC13F0F4ECD5
:103F680026F060C0C2F161C0C3F162C0C4F163C091
:103F7800C5F1D00EDF6FF60E1FEC13F00CEC13F04A
:103F8800F4EC26F063EC13F054EC13F00CEC13F0A3
:103F9800F4EC26F02EEC13F00CEC13F0F4EC26F015
:103FA8007BEC13F0C2C1EDF0C3C1EEF0C4C1EFF079
:103FB800C5C1F0F0CDEF3AF0436B446B1200040D2D
:103FC800620EF324D96E010EF420DA6E1200000E90
:103FD80008BEFF0E096E0A6E010CDECF75F0DECF4B
:103FE80076F0DECF77F0DECF78F0120043C107F02D
:103FF80044C108F0096A0A6A000C41C107F042C1CD
:1040080008F012000001D26FD251D6EC27F07FC021
:10401800DDF080C0DEF0F2D001018E5106E0450EE1
:104028000001CE6FF00ECF6F12002C0E0001CE6F84
:10403800F00ECF6F1200570405E13F0ECE6FF00E61
:10404800CF6F1200020E571805E1390ECE6FF00E31
:10405800CF6F1200250ECE6FF00ECF6F1200D30E69
:10406800C26F8E0EC36FFC0EC46F7EC1C5F07FC1D8
:10407800C6F08EEC3AF0D30ECE6FCF6B1200010172
:104088007C517D110EE0D30E0001C26F5C0EC36F30
:10409800FC0EC46F7CC1C5F07DC1C6F08EEC3AF051
:1040A800EAD70B0E0001CE6FF00ECF6F12005650FC
:1040B800090DAC0EF324CE6FEF0EE9D0D30EC26F0C
:1040C8008F0EC36FFC0ED8D88EEC3AF0D4D701010E
:1040D8008F0506E1140E0001CE6FF00ECF6F1200AF
:1040E800020E8F19DEE1330E0001CE6FF00ECF6F96
:1040F800120001018D51C6D8CE6FEF0EC8D0010154
:104108008C51CFE01D0E0001CE6FF00ECF6F120064
:10411800DDC00BF0DEC00CF00E6A120E0D6EF3EC73
:104128003AF0790E0B240001CE6F020E0C20CF6FEF
:104138001200D30EC26FA90EC36FFB0E9DD8DDC04F
:10414800C7F0DEC0C8F08EEC3AF095D701018A516D
:1041580006E0010E0001CE6FF00ECF6F1200500E78
:104168000001CE6FF00ECF6F1200D10ECE6FFB0E96
:10417800CF6F1200BD0ECE6FFB0ECF6F1200C70EB1
:10418800CE6FFB0ECF6F1200B30ECE6FFB0ECF6F4C
:104198001200DDC0D0F0DEC0D1F0D15108E1D0511D
:1041A800E4E0010AE7E0030AEAE0010AEDE0080EAC
:1041B800DD19DE1105E1AA0ECE6FFC0ECF6F1200DD
:1041C800D30EC26FEC0EC36FFC0EC46FDD5140EC12
:1041D80032F075C0C5F076C0C6F077C0C7F078C0B9
:1041E800C8F08EEC3AF047D74B0ECE6FF00ECF6F7B
:1041F80012008F0ECE6FF80ECF6F1200D251020A46
:1042080001E10AD7010A01E152D7070A01E156D7AD
:10421800010A01E153D7030A01E159D7010A01E173
:104228001ED70F0A01E12BD7010A01E162D7030A61
:1042380001E165D7010A01E141D7070A01E1FBD68F
:10424800010A01E13BD7020A01E162D71F0A01E135
:1042580070D7010A01E17AD7030A01E159D7010AA7
:1042680001E167D7070A95E0010A01E162D7030A6D
:104278009EE0010AB9E0BDD7C46FDDC0C5F0DEC05D
:10428800C6F012000A0D7A0EF32400011200F42081
:10429800CF6F1200996F000199AF51D0996D995164
:1042A800800A120F29E32BD925D983BF84074DEC47
:1042B80037F02FD9C4EC35F0C0D804D9AFD893D88B
:1042C8008C6B640E21D989BF8A07C4EC35F0D8906D
:1042D800D7D8F8D88A215DEC07F094D8C1EC23F040
:1042E800B7D883BF84074DEC37F0A0D8E1D89AD867
:1042F8007AD8C1EC23F0CED09951800A750F19E312
:104308008C6B0A0E01D989BF8A07C4EC35F095D8A1
:10431800D9D88A215DEC07F075D8D9D883BF84072E
:104328004DEC37F083D8C4D87DD85DD8C1EC23F0E4
:10433800B1D09951E4EC2AF05DEC07F0CFD0995157
:10434800800A120F29E3DBD8D5D883BF84074DEC48
:1043580037F0DFD8C4EC35F070D8AFD85FD843D881
:104368008C6B640ED1D889BF8A07C4EC35F0D8901D
:1043780087D8A3D88A215DEC07F044D8C1EC23F094
:1043880067D883BF84074DEC37F050D88CD84AD80B
:104398002AD8C1EC23F07ED09951800A750F19E311
:1043A8008C6B0A0EB1D889BF8A07C4EC35F045D8A2
:1043B80084D88A215DEC07F025D889D883BF840783
:1043C8004DEC37F033D86FD82DD80DD8C1EC23F089
:1043D80061D09951040D020EF324F66EE80EF42014
:1043E8005DEC07F07BD0000EF8220900F5CF19F03C
:1043F8000900F5CF1AF00900F5CF1BF00A00F5CF38
:104408001CF01200F5CF15F00900F5CF16F00900E1
:10441800F5CF17F00A00F5CF18F012008A21F76ED1
:10442800F86A12008421F76EF86A1200D890833770
:104438008437D890833784371200D89089378A37E1
:10444800D89089378A37240E8927000E8A23000CD2
:1044580015C095F016C096F017C097F018C098F0E0
:1044680095C015F096C016F097C017F098C018F0D0
:104478000001866B0A0E856F9951836F846B120059
:1044880089378A37D89089378A37480E8927000EA6
:104498008A23000C15C091F016C092F017C093F053
:1044A80018C094F01200020E8325F66EE80E120072
:1044B800360E8325F66EE80E1200020E8925F66E7A
:1044C800E80E1200360E8925F66EE80E1200866B8D
:1044D8000A0E856F9951836F846B1200F5CF91F0A6
:1044E8000900F5CF92F00900F5CF93F00A00F5CF57
:1044F80094F01200856F9951836F846B12008C6B56
:104508000A0E8B6F866B640C8B6F9951896F8A6B5F
:10451800120083C089F084C08AF012004250800BD8
:104528004B6E425042244D6E41BE4D804D5005E0C9
:104538004D2801E10DD9418E03D03F6A406A416A96
:10454800426A4650800B4C6E4B1801E04B8C46502B
:1045580046244C6E45BE4C804C5008E04C2804E183
:10456800436A446A456A466A458E03D0436A446A88
:10457800456A466A4D504C5C22E24BAC02D0800E34
:104588004B1A4DC04EF04CC04DF04EC04CF03FC0E1
:104598004EF043C03FF04EC043F040C04EF044C020
:1045A80040F04EC044F041C04EF045C041F04EC00E
:1045B80045F042C04EF046C042F04EC046F04E6A4A
:1045C8004D504CC047F0486A475E000E485A48BEF6
:1045D80018D0485003E11A0E475C13E3C9D8010EFE
:1045E800D8B4000E4E6EB4D84CC04DF00DD04EA0CD
:1045F80005D0D8904E3001094E6E02D0D8904E3278
:104608009ED84C504D5CF3E34BBC19D04D5001E1A2
:10461800A4D043503F2644504022455041224650A2
:10462800422242A057D04EA006D0D8904E324E50CB
:1046380001094E6E02D0D8904E3281D84BD04350EB
:104648003F5C44504058455041584250800A476E9C
:104658004650800A47581FE23F50435C476E40501F
:104668004458486E41504558496E425046584A6E23
:10467800FF0E47243F6EFF0E4820406EFF0E492074
:10468800416EFF0E4A20426E800E4B1A4E6C4E5001
:104698000AE168D808D043503F5E4450405A45501C
:1046A800415A4650425A64D813E14E5011E155D050
:1046B800D8903F364036413642364EBE3F804EA0F7
:1046C80002D0D88001D0D8904E364D5001E04D062A
:1046D80041AEEED74C6A4EAE0AD04EC047F07F0EC0
:1046E800471603E0010E4C6E02D03FB0FBD74C508A
:1046F8000BE038D842A008D042344232413240322E
:104708003F324D2801E04D2A4D2802E04D5004E18A
:104718001FD84D5001E14B6A4DA002D0418E01D007
:10472800419ED8904D30426E4BBE428E3FC03FF006
:1047380040C040F041C041F042C042F012003FB0DA
:104748004E8E42344232413240323F324D2A1200BC
:104758003F6A406A416A426A12003F6A406A416A97
:10476800426A12003F2A000E402241224222000CD7
:104778003F5040104110421012001850800B216E1B
:1047880018501824276E17BE2780275005E02728C1
:1047980001E1FDD8178E01D0FAD81C50800B211AE0
:1047A8001C501C24226E1BBE2280225005E02228A9
:1047B80001E1F2D81B8E01D0EFD8225002E0275039
:1047C80005E1156A166A176A186A12001B50150265
:1047D800B1D8236E246A256A266A2D50286E296A64
:1047E8002A6A2B6A1A501602A5D8B2D8195017028D
:1047F800A1D8AED8A5D8195016029CD8B5D81A5049
:10480800150298D8B1D89CD81950150293D8ACD8AD
:104818001B5016028FD8AFD81A5017028BD8ABD8B6
:104828001B50170287D81D6E2D501E6E1F6A206AF6
:104838001FC020F01EC01FF01DC01EF01D6A1D50B5
:1048480028261E5029221F502A2220502B2226506B
:10485800282698D875D8225027C01DF01E6A1D2614
:10486800000E1E22820E1D242C6EFF0E1E202D6EA1
:104878000FD0D890283629362A362B3626BE2880DF
:10488800D89023362436253626362C06D8A02D0671
:104898002AAEEFD7226A26AE13D023501D6E2450BD
:1048A8001E6E25501F6E7F0E2614206E1D501E1082
:1048B8001F10201003E0010E226E02D028B0FBD793
:1048C80022500BE0282A5ED82BA007D02B342B329D
:1048D8002A32293228322C4A2D2A2DBE0AD02D50B0
:1048E80002E12C2806E3286A296A800E2A6E7F0EC8
:1048F80015D02DBE04D02D5008E12C0406E2286AFC
:10490800296A2A6A2B6A216A0AD02CC027F07F0EEE
:104918002A162B6A27B02A8ED89027302B6E215062
:104928002B1228C015F029C016F02AC017F02BC08A
:1049380018F01200F3CF2CF0F4CF2DF02C50120009
:1049480025C026F024C025F023C024F0236A1200D5
:104958002326000E2422252226222D502826000E4A
:1049680029222A222B22000C23262D502422000E35
:1049780025222622000C28262D502922000E2A2224
:104988002B22000C000E29222A222B22000C156A49
:10499800166A176A186A1200196A1A6A1B6A1C6A68
:1049A8001200006B016B026B036B046B056B066BEB
:1049B800076B0A6B0B6B070E9265070C90C1D9FF4A
:1049C80091C1DAFFDF50006F20EE01F0CFD8016F00
:1049D80090C107F091C108F092C109F0E2EC36F0FD
:1049E8000750081050E01200080E92190AE1020E52
:1049F8000B6FA7D820EE04F0B9D8BED8B7D8DED848
:104A08004AD020EE02F0B2D8D4D8FB0EBAD805E1CD
:104A18009451981902E1030E30D0BFD8CDEC3AF08A
:104A28003AD0080E921910E1010E0B6F8AD8056B67
:104A3800010E046F20EE04F099D89ED897D89311F0
:104A4800066F9451076F27D0A8D8CDEC3AF023D041
:104A580078D820EE04F08AD88FD888D8AFD8080E36
:104A68009219D9E020EE06F081D8A3D8F70E89D89C
:104A780006E19451981903E1020E0B6F0CD08DD802
:104A8800CDEC3AF008D001010151040AADE0020A68
:104A9800C8E0160ADDE001010B5149E00A5147E080
:104AA80090C108F191C109F192510825936F000E48
:104AB8000921946F0A51935F000E945BFE0E9325B3
:104AC800086FFF0E9421096F32D06DD000510C1978
:104AD80006E10D51011903E1010E0E6F01D00E6BB5
:104AE8000C6B0D6B120000510C1907E10D510119E7
:104AF80004E1010E0E6F030E02D055D8020E0B6FA3
:104B08000251031105E0035103E1050E025D0CE3B8
:104B1800035104E1810E025DD8A01200035110E197
:104B2800850E025DD8B01200020E0B6F020C0B51FD
:104B3800010AD9E0030A37E0010AD8A41200C6D74F
:104B4800120020EE02F09051D9269151DA22DF505E
:104B5800946F936B20EE03F09051D9269151DA228D
:104B6800DF509311026F9451036F12009051D926B0
:104B78009151DA22DF501200946F936B20EE05F00A
:104B88001200956F96699251976F986B9551972778
:104B980096519823935197191200300E0001DF6F38
:104BA800FA0EE06F12000E6B00C10CF101C10DF19D
:104BB80012000A6F0A51936F946B12009311046FDD
:104BC8009451056F1200B5D020EE03F08051D9261C
:104BD8008151DA22100EDFAE1C0E8A6F936B8F0E96
:104BE800076EDED88A250A6E030E0B6E43EC2EF094
:104BF800DFD8C1EC23F0A5D81C0E8A1914E1B3D86C
:104C0800DECF15F0DECF16F0DECF17F0DECF18F0CE
:104C180076C119F077C11AF078C11BF079C11CF080
:104C2800C1EC23F08ED8932B020E9365D8D7020CD3
:104C3800936B8F0EA1D843EC2EF0BAD8C1EC23F0B9
:104C480080D88F0E076EACD80C0F0A6E8251120DE9
:104C5800830EF324D96E020EF420DA6EDF500B6E49
:104C680043EC2EF092AF14D07ED8DECF07F0DECF23
:104C780008F0DECF09F0DECF0AF070EC3BF073D815
:104C880007C0DEFF08C0DEFF09C0DEFF0AC0DEFF86
:104C9800932B020E9365CDD7020C99D8080EDE1817
:104CA8000EE1936B8F0E68D843EC2EF081D8C1ECDF
:104CB80023F047D8932B020E9365F4D7020C936B1D
:104CC8008B0E5AD843EC2EF082D8DF50856F8505BD
:104CD80040EC32F075C086F076C087F077C088F077
:104CE80078C089F08BC007F08CC008F08DC009F03F
:104CF8008EC00AF0010EBAEC2CF007C060F087EC09
:104D08002FF086C064F087C065F088C066F089C05F
:104D180067F0F4EC26F027D860C0DEFF61C0DEFF44
:104D280062C0DEFF63C0DEFF932B020E9365C8D717
:104D3800020C8251010A01E147D7050A01E178D73F
:104D4800ACD700019351040DF3508325D96EF4506C
:104D58008421DA6E15C0DEFF16C0DEFF17C0DEFF45
:104D680018C0DEFF12009351040DF3508325D96E4D
:104D7800F4508421DA6E1200076E80C008F081C0FA
:104D880009F09351040DF3CF0AF08251120D830EEE
:104D9800F324D96E020EF420DA6EDF500B6E120087
:104DA80080C008F081C009F09351040DF35012003F
:104DB8008FC015F090C016F091C017F092C018F08F
:104DC800196A1A6A200E1B6E410E1C6E410C825124
:104DD800120D860EF324D96E020EF420DA6E12003C
:104DE80000016351800B686F63516325736F62BF65
:104DF8007381735105E0732901E1CFD8628F03D025
:104E0800606B616B626B636B6751800B681B6751EA
:104E18006725746F66BF7481745108E0742904E1D2
:104E2800646B656B666B676B668F03D0646B656BD1
:104E3800666B676B64516511661167110EE1ADD839
:104E4800800E62137F0E631360C060F061C061F072
:104E580062C062F063C063F01200735105E1606BD9
:104E6800616B626B636B1200745173C04FF0506AD0
:104E78004F5E000E505A7F0E4F246D6F000E50206B
:104E88006E6F60C069F061C06AF062C06BF063C0A9
:104E98006CF083D86F6B706B716B726B746B1BD01B
:104EA800745106E0D89069376A376B376C3768D821
:104EB8006451695D65516A5966516B5967516C59FE
:104EC80009E3728D6451695F65516A5B66516B5B7A
:104ED80067516C5B742B190E7465E2D769516A11BE
:104EE8006B116C1106E06F8104D04AD86D07D8A009
:104EF8006E0762AFFAD7746B72AF13D06F514F6EF3
:104F08007051506E7151516E7F0E7215526E4F5026
:104F180050105110521003E0010E746F02D060B1AE
:104F2800FBD774510EE0602B000E612362236323CC
:104F380063A107D0633563336233613360336D4BEC
:104F48006E2B6EBF07D06E5102E16D2903E36E6BC5
:104F58006D6923D86EBF04D06E5106E16D0504E279
:104F68006D6B6E6B1AD8686B6DC073F073A102D04D
:104F7800628F01D0629FD8907331636F685163D795
:104F8800D890603761376237633772BF6081D890D5
:104F98006F377037713772371200606B616B626BF5
:104FA800636B12000001816F86D08EC17FF0806B29
:104FB800120057C07FF0806B12007EC17FF07FC166
:104FC80080F012007CC17FF07DC180F0120056C0D5
:104FD8007FF0806B120086C17FF087C180F01200DD
:104FE80082C17FF083C180F0120084C17FF085C147
:104FF80080F0120080C17FF081C180F012008FC163
:105008007FF0806B12008DC17FF0806B12008CC125
:105018007FF0806B12009AD876C115F077C116F030
:1050280078C117F079C118F0C1EC23F086D885EC67
:1050380033F075C07FF076C080F0120055C07FF065
:10504800806B12008BC17FF0806B12008AC17FF0E9
:10505800806B120089C17FF0806B120088C17FF0DD
:10506800806B1200DDC27FF0806B1200DEC27FF021
:10507800DFC280F01200E0C27FF0806B1200400EA9
:1050880058247F6F806B000E8023000C54C07FF083
:10509800806B120047C17FF048C180F012006EC1DA
:1050A8007FF06FC180F012004BC17FF0806B12005F
:1050B8007F6B806B120000018151020A01E175D7F4
:1050C800010A85E0070A8CE0010A94E0030A97E0E8
:1050D800010A01E172D70F0A01E174D7010A93E0CE
:1050E800030A95E0010A81E0070A01E162D7010A93
:1050F80001E171D7030A8FE0010AA0E01F0AA2E0CC
:10510800010AA4E0030AA6E0010AA8E0070AAAE047
:10511800010AACE0030AAFE0560AB1E0010AB6E0C2
:10512800030AB8E0010A01E15BD7050AB8E0010A01
:10513800BBE00F0A01E13DD7BBD715C075F016C01B
:1051480076F017C077F018C078F01200196A1A6A5A
:10515800C80E1B6E420E1C6E420C316E306A480E31
:10516800311802E10C0E316E170E3160C4D0315087
:105178004A0D440E7CEC31F05DEC07F0F5502E5CE6
:105188000900F5502F5801E2B9D031504A0D460EAA
:105198007CEC31F0F76EF86A000EF8222E50090008
:1051A800F55C2F500900F55868E2A8D02EC08EF1A2
:1051B8008FD02EC057F08CD02EC07EF12FC07FF13B
:1051C80087D02EC07CF12FC07DF182D02EC056F042
:1051D8007FD02EC086F12FC087F17AD02EC082F101
:1051E8002FC083F175D02EC084F12FC085F170D007
:1051F8002EC080F12FC081F16BD02EC08FF168D006
:105208002EC08DF165D02EC08CF162D02EC007F073
:105218002FC008F0E1EC0EF0BAEC2CF007C015F046
:1052280008C016F009C017F00AC018F0AAEC28F058
:10523800C1EC23F015C076F116C077F117C078F1EC
:1052480018C079F145D02EC055F042D02EC08BF150
:105258003FD02EC08AF13CD02EC089F139D02EC063
:1052680088F136D02EC0DDF233D02EC0DEF22FC04A
:10527800DFF22ED02EC0E0F22BD03150020A96E099
:10528800010AA4E0070AAAE0010AB2E0030AB5E0AD
:10529800010A92E00F0A95E0010AB2E0030AB3E0BE
:1052A800010AA1E0070A85E0010A93E0030AAEE0DB
:1052B800010AC9E01F0ACAE0010ACBE0030ACCE0F0
:1052C800010ACDE0070ACEE0010ACFE0030AD2E0E6
:1052D800010E306E13D02E502F1003E02E042F1025
:1052E8000DE12EC04BF1010E306E2E502F1006E14D
:1052F800010E586E03D03150470AEDE030501200CD
:1053080027EC31F0F2CFA8F1A1EC2BF0076E010EDB
:10531800B3D84EEC39F0840E076E010EADD84EECC2
:1053280039F0820E076E010EA7D84EEC39F0760ED2
:10533800076E010E086E0A6A040E096E4EEC39F00B
:10534800570E076E086A9DD84EEC39F08F0E076E1F
:10535800010E8DD84EEC39F0800E076E010E8CD8F8
:105368004EEC39F08E0E076E010E81D84EEC39F0F6
:10537800560E076E086A85D84EEC39F08D0E076E0A
:10538800010E75D84EEC39F08C0E076E010E6FD8F1
:105398004EEC39F07E0E076E010E6ED84EEC39F0E9
:1053A8007C0E076E010E68D84EEC39F0550E076E6C
:1053B800086A67D84EEC39F08B0E076E010E57D885
:1053C8004EEC39F08A0E076E010E51D84EEC39F0CA
:1053D800890E076E010E4BD84EEC39F0880E076E19
:1053E800010E45D84EEC39F0DD0E076E020E3FD89F
:1053F8004EEC39F0DE0E076E020E3ED84EEC39F058
:10540800E00E076E020E33D84EEC39F0A8C1F2FF59
:10541800720E0001DF6FFA0EE06FCDEC3AF0560421
:10542800D8A412000101A96BAA6BA9510B0FD6ECE5
:1054380027F0D8900101A935D96EAA35DA6E900EF9
:10544800D926010EDA2221D8A94BAA2BAA5103E1A9
:105458000C0EA95DEAE31E6AE00E1D6E900E1F6E2B
:10546800010E206E0C0E216E000EA6EF2BF0086EBA
:105478000A6A010E096E010C086E0A6A020E096EAC
:10548800020C0A6A010E096E010C7FC0DEFF80C0A3
:10549800DDFF12003E6E6D0E3E6444D00A0E0B6EA8
:1054A800640E076E3E50E0EC3AF042EC3AF082D8D7
:1054B800D89032363336240E3226000E33225CD88A
:1054C800F7EC21F0640E0B6E3E5042EC3AF088D8AF
:1054D800480E5AD85DEC07F006EC22F0C1EC23F038
:1054E80088D80A0E076E3E50E0EC3AF063D855D8DB
:1054F80043D8F7EC21F06BD8C1EC23F015C036F097
:1055080016C037F017C038F018C039F036C015F09B
:1055180037C016F038C017F039C018F073D8C1EC8E
:1055280023F03FD00A0E3E641DD0076E3E50E0ECDB
:105538003AF040D832D820D8F7EC21F00A0E0B6E9A
:105548003E5042EC3AF04CD8240E1ED85DEC07F0E1
:1055580006EC22F0C1EC23F04CD839D853D8C1EC72
:1055680023F01FD03E502CD85DEC07F006EC22F05B
:1055780049D8C1EC23F015D0360E3224F66EE80E69
:105588003320F76EF86A12003426000E3522360EE4
:105598003424F66EE80E35201200D89032363336B1
:1055A800120015C02EF016C02FF017C030F018C02A
:1055B80031F01200326E336AD89032363336120028
:1055C800040D360EF324F66EE80EF42012003AC0ED
:1055D80015F03BC016F03CC017F03DC018F01200A3
:1055E800346E356AD89034363536D89034363536F8
:1055F800120015C03AF016C03BF017C03CF018C0B6
:105608003DF01200196A1A6A1B6A3F0E1C6E3F0CA5
:10561800F2CF85F092D8076E010E86D876EC3AF074
:10562800840E076E010E80D876EC3AF0820E076E73
:10563800010E7AD876EC3AF0760E076E010E086EF7
:105648000A6A040E096E76EC3AF0570E076E086A7D
:1056580070D876EC3AF08F0E076E010E60D876ECB3
:105668003AF0800E076E010E5FD876EC3AF08E0E97
:10567800076E010E54D876EC3AF0560E076E086A9B
:1056880058D876EC3AF08D0E076E010E48D876ECB5
:105698003AF08C0E076E010E42D876EC3AF07E0E88
:1056A800076E010E41D876EC3AF07C0E076E010EBB
:1056B8003BD876EC3AF0550E076E086A3AD876EC85
:1056C8003AF08B0E076E010E2AD876EC3AF08A0E65
:1056D800076E010E24D876EC3AF0890E076E010E9B
:1056E8001ED876EC3AF0880E076E010E18D876ECC4
:1056F8003AF0DD0E076E020E12D876EC3AF0DE0EA6
:10570800076E020E11D876EC3AF0E00E076E020E24
:1057180006D876EC3AF085C0F2FF27EF31F0086E34
:105728000A6A010E096E010C086E0A6A020E096EF9
:10573800020C0A6A010E096E010CF29EA96AAA6A95
:10574800860E1200246E296A2A6A24C00CF1100EF3
:1057580001010D6F24C000F2294A2A2A69D8100EC7
:10576800DF6E294A2A2A64D81EC0DFFF294A2A2A5E
:105778005FD81DC0DFFF294A2A2A5AD8DF6A294A7A
:105788002A2A56D821C0DFFF294A2A2A2150020D89
:105798004FD8F3CFDFFF294A2A2A276A286A28D058
:1057A80047D8D8902734E16E2834E26E1F50E1269E
:1057B8002050E222E6CF22F0E5CF23F023C022F0EA
:1057C800236A2250DF6E294A2A2AD8902734D96EB4
:1057D8002834DA6E1F50D9262050DA22000E2924E8
:1057E800E16E020E2A2035D8294A2A2A274A282A71
:1057F8002150226E236A2250275C23502858D0E378
:1058080023D829C009F0E2EC36F007C025F008C01B
:1058180026F00ED825C0DFFF294A2A2A09D826C033
:10582800DFFF294A2A2A0BD829C013F0D4EF33F016
:10583800000E2924D96E020E2A20DA6E1200000EFC
:10584800116E020E126E1200000E076E020E086E26
:105858001200E26EDFCFE7FF12000001A66B010124
:1058680051051AE1666A8A968088808A3DEC3AF08A
:1058780091EC39F0BD6A8294F7EC34F091EC39F090
:1058880012EC38F0040A04E1020E0101516F55D000
:10589800010E0001A66F51D0020E511911E1020E3E
:1058A80058180EE1B5EC34F0200E4719481103E002
:1058B800020E0001A61B030E0101516F8A863DD01E
:1058C800030E511923E1030E581820E1010E8F6FC2
:1058D800850E936E8A82130E086E880E076E91EC01
:1058E80039F082B23FD83AD891EC39F081A406D089
:1058F8008A9234D891EC39F081A403D0080E0001C3
:10590800A61B0A0E0101516F8A9617D00A0E51196B
:1059180014E1020E581811E1810E936E030E086E01
:10592800E80E076E91EC39F082B202D01BD805D090
:10593800500E516F8F6BB2EC13F00001A651D8B422
:105948001200810E936E8A928A948A9601018F6B57
:10595800548CA6C051F1010E586E010C086A0A0E4B
:10596800076E0A0C040E0001A61B040C0F6E0F50E4
:105978001CE00AAE1AD007C00BF008C00CF009C032
:105988000DF00AC00EF00B1E0C1E0D1E0E1E0B2A6B
:10599800000E0C220D220E220BC011F00CC012F0CA
:1059A8000DC013F00EC014F008D007C011F008C0E5
:1059B80012F009C013F00AC014F0075008100910BB
:1059C8000A1005E1076A086A096A0A6A1200960E4F
:1059D800106E02D0102A4CD80B6A0C6A0D6AFE0EA3
:1059E800141440D808E0F6D7102A112A000E122203
:1059F800132214223DD80B6A0C6A0D6A145032D84F
:105A080007E0F2D71006D89011361236133614363E
:105A180013BE03D0020E1060F5D710B002D07F0E6F
:105A28001316D890103210C00BF00C6A0D6A0E6A6B
:105A38000BC00EF00D6A0C6A0B6A0B5011120C5059
:105A480012120D5013120E5014120F5002E00ABE1B
:105A5800148E11C007F012C008F013C009F014C06A
:105A68000AF012000E6E0B500C100D100E101200E2
:105A7800D89014321332123211321200196A156A90
:105A8800166A1A6A2B0E1A24A5EC0EF0020EDE18FE
:105A980008E1192A1A508AEC0EF0DE501526DD505E
:105AA80016221A2A030E1A64EDD719500EE10101C5
:105AB8008251865D0B6E835187590C6E23EC1AF068
:105AC800F3EC3AF052D83BE2010C192A15C00BF05E
:105AD80016C00CF050D8F3EC3AF0010143510B24F6
