:040000009CEF01F080
:100008004982FACF05F0FBCF06F0E9CF07F0EACF37
:1000180008F0E1CF09F0E2CF0AF0D9CF0BF0DACF40
:100028000CF0F3CF0DF0F4CF0EF0F6CF0FF0F7CFC2
:1000380010F0F8CF11F0F5CF12F049C013F04AC014
:1000480014F04BC015F04CC016F032D0AECF3AF0D9
:10005800030E01011F25016E000E2021026E000E05
:100068002121036E000E2221046E3350015C3450AE
:1000780002583550035836500458D8B002D0000EF4
:10008800596F320E5919D8B459075951010DAA0E92
:10009800F324D96E020EF420DA6E3AC0DFFF592B32
:1000A80033C01FF134C020F135C021F136C022F130
:1000B8009EBACCD79EB89DA84FD001015551010DCD
:1000C800660EF324D96E030EF420DA6EDF50AD6E9F
:1000D800552B54515519D8B404D0320E5519D8A4FB
:1000E8003BD09D98000E556F37D071B4D0A20AD07E
:1000F8004804D8A407D074CF3AF03A50D8A404D012
:10010800FF0002D074CF3AF0D0823AC073FF320EAB
:1001180001015819D8B45807080E3A18D8A405D0C0
:100128005851D8B402D0580717D00D0E3A18D8B481
:1001380004D00A0E3A18D8A404D0000E3A6E5829F2
:10014800566F5851010D460EF324D96E020EF42055
:10015800DA6E3AC0DFFF582BA4AAC2D0C6D747042C
:10016800D8A456D03B50D8A404D0030E4818D8B40D
:1001780027D02C0E0101355D010E3659D8B002D0BA
:10018800809801D08088808A3551016E3651026E80
:10019800354B362B910E015C010E0258D8A060D069
:1001A80082B20AD0890E355D130E3659D8A058D0C0
:1001B800000E366F000E53D0010E366F900E4FD0E2
:1001C8002C0E0101375D010E3859D8B003D0808854
:1001D800809A02D08088808A3751016E3851026E29
:1001E800374B382B910E015C010E0258D8A05BD01A
:1001F80082A20AD0890E375D130E3859D8A053D081
:10020800000E386F000E4ED0010E386F900E4AD097
:10021800020E4718D8A44BD03B50D8A404D0030EE4
:100228004818D8B422D0580E0101355D020E36594F
:10023800D8B002D0809801D08088808A3551016E6C
:100248003651026E354B362BBD0E015C020E02583C
:10025800D8A006D082B2A6D7020E366FBC0E356F74
:10026800000E386F000E376F22D0580E0101375D2F
:10027800020E3859D8B003D08088809A02D080887E
:10028800808A3751016E3851026E374B382BBD0EBC
:10029800015C020E0258D8A006D082A2ABD7020E8B
:1002A800386FBC0E376F000E366F000E356F010EBB
:1002B8003326000E34223522362201013151321103
:1002C800D8B403D03107D8A032074C074C29D8A49A
:1002D80006D049C167FF0A0E4C6F010E4B6F7E9026
:1002E8007EB03DD716C04CF015C04BF014C04AF094
:1002F80013C049F012C0F5FF11C0F8FF10C0F7FF96
:100308000FC0F6FF0EC0F4FF0DC0F3FF0CC0DAFFFC
:100318000BC0D9FF0AC0E2FF09C0E1FF08C0EAFF2D
:1003280007C0E9FF06C0FBFF05C0FAFF49921100AC
:10033800DCEF48F0B1EF0CF0250E0001E219D8B45B
:1003480038D020EE02F0BB51D926BC51DA22DE505B
:10035800DE10D8B417D020EE02F0BB51D926BC511C
:10036800DA22DECFC1F0DDCFC2F002D8B1EF0CF057
:100378000500FA6EC151FD6EC251FE6EFF6AFA5059
:10038800E2511200BBC0D9FFBCC0DAFFDECFC1F01A
:10039800DDCFC2F0C1C0D9FFC2C0DAFFE2C0DFFFC3
:1003A800BBC0D9FFBCC0DAFFDE2A000EDD22B1EFE8
:1003B8000CF0000E0001DD6F000EDC6F000EE16F27
:1003C800000EE06F07D00001E08702D00001E08551
:1003D800BD4BBE2BBDC0F6FFBEC0F7FFF86A0F0EBF
:1003E800F76403D00800F55005D0F6CFE1FFF7CF4A
:1003F800E2FFE7502D0AD8B4E6D71D0AD8B4E6D7ED
:100408000001E0B7E095BDC0F6FFBEC0F7FFF86A8F
:100418000F0EF76403D00800F55005D0F6CFE1FFC2
:10042800F7CFE2FFE75076EC51F0D8A049D0000EA4
:100438000001DD6F000EDC6FDCC01DF0DDC01EF0BA
:10044800000E206E0A0E1F6EDDEC50F01DC0DCF0B1
:100458001EC0DDF0D00E0001C16FFF0EC26FBDC01F
:10046800F6FFBEC0F7FFF86A0F0EF76403D0080066
:10047800F55005D0F6CFE1FFF7CFE2FFE7500001D6
:10048800C36FC46BC151C327C251C423C351DC27F6
:10049800C451DD23BD4BBE2BBDC0F6FFBEC0F7FF68
:1004A800F86A0F0EF76403D00800F55005D0F6CFB0
:1004B800E1FFF7CFE2FFE75076EC51F0D8B0BCD7B8
:1004C800BDC0F6FFBEC0F7FFF86A0F0EF76403D091
:1004D8000800F55005D0F6CFE1FFF7CFE2FFE7506F
:1004E8002E0AD8A446D00001E18DBD4BBE2B000ECC
:1004F800DF6F000EDE6F28D0DEC01DF0DFC01EF0FB
:10050800000E206E0A0E1F6EDDEC50F0BDC0F6FF27
:10051800BEC0F7FFF86A0F0EF76403D00800F55065
:1005280005D0F6CFE1FFF7CFE2FFE7500001C16F3A
:10053800C1511D26000E1E22D00E1D24DE6FFF0E97
:100548001E20DF6FBD4BBE2BBDC0F6FFBEC0F7FF40
:10055800F86A0F0EF76403D00800F55005D0F6CFFF
:10056800E1FFF7CFE2FFE75076EC51F0D8A06DD16C
:10057800C3D7000E0001DF6F000EDE6FE18965D181
:10058800E18597D1E08F95D1BFC0D9FFC0C0DAFF10
:10059800DFCFC1F0020EDE26DFCFC2F0000EDD2273
:1005A800C1C0D9FFC2C0DAFFDECFCAF0DDCFCBF0C1
:1005B800CA51CB11D8A404D04A0ECA6FFC0ECB6F17
:1005C800000ECD6F000ECC6F03D00001CC4BCD2BAD
:1005D800CC51CA25C16FCD51CB21C26FC1C0F6FF26
:1005E800C2C0F7FFF86A0F0EF76403D00800F55091
:1005F80005D0F6CFE1FFF7CFE2FFE7500009D8A416
:10060800E4D70001DE51DF11D8B40AD0CC51DE5D49
:10061800CD51DF59D8B004D0DEC0CCF0DFC0CDF06A
:10062800DC51CC5DDD51CD59D8B005D0CC51DC5F63
:10063800CD51DD5B04D0000EDD6F000EDC6FE0A74E
:1006480036D099D020EE02F0BB51D926BC51DA221F
:10065800DE50DE10D8B416D020EE02F0BB51D926F9
:10066800BC51DA22DECFC1F0DDCFC2F001D81FD0F5
:100678000500FA6EC151FD6EC251FE6EFF6AFA5056
:10068800200E1200BBC0D9FFBCC0DAFFDECFC1F01C
:10069800DDCFC2F0C1C0D9FFC2C0DAFF200EDF6EC5
:1006A800BBC0D9FFBCC0DAFFDE2A000EDD22000184
:1006B800DC07D8A0DD07DC29C5E1DD29D8B45BD08B
:1006C800C1D720EE02F0BB51D926BC51DA22DE5048
:1006D800DE10D8B429D020EE02F0BB51D926BC5187
:1006E800DA22DECFC1F0DDCFC2F001D819D0050083
:1006F800FA6EC151FD6EC251FE6EFF6AFA50CAC051
:10070800F6FFCBC0F7FFF86A0F0EF76403D00800B6
:10071800F55005D0F6CFE1FFF7CFE2FFE750120022
:100728000001CA4BCB2B27D0CAC0F6FFCBC0F7FFBE
:10073800F86ABBC0D9FFBCC0DAFFDECFC1F0DDCF9D
:10074800C2F0C1C0D9FFC2C0DAFF0F0EF76403D0F0
:100758000800F55005D0F6CFE1FFF7CFE2FFE750EC
:10076800DF6E0001CA4BCB2BBBC0D9FFBCC0DAFF80
:10077800DE2A000EDD22CC07D8A0CD07CC29A1E1C6
:10078800CD29D8A49ED7E0B737D0B1EF0CF020EE32
:1007980002F0BB51D926BC51DA22DE50DE10D8B4A3
:1007A80016D020EE02F0BB51D926BC51DA22DECF9A
:1007B800C1F0DDCFC2F001D81FD00500FA6EC151DB
:1007C800FD6EC251FE6EFF6AFA50200E1200BBC0C9
:1007D800D9FFBCC0DAFFDECFC1F0DDCFC2F0C1C0A7
:1007E800D9FFC2C0DAFF200EDF6EBBC0D9FFBCC084
:1007F800DAFFDE2A000EDD220001DC07D8A0DD07C3
:10080800DC29C5E1DD29D8B4B1EF0CF0C0D7BFC0F1
:10081800D9FFC0C0DAFFDFCFC1F0020EDE26DFCF7E
:10082800C2F0000EDD22C1C0D9FFC2C0DAFFDF501E
:10083800E26FE20ECA6F000ECB6F000ECD6F010E95
:10084800CC6FDFD6C00EE01334D00001BD51C16FAC
:10085800BE51C26FBD4BBE2BC1C0F6FFC2C0F7FF71
:10086800F86A0F0EF76403D00800F55005D0F6CFEC
:10087800E1FFF7CFE2FFE7500001E26FE251000A23
:10088800D8B4CEEF0CF0630AD8B4C1D7070AD8B4ED
:1008980010D0020AD8B474D60F0AD8B40AD01A0AEB
:1008A800D8B472D6060AD8B4CDD70D0AD8B46AD649
:1008B800C0D7070EE115D8B4ACEF09F0E1A904D010
:1008C800000EDF6F060EDE6FBFC0D9FFC0C0DAFFB3
:1008D800DFCFC1F0040EDE26DFCFC2F0000EDD222E
:1008E800C1C0D9FFC2C0DAFFDECFD8F0DECFD9F061
:1008F800DECFDAF0DECFDBF0DBAF15D0D8C017F0F3
:10090800D9C018F0DAC019F0DBC01AF060EC50F06A
:1009180017C0D8F018C0D9F019C0DAF01AC0DBF047
:10092800030E0001E013000ECF6F000ECE6FD851FA
:10093800D911DA11DB11D8B482D0DA35DB35820F60
:10094800CE6FCF6BFF0ECF23CE07D8A0CF07CEC078
:100958001DF0CFC01EF0000E206E030E1F6EDDECE2
:1009680050F01DC0CEF01EC0CFF0CEC01DF0CFC0DD
:100978001EF0000E206E0A0E1F6EADEC4AF01DC070
:10098800CEF01EC0CFF00001CFAF03D0CE07D8A065
:10099800CF07CE51000827EC27F06DC0D0F06EC00D
:1009A800D1F06FC0D2F070C0D3F0D0C025F0D1C064
:1009B80026F0D2C027F0D3C028F0D8C029F0D9C07B
:1009C8002AF0DAC02BF0DBC02CF096EC2FF025C013
:1009D800D0F026C0D1F027C0D2F028C0D3F0D0C0C4
:1009E80025F0D1C026F0D2C027F0D3C028F0000EE1
:1009F800296E000E2A6E800E2B6E3F0E2C6E93EC25
:100A080042F0D8B005D00001CE07D8A0CF0717D044
:100A1800D0C025F0D1C026F0D2C027F0D3C028F02E
:100A2800000E296E000E2A6E200E2B6E410E2C6EC3
:100A380093EC42F0D8A003D00001CE4BCF2B00019D
:100A4800DFBF06D0DF5121E10D0EDE5DD8B01DD02D
:100A5800D8C07AF0D9C07BF0DAC07CF0DBC07DF07A
:100A6800DE5184EC34F06DC07EF06EC07FF06FC054
:100A780080F070C081F0E5EC32F07AC0D8F07BC02D
:100A8800D9F07CC0DAF07DC0DBF00001CFBF06D022
:100A9800CF5122E10A0ECE5DD8B01ED0D851D9115F
:100AA800DA11DB11D8B463D0D8C0B1F0D9C0B2F034
:100AB800DAC0B3F0DBC0B4F025EC46F00001B15168
:100AC800B211B311B411D8B4CFBF51D0CF5104E192
:100AD800020ECE5DD8A04BD0D0C025F0D1C026F0F4
:100AE800D2C027F0D3C028F05F0E296E700E2A6E90
:100AF800890E2B6E400E2C6E93EC42F0D8B003D0CA
:100B08000001F70E02D00001F80ECE27FF0ECF230A
:100B1800CE5127EC27F06DC0D0F06EC0D1F06FC079
:100B2800D2F070C0D3F0D8C017F0D9C018F0DAC02E
:100B380019F0DBC01AF0D0C01BF0D1C01CF0D2C035
:100B48001DF0D3C01EF0FFEC41F017C0D4F018C060
:100B5800D5F019C0D6F01AC0D7F0000E0001D86F32
:100B6800000ED96F000EDA6F000EDB6F3CD0D8C0D4
:100B7800B1F0D9C0B2F0DAC0B3F0DBC0B4F025EC04
:100B880046F0B1C0D4F0B2C0D5F0B3C0D6F0B4C00E
:100B9800D7F0D8C08EF0D9C08FF0DAC090F0DBC0A3
:100BA80091F0D4C017F0D5C018F0D6C019F0D7C04E
:100BB8001AF0000E20EC40F017C092F018C093F025
:100BC80019C094F01AC095F0B8EC4EF08EC0D8F069
:100BD8008FC0D9F090C0DAF091C0DBF0000E0001B0
:100BE800CF6F000ECE6F010EE26F0A0EE219D8B475
:100BF8001BD0E251040D480EF324F66EE80EF420E3
:100C0800F76EF86A000EF8220900F550D45D090065
:100C1800F550D5590900F550D6590900F550D7595E
:100C2800D8A002D0E22BE1D7E2C0C1F0C26BC1BFAD
:100C3800C207DE51C127DF51C223CE51C127CF5190
:100C4800C223C151DC5FC251DD5BDE51DF11D8B474
:100C580003D0DC07D8A0DD07030EE015C16F000E36
:100C6800E115C26FC151C211D8B403D0DC07D8A0B6
:100C7800DD07E0A583D0030EE015C16F000EE11576
:100C8800C26FC151C211D8B470D020EE02F0BB516E
:100C9800D926BC51DA22DE50DE10D8B416D020EEA8
:100CA80002F0BB51D926BC51DA22DECFC1F0DDCF2C
:100CB800C2F001D85AD00500FA6EC151FD6EC2517A
:100CC800FE6EFF6AFA502D0E1200BBC0D9FFBCC0E1
:100CD800DAFFDECFC1F0DDCFC2F0C1C0D9FFC2C09C
:100CE800DAFF2D0EDF6EBBC0D9FFBCC0DAFFDE2AEB
:100CF800000EDD223AD0000120EE02F0BB51D926C9
:100D0800BC51DA22DE50DE10D8B416D020EE02F044
:100D1800BB51D926BC51DA22DECFC1F0DDCFC2F0FB
:100D280001D81FD00500FA6EC151FD6EC251FE6E8A
:100D3800FF6AFA50300E1200BBC0D9FFBCC0DAFF00
:100D4800DECFC1F0DDCFC2F0C1C0D9FFC2C0DAFF2B
:100D5800300EDF6EBBC0D9FFBCC0DAFFDE2A000E42
:100D6800DD220001DC07D8A0DD070001DDBFFED0D1
:100D7800DD51C1E1DC05D8A0F9D0BDD7E0A73AD054
:100D880040D020EE02F0BB51D926BC51DA22DE5009
:100D9800DE10D8B416D020EE02F0BB51D926BC51D3
:100DA800DA22DECFC1F0DDCFC2F001D81FD00500B6
:100DB800FA6EC151FD6EC251FE6EFF6AFA50200EE6
:100DC8001200BBC0D9FFBCC0DAFFDECFC1F0DDCF57
:100DD800C2F0C1C0D9FFC2C0DAFF200EDF6EBBC0AF
:100DE800D9FFBCC0DAFFDE2A000EDD220001DC07D5
:100DF800D8A0DD07DDBF05D0DD51C3E1DC05D8B0E3
:100E0800C0D7030EE015C16F000EE115C26FC151C6
:100E1800C211D8B4ABD020EE02F0BB51D926BC51D8
:100E2800DA22DE50DE10D8B416D020EE02F0BB5124
:100E3800D926BC51DA22DECFC1F0DDCFC2F001D80D
:100E480095D00500FA6EC151FD6EC251FE6EFF6A63
:100E5800FA502D0E1200BBC0D9FFBCC0DAFFDECF9E
:100E6800C1F0DDCFC2F0C1C0D9FFC2C0DAFF2D0E7C
:100E780075D0D4C017F0D5C018F0D6C019F0D7C0B7
:100E88001AF00001E251040D480EF324F66EE80E44
:100E9800F420F76EF86A000EF8220900F5CF1BF06F
:100EA8000900F5CF1CF00900F5CF1DF00A00F5CFB9
:100EB8001EF0EFEC4AF017C0D0F018C0D1F019C0FE
:100EC800D2F01AC0D3F0D0C024F0D1C025F0D2C0DF
:100ED80026F0D3C027F00A0E286E000E296E000EE9
:100EE8002A6E000E2B6E2CEC4DF024C0D0F025C0DD
:100EF800D1F026C0D2F027C0D3F0000120EE02F0D6
:100F0800BB51D926BC51DA22DE50DE10D8B417D036
:100F180020EE02F0BB51D926BC51DA22DECFC1F057
:100F2800DDCFC2F001D822D00500FA6EC151FD6EA6
:100F3800C251FE6EFF6AFA50D051300F1200000104
:100F4800D051300FBBC0D9FFBCC0DAFFDECFC1F033
:100F5800DDCFC2F0C1C0D9FFC2C0DAFFDF6EBBC0AF
:100F6800D9FFBCC0DAFFDE2A000EDD220001E2074D
:100F7800E229D8B43AD07DD720EE02F0BB51D92669
:100F8800BC51DA22DE50DE10D8B416D020EE02F0C2
:100F9800BB51D926BC51DA22DECFC1F0DDCFC2F079
:100FA80001D81FD00500FA6EC151FD6EC251FE6E08
:100FB800FF6AFA50300E1200BBC0D9FFBCC0DAFF7E
:100FC800DECFC1F0DDCFC2F0C1C0D9FFC2C0DAFFA9
:100FD800300EDF6EBBC0D9FFBCC0DAFFDE2A000EC0
:100FE800DD220001CE07D8A0CF07CFBF05D0CF5153
:100FF800C3E1CE05D8B0C0D7DFBF09D0DF5104E1C7
:10100800090EDE5DD8A003D0080EE26F02D0DEC064
:10101800E2F0E251DE5F000EE2BFFF0EDF5BE2515D
:10102800D8B435D020EE02F0BB51D926BC51DA2213
:10103800DE50DE10D8B416D020EE02F0BB51D9260F
:10104800BC51DA22DECFC1F0DDCFC2F001D81FD00B
:101058000500FA6EC151FD6EC251FE6EFF6AFA506C
:101068002E0E1200BBC0D9FFBCC0DAFFDECFC1F024
:10107800DDCFC2F0C1C0D9FFC2C0DAFF2E0EDF6ECD
:10108800BBC0D9FFBCC0DAFFDE2A000EDD2200019A
:10109800E25127EC27F06DC0C5F06EC0C6F06FC0F6
:1010A800C7F070C0C8F0D8C029F0D9C02AF0DAC09B
:1010B8002BF0DBC02CF0C5C025F0C6C026F0C7C099
:1010C80027F0C8C028F096EC2FF025C0B1F026C054
:1010D800B2F027C0B3F028C0B4F025EC46F0B1C098
:1010E800D4F0B2C0D5F0B3C0D6F0B4C0D7F0A7D012
:1010F800D4C017F0D5C018F0D6C019F0D7C01AF070
:101108000001E251040D480EF324F66EE80EF420B7
:10111800F76EF86A000EF8220900F5CF1BF00900F7
:10112800F5CF1CF00900F5CF1DF00A00F5CF1EF031
:10113800EFEC4AF017C0D0F018C0D1F019C0D2F0C7
:101148001AC0D3F0D0C024F0D1C025F0D2C026F008
:10115800D3C027F00A0E286E000E296E000E2A6EE4
:10116800000E2B6E2CEC4DF024C0D0F025C0D1F031
:1011780026C0D2F027C0D3F0000120EE02F0BB5108
:10118800D926BC51DA22DE50DE10D8B417D020EEB2
:1011980002F0BB51D926BC51DA22DECFC1F0DDCF37
:1011A800C2F001D822D00500FA6EC151FD6EC251BD
:1011B800FE6EFF6AFA50D051300F12000001D05174
:1011C800300FBBC0D9FFBCC0DAFFDECFC1F0DDCF26
:1011D800C2F0C1C0D9FFC2C0DAFFDF6EBBC0D9FF01
:1011E800BCC0DAFFDE2A000EDD22D4C024F0D5C050
:1011F80025F0D6C026F0D7C027F00001E251040D33
:10120800480EF324F66EE80EF420F76EF86A000E26
:10121800F8220900F5CF28F00900F5CF29F00900D8
:10122800F5CF2AF00A00F5CF2BF02CEC4DF024C0B6
:10123800D4F025C0D5F026C0D6F027C0D7F00001DD
:10124800E207E229D8B43AD053D720EE02F0BB51D6
:10125800D926BC51DA22DE50DE10D8B416D020EEE2
:1012680002F0BB51D926BC51DA22DECFC1F0DDCF66
:10127800C2F001D81FD00500FA6EC151FD6EC251EF
:10128800FE6EFF6AFA50300E1200BBC0D9FFBCC018
:10129800DAFFDECFC1F0DDCFC2F0C1C0D9FFC2C0D6
:1012A800DAFF300EDF6EBBC0D9FFBCC0DAFFDE2A22
:1012B800000EDD220001DE07D8A0DF07DE51DF11B6
:1012C800D8A4C3D7E0B7DDBF48D3DD5103E1DC05BF
:1012D800D8A043D320EE02F0BB51D926BC51DA2264
:1012E800DE50DE10D8B416D020EE02F0BB51D9265D
:1012F800BC51DA22DECFC1F0DDCFC2F001D81FD059
:101308000500FA6EC151FD6EC251FE6EFF6AFA50B9
:10131800200E1200BBC0D9FFBCC0DAFFDECFC1F07F
:10132800DDCFC2F0C1C0D9FFC2C0DAFF200EDF6E28
:10133800BBC0D9FFBCC0DAFFDE2A000EDD220001E7
:10134800DC07D8A0DD07DC51DD11D8B406D3C2D73D
:10135800C00EE015C16F000EE115C26FC151C21178
:10136800D8A426D0BFC0D9FFC0C0DAFFDFCFC1F0F4
:10137800020EDE26DFCFC2F0000EDD22C1C0D9FF8B
:10138800C2C0DAFFDECFD4F0DDCFD5F0000ED5BF76
:10139800FF0ED66FD76FD7AF25D0030EE013D71F38
:1013A800D61FD51FD46D000ED523D623D7231AD028
:1013B800BFC0D9FFC0C0DAFFDFCFC1F0020EDE2602
:1013C800DFCFC2F0000EDD22C1C0D9FFC2C0DAFFF4
:1013D800DECFC3F0DDCFC4F0C3C0D4F0C4C0D5F0B5
:1013E800D66BD76BDE51DF11D8A44BD0D451D511B1
:1013F800D611D711D8A445D0DE4BDF2B42D0010E31
:10140800E26F0A0EE219D8B447D0E251040D480E33
:10141800F324F66EE80EF420F76EF86A000EF82250
:101428000900F550D45D0900F550D5590900F5506B
:10143800D6590900F550D759D8A02ED0E22BE1D7BC
:10144800010EE26F080EE219D8B426D0E251040D5D
:10145800700EF324F66EE80EF420F76EF86A000EAC
:10146800F8220900F550D45D0900F550D559090056
:10147800F550D6590900F550D759D8A00DD0E22B10
:10148800E1D7E051C00B000AD8B4B9D7800AD8B464
:10149800D7D7400AD8B4B3D7800EE2BF7F0EC16F4A
:1014A800DE51E25DDF51800AC159D8B003D0DEC0F9
:1014B800E2F010D0DF51800AC16FE251DE5D800E8C
:1014C800E2BF7F0EC159D8B005D0E251DE6FDF6BA5
:1014D800DEBFDF07DC51DD11D8B40DD0030EE015F7
:1014E800C16F000EE115C26FC151C211D8B403D04B
:1014F800DC07D8A0DD07E1AD13D0DC51DE5DDF519C
:10150800800AC16FDD51800AC159D8B005D0DE51BB
:10151800DC5FDF51DD5B04D0000EDD6F000EDC6F99
:10152800800EE2BF7F0EC16FDC51E25DDD51800AA3
:10153800C159D8B007D0E251DC5F000EE2BFFF0E00
:10154800DD5B04D0000EDD6F000EDC6FE0A57ED001
:10155800030EE015C16F000EE115C26FC151C21133
:10156800D8B435D020EE02F0BB51D926BC51DA22CE
:10157800DE50DE10D8B416D020EE02F0BB51D926CA
:10158800BC51DA22DECFC1F0DDCFC2F001D81FD0C6
:101598000500FA6EC151FD6EC251FE6EFF6AFA5027
:1015A8002D0E1200BBC0D9FFBCC0DAFFDECFC1F0E0
:1015B800DDCFC2F0C1C0D9FFC2C0DAFF2D0EDF6E89
:1015C800BBC0D9FFBCC0DAFFDE2A000EDD22000155
:1015D800DC51DD11D8B473D120EE02F0BB51D9260D
:1015E800BC51DA22DE50DE10D8B416D020EE02F05C
:1015F800BB51D926BC51DA22DECFC1F0DDCFC2F013
:1016080001D81FD00500FA6EC151FD6EC251FE6EA1
:10161800FF6AFA50300E1200BBC0D9FFBCC0DAFF17
:10162800DECFC1F0DDCFC2F0C1C0D9FFC2C0DAFF42
:10163800300EDF6EBBC0D9FFBCC0DAFFDE2A000E59
:10164800DD220001DC07D8A0DD07C2D7DC51DD119F
:10165800D8A4E0B73DD020EE02F0BB51D926BC514A
:10166800DA22DE50DE10D8B416D020EE02F0BB51DC
:10167800D926BC51DA22DECFC1F0DDCFC2F001D8C5
:101688001FD00500FA6EC151FD6EC251FE6EFF6A91
:10169800FA50200E1200BBC0D9FFBCC0DAFFDECF63
:1016A800C1F0DDCFC2F0C1C0D9FFC2C0DAFF200E41
:1016B800DF6EBBC0D9FFBCC0DAFFDE2A000EDD2218
:1016C8000001DC07D8A0DD07DC51DD11D8A4C3D7A1
:1016D800030EE015C16F000EE115C26FC151C211B2
:1016E800D8B4EDD020EE02F0BB51D926BC51DA2295
:1016F800DE50DE10D8B416D020EE02F0BB51D92649
:10170800BC51DA22DECFC1F0DDCFC2F001D8D7D08C
:101718000500FA6EC151FD6EC251FE6EFF6AFA50A5
:101728002D0E1200BBC0D9FFBCC0DAFFDECFC1F05E
:10173800DDCFC2F0C1C0D9FFC2C0DAFF2D0EDF6E07
:10174800B7D0DEC0C1F0DFC0C2F00001D890C13709
:10175800C237D890C137C237480EC125F66EE80E99
:10176800C221F76EF86A000EF8220900F5CF1BF0C7
:101778000900F5CF1CF00900F5CF1DF00A00F5CFE0
:101788001EF0D4C017F0D5C018F0D6C019F0D7C0D5
:101798001AF0EFEC4AF017C024F018C025F019C071
:1017A80026F01AC027F00A0E286E000E296E000EC9
:1017B8002A6E000E2B6E2CEC4DF02450300F0001D9
:1017C800E26F48D0D4C017F0D5C018F0D6C019F0D1
:1017D800D7C01AF0DEC0C1F0DFC0C2F0D890C13760
:1017E800C237D890C137C237700EC125F66EE80EE1
:1017F800C221F76EF86A000EF8220900F5CF1BF037
:101808000900F5CF1CF00900F5CF1DF00A00F5CF4F
:101818001EF0EFEC4AF017500F0B0001C96FC951C9
:10182800010DBE0EF324F66EFA0EF420F76EF86A78
:10183800000EF8220800F5CFE2F00CD00001E051CC
:10184800C00B000AD8B47DD7800AD8B4BBD7400AE9
:10185800D8B477D720EE02F0BB51D926BC51DA2292
:10186800DE50DE10D8B416D020EE02F0BB51D926D7
:10187800BC51DA22DECFC1F0DDCFC2F001D81FD0D3
:101888000500FA6EC151FD6EC251FE6EFF6AFA5034
:10189800E2511200BBC0D9FFBCC0DAFFDECFC1F0F5
:1018A800DDCFC2F0C1C0D9FFC2C0DAFFE2C0DFFF9E
:1018B800BBC0D9FFBCC0DAFFDE2A000EDD22000162
:1018C800DE07D8A0DF07DE29B9E1DF29D8A4B6D71B
:1018D800E0B7DDBF42D0DD5103E1DC05D8A03DD043
:1018E80020EE02F0BB51D926BC51DA22DE50DE10C0
:1018F800D8B416D020EE02F0BB51D926BC51DA225A
:10190800DECFC1F0DDCFC2F001D81FD00500FA6EDE
:10191800C151FD6EC251FE6EFF6AFA50200E1200D0
:10192800BBC0D9FFBCC0DAFFDECFC1F0DDCFC2F04B
:10193800C1C0D9FFC2C0DAFF200EDF6EBBC0D9FF1D
:10194800BCC0DAFFDE2A000EDD220001DC07D8A0C9
:10195800DD07DC51DD11D8A4C3D70001BD51C16F2B
:10196800BE51C26FBD4BBE2BC1C0F6FFC2C0F7FF50
:10197800F86A0F0EF76403D00800F55005D0F6CFCB
:10198800E1FFF7CFE2FFE7500001E26FE251D8A490
:10199800A0EF01F0000EBC6F000EBB6F1200000E2E
:1019A8000301B06F050EAF6F000EAB6F000EA76F8F
:1019B800000EAE6F000EAD6F000EA86F010EA66F81
:1019C80022EE00F013EE9AF00B0EDBCFE3FFE806F1
:1019D800FCE294EC46F0B6EC3AF040C01DF041C091
:1019E8001EF0000E206E0A0E1F6EDDEC50F01DC0BA
:1019F80039F11EC03AF1AAEC4BF02EEC50F0D0822F
:101A08003750D8A4C8EC40F001015651D8A414ECC2
:101A180016F001015551D8B4ACA201D08A9A2FEC26
:101A280049F0A30E946E00F000F08250210B0301E0
:101A3800B76FB739E8461F0B0101F26F0301B751C1
:101A4800B725020B0101F211F26F8150010BF2115F
:101A5800F26F820E946E070EF219D8A404D0F151D9
:101A6800F219D8B403D0F2513EEC24F0010E010172
:101A780050651DD0170E50611AD0880E1B25E36FD4
:101A8800130E1C21E46F000E1D21E56F000E1E21B0
:101A9800E66F3350E35D3450E4593550E55936501C
:101AA800E659D8B004D04F51D8B43EEC45F081B4D3
:101AB80039D00301A82BA8050101E36F050EE365E2
:101AC80034D031513211D8A428D04550D8B414D0CC
:101AD8004751D8B405D0000E476F010E486E02D0AA
:101AE800010E476F430E906FFB0E916F47C192F145
:101AF800936BC3EC4FF00BD0030E4818D8A407D053
:101B0800010E486E3750D8A402D00F0E386E440428
:101B1800D8B43BA802D081A23B98000E0101326FD5
:101B2800C80E316F000E0301A86F4404D8B481A217
:101B380005D0010E486E3B88000E396E050E481818
:101B4800D8A424D03650351006E1E90E335C030ED4
:101B58003458D8A01BD0000E0001746F010E736FAB
:101B6800000E766F000E756FFE518CEC50F0CC0EA7
:101B78000101906FF70E916FC3EC4FF0000E336EBA
:101B8800000E346E000E356E000E366E4804D8A472
:101B9800B0D0000EBD6E82848198000E0101236FC3
:101BA8008DEC4CF00301B16FB105D8A404D03B9A79
:101BB8003B90000E386E020EB119D8A49AD0020ECE
:101BC80001015B19D8A48FD04751D8A403D0455040
:101BD800D8A489D00301B02BB0050101E36F190E19
:101BE800E36587D0B8EC3EF0E806D8B43B863850B9
:101BF800D8A47FD03B50D8A47CD0000E0301AE6F90
:101C08001DEC4AF04C0E0101906FF90E916F43C123
:101C180092F144C193F13EC094F13FC095F1C3ECF9
:101C28004FF03E500101435D3F504459D8B00BD0AE
:101C380043C11DF044C11EF0000E206E0A0E1F6E37
:101C4800DDEC50F00AD03EC01DF03FC01EF0000E83
:101C5800206E0A0E1F6EDDEC50F01DC041F11EC053
:101C680042F1010E0001FE6521D0000E746F020ED4
:101C7800736F41C175F042C176F0FE518CEC50F0A3
:101C8800870E0101906FF80E916F41C192F142C128
:101C980093F1C3EC4FF0060E486E000E336E000E43
:101CA800346E000E356E000E366E23D043C11DF023
:101CB80044C11EF0000E206E0A0E1F6EDDEC50F0BF
:101CC8001DC00CF21EC00DF2010E0101236F020EA1
:101CD800486E3C0E526F8086290E906FFB0E916FF6
:101CE800C3EC4FF006D0020E01015B6F000E03013A
:101CF800B06F060E4818D8A40BD03650351006E140
:101D0800E90E335C030E3458D8A002D0010E486E99
:101D1800020E4818D8A4C2D0070EBC64A9D0180E69
:101D2800BC60A6D08DEC4CF00301B16FB105D8A40E
:101D380020D001015B05D8A41AD00301B02BB0054F
:101D48000101E36F190EE36593D0010E486E0F0E83
:101D5800906FFB0E916FC3EC4FF0010E0001FE6512
:101D680087D0050E486EE90E336E030E3BD0010E88
:101D780072D0030EB119D8A474D0030E01015B19F7
:101D8800D8A468D00301AE05D8A464D0B02BB005A0
:101D98000101E36F190EE3656BD03B50D8A468D0FE
:101DA8003850D8A465D0010E0001FE6521D0000E80
:101DB800746F030E736F41C175F042C176F0FE5126
:101DC8008CEC50F0AA0E0101906FF80E916F41C192
:101DD80092F142C193F1C3EC4FF0070E486E000E2A
:101DE800336E000E346E000E356E000E366E40D027
:101DF80041C10CF242C10DF2B8EC3EF00009D8A482
:101E080027D0020E0101236F000E6B6F000E6A6F60
:101E1800010EEEEC20F08188000E0301AE6F030E78
:101E2800486E000E396E000E336E000E346E000ED2
:101E3800356E000E366E01015051D8B44EEC1CF0D0
:101E4800360E0101906FFB0E916FC3EC4FF010D06E
:101E58003B860ED0030E01015B6F000E0301B06FCD
:101E680007D0020E01015B19D8B402D0000E5B6FD7
:101E7800E60EBC6413D0F10EBC64FDD7F10EBC6451
:101E880001D0BC508DEC4CF00301B16F040EB119B8
:101E9800D8A402D0010E01D0000EAE6F070E48186C
:101EA800D8A415D03650351006E1E90E335C030E80
:101EB8003458D8A00CD0000E0301AE6F020E486E45
:101EC8006F0E0101906FFA0E916FC3EC4FF0030E85
:101ED8004818D8A478D0070EBC6475D0180EBC601A
:101EE80072D08DEC4CF00301B16FB105D8B403D0BA
:101EF800B151D8A42BD001015B05D8A425D003018A
:101F0800B02BB0050101E36F190EE3655CD0010E3B
:101F1800486E1C0E906FFB0E916FC3EC4FF0AAEC4D
:101F28004BF0010E0001FE650BD0050E486EE90E60
:101F3800336E030E346E000E356E000E366E43D0CF
:101F4800000E0101236F3FD0010E35D0020EB119EA
:101F5800D8A436D0020E01015B19D8A42AD00301F7
:101F6800B02BB0050101E36F190EE3652CD0819801
:101F7800AAEC4BF0000E0301AE6F020E486E010E84
:101F88000001FE650BD0080E486EE90E336E030E95
:101F9800346E000E356E000E366E03D0000E010151
:101FA800236F770E0101906FFA0E916FC3EC4FF01B
:101FB8000AD0020E01015B6F000E0301B06F03D05F
:101FC800000E01015B6F080E4818D8A424D03650C3
:101FD800351006E1E90E335C030E3458D8A01BD047
:101FE800000E0001746F040E736F000E766F000E02
:101FF800756FFE518CEC50F0F20E0101906FF70EE8
:10200800916FC3EC4FF0000E336E000E346E000E6D
:10201800356E000E366EABA202D0AB98AB8871A2BB
:1020280002D071987188D6CFB7F33C0ED764F1D03F
:10203800000ED76E000ED66E8FEC4DF001014651A2
:10204800D8B41CD02F51E36F3051E46F2F4B302B95
:1020580078C11DF079C11EF0000E206E3C0E1F6E77
:10206800DDEC50F00101E3511D5CE4511E58D8B07D
:1020780009D0010E486E000E466F04D0000E306F76
:10208800000E2F6F3850D8A43806370E516102D091
:102098003BB43B943BC0E3F1210EE317D8B40BD01B
:1020A800020E0001FE6107D0B8EC3EF00009D8A48A
:1020B80002D03B903B9A0301AF51D8B43BB21DD03C
:1020C8003B82010E486E6A0E0101906FF90E916F06
:1020D800C3EC4FF0000E0301B76F030EB76501D0D4
:1020E8000FD0B751010D230EF324D96E010EF42041
:1020F800DA6E000EDF6EB72BF0D7AF51D8A4AF075A
:10210800400E010151651CD03B84010E486E120E31
:10211800906FFA0E916FC3EC4FF0000E0301B76F8A
:10212800030EB76501D00CD0B751010D230EF3246F
:10213800D96E010EF420DA6E000EDF6EB72BF0D7E1
:102148003BC0E3F1290E0101E317D8B421D03B9637
:10215800020E0001FF19D8A40CD03850D8A407D01B
:10216800880E0101906FF90E916FC3EC4FF03B8A16
:102178000BD03850D8A407D0EE0E0101906FF80E9E
:10218800916FC3EC4FF03B80010E486E3C0E386EE9
:102198004EEC1CF00001FF51D8B40BD00301A60788
:1021A800A629D8A406D0010E0101486F010E03012B
:1021B800A66F0001FF51D8A42CD0000E0101406F7A
:1021C800000E3F6F0301AD51D8A4AD07020E000108
:1021D800FE611FD00301AD51D8A41BD0000EEEEC58
:1021E80020F00001FE05D8B485EC51F0020E481825
:1021F800D8B404D0030E4818D8A406D06AC1BBF0DE
:102208006BC1BCF0B2EC43F0020E0301AD6F0A0ED5
:10221800AF6F01014851D8B41CD0020E0001FE6115
:1022280018D00CD080C177F043505FEC4DF00ED041
:102238007EC177F042505FEC4DF008D00101485163
:10224800010AD8B4EFD7030AD8B4F2D7000E0101B7
:10225800486F01015951D8B4F0EF15F0030E1F254E
:10226800E36F000E2021E46F000E2121E56F000EC0
:102278002221E66F3350E35D3450E4593550E55977
:102288003650E659D8B0F0EF15F0780E176E020EFA
:10229800186EAA0E196E020E1A6E59C11BF01C6A2E
:1022A800FFEC4EF059C157F1000E0101596F780E3D
:1022B8000001F96F020EFA6F57C1FBF0BAEC2DF06E
:1022C800030E01010B19D8A498D00A0E0301AF6FB1
:1022D8008ED04350D8B421D0010180510019D8A420
:1022E8001CD008C1B1F009C1B2F043C0B3F05E0E12
:1022F8000001B46F010EB56F94EC3BF04250D8B4B6
:1023080008D0020E0101486F010E0301A76FF0EF1C
:1023180015F09BEC2BF0F0EF15F00301A751D8B4A2
:10232800F0EF15F04250D8B4F0EF15F001017E51EE
:102338000019D8A4F0EF15F008C1B1F009C1B2F046
:1023480042C0B3F09A0E0001B46F030EB56F94EC5F
:102358003BF0000E0301B76F020EB76501D042D003
:10236800B751040D9A0EF324D96E030EF420DA6ED9
:10237800DECF17F0DECF18F0DECF19F0DECF1AF07F
:1023880060EC50F017C07AF018C07BF019C07CF0F0
:102398001AC07DF00301B751040D5E0EF324D96E07
:1023A800010EF420DA6EDECF7EF0DECF7FF0DECFD6
:1023B80080F0DECF81F0E5EC32F00301B751040D77
:1023C8005E0EF324D96E010EF420DA6E00017AC095
:1023D800DEFF7BC0DEFF7CC0DEFF7DC0DEFF0301C9
:1023E800B72BBAD7000EA76F9BEC2BF0F5D30101E2
:1023F8000151040AD8B46DD7EFD3020E0B19D8A433
:1024080065D10A0E0301AF6F55D10001FE510101DC
:102418000019D8A4E1D3035104E1A00E025DD8A0AD
:1024280015D0035113E1A30E025DD8B00FD0000EF2
:1024380000016D6FA00E6C6F000E6F6F010E6E6F56
:10244800000E716F030E706F7FEC49F001010351AC
:1024580004E1C00E025DD8A016D0035114E1C90EE4
:10246800025DD8B010D0000E0001BE6FC00EBD6F67
:10247800000EC06F020EBF6F000EC26F090EC16F53
:10248800CEEC49F0A9D30101035104E1E00E025D4D
:10249800D8A0A2D3035103E1EC0E025DD8B09CD3BF
:1024A800000E0001BE6FE00EBD6F000EC06F0B0E78
:1024B800BF6F000EC26F0C0EC16FCEEC49F08CD30B
:1024C800010E010100651FD0050E00611CD00251EC
:1024D8000311D8B408D0035106E1050E025DD8B047
:1024E80002D0030E0ED00101035104E1810E025DFA
:1024F800D8A009D0035107E1850E025DD8B003D0FA
:10250800020E0301AB6F01010051D8B406D00001DF
:10251800FE5101010019D8A45FD3035104E1C00E94
:10252800025DD8A012D0035110E1C90E025DD8B0E7
:102538000CD0000E0001FA6FC00EF96F000EFC6F90
:10254800020EFB6FE4EC4BF047D30101035104E1A9
:10255800E00E025DD8A040D3035103E1EC0E025D0A
:10256800D8B03AD3000E0001FA6FE00EF96F000EF2
:10257800FC6F0B0EFB6FE4EC4BF02ED30101005106
:10258800D8B406D00001FE5101010019D8A424D303
:1025980002050311D8A456D0010E0001FE6552D0E1
:1025A800FE0E0101E36FFF0EE46F0001FE51010111
:1025B800E56FE66BD890E537E637E351E527E45158
:1025C800E623E5510825D96EE6510921DA6EDF5078
:1025D800E76FE751E96FE86BFF0EEA6FFF0EEB6FED
:1025E8000001FE510101EC6FED6BD890EC37ED372F
:1025F800EA51EC27EB51ED23EC510825D96EED514A
:102608000921DA6EDF50EE6FEE51E8110301A96F70
:102618000101E9510301AA6F3A0E0101906FF60E0C
:10262800916F00C192F1936B02C194F103C195F1CE
:10263800A9C396F1AAC397F1C3EC4FF0020E0301A8
:10264800AB6FCAD20101035104E1C00E025DD8A0EC
:1026580015D0035113E1C90E025DD8B00FD0000E9A
:10266800C46FC00EC36F000EC66F020EC56F000E9A
:10267800C86F090EC76F3BEC44F0AED2010103519D
:1026880004E1E00E025DD8A0A7D2035103E1EC0EED
:10269800025DD8B0A1D2000EC46FE00EC36F000E69
:1026A800C66F0B0EC56F000EC86F0C0EC76F3BECE4
:1026B80044F092D201010151040AD8B4A6D6020A04
:1026C800D8B4FED6160AD8B459D786D24304D8A4AB
:1026D8006AD0780E176E020E186E57C119F06BEC9F
:1026E8004AF017C098F318C099F30A0E010157650C
:1026F80073D2500E02017A19D8A46ED27B05D8A4E1
:102708006BD2470E0301981903E10F0E9919D8A44B
:1027180063D2060EAC6F030E02017D6502D0030E74
:102728007D6F000E0301B76F35D0B20E176E030E22
:10273800186E780E196E020E1A6EACC31BF0000EDE
:102748001C6E3AEC37F0B2C325F0B3C326F0B4C31D
:1027580027F0B5C328F072C129F073C12AF074C1FB
:102768002BF075C12CF096EC2FF00301B751040D36
:102778005E0EF324D96E010EF420DA6E25C0DEFF5A
:1027880026C0DEFF27C0DEFF28C0DEFFAC51040FE5
:10279800AC6FB72B02017D510301B75DD8A0C5D737
:1027A8009BEC2BF019D2000E0101906FFB0E916F7C
:1027B800C3EC4FF011D201010051D8A443D0010E4F
:1027C8000001FE653FD02CD0A9C36AF1AAC36BF102
:1027D800020E4818D8B404D0030E4818D8A406D05E
:1027E8006AC1BBF06BC1BCF0B2EC43F0CD0E010185
:1027F800906FF80E916F6AC192F16BC193F1C3ECBF
:102808004FF020D0010E486E06C13BF03C0E386EEA
:10281800630E0101906FF80E916FC3EC4FF012D068
:1028280021EE02F0DECFE3F1DDCFE4F10101E45166
:10283800000AD8A407D0E351010AD8B4C5D7030ABF
:10284800D8B4E0D70001FE5101010019D8B470D006
:10285800CBD1010E486ECF0E906FFA0E916FC3EC7C
:102868004FF0C2D1010106510711D8A408D03B8608
:102878002A0E906FFC0E916FC3EC4FF0B5D106C1D4
:10288800BBF007C1BCF0B2EC43F0020E486E7D0EFF
:102898000101906FF70E916F06C192F107C193F194
:1028A800C3EC4FF0A1D1010106510711D8A408D0FB
:1028B8003B86320E906FFC0E916FC3EC4FF094D1B3
:1028C80006C1BBF007C1BCF0B2EC43F08188000E32
:1028D8000301AE6F030E486E000E396E000E336EA4
:1028E800000E346E000E356E000E366E010150512A
:1028F800D8B44EEC1CF03E0E0101906FF80E916FAB
:1029080006C192F107C193F1C3EC4FF0360E0101F5
:10291800906FFB0E916FC3EC4FF066D1020E486EBC
:10292800A60E0101906FF70E916FC3EC4FF05CD1CA
:1029380021EE02F0DECFE3F1DDCFE4F10101E45155
:10294800000AD8A451D1E351810AD8B482D7030A26
:10295800D8B488D7010AD8B4A6D7070AD8B4DED71E
:1029680043D10001FE05D8A43FD1010100050301B0
:10297800B66F19D10301B651010D230EF324D96E98
:10298800010EF420DA6E000EDF6E000EEEEC20F081
:10299800590E0101906FFA0E916FB6C392F1936BC5
:1029A800C3EC4FF0000E0001746F810E736F000EC0
:1029B800766F000E756F010100518CEC50F014D148
:1029C800B8EC3EF00009D8A42FD00301B651010D90
:1029D800230EF324D96E010EF420DA6E010EDF6E99
:1029E800B651020D0C0EF324D96E020EF420DA6EE5
:1029F80006C1DEFF07C1DDFF3CC01DF03DC01EF073
:102A0800000E206E0A0E1F6EDDEC50F00301B65169
:102A1800020D6A0EF324D96E010EF420DA6E1DC081
:102A2800DEFF1EC0DDFF0DD00301B651020D6A0E98
:102A3800F324D96E010EF420DA6E000EDE6E000E5D
:102A4800DD6EC00E0101906FF90E916FB6C392F161
:102A5800936B06C194F107C195F1C3EC4FF0000EDA
:102A68000001746F820E736F0301B651020D6A0E76
:102A7800F324D96E010EF420DA6EDECF75F0DDCFC7
:102A880076F0010100518CEC50F0AED0B8EC3EF07D
:102A98000009D8A427D00301B651010D230EF32451
:102AA800D96E010EF420DA6E020EDF6EB651020DF9
:102AB8000C0EF324D96E020EF420DA6E06C1DEFF86
:102AC80007C1DDFFB651020D6A0EF324D96E010E5F
:102AD800F420DA6E000EDE6E000EDD6E010EEEECF6
:102AE80020F00DD00301B651020D6A0EF324D96E01
:102AF800010EF420DA6E000EDE6E000EDD6EA40EFE
:102B08000101906FF90E916FB6C392F1936B0301B7
:102B1800B651020D6A0EF324D96E010EF420DA6E56
:102B2800DECF94F1DDCF95F1C3EC4FF0000E00013C
:102B3800746F830E736F0301B651020D6A0EF3248E
:102B4800D96E010EF420DA6EDECF75F0DDCF76F0A7
:102B5800010100518CEC50F047D00301B651010D32
:102B6800230EF324D96E010EF420DA6E000EDF6E08
:102B7800000EEEEC20F0DC0E0101906FF90E916F63
:102B8800B6C392F1936BC3EC4FF0000E0001746F63
:102B9800840E736F000E766F000E756F0101005181
:102BA8008CEC50F021D021EE02F0DECFE3F1DDCF46
:102BB800E4F10101E451000AD8A416D0E351010A56
:102BC800D8B4D8D6030AD8B4FBD6010AD8B45ED78D
:102BD800070AD8B4C2D708D00301AB51020AD8B447
:102BE800EAD5010AD8B4BDD63BA205D00A0E030126
:102BF800AF19D8B43B923BC0E3F1210E0101E317B2
:102C0800D8B409D03850D8A406D0010E0001FE650A
:102C180002D03B903B9A000E0301AB6F04EF0DF01E
:102C28007DEC38F00101DD6F670E906FF90E916F42
:102C3800C3EC4FF001015351D8A445D0000EE26F08
:102C480029D0460E176E020E186EE251010DDC0EE9
:102C5800F324D96E020EF420DA6EDF50C36FC3512D
:102C68004A0D900EF324196EE80EF4201A6EBEEC8D
:102C78004DF017501810D8A40BD00101E251010DE6
:102C8800DC0EF324D96E020EF420DA6EDF50536F97
:102C98000101E22BFF0EC36FFF0EC46FDD51C56F3C
:102CA800C66BC351C527C451C623E251C76FC86B51
:102CB800C551C75DC851800AC96FC651800AC95934
:102CC800D8B074D2BED702014651D8A447D2000E5C
:102CD8000101536F6BD2460E0001B26F020EB36F43
:102CE800B6EC50F0B2C0DEF1B3C0DFF1B4C0E0F131
:102CF800B5C0E1F1DEC125F0DFC126F0E0C127F063
:102D0800E1C128F0000E296E000E2A6EC00E2B6E4F
:102D1800400E2C6E93EC42F0D8A014D0000E256E15
:102D2800000E266EA00E276E420E286EDEC129F018
:102D3800DFC12AF0E0C12BF0E1C12CF093EC42F0A6
:102D4800D8B008D0260E0101906FF70E916FC3EC32
:102D58004FF025D25EC18EF05FC18FF060C190F058
:102D680061C191F072C192F073C193F074C194F093
:102D780075C195F0DFEC35F08EC0CAF18FC0CBF18C
:102D880090C0CCF191C0CDF1000E296E000E2A6ED4
:102D9800200E2B6E410E2C6EDEC125F0DFC126F011
:102DA800E0C127F0E1C128F096EC2FF025C08EF0A5
:102DB80026C08FF027C090F028C091F0CAC192F0C9
:102DC800CBC193F0CCC194F0CDC195F0DFEC35F0D8
:102DD8008EC072F18FC073F190C074F191C075F11B
:102DE8009EEC39F0DCD1460E176E020E186E890E75
:102DF800196EFB0E1A6EBEEC4DF017501810D8A4C1
:102E080006D0020E0001FF6F9EEC39F0C8D1460EC5
:102E1800176E020E186EE30E196EFC0E1A6EBEECDB
:102E28004DF017501810D8A406D0010E0001FF6FFE
:102E38009EEC39F0B4D1460E176E020E186E9E0E37
:102E4800196EFC0E1A6EBEEC4DF017501810D8A46F
:102E5800A6D1000E0001FF6F9EEC39F0000E3B6E0C
:102E68009ED1460E176E020E186E090E196EFC0ED4
:102E78001A6EBEEC4DF017501810D8A405D0010EEC
:102E8800476E9EEC39F08BD1460E176E020E186E07
:102E9800DD0E196EFC0E1A6EBEEC4DF017501810B0
:102EA800D8A405D0020E476E9EEC39F078D1460EB4
:102EB800176E020E186E3A0E196EFC0E1A6EBEECE4
:102EC8004DF017501810D8A46AD1000E476E9EEC2A
:102ED80039F065D1460E176E020E186ED70E196EB0
:102EE800FC0E1A6EBEEC4DF017501810D8A405D081
:102EF800010E466E9EEC39F052D1460E176E020E48
:102F0800186EAC0E196EFC0E1A6EBEEC4DF0175012
:102F18001810D8A444D1000E466E9EEC39F03FD16B
:102F2800460E176E020E186E3A0E196EFC0E1A6EC9
:102F3800BEEC4DF017501810D8A406D0000E0001B2
:102F4800FE6F9EEC39F02BD1460E176E020E186EEE
:102F5800A50E196EFC0E1A6EBEEC4DF01750181027
:102F6800D8A406D0010E0001FE6F9EEC39F017D1EF
:102F7800460E176E020E186E740E196EFC0E1A6E3F
:102F8800BEEC4DF017501810D8A406D0020E000160
:102F9800FE6F9EEC39F003D1460E176E020E186EC6
:102FA8007B0E196EFC0E1A6EBEEC4DF01750181001
:102FB800D8A406D0030E0001FE6F9EEC39F0EFD0C6
:102FC800460E176E020E186E820E196EFC0E1A6EE1
:102FD800BEEC4DF017501810D8A4E1D0040E000133
:102FE800FE6F9EEC39F0DBD0460E176E020E186E9F
:102FF8003A0E196EFC0E1A6EBEEC4DF017501810F2
:10300800D8A405D0000E456E9EEC39F0C8D0460E07
:10301800176E020E186E970E196EFC0E1A6EBEEC25
:103028004DF017501810D8A4BAD0010E456E9EEC7A
:1030380039F0B5D0460E176E020E186E3A0E196E9C
:10304800FC0E1A6EBEEC4DF017501810D8A405D01F
:10305800000E446E9EEC39F0A2D0460E176E020E9A
:10306800186E900E196EFC0E1A6EBEEC4DF01750CD
:103078001810D8A494D0010E446E9EEC39F08FD06D
:10308800000E0101E26F040EE26501D088D0460E01
:10309800176E020E186EE251110D000EF324196E10
:1030A800030EF4201A6EBEEC4DF017501810D8A479
:1030B80009D0E2C125F0266A010153516FEC3CF0BA
:1030C8009EEC39F00101E22BDED7460E176E020E98
:1030D800186EEE0E196EFC0E1A6EBEEC4DF01750FF
:1030E8001810D8A406D0000E01017F6F9EEC39F0AD
:1030F80056D0460E176E020E186EE90E196EFC0EAB
:103108001A6EBEEC4DF017501810D8A448D0010E16
:1031180001017F6F9EEC39F042D0460E236E020EFD
:10312800246E68EC47F023C0CEF124C0CFF1CEC1A5
:1031380025F0CFC126F0010153516FEC3CF001019D
:10314800D86F9EEC39F00101D851D8A428D02D0EA3
:10315800906FF90E916FC3EC4FF021D001015351DC
:10316800020AD8B4B7D6010AD8B4DAD6050AD8B450
:1031780078D60F0AD8B438D7030AD8B45BD7060A6A
:10318800D8B431D6020AD8B4A6D5010AD8B478D7AB
:103198001E0AD8B49AD7030AD8B472D7BED7000E7D
:1031A8000101536F7DEC38F00101DD6F0E0E5365A0
:1031B8002FD3AC0E906FFA0E916F53514A0D100E2B
:1031C800F326000EF422900EF324926FE80EF420FA
:1031D800936F53513FEC31F0EFC094F1F0C095F18B
:1031E800C3EC4FF015D3870E0101906FF20E916F6B
:1031F800C3EC4FF0CE0E0101906FFB0E916FC3EC44
:103208004FF0060E0101906FF60E916FC3EC4FF070
:103218000E0E0101906FF90E916F51C192F1936BEF
:10322800C3EC4FF0D40E0101906FF20E916FC3EC16
:103238004FF0000E0101E26F21D1E00E906FFA0EFF
:10324800916FE251010DDC0EF324D96E020EF420C9
:10325800DA6EDF50C36FC3514A0D900EF324926F9C
:10326800E80EF420936FE251010DDC0EF324D96EC1
:10327800020EF420DA6EDF50C46FC4514A0D100EEE
:10328800F326000EF422900EF324946FE80EF42037
:10329800956FC3EC4FF00101E251010DDC0EF324F0
:1032A800D96E020EF420DA6E0E0EDE18D8A4CBD03A
:1032B8005EC1B1F05FC1B2F060C1B3F061C1B4F0FA
:1032C80025EC46F0B1C0D9F1B2C0DAF1000E296E92
:1032D800000E2A6E200E2B6E410E2C6E5EC125F05C
:1032E8005FC126F060C127F061C128F096EC2FF08D
:1032F80025C0B1F026C0B2F027C0B3F028C0B4F0A2
:1033080025EC46F0B1C0BBF0B2C0BCF0000E000125
:10331800BE6F0A0EBD6F65EC4FF0BBC0DBF1BCC0E1
:10332800DCF162C1B1F063C1B2F064C1B3F065C150
:10333800B4F025EC46F0B1C0D0F1B2C0D1F1000E26
:10334800296E000E2A6E200E2B6E410E2C6E62C165
:1033580025F063C126F064C127F065C128F096EC1A
:103368002FF025C0B1F026C0B2F027C0B3F028C0B6
:10337800B4F025EC46F0B1C0BBF0B2C0BCF0000E12
:103388000001BE6F0A0EBD6F65EC4FF0BBC0D2F1F5
:10339800BCC0D3F166C1B1F067C1B2F068C1B3F087
:1033A80069C1B4F025EC46F0B1C0D4F1B2C0D5F192
:1033B800000E296E000E2A6E200E2B6E410E2C6E0A
:1033C80066C125F067C126F068C127F069C128F0F9
:1033D80096EC2FF025C0B1F026C0B2F027C0B3F0AC
:1033E80028C0B4F025EC46F0B1C0BBF0B2C0BCF0C8
:1033F800000E0001BE6F0A0EBD6F65EC4FF0BBC03A
:10340800D6F1BCC0D7F1520E0101906FF70E916F43
:10341800D9C192F1DAC193F1DBC194F1DCC195F124
:10342800D0C196F1D1C197F1D2C198F1D3C199F128
:10343800D4C19AF1D5C19BF1D6C19CF1D7C19DF1F8
:10344800C3EC4FF012D00101E251010DDC0EF32460
:10345800D96E020EF420DA6EDF503FEC31F0EFC087
:1034680090F1F0C091F1C3EC4FF0670E0101906F3D
:10347800F90E916FC3EC4FF00101E22BFF0EC36F01
:10348800FF0EC46FDD51C56FC66BC351C527C4514C
:10349800C623E251C76FC86BC551C75DC851800AC2
:1034A800C96FC651800AC959D8A0C7D6F90E906FFE
:1034B800FC0E916FC3EC4FF0E7D1EC0E0101906F59
:1034C800F40E916F53513FEC31F0EFC092F1F0C020
:1034D80093F1C3EC4FF0D8D1AF0E0101906FF40E09
:1034E800916F53513FEC31F0EFC092F1F0C093F17E
:1034F800C3EC4FF0C9D1470E0101906FF10E916FE7
:103508007AC192F17BC193F1C3EC4FF0BDD1640E47
:103518000101906FF30E916F78C192F179C193F127
:10352800C3EC4FF0B1D1E90E0101906FF00E916F2D
:1035380053513FEC31F0EFC092F1F0C093F1C3EC7E
:103548004FF0A2D16F0E0101906FF40E916FC3EC92
:103558004FF09D0E0101906FF60E916FC3EC4FF086
:10356800A90E0101906FF30E916F40C092F141C016
:1035780093F1C3EC4FF088D11D0E0101906FF30E4B
:10358800916F3CC092F13DC093F1C3EC4FF07CD1F8
:103598006F0E0101906FF40E916FC3EC4FF09D0E0A
:1035A8000101906FF60E916FC3EC4FF02E0E0101E2
:1035B800906FF40E916F3EC092F13FC093F1C3EC4F
:1035C8004FF062D16F0E0101906FF40E916FC3EC52
:1035D8004FF0650E0101906FF50E916FC3EC4FF03F
:1035E800EC0E0101906FF30E916F7CC192F17DC1D9
:1035F80093F1C3EC4FF048D13A0E0101906FF20EEF
:10360800916F53513FEC31F0EFC092F1F0C093F15C
:10361800C3EC4FF039D1EC0E0101906FF10E916FB0
:1036280053513FEC31F0EFC092F1F0C093F1C3EC8D
:103638004FF02AD1870E0101906FF00E916F535110
:103648003FEC31F0EFC092F1F0C093F1C3EC4FF0D2
:103658001BD15EC1B1F05FC1B2F060C1B3F061C10E
:10366800B4F025EC46F0B1C0D9F1B2C0DAF1000EE1
:10367800296E000E2A6E200E2B6E410E2C6E5EC136
:1036880025F05FC126F060C127F061C128F096ECF3
:103698002FF025C0B1F026C0B2F027C0B3F028C083
:1036A800B4F025EC46F0B1C0BBF0B2C0BCF0000EDF
:1036B8000001BE6F0A0EBD6F65EC4FF0BBC0DBF1B9
:1036C800BCC0DCF1290E0101906FF50E916FD9C1D4
:1036D80092F1DAC193F1DBC194F1DCC195F1C3EC4D
:1036E8004FF0D2D06C0E0101906FF60E916FC3ECC3
:1036F8004FF0010E0101E26F050EE26501D011D015
:10370800F20E906FFC0E916FE251110D000EF32432
:10371800926F030EF420936FC3EC4FF00101E22B7C
:10372800EBD7E80E906FF30E916FC3EC4FF0ACD06F
:103738009D0E0101906FF50E916FC3EC4FF0A4D070
:10374800CB0E0101906FF60E916FC3EC4FF0010E96
:103758000101E26F050EE26501D011D0F20E906F03
:10376800FC0E916FE251110D000EF324926F030EBF
:10377800F420936FC3EC4FF00101E22BEBD7E80E76
:10378800906FF30E916FC3EC4FF07ED09C0E010149
:10379800906FF10E916FC3EC4FF076D0180E0101C7
:1037A800906FF80E916FC3EC4FF06ED0F80E0101D8
:1037B800906FF90E916F53514A0D440EF326000E87
:1037C800F422900EF324F66EE80EF420F76EF86AF1
:1037D800000EF8220900F5CF92F10A00F5CF93F117
:1037E80053514A0D460EF326000EF422900EF32490
:1037F800F66EE80EF420F76EF86A000EF82209005B
:10380800F5CF94F10A00F5CF95F1C3EC4FF03CD019
:1038180001015351000AD8B4E6D4020AD8B44DD6EF
:10382800010AD8B480D6070AD8B4A6D6010AD8B4F3
:10383800C9D6030AD8B4E0D6010AD8B45CD60F0AB0
:10384800D8B465D6010AD8B4E6D6030AD8B4F2D6F5
:10385800010AD8B49DD6070AD8B43ED6010AD8B40E
:1038680071D6030AD8B4F5D6010AD8B43BD71E0AD4
:10387800D8B45ED7030AD8B463D7060AD8B486D7B3
:10388800020AD8B48BD792D7000E0101566F000EEA
:10389800586F120001015051D8B409D0392A790E55
:1038A8003918D8A41200000E506FB6EC3AF00A0E80
:1038B8003918D8A402D0000E396E3B50D8B4C3D002
:1038C80080863C0E0101526F3BA221D0EE0E000112
:1038D800CD6FFB0ECE6F000E6EEC4BF0650E000147
:1038E800CD6FFB0ECE6F020E6EEC4BF0B30E0001E7
:1038F800CD6FFC0ECE6F040E6EEC4BF0580E00012F
:10390800CD6FFC0ECE6F060E6EEC4BF012003BA492
:1039180011D0B90E0001CD6FFC0ECE6F020E6EEC09
:103928004BF07B0E0001CD6FFB0ECE6F040E6EECDC
:103938004BF089D03BA848D0392A39040001D06F10
:10394800050ED06120D0E50ECD6FFB0ECE6F000EB8
:103958006EEC4BF0CB0E0001CD6FFC0ECE6F020E5D
:103968006EEC4BF01A0E0001CD6FFC0ECE6F040EFC
:103978006EEC4BF0D30E0001CD6FFB0ECE6F060E32
:103988006EEC4BF01200BF0E0001CD6FFC0ECE6F37
:10399800000E6EEC4BF05F0E0001CD6FFC0ECE6F8B
:1039A800020E6EEC4BF0FD0E0001CD6FFB0ECE6FDC
:1039B800040E6EEC4BF0C50E0001CD6FFC0ECE6F01
:1039C800060E6EEC4BF012003BAC3DD0220E00010F
:1039D800CD6FFC0ECE6F020E6EEC4BF04F0E000159
:1039E800CD6FFB0ECE6F040E6EEC4BF0000E010196
:1039F8002E6F640E2D6F37C01DF01E6A000E206EEC
:103A08000A0E1F6EADEC4AF0300E1D240001C66F81
:103A1800000E1E20C76F6FEC3FF037C017F0186A12
:103A2800000E1A6E0A0E196E55EC4CF0300E172463
:103A38000001C66F000E1820C76F6FEC3FF0040E30
:103A4800C4EC4CF01200500E3718D8A411D0220E36
:103A58000001CD6FFC0ECE6F020E6EEC4BF06D0EBA
:103A68000001CD6FFC0ECE6F040E6EEC4BF0120011
:103A7800392A0001FF51D8A4A8D0030E4818D8A4A9
:103A880067D0DC0ECD6FFB0ECE6F020E6EEC4BF0E6
:103A9800000E01012E6F220E2D6F24EC51F06AC129
:103AA800BFF06BC1C0F0000E0001C26F640EC16FA1
:103AB80041EC4EF0300E0001BF25C66F000EC0214C
:103AC800C76F6FEC3FF0000E0001C26F0A0EC16FA6
:103AD8006AC1BFF06BC1C0F041EC4EF0BFC0BBF093
:103AE800C0C0BCF0000E0001BE6F0A0EBD6F65ECD1
:103AF8004FF0300E0001BB25C66F000EBC21C76F0A
:103B08006FEC3FF0000E0001C76F2E0EC66F6FEC12
:103B18003FF06AC1BBF06BC1BCF0000E0001BE6F84
:103B28000A0EBD6F65EC4FF0300E0001BB25C66F65
:103B3800000EBC21C76F6FEC3FF0000E0001C76F8D
:103B4800410EC66F6FEC3FF0040EC4EC4CF03AD354
:103B5800000E1C6E000E13EC51F0040E1C6E010ECC
:103B680013EC51F001014751D8A403D04550D8A413
:103B780011D0F70E0001CD6FFB0ECE6F020E6EEC6A
:103B88004BF0C10E0001CD6FFB0ECE6F040E6EEC34
:103B98004BF010D0660E0001CD6FFC0ECE6F020EFA
:103BA8006EEC4BF0510E0001CD6FFC0ECE6F040E83
:103BB8006EEC4BF0100E1C6E060E13EC51F0000E5E
:103BC8001C6E070E13EC51F0FDD20001FF05D8B4AE
:103BD80004D0020EFF19D8A4F5D2A6EC4FF00101CB
:103BE8003CAF07D0030EF05F140EF06109D02C0E25
:103BF80006D0030EF0272C0EF06502D0140EF06FDD
:103C0800F0C12DF12E6B000E776F030E766F3BC15E
:103C1800BBF03CC1BCF0A1EC50F00001BCBF0CD023
:103C2800BC5104E1040EBB5DD8A006D0000EC76FDE
:103C3800FE0EC66F88EC48F0030E4818D8A45CD076
:103C480080863C0E0101526F030EEF27590EEF6577
:103C580002D04A0EEF6FEFC12DF12E6B000E776F79
:103C6800030E766F000E0001C76FFE0EC66F88EC5C
:103C780048F0000E0101776F020E766F000E2E6F6E
:103C88004D0E2D6F6AC1BFF06BC1C0F0000E000170
:103C9800C26F640EC16F41EC4EF0300E0001BF25BB
:103CA800C66F000EC021C76F88EC48F0000E0001F7
:103CB800C26F0A0EC16F6AC1BFF06BC1C0F041ECA0
:103CC8004EF0BFC0BBF0C0C0BCF0000E0001BE6F1C
:103CD8000A0EBD6F65EC4FF0300E0001BB25C66FB4
:103CE800000EBC21C76F88EC48F0000E0001C76FBA
:103CF800410EC66F88EC48F0050E3960B7D0020E49
:103D08000001FF19D8A4B2D0000E01012E6F1D0EBC
:103D18002D6F000E776F010E766F000E0001C76FD2
:103D2800E30EC66F88EC48F0000E0101776F020EB3
:103D3800766F3BC1BBF03CC1BCF0A1EC50F0000178
:103D4800BCBF33D0E90EBB5D030EBC59D8A02DD043
:103D5800000E01012E6F110E2D6F3CAF07D0000E23
:103D68000001C76F2D0EC66F88EC48F0000E0101E8
:103D78002E6F170E2D6F3BC11DF03CC11EF0030EB8
:103D8800206EE80E1F6EADEC4AF01DC0BBF01EC0E1
:103D9800BCF0A1EC50F0300E0001BB25C66F000E40
:103DA800BC21C76F88EC48F00ED0000E01012E6FC1
:103DB800170E2D6F3CAF07D0000E0001C76F2D0EF8
:103DC800C66F88EC48F0000E01012E6F1D0E2D6F96
:103DD800000E206E640E1F6E3BC11DF03CC11EF02C
:103DE800ADEC4AF01DC017F01EC018F0000E1A6E98
:103DF8000A0E196E55EC4CF017C0BBF018C0BCF099
:103E0800A1EC50F0300E0001BB25C66F000EBC219E
:103E1800C76F88EC48F0000E206E0A0E1F6E3BC17B
:103E28001DF03CC11EF0ADEC4AF01DC017F01EC0DD
:103E380018F0000E1A6E0A0E196E55EC4CF017C0E9
:103E4800BBF018C0BCF0A1EC50F0300E0001BB254F
:103E5800C66F000EBC21C76F88EC48F0000E000149
:103E6800C76F410EC66F88EC48F0A3D0000E000162
:103E7800D46F020ED46501D09CD0D4C076F1010174
:103E8800776B000E2E6F170E2D6F0001D451040DA5
:103E98005E0EF324D96E010EF420DA6E030EDBAE4B
:103EA80007D0000EC76F2D0EC66F88EC48F005D0FE
:103EB800000E01012E6F1D0E2D6F000E0001926F76
:103EC800000E936FC80E946F420E956FD451040D77
:103ED8005E0EF324D96E010EF420DA6EDECF8EF07A
:103EE800DECF8FF0DECF90F0DECF91F0DFEC35F053
:103EF8008EC0B1F08FC0B2F090C0B3F091C0B4F0F2
:103F080025EC46F0B1C0BBF0B2C0BCF0A1EC50F05B
:103F1800300E0001BB25C66F000EBC21C76F88ECB0
:103F280048F0000E0001926F000E936F200E946F00
:103F3800410E956FD451040D5E0EF324D96E010E17
:103F4800F420DA6EDECF8EF0DECF8FF0DECF90F089
:103F5800DECF91F0DFEC35F08EC0B1F08FC0B2F05B
:103F680090C0B3F091C0B4F025EC46F0B1C017F0A2
:103F7800B2C018F0000E1A6E0A0E196E55EC4CF00D
:103F880017C0BBF018C0BCF0A1EC50F0300E000117
:103F9800BB25C66F000EBC21C76F88EC48F0000E29
:103FA8000001C76F410EC66F88EC48F00001D42BA2
:103FB80060D7000EC2EC44F0000E1C6E040E13EC29
:103FC80051F03BA015D0050E396009D0120E000142
:103FD800CD6FFC0ECE6F050E6EEC4BF0EED08F0E53
:103FE8000001CD6FFB0ECE6F050E6EEC4BF0E5D0E9
:103FF8003BAA15D0050E396009D0120E0001CD6F0D
:10400800FC0ECE6F050E6EEC4BF0D7D0850E00017E
:10401800CD6FFB0ECE6F050E6EEC4BF0CED0480484
:10402800D8B404D0020E4818D8A438D0D10E000154
:10403800CD6FFC0ECE6F050E6EEC4BF03850D8B439
:10404800BCD0000E01012E6F640E2D6F38C01DF01C
:104058001E6A000E206E0A0E1F6EADEC4AF0300E7E
:104068001D240001C66F000E1E20C76F6FEC3FF0C5
:1040780038C017F0186A000E1A6E0A0E196E55EC41
:104088004CF0300E17240001C66F000E1820C76FC1
:104098006FEC3FF0050EC4EC4CF08FD0030E4818BF
:1040A800D8A48BD080863C0E0101526F070E396070
:1040B80025D0040E396019D00001FF51D8B415D0AD
:1040C800020EFF19D8A408D0890ECD6FFB0ECE6F53
:1040D800050E6EEC4BF06ED0E30E0001CD6FFC0EBA
:1040E800CE6F050E6EEC4BF065D0DC0E0001CD6F87
:1040F800FB0ECE6F050E6EEC4BF05CD0000E01018E
:104108002E6F220E2D6F24EC51F06AC1BFF06BC1E7
:10411800C0F0000E0001C26F640EC16F41EC4EF09A
:10412800300E0001BF25C66F000EC021C76F6FECAF
:104138003FF0000E0001C26F0A0EC16F6AC1BFF0E6
:104148006BC1C0F041EC4EF0BFC0BBF0C0C0BCF0CA
:10415800000E0001BE6F0A0EBD6F65EC4FF0300E09
:104168000001BB25C66F000EBC21C76F6FEC3FF086
:10417800000E0001C76F2E0EC66F6FEC3FF06AC1CC
:10418800BBF06BC1BCF0000E0001BE6F0A0EBD6F24
:1041980065EC4FF0300E0001BB25C66F000EBC2148
:1041A800C76F6FEC3FF0000E0001C76F410EC66F7E
:1041B8006FEC3FF0050EC4EC4CF0000E1C6E070EC1
:1041C80013EC51F001015251D8B402D05207120039
:1041D800809612000101B66F000E0101BC6F000E3F
:1041E800BB6F000EB16F000EB06F000EAF6F000E08
:1041F800AE6F17C1AAF118C1ABF119C1ACF11AC160
:10420800ADF10001FE51D8A413D0010E0101BD6F1C
:10421800030EBD6501D00CD0BD51010D230EF32452
:10422800D96E010EF420DA6E000EDF6EBD2BF0D7CA
:10423800020E01012319D8A411D03E50435D3F500E
:104248004459D8B00BD043C11DF044C11EF0000E34
:10425800206E0A0E1F6EDDEC50F00AD03EC01DF035
:104268003FC01EF0000E206E0A0E1F6EDDEC50F0EF
:104278001DC041F11EC042F1020E0001FE6104D0D2
:1042880041C10CF242C10DF2000E0101BD6F030ED7
:10429800BD6501D028D0BD51010D230EF324D96E80
:1042A800010EF420DA6E020EDE18D8A41AD0BB4B29
:1042B800BC2BBD51020D0C0EF324D96E020EF42056
:1042C800DA6EDE50B027DD50B123BD51020D6A0E03
:1042D800F324D96E010EF420DA6EDE50AE27DD50DD
:1042E800AF23BD2BD4D7B651D8A44DD0020E0001B0
:1042F800FF19D8B448D03FC1F9F040C1FAF0F91F0E
:10430800FA1FF94BFA2B40C01DF041C01EF0000EF9
:10431800206E0A0E1F6EDDEC50F00001F9511D24CD
:104328000101B76F0001FA511E200101B86FB8BF33
:1043380014D0B85103E1B705D8A00FD0B7C11DF00C
:10434800B8C11EF0000E206E040E1F6EADEC4AF0D0
:104358001D50010139271E5003D0B7513927B851D4
:104368003A233AAF04D0000E3A6F000E396F3ABFC5
:104378000AD0210E395D030E3A59D8A004D0030E95
:104388003A6F200E396F0101B651D8A46ED0020ED3
:104398000001FF19D8A469D001013CAF19D03CAF86
:1043A8000CD0F60E3B5DFF0E3C59D8B006D0050E7A
:1043B8003925396F000E3A211FD03BC11DF03CC191
:1043C8001EF0000E206E040E1F6EADEC4AF00AD0EF
:1043D8003BC11DF03CC11EF0000E206E020E1F6E88
:1043E800ADEC4AF01D1E1E1E1D4A1E2A0101395140
:1043F8001D24396F3A511E203A6F3CC01DF03DC054
:104408001EF0000E206E0A0E1F6EDDEC50F01D50DF
:104418000101395D1E503A59D8A002D03AAF23D0D5
:104428003CC01DF03DC01EF0000E206E0A0E1F6E2F
:10443800DDEC50F01DC039F11EC03AF1030E4818EA
:10444800D8A40ED0010178517911D8A43CBF08D066
:104458003C5104E10B0E3B5DD8A002D0010E04D004
:10446800000E010101D0000E466F3EC01DF03FC096
:104478001EF0000E206E0A0E1F6EDDEC50F00101DA
:1044880039511D5C3A511E58D8B00ED03EC01DF0AF
:104498003FC01EF0000E206E0A0E1F6EDDEC50F0BD
:1044A8001DC039F11EC03AF1AEC11DF0AFC11EF0FA
:1044B800000E206E0A0E1F6EDDEC50F01D1E1E1E33
:1044C8001D4A1E2A01013F511D24B96F40511E206B
:1044D800BA6FBAAF04D0000EBA6F000EB96F000100
:1044E800FF51D8A416D0FE51D8B40FD040C01DF04B
:1044F80041C01EF0000E206E0A0E1F6EDDEC50F05B
:104508001DC039F11EC03AF104D041C139F142C190
:104518003AF10101BB51BC11D8B41200B651D8B45C
:104528001DD0B9C1F9F0BAC1FAF00001F91FFA1F9C
:10453800F94BFA2B40C01DF041C01EF0000E206E52
:104548000A0E1F6EDDEC50F00001F9511D24010127
:10455800396F0001FA511E2001013A6F3ABF1FD08E
:104568003CC01DF03DC01EF0BBC11FF0BCC120F017
:10457800DDEC50F01DC0B2F11EC0B3F1B2C11DF0A8
:10458800B3C11EF0000E206E0A0E1F6EDDEC50F057
:104598001D500101395D1E503A59D8B024D04D2B19
:1045A800F10E906FFA0E916FC3EC4FF03CC01DF006
:1045B8003DC01EF0BBC11FF0BCC120F0DDEC50F0C7
:1045C8001DC0B2F11EC0B3F1B2C11DF0B3C11EF0DF
:1045D800000E206E0A0E1F6EDDEC50F01DC039F182
:1045E8001EC03AF103D0000E01014D6F010139518F
:1045F800B05DB151800A0001F96F01013A51800A9A
:104608000001F959D8B004D0B0C139F1B1C13AF1BB
:1046180039C1B4F13AC1B5F1F90E0101906FF60E46
:10462800916F3FC192F140C193F139C194F13AC100
:1046380095F1B9C196F1BAC197F1C3EC4FF0000EEC
:104648000101BD6FB4C11DF0B5C11EF0BBC11FF0A3
:10465800BCC120F0ADEC4AF01DC0A8F11EC0A9F104
:104668000101BD51010D230EF324D96E010EF42072
:10467800DA6E020EDE18D8A449D0BD51010DAA0E7B
:10468800F324D96E010EF420DA6EDF50D8A43ED0A0
:10469800BD51020D0C0EF324D96E020EF420DA6E11
:1046A800DE50A85DDE50A959D8A030D0BD51020D0A
:1046B8000C0EF324D96E020EF420DA6EBD51020DF1
:1046C8006A0EF324E16E010EF420E26EDECFE6FFFF
:1046D800DDCFE5FFBD51010DAA0EF324D96E010E01
:1046E800F420DA6E010EDF6EBB07D8A0BC07BD51FF
:1046F800020D6A0EF324D96E010EF420DA6EDE5034
:10470800B45FDD50B55B000EBD6F01D0BD2B040E4C
:10471800BD6104D0BB51BC11D8A494D7000EBD6FA5
:10472800BB51BC11D8B44FD0BD51010D230EF32499
:10473800D96E010EF420DA6E020EDE18D8A43BD032
:10474800BD51010DAA0EF324D96E010EF420DA6EC4
:10475800DF50D8A430D0B4C11DF0B5C11EF0BBC124
:104768001FF0BCC120F0ADEC4AF00101BD51020DB3
:104778006A0EF324D96E010EF420DA6E1DC0DEFF36
:104788001EC0DDFFBD51010DAA0EF324D96E010E26
:10479800F420DA6E010EDF6EBB07D8A0BC07BD514E
:1047A800020D6A0EF324D96E010EF420DA6EDE5083
:1047B800B45FDD50B55BBD2B040EBD6104D0BB51A9
:1047C800BC11D8A4B1D7000EBD6F030EBD6501D0D2
:1047D8004AD0840E906FFA0E916FBDC192F1936B1F
:1047E800BD51010D230EF324D96E010EF420DA6EAB
:1047F800DF500001F96FF9510101946F956BBD51BC
:10480800020D6A0EF324D96E010EF420DA6EDECFA3
:10481800BFF0DDCFC0F0000E0001C26F0A0EC16FFD
:1048280041EC4EF0BFC096F1C0C097F10101BD51F7
:10483800020D6A0EF324D96E010EF420DA6EDECF73
:10484800BBF0DDCFBCF0000E0001BE6F0A0EBD6FDD
:1048580065EC4FF0BBC098F1BCC099F1C3EC4FF0C8
:104868000101BD2BB2D7FD0E906FFA0E916FC3EC0C
:104878004FF012000101C46F7DEC38F00101C36FE5
:104888003C0E526F80864404D8B43BA802D081A263
:104898003B985051D8A412D0050EC419D8A40ED0F4
:1048A8004551D8A40BD0010E506F33C013F134C05A
:1048B80014F135C015F136C016F180D15005D8A4D1
:1048C80021D0D00E13250001F96F070E0101142124
:1048D8000001FA6F000E010115210001FB6F000EA7
:1048E800010116210001FC6F3350F95D3450FA596B
:1048F8003550FB593650FC59D8B004D0020E01018E
:10490800506F25D001015005D8A40BD0070EC4194B
:10491800D8A407D0000E506F000E456F4EEC1CF067
:104928004DD10E0E01015019D8A413D0020EC4198E
:10493800D8A40FD04F51D8B40CD0000E726F000E0F
:10494800736F800E746F3F0E756F000E4F6F010E00
:1049580085D0010E506584D0020EC419D8B408D091
:10496800030EC419D8B404D0060EC419D8A478D03C
:104978004551D8A475D04F51D8A45CD061D02BC173
:1049880017F02CC118F0000E1A6E640E196E030E83
:104998001C6EE70E1B6EC45117EC4EF017C02BF1BE
:1049A80018C02CF1FCD001015051FCEC3DF0BBC00B
:1049B80027F1BCC028F127C117F028C118F0010160
:1049C80050514A0D440EF326000EF422900EF324A3
:1049D800F66EE80EF420F76EF86A000EF822090069
:1049E800F5CF19F00A00F5CF1AF050514A0D460ECE
:1049F800F326000EF422900EF324F66EE80EF4204F
:104A0800F76EF86A000EF8220900F5CF1BF00A00CD
:104A1800F5CF1CF0C45117EC4EF017C027F118C0A1
:104A280028F127C125F028C126F0010150516FEC6B
:104A38003CF0B5D0010150510E0AD8B4A0D7B3D775
:104A480050C11EF0DC0E1F6E020E206EC3C121F095
:104A5800C4511DEC4CF00101506FA1D0456FAED090
:104A6800010E50659FD0050EC419D8A49BD045519E
:104A7800D8A498D04F51D8B465D0000E4F6F0E0E01
:104A88005019D8A48CD029512B1904E12A512C197A
:104A9800D8B485D029C117F02AC118F0196A1A6A42
:104AA800000E20EC40F017C08EF018C08FF019C02F
:104AB80090F01AC091F072C192F073C193F074C172
:104AC80094F075C195F0DFEC35F08EC00FF18FC012
:104AD80010F190C011F191C012F12BC117F02CC147
:104AE80018F0196A1A6A000E20EC40F017C08EF010
:104AF80018C08FF019C090F01AC091F00FC192F051
:104B080010C193F011C194F012C195F0DFEC35F0AB
:104B18008EC072F18FC073F190C074F191C075F1BD
:104B28002BC117F02CC118F0196A1A6A000E20EC74
:104B380040F017C05EF118C05FF119C060F11AC0EB
:104B480061F12DD0010E01014F6F0E0E5019D8A43E
:104B580013D05EC1B1F05FC1B2F060C1B3F061C102
:104B6800B4F025EC46F0B1C02BF1B2C02CF12BC14A
:104B780029F12CC12AF113D0170E01015019D8A41C
:104B88000ED0000E506F000E4F6F000E3B6E000EE1
:104B9800376E000E386E9EEC39F04EEC1CF0010EAC
:104BA80001015CD7070EC419D8A408D0000E456FC0
:104BB800000E186E0A0E176E87EC4FF001014505BE
:104BC800D8B403D05005D8A42FD15005D8A425D0E7
:104BD800000E1C6E000E13EC51F0040E1C6E010E3C
:104BE80013EC51F0700E0001CD6FFB0ECE6F020E6C
:104BF8006EEC4BF0000E0001CD6FFC0ECE6F040E74
:104C08006EEC4BF0100E1C6E060E13EC51F0000EFD
:104C18001C6E070E13EC51F004D1010150514A0DDE
:104C2800070EF326000EF422900EF3240001F36F12
:104C3800E80EF420F46F020EF56FCFEC47F0EBD0DE
:104C480024EC51F001014F51D8B456D047EC50F044
:104C5800000E01012E6F280E2D6F2BC1BFF02CC145
:104C6800C0F0000E0001C26F640EC16F41EC4EF03F
:104C7800300E0001BF25C66F000EC021C76F6FEC54
:104C88003FF0000E0001BE6F640EBD6F2BC1BBF07C
:104C98002CC1BCF065EC4FF0BBC0BFF0BCC0C0F08D
:104CA800000E0001C26F0A0EC16F41EC4EF0300ECB
:104CB8000001BF25C66F000EC021C76F6FEC3FF023
:104CC800000E0001C76F2E0EC66F6FEC3FF02BC1B0
:104CD800BBF02CC1BCF0000E0001BE6F0A0EBD6F08
:104CE80065EC4FF0300E0001BB25C66F000EBC21ED
:104CF800C76F6FEC3FF071D0000E01012E6F280EC8
:104D08002D6F5EC1B1F05FC1B2F060C1B3F061C197
:104D1800B4F025EC46F0B1C0BFF0B2C0C0F0000E50
:104D28000001C26F640EC16F41EC4EF0300E0001FD
:104D3800BF25C66F000EC021C76F6FEC3FF0000E95
:104D48000001BE6F640EBD6F5EC1B1F05FC1B2F00D
:104D580060C1B3F061C1B4F025EC46F0B1C0BBF05E
:104D6800B2C0BCF065EC4FF0BBC0BFF0BCC0C0F037
:104D7800000E0001C26F0A0EC16F41EC4EF0300EFA
:104D88000001BF25C66F000EC021C76F6FEC3FF052
:104D9800000E0001C76F2E0EC66F6FEC3FF05EC1AC
:104DA800B1F05FC1B2F060C1B3F061C1B4F025ECFD
:104DB80046F0B1C0BBF0B2C0BCF0000E0001BE6F3F
:104DC8000A0EBD6F65EC4FF0300E0001BB25C66FB3
:104DD800000EBC21C76F6FEC3FF0000E01012E6F73
:104DE800580E2D6F000E0001C76F410EC66F6FEC95
:104DF8003FF0040EC4EC4CF014D0010150513FECCC
:104E080031F0EFC0F3F0F0C0F4F0040E0001F56FDC
:104E1800CFEC47F006D0010150510E0AD8B410D794
:104E2800ECD7020E0101456F33C01BF134C01CF1F1
:104E380035C01DF136C01EF1000E4E6FC4C1F1F130
:104E4800000E396E12000001756F000175AF24D194
:104E5800756D7551800A120FD8A0A3D0000E206E70
:104E68000A0E1F6E000E1A6E640E196E7551176EBB
:104E7800186A17BE180655EC4CF017C01DF018C07C
:104E88001EF0ADEC4AF0D8901D361E36D8901D366F
:104E98001E36240E1D26000E1E22140E1D24F66E2C
:104EA800E80E1E20F76EF86A000EF8220900F5CF0A
:104EB80029F00900F5CF2AF00900F5CF2BF00A00F8
:104EC800F5CF2CF0000E206E640E1F6E0001755198
:104ED8001D6E1E6A1DBE1E06ADEC4AF0D8901D362A
:104EE8001E36D8901D361E36480E1D26000E1E2270
:104EF800140E1D24F66EE80E1E20F76EF86A000EDA
:104F0800F8220900F5CF25F00900F5CF26F00900B1
:104F1800F5CF27F00A00F5CF28F096EC2FF025C042
:104F280071F026C072F027C073F028C074F071C009
:104F380025F072C026F073C027F074C028F0000E68
:104F48001A6E0A0E196E00017551176E186A17BE8F
:104F5800180655EC4CF0D89017361836D8901736F6
:104F68001836140E1724F66EE80E1820F76EF86A35
:104F7800000EF8220900F5CF29F00900F5CF2AF034
:104F88000900F5CF2BF00A00F5CF2CF096EC2FF0A6
:104F980025C06DF026C06EF027C06FF028C070F0F5
:104FA800120000017551800A750FD8A05CD0000E60
:104FB800206E0A0E1F6E75511D6E1E6A1DBE1E06DE
:104FC800ADEC4AF0D8901D361E36D8901D361E36E8
:104FD800240E1D26000E1E22140E1D24F66EE80E49
:104FE8001E20F76EF86A000EF8220900F5CF25F0AA
:104FF8000900F5CF26F00900F5CF27F00A00F5CF14
:1050080028F0000E1A6E0A0E196E00017551176EFF
:10501800186A17BE180655EC4CF0D8901736183693
:10502800D89017361836140E1724F66EE80E182086
:10503800F76EF86A000EF8220900F5CF29F009008A
:10504800F5CF2AF00900F5CF2BF00A00F5CF2CF0A8
:1050580096EC2FF025C06DF026C06EF027C06FF0DB
:1050680028C070F0120000017551040D140EF324CD
:10507800F66EE80EF420F76EF86A000EF8220900C2
:10508800F5CF6DF00900F5CF6EF00900F5CF6FF0A0
:105098000A00F5CF70F012007551800A120FD8A0DF
:1050A800A3D0000E206E0A0E1F6E000E1A6E640E3C
:1050B800196E7551176E186A17BE180655EC4CF024
:1050C80017C01DF018C01EF0ADEC4AF0D8901D3680
:1050D8001E36D8901D361E36240E1D26000E1E22A2
:1050E800E00E1D24F66EE70E1E20F76EF86A000E1D
:1050F800F8220900F5CF29F00900F5CF2AF00900B8
:10510800F5CF2BF00A00F5CF2CF0000E206E640EC0
:105118001F6E000175511D6E1E6A1DBE1E06ADEC88
:105128004AF0D8901D361E36D8901D361E36480EC9
:105138001D26000E1E22E00E1D24F66EE70E1E2010
:10514800F76EF86A000EF8220900F5CF25F009007D
:10515800F5CF26F00900F5CF27F00A00F5CF28F0A3
:1051680096EC2FF025C071F026C072F027C073F0BE
:1051780028C074F071C025F072C026F073C027F003
:1051880074C028F0000E1A6E0A0E196E00017551CF
:10519800176E186A17BE180655EC4CF0D8901736DB
:1051A8001836D89017361836E00E1724F66EE70E24
:1051B8001820F76EF86A000EF8220900F5CF29F0DA
:1051C8000900F5CF2AF00900F5CF2BF00A00F5CF3A
:1051D8002CF096EC2FF025C06DF026C06EF027C09D
:1051E8006FF028C070F0120000017551800A750F29
:1051F800D8A05CD0000E206E0A0E1F6E75511D6E71
:105208001E6A1DBE1E06ADEC4AF0D8901D361E362D
:10521800D8901D361E36240E1D26000E1E22E00EC6
:105228001D24F66EE70E1E20F76EF86A000EF822AF
:105238000900F5CF25F00900F5CF26F00900F5CFD4
:1052480027F00A00F5CF28F0000E1A6E0A0E196E24
:1052580000017551176E186A17BE180655EC4CF008
:10526800D89017361836D89017361836E00E172407
:10527800F66EE70E1820F76EF86A000EF82209009D
:10528800F5CF29F00900F5CF2AF00900F5CF2BF06A
:105298000A00F5CF2CF096EC2FF025C06DF026C053
:1052A8006EF027C06FF028C070F012000001755131
:1052B800040DE00EF324F66EE70EF420F76EF86A9C
:1052C800000EF8220900F5CF6DF00900F5CF6EF059
:1052D8000900F5CF6FF00A00F5CF70F01200000159
:1052E800A951AA11D8B40CD0A9C0D9FFAAC0DAFF15
:1052F800A7C0DEFFA8C0DDFF03D00001A74BA82B85
:10530800A7C0D9FFA8C0DAFFDF50AB6FAB51CAEC1A
:1053180050F0D8B0F2D7000E0001AC6F2D0EAB19CB
:10532800D8A403D0010EAC6F04D02B0EAB19D8A4AF
:1053380002D0A74BA82B000EAB6F000EAE6F000E6D
:10534800AF6F000EB06F000EB16F000EAD6FACB94D
:105358000AD0A7C0D9FFA8C0DAFF2E0EDE18D8A43D
:1053680002D0AC893ED0A7C0D9FFA8C0DAFFDF5071
:1053780076EC51F0D8A038D00001AC83090EAB19F7
:10538800D8B42DD0ACB9AD07AB2BAEC017F0AFC0B9
:1053980018F0B0C019F0B1C01AF00A0E1B6E000E5A
:1053A8001C6E000E1D6E000E1E6EECEC4DF017C04C
:1053B800AEF018C0AFF019C0B0F01AC0B1F0A7C075
:1053C800D9FFA8C0DAFFDF50316ED00E3126315038
:1053D8000001AE27000EAF23B023B12302D0ACA941
:1053E800AD2BA74BA82BB3D7000E0001AB6FA7C0FE
:1053F800D9FFA8C0DAFF650EDE18D8B408D0A7C058
:10540800D9FFA8C0DAFF450EDE18D8A462D0A74B92
:10541800A82BA7C0D9FFA8C0DAFF2D0EDE18D8A484
:1054280002D0AC8708D0A7C0D9FFA8C0DAFF2B0EDE
:10543800DE18D8A402D0A74BA82BA7C0D9FFA8C0B4
:10544800DAFF300EDE18D8B4F6D7A7C0D9FFA8C047
:10545800DAFFDF5076EC51F0D8A038D0A7C0D9FFDA
:10546800A8C0DAFFDF50D00F0001AB6FA74BA82B05
:10547800A7C0D9FFA8C0DAFFDF5076EC51F0D8A05A
:1054880025D0A7C0D9FFA8C0DAFFDF50316E0001D0
:10549800AB510A0DF3503124D00FAB6FA74BA82B9B
:1054A800A7C0D9FFA8C0DAFFDF5076EC51F0D8A02A
:1054B8000DD0A7C0D9FFA8C0DAFFDF50316E0001B8
:1054C800AB510A0DF3503124D00FAB6F0001ACB7CC
:1054D800AB6DAB51AD27A951AA11D8A4ACA308D084
:1054E800A9C0D9FFAAC0DAFFA7C0DEFFA8C0DDFFA8
:1054F800AEC017F0AFC018F0B0C019F0B1C01AF0C4
:10550800010E20EC40F017C0AEF018C0AFF019C083
:10551800B0F01AC0B1F00001AE51AF11B011B11125
:10552800D8A409D0000EA76F000EA86F000EA96FAF
:10553800000EAA6F1200ADAF6DD0AD6D1DD0AEC01C
:105548008EF0AFC08FF0B0C090F0B1C091F0F90EFE
:10555800926F020E936F150E946F500E956FDFECDD
:1055680035F08EC0AEF08FC0AFF090C0B0F091C0F3
:10557800B1F0F60E0001AD27AD51800A760FD8A024
:105588001DD0DDD7AEC08EF0AFC08FF0B0C090F0A8
:10559800B1C091F0000E926F000E936F200E946FC1
:1055A800410E956FDFEC35F08EC0AEF08FC0AFF0D6
:1055B80090C0B0F091C0B1F00001AD07AD51D8A4D2
:1055C800E1D7AEC025F0AFC026F0B0C027F0B1C01B
:1055D80028F0000E296E000E2A6E800E2B6E000E2B
:1055E8002C6E93EC42F0D8B084D00001ACA109D065
:1055F800000EA76F000EA86F800EA96F800EAA6F0D
:105608001200000EA76F000EA86F800EA96F000E83
:10561800AA6F1200AD51800A7F0FD8B01ED069D092
:10562800AEC025F0AFC026F0B0C027F0B1C028F05A
:10563800F90E296E020E2A6E150E2B6E500E2C6E68
:1056480096EC2FF025C0AEF026C0AFF027C0B0F022
:1056580028C0B1F0F60E0001AD270A0EAD61E0D703
:105668001CD0AEC025F0AFC026F0B0C027F0B1C046
:1056780028F0000E296E000E2A6E200E2B6E410EA9
:105688002C6E96EC2FF025C0AEF026C0AFF027C0E8
:10569800B0F028C0B1F00001AD07AD51D8A4E1D7F2
:1056A800FF0E256EFF0E266E7F0E276E7F0E286E6C
:1056B800AEC029F0AFC02AF0B0C02BF0B1C02CF0BA
:1056C80093EC42F0D8B015D00001ACA109D0000E7F
:1056D800A76F000EA86F800EA96F800EAA6F120028
:1056E800000EA76F000EA86F800EA96F000EAA6F9C
:1056F80012000001ACA112D0AEC017F0AFC018F074
:10570800B0C019F0B1C01AF060EC50F017C0AEF09C
:1057180018C0AFF019C0B0F01AC0B1F0AEC0A7F011
:10572800AFC0A8F0B0C0A9F0B1C0AAF01200000E36
:105738000101406F000E3F6F000E3E6F000E3D6F7F
:10574800000E3C6F000E3B6F000EC86F020EC8655E
:1057580001D09DD03FC117F040C118F0196A1A6AEC
:10576800000E20EC40F017C025F018C026F019C034
:1057780027F01AC028F00101C851040D5E0EF32469
:10578800D96E010EF420DA6EDECF29F0DECF2AF0D2
:10579800DECF2BF0DECF2CF093EC42F0D8B017D050
:1057A8000101C851040D5E0EF324D96E010EF420D8
:1057B800DA6EDECFB1F0DECFB2F0DECFB3F0DECFFF
:1057C800B4F025EC46F0B1C03FF1B2C040F10101A0
:1057D800C851040D5E0EF324D96E010EF420DA6E62
:1057E800DECF25F0DECF26F0DECF27F0DECF28F0A3
:1057F8003DC117F03EC118F0000E18BEFF0E196E1D
:105808001A6E010E20EC40F017C029F018C02AF0DB
:1058180019C02BF01AC02CF093EC42F0D8B017D076
:105828000101C851040D5E0EF324D96E010EF42057
:10583800DA6EDECFB1F0DECFB2F0DECFB3F0DECF7E
:10584800B4F025EC46F0B1C03DF1B2C03EF1010123
:10585800C851040D5E0EF324D96E010EF420DA6EE1
:10586800DECFB1F0DECFB2F0DECFB3F0DECFB4F0F2
:1058780025EC46F001013B510001B12501013B6FC8
:105888003C510001B22101013C6FC82B5FD70001D8
:10589800FF51D8B465D1020EFE6162D1000EEEEC64
:1058A80020F0030E01014D6111D040C01DF041C030
:1058B8001EF0000E206E140E1F6EDDEC50F001017C
:1058C8003F511D5C40511E58D8B023D03B86000E76
:1058D800C86F030EC86501D00CD0C851010D230E46
:1058E800F324D96E010EF420DA6E000EDF6EC82B99
:1058F800F0D7000E0001746F020E736F000E766F02
:10590800010E756F000E8CEC50F0000E01014D6F0A
:1059180005D00001FE51D8A485EC51F0020E4818BC
:10592800D8B404D0030E4818D8A406D06AC1BBF076
:105938006BC1BCF0B2EC43F07AC11DF07BC11EF024
:10594800FF0E206EF60E1F6EDDEC50F01DC0C6F186
:105958001EC0C7F1F90E0101906FEF0E916F400E56
:105968004824926F936B000E93233BC094F1956B80
:10597800C6C196F1C7C197F13DC198F13EC199F1F1
:1059880038C09AF19B6B2FC19CF130C19DF14DC17C
:105998009EF19F6B3FC1BFF040C1C0F0000E0001F7
:1059A800C26F0A0EC16F41EC4EF0BFC0A0F1C0C07B
:1059B800A1F13FC1BBF040C1BCF0000E0001BE6FB9
:1059C8000A0EBD6F65EC4FF0BBC0A2F1BCC0A3F1DD
:1059D80039C1BFF03AC1C0F0000E0001C26F0A0E13
:1059E800C16F41EC4EF0BFC0A4F1C0C0A5F139C1F0
:1059F800BBF03AC1BCF0000E0001BE6F0A0EBD6FCD
:105A080065EC4FF0BBC0A6F1BCC0A7F1C3EC4FF0EA
:105A180066C17EF067C17FF068C180F069C181F01E
:105A280062C17AF063C17BF064C17CF065C17DF02E
:105A3800E5EC32F07AC0BEF17BC0BFF17CC0C0F1AA
:105A48007DC0C1F15EC17EF05FC17FF060C180F0B2
:105A580061C181F0BEC17AF0BFC17BF0C0C17CF0EA
:105A6800C1C17DF0E5EC32F07AC08EF07BC08FF0DA
:105A78007CC090F07DC091F0000E0001926F000E86
:105A8800936F200E946F410E956FDFEC35F08EC04A
:105A9800C2F18FC0C3F190C0C4F191C0C5F1D20E5C
:105AA8000101906FF50E916F5EC18EF05FC18FF0AE
:105AB80060C190F061C191F0000E0001926F000E7C
:105AC800936F200E946F410E956FDFEC35F08EC00A
:105AD80092F18FC093F190C094F191C095F162C199
