:020000040000FA
:040000008BEF01F091
:100008005582D9CF09F0DACF0AF022D0AECF79F1F4
:10001800010135513411331104E1040E325DD8A0C9
:1000280002D0000E786F320E7819D8B47807CC0E4B
:100038007825D96EDA6A030EDA2279C1DFFF782BC8
:10004800000E326F000E336F000E346F000E356FE6
:100058009EBADCD79EA885D09DB822D082D0AC505D
:100068000109AC6E2BD0000E7425D96EDA6A020E27
:10007800DA22DF5096EC58F0AC50FE0B0110AC6E53
:100088000101742B1BD0000E7425D96EDA6A020E9A
:10009800DA22DF507EEC58F0AC50FE0B0110EFD79F
:1000A80001011051000AD8B4DAD7010AD8B4D7D759
:1000B800030AD8B4D8D7010AD8B4E5D7000E7425F6
:1000C800D96EDA6A020EDA22DF50AD6E742B7351E4
:1000D8007419D8B404D0320E7419D8A403D09D98DA
:1000E800000E746F000E326F000E336F000E346F07
:1000F800000E356F36D071B4D0A20BD05104D8A4FD
:1001080008D074CF79F101017951D8A404D0FF0047
:1001180002D074CF79F1D08279C173FF320E010118
:100128007719D8B47707080E7919D8A405D077516C
:10013800D8B402D0770715D00D0E7919D8B404D0E9
:100148000A0E7919D8A404D0000E796F7729756F33
:10015800700E7725D96EDA6A020EDA2279C1DFFFCE
:10016800772BA4AACCD0C7D701019905D8A45ED013
:100178004D50D8A404D0030E5118D8B42BD02C0E4F
:100188004C5D010E4D59D8B002D0899801D08988AC
:10019800898A4C51076E4D51086E4C4B4D2B910E70
:1001A800075C010E0858D8A010D082B20AD0890E78
:1001B8004C5D130E4D59D8A008D0000E4D6F000E9F
:1001C80003D0010E4D6F900E4C6F000E4F6F000E56
:1001D8004E6F7ED02C0E4E5D010E4F59D8B003D015
:1001E8008988899A02D08988898A4E51076E4F5129
:1001F800086E4E4B4F2B910E075C010E0858D8A085
:1002080010D082A20AD0890E4E5D130E4F59D8A085
:1002180008D0000E4F6F000E03D0010E4F6F900EE6
:100228004E6F000E4D6F000E4C6F52D0020E991992
:10023800D8A44ED04D50D8A404D0030E5118D8B429
:1002480023D0580E4C5D020E4D59D8B002D0899873
:1002580001D08988898A4C51076E4D51086E4C4BE4
:100268004D2BBD0E075C020E0858D8A0AED782A24F
:1002780007D0890E4C5D130E4D59D8B09ED7A5D71F
:10028800020E4D6FBC0EA0D7580E4E5D020E4F5990
:10029800D8B003D08988899A02D08988898A4E5132
:1002A800076E4F51086E4E4B4F2BBD0E075C020E6A
:1002B8000858D8A0B6D782B207D0890E4E5D130E63
:1002C8004F59D8B0A6D7ADD7020E4F6FBC0EA8D7DE
:1002D800010E3627000E372338233923010E322723
:1002E800000E3323342335236A076A29D8A406D09D
:1002F80067C167FF0A0E6A6F010E696F7E907EB054
:1003080033D70AC0DAFF09C0D9FF55921100BCEFF4
:100318004CF0E7EF0EF0250ECA19D8B431D095513C
:10032800D96EDA6A020ED926DE50DE10D8B413D0A0
:100338009551D96EDA6A020ED92602D8E7EF0EF087
:100348000500FA6EDE50FD6EDE50FE6EF850FF6E50
:10035800FA50CA5112009551D96EDA6ADECF99F077
:10036800DDCF9AF099C0D9FF9AC0DAFFCAC0DFFF83
:100378009551D96EDA6ADE2A000EDD22E7EF0EF01B
:10038800000EC76F000EC66F000ECC6F000ECB6F4D
:100398000DD00001CB8708D00001CB8105D000012A
:1003A800CC8702D00001CB85964B972B96C0F6FFE1
:1003B80097C0F7FFF86A0F0EF76403D00800F550EE
:1003C80005D0F6CFE9FFF7CFEAFFEF50200AD8B4FF
:1003D800E3D7030AD8B4E3D70E0AD8B4DAD71D0A8C
:1003E800D8B4E0D70001CBB7CB9596C0F6FF97C03D
:1003F800F7FFF86A0F0EF76403D00800F55005D030
:10040800F6CFE9FFF7CFEAFFEF50DCEC59F0D8A0C0
:100418004AD0000E0001C76F000EC66FC6C00FF0AD
:10042800C7C010F0000E126E0A0E116E40EC59F0A3
:100438000FC0C6F010C0C7F0D00E0001996FFF0EB4
:100448009A6F96C0F6FF97C0F7FFF86A0F0EF76429
:1004580003D00800F55005D0F6CFE9FFF7CFEAFF43
:10046800EF5000019B6F9C6B99519B279A519C23DD
:100478009B51C6279C51C723964B972B96C0F6FFD6
:1004880097C0F7FFF86A0F0EF76403D00800F5501D
:1004980005D0F6CFE9FFF7CFEAFFEF50DCEC59F0D3
:1004A800D8A023D0BBD796C0F6FF97C0F7FFF86A4D
:1004B8000F0EF76403D00800F55005D0F6CFE9FF1A
:1004C800F7CFEAFFEF502A0AD8A40FD000019851BD
:1004D800D96EDA6A020EDF26DF5CD96EDA6ADECF01
:1004E800C6F0DECFC7F0964B972B96C0F6FF97C0A5
:1004F800F7FFF86A0F0EF76403D00800F55005D02F
:10050800F6CFE9FFF7CFEAFFEF502E0AD8A47AD04A
:100518000001CC8D964B972B96C0F6FF97C0F7FF3E
:10052800F86A0F0EF76403D00800F55005D0F6CF2F
:10053800E9FFF7CFEAFFEF502A0AD8A418D0000144
:100548009851D96EDA6A020EDF26DF5CD96EDA6A54
:10055800DECFC8F0DECFC9F0C9AF06D0000EC96F34
:10056800000EC86FCC9DCC89964B972B98D1000E66
:100578000001C96F000EC86F30D0C8C00FF0C9C0E5
:1005880010F0000E126E0A0E116E40EC59F00FC0FA
:10059800C8F010C0C9F0D00E0001996FFF0E9A6F15
:1005A80096C0F6FF97C0F7FFF86A0F0EF76403D0FE
:1005B8000800F55005D0F6CFE9FFF7CFEAFFEF5076
:1005C80000019B6F9C6B99519B279A519C239B51CF
:1005D800C8279C51C923964B972B96C0F6FF97C006
:1005E800F7FFF86A0F0EF76403D00800F55005D03E
:1005F800F6CFE9FFF7CFEAFFEF50DCEC59F0D8A0CF
:100608004ED1BBD7000E0001C96F000EC86FCC8950
:1006180046D1CC857ED1CB8D7CD1CB8BCB8F79D17C
:100628009851D96EDA6A020EDF26DF5CD96EDA6A73
:10063800DECFB4F0DECFB5F0B451B511D8A404D0F4
:10064800370EB46FFC0EB56F000EB76F000EB66FA5
:1006580003D00001B64BB72BB651B425996FB751EB
:10066800B5219A6F99C0F6FF9AC0F7FFF86A0F0E86
:10067800F76403D00800F55005D0F6CFE9FFF7CFAF
:10068800EAFFEF500009D8A4E4D70001C851C91106
:10069800D8B40ED0B651C85DC951800A996FB75108
:1006A800800A9959D8B004D0C8C0B6F0C9C0B7F00C
:1006B800C651B65DC751B759D8B005D0B651C65F57
:1006C800B751C75B04D0000EC76F000EC66FCBA72B
:1006D8002FD08BD09551D96EDA6A020ED926DE500A
:1006E800DE10D8B412D09551D96EDA6A020ED92626
:1006F80001D81ED00500FA6EDE50FD6EDE50FE6E8B
:10070800F850FF6EFA50200E12009551D96EDA6A31
:10071800DECF99F0DDCF9AF099C0D9FF9AC0DAFF01
:10072800200EDF6E9551D96EDA6ADE2A000EDD22C0
:100738000001C607D8A0C707C629CCE1C729D8B485
:1007480054D0C8D79551D96EDA6A020ED926DE5030
:10075800DE10D8B425D09551D96EDA6A020ED926A2
:1007680001D81AD00500FA6EDE50FD6EDE50FE6E1E
:10077800F850FF6EFA50B4C0F6FFB5C0F7FFF86A3C
:100788000F0EF76403D00800F55005D0F6CFE9FF47
:10079800F7CFEAFFEF5012000001B44BB52B25D07C
:1007A800B4C0F6FFB5C0F7FFF86A9551D96EDA6A9A
:1007B800DECF99F0DDCF9AF099C0D9FF9AC0DAFF61
:1007C8000F0EF76403D00800F55005D0F6CFE9FF07
:1007D800F7CFEAFFEF50DF6E0001B44BB52B955110
:1007E800D96EDA6ADE2A000EDD22B607D8A0B7076E
:1007F800B629A8E1B729D8A4A5D7CBB730D0E7EF59
:100808000EF09551D96EDA6A020ED926DE50DE1046
:10081800D8B412D09551D96EDA6A020ED92601D809
:100828001ED00500FA6EDE50FD6EDE50FE6EF850EA
:10083800FF6EFA50200E12009551D96EDA6ADECF9B
:1008480099F0DDCF9AF099C0D9FF9AC0DAFF200E4F
:10085800DF6E9551D96EDA6ADE2A000EDD220001BC
:10086800C607D8A0C707C629CCE1C729D8B4E7EF7F
:100878000EF0C7D79851D96EDA6ADF50DF2ADF2A1F
:10088800D96EDA6ADF50CA6FCA0EB46FB56B000E44
:10089800B76F010EB66FF9D6C00ECB133AD0000170
:1008A8009651996F97519A6F964B972B99C0F6FF6F
:1008B8009AC0F7FFF86A0F0EF76403D00800F550E6
:1008C80005D0F6CFE9FFF7CFEAFFEF500001CA6F76
:1008D800CA51000AD8B404EF0FF0580AD8B49DD60C
:1008E8003B0AD8B4C7D7070AD8B413D0020AD8B479
:1008F80090D60F0AD8B40DD0060AD8B48CD61C0AE4
:10090800D8B48ED6060AD8B4C7D70D0AD8B486D6B6
:10091800BBD7070ECC15D8B410EF0AF0CCA904D079
:10092800000EC96F060EC86F9851D96EDA6ADFCF0C
:1009380099F0040EDF269951D96EDA6ADECFBEF03F
:10094800DECFBFF0DECFC0F0DECFC1F0C1AF14D034
:10095800BEC00BF0BFC00CF0C0C00DF0C1C00EF09F
:10096800AEEC58F00BC0BEF00CC0BFF00DC0C0F02C
:100978000EC0C1F0030ECB13000EB96F000EB86F96
:10098800BEC00BF0BFC00CF0C0C00DF0C1C00EF06F
:10099800000E0F6E000E106E000E116E000E126E1D
:1009A80019EC52F0D8B083D00001C035C135820FA0
:1009B800B86FB96BFF0EB923B807D8A0B907B8C08C
:1009C8000FF0B9C010F0000E126E030E116E40EC5D
:1009D80059F00FC0B8F010C0B9F0B8C084F0B9C071
:1009E80085F0000E0001876F0A0E866FA2EC52F0A8
:1009F80084C0B8F085C0B9F0B9AF03D0B807D8A0A3
:100A0800B907B851000832EC2FF08CC0BAF08DC08D
:100A1800BBF08EC0BCF08FC0BDF0BAC019F0BBC02F
:100A28001AF0BCC01BF0BDC01CF0BEC01DF0BFC09A
:100A38001EF0C0C01FF0C1C020F094EC34F019C003
:100A4800BAF01AC0BBF01BC0BCF01CC0BDF0BAC0E5
:100A580019F0BBC01AF0BCC01BF0BDC01CF0000EE2
:100A68001D6E000E1E6E800E1F6E3F0E206EFAEC7D
:100A78004DF0D8B005D00001B807D8A0B90717D0F5
:100A8800BAC019F0BBC01AF0BCC01BF0BDC01CF046
:100A9800000E1D6E000E1E6E200E1F6E410E206E83
:100AA800FAEC4DF0D8A003D00001B84BB92B0001E7
:100AB800C9BF06D0C95121E10D0EC85DD8B01DD0FF
:100AC800BEC060F0BFC061F0C0C062F0C1C063F0DA
:100AD800C85182EC3BF032C064F033C065F034C0DA
:100AE80066F035C067F02AEC36F060C0BEF061C031
:100AF800BFF062C0C0F063C0C1F0B9BF06D0B95141
:100B08002FE10A0EB85DD8B02BD0BEC00BF0BFC025
:100B18000CF0C0C00DF0C1C00EF0000E0F6E000E3C
:100B2800106E000E116E000E126E19EC52F0D8B055
:100B380062D0BEC070F0BFC071F0C0C072F0C1C05A
:100B480073F08FEC4FF07051711172117311D8B4AA
:100B5800B9BF51D0B95104E1020EB85DD8A04BD04D
:100B6800BAC019F0BBC01AF0BCC01BF0BDC01CF065
:100B78005F0E1D6E700E1E6E890E1F6E400E206E6B
:100B8800FAEC4DF0D8B003D00001F70E02D0000106
:100B9800F80EB827FF0EB923B85132EC2FF08CC0ED
:100BA800BAF08DC0BBF08EC0BCF08FC0BDF0BEC027
:100BB8000BF0BFC00CF0C0C00DF0C1C00EF0BAC041
:100BC8000FF0BBC010F0BCC011F0BDC012F058EC63
:100BD8004BF00BC0C2F00CC0C3F00DC0C4F00EC087
:100BE800C5F0000E0001BE6F000EBF6F000EC06F93
:100BF800000EC16F3BD0BEC070F0BFC071F0C0C066
:100C080072F0C1C073F08FEC4FF070C0C2F071C0C9
:100C1800C3F072C0C4F073C0C5F0BEC070F0BFC0EE
:100C280071F0C0C072F0C1C073F0C2C00BF0C3C095
:100C38000CF0C4C00DF0C5C00EF0000E76EC46F006
:100C48000BC074F00CC075F00DC076F00EC077F0D4
:100C58009DEC56F070C0BEF071C0BFF072C0C0F01D
:100C680073C0C1F0000EB96F000EB86F010ECA6FE5
:100C78000A0ECA19D8B418D0CA51040D9A0EF32412
:100C8800F66EF00EF420F76E0900F550C25D09000B
:100C9800F550C3590900F550C4590900F550C55914
:100CA800D8A002D0CA2BE4D7CA51C825996F000E24
:100CB800C9219A6FB8519927B9519A239951C65F9A
:100CC8009A51C75BCCB704D0C851C911D8B403D066
:100CD800C607D8A0C707CBC099F0030E9917D8B498
:100CE80003D0C607D8A0C707CBA5B5D0CBC099F00D
:100CF800030E9917D8B442D09551D96EDA6A020E0C
:100D0800D926DE50DE10D8B41CD0CBB104D0000EEA
:100D1800A36F2B0E03D0000EA36F2D0EA26F95515B
:100D2800D96EDA6A020ED92601D828D00500FA6EE3
:100D3800DE50FD6EDE50FE6EF850FF6EFA50A25186
:100D48001200CBB104D0000EA56F2B0E03D0000EFD
:100D5800A56F2D0EA46F9551D96EDA6ADECF99F082
:100D6800DDCF9AF099C0D9FF9AC0DAFFA4C0DFFF9F
:100D78009551D96EDA6ADE2A000EDD220001CBA178
:100D880061D09551D96EDA6A020ED926DE50DE108E
:100D9800D8B412D09551D96EDA6A020ED92601D884
:100DA80051D00500FA6EDE50FD6EDE50FE6EF85032
:100DB800FF6EFA50200E12009551D96EDA6ADECF16
:100DC80099F0DDCF9AF099C0D9FF9AC0DAFF200ECA
:100DD800DF6E9551D96EDA6ADE2A000EDD2232D036
:100DE8009551D96EDA6A020ED926DE50DE10D8B4D3
:100DF80012D09551D96EDA6A020ED92601D81ED0C2
:100E08000500FA6EDE50FD6EDE50FE6EF850FF6E85
:100E1800FA50300E12009551D96EDA6ADECF99F089
:100E2800DDCF9AF099C0D9FF9AC0DAFF300EDF6E95
:100E38009551D96EDA6ADE2A000EDD220001C60756
:100E4800D8A0C7070001C7BF1FD1C751C9E1C60550
:100E5800D8A01AD1C5D7CBA733D039D09551D96EE0
:100E6800DA6A020ED926DE50DE10D8B412D09551B7
:100E7800D96EDA6A020ED92601D81ED00500FA6E9C
:100E8800DE50FD6EDE50FE6EF850FF6EFA50200EFA
:100E980012009551D96EDA6ADECF99F0DDCF9AF05B
:100EA80099C0D9FF9AC0DAFF200EDF6E9551D96E2E
:100EB800DA6ADE2A000EDD220001C607D8A0C707BD
:100EC800C7BF05D0C751CAE1C605D8B0C7D7CBC080
:100ED80099F0030E9917D8B43DD09551D96EDA6AB6
:100EE800020ED926DE50DE10D8B41CD0CBB104D007
:100EF800000EA76F2B0E03D0000EA76F2D0EA66F46
:100F08009551D96EDA6A020ED92601D8BDD00500EE
:100F1800FA6EDE50FD6EDE50FE6EF850FF6EFA502F
:100F2800A6511200CBB104D0000EA96F2B0E03D02E
:100F3800000EA96F2D0EA86F9551D96EDA6ADECF13
:100F480099F0DDCF9AF099C0D9FF9AC0DAFFA8C00E
:100F5800DFFF94D0CBA198D09551D96EDA6A020EF2
:100F6800D926DE50DE10D8B412D09551D96EDA6A7F
:100F7800020ED92601D888D00500FA6EDE50FD6E23
:100F8800DE50FE6EF850FF6EFA50200E120095519A
:100F9800D96EDA6ADECF99F0DDCF9AF099C0D9FF21
:100FA8009AC0DAFF200E69D0C2C00BF0C3C00CF0A3
:100FB800C4C00DF0C5C00EF0CA51040D9A0EF3243A
:100FC800F66EF00EF420F76E0900F5CF0FF0090069
:100FD800F5CF10F00900F5CF11F00A00F5CF12F0A7
:100FE80027EC53F00BC0BAF00CC0BBF00DC0BCF03E
:100FF8000EC0BDF0BAC018F0BBC019F0BCC01AF0E2
:10100800BDC01BF00A0E1C6E000E1D6E000E1E6E7B
:10101800000E1F6E39EC55F018C0BAF019C0BBF0BD
:101028001AC0BCF01BC0BDF09551D96EDA6A020E29
:10103800D926DE50DE10D8B413D09551D96EDA6AAD
:10104800020ED92601D820D00500FA6EDE50FD6EBA
:10105800DE50FE6EF850FF6EFA50BA51300F120093
:101068009551D96EDA6ADECF99F0DDCF9AF099C042
:10107800D9FF9AC0DAFFBA51300FDF6E9551D96E99
:10108800DA6ADE2A000EDD220001CA07CA29D8B4AE
:1010980033D08AD79551D96EDA6A020ED926DE5036
:1010A800DE10D8B412D09551D96EDA6A020ED9265C
:1010B80001D81ED00500FA6EDE50FD6EDE50FE6EC1
:1010C800F850FF6EFA50300E12009551D96EDA6A58
:1010D800DECF99F0DDCF9AF099C0D9FF9AC0DAFF38
:1010E800300EDF6E9551D96EDA6ADE2A000EDD22E7
:1010F8000001B807D8A0B907B9BF05D0B951CAE1EE
:10110800B805D8B0C7D7C9BF09D0C95104E1090E7D
:10111800C85DD8A003D0080ECA6F02D0C8C0CAF0F4
:10112800CA51C85F000EC95BCA51D8A402D0CCA767
:101138002ED09551D96EDA6A020ED926DE50DE100D
:10114800D8B412D09551D96EDA6A020ED92601D8D0
:101158001ED00500FA6EDE50FD6EDE50FE6EF850B1
:10116800FF6EFA502E0E12009551D96EDA6ADECF54
:1011780099F0DDCF9AF099C0D9FF9AC0DAFF2E0E08
:10118800DF6E9551D96EDA6ADE2A000EDD22000183
:10119800CA5132EC2FF08CC09DF08DC09EF08EC0ED
:1011A8009FF08FC0A0F0BEC01DF0BFC01EF0C0C031
:1011B8001FF0C1C020F09DC019F09EC01AF09FC05A
:1011C8001BF0A0C01CF094EC34F019C070F01AC0E9
:1011D80071F01BC072F01CC073F08FEC4FF070C040
:1011E800C2F071C0C3F072C0C4F073C0C5F097D02C
:1011F800C2C00BF0C3C00CF0C4C00DF0C5C00EF0E7
:10120800CA51040D9A0EF324F66EF00EF420F76E10
:101218000900F5CF0FF00900F5CF10F00900F5CF60
:1012280011F00A00F5CF12F027EC53F00BC0BAF01A
:101238000CC0BBF00DC0BCF00EC0BDF0BAC018F0B9
:10124800BBC019F0BCC01AF0BDC01BF00A0E1C6E62
:10125800000E1D6E000E1E6E000E1F6E39EC55F04E
:1012680018C0BAF019C0BBF01AC0BCF01BC0BDF062
:101278009551D96EDA6A020ED926DE50DE10D8B43E
:1012880013D09551D96EDA6A020ED92601D820D02A
:101298000500FA6EDE50FD6EDE50FE6EF850FF6EF1
:1012A800FA50BA51300F12009551D96EDA6ADECF72
:1012B80099F0DDCF9AF099C0D9FF9AC0DAFFBA51F8
:1012C800300FDF6E9551D96EDA6ADE2A000EDD2204
:1012D800C2C018F0C3C019F0C4C01AF0C5C01BF0D2
:1012E8000001CA51040D9A0EF324F66EF00EF42094
:1012F800F76E0900F5CF1CF00900F5CF1DF00900C5
:10130800F5CF1EF00A00F5CF1FF039EC55F018C0E4
:10131800C2F019C0C3F01AC0C4F01BC0C5F0CA0798
:10132800CA29D8B433D064D79551D96EDA6A020E77
:10133800D926DE50DE10D8B412D09551D96EDA6AAB
:10134800020ED92601D81ED00500FA6EDE50FD6EB9
:10135800DE50FE6EF850FF6EFA50300E12009551B6
:10136800D96EDA6ADECF99F0DDCF9AF099C0D9FF4D
:101378009AC0DAFF300EDF6E9551D96EDA6ADE2A2E
:10138800000EDD220001C807D8A0C907C851C9113D
:10139800D8A4CAD7CBB7C7BFE7EF0EF0C75104E14F
:1013A800C605D8A0E7EF0EF09551D96EDA6A020E9D
:1013B800D926DE50DE10D8B412D09551D96EDA6A2B
:1013C800020ED92601D81ED00500FA6EDE50FD6E39
:1013D800DE50FE6EF850FF6EFA50200E1200955146
:1013E800D96EDA6ADECF99F0DDCF9AF099C0D9FFCD
:1013F8009AC0DAFF200EDF6E9551D96EDA6ADE2ABE
:10140800000EDD220001C607D8A0C707C651C711C4
:10141800D8B4E7EF0EF0C8D7CBC099F0C00E991733
:10142800D8A41ED09851D96EDA6ADF50DF2ADF2A95
:10143800D96EDA6ADECFC2F0DDCFC3F0000EC3BFCB
:10144800FF0EC46FC56FC5AF1DD0030ECB13C51FEC
:10145800C41FC31FC26D000EC323C423C52312D0EB
:101468009851D96EDA6ADF50DF2ADF2AD96EDA6A34
:10147800DECF99F0DDCF9AF099C0C2F09AC0C3F0E0
:10148800C46BC56BC851C911D8A463D0C251C3116C
:10149800C411C511D8A45DD0C84BC92B5AD0010EB0
:1014A800CA6F0A0ECA19D8B462D0CA51040D9A0E6E
:1014B800F324F66EF00EF420F76E0900F550C25DC5
:1014C8000900F550C3590900F550C4590900F550F1
:1014D800C559D8A04CD0CA2BE4D7010ECA6F080E44
:1014E800CA19D8B444D0CA51040D060EF324F66EB6
:1014F800E40EF420F76E0900F550C25D0900F550BE
:10150800C3590900F550C4590900F550C559D8A068
:101518002ED0CA2BE4D7010ECA6F0B0ECA19D8B445
:1015280026D0CA51040DDA0EF324F66EE30EF42029
:10153800F76E0900F550C25D0900F550C35909005E
:10154800F550C4590900F550C559D8A010D0CA2B78
:10155800E4D7CB51C00B000AD8B4A1D7400AD8B4FD
:10156800DAD7C00AD8B4B9D7400AD8B498D7CA517C
:10157800996F9A6BC851995D9A51800A9B6FC951AE
:10158800800A9B59D8B003D0C8C0CAF010D0CA513D
:10159800996F9A6B9951C85DC951800A9B6F9A518E
:1015A800800A9B59D8B003D0CAC0C8F0C96BC651CD
:1015B800C711D8B409D0CBC099F0030E9917D8B485
:1015C80003D0C607D8A0C707CCAD13D0C651C85D95
:1015D800C951800A996FC751800A9959D8B005D066
:1015E800C851C65FC951C75B04D0000EC76F000E53
:1015F800C66FC40E996F080E9A6FCBC09BF0CCC013
:101608009CF099519B179A519C17400E9B190CE11D
:10161800080E9C19D8A408D0C651C711D8B428D030
:10162800C607D8A0C70724D0C00E996F080E9A6FB6
:10163800CBC09BF0CCC09CF099519B179A519C173A
:10164800800E9B1915E1080E9C19D8A411D0C7BFAC
:101658000BD0C75104E1030EC65DD8A005D0FE0E1D
:10166800C627FF0EC72304D0000EC76F000EC66F33
:10167800CA51996F9A6BC651995D9A51800A9B6FAE
:10168800C751800A9B59D8B005D0CA51C65F000E11
:10169800C75B04D0000EC76F000EC66FCBA515D16F
:1016A800CBC099F0030E9917D8B428D09551D96EAC
:1016B800DA6A020ED926DE50DE10D8B412D095515F
:1016C800D96EDA6A020ED92601D8C7D00500FA6E9B
:1016D800DE50FD6EDE50FE6EF850FF6EFA502D0E95
:1016E80012009551D96EDA6ADECF99F0DDCF9AF003
:1016F80099C0D9FF9AC0DAFF2D0E29D0CBA129D0E5
:101708009551D96EDA6A020ED926DE50DE10D8B4A9
:1017180012D09551D96EDA6A020ED92601D89DD019
:101728000500FA6EDE50FD6EDE50FE6EF850FF6E5C
:10173800FA50200E12009551D96EDA6ADECF99F070
:10174800DDCF9AF099C0D9FF9AC0DAFF200EDF6E7C
:101758007ED0C00E996F080E9A6FCBC09BF0CCC09C
:101768009CF099519B179A519C17800E9B1975E113
:10177800080E9C19D8A471D09551D96EDA6A020E58
:10178800D926DE50DE10D8B412D09551D96EDA6A57
:10179800020ED92601D81ED00500FA6EDE50FD6E65
:1017A800DE50FE6EF850FF6EFA50300E1200955162
:1017B800D96EDA6ADECF99F0DDCF9AF099C0D9FFF9
:1017C8009AC0DAFF300EDF6E9551D96EDA6ADE2ADA
:1017D800000EDD2200019551D96EDA6A020ED92673
:1017E800DE50DE10D8B41CD0CBBB04D0000EAB6FDB
:1017F800780E03D0000EAB6F580EAA6F9551D96EB4
:10180800DA6A020ED92601D828D00500FA6EDE5011
:10181800FD6EDE50FE6EF850FF6EFA50AA511200AF
:10182800CBBB04D0000EAD6F780E03D0000EAD6FA9
:10183800580EAC6F9551D96EDA6ADECF99F0DDCFCC
:101848009AF099C0D9FF9AC0DAFFACC0DFFF955172
:10185800D96EDA6ADE2A000EDD220001C651C711F0
:10186800D8B46AD29551D96EDA6A020ED926DE50FA
:10187800DE10D8B412D09551D96EDA6A020ED92684
:1018880001D81ED00500FA6EDE50FD6EDE50FE6EE9
:10189800F850FF6EFA50300E12009551D96EDA6A80
:1018A800DECF99F0DDCF9AF099C0D9FF9AC0DAFF60
:1018B800300EDF6E9551D96EDA6ADE2A000EDD220F
:1018C8000001C607D8A0C707C9D7C651C711D8A4F1
:1018D800CBB736D09551D96EDA6A020ED926DE50CA
:1018E800DE10D8B412D09551D96EDA6A020ED92614
:1018F80001D81ED00500FA6EDE50FD6EDE50FE6E79
:10190800F850FF6EFA50200E12009551D96EDA6A1F
:10191800DECF99F0DDCF9AF099C0D9FF9AC0DAFFEF
:10192800200EDF6E9551D96EDA6ADE2A000EDD22AE
:101938000001C607D8A0C707C651C711D8A4CAD77F
:10194800CBC099F0030E9917D8B428D09551D96E09
:10195800DA6A020ED926DE50DE10D8B412D09551BC
:10196800D96EDA6A020ED92601D848D00500FA6E77
:10197800DE50FD6EDE50FE6EF850FF6EFA502D0EF2
:1019880012009551D96EDA6ADECF99F0DDCF9AF060
:1019980099C0D9FF9AC0DAFF2D0E29D0CBA12ED03D
:1019A8009551D96EDA6A020ED926DE50DE10D8B407
:1019B80012D09551D96EDA6A020ED92601D81ED0F6
:1019C8000500FA6EDE50FD6EDE50FE6EF850FF6EBA
:1019D800FA50200E12009551D96EDA6ADECF99F0CE
:1019E800DDCF9AF099C0D9FF9AC0DAFF200EDF6EDA
:1019F8009551D96EDA6ADE2A000EDD22C00E00018A
:101A0800996F080E9A6FCBC09BF0CCC09CF099518F
:101A18009B179A519C17400E9B192DE1080E9C1993
:101A2800D8A429D09551D96EDA6A020ED926DE508B
:101A3800DE10D8B412D09551D96EDA6A020ED926C2
:101A480001D87AD10500FA6EDE50FD6EDE50FE6ECA
:101A5800F850FF6EFA50300E12009551D96EDA6ABE
:101A6800DECF99F0DDCF9AF099C0D9FF9AC0DAFF9E
:101A7800300EDF6E5BD1C00E996F080E9A6FCBC027
:101A88009BF0CCC09CF099519B179A519C17800EE3
:101A98009B1903E1080E9C19D8A44ED19551D96E13
:101AA800DA6A020ED926DE50DE10D8B412D095516B
:101AB800D96EDA6A020ED92601D81ED00500FA6E50
:101AC800DE50FD6EDE50FE6EF850FF6EFA50300E9E
:101AD80012009551D96EDA6ADECF99F0DDCF9AF00F
:101AE80099C0D9FF9AC0DAFF300EDF6E9551D96ED2
:101AF800DA6ADE2A000EDD2200019551D96EDA6A13
:101B0800020ED926DE50DE10D8B41CD0CBBB04D0D0
:101B1800000EAF6F780E03D0000EAF6F580EAE6F89
:101B28009551D96EDA6A020ED92601D805D1050079
:101B3800FA6EDE50FD6EDE50FE6EF850FF6EFA5003
:101B4800AE511200CBBB04D0000EB16F780E03D09B
:101B5800000EB16F580EB06F9551D96EDA6ADECFAC
:101B680099F0DDCF9AF099C0D9FF9AC0DAFFB0C0DA
:101B7800DFFFDCD0C8C099F0C9C09AF0D890993777
:101B88009A37D89099379A379A0E9925F66EF00EAB
:101B98009A21F76E0900F5CF0FF00900F5CF10F084
:101BA8000900F5CF11F00A00F5CF12F0C2C00BF012
:101BB800C3C00CF0C4C00DF0C5C00EF027EC53F044
:101BC8000BC018F00CC019F00DC01AF00EC01BF0B5
:101BD8000A0E1C6E000E1D6E000E1E6E000E1F6E8D
:101BE80039EC55F0185069D0C2C00BF0C3C00CF0E6
:101BF800C4C00DF0C5C00EF0C8C099F0C9C09AF0B5
:101C0800D89099379A37D89099379A37060E9925E8
:101C1800F66EE40E9A21F76E0900F5CF0FF0090071
:101C2800F5CF10F00900F5CF11F00A00F5CF12F04A
:101C380027EC53F00B500F0BA16FCBBB04D0850ED4
:101C4800B26FFA0E03D0740EB26FFA0EB36FA151D1
:101C5800B225996F000EB3219A6F99C0F6FF9AC00A
:101C6800F7FF0800F5CFCAF039D0C2C00BF0C3C0E7
:101C78000CF0C4C00DF0C5C00EF0C8C099F0C9C0C2
:101C88009AF0D89099379A37D89099379A37DA0EC8
:101C98009925F66EE30E9A21F76E0900F5CF0FF03D
:101CA8000900F5CF10F00900F5CF11F00A00F5CFC3
:101CB80012F027EC53F00B50070B300FCA6F0ED001
:101CC800CB51C00B000AD8B455D7400AD8B4CDD7E9
:101CD800C00AD8B489D7400AD8B44CD79551D96E20
:101CE800DA6A020ED926DE50DE10D8B412D0955129
:101CF800D96EDA6A020ED92601D81ED00500FA6E0E
:101D0800DE50FD6EDE50FE6EF850FF6EFA50CA517E
:101D180012009551D96EDA6ADECF99F0DDCF9AF0CC
:101D280099C0D9FF9AC0DAFFCAC0DFFF9551D96EB2
:101D3800DA6ADE2A000EDD220001C807D8A0C9072A
:101D4800C829BEE1C929D8A4BBD7CBB7C7BF3BD0E8
:101D5800C75103E1C605D8A036D09551D96EDA6AC5
:101D6800020ED926DE50DE10D8B412D09551D96EA5
:101D7800DA6A020ED92601D81ED00500FA6EDE50A6
:101D8800FD6EDE50FE6EF850FF6EFA50200E120007
:101D98009551D96EDA6ADECF99F0DDCF9AF099C005
:101DA800D9FF9AC0DAFF200EDF6E9551D96EDA6A34
:101DB800DE2A000EDD220001C607D8A0C707C651DB
:101DC800C711D8A4CAD700019651996F97519A6F35
:101DD800964B972B99C0F6FF9AC0F7FFF86A0F0E3B
:101DE800F76403D00800F55005D0F6CFE9FFF7CF28
:101DF800EAFFEF500001CA6FCA51D8A48FEF01F073
:101E0800000E966F000E956F1200000E0201E66F2D
:101E1800000EE76F050EE56F000ED76F000EC76F57
:101E2800000EDE6F000EE06F000ED86F000ED96F47
:101E3800000EC86F010ED66F010EC66F22EEC9F0F4
:101E48000B0EDE6AE806FDE2000EDA6F000EDB6FAD
:101E5800000EDC6F000EDD6F000EC26F000EC36F48
:101E6800000EC46F000EC56F020EDF6F92EC4DF0CE
:101E7800E8EC3DF0DAC10FF0DBC110F0000E126E95
:101E88000A0E116E40EC59F00FC050F110C051F11C
:101E9800898668EC53F04CEC58F0D0823CEC44F066
:101EA8000201EB6F020EEB19D8A402D0800E4D6E22
:101EB8004B50D8A4B5EC47F001017551D8A4DBEC20
:101EC80019F05F51D8B41DD035513411331104E1E4
:101ED800070E325DD8A015D01051D8A404D0240E16
:101EE800AC6E900E03D0640EAC6ED00EAB6E8A8AC8
:101EF800000E0C6E010E0B6E6DEC57F09D88000EF7
:101F08005F6F7451D8B4ACA201D08A9A86EC51F0B4
:101F1800A30E946E00F000F08250210B0201EB6FCB
:101F2800EB39E8461F0B0101CD6F0201EB51EB25A0
:101F3800020B0101CD11CD6F8150010BCD11CD6F79
:101F4800820E946E070ECD19D8A404D0CC51CD19A9
:101F5800D8B403D0CD513EEC24F0010E6E651DD0EF
:101F68001E0E6E611AD0880E2E25BE6F130E2F21FD
:101F7800BF6F000E3021C06F000E3121C16F365186
:101F8800BE5D3751BF593851C0593951C159D8B0C0
:101F980004D06D51D8B44BEC4CF06E51D8A430D06D
:101FA800060ECD19D8A42CD05050D8B429D002018F
:101FB800D551D8A425D0020E0001FF6121D0030E0F
:101FC80001019719D8A41CD05050FF0A030B506E7A
:101FD800D60E4D16000E4C6E000E606F0001FF0508
:101FE800D8A40AD0000E316EA80E306E50C032F060
:101FF800336A000EE5EC57F0050E0201D56F0BD0E1
:102008000201D551D8B407D0070E0101CD19D8A4C3
:1020180002D00201D50781A402D0010E01D0000E22
:102028000201D619D8A403D0E651D8B4FCD0C82BE5
:10203800C8050101BE6F060EBE6104D00201E6515B
:10204800D8B4F4D0000E81B4010E0201D66FD65177
:10205800D8B47CD0DDD06351D8B405D0000E636FFE
:10206800010E516E02D0010E636FFA0E0001EB6F84
:10207800FA0EEC6F63C1EDF0EE6BC5EC58F075D05D
:10208800010E636F72D00201E651D8A40AD0010E86
:10209800E66F36C1C2F237C1C3F238C1C4F239C1E2
:1020A800C5F2E651D8B461D0DC0EC2250101BE6F7D
:1020B800050E0201C3210101BF6F000E0201C421F8
:1020C8000101C06F000E0201C5210101C16F365127
:1020D800BE5D3751BF593851C0593951C159D8B06F
:1020E80044D0030E5118D8A440D0010E516E4B5065
:1020F800D8A402D00F0E4C6E020E0201E66F35D046
:10210800020E5018D8A404D0010E506E000E606F55
:102118000001FF05D8A429D05050D8B426D0000E0D
:10212800316EA80E306E50C032F0336A000EE5EC06
:1021380057F01BD0030E5118D8A417D0010E516EBA
:102148004B50D8A412D00F0E4C6E0FD001019751EE
:10215800010AD8B480D7030AD8B492D7010AD8B4F0
:1021680092D7070AD8B4CCD7E5D701019605D8B4D9
:102178004DA802D081A24D983C0E716F898653D02C
:10218800000E636F010E516E4ED0020E0201E61969
:10219800D8B423D05004D8A402D0020E05D0020E21
:1021A8005018D8A402D0010E506ED60E4D16000E4F
:1021B8004C6E000E0101606F0001FF05D8A40DD020
:1021C8005050D8B40AD0000E316EA80E306E50C0F0
:1021D80032F0336A000EE5EC57F0000E0201E66FAC
:1021E80022D05004D8A402D0020E506E0001FF0580
:1021F800D8A419D05050D8B416D0000E316EA80EFD
:10220800306E50C032F0336A000EE5EC57F00BD058
:1022180001019751020AD8B4B3D7010AD8B4B5D787
:10222800070AD8B4DED7000E0201C86F010196056F
:10223800D8B481A208D081A206D0010E516E100E2A
:102248004D6E000E706F050E5118D8A425D0395167
:10225800381106E1E90E365D030E3759D8A01CD0B7
:10226800000E316E010E306E000E336E000E326EAF
:102278000001FF51E5EC57F0F60E0001EB6FF70E89
:10228800EC6FC5EC58F0000E0101366F000E376F89
:10229800000E386F000E396F5104D8A4E9D0000E33
:1022A800BD6E82848A98000E3A6F02EC55F00201E6
:1022B800E96FE905D8A40ED04D9A4D90000E4C6EEA
:1022C800000E01017A6F0201DF51D8A4D1D0010EAE
:1022D800DF6FCED0020EE919D8B404D0020EE91986
:1022E800D8A4C3D04D50D8A4C0D04C50D8A4BDD089
:1022F80001016351D8B4B9D0020E7A19D8A4AFD06D
:102308000201E72BE7050101BE6F190EBE65B0D0CB
:10231800000E0201DE6F3CEC51F0020E0001EB6F83
:10232800F90EEC6F5CC1EDF05DC1EEF0D8C1EFF0D5
:10233800D9C1F0F0C5EC58F00101D8515C5DD95114
:102348005D59D8B00BD05CC10FF05DC110F0000E24
:10235800126E0A0E116E40EC59F00AD0D8C10FF077
:10236800D9C110F0000E126E0A0E116E40EC59F031
:102378000FC05AF110C05BF1010E0001FF6549D092
:10238800000E316E020E306E5AC132F05BC133F06E
:10239800FF51E5EC57F05AC10BF05BC10CF00D6A28
:1023A8000E6A000E76EC46F00BC032F00CC033F02B
:1023B8000DC034F00EC035F0000E366E000E376ECC
:1023C800200E386E410E396E06EC39F032C0E1F25B
:1023D80033C0E2F234C0E3F235C0E4F2AA0E0001E1
:1023E800EB6FF70EEC6FE1C2EDF0E2C2EEF0E3C284
:1023F800EFF0E4C2F0F0C5EC58F0060E516E000E96
:102408000101366F000E376F000E386F000E396FFE
:102418002FD05CC10FF05DC110F0000E126E0A0ED5
:10242800116E40EC59F00FC012F110C013F15AC1EF
:1024380087F15BC188F1010E01013A6F020E516EFE
:102448001E0E0201E06F3C0E0101716F8986E00EDD
:102458000001EB6FFA0EEC6FC5EC58F009D0020ED4
:102468007A6F000E0201E76F03D0000E01017A6F48
:10247800060E5118D8A40CD001013951381106E1C3
:10248800E90E365D030E3759D8A002D0010E516E01
:10249800020E5118D8A40DD1070EBC64F2D0180E44
:1024A800BC60EFD002EC55F00201E96FE905D8A451
:1024B80021D001017A05D8A41BD00201E72BE7053A
:1024C8000101BE6F190EBE65DCD0010E516EC60E3D
:1024D8000001EB6FFA0EEC6FC5EC58F0010EFF65CA
:1024E800D0D0050E516EE90E0101366F030E63D090
:1024F800010EAED0030EE919D8A4AFD0030E010126
:102508007A19D8A4A3D00201DE05D8A49FD0E72B5E
:10251800E7050101BE6F190EBE65B3D04D50D8A4B2
:10252800B0D04C50D8A4ADD0010E0001FF6549D001
:10253800000E316E030E306E5AC132F05BC133F0BB
:10254800FF51E5EC57F05AC10BF05BC10CF00D6A76
:102558000E6A000E76EC46F00BC032F00CC033F079
:102568000DC034F00EC035F0000E366E000E376E1A
:10257800200E386E410E396E06EC39F032C0E1F2A9
:1025880033C0E2F234C0E3F235C0E4F2D00E000109
:10259800EB6FF70EEC6FE1C2EDF0E2C2EEF0E3C2D2
:1025A800EFF0E4C2F0F0C5EC58F0070E516E000EE3
:1025B8000101366F000E376F000E386F000E396F4D
:1025C80060D05AC112F15BC113F154EC43F0000919
:1025D800D8A43AD0020E01013A6F000E886F000E9F
:1025E800876F010EA1EC27F08A880201E069000ECE
:1025F800DE6F030E516E000E0101706F000E366F14
:10260800000E376F000E386F000E396F4E50D8B479
:102618000ED00201DF51D8B40AD0DAC226F1DBC2EB
:1026280027F1DCC228F1DDC229F1000EDF6F0101BC
:102638006E51D8B4B3EC1FF0ED0E0001EB6FFA0E3B
:10264800EC6FC5EC58F01DD04D861BD0030E010170
:102658007A6F000E0201E76F14D0E051D8A40ED0B3
:10266800140E516E030ED86F000EBD6E8294780E54
:102678000001EB6FF90EEC6FC5EC58F0000E01018C
:102688007A6FE60EBC6415D0F10EBC64FDD7F10E6E
:10269800BC640FD0F90EBC600CD002EC55F00201FE
:1026A800E96F040EE919D8A402D0010E01D0000E7A
:1026B800DE6F140E5118D8A408D00201D851D8A43E
:1026C80004D0020E516E8284E069070E5118D8A416
:1026D80016D001013951381106E1E90E365D030EB5
:1026E8003759D8A00CD0000E0201DE6F020E516ED1
:1026F800270E0001EB6FFA0EEC6FC5EC58F0030ED5
:102708005118D8A46FD0070EBC646CD0180EBC60EA
:1027180069D002EC55F00201E96FE905D8B403D09D
:10272800E951D8A422D001017A05D8A41CD002010D
:10273800E72BE7050101BE6F190EBE6553D08A98D5
:10274800010E516ED30E0001EB6FFA0EEC6FC5EC63
:1027580058F068EC53F0010E0001FF6502D0050E39
:1027680029D0000E33D0010E35D0020EE919D8A4B5
:1027780036D0020E01017A19D8A42BD00201E72B1A
:10278800E7050101BE6F190EBE652CD08A98020EAE
:10279800516E2F0E0001EB6FFA0EEC6FC5EC58F07E
:1027A80068EC53F0000E0201DE6F010E0001FF65B8
:1027B8000CD0080E516EE90E0101366F030E376F0B
:1027C800000E386F000E396F0DD0010E01013A6FFF
:1027D80009D0020E7A6F000E0201E76F03D0000ED7
:1027E80001017A6F080E5118D8A426D00101395179
:1027F800381106E1E90E365D030E3759D8A01CD012
:10280800000E316E040E306E000E336E000E326E06
:102818000001FF51E5EC57F01C0E0001EB6FF80EBC
:10282800EC6FC5EC58F0000E0101366F000E376FE3
:10283800000E386F000E396FABA202D0AB98AB8890
:1028480071A202D071987188D6CFEBF23C0ED76492
:1028580039D101017A51D8B404D0030E5118D8B433
:1028680031D1000ED76E000ED66EE5EC56F0020E92
:102878005118D8A404D00201E029D8A4E007140E06
:102888005118D8A404D00201D851D8A4D8070101FE
:102898006051D8B43DD0D2C10FF0D3C110F0000EB2
:1028A800126E3C0E116E40EC59F001014651BE6F9C
:1028B8004751BF6F464B472B0F50BE5D1050BF5955
:1028C800D8A02AD0010E516E000E606F000E476F1F
:1028D800000E466F4D86000E0201EB6F030EEB658E
:1028E80001D00AD03A0EEB25D96EDA6A010EDA2247
:1028F800000EDF6EEB2BF2D7000E316E020E306E3B
:10290800000E336E200E326E000EE5EC57F004D048
:10291800000E476F000E466F4C50D8A44C066F51FE
:10292800800A490FD8A04DA401D04D944DC0BEF1E6
:10293800210EBE17D8B41CD0020E0001FF6118D0BA
:1029480054EC43F00009D8A413D04D904D9A640E6E
:102958000001EB6FF80EEC6FC5EC58F0000E316E0D
:10296800020E306E4DC032F0336A000EE5EC57F0BF
:102978000201E551D8B44DB21BD04D82010E516E03
:10298800200E0001EB6FF90EEC6FC5EC58F0000E4D
:102998000201EB6F030EEB6501D00DD03A0EEB256B
:1029A800D96EDA6A010EDA22000EDF6EEB2BF2D74F
:1029B800E551D8A4E50701016F51800A3F0FD8A05F
:1029C8001BD04D84010E516ECA0E0001EB6FF90E3B
:1029D800EC6FC5EC58F0000E0201EB6F030EEB65CF
:1029E80001D00AD03A0EEB25D96EDA6A010EDA2246
:1029F800000EDF6EEB2BF2D74DA620D04D96020EBF
:102A08005018D8A40CD04C50D8A407D05C0E0001A4
:102A1800EB6FF90EEC6FC5EC58F04D8A0BD04C50AB
:102A2800D8A407D0850E0001EB6FF80EEC6FC5EC4B
:102A380058F04D80010E516E3C0E4C6EB3EC1FF0F9
:102A48000201C607C629D8A40ED05050D8B402D067
:102A5800010E04D04E50D8B403D0030E0101666FA6
:102A6800010E0201C66F5050D8A42CD0000E0101EF
:102A7800576F000E566F0201D951D8A4D907020E1C
:102A88000001FF611FD00201D951D8A41BD0000E4C
:102A9800A1EC27F00001FF05D8B4FAEC59F0020EBA
:102AA8005118D8B404D0030E5118D8A406D087C141
:102AB8007AF088C17BF0D0EC48F0020E0201D96FA1
:102AC8000A0EE56F01016651D8B424D0020E000148
:102AD800FF6120D012D0DDC137F0545056EC49F0D8
:102AE80017D0DCC137F04F5056EC49F011D093C1E4
:102AF80037F04E504BEC56F00BD001016651010AED
:102B0800D8B4E9D7030AD8B4ECD7010AD8B4EFD7B8
:102B1800000E666F01017851D8B4B7EF19F035513E
:102B28003411331105E1040E325DD8A0B7EF19F066
:102B38009A0E0B6E030E0C6ECC0E0D6E030E0E6EFF
:102B480078C10FF0106AC9EC55F078C176F1000E23
:102B58000101786F9A0E9A6F030E9B6F76C19CF1F4
:102B68001DEC31F0030E01010B19D8B4FFD006D1CA
:102B78005450D8B437D0DD510019D8A433D05450AC
:102B8800160D0D0EF324D96E030EF420DA6EDE5006
:102B9800021928E1DE500319D8A424D008C17CF01A
:102BA80009C17DF054C07EF07B0E00017F6F010EDD
:102BB800806F29EC2DF00201EB6FEB51D8B402D0F5
:102BC8000A0EE56F4F50D8B404D0010EC76F020E3D
:102BD80006D04BEC41F04E50D8B4C5D3030E0101DA
:102BE800666FC1D30201C751D8B46CD04F50D8B466
:102BF80069D00101DC510019D8A464D04F50160DDA
:102C08000D0EF324D96E030EF420DA6EDE5002198D
:102C180059E1DE500319D8A455D008C17CF009C188
:102C28007DF04FC07EF0C90E00017F6F020E806FED
:102C380029EC2DF0000E0201EB6F020EEB6501D0BE
:102C480037D0EB51040D7B0EF324D96E010EF4201E
:102C5800DA6EDECF70F0DECF71F0DECF72F0DECF4D
:102C680073F0EB51040DC90EF324D96E020EF42053
:102C7800DA6EDECF74F0DECF75F0DECF76F0DECF21
:102C880077F09DEC56F00201EB51040D7B0EF32416
:102C9800D96E010EF420DA6E000170C0DEFF71C03B
:102CA800DEFF72C0DEFF73C0DEFF0201EB2BC5D76B
:102CB8000A0EE56F000EC76F4BEC41F04E50D8A4DA
:102CC8008DD751D34E50D8B44ED30101935100192A
:102CD800D8A449D34E50160D100EF324D96E030E06
:102CE800F420DA6EDE50021948E1DE500319D8A448
:102CF8003AD308C17CF009C17DF04EC07EF0A0EC4B
:102D080050F07CC0DAF27DC0DBF27EC0DCF27FC01E
:102D1800DDF20A0E0201E56F020EDF19D8A408D011
:102D2800DAC226F1DBC227F1DCC228F1DDC229F1C3
:102D38004E50D8B418D3DAC270F0DBC271F0DCC2DE
:102D480072F0DDC273F026C174F027C175F028C196
:102D580076F029C177F09DEC56F070C02AF171C069
:102D68002BF172C02CF173C02DF1FDD20151030A71
:102D7800D8B4FED6070AD8B4FBD6F5D2020E0B1982
:102D8800D8B4BDD0CAD00001FF5101010019D8A4A0
:102D9800EAD2D8EC49F00201E86FE829D8B4E3D2C6
:102DA800E85121EC54F0DFD2010E00651ED0050E6B
:102DB80000611BD002510311D8B408D0035106E1B9
:102DC800050E025DD8B002D0030E0DD0035104E108
:102DD800810E025DD8A009D0035107E1850E025D7E
:102DE800D8B003D0020E0201D76F0A0E01010019F4
:102DF800D8A412D0A80E02190311D8A40DD04F0ED2
:102E080006190AE1490E0719D8A406D04B50D8A4D0
:102E180003D0010E4B6EA7D20051D8B406D00001E2
:102E2800FF5101010019D8A49ED2D8EC49F0020143
:102E3800E86FE829D8B403D0E8515EEC52F0020EEE
:102E48000201D76F90D20051D8B406D00001FF51CB
:102E580001010019D8A487D202050311D8A444D0CF
:102E6800010E0001FF6540D0FF510101BE6FBF6B2D
:102E7800D890BE37BF3721EE08F0DECFC0F1DDCFE6
:102E8800C1F1BE51C027BF51C123FE0EC025D96E66
:102E9800FF0EC121DA6EDF50C26FC251C46FC36B1F
:102EA8000001FF510101C56FC66BD890C537C63701
:102EB80021EE08F0DECFC7F1DDCFC8F1C551C72735
:102EC800C651C823FF0EC725D96EFF0EC821DA6E7A
:102ED800DF50C96FC951C3110201C06F0101C4514C
:102EE8000201C16F020ED76FD8EC49F00201E86FFA
:102EF800E829D8B438D2E8514AEC48F034D2015124
:102F0800030AD8B440D7070AD8B43DD7020AD8B4C0
:102F18004BD7160AD8B497D726D2A70E0001EB6F65
:102F2800FA0EEC6FC5EC58F01ED201010051D8A47E
:102F380037D0010E0001FF6533D020D0C0C287F121
:102F4800C1C288F1020E5118D8B404D0030E51182A
:102F5800D8A406D087C17AF088C17BF0D0EC48F0BD
:102F68000A0E0201E56F1CD006C14DF04D50D8B4D1
:102F780017D0010E516E3C0E4C6E12D021EE02F0AD
:102F8800DECFBEF1DDCFBFF10101BF51000AD8A4E9
:102F980007D0BE51010AD8B4D1D7030AD8B4E4D7B0
:102FA8000001FF5101010019D8B444D0E4D1010E49
:102FB8003FD006510711D8A402D04D86DCD106C1F6
:102FC8007AF007C17BF0D0EC48F0020E516E1E0E6D
:102FD8000201E06F3C0E0101716F8986CCD1065168
:102FE8000711D8B4EAD706C17AF007C17BF0D0EC54
:102FF80048F08A88000E0201DE6F030E516EE06908
:10300800000E0101706F000E366F000E376F000E54
:10301800386F000E396F6E51D8B4B3EC1FF0ED0E57
:103028000001EB6FFA0EEC6FC5EC58F0A4D1020E5C
:10303800516EA1D121EE02F0DECFBEF1DDCFBFF19E
:10304800BF51000AD8A497D1BE51810AD8B4AFD7CE
:10305800030AD8B4AED7010AD8B4C1D7070AD8B47E
:10306800E6D789D10001FF05D8A485D10101000563
:103078000201EA6F5FD13A0E0201EA25D96EDA6AD7
:10308800010EDA22000EDF6E000EA1EC27F0110E01
:103098000001EB6FFA0EEC6FEAC2EDF0EE6BC5ECD7
:1030A80058F0000E316E810E306E000E336E000E39
:1030B800326E01010051E5EC57F05DD154EC43F05C
:1030C8000009D8A42DD03A0E0201EA25D96EDA6A91
:1030D800010EDA22010EDF6EEA51020D120EF32400
:1030E800D96E010EF420DA6E06C1DEFF07C1DDFFDE
:1030F80052C00FF053C010F0000E126E0A0E116E7F
:1031080040EC59F00201EA51020D870EF324D96E02
:10311800010EF420DA6E0FC0DEFF10C0DDFF0DD007
:103128000201EA51020D870EF324D96E010EF42034
:10313800DA6E000EDE6E000EDD6E06C10BF007C102
:103148000CF00D6A0E6A000E76EC46F00BC032F0F9
:103158000CC033F00DC034F00EC035F0000E366EE2
:10316800000E376E200E386E410E396E06EC39F0BF
:1031780032C0E1F233C0E2F234C0E3F235C0E4F227
:10318800C40E0001EB6FF80EEC6FEAC2EDF0EE6BC7
:10319800E1C2EFF0E2C2F0F0E3C2F1F0E4C2F2F013
:1031A800C5EC58F0000E316E820E306E0201EA5105
:1031B800020D870EF324D96E010EF420DA6EDECFED
:1031C80032F0DDCF33F001010051E5EC57F0D3D0F8
:1031D80054EC43F00009D8A425D03A0E0201EA25A0
:1031E800D96EDA6A010EDA22020EDF6EEA51020D9A
:1031F800120EF324D96E010EF420DA6E06C1DEFF3A
:1032080007C1DDFFEA51020D870EF324D96E010EC6
:10321800F420DA6E000EDE6E000EDD6E010EA1ECFB
:1032280027F00DD00201EA51020D870EF324D96E62
:10323800010EF420DA6E000EDE6E000EDD6E020165
:10324800EA51020D870EF324D96E010EF420DA6ECE
:10325800DECFBEF1DDCFBFF1BEC10BF0BFC10CF0B8
:103268000D6A0E6A000E76EC46F00BC032F00CC008
:1032780033F00DC034F00EC035F0000E366E000E7F
:10328800376E200E386E410E396E06EC39F032C0BA
:10329800E1F233C0E2F234C0E3F235C0E4F2A50E45
:1032A8000001EB6FF80EEC6FEAC2EDF0EE6BE1C2D5
:1032B800EFF0E2C2F0F0E3C2F1F0E4C2F2F0C5ECE4
:1032C80058F0000E316E830E306E0201EA51020D85
:1032D800870EF324D96E010EF420DA6EDECF32F0B9
:1032E800DDCF33F001010051E5EC57F044D03A0E40
:1032F8000201EA25D96EDA6A010EDA22010EDF6EC2
:10330800000EA1EC27F0940E0001EB6FF90EEC6FA4
:10331800EAC2EDF0EE6BC5EC58F0000E316E840E8B
:10332800306E000E336E000E326E01010051E5EC76
:1033380057F021D021EE02F0DECFBEF1DDCFBFF194
:103348000101BF51000AD8A416D0BE51010AD8B451
:1033580092D6030AD8B4B2D6010AD8B439D7070A24
:10336800D8B4C5D708D00201D751020AD8B4DDD5E0
:10337800010AD8B477D64DA205D00A0E0201E51984
:10338800D8B44D924DC0BEF1210E0101BE17D8B47C
:1033980009D04C50D8A406D0010E0001FF6502D018
:1033A8004D904D9A000E0201D76F5CEF0FF0B1EC13
:1033B80037F00101A86F1D0E0001EB6FF90EEC6FDD
:1033C800C5EC58F0240E02017019D8A406D0000EDE
:1033D8000101756F000E776F120001017251D8A4B8
:1033E80041D0000EAD6F25D0700E0B6E020E0C6E24
:1033F800A20EAD25D96EDA6A020EDA22DF509A6F74
:103408009A514B0D260EF3240D6EE40EF4200E6E29
:103418006CEC55F00B500C10D8A409D0A20E010189
:10342800AD25D96EDA6A020EDA22DF50726F010119
:10343800AD2BFF0E9A6FFF0E9B6FA8519C6F9D6B73
:103448009A519C279B519D23AD519E6F9F6B9C5118
:103458009E5D9F51800AA06F9D51800AA059D8B0E7
:1034680049D2C2D702017051D8A416D2000E010168
:10347800726F40D2700E00016C6F020E6D6F1AEC05
:1034880059F06CC0A9F16DC0AAF16EC0ABF16FC064
:10349800ACF1A9C119F0AAC11AF0ABC11BF0ACC1BB
:1034A8001CF0000E1D6E000E1E6EC00E1F6E400E2C
:1034B800206EFAEC4DF0D8A014D0000E196E000E54
:1034C8001A6EA00E1B6E420E1C6EA9C11DF0AAC179
:1034D8001EF0ABC11FF0ACC120F0FAEC4DF0D8B033
:1034E80008D07D0E0001EB6FF70EEC6FC5EC58F0BD
:1034F800FAD17BC170F07CC171F07DC172F07EC1E0
:1035080073F08FEC4FF070C07AF071C07BF0F0EC84
:1035180058F07AC00BF07BC00CF0000E0CBEFF0E0A
:103528000D6E0E6E010E76EC46F00BC032F00CC03C
:1035380033F00DC034F00EC035F0CEC136F0CFC137
:1035480037F0D0C138F0D1C139F006EC39F032C0CB
:10355800A1F133C0A2F134C0A3F135C0A4F1000E2B
:103568001D6E000E1E6E200E1F6E410E206EA9C12C
:1035780019F0AAC11AF0ABC11BF0ACC11CF094EC55
:1035880034F019C032F01AC033F01BC034F01CC03C
:1035980035F0A1C136F0A2C137F0A3C138F0A4C1FB
:1035A80039F006EC39F032C0CEF133C0CFF134C077
:1035B800D0F135C0D1F1B7EC3CF095D1700E0B6E5F
:1035C800020E0C6E610E0D6EFB0E0E6E6CEC55F05D
:1035D8000B500C10D8A402D0020E0FD0700E0B6E38
:1035E800020E0C6EC70E0D6EFC0E0E6E6CEC55F0D6
:1035F8000B500C10D8A403D0010E506EDCD7700EFF
:103608000B6E020E0C6E760E0D6EFC0E0E6E6CECD2
:1036180055F00B500C10D8A466D1000E506EB7ECC4
:103628003CF0000E4D6E5FD1700E0B6E020E0C6EEC
:10363800FE0E0D6EFB0E0E6E6CEC55F00B500C1062
:10364800D8A402D0010E1FD0700E0B6E020E0C6EA5
:10365800C10E0D6EFC0E0E6E6CEC55F00B500C107E
:10366800D8A402D0020E0FD0700E0B6E020E0C6E94
:10367800270E0D6EFC0E0E6E6CEC55F00B500C10F8
:10368800D8A431D1000E0101996F95D7700E0B6E39
:10369800020E0C6EBB0E0D6EFC0E0E6E6CEC55F031
:1036A8000B500C10D8A402D0010E0FD0700E0B6E68
:1036B800020E0C6E7D0E0D6EFC0E0E6E6CEC55F04F
:1036C8000B500C10D8A40FD1000E0101986F73D7BE
:1036D800000EAD6F700E0B6E020E0C6EAD51090D23
:1036E8006D0EF3240D6EF00EF4200E6E6CEC55F09A
:1036F8000B500C10D8A404D0ADC1FFF0B7EC3CF0CF
:103708000101AD2B040EAD65E5D7EDD0000EAD6F10
:10371800700E0B6E020E0C6EAD510A0D3B0EF324AB
:103728000D6EF00EF4200E6E6CEC55F00B500C1074
:10373800D8A404D0ADC197F1B7EC3CF00101AD2B92
:10374800040EAD65E5D7CFD0000EAD6F700E0B6ED1
:10375800020E0C6EAD510A0DC20EF3240D6EF00E62
:10376800F4200E6E6CEC55F00B500C10D8A404D05D
:10377800ADC194F1B7EC3CF00101AD2B010EAD6584
:10378800E5D7B1D0700E0B6E020E0C6E270E0D6EC3
:10379800FC0E0E6E6CEC55F00B500C10D8A402D039
:1037A800000E0FD0700E0B6E020E0C6E6F0E0D6EAB
:1037B800FC0E0E6E6CEC55F00B500C10D8A493D088
:1037C800010E0101966FF7D6000EAD6F700E0B6EED
:1037D800020E0C6EAD51160D000EF3240D6E030E85
:1037E800F4200E6E6CEC55F00B500C10D8A40AD0D7
:1037F800ADC160F00001616B010172514AEC3AF011
:10380800B7EC3CF00101AD2B050EAD65DFD76BD0F1
:10381800700E0B6E020E0C6EF10E0D6EFC0E0E6E1F
:103828006CEC55F00B500C10D8A402D0000E0FD041
:10383800700E0B6E020E0C6ED70E0D6EFC0E0E6E19
:103848006CEC55F00B500C10D8A44DD0010E0101B2
:10385800956FB1D6700E156E020E166E62EC4EF0B4
:1038680015C0A5F116C0A6F1A5C160F0A6C161F00A
:10387800010172514AEC3AF00101A76FB7EC3CF034
:103888000101A751D8A42FD0E30E0001EB6FF80E69
:10389800EC6FC5EC58F027D001017251020AD8B478
:1038A800F5D6010AD8B414D7050AD8B4BDD60C0A7F
:1038B800D8B42CD7010AD8B465D7060AD8B47ED6AE
:1038C800020AD8B4D7D51F0AD8B47ED7010AD8B40B
:1038D8003BD7020AD8B49CD7070AD8B475D7020ACE
:1038E800D8B472D7B7D7000E0101726FB1EC37F0B8
:1038F8000101A86F0E0E7265EAD2620E0001EB6F2D
:10390800FA0EEC6F010172514B0D110EF326000EE9
:10391800F422260EF3240001ED6FE40EF420EE6F7E
:1039280001017251E9EC32F0DAC0EFF0DBC0F0F0DF
:10393800C5EC58F0CCD2240E0001EB6FF30EEC6FFF
:10394800C5EC58F0BA0EEB6FFB0EEC6FC5EC58F0F7
:103958001B0EEB6FF70EEC6FC5EC58F03E0EEB6FDD
:10396800F90EEC6F01016F510001ED6FEE6BEDBFC9
:10397800EE07C5EC58F0710EEB6FF30EEC6FC5EC6B
:1039880058F0000E0101AD6FA7D0960E0001EB6F45
:10399800FA0EEC6FA20E0101AD25D96EDA6A020E9D
:1039A800DA22DF509A6F9A514B0D260EF32400014C
:1039B800ED6FE40EF420EE6FA20E0101AD25D96E75
:1039C800DA6A020EDA22DF509B6F9B514B0D110E03
:1039D800F326000EF422260EF3240001EF6FE40E06
:1039E800F420F06FC5EC58F0A20E0101AD25D96E98
:1039F800DA6A020EDA220F0EDE18D8A456D0420E6A
:103A08000001EB6FF80EEC6F7BC132F07CC133F034
:103A18007DC134F07EC135F0000E366E000E376E73
:103A2800200E386E410E396E06EC39F032C0EDF0DA
:103A380033C0EEF034C0EFF035C0F0F07FC132F0A3
:103A480080C133F081C134F082C135F0000E366E8A
:103A5800000E376E200E386E410E396E06EC39F0C6
:103A680032C0F1F033C0F2F034C0F3F035C0F4F0F6
:103A780083C132F084C133F085C134F086C135F09A
:103A8800000E366E000E376E200E386E410E396EFF
:103A980006EC39F032C0F5F033C0F6F034C0F7F078
:103AA80035C0F8F0C5EC58F00FD0A20EAD25D96E90
:103AB800DA6A020EDA22DF50E9EC32F0DAC0EBF013
:103AC800DBC0ECF0C5EC58F01D0EEB6FF90EEC6F97
:103AD800C5EC58F00101AD2BFF0E9A6FFF0E9B6FDE
:103AE800A8519C6F9D6B9A519C279B519D23AD516A
:103AF8009E6F9F6B9C519E5D9F51800AA06F9D5148
:103B0800800AA059D8A041D7F90E0001EB6FFC0E2E
:103B1800EC6FC5EC58F05BD4C80E0001EB6FF50EE6
:103B2800EC6F01017251E9EC32F0DAC0EDF0DBC064
:103B3800EEF0C5EC58F04BD48B0E0001EB6FF50E90
:103B4800EC6F01017251E9EC32F0DAC0EDF0DBC044
:103B5800EEF0C5EC58F03BD4E30E0001EB6FF10E2C
:103B6800EC6FD4C1EDF0D5C1EEF0C5EC58F02FD410
:103B7800010E0001EB6FF40EEC6FD2C1EDF0D3C172
:103B8800EEF0C5EC58F023D4880E0001EB6FF20E6E
:103B9800EC6F91C1EDF092C1EEF0C5EC58F017D47E
:103BA800050E0001EB6FF60EEC6F01017251E9ECA6
:103BB80032F0DAC0EDF0DBC0EEF06D0EEF6FF00E14
:103BC800F06FC5EC58F0010E0101AD6FF50E000164
:103BD800EB6FFC0EEC6F0101AD51090D6D0EF32476
:103BE8000001ED6FF00EF420EE6FC5EC58F0010106
:103BF800AD2B040EAD65EAD7850E0001EB6FF40E10
:103C0800EC6FC5EC58F0EBEF19F0CC0E0001EB6F40
:103C1800F40EEC6FC5EC58F04F0EEB6FF70EEC6F2F
:103C2800C5EC58F0460EEB6FF40EEC6FDAC1EDF010
:103C3800DBC1EEF0C5EC58F0EBEF19F0BA0E00015D
:103C4800EB6FF30EEC6F52C0EDF053C0EEF0C5EC25
:103C580058F0EBEF19F0CC0E0001EB6FF40EEC6F9F
:103C6800C5EC58F04F0EEB6FF70EEC6FC5EC58F043
:103C78000C0EEB6FF50EEC6FD8C1EDF0D9C1EEF07C
:103C8800C5EC58F0EBEF19F0CC0E0001EB6FF40E19
:103C9800EC6FC5EC58F04F0EEB6FF70EEC6FC5EC00
:103CA80058F0890EEB6FF40EEC6FD6C1EDF0D7C16A
:103CB800EEF0C5EC58F0EBEF19F0D70E0001EB6F02
:103CC800F20EEC6F01017251E9EC32F0DAC0EDF05E
:103CD800DBC0EEF0C5EC58F0EBEF19F04C0E00012C
:103CE800EB6FF50EEC6F01017251E9EC32F0DAC0BE
:103CF800EDF0DBC0EEF03B0EEF6FF00EF06FC5ECB1
:103D080058F0010E0101AD6FF50E0001EB6FFC0ECE
:103D1800EC6F0101AD510A0D3B0EF3240001ED6F6C
:103D2800F00EF420EE6FC5EC58F00101AD2B040E37
:103D3800AD65EAD7850E0001EB6FF40EEC6FC5ECAC
:103D480058F0EBEF19F0290E0001EB6FF10EEC6F54
:103D580001017251E9EC32F0DAC0EDF0DBC0EEF0AF
:103D6800C5EC58F0EBEF19F0860E0001EB6FF10E81
:103D7800EC6F01017251E9EC32F0DAC0EDF0DBC012
:103D8800EEF0C5EC58F0EBEF19F0780E0001EB6F90
:103D9800F60EEC6F7BC132F07CC133F07DC134F09C
:103DA8007EC135F0000E366E000E376E200E386E6E
:103DB800410E396E06EC39F032C0EDF033C0EEF04A
:103DC80034C0EFF035C0F0F0C5EC58F0EBEF19F067
:103DD8004F0E0001EB6FFA0EEC6F000EED6F030E45
:103DE800EE6FC5EC58F0010E0101AD6FF50E000144
:103DF800EB6FFC0EEC6F0101AD51160D000EF324B4
:103E08000001ED6F030EF420EE6FC5EC58F00101D0
:103E1800AD2B060EAD65EAD7850E0001EB6FF40EEB
:103E2800EC6FC5EC58F0EBEF19F0E60E0001EB6F04
:103E3800F60EEC6FC5EC58F0EBEF19F0380E0001F8
:103E4800EB6FF20EEC6FC5EC58F0EBEF19F03F0E8C
:103E58000001EB6FF60EEC6FC5EC58F0EBEF19F0C4
:103E6800B00E0001EB6FF60EEC6FC5EC58F0EBEFFF
:103E780019F0B00E0001EB6FF90EEC6F01017251F1
:103E88004B0D450EF326000EF422260EF324F66E93
:103E9800E40EF420F76E0900F5CFEDF00A00F5CF37
:103EA800EEF072514B0D470EF326000EF422260E4B
:103EB800F324F66EE40EF420F76E0900F5CFEFF068
:103EC8000A00F5CFF0F0C5EC58F0EBEF19F001015E
:103ED8007251000AD8B42FD5020AD8B41DD6010AE7
:103EE800D8B45ED6070AD8B4A9D6010AD8B4CCD6B5
:103EF800030AD8B4E2D6010AD8B42ED60F0AD8B429
:103F080037D6010AD8B440D6030AD8B4E7D6010A8E
:103F1800D8B419D7070AD8B49ED6010AD8B40CD693
:103F2800030AD8B472D6010AD8B42FD71F0AD8B456
:103F38004FD7010AD8B418D7020AD8B476D7070AD7
:103F4800D8B446D7020AD8B443D70E0AD8B476D71D
:103F5800010AD8B47CD7020AD8B482D78AD701011B
:103F68006E51D8B409D0702B790E7019D8A41200EC
:103F7800000E6E6FE8EC3DF00A0E01017019D8A42E
:103F880002D0000E706F4D50D8B4E1D089863C0E37
:103F9800716F4DA221D0DA0E0001966FFB0E976F5C
:103FA800000E16EC47F01C0E0001966FFB0E976F83
:103FB800020E16EC47F0970E0001966FFC0E976FF5
:103FC800040E16EC47F04C0E0001966FFC0E976F2E
:103FD800060E16EC47F012004DA421D0530E000136
:103FE800966FFB0E976F000E16EC47F09D0E0001C2
:103FF800966FFC0E976F020E16EC47F0C80E000184
:10400800966FFB0E976F040E16EC47F0070E000133
:10401800966FFC0E976F060E16EC47F012004DA82F
:1040280048D0702B70059A6F050E9A6121D0D10E79
:104038000001966FFB0E976F000E16EC47F0AF0E5F
:104048000001966FFC0E976F020E16EC47F0170EE4
:104058000001966FFC0E976F040E16EC47F0BF0E2A
:104068000001966FFB0E976F060E16EC47F01200D4
:10407800A30E0001966FFC0E976F000E16EC47F02A
:10408800530E0001966FFC0E976F020E16EC47F068
:10409800E90E0001966FFB0E976F040E16EC47F0C1
:1040A800A90E0001966FFC0E976F060E16EC47F0EE
:1040B80012004DAC39D01F0E0001966FFC0E976FA1
:1040C800020E16EC47F0060E0001966FFB0E976F76
:1040D800040E16EC47F0000E0101456F640E446FA4
:1040E8000A0E0F6E4B50ADEC57F001019A6F300E6F
:1040F8009A2500018C6F8D6B000E8D23D0EC45F056
:104108000A0E0B6E4B5005EC59F001019A6F300EF8
:104118009A2500018C6F8D6B000E8D23D0EC45F035
:10412800040E9BEC55F012004DAE11D0270E000185
:10413800966FFB0E976F020E16EC47F0320E0001D9
:10414800966FFB0E976F040E16EC47F01200500E98
:104158004B18D8A411D01F0E0001966FFC0E976F54
:10416800020E16EC47F0610E0001966FFC0E976F79
:10417800040E16EC47F01200702B5050D8B403D040
:104188006351D8A4C8D0000E106E000EBCEC59F0D4
:10419800040E106E010EBCEC59F0100E106E060ED7
:1041A800BCEC59F0000E106E070EBCEC59F04DA097
:1041B80011D00F0E0001966FFC0E976F020E16ECD1
:1041C80047F0670E0001966FFB0E976F040E16EC12
:1041D80047F048D3030E5118D8A44CD089863C0E1A
:1041E8000101716FC80E0001966FFB0E976F020EEA
:1041F80016EC47F087C10BF088C10CF00D6A0E6A07
:10420800000E76EC46F00BC032F00CC033F00DC057
:1042180034F00EC035F0000E366E000E376E200EEC
:10422800386E410E396E06EC39F032C0A9F133C050
:10423800AAF134C0ABF135C0ACF19D0E0001DA6FC4
:10424800010EDB6F3E0EDC6FFC0EDD6FA9C1DEF0E8
:10425800AAC1DFF0ABC1E0F0ACC1E1F0010EE26F42
:1042680051EC42F09D0E966F010E976F040E16ECFE
:1042780047F0F8D201016351D8B43CD0E30E0001F5
:10428800966FFB0E976F020E16EC47F0AD0E00010D
:10429800966FFB0E976F040E16EC47F04C50D8B48F
:1042A800E1D2000E0101456F640E446F0A0E0F6ED5
:1042B8004C50ADEC57F001019A6F300E9A25000171
:1042C8008C6F8D6B000E8D23D0EC45F00A0E0B6EB3
:1042D8004C5005EC59F001019A6F300E9A250001F7
:1042E8008C6F8D6B000E8D23D0EC45F0040E9BEC8B
:1042F80055F0B8D25A0E0001966FFC0E976F020E59
:1043080016EC47F0450E0001966FFC0E976F040EF1
:1043180016EC47F0A7D25004D8B404D0020E5018B7
:10432800D8A4A0D219EC58F05004D8A418D0000E84
:10433800AD6F0C0EAD6501D012D0480EAD25D96E0B
:10434800DA6A040EDA22000EDF6EC80EAD25D96EC9
:10435800DA6A040EDA22000EDF6EAD2BEAD760515E
:10436800D8A410D0000EAD6F070EAD6501D057D0A0
:104378005A0EAD25D96EDA6A040EDA22000EDF6E07
:10438800AD2BF2D7D2C10FF0D3C110F0000E126ED0
:104398003C0E116E40EC59F00FC0A7F110C0A8F107
:1043A80001014651A75DA76F4751A859A86FA7C13A
:1043B80083F0A8C184F0000E0001866F3C0E856F63
:1043C80074EC56F083C09BF184C09CF1A7C17EF0C9
:1043D800A8C17FF0000E816F3C0E806F2BEC57F068
:1043E8007EC0A7F17FC0A8F19D0ECD6F010ECE6FE4
:1043F800710ECF6FFB0ED06F9BC1D1F09CC1D2F074
:10440800A7C1D3F0A8C1D4F0CAEC57F0000E1D6EB6
:104418009D0E1E6E010E1F6E640E08EC57F0010112
:1044280053AF07D0030ECB5F140ECB6109D02C0E0F
:1044380006D0030ECB272C0ECB6502D0140ECB6F03
:10444800CBC144F1456B000E906F030E8F6F52C1C4
:104458007AF053C17BF0F0EC58F07BBF0CD07B5165
:1044680004E1040E7A5DD8A006D0000E166EFE0E8A
:10447800156E30EC4FF04E50D8B41ED09D0E000192
:10448800DA6F010EDB6F480EDC6FFB0EDD6F2AC1A1
:10449800DEF02BC1DFF02CC1E0F02DC1E1F0010E00
:1044A800E26F51EC42F0010E1D6E9D0E1E6E010E64
:1044B8001F6E590E08EC57F0030E5118D8A459D0A6
:1044C80089863C0E0101716F030ECA27590ECA6511
:1044D80002D04A0ECA6FCAC144F1456B000E906FF4
:1044E800030E8F6F000E166EFE0E156E30EC4FF039
:1044F80087C10BF088C10CF00D6A0E6A000E76ECCD
:1045080046F00BC032F00CC033F00DC034F00EC0D2
:1045180035F0000E366E000E376E200E386E410EE6
:10452800396E06EC39F032C0A9F133C0AAF134C0B3
:10453800ABF135C0ACF19D0E0001DA6F010EDB6FF7
:10454800D20EDC6FFC0EDD6FA9C1DEF0AAC1DFF070
:10455800ABC1E0F0ACC1E1F0000EE26F51EC42F00B
:10456800020E1D6E9D0E1E6E010E1F6E4D0E08EC86
:1045780057F0050E0101706157D0020E5018D8A4EB
:1045880053D0000E456F290E446F000E906F010E38
:104598008F6F000E166EE30E156E30EC4FF052C1A1
:1045A8000BF053C10CF0000E0CBEFF0E0D6E0E6E1C
:1045B800010E76EC46F00BC032F00CC033F00DC0A3
:1045C80034F00EC035F0000E366E000E376E200E39
:1045D800386E410E396E06EC39F032C0A9F133C09D
:1045E800AAF134C0ABF135C0ACF19D0E0001DA6F11
:1045F800010EDB6FCD0EDC6FFC0EDD6FA9C1DEF0A6
:10460800AAC1DFF0ABC1E0F0ACC1E1F0000EE26F8F
:1046180051EC42F0020E1D6E9D0E1E6E010E1F6EB5
:10462800170E08EC57F049D0000EAD6F020EAD65BD
:1046380001D043D0AD51040D7B0EF324D96E010E89
:10464800F420DA6EDECF32F0DECF33F0DECF34F096
:10465800DECF35F0000E366E000E376E200E386E47
:10466800410E396E06EC39F032C0A9F133C0AAF117
:1046780034C0ABF135C0ACF19D0E0001DA6F010E0C
:10468800DB6FCD0EDC6FFC0EDD6FA9C1DEF0AAC1B9
:10469800DFF0ABC1E0F0ACC1E1F0000EE26F51EC2D
:1046A80042F0ADC11DF09D0E1E6E010E1F6E170E5D
:1046B80008EC57F00101AD2BB9D7000ED2EC4BF046
:1046C800000E106E040EBCEC59F04DA016D0050E6D
:1046D8000101706109D00F0E0001966FFC0E976FF3
:1046E800050E16EC47F0B9D0670E0001966FFB0E69
:1046F800976F050E16EC47F0B0D04DAA16D0050EF0
:104708000101706109D00F0E0001966FFC0E976FC2
:10471800050E16EC47F0A1D05D0E0001966FFB0E5A
:10472800976F050E16EC47F098D05104D8B404D012
:10473800020E5118D8A422D04C50D8B416D09D0ED1
:104748000001CD6F010ECE6FEC0ECF6FFB0ED06F58
:104758004CC0D1F0D26BCAEC57F09D0E966F010E8B
:10476800976F050E16EC47F078D0B50E0001966FDE
:10477800FC0E976F050E16EC47F06FD0030E51181C
:10478800D8A46BD089863C0E0101716F070E706149
:1047980025D0040E706119D05050D8B416D0020E2E
:1047A8005018D8A409D0610E0001966FFB0E976FC0
:1047B800050E16EC47F051D0C70E0001966FFC0E9F
:1047C800976F050E16EC47F048D0C80E0001966F9B
:1047D800FB0E976F050E16EC47F03FD087C10BF024
:1047E80088C10CF00D6A0E6A000E76EC46F00BC01C
:1047F80032F00CC033F00DC034F00EC035F0000EAE
:10480800366E000E376E200E386E410E396E06EC8D
:1048180039F032C0A9F133C0AAF134C0ABF135C0C8
:10482800ACF19D0E0001DA6F010EDB6F3E0EDC6FFE
:10483800FC0EDD6FA9C1DEF0AAC1DFF0ABC1E0F06C
:10484800ACC1E1F0010EE26F51EC42F09D0E966FA3
:10485800010E976F050E16EC47F0000E106E070E4E
:10486800BCEC59F001017151D8B402D071071200A3
:1048780089961200BD6FB1EC37F00101B26F3C0EA2
:10488800716F89869605D8B44DA802D081A24D983B
:104898006E51D8A412D0050EBD19D8A40ED05E5101
:1048A800D8A40BD0010E6E6F36C11EF137C11FF1AF
:1048B80038C120F139C121F1CFD16E05D8A419D062
:1048C800D00E1E25AE6F070E1F21AF6F000E2021E0
:1048D800B06F000E2121B16F3651AE5D3751AF591F
:1048E8003851B0593951B159D8B003D0020E6E6F52
:1048F80023D06E05D8A40BD0070EBD19D8A407D0B5
:10490800000E6E6F000E5E6FB3EC1FF0A5D10F0E98
:104918006E19D8A413D0020EBD19D8A40FD06D51AA
:10492800D8B40CD0000ECE6F000ECF6F800ED06FB3
:104938003F0ED16F000E6D6F010ED6D0010E6E6561
:10494800D5D0020EBD19D8B408D0030EBD19D8B4FD
:1049580004D0060EBD19D8A4C9D05E51D8A4C6D0BB
:104968006D51D8A4AAD0B1D042C10BF043C10CF00C
:10497800000E0E6E640E0D6E030E106EE70E0F6EB7
:10498800BD5121EC56F00BC042F10CC043F1AAD046
:104998006E510FEC3FF07AC03EF17BC03FF13EC153
:1049A8000BF03FC10CF001016E514B0D450EF32683
:1049B800000EF422260EF324F66EE40EF420F76EB1
:1049C8000900F5CF0DF00A00F5CF0EF06E514B0D32
:1049D800470EF326000EF422260EF324F66EE40E9C
:1049E800F420F76E0900F5CF0FF00A00F5CF10F0AC
:1049F800BD5121EC56F00BC03EF10CC03FF13EC159
:104A08000FF03FC110F0000E126E160E116E40EC42
:104A180059F0100E0F24D96E030E1020DA6EDE281E
:104A280003E1DE28D8B4BBD73EC160F03FC161F0D6
:104A380001016E514AEC3AF055D06E510FEC3FF03F
:104A48007AC03EF17BC03FF13EC10BF03FC10CF094
:104A580001016E514B0D450EF326000EF422260E71
:104A6800F324F66EE40EF420F76E0900F5CF0DF08E
:104A78000A00F5CF0EF06E514B0D470EF326000ECF
:104A8800F422260EF324F66EE40EF420F76E0900E5
:104A9800F5CF0FF00A00F5CF10F0BD5121EC56F01C
:104AA8000BC03EF10CC03FF13EC160F03FC161F068
:104AB80001016E514AEC3AF015D06E510F0AD8B484
:104AC80053D7190AD8B464D7B8D76EC112F0A20E5A
:104AD800136E020E146EB2C115F0BD515AEC54F0AB
:104AE80001016E6F010EAAD05E6FB6D0010E6E6521
:104AF800A7D0050EBD19D8A4A3D05E51D8A4A0D0C4
:104B0800010E5E6F6D51D8B465D0000E6D6F0F0E3B
:104B18006E19D8A4A1D04051421904E1415143195A
:104B2800D8B49AD040C10BF041C10CF00D6A0E6A9E
:104B3800000E76EC46F00BC032F00CC033F00DC01E
:104B480034F00EC035F0CEC136F0CFC137F0D0C149
:104B580038F0D1C139F006EC39F032C01AF133C05F
:104B68001BF134C01CF135C01DF142C10BF043C12B
:104B78000CF00D6A0E6A000E76EC46F00BC032F0AF
:104B88000CC033F00DC034F00EC035F01AC136F049
:104B98001BC137F01CC138F01DC139F006EC39F0E3
:104BA80032C0CEF133C0CFF134C0D0F135C0D1F12D
:104BB80042C10BF043C10CF00D6A0E6A000E76EC90
:104BC80046F00BC07BF10CC07CF10DC07DF10EC02E
:104BD8007EF142D0010E6D6F0F0E6E19D8A419D058
:104BE8007BC170F07CC171F07DC172F07EC173F041
:104BF8008FEC4FF070C07AF071C07BF0F0EC58F099
:104C08007AC042F17BC043F142C140F143C141F156
:104C180023D01E0E6E19D8A41FD0000E6E6F000E82
:104C28006D6F000E4D6E000E4B6E000E4C6E000E3A
:104C3800606FB3EC1FF0B7EC3CF0020E010154D7E3
:104C4800070EBD19D8A408D0000E5E6F000E0C6EBA
:104C58000A0E0B6E6DEC57F001015E05D8B403D057
:104C68006E05D8A45BD16E05D8A425D0000E106EB1
:104C7800000EBCEC59F0040E106E010EBCEC59F09D
:104C88003D0E0001966FFB0E976F020E16EC47F073
:104C9800F50E0001966FFB0E976F040E16EC47F0A9
:104CA800100E106E060EBCEC59F0000E106E070EBA
:104CB800BCEC59F030D16E514B0D080EF326000EA6
:104CC800F422260EF3240001EB6FE40EF420EC6FBF
:104CD800020EED6FEDEC4FF0EBD0EBEC59F001016B
:104CE8006D51D8B44FD065EC58F0000E0101456FF6
:104CF800280E446F42C183F043C184F0000E0001C6
:104D0800866F640E856F74EC56F0300E83258C6FB9
:104D1800000E84218D6FD0EC45F0000E816F640E7B
:104D2800806F42C17EF043C17FF02BEC57F07EC00C
:104D380083F07FC084F0000E866F0A0E856F74ECD6
:104D480056F0300E83258C6F000E84218D6FD0ECC9
:104D580045F0000E8D6F2E0E8C6FD0EC45F042C1E1
:104D68007EF043C17FF0000E816F0A0E806F2BEC3E
:104D780057F0300E7E258C6F000E7F218D6FD0ECA2
:104D880045F07AD0000E456F280E446F7BC170F055
:104D98007CC171F07DC172F07EC173F08FEC4FF071
:104DA80070C07AF071C07BF0F0EC58F07AC084F0F3
:104DB8007BC085F0000E876F640E866FA2EC52F000
:104DC800300E84258C6F000E85218D6FD0EC45F058
:104DD800000E816F640E806F7BC170F07CC171F032
:104DE8007DC172F07EC173F08FEC4FF070C07AF025
:104DF80071C07BF0F0EC58F07AC07EF07BC07FF099
:104E080092EC54F07EC084F07FC085F0000E876F6E
:104E18000A0E866FA2EC52F0300E84258C6F000EBD
:104E280085218D6FD0EC45F0000E8D6F2E0E8C6FA6
:104E3800D0EC45F07BC170F07CC171F07DC172F09F
:104E48007EC173F08FEC4FF070C07AF071C07BF0C8
:104E5800F0EC58F07AC07EF07BC07FF0000E816FD6
:104E68000A0E806F92EC54F0300E7E258C6F000E87
:104E78007F218D6FD0EC45F0000E0101456F580E73
:104E8800446F000E00018D6F410E8C6FD0EC45F021
:104E9800040E9BEC55F012D06E51E9EC32F0DAC0FA
:104EA800EBF0DBC0ECF0040EED6FEDEC4FF006D04C
:104EB80001016E510F0AD8B410D7EED7B30E000116
:104EC800CD6F010ECE6F910ECF6FFC0ED06F01012A
:104ED8006F510001D16FD26BD1BFD207CAEC57F026
:104EE800070E1B6EB30E1C6E010E1D6E000EE5EC58
:104EF80052F0070E1B6E8B0E1C6EFC0E1D6EBA0E4A
:104F08000B6EFB0E0C6E4CEC57F00B50FA0DF35079
:104F18007A0FE5EC52F0020E01015E6F36C12EF1F8
:104F280037C12FF138C130F139C131F1000E6C6F42
:104F3800BDC1CCF1000E706F12000101A46F000E0C
:104F48000101B26F000EB16F000EA66F000EA56FC3
:104F5800000EA36F000EA26F000E9E6F000E9F6FD3
:104F6800000EA06F000EA16F0001FF51D8A40FD052
:104F7800010E0101B36F3A0EB325D96EDA6A010E3C
:104F8800DA22000EDF6EB32B030EB365F4D7020EE0
:104F980001013A19D8A411D0D8515C5DD9515D5995
:104FA800D8B00BD05CC10FF05DC110F0000E126ECE
:104FB8000A0E116E40EC59F00AD0D8C10FF0D9C1D1
:104FC80010F0000E126E0A0E116E40EC59F00FC070
:104FD8005AF110C05BF1010158515911D8B404D0ED
:104FE80058C15AF159C15BF1020E0001FF6104D0AA
:104FF8005AC112F15BC113F1000E0101B36F3A0EF1
:10500800B325D96EDA6A010EDA22020EDE18D8A4A8
:105018001AD0B14BB22BB351020D120EF324D96E34
:10502800010EF420DA6EDE50A527DD50A623B35119
:10503800020D870EF324D96E010EF420DA6EDE50CD
:10504800A227DD50A323B32B030EB365D8D7A451F1
:10505800D8A48CD0020E5018D8B488D0DAC10FF07A
:10506800DBC110F0000E126E0A0E116E40EC59F002
:10507800010156510F5CAB6F57511058AC6FACBF64
:1050880018D0AC5103E1AB05D8A013D0ABC184F064
:10509800ACC185F0000E0001876F040E866FA2EC8C
:1050A80052F084510101502700018551010151231B
:1050B8004AD0000E366E000E376E800E386E3F0EE8
:1050C800396EABC10BF0ACC10CF0000E0CBEFF0E7C
:1050D8000D6E0E6E010E76EC46F00BC032F00CC071
:1050E80033F00DC034F00EC035F006EC39F032C0A4
:1050F80064F033C065F034C066F035C067F050C165
:105108000BF051C10CF0000E0CBEFF0E0D6E0E6EB2
:10511800010E76EC46F00BC060F00CC061F00DC0DB
:1051280062F00EC063F02AEC36F060C070F061C027
:1051380071F062C072F063C073F08FEC4FF070C012
:1051480050F171C051F1010151AF04D0000E516FFF
:10515800000E506F51BF0AD0210E505D030E5159F9
:10516800D8A004D0030E516F200E506F020E5018B5
:10517800D8A492D091C10FF092C110F0FF0E126E18
:10518800F60E116E40EC59F0010152510F24AF6F29
:1051980053511020B06FB0AF1AD0B0AF0CD0F60E8C
:1051A800AF5DFF0EB059D8B006D0050E5025506F30
:1051B800000E51211FD0AFC184F0B0C185F0000EA0
:1051C8000001876F040E866FA2EC52F00BD0AFC1BE
:1051D80084F0B0C185F0000E0001876F020E866F63
:1051E800A2EC52F084510101505D506F00018551CD
:1051F80001015159516FB1C10FF0B2C110F052C045
:1052080011F053C012F040EC59F00FC0ADF110C0CE
:10521800AEF1ADC10FF0AEC110F0000E126E0A0E65
:10522800116E40EC59F00F500101505D105051596A
:10523800D8A002D051AF2ED0B1C10FF0B2C110F03A
:1052480052C011F053C012F040EC59F00FC0ADF14C
:1052580010C0AEF1ADC10FF0AEC110F0000E126E6D
:105268000A0E116E40EC59F00FC050F110C051F108
:105278000101B151B211D8B40DD0D251D311D8A473
:10528800B0BF08D0B05104E10B0EAF5DD8A002D07A
:10529800010E01D0000E606F0001FF05D8A41FD0D9
:1052A800D6C10FF0D7C110F0000E126E0A0E116EA3
:1052B80040EC59F0010150510F5C51511058D8B0D1
:1052C8000ED0D6C10FF0D7C110F0000E126E0A0E24
:1052D800116E40EC59F00FC050F110C051F10101AE
:1052E800A251565DA76FA3515759A86FA8AF04D014
:1052F800000EA86F000EA76F5050D8A417D0000159
:10530800FF05D8A40FD0D6C10FF0D7C110F0000EFA
:10531800126E0A0E116E40EC59F00FC050F110C019
:1053280051F104D05AC150F15BC151F10101B151A1
:10533800B211D8B449D1A451D8B415D0020E50181E
:10534800D8B411D0DAC10FF0DBC110F0000E126E24
:105358000A0E116E40EC59F00101A7510F5C506F15
:10536800A8511058516F51BF3BD0B1C10FF0B2C115
:1053780010F052C011F053C012F040EC59F00FC0B9
:10538800ADF110C0AEF1ADC10FF0AEC110F0000E1E
:10539800126E0A0E116E40EC59F00F500101505D6B
:1053A80010505159D8A01CD0020E5018D8B453BF71
:1053B8003DD0535104E10B0E525DD8A037D0DAC16D
:1053C8000FF0DBC110F0000E126E0A0E116E40ECE9
:1053D80059F0010156510F5C57511058D8B026D0DA
:1053E800B1C10FF0B2C110F052C011F053C012F0A9
:1053F80040EC59F00FC0ADF110C0AEF1ADC10FF0E7
:10540800AEC110F0000E126E0A0E116E40EC59F08B
:105418000FC050F110C051F101016B2BB70E000104
:10542800EB6FFA0EEC6FC5EC58F002D0000E6B6F04
:1054380001015051A55DA651800A9A6F5151800A09
:105448009A59D8B004D0A5C150F1A6C151F150C1A4
:10545800A9F151C1AAF1000EB36FA9C184F0AAC184
:1054680085F0B1C186F0B2C187F0A2EC52F084C0D9
:105478009CF185C09DF13A0E0101B325D96EDA6A17
:10548800010EDA22020EDE18D8A445D09E0EB325EE
:10549800D96EDA6A010EDA22DF50D8A43CD0B351B3
:1054A800020D120EF324D96E010EF420DA6EDE50CE
:1054B8009C5DDE509D59D8A02ED0B351020D120E1E
:1054C800F324D96E010EF420DA6EB351020D870E63
:1054D800F324E16E010EF420E26EDECFE6FFDDCFAD
:1054E800E5FF9E0EB325D96EDA6A010EDA22010EA7
:1054F800DF6EB107D8A0B207B351020D870EF324AF
:10550800D96E010EF420DA6EDE50A95FDD50AA5B79
:10551800000EB36F01D0B32B040EB36104D0B151A8
:10552800B211D8A49AD7000EB36FB151B211D8B442
:105538004BD03A0EB325D96EDA6A010EDA22020E82
:10554800DE18D8A439D09E0EB325D96EDA6A010EBA
:10555800DA22DF50D8A430D0A9C184F0AAC185F0DE
:10556800B1C186F0B2C187F0A2EC52F00101B3518B
:10557800020D870EF324D96E010EF420DA6E0001B5
:1055880084C0DEFF85C0DDFF9E0E0101B325D96E04
:10559800DA6A010EDA22010EDF6EB107D8A0B2076F
:1055A800B351020D870EF324D96E010EF420DA6E82
:1055B800DE50A95FDD50AA5BB32B040EB36104D0A3
:1055C800B151B211D8A4B5D70001FF05D8A4120073
:1055D800000E0101B36FB32B030EB365FCD71200A5
:1055E80062516311D8B40CD062C0D9FF63C0DAFF2E
:1055F80060C0DEFF61C0DDFF03D00001604B612B9E
:1056080060C0D9FF61C0DAFFDF50656F65512DECCE
:1056180059F0D8B0F2D7000E0001666F2D0E65194B
:10562800D8A405D0010E666F604B612B04D02B0EF9
:105638006519D8B4F9D7000E656F000E686F000EB3
:10564800696F000E6A6F000E6B6F000E676F66B9A8
:105658000AD060C0D9FF61C0DAFF2E0EDE18D8A4C8
:1056680002D066893DD060C0D9FF61C0DAFFDF5043
:10567800DCEC59F0D8A037D000016683090E651913
:10568800D8B42CD066B96707652B68C00BF069C021
:105698000CF06AC00DF06BC00EF00A0E0F6E000E13
:1056A800106E000E116E000E126EF6EC55F00BC067
:1056B80068F00CC069F00DC06AF00EC06BF060C0F5
:1056C800D9FF61C0DAFFDF50646FD00E64276451E0
:1056D8006827000E69236A236B2302D066A9672B0B
:1056E800604B612BB4D7000E0001656F60C0D9FF15
:1056F80061C0DAFF650EDE18D8B408D060C0D9FFE3
:1057080061C0DAFF450EDE18D8A462D0604B612B69
:1057180060C0D9FF61C0DAFF2D0EDE18D8A402D010
:10572800668708D060C0D9FF61C0DAFF2B0EDE188B
:10573800D8A402D0604B612B60C0D9FF61C0DAFFEA
:10574800300EDE18D8B4F6D760C0D9FF61C0DAFFD2
:10575800DF50DCEC59F0D8A038D060C0D9FF61C068
:10576800DAFFDF50D00F0001656F604B612B60C01E
:10577800D9FF61C0DAFFDF50DCEC59F0D8A025D0A2
:1057880060C0D9FF61C0DAFFDF500001646F655166
:105798000A0DF3506425D00F656F604B612B60C014
:1057A800D9FF61C0DAFFDF50DCEC59F0D8A00DD08A
:1057B80060C0D9FF61C0DAFFDF500001646F655136
:1057C8000A0DF3506425D00F656F000166B7656D4B
:1057D8006551672762516311D8A466A308D062C0D7
:1057E800D9FF63C0DAFF60C0DEFF61C0DDFF68C0BB
:1057F8000BF069C00CF06AC00DF06BC00EF0010E22
:1058080076EC46F00BC068F00CC069F00DC06AF089
:105818000EC06BF068C00BF069C00CF06AC00DF0E8
:105828006BC00EF0000E0F6E000E106E000E116EA3
:10583800000E126E19EC52F0D8A00AD0000E00012A
:10584800606F000E616F000E626F000E636F1200D2
:10585800000167AF6DD0676D1DD068C032F069C0B8
:1058680033F06AC034F06BC035F0F90E366E020EB4
:10587800376E150E386E500E396E06EC39F032C0A0
:1058880068F033C069F034C06AF035C06BF0F60ECA
:10589800000167276751800A760FD8A01DD0DDD791
:1058A80068C032F069C033F06AC034F06BC035F0BC
:1058B800000E366E000E376E200E386E410E396EB1
:1058C80006EC39F032C068F033C069F034C06AF0D1
:1058D80035C06BF0000167076751D8A4E1D768C0ED
:1058E80019F069C01AF06AC01BF06BC01CF0000EFA
:1058F8001D6E000E1E6E800E1F6E000E206EFAECDE
:105908004DF0D8B084D0000166A109D0000E606FB8
:10591800000E616F800E626F800E636F1200000EC2
:10592800606F000E616F800E626F000E636F120071
:105938006751800A7F0FD8B01ED069D068C019F0AF
:1059480069C01AF06AC01BF06BC01CF0F90E1D6E1E
:10595800020E1E6E150E1F6E500E206E94EC34F063
:1059680019C068F01AC069F01BC06AF01CC06BF05F
:10597800F60E000167270A0E6761E0D71CD068C0E1
:1059880019F069C01AF06AC01BF06BC01CF0000E59
:105998001D6E000E1E6E200E1F6E410E206E94ECC2
:1059A80034F019C068F01AC069F01BC06AF01CC056
:1059B8006BF0000167076751D8A4E1D7FF0E196E95
:1059C800FF0E1A6E7F0E1B6E7F0E1C6E68C01DF0D8
:1059D80069C01EF06AC01FF06BC020F0FAEC4DF0F1
:1059E800D8B015D0000166A109D0000E606F000E76
:1059F800616F800E626F800E636F1200000E606F21
:105A0800000E616F800E626F000E636F120000015E
:105A180066A112D068C00BF069C00CF06AC00DF026
:105A28006BC00EF0AEEC58F00BC068F00CC069F01B
:105A38000DC06AF00EC06BF068C060F069C061F01C
:105A48006AC062F06BC063F01200000E0101616F62
:105A5800FCD120EE03F07C51D9267D51DA22DF50AB
:105A6800D8A402D0010E120020EE03F07C51D926F2
:105A78007D51DA22DFAE02D0100E01D01C0E896FE4
:105A8800000E8E6F8A0E0B6E7CC00CF07DC00DF080
:105A98008E51040DF35089250E6E030E0F6E32ECF5
:105AA80040F08AC019F08BC01AF08CC01BF08DC072
:105AB8001CF0000E1D6E000E1E6E200E1F6E410E95
:105AC800206E94EC34F000018E51040DF3CF81F078
