:020000040000FA
:040000005FEF01F0BD
:100008005B82D9CF03F0DACF04F022D0AECF76F1FD
:10001800010138513711361104E1040E355DD8A0BD
:1000280002D0000E756F320E7519D8B47507640EBC
:100038007525D96EDA6A030EDA2276C1DFFF752BD1
:10004800000E356F000E366F000E376F000E386FDA
:100058009EBADCD79EB89DA854D0000E0101712528
:10006800D96EDA6A030EDA22DF50AD6E712B705149
:100078007119D8B404D0320E7119D8A403D09D9840
:10008800000E716F000E356F000E366F000E376F61
:10009800000E386F36D071B4D0A20BD05A04D8A451
:1000A80008D074CF76F101017651D8A404D0FF00AE
:1000B80002D074CF76F1D08276C173FF320E01017F
:1000C8007419D8B47407080E7619D8A405D07451D9
:1000D800D8B402D0740715D00D0E7619D8B404D050
:1000E8000A0E7619D8A404D0000E766F7429726FA0
:1000F8009E0E7425D96EDA6A020EDA2276C1DFFF07
:10010800742BA4AAD0D0C7D75904D8A460D058500B
:10011800D8A404D0030E5A18D8B42CD02C0E010140
:100128004F5D010E5059D8B002D0899801D0898806
:10013800898A4F51016E5051026E4F4B502B910ED0
:10014800015C010E0258D8A010D082B20AD0890EE4
:100158004F5D130E5059D8A008D0000E506F000EF6
:1001680003D0010E506F900E4F6F000E526F000EAD
:10017800516F81D02C0E0101515D010E5259D8B03A
:1001880003D08988899A02D08988898A5151016E59
:100198005251026E514B522B910E015C010E0258C6
:1001A800D8A010D082A20AD0890E515D130E5259E0
:1001B800D8A008D0000E526F000E03D0010E526F67
:1001C800900E516F000E506F000E4F6F54D0020EFC
:1001D8005918D8A450D05850D8A404D0030E5A188F
:1001E800D8B424D0580E01014F5D020E5059D8B032
:1001F80002D0899801D08988898A4F51016E50515F
:10020800026E4F4B502BBD0E015C020E0258D8A057
:10021800ACD782A207D0890E4F5D130E5059D8B0C3
:100228009CD7A3D7020E506FBC0E9ED7580E010163
:10023800515D020E5259D8B003D08988899A02D0EC
:100248008988898A5151016E5251026E514B522B45
:10025800BD0E015C020E0258D8A0B4D782B207D0F6
:10026800890E515D130E5259D8B0A4D7ABD7020EE0
:10027800526FBC0EA6D7010E01013927000E3A2392
:100288003B233C23010E3527000E36233723382322
:1002980069076929D8A406D066C167FF0A0E696F85
:1002A800010E686F7E907EB02FD704C0DAFF03C0BE
:1002B800D9FF5B921100C5EF47F097EF0BF0250EC1
:1002C800A219D8B431D07D51D96EDA6A020ED92676
:1002D800DE50DE10D8B413D07D51D96EDA6A020E22
:1002E800D92602D897EF0BF00500FA6EDE50FD6EA6
:1002F800DE50FE6EF850FF6EFA50A25112007D518A
:10030800D96EDA6ADECF81F0DDCF82F081C0D9FF05
:1003180082C0DAFFA2C0DFFF7D51D96EDA6ADE2A19
:10032800000EDD2297EF0BF0000E9D6F000E9C6F04
:10033800000EA16F000EA06F07D00001A08702D0A9
:100348000001A0857E4B7F2B7EC0F6FF7FC0F7FFA4
:10035800F86A0F0EF76403D00800F55005D0F6CF01
:10036800E9FFF7CFEAFFEF502D0AD8B4E6D71D0A08
:10037800D8B4E6D70001A0B7A0957EC0F6FF7FC02D
:10038800F7FFF86A0F0EF76403D00800F55005D0A0
:10039800F6CFE9FFF7CFEAFFEF50F1EC51F0D8A024
:1003A80049D0000E00019D6F000E9C6F9CC009F0A3
:1003B8009DC00AF0000E0C6E0A0E0B6E6EEC51F02A
:1003C80009C09CF00AC09DF0D00E0001816FFF0E9D
:1003D800826F7EC0F6FF7FC0F7FFF86A0F0EF764E2
:1003E80003D00800F55005D0F6CFE9FFF7CFEAFFB4
:1003F800EF500001836F846B8151832782518423DE
:1004080083519C2784519D237E4B7F2B7EC0F6FF12
:100418007FC0F7FFF86A0F0EF76403D00800F550A5
:1004280005D0F6CFE9FFF7CFEAFFEF50F1EC51F036
:10043800D8B0BCD77EC0F6FF7FC0F7FFF86A0F0EB2
:10044800F76403D00800F55005D0F6CFE9FFF7CFE1
:10045800EAFFEF502E0AD8A44ED00001A18D7E4BA2
:100468007F2B000E9F6F000E9E6F30D09EC009F04C
:100478009FC00AF0000E0C6E0A0E0B6E6EEC51F067
:1004880009C09EF00AC09FF0D00E0001816FFF0ED8
:10049800826F7EC0F6FF7FC0F7FFF86A0F0EF76421
:1004A80003D00800F55005D0F6CFE9FFF7CFEAFFF3
:1004B800EF500001836F846B81518327825184231D
:1004C80083519E2784519F237E4B7F2B7EC0F6FF4E
:1004D8007FC0F7FFF86A0F0EF76403D00800F550E5
:1004E80005D0F6CFE9FFF7CFEAFFEF50F1EC51F076
:1004F800D8A041D1BBD7000E00019F6F000E9E6FA0
:10050800A18939D1A1856BD1A08F69D18051D96ECC
:10051800DA6A020EDF26DF5CD96EDA6ADECF8AF08D
:10052800DECF8BF08A518B11D8A404D05E0E8A6F6F
:10053800FC0E8B6F000E8D6F000E8C6F03D00001C8
:100548008C4B8D2B8C518A25816F8D518B21826F1D
:1005580081C0F6FF82C0F7FFF86A0F0EF76403D078
:100568000800F55005D0F6CFE9FFF7CFEAFFEF50C6
:100578000009D8A4E4D700019E519F11D8B40ED029
:100588008C519E5D9F51800A816F8D51800A8159DF
:10059800D8B004D09EC08CF09FC08DF09C518C5D6B
:1005A8009D518D59D8B005D08C519C5F8D519D5B64
:1005B80004D0000E9D6F000E9C6FA0A72FD08BD08B
:1005C8007D51D96EDA6A020ED926DE50DE10D8B413
:1005D80012D07D51D96EDA6A020ED92601D81ED002
:1005E8000500FA6EDE50FD6EDE50FE6EF850FF6EAE
:1005F800FA50200E12007D51D96EDA6ADECF81F0F2
:10060800DDCF82F081C0D9FF82C0DAFF200EDF6E15
:100618007D51D96EDA6ADE2A000EDD2200019C07C0
:10062800D8A09D079C29CCE19D29D8B454D0C8D71F
:100638007D51D96EDA6A020ED926DE50DE10D8B4A2
:1006480025D07D51D96EDA6A020ED92601D81AD082
:100658000500FA6EDE50FD6EDE50FE6EF850FF6E3D
:10066800FA508AC0F6FF8BC0F7FFF86A0F0EF764DE
:1006780003D00800F55005D0F6CFE9FFF7CFEAFF21
:10068800EF50120000018A4B8B2B25D08AC0F6FF51
:100698008BC0F7FFF86A7D51D96EDA6ADECF81F038
:1006A800DDCF82F081C0D9FF82C0DAFF0F0EF76478
:1006B80003D00800F55005D0F6CFE9FFF7CFEAFFE1
:1006C800EF50DF6E00018A4B8B2B7D51D96EDA6AB1
:1006D800DE2A000EDD228C07D8A08D078C29A8E120
:1006E8008D29D8A4A5D7A0B730D097EF0BF07D51AE
:1006F800D96EDA6A020ED926DE50DE10D8B412D0CE
:100708007D51D96EDA6A020ED92601D81ED00500AD
:10071800FA6EDE50FD6EDE50FE6EF850FF6EFA5037
:10072800200E12007D51D96EDA6ADECF81F0DDCF5E
:1007380082F081C0D9FF82C0DAFF200EDF6E7D51C2
:10074800D96EDA6ADE2A000EDD2200019C07D8A0E5
:100758009D079C29CCE19D29D8B497EF0BF0C7D70A
:10076800A20E8A6F8B6B000E8D6F010E8C6F03D7F4
:10077800C00EA01334D000017E51816F7F51826F6B
:100788007E4B7F2B81C0F6FF82C0F7FFF86A0F0E01
:10079800F76403D00800F55005D0F6CFE9FFF7CF8E
:1007A800EAFFEF500001A26FA251000AD8B4B4EFDB
:1007B8000BF0580AD8B4A8D63C0AD8B410D0020A0C
:1007C800D8B4A0D60F0AD8B40AD01A0AD8B49ED67C
:1007D800060AD8B4CDD70D0AD8B496D6C1D7070E15
:1007E800A115D8B4EEEF08F0A1A904D0000E9F6FB0
:1007F800060E9E6F8051D96EDA6ADFCF81F0040E43
:10080800DF268151D96EDA6ADECF98F0DECF99F013
:10081800DECF9AF0DECF9BF09BAF15D098C005F0E5
:1008280099C006F09AC007F09BC008F0DCEC50F0C5
:1008380005C098F006C099F007C09AF008C09BF070
:10084800030E0001A013000E8F6F000E8E6F98C06C
:1008580005F099C006F09AC007F09BC008F0000E9A
:10086800096E000E0A6E000E0B6E000E0C6E7DEC0B
:100878004AF0D8B083D000019A359B35820F8E6F2D
:100888008F6BFF0E8F238E07D8A08F078EC009F0BD
:100898008FC00AF0000E0C6E030E0B6E6EEC51F05A
:1008A80009C08EF00AC08FF08EC06CF08FC06DF05A
:1008B800000E00016F6F0A0E6E6FC2EC4AF06CC03A
:1008C8008EF06DC08FF08FAF03D08E07D8A08F0742
:1008D8008E510008AAEC2DF074C090F075C091F00C
:1008E80076C092F077C093F090C00DF091C00EF0F2
:1008F80092C00FF093C010F098C011F099C012F098
:100908009AC013F09BC014F095EC2FF00DC090F036
:100918000EC091F00FC092F010C093F090C013F089
:1009280091C014F092C015F093C016F0000E176E27
:10093800000E186E800E196E3F0E1A6EF6EC46F019
:10094800D8B005D000018E07D8A08F0717D090C067
:1009580013F091C014F092C015F093C016F0000E79
:10096800176E000E186E200E196E410E1A6EF6ECF8
:1009780046F0D8A003D000018E4B8F2B00019FBFFB
:1009880006D09F5121E10D0E9E5DD8B01DD098C0B4
:100998003FF099C040F09AC041F09BC042F09E5190
:1009A8005FEC35F026C043F027C044F028C045F07E
:1009B80029C046F02BEC31F03FC098F040C099F0C8
:1009C80041C09AF042C09BF000018FBF06D08F5102
:1009D8002FE10A0E8E5DD8B02BD098C005F099C0D3
:1009E80006F09AC007F09BC008F0000E096E000ED2
:1009F8000A6E000E0B6E000E0C6E7DEC4AF0D8B03D
:100A080062D098C04FF099C050F09AC051F09BC086
:100A180052F0ECEC48F04F50501051105210D8B42E
:100A28008FBF51D08F5104E1020E8E5DD8A04BD0FC
:100A380090C013F091C014F092C015F093C016F056
:100A48005F0E176E700E186E890E196E400E1A6EB4
:100A5800F6EC46F0D8B003D00001F70E02D0000142
:100A6800F80E8E27FF0E8F238E51AAEC2DF074C03E
:100A780090F075C091F076C092F077C093F098C06E
:100A880005F099C006F09AC007F09BC008F090C026
:100A980009F091C00AF092C00BF093C00CF0B9ECC9
:100AA80044F005C094F006C095F007C096F008C061
:100AB80097F0000E0001986F000E996F000E9A6F64
:100AC800000E9B6F3CD098C04FF099C050F09AC070
:100AD80051F09BC052F0ECEC48F04FC094F050C07D
:100AE80095F051C096F052C097F098C04FF099C059
:100AF80050F09AC051F09BC052F094C005F095C0D8
:100B080006F096C007F097C008F0000EE8EC40F039
:100B180005C053F006C054F007C055F008C056F0A1
:100B280069EC4FF04FC098F050C099F051C09AF05E
:100B380052C09BF0000E00018F6F000E8E6F010EE9
:100B4800A26F0A0EA219D8B418D0A251040D310E02
:100B5800F324F66EF10EF420F76E0900F550945D5B
:100B68000900F55095590900F55096590900F550B6
:100B78009759D8A002D0A22BE4D7A2519E25816F05
:100B8800000E9F21826F8E5181278F5182238151C0
:100B98009C5F82519D5B9E519F11D8B403D09C07E6
:100BA800D8A09D07A0C081F0030E8117D8B403D048
:100BB8009C07D8A09D07A0A570D0A0C081F0030E07
:100BC8008117D8B461D07D51D96EDA6A020ED92660
:100BD800DE50DE10D8B412D07D51D96EDA6A020E1A
:100BE800D92601D851D00500FA6EDE50FD6EDE50D0
:100BF800FE6EF850FF6EFA502D0E12007D51D96E20
:100C0800DA6ADECF81F0DDCF82F081C0D9FF82C001
:100C1800DAFF2D0EDF6E7D51D96EDA6ADE2A000EFC
:100C2800DD2232D07D51D96EDA6A020ED926DE5025
:100C3800DE10D8B412D07D51D96EDA6A020ED926E8
:100C480001D81ED00500FA6EDE50FD6EDE50FE6E35
:100C5800F850FF6EFA50300E12007D51D96EDA6AE4
:100C6800DECF81F0DDCF82F081C0D9FF82C0DAFF0C
:100C7800300EDF6E7D51D96EDA6ADE2A000EDD2273
:100C880000019C07D8A09D0700019DBFE0D09D51A1
:100C9800C9E19C05D8A0DBD0C5D7A0A733D039D0EF
:100CA8007D51D96EDA6A020ED926DE50DE10D8B42C
:100CB80012D07D51D96EDA6A020ED92601D81ED01B
:100CC8000500FA6EDE50FD6EDE50FE6EF850FF6EC7
:100CD800FA50200E12007D51D96EDA6ADECF81F00B
:100CE800DDCF82F081C0D9FF82C0DAFF200EDF6E2F
:100CF8007D51D96EDA6ADE2A000EDD2200019C07DA
:100D0800D8A09D079DBF05D09D51CAE19C05D8B0CC
:100D1800C7D7A0C081F0030E8117D8B498D07D51F1
:100D2800D96EDA6A020ED926DE50DE10D8B412D097
:100D38007D51D96EDA6A020ED92601D888D005000D
:100D4800FA6EDE50FD6EDE50FE6EF850FF6EFA5001
:100D58002D0E12007D51D96EDA6ADECF81F0DDCF1B
:100D680082F081C0D9FF82C0DAFF2D0E69D094C00D
:100D780005F095C006F096C007F097C008F0A2519C
:100D8800040D310EF324F66EF10EF420F76E09000F
:100D9800F5CF09F00900F5CF0AF00900F5CF0BF0FF
:100DA8000A00F5CF0CF005EC4BF005C090F006C03A
:100DB80091F007C092F008C093F090C012F091C073
:100DC80013F092C014F093C015F00A0E166E000EC0
:100DD800176E000E186E000E196E7BEC4DF012C0E7
:100DE80090F013C091F014C092F015C093F07D51AB
:100DF800D96EDA6A020ED926DE50DE10D8B413D0C6
:100E08007D51D96EDA6A020ED92601D820D00500A4
:100E1800FA6EDE50FD6EDE50FE6EF850FF6EFA5030
:100E28009051300F12007D51D96EDA6ADECF81F011
:100E3800DDCF82F081C0D9FF82C0DAFF9051300F38
:100E4800DF6E7D51D96EDA6ADE2A000EDD220001DE
:100E5800A207A229D8B433D08AD77D51D96EDA6ACD
:100E6800020ED926DE50DE10D8B412D07D51D96ECC
:100E7800DA6A020ED92601D81ED00500FA6EDE50B5
:100E8800FD6EDE50FE6EF850FF6EFA50300E120006
:100E98007D51D96EDA6ADECF81F0DDCF82F081C074
:100EA800D9FF82C0DAFF300EDF6E7D51D96EDA6A63
:100EB800DE2A000EDD2200018E07D8A08F078FBF23
:100EC80005D08F51CAE18E05D8B0C7D79FBF09D0CA
:100ED8009F5104E1090E9E5DD8A003D0080EA26FB1
:100EE80002D09EC0A2F0A2519E5F000E9F5BA2514D
:100EF800D8B42ED07D51D96EDA6A020ED926DE50CA
:100F0800DE10D8B412D07D51D96EDA6A020ED92615
:100F180001D81ED00500FA6EDE50FD6EDE50FE6E62
:100F2800F850FF6EFA502E0E12007D51D96EDA6A13
:100F3800DECF81F0DDCF82F081C0D9FF82C0DAFF39
:100F48002E0EDF6E7D51D96EDA6ADE2A000EDD22A2
:100F58000001A251AAEC2DF074C085F075C086F08E
:100F680076C087F077C088F098C011F099C012F069
:100F78009AC013F09BC014F085C00DF086C00EF027
:100F880087C00FF088C010F095EC2FF00DC04FF01F
:100F98000EC050F00FC051F010C052F0ECEC48F009
:100FA8004FC094F050C095F051C096F052C097F0E1
:100FB80097D094C005F095C006F096C007F097C08A
:100FC80008F0A251040D310EF324F66EF10EF42050
:100FD800F76E0900F5CF09F00900F5CF0AF009000E
:100FE800F5CF0BF00A00F5CF0CF005EC4BF005C07F
:100FF80090F006C091F007C092F008C093F090C03E
:1010080012F091C013F092C014F093C015F00A0EBC
:10101800166E000E176E000E186E000E196E7BEC21
:101028004DF012C090F013C091F014C092F015C0AA
:1010380093F07D51D96EDA6A020ED926DE50DE10A1
:10104800D8B413D07D51D96EDA6A020ED92601D8E8
:1010580020D00500FA6EDE50FD6EDE50FE6EF850B0
:10106800FF6EFA509051300F12007D51D96EDA6A36
:10107800DECF81F0DDCF82F081C0D9FF82C0DAFFF8
:101088009051300FDF6E7D51D96EDA6ADE2A000E7C
:10109800DD2294C012F095C013F096C014F097C0EA
:1010A80015F00001A251040D310EF324F66EF10E75
:1010B800F420F76E0900F5CF16F00900F5CF17F008
:1010C8000900F5CF18F00A00F5CF19F07BEC4DF0C8
:1010D80012C094F013C095F014C096F015C097F0A4
:1010E800A207A229D8B433D064D77D51D96EDA6A61
:1010F800020ED926DE50DE10D8B412D07D51D96E3A
:10110800DA6A020ED92601D81ED00500FA6EDE5022
:10111800FD6EDE50FE6EF850FF6EFA50300E120073
:101128007D51D96EDA6ADECF81F0DDCF82F081C0E1
:10113800D9FF82C0DAFF300EDF6E7D51D96EDA6AD0
:10114800DE2A000EDD2200019E07D8A09F079E51CF
:101158009F11D8A4CAD7A0B79DBFE5D29D5103E17E
:101168009C05D8A0E0D27D51D96EDA6A020ED92644
:10117800DE50DE10D8B412D07D51D96EDA6A020E74
:10118800D92601D81ED00500FA6EDE50FD6EDE505D
:10119800FE6EF850FF6EFA50200E12007D51D96E87
:1011A800DA6ADECF81F0DDCF82F081C0D9FF82C05C
:1011B800DAFF200EDF6E7D51D96EDA6ADE2A000E64
:1011C800DD2200019C07D8A09D079C519D11D8B431
:1011D800AAD2C9D7A0C081F0C00E8117D8A41ED04A
:1011E8008051D96EDA6ADF50DF2ADF2AD96EDA6ACF
:1011F800DECF94F0DDCF95F0000E95BFFF0E966F11
:10120800976F97AF1DD0030EA013971F961F951FBA
:10121800946D000E95239623972312D08051D96E92
:10122800DA6ADF50DF2ADF2AD96EDA6ADECF81F088
:10123800DDCF82F081C094F082C095F0966B976BF9
:101248009E519F11D8A445D094519511961197118C
:10125800D8A43FD09E4B9F2B3CD0010EA26F0A0E04
:10126800A219D8B441D0A251040D310EF324F66E60
:10127800F10EF420F76E0900F550945D0900F55061
:1012880095590900F55096590900F5509759D8A075
:101298002BD0A22BE4D7010EA26F080EA219D8B446
:1012A80023D0A251040D140EF324F66EE60EF4209A
:1012B800F76E0900F550945D0900F550955909003D
:1012C800F55096590900F5509759D8A00DD0A22B82
:1012D800E4D7A051C00B000AD8B4BFD7800AD8B44D
:1012E800DAD7400AD8B4B9D7A251816F826B9E5120
:1012F800815D8251800A836F9F51800A8359D8B0DB
:1013080003D09EC0A2F010D0A251816F826B815190
:101318009E5D9F51800A836F8251800A8359D8B09D
:1013280003D0A2C09EF09F6B9C519D11D8B409D0E8
:10133800A0C081F0030E8117D8B403D09C07D8A0B1
:101348009D07A1AD13D09C519E5D9F51800A816F6E
:101358009D51800A8159D8B005D09E519C5F9F51FC
:101368009D5B04D0000E9D6F000E9C6FA251816F93
:10137800826B9C51815D8251800A836F9D51800AE6
:101388008359D8B005D0A2519C5F000E9D5B04D054
:10139800000E9D6F000E9C6FA0A56CD0A0C081F0C0
:1013A800030E8117D8B42ED07D51D96EDA6A020E99
:1013B800D926DE50DE10D8B412D07D51D96EDA6A43
:1013C800020ED92601D81ED00500FA6EDE50FD6E39
:1013D800DE50FE6EF850FF6EFA502D0E12007D5151
:1013E800D96EDA6ADECF81F0DDCF82F081C0D9FF15
:1013F80082C0DAFF2D0EDF6E7D51D96EDA6ADE2AE1
:10140800000EDD2200019C519D11D8B445D17D51BB
:10141800D96EDA6A020ED926DE50DE10D8B412D0A0
:101428007D51D96EDA6A020ED92601D81ED0050080
:10143800FA6EDE50FD6EDE50FE6EF850FF6EFA500A
:10144800300E12007D51D96EDA6ADECF81F0DDCF21
:1014580082F081C0D9FF82C0DAFF300EDF6E7D5185
:10146800D96EDA6ADE2A000EDD2200019C07D8A0B8
:101478009D07C9D79C519D11D8A4A0B736D07D51DE
:10148800D96EDA6A020ED926DE50DE10D8B412D030
:101498007D51D96EDA6A020ED92601D81ED0050010
:1014A800FA6EDE50FD6EDE50FE6EF850FF6EFA509A
:1014B800200E12007D51D96EDA6ADECF81F0DDCFC1
:1014C80082F081C0D9FF82C0DAFF200EDF6E7D5125
:1014D800D96EDA6ADE2A000EDD2200019C07D8A048
:1014E8009D079C519D11D8A4CAD7A0C081F0030EB6
:1014F8008117D8B4D1D07D51D96EDA6A020ED926B7
:10150800DE50DE10D8B412D07D51D96EDA6A020EE0
:10151800D92601D8C1D00500FA6EDE50FD6EDE5026
:10152800FE6EF850FF6EFA502D0E12007D51D96EE6
:10153800DA6ADECF81F0DDCF82F081C0D9FF82C0C8
:10154800DAFF2D0EDF6EA2D09EC081F09FC082F020
:10155800D89081378237D89081378237310E8125EC
:10156800F66EF10E8221F76E0900F5CF09F0090039
:10157800F5CF0AF00900F5CF0BF00A00F5CF0CF013
:1015880094C005F095C006F096C007F097C008F023
:1015980005EC4BF005C012F006C013F007C014F0BC
:1015A80008C015F00A0E166E000E176E000E186EA3
:1015B800000E196E7BEC4DF01250300FA26F3ED02A
:1015C80094C005F095C006F096C007F097C008F0E3
:1015D8009EC081F09FC082F0D89081378237D89022
:1015E80081378237140E8125F66EE60E8221F76E5A
:1015F8000900F5CF09F00900F5CF0AF00900F5CF89
:101608000BF00A00F5CF0CF005EC4BF005500F0B72
:10161800896FD20E8925F66EF76AFA0EF72208004E
:10162800F5CFA2F00BD0A051C00B000AD8B48CD7CC
:10163800800AD8B4C5D7400AD8B486D77D51D96EA8
:10164800DA6A020ED926DE50DE10D8B412D07D51E7
:10165800D96EDA6A020ED92601D81ED00500FA6EB4
:10166800DE50FD6EDE50FE6EF850FF6EFA50A2514D
:1016780012007D51D96EDA6ADECF81F0DDCF82F0BB
:1016880081C0D9FF82C0DAFFA2C0DFFF7D51D96EC9
:10169800DA6ADE2A000EDD2200019E07D8A09F0725
:1016A8009E29C1E19F29D8A4BED7A0B79DBF3BD032
:1016B8009D5103E19C05D8A036D07D51D96EDA6AD8
:1016C800020ED926DE50DE10D8B412D07D51D96E64
:1016D800DA6A020ED92601D81ED00500FA6EDE504D
:1016E800FD6EDE50FE6EF850FF6EFA50200E1200AE
:1016F8007D51D96EDA6ADECF81F0DDCF82F081C00C
:10170800D9FF82C0DAFF200EDF6E7D51D96EDA6A0A
:10171800DE2A000EDD2200019C07D8A09D079C51FF
:101728009D11D8A4CAD700017E51816F7F51826F65
:101738007E4B7F2B81C0F6FF82C0F7FFF86A0F0E41
:10174800F76403D00800F55005D0F6CFE9FFF7CFCE
:10175800EAFFEF500001A26FA251D8A463EF01F095
:10176800000E7E6F000E7D6F1200000E0101DA6F11
:10177800000EDB6F050ED56F000ED06F000EC06F28
:10178800000ED36F000ED46F000ED16F000ED26F13
:10179800000EC16F010ECF6F010EBF6F21EEC2F0B8
:1017A8000B0EDE6AE806FDE2000EBB6F000EBC6F92
:1017B800000EBD6F000EBE6F8EEC46F0D1EC3CF013
:1017C800FDC009F0FEC00AF0000E0C6E0A0E0B6E8A
:1017D8006EEC51F009C0EEF00AC0EFF0898646ECD5
:1017E8004BF07BEC50F0D082ACEC3EF00101DF6FA7
:1017F800020EDF19D8A402D0800E586E0001F251F3
:10180800D8A488EC41F001017251D8A454EC1BF023
:101818005E51D8B412D038513711361104E1070E91
:10182800355DD8A00AD08A8A000E066E010E056EB4
:10183800EFEC4FF09D88000E5E6F7151D8B4ACA2EA
:1018480001D08A9A9FEC49F0A30E946E00F000F044
:101858008250210B0101DF6FDF39E8461F0BE36F70
:10186800DF51DF25020BE311E36F8150010BE31118
:10187800E36F820E946E070EE319D8A404D0E251E8
:10188800E319D8B403D0E35106EC24F0010E0101AA
:101898006D651DD0190E6D611AD0880E3125AD6F9A
:1018A800130E3221AE6F000E3321AF6F000E3421BC
:1018B800B06F3951AD5D3A51AE593B51AF593C51BA
:1018C800B059D8B004D06C51D8B41DEC46F06D5165
:1018D800D8A431D0060EE319D8A42DD00001F851B0
:1018E800D8B429D00101CE51D8A425D0020E0001C8
:1018F800F76121D0030EF619D8A41DD0F851FF0ABC
:10190800030BF86FD60E5816000E576E000E010125
:101918005F6F0001F705D8A40AD0000E2B6EA80E41
:101928002A6EF8C02CF02D6A000EACEC50F0050EB3
:101938000101CE6F08D00101CE51D8B404D0070EF2
:10194800E319D8B4CE0781A402D0010E01D0000E4D
:10195800CF19D8A403D0DA51D8B4F3D0C12BC1051C
:10196800AD6F060EAD6103D0DA51D8B4EDD0000EDC
:1019780081B4010ECF6FCF51D8B475D0D7D0010143
:101988006251D8B405D0000E626F010E5A6E02D0B3
:10199800010E626F470E0001C06FFB0EC16F62C17E
:1019A800C2F0C36BF3EC50F06DD0010E0101626F11
:1019B80069D00101DA51D8A40AD0010EDA6F39C111
:1019C800BBF13AC1BCF13BC1BDF13CC1BEF1DA513A
:1019D800D8B458D0DC0EBB25AD6F050EBC21AE6F58
:1019E800000EBD21AF6F000EBE21B06F3951AD5D45
:1019F8003A51AE593B51AF593C51B059D8B042D089
:101A0800030E5A18D8A43ED0010E5A6E0001F251A6
:101A1800D8A402D00F0E576E020E0101DA6F32D031
:101A2800020EF819D8A402D0010EF86FF705D8A451
:101A380029D0F851D8B426D0000E2B6EA80E2A6EE5
:101A4800F8C02CF02D6A000EACEC50F01BD0030E41
:101A58005A18D8A417D0010E5A6EF251D8A412D031
:101A68000F0E576E0FD00001F651010AD8B487D770
:101A7800030AD8B49AD7010AD8B49BD7070AD8B4AE
:101A8800CFD7E5D70101AB05D8B458A802D081A2B9
:101A980058983C0E6F6F898654D0000E0101626F12
:101AA800010E5A6E4ED0020E0101DA19D8B424D0B4
:101AB8000001F805D8A402D0020E05D0020EF819CC
:101AC800D8A402D0010EF86FD60E5816000E576E25
:101AD800000E01015F6F0001F705D8A40DD0F85181
:101AE800D8B40AD0000E2B6EA80E2A6EF8C02CF0BF
:101AF8002D6A000EACEC50F0000E0101DA6F21D017
:101B0800F805D8A402D0020EF86FF705D8A419D0AA
:101B1800F851D8B416D0000E2B6EA80E2A6EF8C055
:101B28002CF02D6A000EACEC50F00BD00001F651F1
:101B3800020AD8B4B2D7010AD8B4B5D7070AD8B4BC
:101B4800DFD7000E0101C16FAB05D8B481A209D05F
:101B580081A207D0010E5A6E100E586E000E0001B9
:101B6800F36F050E5A18D8A426D001013C513B1139
:101B780006E1E90E395D030E3A59D8A01CD0000ED3
:101B88002B6E010E2A6E000E2D6E000E2C6E0001BB
:101B9800F751ACEC50F0530E0001C06FF80EC16F56
:101BA800F3EC50F0000E0101396F000E3A6F000E91
:101BB8003B6F000E3C6F5A04D8A4DAD0000EBD6EFD
:101BC80082848A98000E01013D6F6CEC4CF0010193
:101BD800DD6FDD05D8A407D0589A5890000E576ECF
:101BE800000E776FC5D0020EDD19D8B404D0020EEE
:101BF800DD19D8A4F5D75850D8A4F2D75750D8A48F
:101C0800EFD76251D8B4ECD7020E7719D8A4ACD06C
:101C1800DB2BDB05AD6F190EAD65AAD0000ED36FB7
:101C2800ECEC49F07E0E0001C06FF90EC16F5BC18C
:101C3800C2F05CC1C3F0FBC0C4F0FCC0C5F0F3EC5B
:101C480050F0FB5101015B5D0001FC5101015C5941
:101C5800D8B00BD05BC109F05CC10AF0000E0C6E65
:101C68000A0E0B6E6EEC51F00AD0FBC009F0FCC0F6
:101C78000AF0000E0C6E0A0E0B6E6EEC51F009C0E5
:101C880059F10AC05AF1010E0001F76549D0000E5A
:101C98002B6E020E2A6E59C12CF05AC12DF0F75145
:101CA800ACEC50F059C105F05AC106F0076A086A51
:101CB800000EE8EC40F005C026F006C027F007C08B
:101CC80028F008C029F0000E2A6E000E2B6E200E98
:101CD8002C6E410E2D6E1BEC34F026C0D6F127C0B9
:101CE800D7F128C0D8F129C0D9F1070E0001C06F7B
:101CF800F80EC16FD6C1C2F0D7C1C3F0D8C1C4F0C5
:101D0800D9C1C5F0F3EC50F0060E5A6E000E010171
:101D1800396F000E3A6F000E3B6F000E3C6F28D0F3
:101D28005BC109F05CC10AF0000E0C6E0A0E0B6E66
:101D38006EEC51F009C01DF10AC01EF159C19DF1A8
:101D48005AC19EF1010E01013D6F020E5A6E1E0E20
:101D5800D46F3C0E6F6F89862D0E0001C06FFB0E8D
:101D6800C16FF3EC50F004D0020E776F000EDB6FFA
:101D7800060E5A18D8A40CD001013C513B1106E1BB
:101D8800E90E395D030E3A59D8A002D0010E5A6EF9
:101D9800020E5A18D8A4F4D0070EBC64D9D0180E75
:101DA800BC60D6D06CEC4CF00101DD6FDD05D8A429
:101DB8001ED07705D8A419D0DB2BDB05AD6F190E23
:101DC800AD65C6D0010E5A6E130E0001C06FFB0E32
:101DD800C16FF3EC50F0010EF765BAD0050E5A6EDC
:101DE800E90E0101396F030E60D0010E99D0030E80
:101DF800DD19D8A499D0030E7719D8A490D0D305AB
:101E0800D8A48DD0DB2BDB05AD6F190EAD65A0D046
:101E18005850D8A49DD05750D8A49AD0010E00018C
:101E2800F76549D0000E2B6E030E2A6E59C12CF0AF
:101E38005AC12DF0F751ACEC50F059C105F05AC118
:101E480006F0076A086A000EE8EC40F005C026F0C4
:101E580006C027F007C028F008C029F0000E2A6E37
:101E6800000E2B6E200E2C6E410E2D6E1BEC34F0E6
:101E780026C0D6F127C0D7F128C0D8F129C0D9F19A
:101E88002D0E0001C06FF80EC16FD6C1C2F0D7C1C8
:101E9800C3F0D8C1C4F0D9C1C5F0F3EC50F0070EB7
:101EA8005A6E000E0101396F000E3A6F000E3B6F3B
:101EB800000E3C6F4DD059C11DF15AC11EF1C3EC43
:101EC8003DF00009D8A429D0020E01013D6F000E93
:101ED8009E6F000E9D6F010EBFEC20F08A880101F5
:101EE800D469000ED36F030E5A6E000E0001F36F13
:101EF800000E0101396F000E3A6F000E3B6F000EA5
:101F08003C6F6D51D8B4B5EC15F03A0E0001C06FB6
:101F1800FB0EC16FF3EC50F01BD0588619D0030E9E
:101F2800776F000EDB6F14D0D451D8A40ED0140EE6
:101F38005A6E030ED16F000EBD6E8294D60E00014C
:101F4800C06FF90EC16FF3EC50F0000E0101776F0E
:101F5800E60EBC6415D0F10EBC64FDD7F10EBC646E
:101F68000FD0F90EBC600CD06CEC4CF00101DD6FA9
:101F7800040EDD19D8A402D0010E01D0000ED36FD3
:101F8800140E5A18D8A408D00101D151D8A404D0ED
:101F9800020E5A6E8284D469070E5A18D8A415D036
:101FA80001013C513B1106E1E90E395D030E3A5936
:101FB800D8A00BD0000ED36F020E5A6E850E00010A
:101FC800C06FFA0EC16FF3EC50F0030E5A18D8A484
:101FD80067D0070EBC6464D0180EBC6061D06CEC8E
:101FE8004CF00101DD6FDD05D8B403D0DD51D8A474
:101FF8001FD07705D8A41AD0DB2BDB05AD6F190EDF
:10200800AD654ED08A98010E5A6E200E0001C06F41
:10201800FB0EC16FF3EC50F046EC4BF0010E0001E3
:10202800F76502D0050E26D0000E30D0010E32D052
:10203800020EDD19D8A432D0020E7719D8A429D0FF
:10204800DB2BDB05AD6F190EAD652AD08A98020E21
:102058005A6E8D0E0001C06FFA0EC16FF3EC50F08E
:1020680046EC4BF0000E0101D36F010E0001F7653D
:102078000CD0080E5A6EE90E0101396F030E3A6F43
:10208800000E3B6F000E3C6F0BD0010E01013D6F3F
:1020980007D0020E776F000EDB6F02D0000E776F4D
:1020A800080E5A18D8A426D001013C513B1106E16C
:1020B800E90E395D030E3A59D8A01CD0000E2B6EDC
:1020C800040E2A6E000E2D6E000E2C6E0001F751C4
:1020D800ACEC50F0790E0001C06FF80EC16FF3EC54
:1020E80050F0000E0101396F000E3A6F000E3B6F81
:1020F800000E3C6FABA202D0AB98AB8871A202D0A5
:1021080071987188D6CFDFF13C0ED76428D10101D0
:102118007751D8B404D0030E5A18D8B420D1000E81
:10212800D76E000ED66E9BEC4EF0020E5A18D8A44D
:1021380003D0D429D8A4D407140E5A18D8A403D08D
:10214800D151D8A4D1075F51D8B43CD0E8C109F027
:10215800E9C10AF0000E0C6E3C0E0B6E6EEC51F0ED
:1021680001014951AD6F4A51AE6F494B4A2B095095
:10217800AD5D0A50AE59D8A029D0010E5A6E000E96
:102188005F6F000E4A6F000E496F5886000EDF6FB2
:10219800030EDF6501D00AD03D0EDF25D96EDA6A5D
:1021A800010EDA22000EDF6EDF2BF2D7000E2B6E47
:1021B800020E2A6E000E2D6E200E2C6E000EACEC58
:1021C80050F004D0000E4A6F000E496F5750D8A443
:1021D8005706370E6E6102D058B4589458C0ADF106
:1021E800210EAD17D8B41CD0020E0001F76118D02B
:1021F800C3EC3DF00009D8A413D05890589AC10EEA
:102208000001C06FF80EC16FF3EC50F0000E2B6E9A
:10221800020E2A6E58C02CF02D6A000EACEC50F05D
:102228000101D551D8B458B21BD05882010E5A6E4C
:102238009C0E0001C06FF90EC16FF3EC50F0000E58
:102248000101DF6F030EDF6501D00DD03D0EDF25E4
:10225800D96EDA6A010EDA22000EDF6EDF2BF2D7B2
:10226800D551D8A4D507400E6E651BD05884010EF1
:102278005A6E280E0001C06FFA0EC16FF3EC50F0D1
:10228800000E0101DF6F030EDF6501D00AD03D0E9D
:10229800DF25D96EDA6A010EDA22000EDF6EDF2B37
:1022A800F2D758A61FD05896020E0001F819D8A4E4
:1022B8000BD05750D8A406D0BA0EC06FF90EC16F14
:1022C800F3EC50F0588A0AD05750D8A406D0E20E42
:1022D800C06FF80EC16FF3EC50F05880010E5A6EC3
:1022E8003C0E576EB5EC15F00001F851D8B409D082
:1022F8000101BF07BF29D8A404D0010E656F010EE4
:10230800BF6F0001F851D8A42AD0000E0101566F02
:10231800000E556FD251D8A4D207020E0001F76102
:102328001ED00101D251D8A41AD0000EBFEC20F063
:10233800F705D8B40FEC52F0020E5A18D8B404D0EE
:10234800030E5A18D8A406D09DC162F09EC163F04E
:10235800B3EC42F0020E0101D26F0A0ED56F0101F3
:102368006551D8B41DD0020E0001F76119D00ED006
:10237800EFC12FF00001FF5110EC4DF00FD0EEC16E
:102388002FF00001F55110EC4DF008D00101655116
:10239800010AD8B4EDD7030AD8B4F1D7000E656F97
:1023A80001017551D8B4B9D338513711361104E148
:1023B800040E355DD8A0B1D3320E056E030E066E3D
:1023C800640E076E030E086E75C109F00A6A6EEC9A
:1023D8004EF075C173F1000E0101756F320E0001E8
:1023E800D36F030ED46F73C1D5F0B7EC2BF0030E87
:1023F80001010B19D8B4A6D0AAD00001FF51D8B456
:1024080036D00101EF510019D8A431D00001FF5195
:10241800120D0B0EF324D96E020EF420DA6EDE5084
:102428000101021924E1DE500319D8A420D008C103
:102438004AF009C14BF0FFC04CF0910E4D6E010EF1
:102448004E6E22EC27F00101DF6FDF51D8B402D0C5
:102458000A0ED56F0001F551D8B406D0020E01015D
:10246800656F010EC06F59D3D6EC39F056D3010110
:10247800C051D8B452D30001F551D8B44ED301019C
:10248800EE510019D8A449D30001F551120D0B0ED5
:10249800F324D96E020EF420DA6EDE50010102191F
:1024A80055E1DE500319D8A438D308C14AF009C150
:1024B8004BF0F5C04CF0C20E4D6E010E4E6E22EC84
:1024C80027F0000E0101DF6F020EDF6501D035D065
:1024D800DF51040D910EF324D96E010EF420DA6E4B
:1024E800DECF4FF0DECF50F0DECF51F0DECF52F02E
:1024F800DF51040DC20EF324D96E010EF420DA6EFA
:10250800DECF53F0DECF54F0DECF55F0DECF56F0FD
:1025180069EC4FF00101DF51040D910EF324D96EDF
:10252800010EF420DA6E4FC0DEFF50C0DEFF51C04E
:10253800DEFF52C0DEFFDF2BC7D70A0ED56F000EB5
:10254800C06F92D70151040AD8B457D7E6D2020E09
:102558000B19D8B4BAD0C4D00001F7510101001941
:10256800D8A4DBD239EC43F00101DC6FDC29D8B404
:10257800D4D2DC51A3EC4CF0D0D2010E00651DD0B2
:10258800050E00611AD002510311D8B408D00351C6
:1025980006E1050E025DD8B002D0030E0DD003513E
:1025A80004E1810E025DD8A008D0035106E1850E32
:1025B800025DD8B002D0020ED06F0A0E0019D8A45E
:1025C80013D0A80E02190311D8A40ED04F0E061965
:1025D8000BE1490E0719D8A407D00001F251D8A47D
:1025E80003D0010EF26F99D201010051D8B406D080
:1025F8000001F75101010019D8A48FD239EC43F03A
:102608000101DC6FDC29D8B403D0DC5136EC4AF088
:10261800020E0101D06F81D20051D8B406D000015A
:10262800F75101010019D8A478D202050311D8A4E2
:1026380041D0010E0001F7653DD0F7510101AD6FA2
:10264800AE6BD890AD37AE3721EE08F0DECFAFF1E4
:10265800DDCFB0F1AD51AF27AE51B023FE0EAF259F
:10266800D96EFF0EB021DA6EDF50B16FB151B36F82
:10267800B26B0001F7510101B46FB56BD890B43754
:10268800B53721EE08F0DECFB6F1DDCFB7F1B451A2
:10269800B627B551B723FF0EB625D96EFF0EB72161
:1026A800DA6EDF50B86FB851B211B96FB351BA6F63
:1026B800020ED06F39EC43F00101DC6FDC29D8B48D
:1026C8002CD2DC5124EC42F028D20151040AD8B4AF
:1026D80043D7020AD8B451D7160AD8B49DD71DD209
:1026E800F40E0001C06FFA0EC16FF3EC50F015D272
:1026F8000051D8A437D0010E0001F76533D020D09F
:10270800B9C19DF1BAC19EF1020E5A18D8B404D0CD
:10271800030E5A18D8A406D09DC162F09EC163F07A
:10272800B3EC42F00A0E0101D56F1CD006C158F077
:102738005850D8B417D0010E5A6E3C0E576E12D0AE
:1027480021EE02F0DECFADF1DDCFAEF10101AE51E9
:10275800000AD8A407D0AD51010AD8B4D1D7030ACA
:10276800D8B4E4D70001F75101010019D8B444D016
:10277800DCD1010E3FD006510711D8A402D05886EB
:10278800D4D106C162F007C163F0B3EC42F0020E87
:102798005A6E1E0E0101D46F3C0E6F6F8986C5D12B
:1027A80006510711D8B4EBD706C162F007C163F030
:1027B800B3EC42F08A88000E0101D36F030E5A6E03
:1027C800D469000E0001F36F000E0101396F000E8D
:1027D8003A6F000E3B6F000E3C6F6D51D8B4B5ECEC
:1027E80015F03A0E0001C06FFB0EC16FF3EC50F00C
:1027F8009CD1020E5A6E99D121EE02F0DECFADF1D6
:10280800DDCFAEF1AE51000AD8A48FD1AD51810A07
:10281800D8B4AFD7030AD8B4AED7010AD8B4C0D752
:10282800070AD8B4E6D781D10001F705D8A47DD12D
:1028380001010005DE6F59D13D0EDE25D96EDA6A39
:10284800010EDA22000EDF6E000EBFEC20F06F0ED4
:10285800C06FFA0EC16FDEC1C2F0C36BF3EC50F06B
:10286800000E2B6E810E2A6E000E2D6E000E2C6E41
:1028780001010051ACEC50F058D1C3EC3DF0000917
:10288800D8A42DD03D0E0101DE25D96EDA6A010EDD
:10289800DA22010EDF6EDE51020D1D0EF324D96E11
:1028A800010EF420DA6E06C1DEFF07C1DDFFF9C0B4
:1028B80009F0FAC00AF0000E0C6E0A0E0B6E6EECF0
:1028C80051F00101DE51020D9D0EF324D96E010E67
:1028D800F420DA6E09C0DEFF0AC0DDFF0DD0010169
:1028E800DE51020D9D0EF324D96E010EF420DA6E2E
:1028F800000EDE6E000EDD6E06C105F007C106F0A3
:10290800076A086A000EE8EC40F005C026F006C029
:1029180027F007C028F008C029F0000E2A6E000E24
:102928002B6E200E2C6E410E2D6E1BEC34F026C043
:10293800D6F127C0D7F128C0D8F129C0D9F1210E86
:102948000001C06FF90EC16FDEC1C2F0C36BD6C102
:10295800C4F0D7C1C5F0D8C1C6F0D9C1C7F0F3ECEF
:1029680050F0000E2B6E820E2A6E0101DE51020D10
:102978009D0EF324D96E010EF420DA6EDECF2CF012
:10298800DDCF2DF00051ACEC50F0CFD0C3EC3DF0D2
:102998000009D8A425D03D0E0101DE25D96EDA6ADA
:1029A800010EDA22020EDF6EDE51020D1D0EF32437
:1029B800D96E010EF420DA6E06C1DEFF07C1DDFF15
:1029C800DE51020D9D0EF324D96E010EF420DA6E4D
:1029D800000EDE6E000EDD6E010EBFEC20F00DD095
:1029E8000101DE51020D9D0EF324D96E010EF42073
:1029F800DA6E000EDE6E000EDD6E0101DE51020D94
:102A08009D0EF324D96E010EF420DA6EDECFADF1FF
:102A1800DDCFAEF1ADC105F0AEC106F0076A086AB8
:102A2800000EE8EC40F005C026F006C027F007C00D
:102A380028F008C029F0000E2A6E000E2B6E200E1A
:102A48002C6E410E2D6E1BEC34F026C0D6F127C03B
:102A5800D7F128C0D8F129C0D9F1020E0001C06F02
:102A6800F90EC16FDEC1C2F0C36BD6C1C4F0D7C1C5
:102A7800C5F0D8C1C6F0D9C1C7F0F3EC50F0000ECC
:102A88002B6E830E2A6E0101DE51020D9D0EF3247A
:102A9800D96E010EF420DA6EDECF2CF0DDCF2DF0EA
:102AA8000051ACEC50F041D03D0EDE25D96EDA6A0B
:102AB800010EDA22010EDF6E000EBFEC20F0F20EDE
:102AC800C06FF90EC16FDEC1C2F0C36BF3EC50F0FA
:102AD800000E2B6E840E2A6E000E2D6E000E2C6ECC
:102AE80001010051ACEC50F020D021EE02F0DECF15
:102AF800ADF1DDCFAEF1AE51000AD8A416D0AD517C
:102B0800010AD8B499D6030AD8B4B7D6010AD8B4FA
:102B18003DD7070AD8B4C8D708D00101D051020A56
:102B2800D8B4E6D5010AD8B47FD658A205D00A0E83
:102B38000101D519D8B4589258C0ADF1210E010140
:102B4800AD17D8B409D05750D8A406D0010E00014B
:102B5800F76502D05890589A000E0101D06F02EF25
:102B68000CF001016D51D8B40BD00001F32B790E94
:102B7800F319D8A41200000E01016D6FD1EC3CF0DE
:102B88000A0E0001F319D8A402D0000EF36F5850B2
:102B9800D8B4D1D089863C0E01016F6F58A221D0DC
:102BA800120E00017D6FFC0E7E6F000E46EC4DF09C
:102BB800690E00017D6FFB0E7E6F020E46EC4DF034
:102BC800B10E00017D6FFC0E7E6F040E46EC4DF0D9
:102BD8006C0E00017D6FFC0E7E6F060E46EC4DF00C
:102BE800120058A411D0B70E00017D6FFC0E7E6F45
:102BF800020E46EC4DF0950E00017D6FFB0E7E6FC8
:102C0800040E46EC4DF097D058A847D00001F32B9E
:102C1800F305D46F050ED46120D0090E7D6FFC0E2C
:102C28007E6F000E46EC4DF0C90E00017D6FFC0E64
:102C38007E6F020E46EC4DF03E0E00017D6FFC0EDD
:102C48007E6F040E46EC4DF0F70E00017D6FFB0E13
:102C58007E6F060E46EC4DF01200BD0E7D6FFC0E29
:102C68007E6F000E46EC4DF0730E00017D6FFC0E7A
:102C78007E6F020E46EC4DF0210E00017D6FFC0EBA
:102C88007E6F040E46EC4DF0C30E00017D6FFC0E06
:102C98007E6F060E46EC4DF0120058AC39D0460E49
:102CA80000017D6FFC0E7E6F020E46EC4DF0530E58
:102CB80000017D6FFB0E7E6F040E46EC4DF0000E9A
:102CC8000101486F640E476F0A0E096E0001F25148
:102CD8000FEC50F00001D46F300ED425746F756B73
:102CE800000E75233EEC40F00A0E056E0001F2510D
:102CF8001EEC51F00001D46F300ED425746F756B43
:102D0800000E75233EEC40F0040E40EC4EF012002D
:102D180058AE11D0740E00017D6FFB0E7E6F020E4F
:102D280046EC4DF07F0E00017D6FFB0E7E6F040EAA
:102D380046EC4DF01200500E0001F219D8A410D044
:102D4800460E7D6FFC0E7E6F020E46EC4DF0810E36
:102D580000017D6FFC0E7E6F040E46EC4DF01200F4
:102D6800F32BF851D8B404D001016251D8A4E4D0AF
:102D780058A012D0360E00017D6FFC0E7E6F020E39
:102D880046EC4DF0A90E00017D6FFB0E7E6F040E20
:102D980046EC4DF04CEF1BF0030E5A18D8A469D03E
:102DA80089863C0E01016F6F000E00017D6FFC0EDD
:102DB8007E6F020E46EC4DF0000E0101486F220EA8
:102DC800476F00EC52F09DC10AF09EC10BF0000E57
:102DD8000D6E640E0C6E1CEC4FF0300E0A240001D0
:102DE800746F000E0B20756F3EEC40F0000E0D6EF8
:102DF8000A0E0C6E9DC10AF09EC10BF01CEC4FF040
:102E08000AC005F00BC006F0000E086E0A0E076E29
:102E18008CEC4FF0300E05240001746F000E062074
:102E2800756F3EEC40F0000E0001756F2E0E746F4A
:102E38003EEC40F09DC105F09EC106F0000E086E04
:102E48000A0E076E8CEC4FF0300E05240001746FEB
:102E5800000E0620756F3EEC40F0000E0001756F05
:102E6800410E746F3EEC40F0040E40EC4EF04CEF17
:102E78001BF0000E0A6E000EA4EC51F0040E0A6E50
:102E8800010EA4EC51F001016251D8B43AD01B0EE6
:102E980000017D6FFC0E7E6F020E46EC4DF0E50ED4
:102EA80000017D6FFB0E7E6F040E46EC4DF057500F
:102EB800D8B437D0000E0101486F640E476F0A0E70
:102EC800096E57500FEC50F00001D46F300ED42526
:102ED800746F756B000E75233EEC40F00A0E056E9C
:102EE80057501EEC51F00001D46F300ED425746F8A
:102EF800756B000E75233EEC40F0040E40EC4EF06E
:102F080010D07A0E00017D6FFC0E7E6F020E46EC2B
:102F18004DF0650E00017D6FFC0E7E6F040E46ECD1
:102F28004DF0100E0A6E060EA4EC51F0000E0A6E5B
:102F3800070EA4EC51F0ACD30001F805D8B404D0C6
:102F4800020EF819D8A4A4D361EC50F0F805D8A45F
:102F580018D0000EDC6F0C0EDC6501D012D0E00E2C
:102F6800DC25D96EDA6A030EDA22000EDF6E600EF7
:102F7800DC25D96EDA6A040EDA22000EDF6EDC2B4D
:102F8800EAD701015F51D8A411D0000E0001DC6F0F
:102F9800070EDC6501D09FD0F20EDC25D96EDA6A07
:102FA800030EDA22000EDF6EDC2BF2D7000E486F1C
:102FB800650E476F000EA66F000EA56FE8C109F0F9
:102FC800E9C10AF0000E0C6E3C0E0B6E6EEC51F06F
:102FD80009C0DAF00AC0DBF0010149510001DA5DED
:102FE800DA6F01014A510001DB59DB6FDAC00AF0E0
:102FF800DBC00BF0000E0D6E3C0E0C6E1CEC4FF09F
:103008000AC0D8F00BC0D9F0DAC005F0DBC006F072
:10301800000E086E3C0E076E8CEC4FF005C0DAF01F
:1030280006C0DBF0D8C00AF0D9C00BF0000E0D6E58
:103038000A0E0C6E1CEC4FF0300E0A240001746F5F
:10304800000E0B20756F4AEC49F0D8C005F0D9C0C6
:1030580006F0000E086E0A0E076E8CEC4FF0300E6C
:1030680005240001746F000E0620756F4AEC49F0C4
:103078004707D8A04807000E0001756F3A0E746F15
:103088004AEC49F04707D8A04807DAC00AF0DBC085
:103098000BF0000E0D6E0A0E0C6E1CEC4FF0300E8D
:1030A8000A240001746F000E0B20756F4AEC49F07A
:1030B800DAC005F0DBC006F0000E086E0A0E076ED7
:1030C8008CEC4FF0300E05240001746F000E0620C2
:1030D800756F4AEC49F00001F1AF08D0030E010109
:1030E800E15F140EE1610AD02C0E07D0030E010136
:1030F800E1272C0EE16502D0140EE16FE1C147F122
:10310800486B000EA66F030EA56FF0C062F0F1C009
:1031180063F033EC51F063BF0CD0635104E1040E4B
:10312800625DD8A006D0000E756FFE0E746F4AEC73
:1031380049F0030E5A18D8A458D089863C0E0101CC
:103148006F6F030EE027590EE06502D04A0EE06F5C
:10315800E0C147F1486B000EA66F030EA56F000E85
:103168000001756FFE0E746F4AEC49F0000EA66FF1
:10317800020EA56F000E486F4D0E476F9DC10AF0F5
:103188009EC10BF0000E0D6E640E0C6E1CEC4FF021
:10319800300E0A240001746F000E0B20756F4AEC84
:1031A80049F0000E0D6E0A0E0C6E9DC10AF09EC10C
:1031B8000BF01CEC4FF00AC005F00BC006F0000E37
:1031C800086E0A0E076E8CEC4FF0300E05240001D5
:1031D800746F000E0620756F4AEC49F0000E00016E
:1031E800756F410E746F4AEC49F0050E0001F361EA
:1031F800B4D0020EF819D8A4B0D0000E0101486F5F
:103208001D0E476F000EA66F010EA56F000E000180
:10321800756FE30E746F4AEC49F0000EA66F020E4C
:10322800A56FF0C062F0F1C063F033EC51F063BFFA
:1032380033D0E90E625D030E6359D8A02DD0000E7D
:103248000101486F110E476F0001F1AF06D0000E63
:10325800756F2D0E746F4AEC49F0000E0101486F2E
:10326800170E476FF0C06CF0F1C06DF0030E00014F
:103278006F6FE80E6E6FC2EC4AF06CC062F06DC002
:1032880063F033EC51F0300E6225746F000E632149
:10329800756F4AEC49F00ED0000E0101486F170E09
:1032A800476F0001F1AF06D0000E756F2D0E746FD9
:1032B8004AEC49F0000E0101486F1D0E476F000EE1
:1032C80000016F6F640E6E6FF0C06CF0F1C06DF0AE
:1032D800C2EC4AF06CC066F06DC067F0000E696F12
:1032E8000A0E686F34EC4CF066C062F067C063F099
:1032F80033EC51F0300E6225746F000E6321756F48
:103308004AEC49F0000E00016F6F0A0E6E6FF0C0B4
:103318006CF0F1C06DF0C2EC4AF06CC066F06DC0A4
:1033280067F0000E696F0A0E686F34EC4CF066C0E7
:1033380062F067C063F033EC51F0300E6225746FB1
:10334800000E6321756F4AEC49F0000E0001756F9D
:10335800410E746F4AEC49F0A0D0000EDC6F020EEB
:10336800DC6501D09AD0DCC0A5F10101A66B000E86
:10337800486F170E476F0001DC51040D910EF324BE
:10338800D96E010EF420DA6E030EDBAE07D0000E04
:10339800756F2D0E746F4AEC49F005D0000E0101CF
:1033A800486F1D0E476F000E2A6E000E2B6EC80E5A
:1033B8002C6E420E2D6E0001DC51040D910EF3248B
:1033C800D96E010EF420DA6EDECF26F0DECF27F0BC
:1033D800DECF28F0DECF29F01BEC34F026C04FF00A
:1033E80027C050F028C051F029C052F0ECEC48F04A
:1033F8004FC062F050C063F033EC51F0300E6225DC
:10340800746F000E6321756F4AEC49F0000E2A6E46
:10341800000E2B6E200E2C6E410E2D6E0001DC511D
:10342800040D910EF324D96E010EF420DA6EDECF6E
:1034380026F0DECF27F0DECF28F0DECF29F01BEC18
:1034480034F026C04FF027C050F028C051F029C0F2
:1034580052F0ECEC48F04FC066F050C067F0000E38
:10346800696F0A0E686F34EC4CF066C062F067C092
:1034780063F033EC51F0300E6225746F000E632157
:10348800756F4AEC49F0000E0001756F410E746FBC
:103498004AEC49F00001DC2B62D7000E33EC45F012
:1034A800000E0A6E040EA4EC51F058A014D0050EBC
:1034B8000001F36108D0360E7D6FFC0E7E6F050E9D
:1034C80046EC4DF0E0D0A90E7D6FFB0E7E6F050E29
:1034D80046EC4DF0D8D058AA14D0050E0001F3617F
:1034E80008D0360E7D6FFC0E7E6F050E46EC4DF053
:1034F800CAD09F0E7D6FFB0E7E6F050E46EC4DF019
:10350800C2D05A04D8B404D0020E5A18D8A432D063
:10351800CF0E00017D6FFC0E7E6F050E46EC4DF060
:103528005750D8B4B0D0000E0101486F640E476FF1
:103538000A0E096E57500FEC50F00001D46F300E90
:10354800D425746F756B000E75233EEC40F00A0E9F
:10355800056E57501EEC51F00001D46F300ED42583
:10356800746F756B000E75233EEC40F0050E40EC51
:103578004EF089D0030E5A18D8A485D089863C0EFF
:1035880001016F6F070E0001F36122D0040EF36191
:1035980017D0F851D8B414D0020EF819D8A408D00E
:1035A800A30E7D6FFB0E7E6F050E46EC4DF068D0C6
:1035B800E10E7D6FFC0E7E6F050E46EC4DF060D07F
:1035C800000E7D6FFC0E7E6F050E46EC4DF058D058
:1035D800000E0101486F220E476F00EC52F09DC1AA
:1035E8000AF09EC10BF0000E0D6E640E0C6E1CEC02
:1035F8004FF0300E0A240001746F000E0B20756F17
:103608003EEC40F0000E0D6E0A0E0C6E9DC10AF0E5
:103618009EC10BF01CEC4FF00AC005F00BC006F081
:10362800000E086E0A0E076E8CEC4FF0300E052463
:103638000001746F000E0620756F3EEC40F0000E1E
:103648000001756F2E0E746F3EEC40F09DC105F0C1
:103658009EC106F0000E086E0A0E076E8CEC4FF045
:10366800300E05240001746F000E0620756F3EECC5
:1036780040F0000E0001756F410E746F3EEC40F093
:10368800050E40EC4EF0000E0A6E070EA4EC51F049
:1036980001016F51D8B402D06F0712008996120049
:1036A800C2EC38F00001E26F990EC06FF90EC16FDD
:1036B800F3EC50F0F451D8A441D0000EE76F25D0B8
:1036C8009E0E056E020E066E780EE725D96EDA6A32
:1036D800010EDA22DF50D46FD4514B0D340EF3248F
:1036E800076EE60EF420086E11EC4EF00550061039
:1036F800D8A409D0780E0001E725D96EDA6A010E40
:10370800DA22DF50F46F0001E72BFF0ED46FFF0EB3
:10371800D56FE251D66FD76BD451D627D551D72361
:10372800E751D86FD96BD651D85DD951800ADA6F75
:10373800D751800ADA59D8B043D2C2D702019E5174
:10374800D8A413D2000E0001F46F3AD29E0E4B6E2D
:10375800020E4C6E48EC51F04BC0E3F04CC0E4F064
:103768004DC0E5F04EC0E6F0E3C013F0E4C014F03D
:10377800E5C015F0E6C016F0000E176E000E186EC4
:10378800C00E196E400E1A6EF6EC46F0D8A014D092
:10379800000E136E000E146EA00E156E420E166EFD
:1037A800E3C017F0E4C018F0E5C019F0E6C01AF05D
:1037B800F6EC46F0D8B008D0DB0E0001C06FF70E6B
:1037C800C16FF3EC50F0F5D191C14FF092C150F0B8
:1037D80093C151F094C152F0ECEC48F04FC062F044
:1037E80050C063F033EC51F062C005F063C006F0DE
:1037F800000E06BEFF0E076E086E010EE8EC40F0E4
:1038080005C026F006C027F007C028F008C029F038
:10381800E4C12AF0E5C12BF0E6C12CF0E7C12DF098
:103828001BEC34F026C0DBF027C0DCF028C0DDF04C
:1038380029C0DEF0000E116E000E126E200E136EFF
:10384800410E146EE3C00DF0E4C00EF0E5C00FF0B9
:10385800E6C010F095EC2FF00DC026F00EC027F052
:103868000FC028F010C029F0DBC02AF0DCC02BF014
:10387800DDC02CF0DEC02DF01BEC34F026C0E4F1E6
:1038880027C0E5F128C0E6F129C0E7F1D5EC3BF007
:1038980090D19E0E056E020E066EA30E076EFB0EED
:1038A800086E11EC4EF005500610D8A402D0020E96
:1038B8000FD09E0E056E020E066EE10E076EFC0E10
:1038C800086E11EC4EF005500610D8A404D0010E75
:1038D8000001F86FDBD79E0E056E020E066E960E7F
:1038E800076EFC0E086E11EC4EF005500610D8A4B9
:1038F80060D1000E0001F86FD5EC3BF0000E586E59
:1039080058D19E0E056E020E066E2D0E076EFC0E29
:10391800086E11EC4EF005500610D8A402D0010E26
:103928001FD09E0E056E020E066EDB0E076EFC0E95
:10393800086E11EC4EF005500610D8A402D0020E05
:103948000FD09E0E056E020E066E4E0E076EFC0E12
:10395800086E11EC4EF005500610D8A42AD1000EBE
:10396800596E94D79E0E056E020E066ED50E076E22
:10397800FC0E086E11EC4EF005500610D8A402D0CB
:10398800010E0FD09E0E056E020E066E9D0E076E7E
:10399800FC0E086E11EC4EF005500610D8A409D1A3
:1039A800000E0101AC6F72D7000EE76F9E0E056E18
:1039B800020E066EE751090D040EF324076EF10E90
:1039C800F420086E11EC4EF005500610D8A404D06F
:1039D800E7C0F7F0D5EC3BF00001E72B040EE765F4
:1039E800E5D7E7D0000EE76F9E0E056E020E066E55
:1039F800E7510A0DD20EF324076EF00EF420086E7C
:103A080011EC4EF005500610D8A404D0E7C0F6F02B
:103A1800D5EC3BF00001E72B040EE765E5D7C9D0EC
:103A2800000EE76F9E0E056E020E066EE7510A0D38
:103A3800590EF324076EF10EF420086E11EC4EF0C7
:103A480005500610D8A404D0E7C0A9F1D5EC3BF086
:103A58000001E72B010EE765E5D7ABD09E0E056E9A
:103A6800020E066E4E0E076EFC0E086E11EC4EF03E
:103A780005500610D8A402D0000E0FD09E0E056E79
:103A8800020E066E8F0E076EFC0E086E11EC4EF0DD
:103A980005500610D8A48DD0010E0101AB6FF6D6E3
:103AA800000EE76F9E0E056E020E066EE751120DB0
:103AB800000EF324076E020EF420086E11EC4EF08F
:103AC80005500610D8A409D0E7C03FF0406A0001AD
:103AD800F451ADEC37F0D5EC3BF00001E72B040EC8
:103AE800E765E0D766D09E0E056E020E066EF10EF3
:103AF800076EFC0E086E11EC4EF005500610D8A4A7
:103B080002D0000E0FD09E0E056E020E066EE70E56
:103B1800076EFC0E086E11EC4EF005500610D8A486
:103B280048D0010E0101AA6FB1D69E0E0F6E020E8B
:103B3800106E5EEC47F00FC0DFF010C0E0F0DFC0A1
:103B48003FF0E0C040F00001F451ADEC37F0000167
:103B5800E16FD5EC3BF0E151D8A42BD05F0EC06FDC
:103B6800F90EC16FF3EC50F024D00001F451020AB1
:103B7800D8B4F8D6010AD8B417D7050AD8B4C1D62C
:103B88000C0AD8B42FD7010AD8B468D7060AD8B413
:103B980080D6020AD8B4DAD51F0AD8B481D7010A68
:103BA800D8B43ED7020AD8B49ED7070AD8B478D773
:103BB800BCD7000E0001F46FC2EC38F00001E26FD0
:103BC8000E0EF46591D2C00EC06FFA0EC16FF4519B
:103BD8004B0D110EF326000EF422340EF324C26F9F
:103BE800E60EF420C36FF451B1EC32F0AFC0C4F06C
:103BF800B0C0C5F0F3EC50F077D2BB0EC06FF30E37
:103C0800C16FF3EC50F0F20EC06FFB0EC16FF3EC16
:103C180050F0790EC06FF70EC16FF3EC50F0400E04
:103C2800C06FF90EC16F6EC1C2F0C36BF3EC50F0F8
:103C3800080EC06FF40EC16FF3EC50F0000EE76F82
:103C48009FD0E30EC06FFA0EC16F780EE725D96ECC
:103C5800DA6A010EDA22DF50D46FD4514B0D340EDC
:103C6800F324C26FE60EF420C36F780EE725D96EF1
:103C7800DA6A010EDA22DF50D56FD5514B0D110EDD
:103C8800F326000EF422340EF324C46FE60EF4205B
:103C9800C56FF3EC50F0780EE725D96EDA6A010E9D
:103CA800DA220F0EDE18D8A455D09F0EC06FF80E7A
:103CB800C16F91C126F092C127F093C128F094C139
:103CC80029F0000E2A6E000E2B6E200E2C6E410E6F
:103CD8002D6E1BEC34F026C0C2F027C0C3F028C0FC
:103CE800C4F029C0C5F095C126F096C127F097C148
:103CF80028F098C129F0000E2A6E000E2B6E200EB7
:103D08002C6E410E2D6E1BEC34F026C0C6F027C079
:103D1800C7F028C0C8F029C0C9F099C126F09AC1D7
:103D280027F09BC128F09CC129F0000E2A6E000ED6
:103D38002B6E200E2C6E410E2D6E1BEC34F026C01F
:103D4800CAF027C0CBF028C0CCF029C0CDF0F3ECE6
:103D580050F00FD0780EE725D96EDA6A010EDA2214
:103D6800DF50B1EC32F0AFC0C0F0B0C0C1F0F3EC3E
:103D780050F0990EC06FF90EC16FF3EC50F0E72BBD
:103D8800FF0ED46FFF0ED56FE251D66FD76BD451AB
:103D9800D627D551D723E751D86FD96BD651D85DDF
:103DA800D951800ADA6FD751800ADA59D8A049D791
:103DB800F90EC06FFC0EC16FF3EC50F0D6D15F0E58
:103DC800C06FF60EC16FF451B1EC32F0AFC0C2F063
:103DD800B0C0C3F0F3EC50F0C8D1220EC06FF60E9D
:103DE800C16FF451B1EC32F0AFC0C2F0B0C0C3F053
:103DF800F3EC50F0BAD17A0EC06FF20EC16FEAC17F
:103E0800C2F0EBC1C3F0F3EC50F0AFD1980EC06F25
:103E1800F40EC16FE8C1C2F0E9C1C3F0F3EC50F091
:103E2800A4D11F0EC06FF30EC16FA7C1C2F0A8C105
:103E3800C3F0F3EC50F099D19C0EC06FF60EC16F31
:103E4800F451B1EC32F0AFC0C2F0B0C0C3F0040E10
:103E5800C46FF10EC56FF3EC50F0010EE76FF50E6D
:103E6800C06FFC0EC16FE751090D040EF324C26F39
:103E7800F10EF420C36FF3EC50F0E72B040EE76566
:103E8800EED71C0EC06FF50EC16FF3EC50F06DD17C
:103E9800630EC06FF50EC16FF3EC50F0AD0EC06F3E
:103EA800F70EC16FF3EC50F0DD0EC06FF40EC16F6A
:103EB800FDC0C2F0FEC0C3F0F3EC50F056D1510E75
:103EC800C06FF40EC16FF9C0C2F0FAC0C3F0F3ECD2
:103ED80050F04BD1630EC06FF50EC16FF3EC50F08C
:103EE800AD0EC06FF70EC16FF3EC50F0A30EC06FAC
:103EF800F50EC16FFBC0C2F0FCC0C3F0F3EC50F08C
:103F080034D1630EC06FF50EC16FF3EC50F0AD0EF7
:103F1800C06FF70EC16FF3EC50F0200EC06FF50EB6
:103F2800C16FECC1C2F0EDC1C3F0F3EC50F01DD18C
:103F38006E0EC06FF30EC16FF451B1EC32F0AFC02A
:103F4800C2F0B0C0C3F0F3EC50F00FD1E30EC06F75
:103F5800F50EC16FF451B1EC32F0AFC0C2F0B0C091
:103F6800C3F0D20EC46FF00EC56FF3EC50F0010E23
:103F7800E76FF50EC06FFC0EC16FE7510A0DD20E48
:103F8800F324C26FF00EF420C36FF3EC50F0E72B6C
:103F9800040EE765EED71C0EC06FF50EC16FF3EC8B
:103FA80050F0E3D0C00EC06FF10EC16FF451B1EC08
:103FB80032F0AFC0C2F0B0C0C3F0F3EC50F0D5D0CF
:103FC8001D0EC06FF20EC16FF451B1EC32F0AFC0EC
:103FD800C2F0B0C0C3F0F3EC50F0C7D0D60EC06F3B
:103FE800F60EC16F91C126F092C127F093C128F057
:103FF80094C129F0000E2A6E000E2B6E200E2C6E36
:10400800410E2D6E1BEC34F026C0C2F027C0C3F061
:1040180028C0C4F029C0C5F0F3EC50F0A6D0AD0E0E
:10402800C06FFA0EC16F000EC26F020EC36FF3ECC1
:1040380050F0010EE76FF50EC06FFC0EC16FE7512F
:10404800120D000EF324C26F020EF420C36FF3ECBE
:1040580050F0E72B050EE765EED71C0EC06FF50E86
:10406800C16FF3EC50F081D0440EC06FF70EC16FF2
:10407800F3EC50F07AD0CF0EC06FF20EC16FF3ECB4
:1040880050F073D00E0EC06FF70EC16FF3EC50F006
:104098006CD00E0EC06FFA0EC16FF4514B0D450E69
:1040A800F326000EF422340EF324F66EE60EF42006
:1040B800F76E0900F5CFC2F00A00F5CFC3F0F4514E
:1040C8004B0D470EF326000EF422340EF324F66E41
:1040D800E60EF420F76E0900F5CFC4F00A00F5CF1C
:1040E800C5F0F3EC50F041D0F451000AD8B485D5AE
:1040F800020AD8B464D6010AD8B49ED6070AD8B43E
:10410800DED6010AD8B4FDD6030AD8B411D7010AFD
:10411800D8B471D60F0AD8B479D6010AD8B481D6E2
:10412800030AD8B413D7010AD8B43CD7070AD8B4BD
:10413800D1D6010AD8B451D6030AD8B4A9D6010AEF
:10414800D8B44CD71F0AD8B46AD7010AD8B438D71C
:10415800020AD8B489D7070AD8B461D7020AD8B4F2
:104168008AD70E0AD8B48ED794D7000E0101726F81
:10417800000E746F12000001DD6F000E0001EB6F7E
:10418800000EEA6F000EDF6F000EDE6F000EDC6FB0
:10419800000EDB6F000ED76F000ED86F000ED96FC0
:1041A800000EDA6FF751D8A40ED0010EEC6F3D0E59
:1041B800EC25D96EDA6A010EDA22000EDF6EEC2BDE
:1041C800030EEC65F4D7020E01013D19D8A415D0F1
:1041D8000001FB5101015B5D0001FC5101015C59CB
:1041E800D8B00BD05BC109F05CC10AF0000E0C6EB0
:1041F8000A0E0B6E6EEC51F00AD0FBC009F0FCC041
:104208000AF0000E0C6E0A0E0B6E6EEC51F009C02F
:1042180059F10AC05AF1010157515811D8B404D0C4
:1042280057C159F158C15AF1020E0001F76104D083
:1042380059C11DF15AC11EF1000EEC6F3D0EEC255F
:10424800D96EDA6A010EDA22020EDE18D8A41AD064
:10425800EA4BEB2BEC51020D1D0EF324D96E010E27
:10426800F420DA6EDE50DE27DD50DF23EC51020D3C
:104278009D0EF324D96E010EF420DA6EDE50DB2792
:10428800DD50DC23EC2B030EEC65D8D7DD51D8A428
:104298008AD0020EF819D8B486D0FDC009F0FEC045
:1042A8000AF0000E0C6E0A0E0B6E6EEC51F0010156
:1042B8005551095C0001E46F010156510A5800018B
:1042C800E56FE5BF14D0E55103E1E405D8A00FD0B0
:1042D800E4C06CF0E5C06DF0000E6F6F040E6E6FF9
:1042E800C2EC4AF06C51EE276D51EF234AD0000E14
:1042F8002A6E000E2B6E800E2C6E3F0E2D6EE4C0C3
:1043080005F0E5C006F0000E06BEFF0E076E086E4B
:10431800010EE8EC40F005C026F006C027F007C003
:1043280028F008C029F01BEC34F026C043F027C061
:1043380044F028C045F029C046F0EEC005F0EFC0B3
:1043480006F0000E06BEFF0E076E086E010EE8ECC2
:1043580040F005C03FF006C040F007C041F008C07B
:1043680042F02BEC31F03FC04FF040C050F041C05C
:1043780051F042C052F0ECEC48F04FC0EEF050C0A3
:10438800EFF0EFAF04D0000EEF6F000EEE6FEFBF4F
:104398000AD0210EEE5D030EEF59D8A004D0030E0B
:1043A800EF6F200EEE6F020EF819D8A491D0A7C1B6
:1043B80009F0A8C10AF0FF0E0C6EF60E0B6E6EEC3B
:1043C80051F00001F0510924E86FF1510A20E96F1A
:1043D800E9AF19D0E9AF0CD0F60EE85DFF0EE95948
:1043E800D8B006D0050EEE25EE6F000EEF211AD0DC
:1043F800E8C06CF0E9C06DF0000E6F6F040E6E6FD0
:10440800C2EC4AF00AD0E8C06CF0E9C06DF0000ECA
:104418006F6F020E6E6FC2EC4AF06C51EE5DEE6F7C
:104428006D51EF59EF6FEAC009F0EBC00AF0F9C01F
:104438000BF0FAC00CF06EEC51F009C0E6F00AC0BF
:10444800E7F0E6C009F0E7C00AF0000E0C6E0A0EAD
:104458000B6E6EEC51F009500001EE5D0A50EF59F9
:10446800D8A002D0EFAF31D0EAC009F0EBC00AF013
:10447800F9C00BF0FAC00CF06EEC51F009C0E6F090
:104488000AC0E7F0E6C009F0E7C00AF0000E0C6EBB
:104498000A0E0B6E6EEC51F009C0EEF00AC0EFF098
:1044A8000001EA51EB11D8B410D00101E851E9112B
:1044B800D8B40BD00001E9BF08D0E95104E10B0ED4
:1044C800E85DD8A002D0010E01D0000E01015F6F97
:1044D8000001F705D8A41FD0ECC109F0EDC10AF01E
:1044E800000E0C6E0A0E0B6E6EEC51F00001EE51D0
:1044F800095CEF510A58D8B00ED0ECC109F0EDC1F3
:104508000AF0000E0C6E0A0E0B6E6EEC51F009C02C
:10451800EEF00AC0EFF00001DB510101555D00012A
:10452800E06FDC51010156590001E16FE1AF04D0A1
:10453800000EE16F000EE06FF851D8A416D0F70511
:10454800D8A40FD0ECC109F0EDC10AF0000E0C6E32
:104558000A0E0B6E6EEC51F009C0EEF00AC0EFF0D7
:1045680004D059C1EEF05AC1EFF00001EA51EB1145
:10457800D8B43ED1DD51D8B415D0020EF819D8B44C
:1045880011D0FDC009F0FEC00AF0000E0C6E0A0E34
:104598000B6E6EEC51F00001E051095CEE6FE151D9
:1045A8000A58EF6FEFBF3BD0EAC009F0EBC00AF042
:1045B800F9C00BF0FAC00CF06EEC51F009C0E6F04F
:1045C8000AC0E7F0E6C009F0E7C00AF0000E0C6E7A
:1045D8000A0E0B6E6EEC51F009500001EE5D0A50A8
:1045E800EF59D8A01CD0020EF819D8B4F1BF3DD0AD
:1045F800F15104E10B0EF05DD8A037D0FDC009F0F1
:10460800FEC00AF0000E0C6E0A0E0B6E6EEC51F036
:1046180001015551095C56510A58D8B026D0EAC054
:1046280009F0EBC00AF0F9C00BF0FAC00CF06EEC20
:1046380051F009C0E6F00AC0E7F0E6C009F0E7C0AB
:104648000AF0000E0C6E0A0E0B6E6EEC51F009C0EB
:10465800EEF00AC0EFF001016A2B040E0001C06FF2
:10466800FB0EC16FF3EC50F003D0000E01016A6F2E
:104678000001EE51DE5DDF51800AD36FEF51800AF1
:10468800D359D8B004D0DEC0EEF0DFC0EFF0EEC0F2
:10469800E2F0EFC0E3F0000EEC6FE2C06CF0E3C0B4
:1046A8006DF0EAC06EF0EBC06FF0C2EC4AF06CC07F
:1046B800D5F06DC0D6F03D0EEC25D96EDA6A010E44
:1046C800DA22020EDE18D8A441D0EC51D70FD96EE9
:1046D800DA6ADF50D8A43AD0EC51020D1D0EF3244B
:1046E800D96E010EF420DA6EDE50D55DDE50D65953
:1046F800D8A02CD0EC51020D1D0EF324D96E010E5A
:10470800F420DA6EEC51020D9D0EF324E16E010ED9
:10471800F420E26EDECFE6FFDDCFE5FFEC51D70FE8
:10472800D96EDA6A010EDF6EEA07D8A0EB07EC5102
:10473800020D9D0EF324D96E010EF420DA6EDE50C0
:10474800E25FDD50E35B000EEC6F01D0EC2B040E52
:10475800EC6104D0EA51EB11D8A49FD7000EEC6F9E
:10476800EA51EB11D8B444D03D0EEC25D96EDA6A83
:10477800010EDA22020EDE18D8A432D0EC51D70F7F
:10478800D96EDA6ADF50D8A42BD0E2C06CF0E3C04F
:104798006DF0EAC06EF0EBC06FF0C2EC4AF0EC517D
:1047A800020D9D0EF324D96E010EF420DA6E6CC052
:1047B800DEFF6DC0DDFFEC51D70FD96EDA6A010E4E
:1047C800DF6EEA07D8A0EB07EC51020D9D0EF3242B
:1047D800D96E010EF420DA6EDE50E25FDD50E35B45
:1047E800EC2B040EEC6104D0EA51EB11D8A4BCD731
:1047F800F705D8A41200000EEC6FEC2B030EEC6545
:10480800FCD712000001E26FC2EC38F00001E16F42
:104818003C0E01016F6F8986AB05D8B458A802D049
:1048280081A258986D51D8A414D0050E0001E21940
:10483800D8A40FD001015D51D8A40BD0010E6D6F23
:1048480039C129F13AC12AF13BC12BF13CC12CF104
:104858009BD101016D05D8A429D0D00E29250001CE
:10486800DD6F070E01012A210001DE6F000E010134
:104878002B210001DF6F000E01012C210001E06FE8
:10488800010139510001DD5D01013A510001DE5994
:1048980001013B510001DF5901013C510001E05980
:1048A800D8B004D0020E01016D6F29D001016D0549
:1048B800D8A40DD0070E0001E219D8A408D0000E24
:1048C80001016D6F000E5D6FB5EC15F05DD10F0E37
:1048D80001016D19D8A415D0020E0001E219D8A45F
:1048E80010D001016C51D8B40CD0000EE46F000E4A
:1048F800E56F800EE66F3F0EE76F000E6C6F010EDE
:1049080084D0010E01016D6582D0020E0001E2190A
:10491800D8B408D0030EE219D8B404D0060EE219B0
:10492800D8A475D001015D51D8A471D06C51D8A418
:1049380057D05BD045C105F046C106F0000E086EA1
:10494800640E076E030E0A6EE70E096E0001E2514F
:10495800F2EC4EF005C045F106C046F154D06D5159
:10496800D6EC3AF062C041F163C042F141C105F0B2
:1049780042C106F001016D514B0D450EF326000EA4
:10498800F422340EF324F66EE60EF420F76E0900D6
:10499800F5CF07F00A00F5CF08F06D514B0D470E23
:1049A800F326000EF422340EF324F66EE60EF420FD
:1049B800F76E0900F5CF09F00A00F5CF0AF00001FB
:1049C800E251F2EC4EF005C041F106C042F141C19E
:1049D8003FF042C140F001016D51ADEC37F013D00A
:1049E8006D510F0AD8B4A6D7BAD76DC10CF0780E9E
:1049F8000D6E010E0E6EE1C00FF00001E251FCECED
:104A08004BF001016D6F010EAFD05D6FBDD0010E8F
:104A180001016D65ABD0050E0001E219D8A4A6D03E
:104A280001015D51D8A4A2D0010E5D6F6C51D8B4BC
:104A380065D0000E6C6F0F0E6D19D8A4A5D0435128
:104A4800451904E144514619D8B49ED043C105F034
:104A580044C106F0076A086A000EE8EC40F005C099
:104A680026F006C027F007C028F008C029F0E4C1E6
:104A78002AF0E5C12BF0E6C12CF0E7C12DF01BECC4
:104A880034F026C025F127C026F128C027F129C017
:104A980028F145C105F046C106F0076A086A000E0C
:104AA800E8EC40F005C026F006C027F007C028F063
:104AB80008C029F025C12AF026C12BF027C12CF007
:104AC80028C12DF01BEC34F026C0E4F127C0E5F135
:104AD80028C0E6F129C0E7F145C105F046C106F056
:104AE800076A086A000EE8EC40F005C091F106C0BC
:104AF80092F107C093F108C094F146D0010E6C6F93
:104B08000F0E6D19D8A419D091C14FF092C150F071
:104B180093C151F094C152F0ECEC48F04FC062F0F0
:104B280050C063F033EC51F062C045F163C046F108
:104B380045C143F146C144F127D0190E6D19D8A4D7
:104B480023D0000E6D6F000E6C6F000E586E000EB5
:104B58000001F26F000E576E000E01015F6FB5EC99
:104B680015F0D5EC3BF0020E01014FD7070E0001FE
:104B7800E219D8A409D0000E01015D6F000E066E7F
:104B88000A0E056EEFEC4FF001015D05D8B403D0B5
:104B98006D05D8A443D16D05D8A425D0000E0A6EA2
:104BA800000EA4EC51F0040E0A6E010EA4EC51F0B4
:104BB8008A0E00017D6FFB0E7E6F020E46EC4DF0F3
:104BC800240E00017D6FFC0E7E6F040E46EC4DF046
:104BD800100E0A6E060EA4EC51F0000E0A6E070EB7
:104BE800A4EC51F018D16D514B0D080EF326000EB0
:104BF800F422340EF3240001C06FE60EF420C16FD6
:104C0800020EC26F8EEC48F0EED000EC52F00101BB
:104C18006C51D8B451D0C4EC50F0000E486F280E37
:104C2800476F45C10AF046C10BF0000E0D6E640EC9
:104C38000C6E1CEC4FF0300E0A240001746F000E4D
:104C48000B20756F3EEC40F0000E086E640E076E88
:104C580045C105F046C106F08CEC4FF005C00AF0DE
:104C680006C00BF0000E0D6E0A0E0C6E1CEC4FF019
:104C7800300E0A240001746F000E0B20756F3EEC95
:104C880040F0000E0001756F2E0E746F3EEC40F080
:104C980045C105F046C106F0000E086E0A0E076E03
:104CA8008CEC4FF0300E05240001746F000E0620C6
:104CB800756F3EEC40F07CD0000E486F280E476FB1
:104CC80091C14FF092C150F093C151F094C152F08C
:104CD800ECEC48F04FC062F050C063F033EC51F098
:104CE80062C06CF063C06DF0000E6F6F640E6E6F83
:104CF800C2EC4AF0300E6C25746F000E6D21756F92
:104D08003EEC40F0000E0001696F640E686F91C1BF
:104D18004FF092C150F093C151F094C152F0ECECB5
:104D280048F04FC062F050C063F033EC51F062C0FD
:104D380066F063C067F034EC4CF066C06CF067C096
:104D48006DF0000E6F6F0A0E6E6FC2EC4AF0300EF7
:104D58006C25746F000E6D21756F3EEC40F0000EEF
:104D68000001756F2E0E746F3EEC40F091C14FF04C
:104D780092C150F093C151F094C152F0ECEC48F05C
:104D88004FC062F050C063F033EC51F062C066F07F
:104D980063C067F0000E696F0A0E686F34EC4CF060
:104DA800300E6625746F000E6721756F3EEC40F07B
:104DB800000E486F580E476F000E0001756F410EC8
:104DC800746F3EEC40F0040E40EC4EF012D06D5182
:104DD800B1EC32F0AFC0C0F0B0C0C1F0040EC26F89
:104DE8008EEC48F006D001016D510F0AD8B40DD7EA
:104DF800EED7070E146EAB0E156EFC0E166EF20E85
:104E0800056EFB0E066EADEC4FF00550FA0DF35033
:104E18007A0FC3EC4BF0020E01015D6F39C131F11D
:104E28003AC132F13BC133F13CC134F1000E6B6F32
:104E3800E2C0E2F1000E0001F36F120066D220EE2C
:104E480003F04A50D9264B50DA22DF50D8A402D0BA
:104E5800000E120020EE03F04A50D9264B50DA22F9
:104E6800DFAE02D0100E01D01C0E0001646F000EE0
:104E78006D6F690E056E4AC006F04BC007F06D51A4
:104E8800040DF3506425086E030E096E94EC36F099
:104E980069C00DF06AC00EF06BC00FF06CC010F066
:104EA800000E116E000E126E200E136E410E146E5F
:104EB80095EC2FF000016D51040DF3CF4FF0F4CFB6
:104EC80050F04F504D24D96E50504E20DA6E0DC020
:104ED800DEFF0EC0DEFF0FC0DEFF10C0DEFF1C0EBF
:104EE8006419D8A48BD06D51040DF3CF4FF0F4CFD3
:104EF80050F04F504D24D96E50504E20DA6EDECF10
:104F08000DF0DECF0EF0DECF0FF0DECF10F0E4C1F3
:104F180011F0E5C112F0E6C113F0E7C114F095EC09
:104F28002FF000016D51040DF3CF51F0F4CF52F082
:104F380051504D24D96E52504E20DA6E0DC0DEFF0E
:104F48000EC0DEFF0FC0DEFF10C0DEFF0A0E136EBC
:104F5800D70E146E230E156EBC0E166E6D51040D11
:104F6800F3CF4FF0F4CF50F04F504D24D96E50503E
:104F78004E20DA6EDECF17F0DECF18F0DECF19F054
:104F8800DECF1AF0F6EC46F0D8B036D000016D51FD
:104F9800040DF3CF4FF0F4CF50F04F504D24D96E9D
:104FA80050504E20DA6EDECF13F0DECF14F0DECF95
:104FB80015F0DECF16F00A0E176ED70E186E230EF8
:104FC800196E3C0E1A6EF6EC46F0D8B015D00001FA
:104FD8006D51040DF3CF4FF0F4CF50F04F504D24E6
:104FE800D96E50504E20DA6E000EDE6E000EDE6E68
:104FF800000EDE6E000EDD6E010E01D0000E010106
:10500800606F00016D2B020E6D6533D720EE01F045
:105018004A50D9264B50DA220F0EDF6430D01C0ECE
:105028006419D8A42CD0010E0101616FA9514F6EEB
:10503800506AD8904F36503620EE01F04A50D926A3
:105048004B50DA22DF50030B516E526A4F50511801
:1050580004E150505218D8B460D1020E0001F76133
:105068005CD1080E2B6E000E2A6ED8900101A9356E
:105078002C6E2D6A2D360A0EACEC50F04ED1000E77
:105088000101616F4AD1000E00016D6F690E056E56
:105098004AC006F04BC007F06D51040DF3CF08F07D
:1050A8004C50120D0A0EF324D96E020EF420DA6E5B
:1050B800DF50096E94EC36F069C00DF06AC00EF04E
:1050C8006BC00FF06CC010F0000E116E000E126E67
:1050D800200E136E410E146E95EC2FF000016D51E9
:1050E800040DF3CF4FF0F4CF50F04F504D24D96E4C
:1050F80050504E20DA6E0DC0DEFF0EC0DEFF0FC02E
:10510800DEFF10C0DEFF690E056E4AC006F04BC018
:1051180007F06D51040DF3500C0F086E4C50120D32
:105128000A0EF324D96E020EF420DA6EDF50096EEF
:1051380094EC36F06CAF2BD06D51040DF3CF4FF0DB
:10514800F4CF50F04F504D24D96E50504E20DA6EA7
:10515800DECF05F0DECF06F0DECF07F0DECF08F0B9
:10516800DCEC50F000016D51040DF3CF51F0F4CF99
:1051780052F051504D24D96E52504E20DA6E05C06F
:10518800DEFF06C0DEFF07C0DEFF08C0DEFF6D2BB6
:10519800020E6D657BD7000E0101606FBED04C50CA
:1051A800120D0D0EF324D96E020EF420DA6E080EDD
:1051B800DE18D8A445D0000E00016D6F690E056E8B
:1051C8004AC006F04BC007F06D51040DF3CF08F04C
:1051D8004C50120D0A0EF324D96E020EF420DA6E2A
:1051E800DF50096E94EC36F069C00DF06AC00EF01D
:1051F8006BC00FF06CC010F0000E116E000E126E36
:10520800200E136E410E146E95EC2FF000016D51B7
:10521800040DF3CF4FF0F4CF50F04F504D24D96E1A
:1052280050504E20DA6E0DC0DEFF0EC0DEFF0FC0FC
:10523800DEFF10C0DEFF6D2B020E6D65BFD7ABD74A
:10524800000E00016D6F650E056E4AC006F04BC07A
:1052580007F06D51040DF3CF08F04C50120D0A0EF3
:10526800F324D96E020EF420DA6EDF50096E94EC46
:1052780036F04C50120D0D0EF324D96E020EF420A8
:10528800DA6EDF504F6E4F042AEC48F03FC060F0F2
:1052980040C061F041C062F042C063F065C005F0F3
:1052A80066C006F067C007F068C008F0010EE8ECB9
:1052B80040F005C026F006C027F007C028F008C057
:1052C80029F060C02AF061C02BF062C02CF063C0E6
:1052D8002DF01BEC34F000016D51040DF3CF4FF0AD
:1052E800F4CF50F04F504D24D96E50504E20DA6E06
:1052F80026C0DEFF27C0DEFF28C0DEFF29C0DEFF94
:105308006D2B020E6D659FD746D74C50010AD8B455
:1053180096D5050AD8B4B7D642D7010E1200415027
:105328004210D8B40BD041C0D9FF42C0DAFF3FC009
:10533800DEFF40C0DDFF02D03F4A402A3FC0D9FF10
:1053480040C0DAFFDF50446E44505BEC51F0D8B0F7
:10535800F3D7000E456E2D0E4418D8A405D0010EC3
:10536800456E3F4A402A04D02B0E4418D8B4F9D7CA
:10537800000E446E000E476E000E486E000E496E19
:10538800000E4A6E000E466E45B80AD03FC0D9FFDF
:1053980040C0DAFF2E0EDE18D8A402D045883CD0D3
:1053A8003FC0D9FF40C0DAFFDF50F1EC51F0D8A080
:1053B80036D04582090E4418D8B42CD045B84606D4
:1053C800442A47C005F048C006F049C007F04AC063
:1053D80008F00A0E096E000E0A6E000E0B6E000E23
:1053E8000C6EC7EC4EF005C047F006C048F007C089
:1053F80049F008C04AF03FC0D9FF40C0DAFFDF508B
:10540800436ED00E432643504726000E48224922B9
:105418004A2202D045A8462A3F4A402AB5D7000E5C
:10542800446E3FC0D9FF40C0DAFF650EDE18D8B41D
:1054380008D03FC0D9FF40C0DAFF450EDE18D8A417
:105448005ED03F4A402A3FC0D9FF40C0DAFF2D0E48
:10545800DE18D8A402D0458608D03FC0D9FF40C086
:10546800DAFF2B0EDE18D8A402D03F4A402A3FC0EC
:10547800D9FF40C0DAFF300EDE18D8B4F6D73FC0E7
:10548800D9FF40C0DAFFDF50F1EC51F0D8A035D099
:105498003FC0D9FF40C0DAFFDF50D00F446E3F4A0B
:1054A800402A3FC0D9FF40C0DAFFDF50F1EC51F08D
:1054B800D8A023D03FC0D9FF40C0DAFFDF50436EE9
:1054C80044500A0DF3504324D00F446E3F4A402AFB
:1054D8003FC0D9FF40C0DAFFDF50F1EC51F0D8A04F
:1054E8000CD03FC0D9FF40C0DAFFDF50436E4450B4
:1054F8000A0DF3504324D00F446E45B6446C445013
:10550800462641504210D8A445A208D041C0D9FF30
:1055180042C0DAFF3FC0DEFF40C0DDFF47C005F0F4
:1055280048C006F049C007F04AC008F0010EE8EC90
:1055380040F005C047F006C048F007C049F008C071
:105548004AF047C005F048C006F049C007F04AC015
:1055580008F0000E096E000E0A6E000E0B6E000EAB
:105568000C6E7DEC4AF0D8A009D0000E3F6E000EFC
:10557800406E000E416E000E426E120046AE6AD0BA
:10558800466C1CD047C026F048C027F049C028F018
:105598004AC029F0F90E2A6E020E2B6E150E2C6EDB
:1055A800500E2D6E1BEC34F026C047F027C048F093
:1055B80028C049F029C04AF0F60E46264650800A0F
:1055C800760FD8A01CD0DED747C026F048C027F0F9
:1055D80049C028F04AC029F0000E2A6E000E2B6E32
:1055E800200E2C6E410E2D6E1BEC34F026C047F0B9
:1055F80027C048F028C049F029C04AF0460646505E
:10560800D8A4E2D747C013F048C014F049C015F039
:105618004AC016F0000E176E000E186E800E196E36
:10562800000E1A6EF6EC46F0D8B080D045A009D02E
:10563800000E3F6E000E406E800E416E800E426E70
:105648001200000E3F6E000E406E800E416E000E7E
:10565800426E12004650800A7F0FD8B01DD066D027
:1056680047C00DF048C00EF049C00FF04AC010F016
:10567800F90E116E020E126E150E136E500E146E88
:1056880095EC2FF00DC047F00EC048F00FC049F060
:1056980010C04AF0F60E46260A0E4660E1D71BD027
:1056A80047C00DF048C00EF049C00FF04AC010F0D6
:1056B800000E116E000E126E200E136E410E146E47
:1056C80095EC2FF00DC047F00EC048F00FC049F020
:1056D80010C04AF046064650D8A4E2D7FF0E136E13
:1056E800FF0E146E7F0E156E7F0E166E47C017F0F4
:1056F80048C018F049C019F04AC01AF0F6EC46F054
:10570800D8B014D045A009D0000E3F6E000E406EF0
:10571800800E416E800E426E1200000E3F6E000E2B
:10572800406E800E416E000E426E120045A012D0EF
:1057380047C005F048C006F049C007F04AC008F065
:10574800DCEC50F005C047F006C048F007C049F04F
:1057580008C04AF047C03FF048C040F049C041F097
:105768004AC042F01200000E0101006F000E016FE6
:10577800000E036F000E026F000E056F000E046F1F
:10578800000E076F000E066F000E0A6F000E0B6FFB
:10579800070E0001D5651200D3C0D9FFD4C0DAFFC7
:1057A800DF500101006F000120EE01F0D351D9262E
:1057B800D451DA22DF500101016FD3C005F0D4C003
:1057C80006F0D5C007F086EC4BF005500610D8A4BB
:1057D80012001CD1080E0001D519D8A43CD0020E25
:1057E80001010B6F000120EE02F0D351D926D451EC
:1057F800DA22DF50D66FD651D86FD76B20EE03F080
:10580800D351D926D451DA22DF50D96FD951D711C3
:105818000101026F0001D8510101036F000120EE60
:1058280004F0D351D926D451DA22DF50D66FD6519D
:10583800D86FD76B20EE05F0D351D926D451DA2290
:10584800DF50D96FD951D7110101046F0001D85128
:105858000101056FE6D020EE02F0D351D926D451CC
:10586800DA22DF5001010A6F0A510001D66FD76BA7
:10587800FB0ED86FFF0ED96FD551DA6FDB6BD8519D
:10588800DA27D951DB23D651DA1906E1D751DB19CA
:10589800D8A402D0030EB0D0580EC06FFA0EC16F54
:1058A800F3EC50F0BED0080E0001D519D8A440D0B2
:1058B800010E01010B6F000120EE02F0D351D92631
:1058C800D451DA22DF50D66FD651D86FD76B20EE7D
:1058D80003F0D351D926D451DA22DF50D96FD951E8
:1058E800D7110101026F0001D8510101036F000EA9
:1058F800056F010E046F000120EE04F0D351D92684
:10590800D451DA22DF50D66FD651D86FD76B20EE3C
:1059180005F0D351D926D451DA22DF50D96FD951A5
:10592800D7110101066F0001D8510101076F79D025
:10593800580EC06FFA0EC16FF3EC50F072D0000130
:1059480020EE02F0D351D926D451DA22DF50D66F97
:10595800D651D86FD76B20EE03F0D351D926D45146
:10596800DA22DF50D96FD951D7110101026F000136
:10597800D8510101036F000120EE04F0D351D9265C
:10598800D451DA22DF50D66FD651D86FD76B20EEBC
:1059980005F0D351D926D451DA22DF50D96FD95125
:1059A800D7110101046F0001D8510101056F080EDC
:1059B8000001D519D8B46ED720EE06F0D351D926F8
:1059C800D451DA22DF5001010A6F0A510001D66F63
:1059D800D76BF70ED86FFF0ED96FD551DA6FDB6B27
:1059E800D851DA27D951DB23D651DA1908E1D75132
:1059F800DB19D8A404D0020E01010B6F12D0580E87
:105A0800C06FFA0EC16FF3EC50F00BD001010151D9
:105A1800040AD8B4DFD6020AD8B445D7160AD8B4CF
:105A28008ED701010B51D8B485D00A51D8B482D091
:105A3800D3C008F1D4C009F10001D55101010825EE
:105A48000001D66F000E010109210001D76F010185
:105A58000A510001D65F000ED75BFE0ED625010164
:105A6800086FFF0E0001D7210101096F63D0000EF6
:105A7800106F00C10CF101C10DF102C10EF103C19B
:105A88000FF1120000510C19D8A40FD00D510119B3
:105A9800D8A40BD0010E106F040E0119D8A407D09A
:105AA8000EC102F10FC103F102D0000E106F000EFB
:105AB8000C6F000E0D6F000E0F6F000E0E6F1200B0
:105AC80000510C19D8A411D00D510119D8A40DD02A
