:020000040000FA
:0400000035EF01F0E7
:100008005982D9CF05F0DACF06F02ED0AECF62F103
:10001800030E01012525016E000E2621026E000E39
:100028002721036E000E2821046E2951015C2A51F4
:1000380002582B5103582C51045801E2616B320EBF
:10004800611901E16107640E6125D96EDA6A030E50
:10005800DA2262C1DFFF612B29C125F12AC126F10D
:100068002BC127F12CC128F19EBAD0D79EB89DA8E4
:1000780042D0000E01015D25D96EDA6A030EDA223C
:10008800DF50AD6E5D2B5C515D1903E0320E5D19DA
:1000980032E19D985D6B2FD071B4D0A209D057047E
:1000A80007E174CF62F10101625104E1FF0002D05F
:1000B80074CF62F1D08262C173FF320E0101601900
:1000C80001E16007080E621904E1605102E060076F
:1000D80012D00D0E621903E00A0E621903E1626B79
:1000E80060295E6F9E0E6025D96EDA6A020EDA22EA
:1000F80062C1DFFF602BA4BACFD7ABD00101930553
:1001080050E1545003E1030E571825E02C0E3D5DD5
:10011800010E3E5902E2899801D08988898A3D51A9
:10012800016E3E51026E3D4B3E2B910E015C010E5D
:1001380002580EE382B208D0890E3D5D130E3E5977
:1001480007E33D6B3E6B04D0010E3E6F900E3D6F92
:100158003F6B406B6FD02C0E3F5D010E405903E2A0
:100168008988899A02D08988898A3F51016E4051CD
:10017800026E3F4B402B910E015C010E02580EE3BC
:1001880082A208D0890E3F5D130E405907E33F6BEA
:10019800406B04D0010E406F900E3F6F3D6B3E6B7D
:1001A80049D0020E931946E1545003E1030E571843
:1001B80020E0580E3D5D020E3E5902E2899801D0BA
:1001C8008988898A3D51016E3E51026E3D4B3E2B16
:1001D800BD0E015C020E0258BBE382A206D0890E56
:1001E8003D5D130E3E59ADE2B3D7020E3E6FBC0E15
:1001F800AED7580E3F5D020E405903E28988899AAE
:1002080002D08988898A3F51016E4051026E3F4B66
:10021800402BBD0E015C020E0258C0E382B206D02C
:10022800890E3F5D130E4059B2E2B8D7020E406FF7
:10023800BC0EB3D7292B000E2A232B232C235407BB
:10024800542906E151C167FF0A0E546F010E536F1E
:100258007E907EB053D706C0DAFF05C0D9FF599209
:100268001100C2EF3FF0E2EF0AF0250E981930E0D6
:100278007351D96EDA6A020ED926DE50DE1013E009
:100288007351D96EDA6A020ED92602D8E2EF0AF063
:100298000500FA6EDE50FD6EDE50FE6EF850FF6E01
:1002A800FA50985112007351D96EDA6ADECF77F09E
:1002B800DDCF78F077C0D9FF78C0DAFF98C0DFFFCC
:1002C8007351D96EDA6ADE2A000EDD22E2EF0AF0F7
:1002D800926B936B966B976B07D00001968702D051
:1002E80000019685744B752B74C0F6FF75C0F7FF37
:1002F800F86A0F0EF76403D00800F55005D0F6CF62
:10030800E9FFF7CFEAFFEF502D0AE7E01D0AE8E022
:10031800000196B7969574C0F6FF75C0F7FFF86AA6
:100328000F0EF76403D00800F55005D0F6CFE9FFAB
:10033800F7CFEAFFEF50AEEC4AF044E30001926BCE
:10034800936B92C007F093C008F00A6A0A0E096E10
:100358000CEC4AF007C092F008C093F0D00E0001F0
:10036800776F786974C0F6FF75C0F7FFF86A0F0EEB
:10037800F76403D00800F55005D0F6CFE9FFF7CFB2
:10038800EAFFEF500001796F7A6B7751792778513E
:100398007A23795192277A519323744B752B74C021
:1003A800F6FF75C0F7FFF86A0F0EF76403D0080070
:1003B800F55005D0F6CFE9FFF7CFEAFFEF50AEECE6
:1003C8004AF0BFE274C0F6FF75C0F7FFF86A0F0E77
:1003D800F76403D00800F55005D0F6CFE9FFF7CF52
:1003E800EAFFEF502E0A4AE10001978D744B752BF6
:1003F800946B956B2ED094C007F095C008F00A6AEC
:100408000A0E096E0CEC4AF007C094F008C095F08B
:10041800D00E0001776F786974C0F6FF75C0F7FFDA
:10042800F86A0F0EF76403D00800F55005D0F6CF30
:10043800E9FFF7CFEAFFEF500001796F7A6B775148
:10044800792778517A23795194277A519523744BD7
:10045800752B74C0F6FF75C0F7FFF86A0F0EF764C6
:1004680003D00800F55005D0F6CFE9FFF7CFEAFF33
:10047800EF50AEEC4AF001E238D1BDD70001946BE1
:10048800956B978932D1978562D1968F60D17651D5
:10049800D96EDA6A020EDF26DF5CD96EDA6ADECF41
:1004A80080F0DECF81F08051811104E15D0E806F14
:1004B800FC0E816F826B836B03D00001824B832B10
:1004C80082518025776F83518121786F77C0F6FF3D
:1004D80078C0F7FFF86A0F0EF76403D00800F550EC
:1004E80005D0F6CFE9FFF7CFEAFFEF500009E5E1C5
:1004F8000001945195110DE08251945D9551800A47
:10050800776F8351800A775904E294C082F095C0CE
:1005180083F09251825D9351835905E28251925F33
:100528008351935B02D0926B936B96B788D02CD093
:100538007351D96EDA6A020ED926DE50DE1011E048
:100548007351D96EDA6A020ED92601D81DD005007A
:10055800FA6EDE50FD6EDE50FE6EF850FF6EFA50F9
:10056800200C7351D96EDA6ADECF77F0DDCF78F0E0
:1005780077C0D9FF78C0DAFF200EDF6E7351D96ECD
:10058800DA6ADE2A000EDD2200019207D8A093075E
:100598009229CEE1932953E0CBD77351D96EDA6A09
:1005A800020ED926DE50DE1025E07351D96EDA6AC4
:1005B800020ED92601D81AD00500FA6EDE50FD6E5B
:1005C800DE50FE6EF850FF6EFA5080C0F6FF81C014
:1005D800F7FFF86A0F0EF76403D00800F55005D04E
:1005E800F6CFE9FFF7CFEAFFEF5012000001804B8A
:1005F800812B25D080C0F6FF81C0F7FFF86A7351C0
:10060800D96EDA6ADECF77F0DDCF78F077C0D9FF20
:1006180078C0DAFF0F0EF76403D00800F55005D054
:10062800F6CFE9FFF7CFEAFFEF50DF6E0001804B0E
:10063800812B7351D96EDA6ADE2A000EDD22820719
:10064800D8A083078229A9E18329A7E196A7E2EF29
:100658000AF02CD07351D96EDA6A020ED926DE5010
:10066800DE1011E07351D96EDA6A020ED92601D86C
:100678001DD00500FA6EDE50FD6EDE50FE6EF8509D
:10068800FF6EFA50200C7351D96EDA6ADECF77F01C
:10069800DDCF78F077C0D9FF78C0DAFF200EDF6EA3
:1006A8007351D96EDA6ADE2A000EDD220001920744
:1006B800D8A093079229CEE1932902E1E2EF0AF04C
:1006C800C9D77651D96EDA6ADF50DF2ADF2AD96EA8
:1006D800DA6ADF50986F980E806F816B836B010E1A
:1006E800826F06D7C00E961332D000017451776F0F
:1006F8007551786F744B752B77C0F6FF78C0F7FF8C
:10070800F86A0F0EF76403D00800F55005D0F6CF4D
:10071800E9FFF7CFEAFFEF500001986F985102E127
:10072800FFEF0AF0580A01E1B0D63B0ACAE0070A0F
:100738000EE0020A01E1A7D60F0A09E01A0A01E150
:10074800A6D6060ACFE00D0A01E19FD6C4D7070E48
:10075800971502E165EF08F097A903D0956B060E8F
:10076800946F7651D96EDA6ADFCF77F0040EDF2600
:100778007751D96EDA6ADECF8EF0DECF8FF0DECF1A
:1007880090F0DECF91F091AF15D08EC007F08FC0FA
:1007980008F090C009F091C00AF065EC4AF007C073
:1007A8008EF008C08FF009C090F00AC091F0030ED7
:1007B80000019613846B856B8EC007F08FC008F01C
:1007C80090C009F091C00AF00B6A0C6A0D6A0E6AB3
:1007D80069EC46F07BE2000190359135820F846F19
:1007E800856BFF0E85238407D8A0850784C007F092
:1007F80085C008F00A6A030E096E0CEC4AF007C0BF
:1008080084F008C085F084C062F085C063F0000100
:10081800656B0A0E646F3BEC44F062C084F063C001
:1008280085F085AF03D08407D8A0850784510008D8
:1008380025EC28F06AC086F06BC087F06CC088F0A1
:100848006DC089F086C00FF087C010F088C011F025
:1008580089C012F08EC013F08FC014F090C015F04C
:1008680091C016F038EC2DF00FC086F010C087F05C
:1008780011C088F012C089F086C015F087C016F044
:1008880088C017F089C018F0196A1A6A800E1B6EA2
:100898003F0E1C6E2AEC43F005E200018407D8A045
:1008A800850714D086C015F087C016F088C017F0E9
:1008B80089C018F0196A1A6A200E1B6E410E1C6E48
:1008C8002AEC43F003E30001844B852B000195BF1C
:1008D80005D0955120E10D0E945D1DE28EC037F0D4
:1008E8008FC038F090C039F091C03AF094510EECB6
:1008F80031F028C03BF029C03CF02AC03DF02BC0A5
:100908003EF0D1EC2FF037C08EF038C08FF039C0F0
:1009180090F03AC091F0000185BF05D0855129E1DA
:100928000A0E845D26E28EC007F08FC008F090C0E2
:1009380009F091C00AF00B6A0C6A0D6A0E6A69EC3C
:1009480046F05DE28EC041F08FC042F090C043F0A7
:1009580091C044F044EC42F041504210431044101E
:100968004EE1000185BF4BD0855103E1020E845D45
:1009780046E386C015F087C016F088C017F089C016
:1009880018F05F0E196E700E1A6E890E1B6E400EEF
:100998001C6E2AEC43F003E20001F70E02D00001BE
:1009A800F80E8427FF0E8523845125EC28F06AC0B1
:1009B80086F06BC087F06CC088F06DC089F08EC07F
:1009C80007F08FC008F090C009F091C00AF086C007
:1009D8000BF087C00CF088C00DF089C00EF027EC32
:1009E80040F007C08AF008C08BF009C08CF00AC03C
:1009F8008DF000018E6B8F6B906B916B3AD08EC02F
:100A080041F08FC042F090C043F091C044F044ECF4
:100A180042F041C08AF042C08BF043C08CF044C021
:100A28008DF08EC047F08FC048F090C049F091C05B
:100A38004AF08AC007F08BC008F08CC009F08DC05E
:100A48000AF0000EB3EC3BF007C04BF008C04CF0C6
:100A580009C04DF00AC04EF0E1EC48F047C08EF0F6
:100A680048C08FF049C090F04AC091F00001846BF3
:100A7800856B010E986F0A0E981917E09851040DAE
:100A8800450EF324F66EF00EF420F76E0900F550CB
:100A98008A5D0900F5508B590900F5508C590900F9
:100AA800F5508D5902E3982BE6D798519425776F26
:100AB800000E9521786F84517727855178237751D7
:100AC800925F7851935B9451951103E09207D8A0F7
:100AD800930796C077F0030E771703E09207D8A024
:100AE800930796A56BD096C077F0030E77175DE055
:100AF8007351D96EDA6A020ED926DE50DE1011E083
:100B08007351D96EDA6A020ED92601D84ED0050083
:100B1800FA6EDE50FD6EDE50FE6EF850FF6EFA5033
:100B28002D0C7351D96EDA6ADECF77F0DDCF78F00D
:100B380077C0D9FF78C0DAFF2D0EDF6E7351D96EFA
:100B4800DA6ADE2A000EDD2230D07351D96EDA6AF5
:100B5800020ED926DE50DE1011E07351D96EDA6A22
:100B6800020ED92601D81DD00500FA6EDE50FD6EA2
:100B7800DE50FE6EF850FF6EFA50300C7351D96E8D
:100B8800DA6ADECF77F0DDCF78F077C0D9FF78C0AA
:100B9800DAFF300EDF6E7351D96EDA6ADE2A000E84
:100BA800DD2200019207D8A09307000193BFD7D098
:100BB8009351CBE1920501E2D2D0C7D796B737D08F
:100BC80030D07351D96EDA6A020ED926DE50DE10A3
:100BD80011E07351D96EDA6A020ED92601D81DD0F8
:100BE8000500FA6EDE50FD6EDE50FE6EF850FF6EA8
:100BF800FA50200C7351D96EDA6ADECF77F0DDCF68
:100C080078F077C0D9FF78C0DAFF200EDF6E735115
:100C1800D96EDA6ADE2A000EDD2200019207D8A01A
:100C2800930793BF04D09351CCE19205CAE296C0D2
:100C380077F0030E771701E192D07351D96EDA6A13
:100C4800020ED926DE50DE1011E07351D96EDA6A31
:100C5800020ED92601D883D00500FA6EDE50FD6E4B
:100C6800DE50FE6EF850FF6EFA502D0C7351D96E9F
:100C7800DA6ADECF77F0DDCF78F077C0D9FF78C0B9
:100C8800DAFF2D0E65D08AC007F08BC008F08CC043
:100C980009F08DC00AF09851040D450EF324F66E44
:100CA800F00EF420F76E0900F5CF0BF00900F5CF30
:100CB8000CF00900F5CF0DF00A00F5CF0EF0B4ECFA
:100CC80044F007C086F008C087F009C088F00AC061
:100CD80089F086C014F087C015F088C016F089C066
:100CE80017F00A0E186E196A1A6A1B6A9BEC46F00E
:100CF80014C086F015C087F016C088F017C089F0B8
:100D08007351D96EDA6A020ED926DE50DE1013E06E
:100D18007351D96EDA6A020ED92601D820D005009F
:100D2800FA6EDE50FD6EDE50FE6EF850FF6EFA5021
:100D38008651300F12007351D96EDA6ADECF77F020
:100D4800DDCF78F077C0D9FF78C0DAFF8651300F51
:100D5800DF6E7351D96EDA6ADE2A000EDD220001D9
:100D68009807982931E08FD77351D96EDA6A020E45
:100D7800D926DE50DE1011E07351D96EDA6A020E00
:100D8800D92601D81DD00500FA6EDE50FD6EDE5062
:100D9800FE6EF850FF6EFA50300C7351D96EDA6A55
:100DA800DECF77F0DDCF78F077C0D9FF78C0DAFFF3
:100DB800300EDF6E7351D96EDA6ADE2A000EDD223C
:100DC80000018407D8A0850785BF04D08551CCE1F0
:100DD8008405CAE295BF08D0955103E1090E945DD8
:100DE80003E3080E986F02D094C098F09851945F6E
:100DF800000E955B98512CE07351D96EDA6A020E99
:100E0800D926DE50DE1011E07351D96EDA6A020E6F
:100E1800D92601D81DD00500FA6EDE50FD6EDE50D1
:100E2800FE6EF850FF6EFA502E0C7351D96EDA6AC6
:100E3800DECF77F0DDCF78F077C0D9FF78C0DAFF62
:100E48002E0EDF6E7351D96EDA6ADE2A000EDD22AD
:100E58000001985125EC28F06AC07BF06BC07CF04B
:100E68006CC07DF06DC07EF08EC013F08FC014F0A2
:100E780090C015F091C016F07BC00FF07CC010F048
:100E88007DC011F07EC012F038EC2DF00FC041F09B
:100E980010C042F011C043F012C044F044EC42F0DC
:100EA80041C08AF042C08BF043C08CF044C08DF042
:100EB80093D08AC007F08BC008F08CC009F08DC0B1
:100EC8000AF09851040D450EF324F66EF00EF42046
:100ED800F76E0900F5CF0BF00900F5CF0CF009000B
:100EE800F5CF0DF00A00F5CF0EF0B4EC44F007C0D2
:100EF80086F008C087F009C088F00AC089F086C06B
:100F080014F087C015F088C016F089C017F00A0ED3
:100F1800186E196A1A6A1B6A9BEC46F014C086F0B0
:100F280015C087F016C088F017C089F07351D96EC4
:100F3800DA6A020ED926DE50DE1013E07351D96E3C
:100F4800DA6A020ED92601D820D00500FA6EDE50E2
:100F5800FD6EDE50FE6EF850FF6EFA508651300F6F
:100F680012007351D96EDA6ADECF77F0DDCF78F0F0
:100F780077C0D9FF78C0DAFF8651300FDF6E735122
:100F8800D96EDA6ADE2A000EDD228AC014F08BC020
:100F980015F08CC016F08DC017F000019851040DA3
:100FA800450EF324F66EF00EF420F76E0900F5CF27
:100FB80018F00900F5CF19F00900F5CF1AF00A006A
:100FC800F5CF1BF09BEC46F014C08AF015C08BF0EF
:100FD80016C08CF017C08DF000019807982931E0F1
:100FE80068D77351D96EDA6A020ED926DE50DE1040
:100FF80011E07351D96EDA6A020ED92601D81DD0D4
:101008000500FA6EDE50FD6EDE50FE6EF850FF6E83
:10101800FA50300C7351D96EDA6ADECF77F0DDCF33
:1010280078F077C0D9FF78C0DAFF300EDF6E7351E1
:10103800D96EDA6ADE2A000EDD2200019407D8A0F4
:10104800950794519511CDE196B793BFB7D29351B7
:1010580003E1920501E2B2D27351D96EDA6A020E47
:10106800D926DE50DE1011E07351D96EDA6A020E0D
:10107800D92601D81DD00500FA6EDE50FD6EDE506F
:10108800FE6EF850FF6EFA50200C7351D96EDA6A72
:10109800DECF77F0DDCF78F077C0D9FF78C0DAFF00
:1010A800200EDF6E7351D96EDA6ADE2A000EDD2259
:1010B80000019207D8A093079251931101E17ED2C3
:1010C800CBD796C077F0C00E77171EE17651D96E50
:1010D800DA6ADF50DF2ADF2AD96EDA6ADECF8AF0D1
:1010E800DDCF8BF0000E8BBFFF0E8C6F8D6F8DAF39
:1010F8001DD0030E96138D1F8C1F8B1F8A6D000E3B
:101108008B238C238D2312D07651D96EDA6ADF5067
:10111800DF2ADF2AD96EDA6ADECF77F0DDCF78F002
:1011280077C08AF078C08BF08C6B8D6B94519511D9
:1011380040E18A518B118C118D113BE1944B952B19
:1011480038D0010E986F0A0E98193AE09851040D9C
:10115800450EF324F66EF00EF420F76E0900F550F4
:101168008A5D0900F5508B590900F5508C59090022
:10117800F5508D5925E3982BE6D7010E986F080E88
:1011880098191EE09851040DBE0EF324F66EE50E74
:10119800F420F76E0900F5508A5D0900F5508B5967
:1011A8000900F5508C590900F5508D5909E3982B21
:1011B800E6D79651C00BC5E0800ADFE0400AC1E0DF
:1011C8009851776F786B9451775D7851800A796F71
:1011D8009551800A795903E294C098F00FD098513C
:1011E800776F786B7751945D9551800A796F785154
:1011F800800A795903E298C094F0956B9251931143
:1012080008E096C077F0030E771703E09207D8A09E
:10121800930797AD10D09251945D9551800A776FDE
:101228009351800A775905E29451925F9551935BE7
:1012380002D0926B936B9851776F786B9251775D70
:101248007851800A796F9351800A795905E298514B
:10125800925F000E935B02D0926B936B96A567D05A
:1012680096C077F0030E77172CE07351D96EDA6ABF
:10127800020ED926DE50DE1011E07351D96EDA6AFB
:10128800020ED92601D81DD00500FA6EDE50FD6E7B
:10129800DE50FE6EF850FF6EFA502D0C7351D96E69
:1012A800DA6ADECF77F0DDCF78F077C0D9FF78C083
:1012B800DAFF2D0EDF6E7351D96EDA6ADE2A000E60
:1012C800DD2200019251931101E136D17351D96E9B
:1012D800DA6A020ED926DE50DE1011E07351D96E9B
:1012E800DA6A020ED92601D81DD00500FA6EDE5042
:1012F800FD6EDE50FE6EF850FF6EFA50300C7351E2
:10130800D96EDA6ADECF77F0DDCF78F077C0D9FF13
:1013180078C0DAFF300EDF6E7351D96EDA6ADE2AD2
:10132800000EDD2200019207D8A09307CBD7925177
:10133800931135E096B733D07351D96EDA6A020E3D
:10134800D926DE50DE1011E07351D96EDA6A020E2A
:10135800D92601D81DD00500FA6EDE50FD6EDE508C
:10136800FE6EF850FF6EFA50200C7351D96EDA6A8F
:10137800DECF77F0DDCF78F077C0D9FF78C0DAFF1D
:10138800200EDF6E7351D96EDA6ADE2A000EDD2276
:1013980000019207D8A0930792519311CDE196C00E
:1013A80077F0030E771701E1C7D07351D96EDA6A67
:1013B800020ED926DE50DE1011E07351D96EDA6ABA
:1013C800020ED92601D8B8D00500FA6EDE50FD6E9F
:1013D800DE50FE6EF850FF6EFA502D0C7351D96E28
:1013E800DA6ADECF77F0DDCF78F077C0D9FF78C042
:1013F800DAFF2D0EDF6E9AD094C077F095C078F0A2
:10140800D89077377837D89077377837450E77255B
:10141800F66EF00E7821F76E0900F5CF0BF0090093
:10142800F5CF0CF00900F5CF0DF00A00F5CF0EF05E
:101438008AC007F08BC008F08CC009F08DC00AF094
:10144800B4EC44F007C014F008C015F009C016F059
:101458000AC017F00A0E186E196A1A6A1B6A9BEC02
:1014680046F01450300F986F3AD08AC007F08BC0FE
:1014780008F08CC009F08DC00AF094C077F095C0D0
:1014880078F0D89077377837D89077377837BE0E96
:101498007725F66EE50E7821F76E0900F5CF0BF08B
:1014A8000900F5CF0CF00900F5CF0DF00A00F5CFD3
:1014B8000EF0B4EC44F007500F0B7F6FB10E7F2590
:1014C800F66EF76AFA0EF7220800F5CF98F007D003
:1014D8009651C00B91E0800AC8E0400A8DE0735134
:1014E800D96EDA6A020ED926DE50DE1012E0735188
:1014F800D96EDA6A020ED92601D81ED00500FA6E16
:10150800DE50FD6EDE50FE6EF850FF6EFA509851B8
:1015180012007351D96EDA6ADECF77F0DDCF78F03A
:1015280077C0D9FF78C0DAFF98C0DFFF7351D96E52
:10153800DA6ADE2A000EDD2200019407D8A095079A
:101548009429C6E19529C4E196B793BF37D0935142
:1015580002E1920533E37351D96EDA6A020ED92695
:10156800DE50DE1011E07351D96EDA6A020ED92608
:1015780001D81DD00500FA6EDE50FD6EDE50FE6EFD
:10158800F850FF6EFA50200C7351D96EDA6ADECF2C
:1015980077F0DDCF78F077C0D9FF78C0DAFF200E7A
:1015A800DF6E7351D96EDA6ADE2A000EDD22000181
:1015B8009207D8A0930792519311CDE1000174517D
:1015C800776F7551786F744B752B77C0F6FF78C0BD
:1015D800F7FFF86A0F0EF76403D00800F55005D03E
:1015E800F6CFE9FFF7CFEAFFEF500001986F985167
:1015F80002E039EF01F0736B746B12000101C46BE8
:10160800050EC36FC06BB06BC26BC16BB16B010EC3
:10161800BF6FAF6F21EEB2F00B0EDE6AE806FDE297
:1016280097EC41F0B8EC37F00A0E0101DD03F3CF77
:10163800A3F1F4CFA4F1DE03F350A427A3C141F131
:10164800A4C142F178EC44F034EC49F0D0827FEC4C
:1016580038F00101CC6F020ECC1902E1800E546EF5
:101668000001FB5102E025EC3BF001015E5102E074
:10167800E4EC18F05D5102E1ACB28A9AFAEC43F05E
:10168800A30E946E00F000F08250210B0101CC6F84
:10169800CC39E8461F0BD06FCC51CC25020BD013A8
:1016A8008150010BD013820E946E070ED01903E1FE
:1016B800CF51D01903E0D05153EC21F0010E5865F9
:1016C8001CD0170E586119D0880E2125A36F130E50
:1016D8002221A46F000E2321A56F000E2421A66FDE
:1016E8002951A35D2A51A4592B51A5592C51A6590A
:1016F80004E2575102E119EC3EF058511EE1060E82
:10170800D0191BE1565019E0BE5117E1561C030BC6
:10171800566ED60E5416536A4C6B0001FD0509E14E
:10172800356AA80E346E56C036F0376A000EA9EC3A
:1017380049F0050E0101BE6F06D0BE5104E0070E48
:10174800D01901E1BE07010E81A4000EBF1901E105
:1017580088D0B12BB105A36F050EA36584D0000E08
:1017680081B4010EBF6FBF514FE076D04D5104E0F8
:101778004D6B010E576E02D0010E4D6F360E0001F3
:10178800B66FFB0EB76F4DC1B8F0B96BE6EC49F018
:1017980045D0010E4D6F42D0560402E1020E04D02E
:1017A800020E561802E1010E566ED60E5416536AF2
:1017B8004C6B0001FD0532E1565030E0356AA80E49
:1017C800346E56C036F0376A000EA9EC49F026D0C0
:1017D800010E566E0001FD0521E156501FE0356AE5
:1017E800A80E346E56C036F0376A000EA9EC49F0E0
:1017F80015D0030E571812E1010E576E0001FB5168
:101808000DE10F0E536E0AD05550010AAFE0030ADE
:10181800C0E0010AC1E0070ADBE0EBD7010191054E
:1018280004E154B881B201D054983C0E5B6F8986AC
:1018380018D04D6B010E576E14D0020E566E000173
:10184800FD050FE1356AA80E346E56C036F0376ACA
:10185800000EA9EC49F005D05550020AEAE0060A44
:10186800ECE00101B16B910508E181B281A205D0DC
:10187800010E576E100E546E5A6B050E57181DE167
:101888002C512B1105E1E90E295D030E2A5915E3A8
:10189800356A010E346E376A366A0001FD51A9ECCB
:1018A80049F0F30E0001B66FF70EB76FE6EC49F09A
:1018B8000101296B2A6B2B6B2C6B570401E0BFD0FD
:1018C800BD6A82848A982D6B55EC47F00101CA6F76
:1018D800CA0503E1549A5490536A020ECA1904E0E7
:1018E800020ECA1901E0ABD0020E631901E0A4D0C0
:1018F8004D5101E1A1D0C42BC405A36F190EA365F6
:101908009ED0E8EC39F0E80601E15486535001E036
:1019180096D0545001E093D0C26B72EC43F0660E3F
:101928000001B66FF90EB76F49C1B8F04AC1B9F0F6
:10193800DBC1BAF0DCC1BBF0E6EC49F00101DB51D8
:10194800495DDC514A5908E20A0E4903F3CFA3F175
:10195800F4CFA4F14A0307D00A0EDB03F3CFA3F1B7
:10196800F4CFA4F1DC03F350A427A3C147F1A4C129
:1019780048F1010E0001FD6542D0356A020E346E51
:1019880047C136F048C137F0FD51A9EC49F047C1CD
:1019980007F048C108F0096A0A6A000EB3EC3BF088
:1019A80007C028F008C029F009C02AF00AC02BF0A7
:1019B8002C6A2D6A200E2E6E410E2F6E4DEC33F0E0
:1019C80028C0C6F129C0C7F12AC0C8F12BC0C9F187
:1019D800810E0001B66FF70EB76FC6C1B8F0C7C168
:1019E800B9F0C8C1BAF0C9C1BBF0E6EC49F0060EBF
:1019F800576E0101296B2A6B2B6B2C6B20D00A0EBA
:101A080001014903F3CFA3F1F4CFA4F14A03F35042
:101A1800A427A3C111F1A4C112F1010E2D6F020E6A
:101A2800576E3C0E5B6F89861C0E0001B66FFB0E6D
:101A3800B76FE6EC49F003D0020E636FC46B060E75
:101A480057180BE101012C512B1105E1E90E295D15
:101A5800030E2A5902E3010E576E020E571801E0D1
:101A6800C7D0070EBC64B0D0180EBC60ADD055EC22
:101A780047F00101CA6FCA0522E163051CE1C42BC6
:101A8800C405A36F190EA3659FD0010E576E020EF1
:101A98000001B66FFB0EB76FE6EC49F0010EFD656D
:101AA80093D0050E576EE90E0101296F030E2A6FB8
:101AB8002B6B2C6B89D0010E636FC46B85D0030E22
:101AC800CA197EE1030E631979E1C20577E1C42BD7
:101AD800C405A36F190EA36577D0545075E1535010
:101AE80073E1010E0001FD6542D0356A030E346EC4
:101AF80047C136F048C137F0FD51A9EC49F047C15C
:101B080007F048C108F0096A0A6A000EB3EC3BF016
:101B180007C028F008C029F009C02AF00AC02BF035
:101B28002C6A2D6A200E2E6E410E2F6E4DEC33F06E
:101B380028C0C6F129C0C7F12AC0C8F12BC0C9F115
:101B4800A70E0001B66FF70EB76FC6C1B8F0C7C1D0
:101B5800B9F0C8C1BAF0C9C1BBF0E6EC49F0070E4C
:101B6800576E0101296B2A6B2B6B2C6B2DD047C14B
:101B780011F148C112F1E8EC39F000091DE1020E3B
:101B88002D6F856B866B010ED7EC1DF08A880101DD
:101B9800C26B030E576E5A6B296B2A6B2B6B2C6B1F
:101BA800585102E1E7EC13F0290E0001B66FFB0E65
:101BB800B76FE6EC49F008D0548606D0030E7CD700
:101BC800020E631901E0636BE60EBC6411D0F10EDE
:101BD800BC64FDD7BC6401D0BC5055EC47F0010192
:101BE800CA6F040ECA1903E1010EC26F01D0C26B9D
:101BF800070E571813E101012C512B1105E1E90ECD
:101C0800295D030E2A590AE3C26B020E576E510E64
:101C18000001B66FFA0EB76FE6EC49F0030E5718DD
:101C28005AE1070EBC6457D0180EBC6054D055EC6E
:101C380047F00101CA6FCA0502E0CA5121E16305F4
:101C48001BE1C42BC405A36F190EA36544D08A9861
:101C5800010E576E0F0E0001B66FFB0EB76FE6EC64
:101C680049F078EC44F0010E0001FD6502D0050E44
:101C780026D001012D6B2FD0010E636FC46B2BD0C2
:101C8800020ECA1927E1020E631922E1C42BC4050A
:101C9800A36F190EA3651FD08A98020E576E590EAE
:101CA8000001B66FFA0EB76FE6EC49F078EC44F035
:101CB8000101C26B010E0001FD65DBD7080E576EEE
:101CC800E90E0101296F030E2A6F2B6B2C6B03D0D1
:101CD800020ED3D7636B080E57181EE101012C5171
:101CE8002B1105E1E90E295D030E2A5915E3356A22
:101CF800040E346E376A366A0001FD51A9EC49F0CA
:101D0800190E0001B66FF80EB76FE6EC49F0010145
:101D1800296B2A6B2B6B2C6BABA202D0AB98AB88D0
:101D280071A202D071987188D6CFCCF13C0ED764DD
:101D3800F1D0D76AD66AABEC47F04C5131E03C0E93
:101D4800D503F3CFA3F1F4CFA4F1D603F350A4271E
:101D58003951A56F3A51A66F394B3A2BA351A55D5E
:101D6800A451A6591FE3010E576E4C6B396B3A6BA1
:101D7800CC6B030ECC6501D009D02D0ECC25D96EC5
:101D8800DA6A010EDA22DF6ACC2BF3D7356A020E43
:101D9800346E376A200E366E000EA9EC49F002D078
:101DA800396B3A6B535001E05306370E596102D034
:101DB80054B4549454C0A3F1210EA3171AE0020E90
:101DC8000001FD6116D0E8EC39F0000912E15490E9
:101DD800549AA90E0001B66FF80EB76FE6EC49F0F9
:101DE800356A020E346E54C036F0376A000EA9EC1C
:101DF80049F00101C3511BE154B219D05482010EBC
:101E0800576E840E0001B66FF90EB76FE6EC49F015
:101E18000101CC6B030ECC6501D00CD02D0ECC2566
:101E2800D96EDA6A010EDA22DF6ACC2BF3D7C351F6
:101E380001E0C307400E596519D05484010E576E4E
:101E4800F40E0001B66FF90EB76FE6EC49F0010128
:101E5800CC6B030ECC6501D009D02D0ECC25D96EE4
:101E6800DA6A010EDA22DF6ACC2BF3D754C0A3F169
:101E7800290EA3171DE05496020E56180BE1535075
:101E880007E1A20E0001B66FF90EB76FE6EC49F054
:101E9800548A0AD0535007E1CA0E0001B66FF80EF3
:101EA800B76FE6EC49F05480010E576E3C0E536E46
:101EB800E7EC13F0565007E00101AF07AF2903E143
:101EC800010E506FAF6F565025E10101456B466B0F
:101ED800C15101E0C107020E0001FD611BD00101E3
:101EE800C15118E1000ED7EC1DF0FD0502E1CAEC66
:101EF8004AF0020E571803E0030E571806E185C191
:101F08004BF086C14CF03DEC3CF0020E0101C16F74
:101F18000A0EC36F0101505118E0020E0001FD6165
:101F280014D00CD0E0C139F05850F9EC47F00CD07F
:101F3800DFC139F08F51F9EC47F006D0010150515B
:101F4800010AF0E0030AF4E0506B0101615102E17B
:101F5800C6EF13F0030E2525A36F000E2621A46FEC
:101F6800000E2721A56F000E2821A66F2951A35D19
:101F78002A51A4592B51A5592C51A65902E3C6EF51
:101F880013F0320E076E030E086E640E096E030E10
:101F98000A6E61C10BF00C6A29EC47F061C15FF170
:101FA8000101616B320E0001D56F030ED66F5FC160
:101FB800D7F0FCEC29F0030E01010B1901E094D0D5
:101FC8000A0EC36F8CD0585028E0E051001925E163
:101FD8005850120D0B0EF324D96E020EF420DA6E4F
:101FE800DE5002191AE1DE50031917E108C14CF05E
:101FF80009C14DF058C04EF0790E4F6E010E506E6B
:1020080036EC24F001018F5105E0020E506F010EED
:10201800B06FB8D3AEEC2BF0B5D3B05101E1B2D369
:102028008F5101E1AFD3DF51001901E0ABD38F51DC
:10203800120D0B0EF324D96E020EF420DA6EDE5068
:10204800021951E1DE50031901E09CD308C14CF09C
:1020580009C14DF08FC14EF0B20E4F6E010E506E99
:1020680036EC24F00101CC6B020ECC6501D035D0E2
:10207800CC51040D790EF324D96E010EF420DA6EDA
:10208800DECF47F0DECF48F0DECF49F0DECF4AF0B2
:10209800CC51040DB20EF324D96E010EF420DA6E81
:1020A800DECF4BF0DECF4CF0DECF4DF0DECF4EF082
:1020B800E1EC48F00101CC51040D790EF324D96EFE
:1020C800010EF420DA6E47C0DEFF48C0DEFF49C0CB
:1020D800DEFF4AC0DEFFCC2BC7D7B06B9BD70151C0
:1020E800040A01E170D74ED3020E0B1901E0B6D0F5
:1020F8000A0EC36FA9D00001FD510101001901E0CA
:1021080041D3AAEC3DF00101C56FC52901E13AD3DD
:10211800C551CCEC46F036D3010E006519D0050E3A
:10212800006116D00251031107E0035105E1050EC5
:10213800025D02E2030E0BD0035103E1810E025D42
:1021480007E3035105E1850E025D02E2020EC06F4E
:102158000A0E001910E1A80E021903110CE14F0E26
:10216800061909E1490E071906E10001FB5103E1CF
:10217800010EFB6F07D30101005106E00001FD517C
:102188000101001901E0FED2AAEC3DF00101C56F82
:10219800C52903E0C551EFEC44F0020E0101C06F00
:1021A800F1D2005106E00001FD510101001901E0E2
:1021B800E9D2020503113DE1010E0001FD6539D0A8
:1021C800FD510101A36FA46BD890A337A43721EE6A
:1021D80008F0DECFA5F1DDCFA6F1A351A527A451C4
:1021E800A623FE0EA525D96EFF0EA621DA6EDF50B6
:1021F800A86FA76B0001FD510101A96FAA6BD890C8
:10220800A937AA3721EE08F0DECFABF1DDCFACF16C
:10221800A951AB27AA51AC23FF0EAB25D96EFF0EEF
:10222800AC21DA6EDF50A711AD6FA851AE6F020E68
:10223800C06FAAEC3DF00101C56FC52901E1A2D22A
:10224800C55134EC3DF09ED20151040A01E153D747
:10225800020A01E161D7160AA4E094D2F30E000144
:10226800B66FFA0EB76FE6EC49F08CD2005162E116
:10227800010E0001FD655ED04FD0ADC185F1AEC144
:1022880086F1020E571803E0030E571806E185C1C0
:102298004BF086C14CF03DEC3CF085C107F086C19F
:1022A80008F0096A0A6A000EB3EC3BF007C028F090
:1022B80008C029F009C02AF00AC02BF02C6A2D6A40
:1022C800200E2E6E410E2F6E4DEC33F028C0C6F155
:1022D80029C0C7F12AC0C8F12BC0C9F13F0E0001BF
:1022E800B66FF80EB76FC6C1B8F0C7C1B9F0C8C1AC
:1022F800BAF0C9C1BBF0E6EC49F01CD0010E576E2C
:1023080006C154F03C0E536E630E0001B66FF80E12
:10231800B76FE6EC49F00ED021EE02F0DECFA3F164
:10232800DDCFA4F10101A45105E1A351010AA5E003
:10233800030AE4E00001FD510101001901E1B1D0F7
:1023480029D2010E576EC20E0001B66FFA0EB76F92
:10235800E6EC49F01FD20651071109E154863D0EFB
:102368000001B66FFC0EB76FE6EC49F013D206C158
:102378004BF007C14CF03DEC3CF0020E576E06C125
:1023880007F007C108F0096A0A6A000EB3EC3BF0CF
:1023980007C028F008C029F009C02AF00AC02BF0AD
:1023A8002C6A2D6A200E2E6E410E2F6E4DEC33F0E6
:1023B80028C0C6F129C0C7F12AC0C8F12BC0C9F18D
:1023C800010E0001B66FF70EB76FC6C1B8F0C7C1EE
:1023D800B9F0C8C1BAF0C9C1BBF0E6EC49F0DAD12E
:1023E8000651071109E15486450E0001B66FFC0E2F
:1023F800B76FE6EC49F0CED106C14BF007C14CF0FF
:102408003DEC3CF08A880101C26B030E576E5A6B93
:10241800296B2A6B2B6B2C6B585102E1E7EC13F0FC
:1024280006C107F007C108F0096A0A6A000EB3EC92
:102438003BF007C028F008C029F009C02AF00AC0FC
:102448002BF02C6A2D6A200E2E6E410E2F6E4DEC4D
:1024580033F028C0C6F129C0C7F12AC0C8F12BC083
:10246800C9F1590E0001B66FF70EB76FC6C1B8F0C3
:10247800C7C1B9F0C8C1BAF0C9C1BBF0E6EC49F0B0
:10248800290EB66FFB0EB76FE6EC49F083D1020E4A
:10249800576ECD0E0001B66FF70EB76FE6EC49F038
:1024A80079D121EE02F0DECFA3F1DDCFA4F1A45162
:1024B80001E070D1A351810A01E143D7030A01E188
:1024C8004AD7010A8DE0070AE2E064D10001FD0560
:1024D80001E060D101010005CB6F3FD12D0ECB2566
:1024E800D96EDA6A010EDA22DF6A000ED7EC1DF027
:1024F8003B0EB66FFA0EB76FCBC1B8F0B96BE6EC0E
:1025080049F0356A810E346E376A366A0101005126
:10251800A9EC49F03FD1E8EC39F000092CE12D0E87
:10252800CB25D96EDA6A010EDA22010EDF6ECB51A5
:10253800020D110EF324D96E010EF420DA6E06C1D5
:10254800DEFF07C1DDFF0A0E0001FE03F3CFA3F192
:10255800F4CFA4F1FF03F3500101A427CB51020DDE
:10256800850EF324D96E010EF420DA6EA3C1DEFFC6
:10257800A4C1DDFF0AD0CB51020D850EF324D96E1C
:10258800010EF420DA6EDE6ADD6A06C107F007C1C3
:1025980008F0096A0A6A000EB3EC3BF007C028F09D
:1025A80008C029F009C02AF00AC02BF02C6A2D6A4D
:1025B800200E2E6E410E2F6E4DEC33F028C0C6F162
:1025C80029C0C7F12AC0C8F12BC0C9F1090E000102
:1025D800B66FF90EB76FCBC1B8F0B96BC6C1BAF018
:1025E800C7C1BBF0C8C1BCF0C9C1BDF0E6EC49F039
:1025F800356A820E346E0101CB51020D850EF3242B
:10260800D96E010EF420DA6EDECF36F0DDCF37F06A
:102618000051A9EC49F0BED0E8EC39F0000922E1FC
:102628002D0ECB25D96EDA6A010EDA22020EDF6E84
:10263800CB51020D110EF324D96E010EF420DA6E7F
:1026480006C1DEFF07C1DDFFCB51020D850EF32465
:10265800D96E010EF420DA6EDE6ADD6A010ED7EC5F
:102668001DF00AD0CB51020D850EF324D96E010E50
:10267800F420DA6EDE6ADD6A0101CB51020D850EA7
:10268800F324D96E010EF420DA6EDECFA3F1DDCF8C
:10269800A4F1A3C107F0A4C108F0096A0A6A000EF0
:1026A800B3EC3BF007C028F008C029F009C02AF0B5
:1026B8000AC02BF02C6A2D6A200E2E6E410E2F6E4A
:1026C8004DEC33F028C0C6F129C0C7F12AC0C8F1C3
:1026D8002BC0C9F1EA0E0001B66FF80EB76FCBC177
:1026E800B8F0B96BC6C1BAF0C7C1BBF0C8C1BCF07D
:1026F800C9C1BDF0E6EC49F0356A830E346E0101BC
:10270800CB51020D850EF324D96E010EF420DA6E3A
:10271800DECF36F0DDCF37F00051A9EC49F03AD0E2
:102728002D0ECB25D96EDA6A010EDA22DF6A000E89
:10273800D7EC1DF0BE0EB66FF90EB76FCBC1B8F06F
:10274800B96BE6EC49F0356A840E346E376A366A3E
:1027580001010051A9EC49F01DD021EE02F0DECFB5
:10276800A3F1DDCFA4F1A45115E1A351010A01E1C0
:10277800B5D6030A01E1CFD6010A01E14DD7070A10
:10278800CFE008D00101C051020A01E16FD5010A6A
:1027980001E19CD654A205D00A0E0101C31901E13A
:1027A800549254C0A3F1210E0101A31708E053501D
:1027B80006E1010E0001FD6502D05490549A010112
:1027C800C06B34EF0BF00101585108E05A2B790E19
:1027D8005A19D8A41200586BB8EC37F00A0E010148
:1027E8005A1901E15A6B545001E1C1D089863C0E57
:1027F8005B6F54A21DD0010E0001756FFC0E766F41
:10280800000E28EC45F0580E0001756FFB0E766F30
:10281800020E28EC45F0B00E0001756FFC0E766FC5
:10282800040E28EC45F06B0E0001756FFC0E53D0BA
:1028380054A411D0B60E0001756FFC0E766F020E0F
:1028480028EC45F0840E0001756FFB0E766F040EC0
:1028580028EC45F08CD054A842D05A2B5A050001D8
:10286800D66F050ED6611CD0F80E756FFB0E766F0D
:10287800000E28EC45F0C80E0001756FFC0E766F4F
:10288800020E28EC45F02D0E0001756FFC0E766FD8
:10289800040E28EC45F0E60E0001756FFB0E1BD008
:1028A800BC0E756FFC0E766F000E28EC45F0720EAC
:1028B8000001756FFC0E766F020E28EC45F0100EC5
:1028C8000001756FFC0E766F040E28EC45F0C20E01
:1028D8000001756FFC0E766F060E28EF45F054ACBC
:1028E80037D0350E0001756FFC0E766F020E28EC9E
:1028F80045F0420E0001756FFB0E766F040E28EC52
:1029080045F00101386B640E376F0A0E0B6E00013B
:10291800FB511AEC49F00001D66F300ED6256A6FCC
:102928006B6B000E6B238DEC3AF00A0E076E0001FC
:10293800FB51F9EC49F00001D66F300ED6256A6FCD
:102948006B6B000E6B238DEC3AF0040E80EF47F0B2
:1029580054AE0DD0630E0001756FFB0E766F020E3C
:1029680028EC45F06E0E0001756FFB0E0FD0500E6F
:102978000001FB190FE1350E756FFC0E766F020E24
:1029880028EC45F0800E0001756FFC0E766F040E82
:1029980028EF45F001015A2B565003E04D5101E054
:1029A8009AD0030E571860E189863C0E5B6FEF0ED4
:1029B8000001756FFB0E766F020E28EC45F00101E1
:1029C800386B220E376FD6EC4AF085C10CF086C101
:1029D8000DF00F6A640E0E6E1EEC48F0300E0C24DB
:1029E80000016A6F000E0D206B6F8DEC3AF00F6AD4
:1029F8000A0E0E6E85C10CF086C10DF01EEC48F073
:102A08000CC007F00DC008F00A6A0A0E096EA4ECA3
:102A180048F0300E072400016A6F000E08206B6F23
:102A28008DEC3AF000016B6B2E0E6A6F8DEC3AF06C
:102A380085C107F086C108F00A6A0A0E096EA4EC7F
:102A480048F0300E072400016A6F000E08206B6FF3
:102A58008DEC3AF000016B6B410E6A6F8DEC3AF029
:102A6800040E80EC47F0A5D3000E0C6A75EC4AF012
:102A7800040E0C6E010E75EC4AF001014D5111E087
:102A88000A0E0001756FFC0E766F020E28EC45F0F9
:102A9800D40E0001756FFB0E766F040E28EC45F01E
:102AA80010D0790E0001756FFC0E766F020E28ECBF
:102AB80045F0640E0001756FFC0E766F040E28EC6D
:102AC80045F0100E0C6E060E75EC4AF00C6A070EF7
:102AD80075EC4AF06ED3560404E0020E561801E075
:102AE80068D37CEC49F0560416E10001DE6B0C0E4D
:102AF800DE6501D010D0E00EDE25D96EDA6A030E4D
:102B0800DA22DF6A600EDE25D96EDA6A040EDA226E
:102B1800DF6ADE2BECD701014C510FE10001DE6BBF
:102B2800070EDE6501D092D0F20EDE25D96EDA6A84
:102B3800030EDA22DF6ADE2BF3D7386B650E376FA8
:102B48008D6B8E6B3C0ED503F3CFD6F0F4CFD7F058
:102B5800D603F3500001D727D6C0DCF0D7C0DDF08C
:102B6800010139510001DC5F01013A510001DD5BCF
:102B7800DCC00CF0DDC00DF00F6A3C0E0E6E1EECD2
:102B880048F00CC0DAF00DC0DBF0DCC007F0DDC0A7
:102B980008F00A6A3C0E096EA4EC48F007C0DCF0A5
:102BA80008C0DDF0DAC00CF0DBC00DF00F6A0A0EC9
:102BB8000E6E1EEC48F0300E0C2400016A6F000EF9
:102BC8000D206B6FDEEC42F0DAC007F0DBC008F0D6
:102BD8000A6A0A0E096EA4EC48F0300E07240001B8
:102BE8006A6F000E08206B6FDEEC42F03707D8A042
:102BF800380700016B6B3A0E6A6FDEEC42F037075C
:102C0800D8A03807DCC00CF0DDC00DF00F6A0A0E42
:102C18000E6E1EEC48F0300E0C2400016A6F000E98
:102C28000D206B6FDEEC42F0DCC007F0DDC008F071
:102C38000A6A0A0E096EA4EC48F0300E0724000157
:102C48006A6F000E08206B6FDEEC42F00001FAAFED
:102C580008D0030E0101CE5F140ECE610AD02C0EEF
:102C680007D0030E0101CE272C0ECE6502D0140E1C
:102C7800CE6FCEC137F1386B8E6B030E8D6FF9C0F6
:102C88004BF0FAC04CF0BFEC49F04CBE0BD04C50A6
:102C980003E1040E4B5C06E300016B6BFE0E6A6FEA
:102CA800DEEC42F0030E571850E189863C0E010114
:102CB8005B6F030ECD27590ECD6502D04A0ECD6F3E
:102CC800CDC137F1386B8E6B030E8D6F00016B6BC6
:102CD800FE0E6A6FDEEC42F08E6B020E8D6F386B63
:102CE8004D0E376F85C10CF086C10DF00F6A640E6A
:102CF8000E6E1EEC48F0300E0C2400016A6F000EB8
:102D08000D206B6FDEEC42F00F6A0A0E0E6E85C165
:102D18000CF086C10DF01EEC48F00CC007F00DC099
:102D280008F00A6A0A0E096EA4EC48F0300E07246F
:102D380000016A6F000E08206B6FDEEC42F00001A4
:102D48006B6B410E6A6FDEEC42F0050E01015A61B1
:102D5800A6D0020E561801E0A2D0386B1D0E376FB0
:102D68008E6B010E8D6F00016B6BE30E6A6FDEECEC
:102D780042F08E6B020E8D6FF9C04BF0FAC04CF02A
:102D8800BFEC49F04CBE30D0E90E4B5C030E4C58FA
:102D98002BE30101386B110E376F0001FAAF05D034
:102DA8006B6B2D0E6A6FDEEC42F00101386B170E6B
:102DB800376FF9C062F0FAC063F0030E0001656F67
:102DC800E80E646F3BEC44F062C04BF063C04CF01B
:102DD800BFEC49F0300E4B2400016A6F000E4C2006
:102DE8006B6FDEEC42F00CD00101386B170E376FB9
:102DF8000001FAAF05D06B6B2D0E6A6FDEEC42F066
:102E08000101386B1D0E376F0001656B640E646F2E
:102E1800F9C062F0FAC063F03BEC44F062C04FF0D6
:102E280063C050F0526A0A0E516E02EC46F04FC071
:102E38004BF050C04CF0BFEC49F0300E4B24000171
:102E48006A6F000E4C206B6FDEEC42F00001656B80
:102E58000A0E646FF9C062F0FAC063F03BEC44F00C
:102E680062C04FF063C050F0526A0A0E516E02EC15
:102E780046F04FC04BF050C04CF0BFEC49F0300E5C
:102E88004B2400016A6F000E4C206B6FDEEC42F0A1
:102E980000016B6B410E6A6FDEEC42F099D00001C5
:102EA800DE6B020EDE6501D093D0DEC08DF101012C
:102EB8008E6B386B170E376F0001DE51040D790EDB
:102EC800F324D96E010EF420DA6E030EDBAE06D0C1
:102ED8006B6B2D0E6A6FDEEC42F004D00101386B8B
:102EE8001D0E376F2C6A2D6AC80E2E6E420E2F6E7D
:102EF8000001DE51040D790EF324D96E010EF42081
:102F0800DA6EDECF28F0DECF29F0DECF2AF0DECF72
:102F18002BF04DEC33F028C041F029C042F02AC014
:102F280043F02BC044F044EC42F041C04BF042C0A7
:102F38004CF0BFEC49F0300E4B2400016A6F000ED4
:102F48004C206B6FDEEC42F02C6A2D6A200E2E6E40
:102F5800410E2F6E0001DE51040D790EF324D96E57
:102F6800010EF420DA6EDECF28F0DECF29F0DECFB6
:102F78002AF0DECF2BF04DEC33F028C041F029C009
:102F880042F02AC043F02BC044F044EC42F041C068
:102F98004FF042C050F0526A0A0E516E02EC46F0F1
:102FA8004FC04BF050C04CF0BFEC49F0300E4B24F2
:102FB80000016A6F000E4C206B6FDEEC42F00001DE
:102FC8006B6B410E6A6FDEEC42F00001DE2B69D7B5
:102FD800000E86EC3EF00C6A040E75EC4AF054A024
:102FE80016D0050E01015A6109D0250E0001756F32
:102FF800FC0E766F050E28EC45F0D7D0980E000130
:10300800756FFB0E766F050E28EC45F0CED054AAEE
:1030180016D0050E01015A6109D0250E0001756F01
:10302800FC0E766F050E28EC45F0BFD08E0E000121
:10303800756FFB0E766F050E28EC45F0B6D0570479
:1030480003E0020E571831E1CE0E0001756FFC0E39
:10305800766F050E28EC45F0535001E1A6D001012A
:10306800386B640E376F0A0E0B6E53501AEC49F02A
:103078000001D66F300ED6256A6F6B6B000E6B237E
:103088008DEC3AF00A0E076E5350F9EC49F0000146
:10309800D66F300ED6256A6F6B6B000E6B238DECE6
:1030A8003AF0050E80EC47F080D0030E57187DE10A
:1030B80089863C0E01015B6F070E5A6123D0040E0E
:1030C8005A6117D0565015E0020E561809E1920EB3
:1030D8000001756FFB0E766F050E28EC45F062D087
:1030E800E00E0001756FFC0E766F050E28EC45F0BA
:1030F80059D0EF0E0001756FFB0E766F050E28ECA8
:1031080045F050D0386B220E376FD6EC4AF085C1A7
:103118000CF086C10DF00F6A640E0E6E1EEC48F0BE
:10312800300E0C2400016A6F000E0D206B6F8DECC1
:103138003AF00F6A0A0E0E6E85C10CF086C10DF0CA
:103148001EEC48F00CC007F00DC008F00A6A0A0E21
:10315800096EA4EC48F0300E072400016A6F000ED7
:1031680008206B6F8DEC3AF000016B6B2E0E6A6FC6
:103178008DEC3AF085C107F086C108F00A6A0A0E9C
:10318800096EA4EC48F0300E072400016A6F000EA7
:1031980008206B6F8DEC3AF000016B6B410E6A6F83
:1031A8008DEC3AF0050E80EC47F00C6A070E75ECD2
:1031B8004AF001015B5102E05B0712008996120098
:1031C80042EC34F00001E46F540EB66FF10EB76FA5
:1031D800E6EC49F0FC513BE1E96B22D09E0E076E0C
:1031E800020E086E640EE925D96EDA6A010EDA223B
:1031F800DF504B0DDE0EF324096EE50EF4200A6E47
:10320800EEEC41F00750081009E1640E0001E925D1
:10321800D96EDA6A010EDA22DF50FC6F0001E92B61
:10322800D669D769E451D86FD96BD651D827D75109
:10323800D923E951DA6FDB6BD851DA5DDB51800AAB
:10324800DC6FD951800ADC5901E307D2C7D70201E4
:103258009E5101E0DED10001FC6BFFD19E0E4D6E48
:10326800020E4E6E43EC4AF04DC0E5F04EC0E6F05B
:103278004FC0E7F050C0E8F0E5C015F0E6C016F022
:10328800E7C017F0E8C018F0196A1A6AC00E1B6E7A
:10329800400E1C6E2AEC43F011E3156A166AA00E64
:1032A800176E420E186EE5C019F0E6C01AF0E7C0B6
:1032B8001BF0E8C01CF02AEC43F008E22D0E0001D8
:1032C800B66FF70EB76FE6EC49F0C1D179C141F09E
:1032D8007AC142F07BC143F07CC144F044EC42F037
:1032E80041C04BF042C04CF0BFEC49F04BC007F076
:1032F8004CC008F0000E08BEFF0E096E0A6E010EE3
:10330800B3EC3BF007C028F008C029F009C02AF048
:103318000AC02BF0D1C12CF0D2C12DF0D3C12EF0B0
:10332800D4C12FF04DEC33F028C0DDF029C0DEF019
:103338002AC0DFF02BC0E0F0136A146A200E156E65
:10334800410E166EE5C00FF0E6C010F0E7C011F0B0
:10335800E8C012F038EC2DF00FC028F010C029F0AA
:1033680011C02AF012C02BF0DDC02CF0DEC02DF009
:10337800DFC02EF0E0C02FF04DEC33F028C0D1F1C3
:1033880029C0D2F12AC0D3F12BC0D4F1E6EC36F033
:103398005ED19E0E076E020E086E920E096EFB0E2F
:1033A8000A6EEEEC41F00750081002E1020E0ED052
:1033B8009E0E076E020E086EE00E096EFC0E0A6E77
:1033C800EEEC41F00750081003E1010E566EDED70F
:1033D8009E0E076E020E086E950E096EFC0E0A6EA2
:1033E800EEEC41F00750081001E031D1566AE6ECE6
:1033F80036F0546A2CD19E0E076E020E086E1C0E13
:10340800096EFC0E0A6EEEEC41F00750081002E15E
:10341800010E0ED09E0E076E020E086EDA0E096EB1
:10342800FC0E0A6EEEEC41F00750081004E1020EA3
:103438000101936FABD79E0E076E020E086E4D0EFC
:10344800096EFC0E0A6EEEEC41F00750081001E020
:10345800FED00101936B9AD79E0E076E020E086E7E
:10346800D40E096EFC0E0A6EEEEC41F007500810FF
:1034780004E1010E0101926F89D79E0E076E020EBC
:10348800086E9C0E096EFC0E0A6EEEEC41F00750B9
:10349800081001E0DCD00101926B78D7E96B9E0E31
:1034A800076E020E086EE951090D180EF324096E15
:1034B800F00EF4200A6EEEEC41F00750081004E11B
:1034C800E9C0FDF0E6EC36F00001E92B040EE965F1
:1034D800E6D7BDD0E96B9E0E076E020E086EE95165
:1034E8000A0DE60EF324096EEF0EF4200A6EEEECD8
:1034F80041F00750081004E1E9C055F0E6EC36F059
:103508000001E92B040EE965E6D7A1D09E0E076EEF
:10351800020E086E4D0E096EFC0E0A6EEEEC41F0BE
:103528000750081003E10101916B30D79E0E076E1A
:10353800020E086E8E0E096EFC0E0A6EEEEC41F05D
:103548000750081001E083D0010E0101916F1ED7CA
:10355800E96B9E0E076E020E086EE951120D000E01
:10356800F324096E020EF4200A6EEEEC41F00750C7
:10357800081009E1E9C041F0426A0001FC512EEC53
:1035880035F0E6EC36F00001E92B040EE965E1D7E9
:103598005ED09E0E076E020E086EF00E096EFC0ECF
:1035A8000A6EEEEC41F00750081003E10101906B40
:1035B800EDD69E0E076E020E086EE60E096EFC0E24
:1035C8000A6EEEEC41F00750081041E1010E0101CE
:1035D800906FDCD69E0E0A6E020E0B6EE3EC40F086
:1035E8000AC0E1F00BC0E2F0E1C041F0E2C042F0F5
:1035F8000001FC512EEC35F00001E36FE6EC36F0EB
:10360800E35125E1470EB66FF90EB76FE6EC49F0C6
:103618001ED00001FC51020A01E11ED7010A01E196
:103628003DD7050A01E1E7D60F0A01E153D7030A9E
:1036380001E16CD7060A01E1ACD6020A01E10ED617
:10364800010A86E01E0AA5E0030A82E0C3D700014A
:10365800FC6B42EC34F00001E46F0E0EFC6568D29E
:103668009F0EB66FFA0EB76FFC514B0D110EF32675
:10367800000EF422DE0EF324B86FE50EF420B96FC5
:10368800FC518AEC2EF0A5C0BAF0A6C0BBF0E6EC5F
:1036980049F04ED2AB0EB66FF20EB76FE6EC49F0BA
:1036A800E10EB66FFB0EB76FE6EC49F09F0EB66FF2
:1036B800F60EB76FE6EC49F0280EB66FF90EB76F45
:1036C80059C1B8F0B96BE6EC49F0F80EB66FF20ED6
:1036D800B76FE6EC49F0E96B94D0D30EB66FFA0EEB
:1036E800B76F640EE925D96EDA6A010EDA22DF5067
:1036F8004B0DDE0EF324B86FE50EF420B96F640E9F
:10370800E925D96EDA6A010EDA22DF504B0D110E67
:10371800F326000EF422DE0EF324BA6FE50EF42031
:10372800BB6FE6EC49F0640EE925D96EDA6A010E42
:10373800DA220E0EDE184FE1870EB66FF80EB76F5D
:1037480079C128F07AC129F07BC12AF07CC12BF01D
:103758002C6A2D6A200E2E6E410E2F6E4DEC33F022
:1037680028C0B8F029C0B9F02AC0BAF02BC0BBF005
:103778007DC128F07EC129F07FC12AF080C12BF0DD
:103788002C6A2D6A200E2E6E410E2F6E4DEC33F0F2
:1037980028C0BCF029C0BDF02AC0BEF02BC0BFF0C5
:1037A80081C128F082C129F083C12AF084C12BF09D
:1037B8002C6A2D6A200E2E6E410E2F6E4DEC33F0C2
:1037C80028C0C0F029C0C1F02AC0C2F02BC0C3F085
:1037D800E6EC49F00FD0640EE925D96EDA6A010EDD
:1037E800DA22DF508AEC2EF0A5C0B6F0A6C0B7F0FA
:1037F800E6EC49F0540EB66FF10EB76FE6EC49F0FF
:10380800E92BD669D769E451D86FD96BD651D82737
:10381800D751D923E951DA6FDB6BD851DA5DDB5127
:10382800800ADC6FD951800ADC5901E256D7F80EBC
:10383800B66FFC0EB76FE6EC49F0B1D14F0EB66F1C
:10384800F50EB76FFC518AEC2EF0A5C0B8F0A6C0F3
:10385800B9F0E6EC49F0A3D1120EB66FF50EB76FCA
:10386800FC518AEC2EF0A5C0B8F0A6C0B9F0E6EC81
:1038780049F095D1B90EB66FF10EB76FD7C1B8F050
:10388800D8C1B9F0E6EC49F08AD1880EB66FF30ECC
:10389800B76FD5C1B8F0D6C1B9F0E6EC49F07FD121
:1038A8008C0EB66FF50EB76FFC518AEC2EF0A5C0E2
:1038B800B8F0A6C0B9F0180EBA6FF00EBB6FE6EC00
:1038C80049F0010EE96FF40EB66FFC0EB76FE951BF
:1038D800090D180EF324B86FF00EF420B96FE6EC5A
:1038E80049F0E92B040EE965EED70C0EB66FF40E1D
:1038F800B76FE6EC49F053D1530EB66FF40EB76FBD
:10390800E6EC49F0D30EB66FF60EB76FE6EC49F069
:10391800CD0EB66FF30EB76FDDC1B8F0DEC1B9F0EA
:10392800E6EC49F03CD1410EB66FF30EB76FFEC01E
:10393800B8F0FFC0B9F0E6EC49F031D1530EB66FDC
:10394800F40EB76FE6EC49F0D30EB66FF60EB76F0C
:10395800E6EC49F0930EB66FF40EB76FDBC1B8F022
:10396800DCC1B9F0E6EC49F01AD1530EB66FF40E8B
:10397800B76FE6EC49F0D30EB66FF60EB76FE6EC0C
:1039880049F0100EB66FF40EB76FD9C1B8F0DAC1AE
:10399800B9F0E6EC49F003D15E0EB66FF20EB76FE0
:1039A800FC518AEC2EF0A5C0B8F0A6C0B9F0E6EC40
:1039B80049F0F5D0D30EB66FF40EB76FFC518AEC10
:1039C8002EF0A5C0B8F0A6C0B9F0E60EBA6FEF0E9B
:1039D800BB6FE6EC49F0010EE96FF40EB66FFC0E12
:1039E800B76FE9510A0DE60EF324B86FEF0EF42015
:1039F800B96FE6EC49F0E92B040EE965EED70C0E39
:103A0800B66FF40EB76FE6EC49F0C9D0570EB66F33
:103A1800F10EB76FFC518AEC2EF0A5C0B8F0A6C025
:103A2800B9F0E6EC49F0BBD0C60EB66FF50EB76F2D
:103A380079C128F07AC129F07BC12AF07CC12BF02A
:103A48002C6A2D6A200E2E6E410E2F6E4DEC33F02F
:103A580028C0B8F029C0B9F02AC0BAF02BC0BBF012
:103A6800E6EC49F09CD08C0EB66FFA0EB76F000EDC
:103A7800B86F020EB96FE6EC49F0010EE96FF40E6B
:103A8800B66FFC0EB76FE951120D000EF324B86F34
:103A9800020EF420B96FE6EC49F0E92B050EE96552
:103AA800EED70C0EB66FF40EB76FE6EC49F077D090
:103AB8006A0EB66FF60EB76FE6EC49F070D00E0ED0
:103AC800B66FF20EB76FE6EC49F069D0FE0EB66F2E
:103AD800F50EB76FE6EC49F062D0DA0EB66FF90E64
:103AE800B76FFC514B0D450EF326000EF422DE0E87
:103AF800F324F66EE50EF420F76E0900F5CFB8F062
:103B08000A00F5CFB9F0FC514B0D470EF326000E15
:103B1800F422DE0EF324F66EE50EF420F76E0900AB
:103B2800F5CFBAF00A00F5CFBBF0E6EC49F037D094
:103B3800FC5101E1AFD5020A01E180D6010A01E199
:103B4800AFD6070A01E1EFD6010A01E10ED7030A51
:103B580001E122D7010A01E18DD60F0A01E195D6CC
:103B6800010A01E127D7030A01E150D7010A01E15F
:103B7800E5D6070A01E170D6010A01E1BDD6030ABC
:103B880001E152D7010A01E16ED71E0A91E0030A4A
:103B980001E169D7060A93E0020A98E09ED701017D
:103BA8005E6B606B12000001F16FF66BF76BED6BEB
:103BB800EE6BE76BE86BE36BE46BE56BE66BFD5173
:103BC8000DE1010EF86F2D0EF825D96EDA6A010E97
:103BD800DA22DF6AF82B030EF865F5D7020E010129
:103BE8002D190DE1DB51495DDC514A5908E20A0EF5
:103BF8004903F3CFD5F0F4CFD6F04A0307D00A0E25
:103C0800DB03F3CFD5F0F4CFD6F0DC03F35000019B
:103C1800D627D5C047F1D6C048F1020EFD6104D0C1
:103C280047C111F148C112F1F86B2D0EF825D96E74
:103C3800DA6A010EDA22020EDE181AE1F64BF72BC9
:103C4800F851020D110EF324D96E010EF420DA6E2C
:103C5800DE50ED27DD50EE23F851020D850EF324DA
:103C6800D96E010EF420DA6EDE50E727DD50E82326
:103C7800F82B030EF865D9D7F15143E1020E561817
:103C880040E00A0E0101DD03F3CFD5F0F4CFD6F002
:103C9800DE03F3500001D627010145510001D55D2F
:103CA800F26F010146510001D659F36FF3BF13D0EB
:103CB800F35102E1F2050FE3F2C062F0F3C063F0E2
:103CC800656B040E646F3BEC44F0625101014127BF
:103CD8000001635105D0F251010141270001F35160
:103CE8000101422342AF02D0416B426B42BF09D06F
:103CF800210E415D030E425904E3030E426F200E6C
:103D0800416F0001F1517DE1020E56187AE1FAAFD8
:103D180017D0FAAF0BD0F60EF95DFF0EFA5906E28E
:103D2800050E01014127000E42231AD0F9C062F0A6
:103D3800FAC063F0656B040E646F3BEC44F009D085
:103D4800F9C062F0FAC063F0656B020E646F3BEC79
:103D580044F062510101415F000163510101425B7E
:103D68000001FE51F603F3CFD5F0F4CFD6F0F703F8
:103D7800F350D627FF51F603F350D6270A0ED50382
:103D8800F3CFD7F0F4CFD8F0D603F350D827D751D4
:103D98000101415D0001D8510101425902E342AFDE
:103DA8002ED00001FE51F603F3CFD5F0F4CFD6F0B4
:103DB800F703F350D627FF51F603F350D6270A0E20
:103DC800D503F3CFD7F0F4CFD8F0D603F350D827E4
:103DD800D7C041F1D8C042F1F651F71110E0010106
:103DE800D551D6110CE00001FABF09D0FA5103E110
:103DF8000B0EF95D04E3010E01014C6F02D00101C5
:103E08004C6B0001FD0523E10A0E0101D903F3CF34
:103E1800D5F0F4CFD6F0DA03F3500001D62701012C
:103E280041510001D55D010142510001D6590FE20F
:103E38000A0E0101D903F3CFD5F0F4CFD6F0DA0397
:103E4800F3500001D627D5C041F1D6C042F1F60E95
:103E5800D56FD669D551E703F3CFD7F0F4CFD8F0B3
:103E6800E803F350D827D651E703F350D8270101C8
:103E780045510001D725F46F010146510001D821B1
:103E8800F56FF5AF02D0F46BF56B565016E1FD05F2
:103E980010E10A0E0101D903F3CFD5F0F4CFD6F023
:103EA800DA03F3500001D627D5C041F1D6C042F15C
:103EB80004D047C141F148C142F1F651F711D8B4D5
:103EC8001200F15114E00A0E0101DD03F3CFD5F021
:103ED800F4CFD6F0DE03F3500001D627F451D55DB8
:103EE8000101416F0001F551D6590101426F0101ED
:103EF80042BF1FD00001FE51F603F3CFD5F0F4CF37
:103F0800D6F0F703F350D627FF51F603F350D62720
:103F18000A0ED503F3CFD7F0F4CFD8F0D603F35079
:103F2800D827D7510101415D0001D85101014259FB
:103F380023E2552BE40E0001B66FFA0EB76FE6ECDC
:103F480049F0FE51F603F3CFD5F0F4CFD6F0F703DE
:103F5800F350D627FF51F603F350D6270A0ED503A0
:103F6800F3CFD7F0F4CFD8F0D603F350D827D7C083
:103F780041F1D8C042F101D0556B01014151000116
:103F8800ED5DEE51800AD56F01014251800A0001B2
:103F9800D55904E2EDC041F1EEC042F141C1EFF064
:103FA80042C1F0F045C107F046C108F0096A0A6A43
:103FB800000EB3EC3BF007C028F008C029F009C098
:103FC8002AF00AC02BF02C6A2D6A200E2E6E410EA4
:103FD8002F6E4DEC33F028C0E9F029C0EAF02AC072
:103FE800EBF02BC0ECF041C107F042C108F0000E25
:103FF80008BEFF0E096E0A6E010EB3EC3BF007C057
:1040080028F008C029F009C02AF00AC02BF02C6A51
:104018002D6A200E2E6E410E2F6E4DEC33F028C007
:10402800D9F029C0DAF02AC0DBF02BC0DCF0F4C0EC
:1040380007F0F5C008F0000E08BEFF0E096E0A6E04
:10404800010EB3EC3BF007C028F008C029F009C006
:104058002AF00AC02BF02C6A2D6A200E2E6E410E13
:104068002F6E4DEC33F028C0DDF029C0DEF02AC0F9
:10407800DFF02BC0E0F0340E0001B66FF60EB76F1C
:10408800E9C0B8F0EAC0B9F0EBC0BAF0ECC0BBF0D8
:10409800D9C0BCF0DAC0BDF0DBC0BEF0DCC0BFF0F8
:1040A800DDC0C0F0DEC0C1F0DFC0C2F0E0C0C3F0C8
:1040B800E6EC49F0F86BEFC062F0F0C063F0F6C0D0
:1040C80064F0F7C065F03BEC44F062C0E1F063C017
:1040D800E2F02D0EF825D96EDA6A010EDA22020E08
:1040E800DE183EE1F851E30FD96EDA6ADF5038E1A5
:1040F800F851020D110EF324D96E010EF420DA6E78
:10410800DE50E15DDE50E2592BE3F851020D110E4D
:10411800F324D96E010EF420DA6EF851020D850EE3
:10412800F324E16E010EF420E26EDECFE6FFDDCF70
:10413800E5FFF851E30FD96EDA6A010EDF6EF60774
:10414800D8A0F707F851020D850EF324D96E010E99
:10415800F420DA6EDE50EF5FDD50F05BF86B01D0D3
:10416800F82B040EF86103D0F651F711A4E1F86BAF
:10417800F651F71141E02D0EF825D96EDA6A010ED5
:10418800DA22020EDE1831E1F851E30FD96EDA6A4D
:10419800DF502BE1EFC062F0F0C063F0F6C064F0CE
:1041A800F7C065F03BEC44F0F851020D850EF3249E
:1041B800D96E010EF420DA6E62C0DEFF63C0DDFF47
:1041C800F851E30FD96EDA6A010EDF6EF607D8A050
:1041D800F707F851020D850EF324D96E010EF4206D
:1041E800DA6EDE50EF5FDD50F05BF82B040EF861FD
:1041F80003D0F651F711BFE1F86BF851020D850EA7
:10420800F324D96E010EF420DA6EDECFD5F0DDCFBF
:10421800D6F0D5C007F0D6C008F0096A0A6A000EC1
:10422800B3EC3BF007C028F008C029F009C02AF019
:104238000AC02BF02C6A2D6A200E2E6E410E2F6EAE
:104248004DEC33F028C0E9F029C0EAF02AC0EBF0C1
:104258002BC0ECF0790E0001B66FFA0EB76FF8C0FC
:10426800B8F0B96B2D0EF825D96EDA6A010EDA228C
:10427800DF50BA6FBB6BE9C0BCF0EAC0BDF0EBC061
:10428800BEF0ECC0BFF0E6EC49F0F82B030EF86581
:10429800B4D7F00EB66FFA0EB76FE6EF49F000012B
:1042A800E46F42EC34F00001E36F3C0E01015B6FF8
:1042B8008986910504E154B881B201D054985851C7
:1042C80012E1050E0001E4190EE101014B510BE169
:1042D800010E586F29C11DF12AC11EF12BC11FF112
:1042E8002CC120F179D10101580528E1D00E1D25F6
:1042F8000001DF6F070E01011E210001E06F000EB3
:1043080001011F210001E16F000E010120210001C0
:10431800E26F010129510001DF5D01012A5100010D
:10432800E05901012B510001E15901012C51000113
:10433800E25904E2020E0101586F1FD0010158052D
:104348000AE1070E0001E41906E10101586B4B6B05
:10435800E7EC13F041D10E0E0101581910E1020EDD
:104368000001E4190CE10101575109E0D16BD26B4E
:10437800800ED36F3F0ED46F576B010E7DD0010EA8
:10438800010158657BD0020E0001E41906E0030E16
:10439800E41903E0060EE41971E101014B516EE1E5
:1043A800575156E159D035C107F036C108F00A6AAD
:1043B800640E096E030E0C6EE70E0B6E0001E451DD
:1043C800D3EC47F007C035F108C036F153D0585147
:1043D8000FEC36F04BC031F14CC032F131C107F06F
:1043E80032C108F0010158514B0D450EF326000E5D
:1043F800F422DE0EF324F66EE50EF420F76E0900C3
:10440800F5CF09F00A00F5CF0AF058514B0D470EC9
:10441800F326000EF422DE0EF324F66EE50EF420E9
:10442800F76E0900F5CF0BF00A00F5CF0CF000018C
:10443800E451D3EC47F007C031F108C032F131C183
:1044480041F032C142F0010158512EEC35F012D042
:1044580058510E0AA8E0BBD758C10EF0640E0F6E73
:10446800010E106EE3C011F00001E45137EC46F084
:104478000101586F010EA3D04B6FAED0010E0101A0
:1044880058659FD0050E0001E41901E09AD001019A
:104498004B5101E096D0010E4B6F575164E0576BBA
:1044A8000E0E581901E098D03351351904E13451F2
:1044B800361901E191D033C107F034C108F0096A17
:1044C8000A6A000EB3EC3BF007C028F008C029F0D8
:1044D80009C02AF00AC02BF0D1C12CF0D2C12DF0AE
:1044E800D3C12EF0D4C12FF04DEC33F028C019F110
:1044F80029C01AF12AC01BF12BC01CF135C107F0E5
:1045080036C108F0096A0A6A000EB3EC3BF007C02E
:1045180028F008C029F009C02AF00AC02BF019C1F8
:104528002CF01AC12DF01BC12EF01CC12FF04DEC40
:1045380033F028C0D1F129C0D2F12AC0D3F12BC061
:10454800D4F135C107F036C108F0096A0A6A000ECD
:10455800B3EC3BF007C079F108C07AF109C07BF1F0
:104568000AC07CF139D0010E576F0E0E581919E1A7
:1045780079C141F07AC142F07BC143F07CC144F07B
:1045880044EC42F041C04BF042C04CF0BFEC49F063
:104598004BC035F14CC036F135C133F136C134F179
:1045A8001BD0170E581918E1586B576B546A000145
:1045B800FB6B536AE7EC13F0E6EC36F0020E0101F0
:1045C8005BD7070E0001E41907E101014B6B086A8C
:1045D8000A0E076E85EC48F001014B0503E058050B
:1045E80001E033D1580523E1000E0C6A75EC4AF05E
:1045F800040E0C6E010E75EC4AF0790E0001756F11
:10460800FB0E766F020E28EC45F0130E0001756F55
:10461800FC0E766F040E28EC45F0100E0C6E060E9C
:1046280075EC4AF00C6A070E75EC4AF00BD158513C
:104638004B0D080EF326000EF422DE0EF3240001C3
:10464800B66FE50EF420B76F020EB86F86EC40F037
:10465800E1D0D6EC4AF0010157514BE01FEC4AF08B
:10466800386B280E376F35C10CF036C10DF00F6A64
:10467800640E0E6E1EEC48F0300E0C2400016A6FBA
:10468800000E0D206B6F8DEC3AF00A6A640E096E0D
:1046980035C107F036C108F0A4EC48F007C00CF0AB
:1046A80008C00DF00F6A0A0E0E6E1EEC48F0300EB0
:1046B8000C2400016A6F000E0D206B6F8DEC3AF030
:1046C80000016B6B2E0E6A6F8DEC3AF035C107F066
:1046D80036C108F00A6A0A0E096EA4EC48F0300EDA
:1046E800072400016A6F000E08206B6F8DEC3AF00A
:1046F80078D0000E386F280E376F79C141F07AC133
:1047080042F07BC143F07CC144F044EC42F041C02C
:104718004BF042C04CF0BFEC49F04BC062F04CC0CB
:1047280063F00001656B640E646F3BEC44F0300E7F
:1047380062256A6F000E63216B6F8DEC3AF0000EF4
:10474800526E640E516E79C141F07AC142F07BC15C
:1047580043F07CC144F044EC42F041C04BF042C00D
:104768004CF0BFEC49F04BC04FF04CC050F002EC9D
:1047780046F04FC062F050C063F0656B0A0E646F7C
:104788003BEC44F0300E62256A6F000E63216B6FBC
:104798008DEC3AF000016B6B2E0E6A6F8DEC3AF0DF
:1047A80079C141F07AC142F07BC143F07CC144F049
:1047B80044EC42F041C04BF042C04CF0BFEC49F031
:1047C8004BC04FF04CC050F0526A0A0E516E02ECCA
:1047D80046F0300E4F246A6F000E50206B6F8DEC40
:1047E8003AF0386B580E376F00016B6B410E6A6FE9
:1047F8008DEC3AF0040E80EC47F012D058518AEC58
:104808002EF0A5C0B6F0A6C0B7F0040EB86F86ECBF
:1048180040F006D0010158510E0A01E11AD7EED72F
:10482800070E136EAA0E146EFC0E156EE10E076EBF
:10483800FB0E086E65EC48F00750FA0DF3507A0F3E
:10484800CCEC45F0020E01014B6F29C121F12AC1C0
:1048580022F12BC123F12CC124F1566BE4C0CFF116
:104868005A6B120004D220EE03F04C50D9264D505A
:10487800DA22100EDFAE1C0E0001686F716B6D0E30
:10488800076E4CC008F04DC009F07151040DF3508B
:1048980068250A6E030E0B6E3AEC32F06DC00FF00D
:1048A8006EC010F06FC011F070C012F0136A146A75
:1048B800200E156E410E166E38EC2DF00001715168
:1048C800040DF3CF60F0F4CF61F060514F24D96E3E
:1048D80061515020DA6E0FC0DEFF10C0DEFF11C03C
:1048E800DEFF12C0DEFF1C0E681901E083D0715193
:1048F800040DF3CF60F0F4CF61F060514F24D96E0E
:1049080061515020DA6EDECF0FF0DECF10F0DECF2F
:1049180011F0DECF12F0D1C113F0D2C114F0D3C11F
:1049280015F0D4C116F038EC2DF000017151040DCA
:10493800F3CF62F0F4CF63F062514F24D96E635124
:104948005020DA6E0FC0DEFF10C0DEFF11C0DEFFA0
:1049580012C0DEFF0A0E156ED70E166E230E176EE6
:10496800BC0E186E7151040DF3CF60F0F4CF61F0F6
:1049780060514F24D96E61515020DA6EDECF19F0A4
:10498800DECF1AF0DECF1BF0DECF1CF02AEC43F0AE
:1049980031E200017151040DF3CF60F0F4CF61F002
:1049A80060514F24D96E61515020DA6EDECF15F078
:1049B800DECF16F0DECF17F0DECF18F00A0E196E34
:1049C800D70E1A6E230E1B6E3C0E1C6E2AEC43F09B
:1049D80011E200017151040DF3CF60F0F4CF61F0E2
:1049E80060514F24D96E61515020DA6EDE6ADE6A5A
:1049F800DE6ADD6A0001712B020E716540D7020C78
:104A08000001716B6D0E076E4CC008F04DC009F0C7
:104A18007151040DF3CF0AF04E50120D0A0EF32413
:104A2800D96E020EF420DA6EDF500B6E3AEC32F0DB
:104A38006DC00FF06EC010F06FC011F070C012F0B2
:104A4800136A146A200E156E410E166E38EC2DF09E
:104A580000017151040DF3CF60F0F4CF61F06051A3
:104A68004F24D96E61515020DA6E0FC0DEFF10C09E
:104A7800DEFF11C0DEFF12C0DEFF6D0E076E4CC0F8
:104A880008F04DC009F07151040DF3500C0F0A6E77
:104A98004E50120D0A0EF324D96E020EF420DA6E6F
:104AA800DF500B6E3AEC32F070AF2BD07151040D21
:104AB800F3CF60F0F4CF61F060514F24D96E6151AB
:104AC8005020DA6EDECF07F0DECF08F0DECF09F037
:104AD800DECF0AF065EC4AF000017151040DF3CF06
:104AE80062F0F4CF63F062514F24D96E63515020C5
:104AF800DA6E07C0DEFF08C0DEFF09C0DEFF0AC0AD
:104B0800DEFF712B020E71657DD7020C4E50120D1F
:104B18000D0EF324D96E020EF420DA6E080EDE189C
:104B280042E10001716B6D0E076E4CC008F04DC07C
:104B380009F07151040DF3CF0AF04E50120D0A0E10
:104B4800F324D96E020EF420DA6EDF500B6E3AECC5
:104B580032F06DC00FF06EC010F06FC011F070C071
:104B680012F0136A146A200E156E410E166E38EC98
:104B78002DF000017151040DF3CF60F0F4CF61F016
:104B880060514F24D96E61515020DA6E0FC0DEFF9C
:104B980010C0DEFF11C0DEFF12C0DEFF712B020E57
:104BA8007165C1D7020C0001716B690E076E4CC0AC
:104BB80008F04DC009F07151040DF3CF0AF04E50C2
:104BC800120D0A0EF324D96E020EF420DA6EDF50AD
:104BD8000B6E3AEC32F04E50120D0D0EF324D96ED6
:104BE800020EF420DA6EDF50606F60053EEC41F093
:104BF80041C064F042C065F043C066F044C067F04D
:104C080069C007F06AC008F06BC009F06CC00AF010
:104C1800010EB3EC3BF007C028F008C029F009C02A
:104C28002AF00AC02BF064C02CF065C02DF066C0D5
:104C38002EF067C02FF04DEC33F000017151040DD8
:104C4800F3CF60F0F4CF61F060514F24D96E615119
:104C58005020DA6E28C0DEFF29C0DEFF2AC0DEFF42
:104C68002BC0DEFF712B020E71659FD7020C4E50D0
:104C7800010A01E1F8D5050A01E1C2D647D7435038
:104C880044100BE043C0D9FF44C0DAFF41C0DEFF47
:104C980042C0DDFF02D0414A422A41C0D9FF42C08A
:104CA800DAFFDF50466E465054EC4AF0F4E2476AA9
:104CB8002D0E461805E1010E476E414A422A03D0DF
:104CC8002B0E4618FAE0466A496A4A6A4B6A4C6AE9
:104CD800486A47B809D041C0D9FF42C0DAFF2E0E52
:104CE800DE1802E1478834D041C0D9FF42C0DAFF5C
:104CF800DF50AEEC4AF02FE34782090E461826E053
:104D080047B84806462A49C007F04AC008F04BC0D1
:104D180009F04CC00AF00A0E0B6E0C6A0D6A0E6A96
:104D2800B7EC43F007C049F008C04AF009C04BF09F
:104D38000AC04CF041C0D9FF42C0DAFFDF50D00FA3
:104D48004926000E4A224B224C2202D047A8482A64
:104D5800414A422ABED7466A41C0D9FF42C0DAFF5B
:104D6800650EDE1807E041C0D9FF42C0DAFF450EE4
:104D7800DE1858E1414A422A41C0D9FF42C0DAFF51
:104D88002D0EDE1802E1478607D041C0D9FF42C088
:104D9800DAFF2B0EDE1802E1414A422A41C0D9FF50
:104DA80042C0DAFF300EDE18F7E041C0D9FF42C03A
:104DB800DAFFDF50AEEC4AF033E341C0D9FF42C01E
:104DC800DAFFDF50D00F466E414A422A41C0D9FF70
:104DD80042C0DAFFDF50AEEC4AF022E341C0D9FF0F
:104DE80042C0DAFFDF50456E46500A0DF3504524A5
:104DF800D00F466E414A422A41C0D9FF42C0DAFF6D
:104E0800DF50AEEC4AF00CE341C0D9FF42C0DAFFF4
:104E1800DF50456E46500A0DF3504524D00F466EBC
:104E280047B6466C46504826435044100AE047A20D
:104E380008D043C0D9FF44C0DAFF41C0DEFF42C0FA
:104E4800DDFF49C007F04AC008F04BC009F04CC06C
:104E58000AF0010EB3EC3BF007C049F008C04AF075
:104E680009C04BF00AC04CF049C007F04AC008F02E
:104E78004BC009F04CC00AF00B6A0C6A0D6A0E6A46
:104E880069EC46F005E3416A426A436A446A1200E3
:104E980048AE5CD0486C1CD049C028F04AC029F004
:104EA8004BC02AF04CC02BF0F90E2C6E020E2D6E62
:104EB800150E2E6E500E2F6E4DEC33F028C049F0B3
:104EC80029C04AF02AC04BF02BC04CF0F60E4826F9
:104ED8004850800A760F1AE3DFD749C028F04AC045
:104EE80029F04BC02AF04CC02BF02C6A2D6A200EFA
:104EF8002E6E410E2F6E4DEC33F028C049F029C0BC
:104F08004AF02AC04BF02BC04CF048064850E5E167
:104F180049C015F04AC016F04BC017F04CC018F045
:104F2800196A1A6A800E1B6E1C6A2AEC43F06CE23E
:104F380047A006D0416A426A800E436E446E800CD8
:104F4800416A426A800E436E446A000C4850800AE7
:104F58007F0F1DE259D049C00FF04AC010F04BC076
:104F680011F04CC012F0F90E136E020E146E150EED
:104F7800156E500E166E38EC2DF00FC049F010C0AB
:104F88004AF011C04BF012C04CF0F60E48260A0E3B
:104F98004860E1D719D049C00FF04AC010F04BC0A3
:104FA80011F04CC012F0136A146A200E156E410EEF
:104FB800166E38EC2DF00FC049F010C04AF011C041
:104FC8004BF012C04CF048064850E5E115681668E9
:104FD8007F0E176E186E49C019F04AC01AF04BC000
:104FE8001BF04CC01CF02AEC43F00EE247A006D0A0
:104FF800416A426A800E436E446E800C416A426A7E
:10500800800E436E446A000C47A012D049C007F0D6
:105018004AC008F04BC009F04CC00AF065EC4AF0F1
:1050280007C049F008C04AF009C04BF00AC04CF06C
:1050380049C041F04AC042F04BC043F04CC044F074
:105048001200726F000172AFEAD0726D7251800A5D
:10505800120F01E283D0656B0A0E646F526A640E08
:10506800516E72514F6E506A4FBE500602EC46F0B8
:105078004FC062F050C063F03BEC44F06251090F3E
:10508800040D8A0EF324F66EE50EF420F76E09007F
:10509800F5CF13F00900F5CF14F00900F5CF15F09E
:1050A8000A00F5CF16F0656B640E646F7251626F7B
:1050B800636B62BF63073BEC44F06251120F040D4F
:1050C8008A0EF324F66EE50EF420F76E0900F5CF8C
:1050D8000FF00900F5CF10F00900F5CF11F00A0024
:1050E800F5CF12F038EC2DF00FC06EF010C06FF055
:1050F80011C070F012C071F06EC00FF06FC010F0E8
:1051080070C011F071C012F0526A0A0E516E00019F
:1051180072514F6E506A4FBE500602EC46F04F5027
:10512800040D8A0EF324F66EE50EF420F76E0900DE
:10513800F5CF13F00900F5CF14F00900F5CF15F0FD
:105148000A00F5CF16F038EC2DF00FC06AF010C049
:105158006BF011C06CF012C06DF012007251800A31
:10516800750F48E3656B0A0E646F7251626F636B6B
:1051780062BF63073BEC44F06251090F040D8A0ECD
:10518800F324F66EE50EF420F76E0900F5CF0FF064
:105198000900F5CF10F00900F5CF11F00A00F5CF9E
:1051A80012F0526A0A0E516E72514F6E506A4FBE1B
:1051B800500602EC46F04F50040D8A0EF324F66EAA
:1051C800E50EF420F76E0900F5CF13F00900F5CFCE
:1051D80014F00900F5CF15F00A00F5CF16F038ECF9
:1051E8002DF00FC06AF010C06BF011C06CF012C047
:1051F8006DF012007251040D8A0EF324F66EE50E5E
:10520800F420F76E0900F5CF6AF00900F5CF6BF0CE
:105218000900F5CF6CF00A00F5CF6DF0120072515D
:10522800800A120F01E283D0656B0A0E646F526A1E
:10523800640E516E72514F6E506A4FBE500602ECAA
:1052480046F04FC062F050C063F03BEC44F062514E
:10525800090F040D560EF324F66EE50EF420F76ED2
:105268000900F5CF13F00900F5CF14F00900F5CFC8
:1052780015F00A00F5CF16F0656B640E646F725175
:10528800626F636B62BF63073BEC44F06251120FBD
:10529800040D560EF324F66EE50EF420F76E0900A1
:1052A800F5CF0FF00900F5CF10F00900F5CF11F098
:1052B8000A00F5CF12F038EC2DF00FC06EF010C0D8
:1052C8006FF011C070F012C071F06EC00FF06FC0B7
:1052D80010F070C011F071C012F0526A0A0E516ECF
:1052E800000172514F6E506A4FBE500602EC46F0F4
:1052F8004F50040D560EF324F66EE50EF420F76EAB
:105308000900F5CF13F00900F5CF14F00900F5CF27
:1053180015F00A00F5CF16F038EC2DF00FC06AF042
:1053280010C06BF011C06CF012C06DF01200725119
:10533800800A750F48E3656B0A0E646F7251626FDD
:10534800636B62BF63073BEC44F06251090F040DC5
:10535800560EF324F66EE50EF420F76E0900F5CF2D
:105368000FF00900F5CF10F00900F5CF11F00A0091
:10537800F5CF12F0526A0A0E516E72514F6E506A92
:105388004FBE500602EC46F04F50040D560EF32463
:10539800F66EE50EF420F76E0900F5CF13F009005C
:1053A800F5CF14F00900F5CF15F00A00F5CF16F087
:1053B80038EC2DF00FC06AF010C06BF011C06CF023
:1053C80012C06DF012007251040D560EF324F66EE1
:1053D800E50EF420F76E0900F5CF6AF00900F5CF65
:1053E8006BF00900F5CF6CF00A00F5CF6DF01200F4
:1053F8000101006B016B026B036B046B056B066BA1
:10540800076B0A6B0B6B070E0001D765070CD5C03D
:10541800D9FFD6C0DAFFDF500101006F000120EE8E
:1054280001F0D551D926D651DA22DF500101016F9A
:10543800D5C007F0D6C008F0D7C009F096EC45F003
:105448000750081001E1FDD01200080E0001D7191D
:1054580034E1020E01010B6F000120EE02F0D5517C
:10546800D926D651DA22DF50D96FD86B20EE03F057
:10547800D551D926D651DA22DF50D8110101026F51
:105488000001D9510101036F000120EE04F0D5514C
:10549800D926D651DA22DF50D96FD86B20EE05F025
:1054A800D551D926D651DA22DF50D8110101046F1F
:1054B8000001D9510101056FCED020EE02F0D5517F
:1054C800D926D651DA22DF5001010A6F0A510001AC
:1054D800D86FD96BFB0EDA6FDB69D751DC6FDD6BE8
:1054E800DA51DC27DB51DD23D851DC1905E1D9512C
:1054F800DD1902E1030E9BD0240EB66FFA0EB76FCA
:10550800E6EC49F0A8D0080E0001D71937E1010EE2
:1055180001010B6F000120EE02F0D551D926D651BA
:10552800DA22DF50D96FD86B20EE03F0D551D92697
:10553800D651DA22DF50D8110101026F0001D9518A
:105548000101036F056B010E046F000120EE04F0EA
:10555800D551D926D651DA22DF50D96FD86B20EE33
:1055680005F0D551D926D651DA22DF50D8110101DC
:10557800066F0001D9510101076F6DD0240EB66F77
:10558800FA0EB76FE6EC49F066D0000120EE02F0A3
:10559800D551D926D651DA22DF50D96FD86B20EEF3
:1055A80003F0D551D926D651DA22DF50D81101019E
:1055B800026F0001D9510101036F000120EE04F0D0
:1055C800D551D926D651DA22DF50D96FD86B20EEC3
:1055D80005F0D551D926D651DA22DF50D81101016C
:1055E800046F0001D9510101056F080E0001D71998
:1055F80081E020EE06F0D551D926D651DA22DF50C7
:1056080001010A6F0A510001D86FD96BF70EDA6FE2
:10561800DB69D751DC6FDD6BDA51DC27DB51DD2329
:10562800D851DC1907E1D951DD1904E1020E010155
:105638000B6F11D0240EB66FFA0EB76FE6EC49F077
:105648000AD001010151040A01E1FFD6020A01E171
:105658005AD7160A9AE001010B5172E00A5170E01C
:10566800D5C008F1D6C009F10001D75101010825BC
:105678000001D86F000E010109210001D96F010155
:105688000A510001D85F000ED95BFE0ED825010132
:10569800086FFF0E0001D9210101096F51D0106B6D
:1056A80000C10CF101C10DF102C10EF103C10FF1EE
:1056B800120000510C190DE10D5101190AE1010EFA
:1056C800106F040E011906E10EC102F10FC103F1BA
:1056D80001D0106B0C6B0D6B0E6B0F6B1200005131
:1056E8000C190CE10D51011909E1010E106F030E9F
:1056F8000B6F0C6B0D6B0E6B0F6B0BD0106B020EE0
:105708000B6F00C10CF101C10DF102C10EF103C113
:105718000FF10251031105E0035103E1050E025D8B
:105728000CE3035104E1810E025DD8A0120003517D
:1057380010E1850E025DD8B01200020E0B6F020C4C
:105748000B51010ACCE0030AAAE0010AD8A412000E
:10575800B0D712000101456B466B436B446B0001E7
:10576800F96BFA6B0101A26B45C107F046C108F05D
:10577800096A0A6A000EB3EC3BF007C015F008C0CE
:1057880016F009C017F00AC018F00101A251040D63
:10579800790EF324D96E010EF420DA6EDECF19F0FB
:1057A800DECF1AF0DECF1BF0DECF1CF02AEC43F080
:1057B80017E20101A251040D790EF324D96E010EEE
:1057C800F420DA6EDECF41F0DECF42F0DECF43F0D8
:1057D800DECF44F044EC42F041C045F142C046F10E
:1057E8000101A251040D790EF324D96E010EF420A3
:1057F800DA6EDECF15F0DECF16F0DECF17F0DECF93
:1058080018F043C107F044C108F0000E08BEFF0EAF
:10581800096E0A6E010EB3EC3BF007C019F008C020
:105828001AF009C01BF00AC01CF02AEC43F017E27A
:105838000101A251040D790EF324D96E010EF42052
:10584800DA6EDECF41F0DECF42F0DECF43F0DECFBE
:1058580044F044EC42F041C043F142C044F101013C
:10586800A251040D790EF324D96E010EF420DA6EDC
:10587800DECF41F0DECF42F0DECF43F0DECF44F0A2
:1058880044EC42F041500001F9274250FA2301014B
:10589800A22B020EA26568D7565001E1E1D0020E94
:1058A8000001FD61DDD0000ED7EC1DF0030E0101F3
:1058B80055610ED0140EDD03F3CF94F1F4CF95F1BA
:1058C800DE03F35095274551945D4651955918E2EA
:1058D8005486A26B2D0EA225D96EDA6A010EDA2241
:1058E800DF6AA22B030EA265F5D7356A020E346E65
:1058F800376A010E366E000EA9EC49F0556B05D0DB
:105908000001FD5102E0CAEC4AF0020E571803E00C
:10591800030E571806E185C14BF086C14CF03DECEB
:105928003CF043C107F044C108F0000E08BEFF0E6A
:10593800096E0A6E010EB3EC3BF007C028F008C0F0
:1059480029F009C02AF00AC02BF02C6A2D6A200E13
:105958002E6E410E2F6E4DEC33F028C096F129C003
:1059680097F12AC098F12BC099F145C107F046C1BB
:1059780008F0096A0A6A000EB3EC3BF007C028F089
:1059880008C029F009C02AF00AC02BF02C6A2D6A39
:10599800200E2E6E410E2F6E4DEC33F028C09AF17A
:1059A80029C09BF12AC09CF12BC09DF141C107F091
:1059B80042C108F0000E08BEFF0E096E0A6E010E05
:1059C800B3EC3BF007C028F008C029F009C02AF062
:1059D8000AC02BF02C6A2D6A200E2E6E410E2F6EF7
:1059E8004DEC33F028C09EF129C09FF12AC0A0F1E8
:1059F8002BC0A1F1C00E0001B66FF00EB76F400EBC
:105A08005724B86FB96B000EB92354C0BAF0BB6BFA
:105A1800D7C1BCF0D8C1BDF096C1BEF097C1BFF0E8
:105A280098C1C0F099C1C1F053C0C2F0C36B39C16D
:105A3800C4F03AC1C5F055C1C6F0C76B9AC1C8F0E9
:105A48009BC1C9F09CC1CAF09DC1CBF09EC1CCF0EE
:105A58009FC1CDF0A0C1CEF0A1C1CFF0E6EF49F0D3
:105A68000101456B466B12001250800B1B6E1250E1
:105A78001224216E11BE2180215008E0212804E162
:105A88000F6A106A116A126A118E04D00F6A106ABE
:105A9800116A126A1650800B1B1A165016241C6EB7
:105AA80015BE1C801C5008E01C2804E1136A146A07
:105AB800156A166A158E04D0136A146A156A166A6E
:105AC8001C5002E0215005E10F6A106A116A126A3F
