:040000009EEF01F07E
:100008004982FACF05F0FBCF06F0E9CF07F0EACF37
:1000180008F0E1CF09F0E2CF0AF0D9CF0BF0DACF40
:100028000CF0F3CF0DF0F4CF0EF0F6CF0FF0F7CFC2
:1000380010F0F8CF11F0F5CF12F049C013F04AC014
:1000480014F04BC015F04CC016F034D0AECF38F0D9
:10005800030E01012025016E000E2121026E000E03
:100068002221036E000E2321046E3350015C3450AC
:1000780002583550035836500458D8B004D0000EF2
:10008800536F010E516F320E5319D8B453075351A1
:10009800010D320EF324D96E020EF420DA6E38C048
:1000A800DFFF532B33C020F134C021F135C022F1DA
:1000B80036C023F19EBACAD79EB89DA84FD0010179
:1000C8004F51010D000EF324D96E020EF420DA6EA2
:1000D800DF50AD6E4F2B4E514F19D8B404D0320EAD
:1000E8004F19D8A43BD09D98000E4F6F37D071B4EC
:1000F800D0A20AD04804D8A407D074CF38F038501A
:10010800D8A404D0FF0002D074CF38F0D08238C011
:1001180073FF320E01015219D8B45207080E38186D
:10012800D8A405D05251D8B402D0520717D00D0E1A
:100138003818D8B404D00A0E3818D8A404D0000E41
:10014800386E5229506F5251010D890EF324D96E21
:10015800010EF420DA6E38C0DFFF522BA4AAC2D0F9
:10016800C6D74604D8A456D03950D8A404D0030E14
:100178004818D8B427D02C0E0101345D010E35592A
:10018800D8B002D0809801D08088808A3451016E1E
:100198003551026E344B352B910E015C010E02581D
:1001A800D8A060D082B20AD0890E345D130E3559BA
:1001B800D8A058D0000E356F000E53D0010E356F01
:1001C800900E4FD02C0E0101365D010E3759D8B074
:1001D80003D08088809A02D08088808A3651016E48
:1001E8003751026E364B372B910E015C010E0258C7
:1001F800D8A05BD082A20AD0890E365D130E37597B
:10020800D8A053D0000E376F000E4ED0010E376FB6
:10021800900E4AD0020E4618D8A44BD03950D8A414
:1002280004D0030E4818D8B422D0580E0101345D0A
:10023800020E3559D8B002D0809801D08088808AC3
:100248003451016E3551026E344B352BBD0E015CB5
:10025800020E0258D8A006D082B2A6D7020E356F79
:10026800BC0E346F000E376F000E366F22D0580E5A
:100278000101365D020E3759D8B003D08088809AC4
:1002880002D08088808A3651016E3751026E364B13
:10029800372BBD0E015C020E0258D8A006D082A2F0
:1002A800ABD7020E376FBC0E366F000E356F000EDF
:1002B800346F010E3326000E342235223622010116
:1002C80030513111D8B403D03007D8A031074807CE
:1002D8004829D8A406D045C167FF0A0E486F010E09
:1002E800476F7E907EB03DD716C04CF015C04BF0DE
:1002F80014C04AF013C049F012C0F5FF11C0F8FF4E
:1003080010C0F7FF0FC0F6FF0EC0F4FF0DC0F3FFDB
:100318000CC0DAFF0BC0D9FF0AC0E2FF09C0E1FF39
:1003280008C0EAFF07C0E9FF06C0FBFF05C0FAFFE7
:10033800499211001DEF3DF0000E0201786F050E85
:10034800746F000E736F000E726F000E6F6F010EE8
:100358006E6FCCEC3AF0F6EC37F040C01DF041C0BF
:100368001EF0000E206E0A0E1F6EE9EC41F01DC053
:10037800F5F01EC0F6F060EC3EF064EC41F0D0827F
:100388000001F951D8A405EC35F001015051D8A469
:100398002FEC0BF001014F51D8B4ACA201D08A9ACE
:1003A80032EC3CF0A30E946E00F000F08250210B6A
:1003B80002017E6F7E39E8461F0B0101F46F0201CE
:1003C8007E517E25020B0101F411F46F8150010B5F
:1003D800F411F46F820E946E070EF419D8A404D0A9
:1003E800F351F419D8B403D0F4519AEC12F0010186
:1003F8004B51D8B41AD0880E1C25EB6F130E1D2153
:10040800EC6F000E1E21ED6F000E1F21EE6F3350B2
:10041800EB5D3450EC593550ED593650EE59D8B0A3
:1004280004D04A51D8B4AFEC2EF081B43BD00201CD
:100438006F2B6F050101EB6F050EEB6536D0305160
:100448003111D8A42AD04350D8B415D04451D8B4C7
:1004580005D0000E446F010E486E02D0010E446FA5
:10046800CE0E0001AF6FFA0EB06F44C1B1F0B26B9F
:1004780048EC19F00CD0030E4818D8A408D0010E87
:10048800486E0001F951D8A402D00F0E376E42040D
:10049800D8B439A802D081A23998000E0101316F71
:1004A800C80E306F000E02016F6F4204D8B481A2EB
:1004B80006D0010E486E3988000E0001FA6F050E4D
:1004C8004818D8A421D03650351006E1E90E335C1F
:1004D800030E3458D8A018D0010E2D6E000E2E6EC3
:1004E800000E2F6E4404CCEC3FF0CB0E0001AF6F32
:1004F800F60EB06F48EC19F0000E336E000E346E35
:10050800000E356E000E366E4804D8A49ED0000E3C
:10051800BD6E82848198000E0101246FD3EC3EF0F9
:1005280002017B6F7B05D8A404D0399A3990000E5C
:10053800376E020E7B19D8A488D0020E0101561915
:10054800D8A47DD04451D8A403D04350D8A477D0A0
:100558000201782B78050101EB6F190EEB6575D058
:10056800F6EC32F0E806D8B439863750D8A46DD006
:100578003950D8A46AD0000E0201736F82EC3CF0A7
:10058800470E0001AF6FF80EB06F3EC1B1F03FC12A
:10059800B2F03EC0B3F03FC0B4F048EC19F03E50A2
:1005A80001013E5D3F503F59D8B005D03EC13CF1F6
:1005B8003FC13DF104D03EC03CF13FC03DF1010ECA
:1005C80044641FD0020E2D6E000E2E6E3CC12FF01B
:1005D8004404CCEC3FF0600E0001AF6FF70EB06F33
:1005E8003CC1B1F03DC1B2F048EC19F0060E486EBE
:1005F800000E336E000E346E000E356E000E366E31
:1006080024D03EC11DF03FC11EF0000E206E0A0E20
:100618001F6EE9EC41F01DC000F11EC001F1010E92
:100628000101246F020E486E3C0E4D6F80868E0EBF
:100638000001AF6FFA0EB06F48EC19F006D0020E49
:100648000101566F000E0201786F060E4818D8A4F3
:100658000BD03650351006E1E90E335C030E3458E2
:10066800D8A002D0010E486E020E4818D8A4C0D0F7
:10067800070EBC64A7D0180EBC60A4D0D3EC3EF023
:1006880002017B6F7B05D8A420D001015605D8A4B0
:100698001AD00201782B78050101EB6F190EEB6572
:1006A80091D0010E486E740E0001AF6FFA0EB06F54
:1006B80048EC19F0010E446485D0050E486EE90E29
:1006C800336E030E38D0010E70D0030E7B19D8A4F8
:1006D80072D0030E01015619D8A466D00201730521
:1006E800D8A462D0782B78050101EB6F190EEB6561
:1006F80069D03950D8A466D03750D8A463D0010E39
:1007080044641FD0030E2D6E000E2E6E3CC12FF0D8
:100718004404CCEC3FF0830E0001AF6FF70EB06FCE
:100728003CC1B1F03DC1B2F048EC19F0070E486E7B
:10073800000E336E000E346E000E356E000E366EEF
:1007480041D03CC100F13DC101F1F6EC32F00009A5
:10075800D8A428D0020E0101246F000E096F000EE4
:10076800086F010E99EC23F08188000E0201736F67
:10077800030E486E000E0001FA6F000E336E000E75
:10078800346E000E356E000E366E01014B51D8B432
:10079800F6EC1EF09B0E0001AF6FFA0EB06F48EC3E
:1007A80019F010D039860ED0030E0101566F000ED5
:1007B8000201786F07D0020E01015619D8B402D091
:1007C800000E566FE60EBC6413D0F10EBC64FDD764
:1007D800F10EBC6401D0BC50D3EC3EF002017B6F3B
:1007E800040E7B19D8A402D0010E01D0000E736F3D
:1007F800070E4818D8A415D03650351006E1E90E72
:10080800335C030E3458D8A00CD0000E0201736F6D
:10081800020E486EB60E0001AF6FF90EB06F48ECCD
:1008280019F0030E4818D8A477D0070EBC6474D00A
:10083800180EBC6071D0D3EC3EF002017B6F7B05D3
:10084800D8B403D07B51D8A42BD001015605D8A425
:1008580025D00201782B78050101EB6F190EEB65A5
:100868005BD0010E486E810E0001AF6FFA0EB06FBB
:1008780048EC19F060EC3EF0010E44640BD0050E14
:10088800486EE90E336E030E346E000E356E000EA0
:10089800366E42D0000E0101246F3ED0010E34D0D6
:1008A800020E7B19D8A435D0020E01015619D8A41E
:1008B80029D00201782B78050101EB6F190EEB6541
:1008C8002BD0819860EC3EF0000E0201736F020E8F
:1008D800486E010E44640BD0080E486EE90E336E64
:1008E800030E346E000E356E000E366E03D0000E09
:1008F8000101246FBE0E0001AF6FF90EB06F48EC16
:1009080019F00AD0020E0101566F000E0201786F2D
:1009180003D0000E0101566F080E4818D8A421D044
:100928003650351006E1E90E335C030E3458D8A072
:1009380018D0040E2D6E000E2E6E000E2F6E44047D
:10094800CCEC3FF0F10E0001AF6FF60EB06F48EC43
:1009580019F0000E336E000E346E000E356E000E68
:10096800366EABA202D0AB98AB8871A202D0719858
:100978007188D6CF7EF23C0ED76414D1000ED76EA4
:10098800000ED66E72EC3FF001014351D8B41CD072
:100998002E51EB6F2F51EC6F2E4B2F2BCDC11DF02D
:1009A800CEC11EF0000E206E3C0E1F6EE9EC41F029
:1009B8000101EB511D5CEC511E58D8B009D0010E55
:1009C800486E000E436F04D0000E2F6F000E2E6F7E
:1009D8003750D8A43706370E4C6102D039B4399451
:1009E80039C0EBF1210EEB17D8B40AD0020E4460DF
:1009F80007D0F6EC32F00009D8A402D03990399A21
:100A080002017451D8B439B21DD03982010E486E32
:100A1800650E0001AF6FF80EB06F48EC19F0000ECC
:100A280002017E6F030E7E6501D00FD07E51010D4D
:100A3800240EF324D96E010EF420DA6E000EDF6E58
:100A48007E2BF0D77451D8A47407400E01014C6571
:100A58001DD03984010E486E2A0E0001AF6FF90EC1
:100A6800B06F48EC19F0000E02017E6F030E7E6530
:100A780001D00CD07E51010D240EF324D96E010E45
:100A8800F420DA6E000EDF6E7E2BF0D739C0EBF162
:100A9800290E0101EB17D8B420D03996020E471859
:100AA800D8A40CD03750D8A407D0A10E0001AF6F3E
:100AB800F80EB06F48EC19F0398A0BD03750D8A42B
:100AC80007D0E90E0001AF6FF70EB06F48EC19F0D0
:100AD8003980010E486E3C0E376EF6EC1EF047501A
:100AE800D8A403D04404D8A431D002016E076E29DB
:100AF800D8A42CD00A0E0101576F040E586F000EAF
:100B0800596F000E5A6F000E5B6F140E5C6F570E14
:100B1800176E010E186E000E1A6E060E196E25EC71
:100B28003EF017C070F218C071F270C25DF1020198
:100B3800715101015E6F570E216E010E226E080E73
:100B4800236EDEEC3BF0010E02016E6F4750D8A415
:100B580029D0000E01013B6F000E3A6F020172515D
:100B6800D8A47207020E44601DD07251D8A41AD0BE
:100B7800000E99EC23F04404D8B431EC3BF0020E9B
:100B88004818D8B404D0030E4818D8A406D008C111
:100B98009CF009C19DF082EC38F0020E0201726FE0
:100BA8000A0E746F01015105D8A4C4EF01F0030EB9
:100BB8002025EB6F000E2121EC6F000E2221ED6F36
:100BC800000E2321EE6F3350EB5D3450EC59355055
:100BD800ED593650EE59D8B0C4EF01F0320E176E09
:100BE800020E186E53C119F01A6A25EC3EF017C0B0
:100BF80040F118C041F10A0E02013219D8A4E5D219
:100C0800040E3319D8A4E1D2010140514111D8A4EE
:100C1800DCD2000E3B6F000E3A6F000E396F000EEB
:100C2800386F000E0001F86F000EF76F38C255F1EB
:100C3800010155AF02D0130E01D01F0E0201776FCC
:100C4800000E7E6F020E7E6501D053D17E51040DD9
:100C5800BB0EF324756F010EF420766F77510101F6
:100C6800EB6FEC6B030EEB27000EEC23320EEB253B
:100C7800D96E020EEC21DA6E75C2E1FF76C2E2FF90
:100C8800DFCFE7FF0201754B762B77510101EB6F40
:100C9800EC6B020EEB27000EEC23320EEB25D96E1F
:100CA800020EEC21DA6E75C2E1FF76C2E2FFDFCFF9
:100CB800E7FF0201754B762B77510101EB6FEC6B67
:100CC800010EEB27000EEC23320EEB25D96E020E37
:100CD800EC21DA6E75C2E1FF76C2E2FFDFCFE7FFF3
:100CE8000201754B762B7751010D320EF324D96E24
:100CF800020EF420DA6E75C2E1FF76C2E2FFDFCFA2
:100D0800E7FF7E51040DBB0EF324D96E010EF420CB
:100D1800DA6EDECF1FF0DECF20F0DECF21F0DECF9F
:100D280022F0000E236E000E246E200E256E410E5A
:100D3800266E67EC2BF002017E51040DBB0EF324E6
:100D4800D96E010EF420DA6E1FC0DEFF20C0DEFF70
:100D580021C0DEFF22C0DEFF040E010155612CD048
:100D680002017E51040DBB0EF324D96E010EF4204E
:100D7800DA6EDECF1FF0DECF20F0DECF21F0DECF3F
:100D880022F0C7C123F0C8C124F0C9C125F0CAC1E7
:100D980026F067EC2BF002017E51040DBB0EF32404
:100DA800D96E010EF420DA6E1FC0DEFF20C0DEFF10
:100DB80021C0DEFF22C0DEFF02017E51040DBB0E02
:100DC800F324D96E010EF420DA6EDECF92F0DECF76
:100DD80093F0DECF94F0DECF95F0F6EC39F0000119
:100DE800F7519225F76FF8519321F86F3AC117F030
:100DF8003BC118F0196A1A6A000E5DEC34F017C08E
:100E080025F018C026F019C027F01AC028F00201F2
:100E18007E51040DBB0EF324D96E010EF420DA6E58
:100E2800DECF29F0DECF2AF0DECF2BF0DECF2CF09C
:100E380066EC37F0D8B017D002017E51040DBB0E16
:100E4800F324D96E010EF420DA6EDECF92F0DECFF5
:100E580093F0DECF94F0DECF95F0F6EC39F092C047
:100E68003AF193C03BF102017E51040DBB0EF3240D
:100E7800D96E010EF420DA6EDECF25F0DECF26F033
:100E8800DECF27F0DECF28F038C117F039C118F0CF
:100E9800000E18BEFF0E196E1A6E010E5DEC34F0CE
:100EA80017C029F018C02AF019C02BF01AC02CF06E
:100EB80066EC37F0D8B017D002017E51040DBB0E96
:100EC800F324D96E010EF420DA6EDECF92F0DECF75
:100ED80093F0DECF94F0DECF95F0F6EC39F092C0C7
:100EE80038F193C039F102017751040F776F7E2BE7
:100EF800A9D64750D8B463D1020E446060D1000E21
:100F080099EC23F0030E0101496111D040C01DF096
:100F180041C01EF0000E206E140E1F6EE9EC41F069
:100F280001013A511D5C3B511E58D8B021D0398679
:100F3800000E02017E6F030E7E6501D00CD07E513B
:100F4800010D240EF324D96E010EF420DA6E000E82
:100F5800DF6E7E2BF0D7020E2D6E010E2E6E37C07F
:100F68002FF0000ECCEC3FF0000E0101496F04D0C9
:100F78004450D8A431EC3BF0020E4818D8B404D041
:100F8800030E4818D8A406D008C19CF009C19DF0EA
:100F980082EC38F03AC01DF03BC01EF0FF0E206E08
:100FA800F60E1F6EE9EC41F01DC06CF21EC06DF22A
:100FB8009B0E0001AF6FF00EB06F400E4824B16F6A
:100FC800B26B000EB22339C0B3F0B46B6CC2B5F08B
:100FD8006DC2B6F038C1B7F039C1B8F037C0B9F052
:100FE800BA6B2EC1BBF02FC1BCF049C1BDF0BE6BBE
:100FF8003AC1A1F03BC1A2F0000EA46F0A0EA36F84
:10100800F6EC3FF0A1C0BFF0A2C0C0F03AC19CF01E
:101018003BC19DF0000E00019F6F0A0E9E6FB0EC61
:1010280040F09CC0C1F09DC0C2F0F5C0A1F0F6C070
:10103800A2F0000E0001A46F0A0EA36FF6EC3FF0B9
:10104800A1C0C3F0A2C0C4F0F5C09CF0F6C09DF0EA
:10105800000E00019F6F0A0E9E6FB0EC40F09CC01E
:10106800C5F09DC0C6F048EC19F0C3C12FF0C4C14B
:1010780030F0C5C131F0C6C132F0BFC12BF0C0C1DC
:101088002CF0C1C12DF0C2C12EF010EC2DF02BC0F8
:1010980064F22CC065F22DC066F22EC067F2BBC1A7
:1010A8002FF0BCC130F0BDC131F0BEC132F064C216
:1010B8002BF065C22CF066C22DF067C22EF010EC42
:1010C8002DF02BC079F02CC07AF02DC07BF02EC00B
:1010D8007CF0000E00017D6F000E7E6F200E7F6F8A
:1010E800410E806F9BEC31F079C068F27AC069F2EA
:1010F8007BC06AF27CC06BF2B10E0001AF6FF40ED8
:10110800B06FBBC179F0BCC17AF0BDC17BF0BEC184
:101118007CF0000E7D6F000E7E6F200E7F6F410EFB
:10112800806F9BEC31F079C0B1F07AC0B2F07BC02F
:10113800B3F07CC0B4F0BFC179F0C0C17AF0C1C1CE
:101148007BF0C2C17CF0000E00017D6F000E7E6F47
:10115800200E7F6F410E806F9BEC31F079C0B5F0A7
:101168007AC0B6F07BC0B7F07CC0B8F0C3C179F0E4
:10117800C4C17AF0C5C17BF0C6C17CF0000E000185
:101188007D6F000E7E6F200E7F6F410E806F9BEC8F
:1011980031F079C0B9F07AC0BAF07BC0BBF07CC03E
:1011A800BCF068C2BDF069C2BEF06AC2BFF06BC2D3
:1011B800C0F048EC19F00A0E0201746F2CD2000E30
:1011C80001013B6F000E3A6F26D2060E01015165F0
:1011D80022D2500E02013419D8A41DD2020E35199C
:1011E800D8A419D2010140514111D8A414D237C250
:1011F8007DF238C27CF23AC279F202017A6B0A0EA9
:10120800746F7D51D8A436D07C05D8A433D0010E94
:10121800446430D044500101EB6FEC6BD890EB374D
:10122800EC37040EEB27000EEC23320EEB25D96EBB
:10123800020EEC21DA6EDF50ED6FED51086F096B8D
:10124800020E4818D8B404D0030E4818D8A406D003
:1012580008C19CF009C19DF082EC38F0C80E00016D
:10126800AF6FF70EB06F08C1B1F009C1B2F048EC2A
:1012780019F018D002017D51D8A414D0020E7C199F
:10128800D8A410D0010E44640DD0010E486E39C2A6
:1012980039F03C0E376E3C0E0001AF6FF70EB06FA1
:1012A80048EC19F002017D510101EB6FEC6BFF0E68
:1012B800ED6FFF0EEE6F4450EF6FF06BED51EF27BF
:1012C800EE51F023EB51EF1903E1EC51F019D8A4DA
:1012D80084D0810E02017C19D8A40AD0010E486E70
:1012E800080E0001AF6FFA0EB06F48EC19F075D018
:1012F800820E02017C19D8A421D079517A11D8A480
:1013080009D039860F0E0001AF6FFC0EB06F48ECA4
:1013180019F063D079C29CF07AC29DF082EC38F063
:10132800020E486E2A0E0001AF6FF60EB06F79C23A
:10133800B1F07AC2B2F048EC19F04FD0830E020136
:101348007C19D8A43CD079517A11D8A409D039860F
:10135800170E0001AF6FFC0EB06F48EC19F03DD0CE
:1013680079C29CF07AC29DF082EC38F08188000E38
:101378000201736F030E486E000E0001FA6F000E33
:10138800336E000E346E000E356E000E366E01019F
:101398004B51D8B4F6EC1EF0170E0001AF6FF70EE4
:1013A800B06F79C2B1F07AC2B2F048EC19F09B0E76
:1013B8000001AF6FFA0EB06F48EC19F00ED0840E32
:1013C80002017C19D8A409D0020E486EA50E0001AE
:1013D800AF6FF60EB06F48EC19F04404D8A41BD1D7
:1013E80002017C05D8A422D07D51010D240EF324DE
:1013F800D96E010EF420DA6E000EDF6E000E99EC45
:1014080023F0A00E0001AF6FF90EB06F7DC2B1F0EE
:10141800B26B48EC19F0810E2D6E000E2E6E000E88
:101428002F6E02017D51CCEC3FF0F5D0020E020187
:101438007C19D8A462D0F6EC32F00009D8A42FD0D9
:1014480002017D51010D240EF324D96E010EF42002
:10145800DA6E010EDF6E7D51020D000EF324D96E97
:10146800010EF420DA6E79C2DEFF7AC2DDFF3CC0DD
:101478001DF03DC01EF0000E206E0A0E1F6EE9EC36
:1014880041F002017D51020D080EF324D96E010EC0
:10149800F420DA6E1DC0DEFF1EC0DDFF0DD0020194
:1014A8007D51020D080EF324D96E010EF420DA6E78
:1014B800000EDE6E000EDD6ED90E0001AF6FF80E65
:1014C800B06F7DC2B1F0B26B79C2B3F07AC2B4F03A
:1014D80048EC19F0820E2D6E000E2E6E02017D5121
:1014E800020D080EF324D96E010EF420DA6EDF50D7
:1014F8002F6E7D51CCEC3FF08ED0030E02017C198B
:10150800D8A463D0F6EC32F00009D8A427D00201A1
:101518007D51010D240EF324D96E010EF420DA6EEC
:10152800020EDF6E7D51020D000EF324D96E010EFE
:10153800F420DA6E79C2DEFF7AC2DDFF7D51020D3A
:10154800080EF324D96E010EF420DA6E000EDE6E5A
:10155800000EDD6E010E99EC23F00DD002017D51D5
:10156800020D080EF324D96E010EF420DA6E000E77
:10157800DE6E000EDD6EBD0E0001AF6FF80EB06FAF
:101588007DC2B1F0B26B02017D51020D080EF32449
:10159800D96E010EF420DA6EDECFB3F0DDCFB4F0F1
:1015A80048EC19F0830E2D6E000E2E6E02017D514F
:1015B800020D080EF324D96E010EF420DA6EDF5006
:1015C8002F6E7D51CCEC3FF026D0040E02017C1921
:1015D800D8A421D07D51010D240EF324D96E010E1B
:1015E800F420DA6E000EDF6E000E99EC23F0F50E93
:1015F8000001AF6FF80EB06F7DC2B1F0B26B48EC6E
:1016080019F0840E2D6E000E2E6E000E2F6E020144
:101618007D51CCEC3FF0000E0101516F000E536F6D
:1016280039A205D00A0E02017419D8B4399239C00A
:10163800EBF1210E0101EB17D8B4C4EF01F03750DC
:10164800D8A4C4EF01F0010E4464C4EF01F039904E
:10165800399AC4EF01F0620E0001AF6FF80EB06F57
:1016680048EC19F00001FB51D8A4F9D0890E176E87
:10167800010E186ECC0E196EFC0E1A6E20EC40F09E
:1016880017501810D8A409D04750D8A403D0440440
:10169800D8A403D0010E0001FB6F890E176E010E4E
:1016A800186EF50E196EFC0E1A6E20EC40F01750ED
:1016B8001810D8A403D0020E0001FB6F890E176E14
:1016C800010E186EF10E196EFC0E1A6E20EC40F029
:1016D80017501810D8A409D04750D8A403D04404F0
:1016E800D8A403D0030E0001FB6F890E176E010EFC
:1016F800186EED0E196EFC0E1A6E20EC40F01750A5
:101708001810D8A406D04750D8B403D0040E00014E
:10171800FB6F890E176E010E186EDE0E196EFC0E29
:101728001A6E20EC40F017501810D8A403D0050EFC
:101738000001FB6F890E176E010E186EE30E196E0D
:10174800FC0E1A6E20EC40F017501810D8A406D0E2
:101758004550D8A403D0060E0001FB6F890E176E02
:10176800010E186E5F0E196EFC0E1A6E20EC40F01A
:1017780017501810D8A403D0070E0001FB6F890E6C
:10178800176E010E186EBA0E196EFC0E1A6E20EC4A
:1017980040F017501810D8A406D04550D8B403D03C
:1017A800080E0001FB6F890E176E010E186E740E7D
:1017B800196EFC0E1A6E20EC40F017501810D8A4C1
:1017C80003D0090E0001FB6F890E176E010E186E0B
:1017D800820E196EFC0E1A6E20EC40F0175018108D
:1017E800D8A403D00A0E0001FB6F890E176E010EF4
:1017F800186EC00E196EFC0E1A6E20EC40F01750D1
:101808001810D8A403D00B0E0001FB6F890E176EB9
:10181800010E186ED80E196EFC0E1A6E20EC40F0F0
:1018280017501810D8A407D0020E4718D8A403D010
:101838000C0E0001FB6F890E176E010E186EE80E74
:10184800196EFC0E1A6E20EC40F017501810D8A430
:10185800ACD2020E4718D8A4A8D20D0EA4D201010A
:101868008951D8B49FD20001FB05D8B414D0020E18
:10187800FB19D8B410D0030EFB19D8B40CD0080E3D
:10188800FB19D8B408D00C0EFB19D8B404D00D0E2F
:10189800FB19D8A499D0890E236E010E246E65EC2D
:1018A8003AF023C0F3F024C0F4F00001FB05D8A4FB
:1018B80013D0F45104E10A0EF35DD8A00DD0F45111
:1018C8000BE1650EF35DD8B007D0F3C040F0F4C06B
:1018D80041F0D3EC36F066D2020E0001FB19D8A411
:1018E80013D0F45104E10A0EF35DD8A00DD0F451E1
:1018F8000BE1510EF35DD8B007D0F3C03EF0F4C051
:101908003FF0D3EC36F04ED2030E0001FB19D8A4F9
:1019180013D0F45104E1060EF35DD8A00DD0F451B4
:101928000BE1110EF35DD8B007D0F3C03CF0F4C062
:101938003DF0D3EC36F036D2080E0001FB19D8A4DE
:1019480013D0F45104E10D0EF35DD8A00DD0F4517D
:101958000BE1510EF35DD8B007D0F3C0CFF1F4C05E
:10196800D0F1D3EC36F01ED20C0E0001FB19D8A42E
:1019780011D0F351F411D8B40DD0F4510BE1110E7C
:10198800F35DD8B007D0F3C03AF0F4C03BF0D3EC25
:1019980036F008D20D0E0001FB19D8A40DD0F45171
:1019A8000BE13D0EF35DD8B007D0F3C0CDF1F4C024
:1019B800CEF1D3EC36F0F6D1280E0001AF6FF80E59
:1019C800B06F48EC19F0EED1040E0001FB19D8A451
:1019D80087D0890E9E6F010E9F6FC2EC41F09EC0AA
:1019E800EFF09FC0F0F0A0C0F1F0A1C0F2F0EFC09E
:1019F80025F0F0C026F0F1C027F0F2C028F0000E64
:101A0800296E000E2A6EC00E2B6E400E2C6E66ECF0
:101A180037F0D8A014D0000E256E000E266EA00E4A
:101A2800276E420E286EEFC029F0F0C02AF0F1C0F0
:101A38002BF0F2C02CF066EC37F0D8B008D0A70E27
:101A48000001AF6FF50EB06F48EC19F0ABD1BBC118
:101A580079F0BCC17AF0BDC17BF0BEC17CF0C7C1D2
:101A68007DF0C8C17EF0C9C17FF0CAC180F09BEC8F
:101A780031F079C0EBF07AC0ECF07BC0EDF07CC0BF
:101A8800EEF0000E236E000E246E200E256E410E21
:101A9800266EEFC01FF0F0C020F0F1C021F0F2C0B8
:101AA80022F067EC2BF01FC079F020C07AF021C03B
:101AB8007BF022C07CF0EBC07DF0ECC07EF0EDC086
:101AC8007FF0EEC080F09BEC31F079C0C7F17AC0AE
:101AD800C8F17BC0C9F17CC0CAF1D3EC36F062D141
:101AE800050E0001FB19D8A43BD0890E176E010E14
:101AF800186E2A0E196EFB0E1A6E20EC40F0175065
:101B08001810D8A405D0020E476ED3EC36F04AD18F
:101B1800890E176E010E186ED20E196EFC0E1A6E13
:101B280020EC40F017501810D8A405D0010E476ECD
:101B3800D3EC36F037D1890E176E010E186E6D0E84
:101B4800196EFC0E1A6E20EC40F017501810D8A42D
:101B580029D1000E476ED3EC36F0000E396E22D133
:101B6800060E0001FB19D8A439D0890E176E010E94
:101B7800186ED60E196EFB0E1A6E20EC40F0175038
:101B88001810D8A405D0010E466ED3EC36F00AD151
:101B9800890E176E010E186EC60E196EFC0E1A6E9F
:101BA80020EC40F017501810D8A405D0020E466E4D
:101BB800D3EC36F0F7D0890E176E010E186E1F0E93
:101BC800196EFC0E1A6E20EC40F017501810D8A4AD
:101BD800E9D0000E466ED3EC36F0E4D0070E0001D3
:101BE800FB19D8A426D0890E176E010E186EB40EF4
:101BF800196EFC0E1A6E20EC40F017501810D8A47D
:101C080005D0010E456ED3EC36F0CCD0890E176E98
:101C1800010E186E890E196EFC0E1A6E20EC40F03B
:101C280017501810D8A4BED0000E456ED3EC36F06D
:101C3800B9D0090E0001FB19D8A45FD0890E176E20
:101C4800010E186E1F0E196EFC0E1A6E20EC40F075
:101C580017501810D8A405D0000E446ED3EC36F0F7
:101C6800A1D0890E176E010E186E7B0E196EFC0E30
:101C78001A6E20EC40F017501810D8A405D0010EA9
:101C8800446ED3EC36F08ED0890E176E010E186EA6
:101C9800430E196EFC0E1A6E20EC40F01750181007
:101CA800D8A405D0020E446ED3EC36F07BD0890E52
:101CB800176E010E186E4A0E196EFC0E1A6E20EC85
:101CC80040F017501810D8A405D0030E446ED3EC7A
:101CD80036F068D0890E176E010E186E510E196E07
:101CE800FC0E1A6E20EC40F017501810D8A45AD0E9
:101CF800040E446ED3EC36F055D00A0E0001FB19E1
:101D0800D8A426D0890E176E010E186E1F0E196EF4
:101D1800FC0E1A6E20EC40F017501810D8A405D00D
:101D2800000E436ED3EC36F03DD0890E176E010ECF
:101D3800186E660E196EFC0E1A6E20EC40F01750E5
:101D48001810D8A42FD0010E436ED3EC36F02AD049
:101D58000B0E0001FB19D8A425D0890E176E010EB1
:101D6800186E1F0E196EFC0E1A6E20EC40F01750FC
:101D78001810D8A405D0000E426ED3EC36F012D05D
:101D8800890E176E010E186E580E196EFC0E1A6E1B
:101D980020EC40F017501810D8A404D0010E426E61
:101DA800D3EC36F0000E0001FB6F0001FB51D8A404
:101DB80002D2520EAF6FF30EB06F48EC19F0650EF9
:101DC8000001AF6FFB0EB06F48EC19F0E50E000193
:101DD800AF6FF40EB06F48EC19F0090E0001AF6F49
:101DE800F80EB06F4CC1B1F0B26B48EC19F0CF0EE1
:101DF8000001AF6FF30EB06F48EC19F08F0E0001C1
:101E0800AF6FEE0EB06F48EC19F0970E0001AF6F90
:101E1800F90EB06F48EC19F04550D8B408D0660EEA
:101E28000001AF6FFA0EB06F48EC19F007D02A0E18
:101E38000001AF6FFA0EB06F48EC19F02E0E0001DA
:101E4800AF6FEE0EB06F48EC19F09B0E0001AF6F4C
:101E5800F90EB06F48EC19F04704D8A408D0070E63
:101E68000001AF6FFC0EB06F48EC19F013D0020EF2
:101E78004718D8A408D0F70E0001AF6FFB0EB06F5B
:101E880048EC19F007D0C40E0001AF6FFB0EB06F1D
:101E980048EC19F0020E4718D8A424D0370E0001D8
:101EA800AF6FEF0EB06F48EC19F05A0E0001AF6F2C
:101EB800F90EB06F3AC0B1F03BC0B2F048EC19F07F
:101EC800C80E0001AF6FED0EB06F48EC19F0C20EEE
:101ED8000001AF6FFA0EB06FCDC1B1F0CEC1B2F054
:101EE80048EC19F0820E0001AF6FEF0EB06F48ECAE
:101EF80019F08B0E0001AF6FF90EB06F48EC19F0B6
:101F08004450D8A408D0060E0001AF6FFB0EB06F86
:101F180048EC19F02AD04404D8A408D0CD0E00010A
:101F2800AF6FFB0EB06F48EC19F01FD0020E4418CB
:101F3800D8A408D0A00E0001AF6FFB0EB06F48EC1C
:101F480019F013D0030E4418D8A408D0A90E000124
:101F5800AF6FFB0EB06F48EC19F007D0B20E00015E
:101F6800AF6FFB0EB06F48EC19F04750D8A403D000
:101F78004404D8A412D0C20E0001AF6FEF0EB06FA8
:101F880048EC19F0830E0001AF6FF80EB06F40C037
:101F9800B1F041C0B2F048EC19F0BC0E0001AF6FCF
:101FA800EE0EB06F48EC19F0760E0001AF6FF90E27
:101FB800B06F3EC0B1F03FC0B2F048EC19F04750E6
:101FC800D8A403D04404D8A412D0FB0E0001AF6FEC
:101FD800ED0EB06F48EC19F07E0E0001AF6FF90EF0
:101FE800B06F3CC0B1F03DC0B2F048EC19F04550BC
:101FF800D8B413D0100E0001AF6FEF0EB06F48ECDD
:1020080019F0720E0001AF6FF90EB06FCFC1B1F0C9
:10201800D0C1B2F048EC19F02CD05D0E0001AF6FC2
:10202800EF0EB06F48EC19F08F0E0001AF6FF90E8C
:10203800B06F48EC19F04604D8A408D0110E00017E
:10204800AF6FFB0EB06F48EC19F013D0020E4618B4
:10205800D8A408D0FF0E0001AF6FFB0EB06F48EC9C
:1020680019F007D0060E0001AF6FFB0EB06F48ECF9
:1020780019F04750D8B457D0920E0001AF6FF30E45
:10208800B06FBBC179F0BCC17AF0BDC17BF0BEC1F5
:102098007CF0000E7D6F000E7E6F200E7F6F410E6C
:1020A800806F9BEC31F079C0B1F07AC0B2F07BC0A0
:1020B800B3F07CC0B4F0BFC179F0C0C17AF0C1C13F
:1020C8007BF0C2C17CF0000E00017D6F000E7E6FB8
:1020D800200E7F6F410E806F9BEC31F079C0B5F018
:1020E8007AC0B6F07BC0B7F07CC0B8F0C3C179F055
:1020F800C4C17AF0C5C17BF0C6C17CF0000E0001F6
:102108007D6F000E7E6F200E7F6F410E806F9BECFF
:1021180031F079C0B9F07AC0BAF07BC0BBF07CC0AE
:10212800BCF048EC19F0A30E0001AF6FEF0EB06FD2
:1021380048EC19F0890E0001AF6FF90EB06F48EC4A
:1021480019F04350D8A408D0060E0001AF6FFB0E5B
:10215800B06F48EC19F007D0BB0E0001AF6FFB0E53
:10216800B06F48EC19F0E70E0001AF6FEE0EB06FDC
:1021780048EC19F0930E0001AF6FF90EB06F48EC00
:1021880019F04250D8A408D0060E0001AF6FFB0E1C
:10219800B06F48EC19F007D03A0E0001AF6FFB0E94
:1021A800B06F48EC19F0F90E0001AF6FFC0EB06F7C
:1021B80048EC19F0B5D10001FB05D8A419D0120ECE
:1021C800AF6FF30EB06F48EC19F04C0E0001AF6F13
:1021D800F50EB06F48EC19F00A0E0001AF6FF20E61
:1021E800B06F40C0B1F041C0B2F048EC19F098D1DE
:1021F800020E0001FB19D8A419D0120EAF6FF30E0E
:10220800B06F48EC19F04C0E0001AF6FF50EB06FCF
:1022180048EC19F0D10E0001AF6FF20EB06F3EC05E
:10222800B1F03FC0B2F048EC19F07AD1030E0001CA
:10223800FB19D8A40BD07E0EAF6FF10EB06F3CC067
:10224800B1F03DC0B2F048EC19F06AD1040E0001BB
:10225800FB19D8A421D00B0EAF6FF40EB06FBBC121
:1022680079F0BCC17AF0BDC17BF0BEC17CF0000E34
:102278007D6F000E7E6F200E7F6F410E806F9BEC8E
:1022880031F079C0B1F07AC0B2F07BC0B3F07CC055
:10229800B4F048EC19F044D1050E0001FB19D8A49C
:1022A8002CD0490EAF6FFA0EB06F48EC19F0470406
:1022B800D8A408D0B50E0001AF6FFA0EB06F48EC85
:1022C80019F013D0020E4718D8A408D0A80E0001A0
:1022D800AF6FFA0EB06F48EC19F007D0580E000136
:1022E800AF6FFA0EB06F48EC19F0FF0E0001AF6F38
:1022F800F50EB06F48EC19F013D1060E0001FB196A
:10230800D8A42CD0CB0EAF6FF90EB06F48EC19F0F3
:10231800020E4618D8A408D0FF0E0001AF6FFB0EBE
:10232800B06F48EC19F012D04604D8A408D0110EAA
:102338000001AF6FFB0EB06F48EC19F007D0440EE8
:102348000001AF6FFB0EB06F48EC19F07C0E000176
:10235800AF6FF40EB06F48EC19F0E2D0070E000131
:10236800FB19D8A420D0190EAF6FFA0EB06F48EC45
:1023780019F04550D8B408D0660E0001AF6FFA0EB8
:10238800B06F48EC19F007D02A0E0001AF6FFA0EB3
:10239800B06F48EC19F07C0E0001AF6FF60EB06F0D
:1023A80048EC19F0BDD0080E0001FB19D8A419D0CB
:1023B800120EAF6FF30EB06F48EC19F0440E000127
:1023C800AF6FF40EB06F48EC19F04D0E0001AF6F0F
:1023D800F20EB06FCFC1B1F0D0C1B2F048EC19F035
:1023E8009FD0090E0001FB19D8A431D0110EAF6F90
:1023F800F90EB06F48EC19F04450D8A408D0060E76
:102408000001AF6FFB0EB06F48EC19F018D0440410
:10241800D8A408D0CD0E0001AF6FFB0EB06F48EC0A
:1024280019F00DD04E0E0001AF6FFB0EB06FFF0E0E
:102438004424B16FB26BFF0EB22348EC19F08F0E33
:102448000001AF6FF20EB06F48EC19F069D00A0EB8
:102458000001FB19D8A420D0A60EAF6FF70EB06FFD
:1024680048EC19F04350D8A408D0060E0001AF6F0D
:10247800FB0EB06F48EC19F007D0BB0E0001AF6F30
:10248800FB0EB06F48EC19F0530E0001AF6FF60E5B
:10249800B06F48EC19F044D00B0E0001FB19D8A41A
:1024A80020D0D30EAF6FF50EB06F48EC19F0425044
:1024B800D8A408D0060E0001AF6FFB0EB06F48EC31
:1024C80019F007D03A0E0001AF6FFB0EB06F48EC61
:1024D80019F0190E0001AF6FF50EB06F48EC19F046
:1024E8001FD00C0E0001FB19D8A40BD0290EAF6F1A
:1024F800F10EB06F3AC0B1F03BC0B2F048EC19F041
:102508000FD00D0E0001FB19D8A40AD0C50EAF6F6D
:10251800F10EB06FCDC1B1F0CEC1B2F048EC19F0F8
:10252800000E0101506F000E526F12000001EF6F94
:102538003C0E01014D6F80864204D8B439A802D000
:1025480081A239984B51D8A414D0050E0001EF1977
:10255800D8A40FD001014251D8A40BD0010E4B6F63
:1025680033C014F134C015F135C016F136C017F177
:102578001CD301014B05D8A421D0D00E142500018D
:10258800EB6F070E010115210001EC6F000E010130
:1025980016210001ED6F000E010117210001EE6FF9
:1025A8003350EB5D3450EC593550ED593650EE59F7
:1025B800D8B004D00A0E01014B6F40D201014B057F
:1025C800D8A40DD0070E0001EF19D8A408D0000E2A
:1025D80001014B6F000E426FF6EC1EF0E6D2500E72
:1025E80001014B19D8A414D0020E0001EF19D8A488
:1025F8000FD001014A51D8B40BD0000EC76F000E9E
:10260800C86F800EC96F3F0ECA6F000E4A6F16D290
:1026180001014B51D8B407D14BC19CF000019D6B0F
:10262800000E9F6F0A0E9E6F9AEC3EF000019C51BF
:102638009D11D8A4F8D0030EEF19D8A4F4D0010145
:102648004251D8B4C4D0EFD04A51D8B4B5D14550CE
:10265800D8A4C4D1010EC3D14A51D8B408D0020EAF
:10266800476002D0472AEAD1000E476EE7D1020E32
:102678004718D8A402D0820E2DD0640E2BD04A5110
:10268800D8B480D13B5003E1100E3A5CD8B0D6D113
:102698003A4A3B2AD3D14A51D8B4EFD7CE5103E1B5
:1026A8003C0ECD5DD8B0CAD1CD4BCE2BC7D14A5147
:1026B800D8B409D0040E4418D8A403D0000E446E30
:1026C800BDD1442ABBD14750D8A43CD14404D8A496
:1026D80021D138D14B6FB2D14A51D8B41BD1404A1D
:1026E800412A415004E1650E405CD8A0A7D1000EF4
:1026F800416E640E406EA2D14A51D8B40DD03E4A04
:102708003F2A3F5004E1510E3E5CD8A097D1000EFD
:102718003F6E500E3E6E92D14750D8A4E9D0440483
:10272800D8B4E6D0C0D04A51D8B4BDD03C4A3D2A2E
:102738003D5004E1110E3C5CD8A080D1000E3D6EE6
:10274800100E3C6E7BD13C0EC5D74A51D8B409D087
:10275800020E4618D8A403D0000E466E6FD1462A42
:102768006DD14A51D8B40DD0CF4BD02BD05104E104
:10277800510ECF5DD8A062D1000ED06F500ECF6F32
:102788005DD14750D8B474D07FD04A51D8B470D0F6
:102798002B5104E13C0E2A5DD8A050D1E80E2A5DE9
:1027A800030E2B59D8B04AD12A4B2B2B47D14A516B
:1027B800D8B455D04350D8A461D0010E60D04A5146
:1027C800D8B40FD14250D8A450D0010E4FD04B519D
:1027D8000A0AD8B439D71E0AD8B43ED70A0AD8B4D8
:1027E8007BD7360AD8B488D71A0AD8B49CD70E0A29
:1027F800D8B4ABD77A0AD8B4B4D7160AD8B4C5D7E0
:102808000A0AD8B4E5D03E0AD8B451D70A0AD8B4CF
:10281800CED7160AD8B4D3D7FA0AD8B430D70E0A06
:10282800D8B439D70BD101014B51D8B409D14BC118
:102838009CF000019D6B000E9F6F0A0E9E6F9AEC34
:102848003EF000019C519D11D8A4FAD0060EEF1954
:10285800D8A4F6D001014251D8B4C5D0F1D0780E31
:1028680039D74A51D8B404D0ADD7000E426EE6D05D
:102878006E0E30D74A51D8B404D09CD7000E436EA0
:10288800DDD04750D8B40FD0500E24D74A51D8B411
:102898000AD02B5104E13D0E2A5DD8A0CFD02A07DB
:1028A800D8A02B07CBD04550D8B44DD7460E12D759
:1028B8004A51D8B40DD0CF07D8A0D007D05103E1E2
:1028C8000D0ECF5DD8B0BAD0000ED06F0D0E57D711
:1028D8004A51D8B407D04650D8A402D0020E3DD7EA
:1028E8004606ACD04750D8A403D04404D8A412D08C
:1028F800320EF0D64A51D8B40DD03C06D8A03D06C9
:102908003D5003E1060E3C5CD8B098D0000E3D6EF9
:10291800060E17D7280EDED64A51D8B40DD03E067B
:10292800D8A03F063F5003E10A0E3E5CD8B086D0DF
:10293800000E3F6E0A0EEED64750D8A403D04404CA
:10294800D8A49BD61E0EC6D64A51D8B496D64006F1
:10295800D8A04106415072E10A0E405CD8B06ED052
:10296800000E416E0A0EC6D64A51D8B407D044505C
:10297800D8A402D0040EA3D6440660D0020E47188D
:10298800D8A41AD08C0EA6D64A51D8B474D6CD5134
:10299800CE11D8B453D0CD07D8A0CE074FD04A51C6
:1029A800D8B40AD03B5004E1020E3A5CD8A046D015
:1029B8003A06D8A03B0642D0140E8CD64A51D8B459
:1029C80007D04750D8B402D0470638D0020E4DD6AB
:1029D8000A0E80D64A51D8B404D039D6000E456EB6
:1029E8002DD05A0E77D64B510A0AD8B4F3D71E0AFF
:1029F800D8B4E4D70A0AD8B4A7D7360AD8B48CD73B
:102A08001A0AD8B477D70E0AD8B462D77A0AD8B4D3
:102A18004FD7160AD8B43AD70A0AD8B420D73E0AEC
:102A2800D8B4A2D70A0AD8B425D7160AD8B419D761
:102A3800FA0AD8B4B4D70E0AD8B4A6D7010EA5D0CE
:102A4800090E01014B65A3D0050E0001EF19D8A4AA
:102A58009ED001014251D8A49AD04A51D8B465D029
:102A6800000E4A6F500E4B19D8A48DD028512A1940
:102A780004E129512B19D8B486D028C117F029C1EF
:102A880018F0196A1A6A000E5DEC34F017C079F074
:102A980018C07AF019C07BF01AC07CF0C7C17DF06D
:102AA800C8C17EF0C9C17FF0CAC180F09BEC31F08B
:102AB80079C010F17AC011F17BC012F17CC013F11A
:102AC8002AC117F02BC118F0196A1A6A000E5DECBA
:102AD80034F017C079F018C07AF019C07BF01AC02A
:102AE8007CF010C17DF011C17EF012C17FF013C1DE
:102AF80080F09BEC31F079C0C7F17AC0C8F17BC097
:102B0800C9F17CC0CAF12AC117F02BC118F0196AA3
:102B18001A6A000E5DEC34F017C0BBF118C0BCF1A6
:102B280019C0BDF11AC0BEF12ED0010E01014A6FC5
:102B3800500E4B19D8A413D0BBC192F0BCC193F06E
:102B4800BDC194F0BEC195F0F6EC39F092C02AF1FF
:102B580093C02BF12AC128F12BC129F114D05A0EA8
:102B680001014B19D8A40FD0000E4B6F000E4A6F0D
:102B7800000E396E000E0001F96F000E376ED3ECAF
:102B880036F0F6EC1EF0010E0101426F0ED0070E72
:102B98000001EF19D8A409D0000E0101426F000E00
:102BA800186E0A0E176EF2EC40F001014205D8B417
:102BB80003D04B05D8A458D34B05D8A425D0000E74
:102BC8001C6E000EFCEC41F0040E1C6E010EFCECB9
:102BD80041F0FB0E0001AF6FFA0EB06F020EE9EC88
:102BE8003DF0970E0001AF6FFB0EB06F040EE9ECDD
:102BF8003DF0100E1C6E060EFCEC41F0000E1C6E33
:102C0800070EFCEC41F02DD30A0E01014B19D8A494
:102C180020D03F0E0001AF6FF00EB06F020EB16F03
:102C2800D0EC3CF04550D8B40AD0700E0001AF6F1C
:102C3800F00EB06F040EB16FD0EC3CF012D3380E2A
:102C48000001AF6FF00EB06F040EB16FD0EC3CF026
:102C580008D3140E01014B19D8A42ED08A0E0001F6
:102C6800AF6FF00EB06F020EB16FD0EC3CF04704BE
:102C7800D8A40AD06A0E0001AF6FF00EB06F040E30
:102C8800B16FD0EC3CF0EDD2020E4718D8A40AD0B0
:102C9800640E0001AF6FF00EB06F040EB16FD0EC90
:102CA8003CF0DFD2310E0001AF6FF00EB06F040EB2
:102CB800B16FD0EC3CF0D5D2820E01014B19D8A4EB
:102CC8004FD0460E0001AF6FF00EB06F020EB16F1D
:102CD800D0EC3CF00DEC42F001014A51D8A47DEC57
:102CE80041F0000E01012D6F280E2C6F000E00011F
:102CF800A96F2D0EA86FACEC33F03AC0A1F03BC021
:102D0800A2F0000E0001A46F0A0EA36FF6EC3FF0CC
:102D1800300E0001A125A86F000EA221A96FACEC0E
:102D280033F03AC09CF03BC09DF0000E00019F6F4D
:102D38000A0E9E6FB0EC40F0300E00019C25A86F83
:102D4800000E9D21A96FACEC33F0000E0001A96FB5
:102D5800410EA86FACEC33F0040E0AEC3FF081D2C0
:102D68008C0E01014B19D8A45BD0760E0001AF6F11
:102D7800F00EB06F020EB16FD0EC3CF00DEC42F0EB
:102D880001014A51D8A47DEC41F0000E01012D6FDC
:102D98001C0E2C6FCDC1A1F0CEC1A2F0000E000117
:102DA800A46F0A0EA36FF6EC3FF0300E0001A125C8
:102DB800A86F000EA221A96FACEC33F0CDC19CF036
:102DC800CEC19DF0000E00019F6F0A0E9E6FB0EC01
:102DD80040F0300E00019C25A86F000E9D21A96FC0
:102DE800ACEC33F0000E01012D6F400E2C6F000E7D
:102DF8000001A96F6D0EA86FACEC33F0000E000156
:102E0800A96F690EA86FACEC33F0000E0001A96F32
:102E18006E0EA86FACEC33F0040E0AEC3FF021D232
:102E2800640E01014B19D8A449D0E10E0001AF6F1F
:102E3800EF0EB06F020EB16FD0EC3CF04450D8A446
:102E48000AD0EA0E0001AF6FEF0EB06F040EB16F3B
:102E5800D0EC3CF006D24404D8A40AD02A0E0001D3
:102E6800AF6FF00EB06F040EB16FD0EC3CF0F9D13B
:102E7800020E4418D8A40AD0140E0001AF6FF00E49
:102E8800B06F040EB16FD0EC3CF0EBD1030E4418D8
:102E9800D8A40AD00C0E0001AF6FF00EB06F040E6C
:102EA800B16FD0EC3CF0DDD1040E0001AF6FF00E35
:102EB800B06F040EB16FD0EC3CF0D3D11E0E0101FF
:102EC8004B19D8A410D05E0E0001AF6FF00EB06F92
:102ED800020EB16FD0EC3CF040C0AFF041C0B0F092
:102EE80087EC39F0BED1280E01014B19D8A410D0B7
:102EF800970E0001AF6FF00EB06F020EB16FD0ECFD
:102F08003CF03EC0AFF03FC0B0F087EC39F0A9D13B
:102F1800320E01014B19D8A410D0930E0001AF6FE7
:102F2800F00EB06F020EB16FD0EC3CF03CC0AFF0C9
:102F38003DC0B0F087EC39F094D13C0E01014B193B
:102F4800D8A42ED0850E0001AF6FF00EB06F020E20
:102F5800B16FD0EC3CF04604D8A40AD0F30E0001BF
:102F6800AF6FEF0EB06F040EB16FD0EC3CF079D1BB
:102F7800020E4618D8A40AD0580E0001AF6FF00E02
:102F8800B06F040EB16FD0EC3CF06BD1EA0E0001CB
:102F9800AF6FEF0EB06F040EB16FD0EC3CF061D1A3
:102FA800460E01014B19D8A410D0520E0001AF6F84
:102FB800F00EB06F020EB16FD0EC3CF0CFC1AFF0A5
:102FC800D0C1B0F087EC39F04CD1500E01014B194B
:102FD800D8A4E6D08F0E0001AF6FF00EB06F020ECE
:102FE800B16FD0EC3CF00DEC42F001014A51D8B47D
:102FF80056D07DEC41F0000E01012D6F280E2C6F8C
:103008002AC1A1F02BC1A2F0000E0001A46F640E2A
:10301800A36FF6EC3FF0300E0001A125A86F000E5B
:10302800A221A96FACEC33F0000E00019F6F640E73
:103038009E6F2AC19CF02BC19DF0B0EC40F09CC063
:10304800A1F09DC0A2F0000E0001A46F0A0EA36FAC
:10305800F6EC3FF0300E0001A125A86F000EA2216A
:10306800A96FACEC33F0000E0001A96F2E0EA86F0B
:10307800ACEC33F02AC19CF02BC19DF0000E00018E
:103088009F6F0A0E9E6FB0EC40F0300E00019C2539
:10309800A86F000E9D21A96FACEC33F071D0000E23
:1030A80001012D6F280E2C6FBBC192F0BCC193F0AB
:1030B800BDC194F0BEC195F0F6EC39F092C0A1F014
:1030C80093C0A2F0000E0001A46F640EA36FF6EC8B
:1030D8003FF0300E0001A125A86F000EA221A96FB4
:1030E800ACEC33F0000E00019F6F640E9E6FBBC105
:1030F80092F0BCC193F0BDC194F0BEC195F0F6EC5E
:1031080039F092C09CF093C09DF0B0EC40F09CC0A8
:10311800A1F09DC0A2F0000E0001A46F0A0EA36FDB
:10312800F6EC3FF0300E0001A125A86F000EA22199
:10313800A96FACEC33F0000E0001A96F2E0EA86F3A
:10314800ACEC33F0BBC192F0BCC193F0BDC194F0BC
:10315800BEC195F0F6EC39F092C09CF093C09DF09A
:10316800000E00019F6F0A0E9E6FB0EC40F0300E0B
:1031780000019C25A86F000E9D21A96FACEC33F0CF
:10318800000E01012D6F580E2C6F000E0001A96F63
:10319800410EA86FACEC33F0040E0AEC3FF061D09E
:1031A8006E0E01014B19D8A420D0230E0001AF6F79
:1031B800F00EB06F020EB16FD0EC3CF04350D8B4B3
:1031C8000AD01C0E0001AF6FF00EB06F040EB16F85
:1031D800D0EC3CF046D0EA0E0001AF6FEF0EB06FB6
:1031E800040EB16FD0EC3CF03CD0780E01014B19C5
:1031F800D8A420D04C0E0001AF6FF00EB06F020EB5
:10320800B16FD0EC3CF04250D8B40AD0FC0E0001AB
:10321800AF6FEF0EB06F040EB16FD0EC3CF021D061
:10322800EA0E0001AF6FEF0EB06F040EB16FD0EC75
:103238003CF017D05A0E01014B19D8A412D0800EB9
:103248000001AF6FF00EB06F020EB16FD0EC3CF022
:103258007B0E0001AF6FF00EB06F040EB16FD0ECB3
:103268003CF0020E0101426F33C01CF134C01DF165
:1032780035C01EF136C01FF1080E0001FC6FEFC00B
:10328800F3F1000EFA6F1200B10E0001D36F000EB9
:10329800D46FE6EF1EF0250EE919D8B405D0E95130
:1032A80092EC42F0E6EF1EF0000E0001E66F000E11
:1032B800E56F000EE46F000EE36F04D00001E385B4
:1032C800AF4BB02BAFC0F6FFB0C0F7FFF86A0800ED
:1032D800F550300AD8B4F2D7AFC0F6FFB0C0F7FF48
:1032E800F86A0800F5503FEC42F0D8A036D0000E3E
:1032F8000001E66F000EE56FE5C01DF0E6C01EF0A8
:10330800000E206E0A0E1F6EE9EC41F01DC0E5F0BC
:103318001EC0E6F0D00E0001C76FFF0EC86FAFC029
:10332800F6FFB0C0F7FFF86A0800F550C96FCA6B1E
:10333800C751C927C851CA23C951E527CA51E6232D
:10334800AF4BB02BAFC0F6FFB0C0F7FFF86A08006C
:10335800F5503FEC42F0D8B0CFD7AFC0F6FFB0C0C1
:10336800F7FFF86A0800F5502E0AD8A432D00001F9
:10337800E48DAF4BB02B000EE86F000EE76F1DD049
:10338800E7C01DF0E8C01EF0000E206E0A0E1F6E8A
:10339800E9EC41F0AFC0F6FFB0C0F7FFF86A0800EB
:1033A800F5501D26000E1E22D00E1D240001E76FC9
:1033B800FF0E1E20E86FAF4BB02BAFC0F6FFB0C0BA
:1033C800F7FFF86A0800F5503FEC42F0D8A05ED04D
:1033D800D7D7000E0001E86F000EE76FE48956D0DA
:1033E800E48573D0E751E811D8B40AD0D151E75D2C
:1033F800D251E859D8B004D0E7C0D1F0E8C0D2F033
:10340800E551D15DE651D259D8B005D0D151E55F2B
:10341800D251E65B08D0000EE66F000EE56F03D0D0
:10342800200E92EC42F00001E507D8A0E607E52956
:10343800F7E1E629D8B40BD0F3D7CFC0D9FFD0C075
:10344800DAFFDF5092EC42F00001CF4BD02BD107CE
:10345800D8A0D207D129F1E1D229D8B4E6EF1EF0DD
:10346800ECD7D3C0D9FFD4C0DAFFDF50E96F020E22
:10347800D327000ED423E90ECF6F000ED06F000EB5
:10348800D26F010ED16FAED7E38D1FD0AFC0F6FF5C
:10349800B0C0F7FF0001AF4BB02BF86A0800F5CFBA
:1034A800E9F0E951000AD8B41200630AD8B4D9D7B0
:1034B800070AD8B40AD0020AD8B492D70F0AD8B4E7
:1034C80004D01C0AD8B4E0D7D6D7070EE415D8B470
:1034D8003BD3E4A904D0000EE86F060EE76FD3C013
:1034E800D9FFD4C0DAFFDECFDFF0DECFE0F0DECFE9
:1034F800E1F0DECFE2F0040ED327000ED423E2AFD2
:1035080015D0DFC017F0E0C018F0E1C019F0E2C034
:103518001AF096EC41F017C0DFF018C0E0F019C0BF
:10352800E1F01AC0E2F0030E0001E313000EDE6FB3
:10353800000EDD6FDF51E011E111E211D8B482D045
:10354800E135E235820FDD6FDE6BFF0EDE23DD072E
:10355800D8A0DE07DDC01DF0DEC01EF0000E206E14
:10356800030E1F6EE9EC41F01DC0DDF01EC0DEF059
:10357800DDC017F0DEC018F0000E1A6E0A0E196EC4
:1035880066EC3DF017C0DDF018C0DEF00001DEAFDC
:1035980003D0DD07D8A0DE07DD510008EFEC26F0E8
:1035A800A2C0D5F0A3C0D6F0A4C0D7F0A5C0D8F06B
:1035B800D5C01FF0D6C020F0D7C021F0D8C022F067
:1035C800DFC023F0E0C024F0E1C025F0E2C026F01F
:1035D80067EC2BF01FC0D5F020C0D6F021C0D7F083
:1035E80022C0D8F0D5C025F0D6C026F0D7C027F025
:1035F800D8C028F0000E296E000E2A6E800E2B6EA1
:103608003F0E2C6E66EC37F0D8B005D00001DD0710
:10361800D8A0DE0717D0D5C025F0D6C026F0D7C071
:1036280027F0D8C028F0000E296E000E2A6E200E52
:103638002B6E410E2C6E66EC37F0D8A003D000013B
:10364800DD4BDE2B0001E8BF06D0E85121E10D0E6D
:10365800E75DD8B01DD0DFC02BF0E0C02CF0E1C092
:103668002DF0E2C02EF0E7513DEC30F0A2C02FF073
:10367800A3C030F0A4C031F0A5C032F010EC2DF09A
:103688002BC0DFF02CC0E0F02DC0E1F02EC0E2F03E
:103698000001DEBF06D0DE5122E10A0EDD5DD8B0A2
:1036A8001ED0DF51E011E111E211D8B463D0DFC0C0
:1036B80092F0E0C093F0E1C094F0E2C095F0F6EC2F
:1036C80039F000019251931194119511D8B4DEBFCD
:1036D80051D0DE5104E1020EDD5DD8A04BD0D5C03B
:1036E80025F0D6C026F0D7C027F0D8C028F05F0E46
:1036F800296E700E2A6E890E2B6E400E2C6E66ECAB
:1037080037F0D8B003D00001F70E02D00001F80E50
:10371800DD27FF0EDE23DD51EFEC26F0A2C0D5F049
:10372800A3C0D6F0A4C0D7F0A5C0D8F0DFC017F06A
:10373800E0C018F0E1C019F0E2C01AF0D5C01BF0E3
:10374800D6C01CF0D7C01DF0D8C01EF03FEC36F034
:1037580017C0D9F018C0DAF019C0DBF01AC0DCF0D5
:10376800000E0001DF6F000EE06F000EE16F000E2B
:10377800E26F3CD0DFC092F0E0C093F0E1C094F07B
:10378800E2C095F0F6EC39F092C0D9F093C0DAF0C7
:1037980094C0DBF095C0DCF0DFC079F0E0C07AF0CF
:1037A800E1C07BF0E2C07CF0D9C017F0DAC018F0B5
:1037B800DBC019F0DCC01AF0000E5DEC34F017C065
:1037C8007DF018C07EF019C07FF01AC080F069EC57
:1037D80040F079C0DFF07AC0E0F07BC0E1F07CC057
:1037E800E2F0000E0001DE6F000EDD6F010EE96FE2
:1037F8000A0EE919D8B41BD0E951040DA00EF32420
:10380800F66EED0EF420F76EF86A000EF822090045
:10381800F550D95D0900F550DA590900F550DB5922
:103828000900F550DC59D8A002D0E92BE1D7E9C04E
:10383800C7F0C86BC7BFC807E751C727E851C823F7
:10384800DD51C727DE51C823C751E55FC851E65B84
:10385800E751E811D8B403D0E507D8A0E607030E6E
:10386800E315C76F000EE415C86FC751C811D8B467
:1038780003D0E507D8A0E607E3A525D0030EE31596
:10388800C76F000EE415C86FC751C811D8B40BD064
:103898002D0E92EC42F007D0300E92EC42F000016F
:1038A800E507D8A0E6070001E6BF6BD0E651F4E1D2
:1038B800E505D8A066D0F0D7200E92EC42F00001C2
:1038C800E507D8A0E607E6BF05D0E651F5E1E5052E
:1038D800D8B0F2D7030EE315C76F000EE415C86F12
:1038E800C751C811D8B44DD02D0E92EC42F049D032
:1038F800D9C017F0DAC018F0DBC019F0DCC01AF034
:103908000001E951040DA00EF324F66EED0EF4202B
:10391800F76EF86A000EF8220900F5CF1BF00900CF
:10392800F5CF1CF00900F5CF1DF00A00F5CF1EF009
:10393800A8EC3DF017C0D5F018C0D6F019C0D7F0E4
:103948001AC0D8F0D5C024F0D6C025F0D7C026F0CC
:10395800D8C027F00A0E286E000E296E000E2A6EB7
:10396800000E2B6E3FEC3FF024C0D5F025C0D6F0FA
:1039780026C0D7F027C0D8F00001D551300F92ECFF
:1039880042F00001E907E929D8B408D0B1D7300ED0
:1039980092EC42F00001DD07D8A0DE07DEBF05D0BB
:1039A800DE51F5E1DD05D8B0F2D7E8BF09D0E8511E
:1039B80004E1090EE75DD8A003D0080EE96F02D034
:1039C800E7C0E9F0E951E75F000EE9BFFF0EE85BE9
:1039D800E951D8B403D02E0E92EC42F00001E9511F
:1039E800EFEC26F0A2C0CBF0A3C0CCF0A4C0CDF081
:1039F800A5C0CEF0DFC023F0E0C024F0E1C025F080
:103A0800E2C026F0CBC01FF0CCC020F0CDC021F022
:103A1800CEC022F067EC2BF01FC092F020C093F0CC
:103A280021C094F022C095F0F6EC39F092C0D9F09C
:103A380093C0DAF094C0DBF095C0DCF073D0D9C045
:103A480017F0DAC018F0DBC019F0DCC01AF000017A
:103A5800E951040DA00EF324F66EED0EF420F76E76
:103A6800F86A000EF8220900F5CF1BF00900F5CF1F
:103A78001CF00900F5CF1DF00A00F5CF1EF0A8ECE8
:103A88003DF017C0D5F018C0D6F019C0D7F01AC04D
:103A9800D8F0D5C024F0D6C025F0D7C026F0D8C0BD
:103AA80027F00A0E286E000E296E000E2A6E000EF0
:103AB8002B6E3FEC3FF024C0D5F025C0D6F026C0D1
:103AC800D7F027C0D8F00001D551300F92EC42F062
:103AD800D9C024F0DAC025F0DBC026F0DCC027F01E
:103AE8000001E951040DA00EF324F66EED0EF4204A
:103AF800F76EF86A000EF8220900F5CF28F00900E1
:103B0800F5CF29F00900F5CF2AF00A00F5CF2BF000
:103B18003FEC3FF024C0D9F025C0DAF026C0DBF036
:103B280027C0DCF00001E907E929D8B408D087D715
:103B3800300E92EC42F00001E707D8A0E807E75101
:103B4800E811D8B43FD1F4D7E3BD1ED0D3C0D9FF14
:103B5800D4C0DAFFDECFD9F0DDCFDAF0000EDABF5D
:103B6800FF0EDB6FDC6F020ED327000ED423DCAF11
:103B78001DD0030EE313DC1FDB1FDA1FD96D000E07
:103B8800DA23DB23DC2312D0D3C0D9FFD4C0DAFF79
:103B9800DECFC7F0DDCFC8F0C7C0D9F0C8C0DAF0B3
:103BA800DB6BDC6B020ED327000ED423E751E81140
:103BB800D8A408D0D951DA11DB11DC11D8A402D06D
:103BC800E74BE82B010EE96F0A0EE919D8B41BD0B0
:103BD800E951040DA00EF324F66EED0EF420F76EF5
:103BE800F86A000EF8220900F550D95D0900F55071
:103BF800DA590900F550DB590900F550DC59D8A00D
:103C080002D0E92BE1D7800EE9BF7F0EC76FE751DD
:103C1800E95DE851800AC759D8B003D0E7C0E9F098
:103C280010D0E851800AC76FE951E75D800EE9BFFF
:103C38007F0EC759D8B005D0E951E76FE86BE7BFE9
:103C4800E807E551E611D8B40DD0030EE315C76FA8
:103C5800000EE415C86FC751C811D8B403D0E507E2
:103C6800D8A0E607E4AD13D0E551E75DE851800A36
:103C7800C76FE651800AC759D8B005D0E751E55F4C
:103C8800E851E65B04D0000EE66F000EE56F800E8B
:103C9800E9BF7F0EC76FE551E95DE651800AC75954
:103CA800D8B007D0E951E55F000EE9BFFF0EE65B2B
:103CB80004D0000EE66F000EE56FE3A51AD0030EE0
:103CC800E315C76F000EE415C86FC751C811D8B403
:103CD80003D02D0E92EC42F00001E551E611D8B464
:103CE80068D0300E92EC42F00001E507D8A0E60754
:103CF800F4D7E551E611D8B40BD0200E92EC42F07F
:103D08000001E507D8A0E607E551E611D8A4F5D7E4
:103D1800030EE315C76F000EE415C86FC751C8112D
:103D2800D8B447D02D0E92EC42F043D0E7C0C7F08C
:103D3800E8C0C8F00001D890C737C837D890C7374F
:103D4800C837A00EC725F66EED0EC821F76EF86AC3
:103D5800000EF8220900F5CF1BF00900F5CF1CF082
:103D68000900F5CF1DF00A00F5CF1EF0D9C017F0F5
:103D7800DAC018F0DBC019F0DCC01AF0A8EC3DF08E
:103D880017C024F018C025F019C026F01AC027F073
:103D98000A0E286E000E296E000E2A6E000E2B6E7B
:103DA8003FEC3FF02450300F0001E96FE95192ECED
:103DB80042F00001E707D8A0E807E729B7E1E829BA
:103DC800D8A4B4D7AFC0F6FFB0C0F7FF0001AF4B1F
:103DD800B02BF86A0800F5CFE9F0E951D8B4120021
:103DE8004FEF19F001014B51D8B40BD00001FA2B59
:103DF800790EFA19D8A41200000E01014B6FF6ECE7
:103E080037F00A0E0001FA19D8A402D0000EFA6F92
:103E18003950D8B4C4D080863C0E01014D6F39A208
:103E280021D0850E0001AF6FFB0EB06F000EE9ECDC
:103E38003DF0F00E0001AF6FFA0EB06F020EE9EC24
:103E48003DF0900E0001AF6FFC0EB06F040EE9EC70
:103E58003DF02E0E0001AF6FFC0EB06F060EE9ECC0
:103E68003DF0120039A411D0960E0001AF6FFC0E80
:103E7800B06F020EE9EC3DF01C0E0001AF6FFB0EB7
:103E8800B06F040EE9EC3DF08AD039A848D00001A3
:103E9800FA2BFA05B26F050EB26120D07C0EAF6F17
:103EA800FB0EB06F000EE9EC3DF0A80E0001AF6FFD
:103EB800FC0EB06F020EE9EC3DF0E70E0001AF6FAB
:103EC800FB0EB06F040EE9EC3DF06A0E0001AF6F17
:103ED800FB0EB06F060EE9EC3DF012009C0E0001DF
:103EE800AF6FFC0EB06F000EE9EC3DF0350E00012F
:103EF800AF6FFC0EB06F020EE9EC3DF0940E0001BE
:103F0800AF6FFB0EB06F040EE9EC3DF0A20E00019E
:103F1800AF6FFC0EB06F060EE9EC3DF0120039AC45
:103F28003ED0EF0E0001AF6FFB0EB06F020EE9EC52
:103F38003DF0DA0E0001AF6FFA0EB06F040EE9EC37
:103F48003DF0000E01012D6F640E2C6FF9C017F0C3
:103F5800186A000E1A6E0A0E196E66EC3DF0300EE5
:103F680017240001A86F000E1820A96FACEC33F0DD
:103F7800F9C09CF000019D6B000E9F6F0A0E9E6FAA
:103F88009AEC3EF0300E00019C25A86F000E9D2192
:103F9800A96FACEC33F0040E0AEC3FF01200500E9F
:103FA8000001F919D8A410D0EF0EAF6FFB0EB06F57
:103FB800020EE9EC3DF03C0E0001AF6FFC0EB06F55
:103FC800040EE9EC3DF012000001FA2B4750D8A48A
:103FD800A6D0030E4818D8A465D0730EAF6FFB0E99
:103FE800B06F020EE9EC3DF0000E01012D6F220EBC
:103FF8002C6F0DEC42F008C117F009C118F0000E43
:104008001A6E640E196E66EC3DF0300E172400012E
:10401800A86F000E1820A96FACEC33F0000E1A6ED2
:104028000A0E196E08C117F009C118F066EC3DF0C8
:1040380017C09CF018C09DF0000E00019F6F0A0E7B
:104048009E6F9AEC3EF0300E00019C25A86F000E82
:104058009D21A96FACEC33F0000E0001A96F2E0E64
:10406800A86FACEC33F008C19CF009C19DF0000EBC
:1040780000019F6F0A0E9E6F9AEC3EF0300E000111
:104088009C25A86F000E9D21A96FACEC33F0000EA3
:104098000001A96F410EA86FACEC33F0040E0AECD6
:1040A8003FF03BD3000E1C6E000EFCEC41F0040EFA
:1040B8001C6E010EFCEC41F001014451D8A403D060
:1040C8004350D8A411D08E0E0001AF6FFB0EB06F15
:1040D800020EE9EC3DF0580E0001AF6FFB0EB06F19
:1040E800040EE9EC3DF010D0820E0001AF6FFC0E1B
:1040F800B06F020EE9EC3DF0270E0001AF6FFC0E29
:10410800B06F040EE9EC3DF0100E1C6E060EFCECD0
:1041180041F0000E1C6E070EFCEC41F0FED2470485
:10412800D8B404D0020E4718D8A4F7D211EC41F045
:104138000001F8AF08D0030E0101F25F140EF2611E
:104148000AD02C0E07D0030E0101F2272C0EF265BF
:1041580002D0140EF26FF2C12CF12D6B000ECC6F51
:10416800030ECB6FF7C0A2F0F8C0A3F0ADEC41F09E
:104178000001A3BF0CD0A35104E1040EA25DD8A096
:1041880006D0000EA76FFE0EA66F8AEC3BF0030E5A
:104198004818D8A45AD080863C0E01014D6F030EF2
:1041A800F127590EF16502D04A0EF16FF1C12CF1D9
:1041B8002D6B000ECC6F030ECB6F000E0001A76FA6
:1041C800FE0EA66F8AEC3BF0000E0101CC6F020ECA
:1041D800CB6F000E2D6F4D0E2C6F08C117F009C163
:1041E80018F0000E1A6E640E196E66EC3DF0300E73
:1041F80017240001A66F000E1820A76F8AEC3BF069
:10420800000E1A6E0A0E196E08C117F009C118F0CF
:1042180066EC3DF017C09CF018C09DF0000E000140
:104228009F6F0A0E9E6F9AEC3EF0300E00019C259F
:10423800A66F000E9D21A76F8AEC3BF0000E0001CF
:10424800A76F410EA66F8AEC3BF0050E0001FA61DC
:10425800B8D0020E4718D8A4B4D0000E01012D6FB3
:104268001D0E2C6F000ECC6F010ECB6F000E0001DF
:10427800A76FE30EA66F8AEC3BF0000E0101CC6F2E
:10428800020ECB6FF7C0A2F0F8C0A3F0ADEC41F07E
:104298000001A3BF33D0E90EA25D030EA359D8A035
:1042A8002DD0000E01012D6F110E2C6F0001F8AFFB
:1042B80006D0000EA76F2D0EA66F8AEC3BF0000EFD
:1042C80001012D6F170E2C6FF7C017F0F8C018F00A
:1042D800030E1A6EE80E196E66EC3DF017C0A2F0D8
:1042E80018C0A3F0ADEC41F0300E0001A225A66F76
:1042F800000EA321A76F8AEC3BF00ED0000E01013F
:104308002D6F170E2C6F0001F8AF06D0000EA76FA7
:104318002D0EA66F8AEC3BF0000E01012D6F1D0ECD
:104328002C6F000E1A6E640E196EF7C017F0F8C0E5
:1043380018F066EC3DF017C09CF018C09DF0000E18
:1043480000019F6F0A0E9E6F9AEC3EF09CC0A2F08F
:104358009DC0A3F0ADEC41F0300E0001A225A66F80
:10436800000EA321A76F8AEC3BF0000E1A6E0A0E0E
:10437800196EF7C017F0F8C018F066EC3DF017C0DA
:104388009CF018C09DF0000E00019F6F0A0E9E6FF2
:104398009AEC3EF09CC0A2F09DC0A3F0ADEC41F0B9
:1043A800300E0001A225A66F000EA321A76F8AEC8C
:1043B8003BF0000E0001A76F410EA66F8AEC3BF0A0
:1043C800A4D0000E0001B66F020EB66501D09DD0D4
:1043D800B6C0CBF10101CC6B000E2D6F170E2C6F00
:1043E8000001B651040DBB0EF324D96E010EF42062
:1043F800DA6E030EDBAE07D0000EA76F2D0EA66F88
:104408008AEC3BF005D0000E01012D6F1D0E2C6FBC
:10441800000E00017D6F000E7E6FC80E7F6F420E8A
:10442800806FB651040DBB0EF324D96E010EF42033
:10443800DA6EDECF79F0DECF7AF0DECF7BF0DECF3A
:104448007CF09BEC31F079C092F07AC093F07BC09D
:1044580094F07CC095F0F6EC39F092C0A2F093C0CD
:10446800A3F0ADEC41F0300E0001A225A66F000EBE
:10447800A321A76F8AEC3BF0000E00017D6F000EB0
:104488007E6F200E7F6F410E806FB651040DBB0EFC
:10449800F324D96E010EF420DA6EDECF79F0DECF88
:1044A8007AF0DECF7BF0DECF7CF09BEC31F079C088
:1044B80092F07AC093F07BC094F07CC095F0F6EC53
:1044C80039F092C09CF093C09DF0000E00019F6FE0
:1044D8000A0E9E6F9AEC3EF09CC0A2F09DC0A3F01D
:1044E800ADEC41F0300E0001A225A66F000EA3210D
:1044F800A76F8AEC3BF0000E0001A76F410EA66F74
:104508008AEC3BF00001B62B5FD7000E0BEC39F0BC
:10451800000E1C6E040EFCEC41F039A015D0050EFF
:104528000001FA6108D0DF0EAF6FFB0EB06F050E09
:10453800E9EC3DF0EDD0300E0001AF6FFB0EB06F2F
:10454800050EE9EC3DF0E4D039AA15D0050E0001BE
:10455800FA6108D0DF0EAF6FFB0EB06F050EE9EC05
:104568003DF0D6D0260E0001AF6FFB0EB06F050EE2
:10457800E9EC3DF0CDD04804D8B404D0020E481878
:10458800D8A439D0AE0E0001AF6FFC0EB06F050E87
:10459800E9EC3DF03750D8B4BBD0000E01012D6FC7
:1045A800640E2C6F37C017F0186A000E1A6E0A0EC8
:1045B800196E66EC3DF0300E17240001A86F000E4E
:1045C8001820A96FACEC33F037C09CF000019D6B4C
:1045D800000E9F6F0A0E9E6F9AEC3EF0300E00019F
:1045E8009C25A86F000E9D21A96FACEC33F0050E39
:1045F8000AEC3FF08DD0030E4818D8A489D08086E5
:104608003C0E01014D6F070E0001FA6124D0040E23
:10461800FA6118D04750D8B415D0020E4718D8A45C
:1046280008D02A0EAF6FFB0EB06F050EE9EC3DF017
:104638006CD0D20E0001AF6FFC0EB06F050EE9EC26
:104648003DF063D0730E0001AF6FFB0EB06F050E27
:10465800E9EC3DF05AD0000E01012D6F220E2C6FAF
:104668000DEC42F008C117F009C118F0000E1A6EDF
:10467800640E196E66EC3DF0300E17240001A86F29
:10468800000E1820A96FACEC33F0000E1A6E0A0E5B
:10469800196E08C117F009C118F066EC3DF017C093
:1046A8009CF018C09DF0000E00019F6F0A0E9E6FCF
:1046B8009AEC3EF0300E00019C25A86F000E9D215B
:1046C800A96FACEC33F0000E0001A96F2E0EA86F95
:1046D800ACEC33F008C19CF009C19DF0000E00015C
:1046E8009F6F0A0E9E6F9AEC3EF0300E00019C25DB
:1046F800A86F000E9D21A96FACEC33F0000E0001ED
:10470800A96F410EA86FACEC33F0050E0AEC3FF030
:10471800000E1C6E070EFCEC41F001014D51D8B49F
:1047280002D04D071200809612000101E36F000EBF
:104738000101E96F000EE86F000EDE6F000EDD6FFD
:10474800000EDC6F000EDB6F18C1D7F119C1D8F16C
:104758001AC1D9F11BC1DAF14450D8A412D0010E04
:10476800EA6F030EEA6501D00CD0EA51010D240E60
:10477800F324D96E010EF420DA6E000EDF6EEA2BF8
:10478800F0D7020E2419D8A411D03E503E5D3F50F8
:104798003F59D8B00BD03EC11DF03FC11EF0000EEE
:1047A800206E0A0E1F6EE9EC41F00AD03EC01DF0E3
:1047B8003FC01EF0000E206E0A0E1F6EE9EC41F09D
:1047C8001DC03CF11EC03DF1020E446004D03CC146
:1047D80000F13DC101F1000E0101EA6F030EEA6527
:1047E80001D028D0EA51010D240EF324D96E010E10
:1047F800F420DA6E020EDE18D8A41AD0E84BE92BA2
:10480800EA51020D000EF324D96E010EF420DA6E7F
:10481800DE50DD27DD50DE23EA51020D080EF324B9
:10482800D96E010EF420DA6EDE50DB27DD50DC2372
:10483800EA2BD4D7E351D8A445D0020E4718D8B4F0
:1048480041D03AC1EAF03BC1EBF00001EA1FEB1F8F
:10485800EA4BEB2B40C01DF041C01EF0000E206E4D
:104868000A0E1F6EE9EC41F00001EA511D24010116
:10487800E46F0001EB511E200101E56FE5BF14D084
:10488800E55103E1E405D8A00FD0E4C117F0E5C174
:1048980018F0000E1A6E040E196E66EC3DF01750F3
:1048A8000001F527185007D00101E4510001F52750
:1048B8000101E5510001F623F6AF04D0000EF66FB2
:1048C800000EF56F0101E351D8A46DD0020E471810
:1048D800D8A469D00001F8AF19D0F8AF0CD0F60E03
:1048E800F75DFF0EF859D8B006D0050EF525F56F1F
:1048F800000EF6211FD0F7C017F0F8C018F0000E10
:104908001A6E040E196E66EC3DF00AD0F7C017F067
:10491800F8C018F0000E1A6E020E196E66EC3DF023
:10492800171E181E174A182A0001F5511724F56F8B
:10493800F6511820F66F3CC01DF03DC01EF0000E69
:10494800206E0A0E1F6EE9EC41F01D500001F55D66
:104958001E50F659D8A002D0F6AF22D03CC01DF0A8
:104968003DC01EF0000E206E0A0E1F6EE9EC41F0ED
:104978001DC0F5F01EC0F6F0030E4818D8A410D0DC
:104988000101CD51CE11D8B40BD00001F8BF08D029
:10499800F85104E10B0EF75DD8A002D0010E01D04A
:1049A800000E0101436F3EC01DF03FC01EF0000E17
:1049B800206E0A0E1F6EE9EC41F00001F5511D5CF6
:1049C800F6511E58D8B00ED03EC01DF03FC01EF0A4
:1049D800000E206E0A0E1F6EE9EC41F01DC0F5F0C6
:1049E8001EC0F6F0DBC11DF0DCC11EF0000E206E0B
:1049F8000A0E1F6EE9EC41F01D1E1E1E1D4A1E2ADE
:104A080001013A511D24E66F3B511E20E76FE7AFC5
:104A180004D0000EE76F000EE66F4750D8A41CD0F4
:104A28004450D8B40BD040C01DF041C01EF0000E59
:104A3800206E0A0E1F6EE9EC41F00AD03CC11DF051
:104A48003DC11EF0000E206E0A0E1F6EE9EC41F00B
:104A58001DC0F5F01EC0F6F00101E851E911D8B407
:104A68001200E351D8B41AD0E6C1EAF0E7C1EBF07E
:104A78000001EA1FEB1FEA4BEB2B40C01DF041C0C1
:104A88001EF0000E206E0A0E1F6EE9EC41F00001C8
:104A9800EA511D24F56FEB511E20F66F0001F6BF99
:104AA8001FD03CC01DF03DC01EF0E8C11FF0E9C199
:104AB80020F0E9EC41F01DC0DFF11EC0E0F1DFC1DC
:104AC8001DF0E0C11EF0000E206E0A0E1F6EE9EC0C
:104AD80041F01D500001F55D1E50F659D8B026D0A2
:104AE8000101492B3A0E0001AF6FFA0EB06F48EC86
:104AF80019F03CC01DF03DC01EF0E8C11FF0E9C12F
:104B080020F0E9EC41F01DC0DFF11EC0E0F1DFC18B
:104B18001DF0E0C11EF0000E206E0A0E1F6EE9ECBB
:104B280041F01DC0F5F01EC0F6F003D0000E0101E3
:104B3800496F0001F5510101DD5DDE51800A000178
:104B4800EA6FF651800AEA59D8B004D0DDC1F5F011
:104B5800DEC1F6F0F5C0E1F1F6C0E2F17A0EAF6F12
:104B6800F50EB06F3AC1B1F03BC1B2F0F5C0B3F089
:104B7800F6C0B4F0E6C1B5F0E7C1B6F048EC19F0FC
:104B8800000E0101EA6FE1C117F0E2C118F0E8C1B7
:104B980019F0E9C11AF066EC3DF017C0D1F118C060
:104BA800D2F10101EA51010D240EF324D96E010E50
:104BB800F420DA6E020EDE18D8A44FD0EA51010DA7
:104BC800D70EF324D96E010EF420DA6EDF50D8A484
:104BD80044D0EA51020D000EF324D96E010EF420E0
:104BE800DA6EDE50D15DD251800A0001EC6FDE50E2
:104BF800800AEC59D8A031D00101EA51020D000E0B
:104C0800F324D96E010EF420DA6EEA51020D080E73
:104C1800F324E16E010EF420E26EDECFE6FFDDCF75
:104C2800E5FFEA51010DD70EF324D96E010EF420E9
:104C3800DA6E010EDF6EE807D8A0E907EA51020D27
:104C4800080EF324D96E010EF420DA6EDE50E15F0F
:104C5800DD50E25B000EEA6F02D00101EA2B040E80
:104C6800EA6104D0E851E911D8A48DD7000EEA6FA3
:104C7800E851E911D8B44FD0EA51010D240EF324BC
:104C8800D96E010EF420DA6E020EDE18D8A43BD0DD
:104C9800EA51010DD70EF324D96E010EF420DA6E15
:104CA800DF50D8A430D0E1C117F0E2C118F0E8C154
:104CB80019F0E9C11AF066EC3DF00101EA51020D64
:104CC800080EF324D96E010EF420DA6E17C0DEFF49
:104CD80018C0DDFFEA51010DD70EF324D96E010E7D
:104CE800F420DA6E010EDF6EE807D8A0E907EA5172
:104CF800020D080EF324D96E010EF420DA6EDE5090
:104D0800E15FDD50E25BEA2B040EEA6104D0E85172
:104D1800E911D8A4B1D7000EEA6F030EEA6501D0F5
:104D280052D0EA51020D080EF324D96E010EF42078
:104D3800DA6EDECF17F0DDCF18F0000E1A6E0A0E0D
:104D4800196E66EC3DF017C0D3F118C0D4F101011B
:104D5800EA51020D080EF324D96E010EF420DA6E22
:104D6800DECF9CF0DDCF9DF0000E00019F6F0A0E94
:104D78009E6F9AEC3EF09CC0D5F19DC0D6F1E00E36
:104D88000001AF6FF90EB06FEAC1B1F0B26B01016B
:104D9800EA51010D240EF324D96E010EF420DA6EC7
:104DA800DF500001EA6FEA51B36FB46BD3C1B5F0BD
:104DB800D4C1B6F0D5C1B7F0D6C1B8F048EC19F0F7
:104DC8000101EA2BAAD7460E0001AF6FFA0EB06FA9
:104DD80048EC19F012000001AA6F0001AAAF26D111
:104DE800AA6DAA51800A120FD8A0A4D0000E1A6E7C
:104DF8000A0E196E000E9F6F640E9E6FAA519C6F6B
:104E08009D6B9CBF9D079AEC3EF09CC017F09DC01F
:104E180018F066EC3DF0D89017361836D89017364B
:104E28001836240E1726000E18226C0E1724F66E5C
:104E3800ED0E1820F76EF86A000EF8220900F5CF7B
:104E480023F00900F5CF24F00900F5CF25F00A007A
:104E5800F5CF26F0000E1A6E640E196E0001AA51E5
:104E6800176E186A17BE180666EC3DF0D89017360C
:104E78001836D89017361836480E1726000E1822FE
:104E88006C0E1724F66EED0E1820F76EF86A000EF9
:104E9800F8220900F5CF1FF00900F5CF20F009002E
:104EA800F5CF21F00A00F5CF22F067EC2BF01FC0F8
:104EB800A6F020C0A7F021C0A8F022C0A9F0A6C083
:104EC8001FF0A7C020F0A8C021F0A9C022F0000E52
:104ED80000019F6F0A0E9E6FAA519C6F9D6B9CBF2D
:104EE8009D079AEC3EF00001D8909C379D37D890EA
:104EF8009C379D376C0E9C25F66EED0E9D21F76E46
:104F0800F86A000EF8220900F5CF23F00900F5CF62
:104F180024F00900F5CF25F00A00F5CF26F067EC5C
:104F28002BF01FC0A2F020C0A3F021C0A4F022C023
:104F3800A5F012000001AA51800A750FD8A05DD013
:104F4800000E1A6E0A0E196EAA51176E186A17BE4D
:104F5800180666EC3DF0D89017361836D8901736F4
:104F68001836240E1726000E18226C0E1724F66E1B
:104F7800ED0E1820F76EF86A000EF8220900F5CF3A
:104F88001FF00900F5CF20F00900F5CF21F00A0045
:104F9800F5CF22F0000E00019F6F0A0E9E6FAA51F6
:104FA8009C6F9D6B9CBF9D079AEC3EF00001D890CA
:104FB8009C379D37D8909C379D376C0E9C25F66E94
:104FC800ED0E9D21F76EF86A000EF8220900F5CF64
:104FD80023F00900F5CF24F00900F5CF25F00A00E9
:104FE800F5CF26F067EC2BF01FC0A2F020C0A3F08D
:104FF80021C0A4F022C0A5F012000001AA51040D9E
:105008006C0EF324F66EED0EF420F76EF86A000EBF
:10501800F8220900F5CFA2F00900F5CFA3F00900A6
:10502800F5CFA4F00A00F5CFA5F01200AA51800A26
:10503800120FD8A0A4D0000E1A6E0A0E196E000E18
:105048009F6F640E9E6FAA519C6F9D6B9CBF9D07BE
:105058009AEC3EF09CC017F09DC018F066EC3DF04D
:10506800D89017361836D89017361836240E1726C3
:10507800000E1822380E1724F66EED0E1820F76E63
:10508800F86A000EF8220900F5CF23F00900F5CFE1
:1050980024F00900F5CF25F00A00F5CF26F0000E20
:1050A8001A6E640E196E0001AA51176E186A17BE9F
:1050B800180666EC3DF0D89017361836D890173693
:1050C8001836480E1726000E1822380E1724F66ECA
:1050D800ED0E1820F76EF86A000EF8220900F5CFD9
:1050E8001FF00900F5CF20F00900F5CF21F00A00E4
:1050F800F5CF22F067EC2BF01FC0A6F020C0A7F078
:1051080021C0A8F022C0A9F0A6C01FF0A7C020F0B7
:10511800A8C021F0A9C022F0000E00019F6F0A0E5E
:105128009E6FAA519C6F9D6B9CBF9D079AEC3EF0A9
:105138000001D8909C379D37D8909C379D37380E02
:105148009C25F66EED0E9D21F76EF86A000EF8228A
:105158000900F5CF23F00900F5CF24F00900F5CFB9
:1051680025F00A00F5CF26F067EC2BF01FC0A2F05F
:1051780020C0A3F021C0A4F022C0A5F012000001B5
:10518800AA51800A750FD8A05DD0000E1A6E0A0EBB
:10519800196EAA51176E186A17BE180666EC3DF00C
:1051A800D89017361836D89017361836240E172682
:1051B800000E1822380E1724F66EED0E1820F76E22
:1051C800F86A000EF8220900F5CF1FF00900F5CFA4
:1051D80020F00900F5CF21F00A00F5CF22F0000EEB
:1051E80000019F6F0A0E9E6FAA519C6F9D6B9CBF1A
:1051F8009D079AEC3EF00001D8909C379D37D890D7
:105208009C379D37380E9C25F66EED0E9D21F76E66
:10521800F86A000EF8220900F5CF23F00900F5CF4F
:1052280024F00900F5CF25F00A00F5CF26F067EC49
:105238002BF01FC0A2F020C0A3F021C0A4F022C010
:10524800A5F012000001AA51040D380EF324F66EE1
:10525800ED0EF420F76EF86A000EF8220900F5CF7B
:10526800A2F00900F5CFA3F00900F5CFA4F00A00D9
:10527800F5CFA5F01200000194519511D8B40CD0C7
:1052880094C0D9FF95C0DAFF92C0DEFF93C0DDFF5E
:1052980003D00001924B932B92C0D9FF93C0DAFF41
:1052A800DF50976F9751D6EC41F0D8B0F2D7000E87
:1052B8000001986F2D0E9719D8A403D0010E986F8E
:1052C80004D02B0E9719D8A402D0924B932B000E22
:1052D800976F000E9A6F000E9B6F000E9C6F000E6A
:1052E8009D6F000E996F98B90AD092C0D9FF93C0EC
:1052F800DAFF2E0EDE18D8A402D098893ED092C0CC
:10530800D9FF93C0DAFFDF503FEC42F0D8A038D085
:1053180000019883090E9719D8B42DD098B9990728
:10532800972B9AC017F09BC018F09CC019F09DC02D
:105338001AF00A0E1B6E000E1C6E000E1D6E000E7B
:105348001E6EA1EC3FF017C09AF018C09BF019C070
:105358009CF01AC09DF092C0D9FF93C0DAFFDF50CD
:105368000001966FD00E962796519A27000E9B2320
:105378009C239D2302D098A9992B924B932BB3D7AA
:10538800000E0001976F92C0D9FF93C0DAFF650E37
:10539800DE18D8B408D092C0D9FF93C0DAFF450E02
:1053A800DE18D8A462D0924B932B92C0D9FF93C039
:1053B800DAFF2D0EDE18D8A402D0988708D092C044
:1053C800D9FF93C0DAFF2B0EDE18D8A402D0924B77
:1053D800932B92C0D9FF93C0DAFF300EDE18D8B4F1
:1053E800F6D792C0D9FF93C0DAFFDF503FEC42F006
:1053F800D8A038D092C0D9FF93C0DAFFDF50D00FC1
:105408000001976F924B932B92C0D9FF93C0DAFF9C
:10541800DF503FEC42F0D8A025D092C0D9FF93C00E
:10542800DAFFDF500001966F97510A0DF350962569
:10543800D00F976F924B932B92C0D9FF93C0DAFF8E
:10544800DF503FEC42F0D8A00DD092C0D9FF93C0F6
:10545800DAFFDF500001966F97510A0DF350962539
:10546800D00F976F000198B7976D9751992794516E
:105478009511D8A498A308D094C0D9FF95C0DAFF95
:1054880092C0DEFF93C0DDFF9AC017F09BC018F0F2
:105498009CC019F09DC01AF0010E5DEC34F017C0E5
:1054A8009AF018C09BF019C09CF01AC09DF000013A
:1054B8009A519B119C119D11D8A409D0000E926F8E
:1054C800000E936F000E946F000E956F120099AF47
:1054D8006DD0996D1DD09AC079F09BC07AF09CC0B0
:1054E8007BF09DC07CF0F90E7D6F020E7E6F150E6D
:1054F8007F6F500E806F9BEC31F079C09AF07AC0C4
:105508009BF07BC09CF07CC09DF0F60E00019927B3
:105518009951800A760FD8A01DD0DDD79AC079F0AE
:105528009BC07AF09CC07BF09DC07CF0000E7D6F24
:10553800000E7E6F200E7F6F410E806F9BEC31F066
:1055480079C09AF07AC09BF07BC09CF07CC09DF03B
:10555800000199079951D8A4E1D79AC025F09BC0BA
:1055680026F09CC027F09DC028F0000E296E000E82
:105578002A6E800E2B6E000E2C6E66EC37F0D8B0BB
:1055880084D0000198A109D0000E926F000E936F8D
:10559800800E946F800E956F1200000E926F000EB1
:1055A800936F800E946F000E956F12009951800AC8
:1055B8007F0FD8B01ED069D09AC01FF09BC020F0D2
:1055C8009CC021F09DC022F0F90E236E020E246EBD
:1055D800150E256E500E266E67EC2BF01FC09AF044
:1055E80020C09BF021C09CF022C09DF0F60E000167
:1055F80099270A0E9961E0D71CD09AC01FF09BC06A
:1056080020F09CC021F09DC022F0000E236E000EF9
:10561800246E200E256E410E266E67EC2BF01FC0FF
:105628009AF020C09BF021C09CF022C09DF00001A0
:1056380099079951D8A4E1D7FF0E256EFF0E266E63
:105648007F0E276E7F0E286E9AC029F09BC02AF025
:105658009CC02BF09DC02CF066EC37F0D8B015D06C
:10566800000198A109D0000E926F000E936F800E72
:10567800946F800E956F1200000E926F000E936F5C
:10568800800E946F000E956F1200000198A112D041
:105698009AC017F09BC018F09CC019F09DC01AF072
:1056A80096EC41F017C09AF018C09BF019C09CF016
:1056B8001AC09DF09AC092F09BC093F09CC094F0E1
:1056C8009DC095F012002250800B0001606F22509F
:1056D8002224666F21BE66816651D8B40DD0662932
:1056E800D8A408D0000E1F6E000E206E000E216E8A
:1056F800000E226E218E08D0000E1F6E000E206E46
:10570800000E216E000E226E2650800B601B265064
:105718002624616F25BE61816151D8B40DD06129FD
:10572800D8A408D0000E236E000E246E000E256E3D
:10573800000E266E258E08D0000E236E000E246EF5
:10574800000E256E000E266E6151D8B403D0665146
:10575800D8A409D0000E1F6E000E206E000E216E18
:10576800000E226E120025501F02F3CF6BF0F4CF0B
:105778006CF06B51626F636B646B656B6C51676F38
:10578800686B696B6A6B24502002F3CF6BF0F4CF1F
:105798006CF06B516227000E6323642365236C5100
:1057A8006727000E682369236A2323502102F3CF59
:1057B8006BF0F4CF6CF06B516227000E6323642307
:1057C80065236C516727000E682369236A2364C028
:1057D80065F063C064F062C063F0626B235020021E
:1057E800F3CF6BF0F4CF6CF06B5162276C516323ED
:1057F800000E6423000E652324501F02F3CF6BF0C4
:10580800F4CF6CF06B5162276C516323000E642354
:10581800000E652364C065F063C064F062C063F085
:10582800626B23501F02F3CF6BF0F4CF6CF06B5117
:1058380062276C516323000E6423000E65232550F4
:105848002002F3CF6BF0F4CF6CF06B5167276C51EB
:105858006823000E6923000E6A2324502102F3CF27
:105868006BF0F4CF6CF06B5167276C516823000E16
:105878006923000E6A2325502102F3CF6BF0F4CF81
:105888006CF06B51276E6C51286E296A2A6A29C000
:105898002AF028C029F027C028F0276A2750672750
:1058A80028506823295069232A506A2362C027F0A8
:1058B80063C028F064C029F065C02AF0190E05D02D
:1058C800D8902A32293228322732E82EF9D72750A1
:1058D800672728506823295069232A506A2364C0FF
:1058E80065F063C064F062C063F0626B615166C0CA
:1058F80027F0286A2726000E2822820E27246B6F9D
:10590800FF0E28206C6F0FD0D8906737683769373B
:105918006A3765BF6781D890623763376437653700
:105928006B07D8A06C0769AFEFD7000E616F65AF42
:1059380016D0FF0E6215276EFF0E6315286EFF0E38
:105948006415296E7F0E65152A6E275028102910B8
:105958002A10D8A402D067A102D0010E616F61514C
:10596800D8B41FD0010E6727000E682369236A2365
:105978006AA117D067C027F068C028F069C029F06D
:105988006AC02AF02A342A3229322832273227C01C
:1059980067F028C068F029C069F02AC06AF06B4B2C
:1059A8006C2B6CBF0DD06C5103E16B29D8A008D0CB
:1059B800000E676F000E686F800E696F7F0E20D033
:1059C8006CBF05D06C510EE16B05D8B00BD0000E42
:1059D800676F000E686F000E696F000E6A6F000E29
:1059E800606F0FD06BC066F0FF0E6717FF0E681769
:1059F8007F0E6917000E6A1766B1698FD8906631F5
:105A08006A6F60516A1367C01FF068C020F069C0F0
:105A180021F06AC022F012002E50800B0001756F31
:105A28002E502E24776F2DBE77817751D8B40DD0A4
:105A38007729D8A408D0000E2B6E000E2C6E000E0D
:105A48002D6E000E2E6E2D8E06D0000E2B6E000EC3
:105A58002C6E000E2D6E000E2E6E3250800B766F5F
:105A680075517619D8A4758D32503224766F31BEAF
:105A780076817651D8B40DD07629D8A408D0000EF6
:105A88002F6E000E306E000E316E000E326E318EAB
:105A980006D0000E2F6E000E306E000E316E000E16
:105AA800326E7751765DD8B022D075AD02D0800EB7
:105AB800751B77C078F076C077F078C076F02BC089
:105AC80078F02FC02BF078C02FF02CC078F030C0C1
:105AD8002CF078C030F02DC078F031C02DF078C0AF
