:020000040000FA
:040000009CEF01F080
:100008005582D9CF09F0DACF0AF025D0AECF51F01A
:10001800030127512611251104E1040E245DD8A0FF
:1000280003D0000E0101C66F320E0101C619D8B403
:10003800C607640EC625D96EDA6A050EDA2251C0E3
:10004800DFFFC62B000E0301246F000E256F000E84
:10005800266F000E276F9EBAD9D79EA88FD09DB85D
:1000680022D08CD0AC500109AC6E2BD0000EC52527
:10007800D96EDA6A050EDA22DF506AEC65F0AC5008
:10008800FE0B0110AC6E0101C52B1BD0000EC5255F
:10009800D96EDA6A050EDA22DF5052EC65F0AC5000
:1000A800FE0B0110EFD70101BB51000AD8B4DAD713
:1000B800010AD8B4D7D7030AD8B4D8D7010AD8B414
:1000C800E5D7000EC525D96EDA6A050EDA22DF50AB
:1000D800AD6EC52B03015B510101C519D8B404D01D
:1000E800320EC519D8A403D09D98000EC56F000E16
:1000F8000301246F000E256F000E266F000E276F78
:100108003DD071B4D0A20AD05404D8A407D074CF7B
:1001180051F05150D8A404D0FF0002D074CF51F050
:10012800D0820101C651D8B406D0240E03015F194C
:10013800D8A451C073FF320E03015E19D8B45E070C
:10014800080E5118D8A405D05E51D8B402D05E0765
:1001580015D00D0E5118D8B404D00A0E5118D8A4D1
:1001680004D0000E516E5E295C6F5F0E5E25D96E5D
:10017800DA6A030EDA2251C0DFFF5E2BA4AAD0D0C0
:10018800C0D75304D8A460D05250D8A404D0030ECA
:100198005418D8B42CD02C0E03013A5D010E3B59EB
:1001A800D8B002D0899801D08988898A3A51076ED7
:1001B8003B51086E3A4B3B2B910E075C010E0858D9
:1001C800D8A010D082B20AD0890E3A5D130E3B59DE
:1001D800D8A008D0000E3B6F000E03D0010E3B6F75
:1001E800900E3A6F000E3D6F000E3C6F81D02C0EC2
:1001F80003013C5D010E3D59D8B003D08988899A26
:1002080002D08988898A3C51076E3D51086E3C4B63
:100218003D2B910E075C010E0858D8A010D082A281
:100228000AD0890E3C5D130E3D59D8A008D0000EA7
:100238003D6F000E03D0010E3D6F900E3C6F000E17
:100248003B6F000E3A6F54D0020E5318D8A450D00A
:100258005250D8A404D0030E5418D8B424D0580E41
:1002680003013A5D020E3B59D8B002D0899801D0FB
:100278008988898A3A51076E3B51086E3A4B3B2B65
:10028800BD0E075C020E0858D8A0ACD782A207D0D2
:10029800890E3A5D130E3B59D8B09CD7A3D7020EEE
:1002A8003B6FBC0E9ED7580E03013C5D020E3D59B4
:1002B800D8B003D08988899A02D08988898A3C5124
:1002C800076E3D51086E3C4B3D2BBD0E075C020E80
:1002D8000858D8A0B4D782B207D0890E3C5D130E57
:1002E8003D59D8B0A4D7ABD7020E3D6FBC0EA6D7E8
:1002F800010E4B26000E4C224D224E22010E030108
:100308002427000E25232623272356075629D8A459
:1003180006D053C367FF0A0E566F010E556F7E90C5
:100328007EB02FD70AC0DAFF09C0D9FF5592110055
:10033800ABEF58F0000E0501CD6F000ECE6F050E25
:10034800CC6F000EAB6F000EAE6F000EC96F000EC3
:10035800CB6F000EAC6F000EAD6F000E9C6F010EE0
:10036800AA6F010EAF6F25EE9DF00B0EDE6AE80650
:10037800FDE2000E986F000E996F000E9A6F000E46
:100388009B6F020ECA6F13EC59F0E2EC46F0DBC12A
:100398000FF0DCC110F0000E126E0A0E116E12EC96
:1003A80066F00FC0BDF110C0BEF189869BEC5FF00E
:1003B80007EC65F0D0829EEC4FF00501D16F020E7C
:1003C800D119D8A402D0800E526E0101C051D8A410
:1003D80017EC53F003015C51D8A417EC1DF04B51F6
:1003E800D8B41FD027512611251104E1650E245DCC
:1003F800D8A017D00101BB51D8A404D0240EAC6EEC
:10040800900E03D0640EAC6ED00EAB6E8A8A000ECE
:100418000C6E010E0B6E2CEC64F09D88000E03012F
:100428004B6F0101C551D8B4ACA201D08A9ADCEC5B
:100438005CF0A30E946E00F000F08250210B0501D1
:10044800D16FD139E8461F0B0101D46F0501D15195
:10045800D125020B0101D411D46F8150010BD411A5
:10046800D46F820E946E070ED419D8A406D0030157
:10047800F5510101D419D8B403D0D45183EC2DF02F
:10048800010EC26525D0200EC26122D0880E03015C
:10049800202501019F6F130E030121210101A06F87
:1004A800000E030122210101A16F000E0301232187
:1004B8000101A26F4B509F5D4C50A0594D50A1595E
:1004C8004E50A259D8B004D0C151D8B43AEC58F023
:1004D8000101C251D8A44FD0060ED419D8A44BD0CC
:1004E800D351D8B448D00501A951D8A444D0020E9C
:1004F8000101D16140D0030ED019D8A43CD0D3510A
:10050800FF0A030BD36FD60E5216000E506E000E64
:1005180003014C6F0101D105D8A40AD0000E316E39
:10052800A80E306ED3C132F0336A000EA0EC64F02E
:10053800050E0501A96F4F50D8A408D0540E01012B
:10054800006FF90E016F39EC65F020D0A7EC63F06D
:100558000501B06FB0510101C919D8B417D0130EF5
:100568000E6FFC0E0F6FB0C510F1116B55EC60F0FB
:10057800B0C5C9F10BD00501A951D8B407D0070EF1
:100588000101D419D8A402D00501A90781A402D079
:10059800010E01D0000E0501AA19D8A403D0CD512F
:1005A800D8B4BAD19C2B9C0501019F6F060E9F61A0
:1005B80004D00501CD51D8B4B2D1000E81B4010EDA
:1005C8000501AA6FAA51D8B4FAD09BD103014F51A3
:1005D800D8B405D0000E4F6F010E546E02D0010E34
:1005E8004F6F4F50D8A407D07A0E0101006FFA0E52
:1005F800016F39EC65F04F50D8A408D01B0E0101EB
:10060800006FFA0E016F39EC65F0E8D0A7EC63F0E3
:100618000501B16FB1510101C919D8B4DFD0130E6A
:100628000E6FFC0E0F6FB1C510F1116B55EC60F039
:10063800B1C5C9F1D3D0010E03014F6F4F50D8A4F3
:1006480008D01B0E0101006FFA0E016F39EC65F03E
:10065800C5D0A7EC63F00501B26FB2510101C91909
:10066800D8B4BCD0130E0E6FFC0E0F6FB2C510F1CC
:10067800116B55EC60F0B2C5C9F1B0D00501CD5190
:10068800D8A40AD0010ECD6F4BC098F54CC099F58F
:100698004DC09AF54EC09BF5CD51D8B49FD0DC0E15
:1006A800982501019F6F050E050199210101A06F91
:1006B800000E05019A210101A16F000E05019B2181
:1006C8000101A26F4B509F5D4C50A0594D50A1594C
:1006D8004E50A259D8B082D0030E5418D8A47ED058
:1006E800010E546EC051D8A402D00F0E506E020EE7
:1006F8000501CD6F4F50D8A408D01B0E0101006F23
:10070800FA0E016F39EC65F069D0A7EC63F00501CA
:10071800B36FB3510101C919D8B460D0130E0E6F6D
:10072800FC0E0F6FB3C510F1116B55EC60F0B3C53B
:10073800C9F154D0020ED319D8A405D0010ED36F35
:10074800000E03014C6F0101D105D8A447D0D35145
:10075800D8B444D0000E316EA80E306ED3C132F03A
:10076800336A000EA0EC64F039D0030E5418D8A4F4
:1007780035D0010E546EC051D8A402D00F0E506E61
:100788004F50D8A407D01B0E006FFA0E016F39EC3A
:1007980065F024D0A7EC63F00501B46FB4510101F2
:1007A800C919D8B41BD0130E0E6FFC0E0F6FB4C549
:1007B80010F1116B55EC60F0B4C5C9F10FD001010F
:1007C800D051010AD8B402D7030AD8B434D7010AE1
:1007D800D8B454D7070AD8B4ADD7C7D70101CF05C5
:1007E800D8B452A802D081A252983C0E03015A6F85
:1007F800898692D0000E03014F6F010E546E4F5040
:10080800D8A408D01B0E0101006FFA0E016F39EC55
:1008180065F082D0A7EC63F00501B56FB551010111
:10082800C919D8B479D0130E0E6FFC0E0F6FB5C569
:1008380010F1116B55EC60F0B5C5C9F16DD0020E21
:100848000501CD19D8B443D00101D305D8A402D0ED
:10085800020E05D0020ED319D8A402D0010ED36F10
:10086800D60E5216000E506E000E03014C6F010199
:10087800D105D8A40DD0D351D8B40AD0000E316E0A
:10088800A80E306ED3C132F0336A000EA0EC64F0CB
:100898004F50D8A408D01B0E0101006FFA0E016F4B
:1008A80039EC65F014D0A7EC63F00501B66FB651CA
:1008B8000101C919D8B40BD0130E0E6FFC0E0F6FBF
:1008C800B6C510F1116B55EC60F0B6C5C9F1000E54
:1008D8000501CD6F21D0D305D8A402D0020ED36F65
:1008E800D105D8A419D0D351D8B416D0000E316E82
:1008F800A80E306ED3C132F0336A000EA0EC64F05B
:100908000BD00101D051020AD8B474D7010AD8B467
:1009180096D7070AD8B4DFD7000E05019C6F0101EE
:10092800CF05D8B481A226D081A224D0010E546E5E
:10093800100E526E000EC36F4F50D8A407D0400E51
:10094800006FF90E016F39EC65F014D0A7EC63F075
:100958000501B76FB7510101C919D8B40BD0130EEF
:100968000E6FFC0E0F6FB7C510F1116B55EC60F0F0
:10097800B7C5C9F1050E5418D8A427D04E504D104C
:1009880006E1E90E4B5C030E4C58D8A01ED0000EB1
:10099800316E010E306E000E336E000E326E0101A4
:1009A800D151A0EC64F04F50D8A407D05A0E0101E1
:1009B800006FF60E016F39EC65F0000E4B6E000EFD
:1009C8004C6E000E4D6E000E4E6E5404D8A414D119
:1009D800000EBD6E82848A98000E0301286F72ECA7
:1009E80061F00101C76FC705D8A42CD0529A529064
:1009F800000E506E000EC86F0501CA51D8A402D06F
:100A0800010ECA6F4F50D8A408D0160E0101006F0E
:100A1800F90E016F39EC65F0EFD0A7EC63F0050132
:100A2800B86FB8510101C919D8B4E6D0130E0E6FCA
:100A3800FC0E0F6FB8C510F1116B55EC60F0B8C51E
:100A4800C9F1DAD0020EC719D8B404D0020EC719FA
:100A5800D8A4B0D05250D8A4ADD05050D8A4AAD061
:100A680003014F51D8B4A6D0020E0101C819D8A469
:100A78009BD00501CE2BCE0501019F6F190E9F65F6
:100A8800BBD0000E0501C96F79EC5DF04F50D8A4BA
:100A980006D0CB0E006FF70E016F39EC65F001013F
:100AA800D9510301485D0101DA5103014959D8B010
:100AB8000BD048C30FF049C310F0000E126E0A0E97
:100AC800116E12EC66F00AD0D9C10FF0DAC110F03D
:100AD800000E126E0A0E116E12EC66F00FC046F38D
:100AE80010C047F3010E0101D16520D0000E316E10
:100AF800020E306E46C332F047C333F0D151A0EC3A
:100B080064F04F50D8A407D0E80E0101006FF50E2D
:100B1800016F39EC65F0060E546E000E4B6E000E38
:100B28004C6E000E4D6E000E4E6E66D048C30FF030
:100B380049C310F0000E126E0A0E116E12EC66F028
:100B48000FC000F310C001F346C3D5F347C3D6F373
:100B5800010E0301286F020E546E1E0E0501CB6FA5
:100B68003C0E03015A6F89864F50D8A408D0530E03
:100B78000101006FFA0E016F39EC65F03DD0A7EC6A
:100B880063F00501B96FB9510101C919D8B434D05E
:100B9800130E0E6FFC0E0F6FB9C510F1116B55ECEB
:100BA80060F0B9C5C9F128D0020EC86F000E050162
:100BB800CE6F22D04F50D8A408D0160E0101006F76
:100BC800F90E016F39EC65F014D0A7EC63F005015C
:100BD800BA6FBA510101C919D8B40BD0130E0E6FF0
:100BE800FC0E0F6FBAC510F1116B55EC60F0BAC569
:100BF800C9F1000E0101C86F060E5418D8A40BD015
:100C08004E504D1006E1E90E4B5C030E4C58D8A02F
:100C180002D0010E546E020E5418D8A418D1070E33
:100C2800BC64FFD0180EBC60FCD072EC61F001010E
:100C3800C76FC705D8A437D0C805D8A432D00501D6
:100C4800CE2BCE0501019F6F190E9F65EAD0010ECC
:100C5800546E4F50D8A407D0390E006FFA0E016FAA
:100C680039EC65F014D0A7EC63F00501BB6FBB51FC
:100C78000101C919D8B40BD0130E0E6FFC0E0F6FFB
:100C8800BBC510F1116B55EC60F0BBC5C9F1010E85
:100C98000101D165C6D0050E546EE90E4B6E030EE8
:100CA80038D0010EA1D0030EC719D8A4A2D0030EC4
:100CB800C819D8A497D00501C905D8A493D0CE2BBC
:100CC800CE0501019F6F190E9F65ABD05250D8A475
:100CD800A8D05050D8A4A5D0010ED16520D0000EC0
:100CE800316E030E306E46C332F047C333F0D15134
:100CF800A0EC64F04F50D8A407D00E0E0101006F8D
:100D0800F60E016F39EC65F0070E546E000E4B6E4F
:100D1800000E4C6E000E4D6E000E4E6E82D046C315
:100D280000F347C301F3D2EC4DF00009D8A458D022
:100D3800020E0301286F000ED66F000ED56F010E4C
:100D480000EC31F08A880501CB69000EC96F030EEB
:100D5800546E000E0101C36F000E4B6E000E4C6EF8
:100D6800000E4D6E000E4E6E000E0301396F000E20
:100D7800386F0101CB51D8B40ED00501CA51D8B48F
:100D88000AD014C318F315C319F316C31AF317C3FB
:100D98001BF3000ECA6F0101C251D8B453EC28F0FE
:100DA8004F50D8A408D0600E0101006FFA0E016FF1
:100DB80039EC65F036D0A7EC63F00501BC6FBC5187
:100DC8000101C919D8B42DD0130E0E6FFC0E0F6F88
:100DD800BCC510F1116B55EC60F0BCC5C9F121D050
:100DE80052861FD0030E0101C86F000E0501CE6F99
:100DF80018D00501CB51D8A411D0140E546E030E8F
:100E0800AC6F000EBD6E82944F50D8A407D0230E4D
:100E18000101006FF80E016F39EC65F0000E010159
:100E2800C86FE60EBC6413D0F10EBC64FDD7F10E9A
:100E3800BC640DD0F90EBC600AD072EC61F0040AF3
:100E4800D8A402D0010E01D0000E0501C96F140EFE
:100E58005418D8A427D00501AC51D8A423D0020E29
:100E6800546E8284CB694F50D8A408D0F90E010182
:100E7800006FF90E016F39EC65F014D0A7EC63F040
:100E88000501BD6FBD510101C919D8B40BD0130EAE
:100E98000E6FFC0E0F6FBDC510F1116B55EC60F0B5
:100EA800BDC5C9F1070E5418D8A42DD04E504D1009
:100EB80006E1E90E4B5C030E4C58D8A024D0000E76
:100EC8000501C96F020E546E4F50D8A408D0010E08
:100ED8000101006FF90E016F39EC65F014D0A7EC31
:100EE80063F00501BE6FBE510101C919D8B40BD01A
:100EF800130E0E6FFC0E0F6FBEC510F1116B55EC83
:100F080060F0BEC5C9F1030E5418D8A499D0070ED5
:100F1800BC6496D0180EBC6093D072EC61F00101ED
:100F2800C76FC705D8B403D0C751D8A438D0C805EF
:100F3800D8A433D00501CE2BCE0501019F6F190E21
:100F48009F657ED08A98010E546E4F50D8A407D062
:100F5800460E006FFA0E016F39EC65F014D0A7EC5D
:100F680063F00501BF6FBF510101C919D8B40BD097
:100F7800130E0E6FFC0E0F6FBFC510F1116B55EC01
:100F880060F0BFC5C9F19BEC5FF0010E0101D165AE
:100F980002D0050E3FD0000E48D0010E4AD0020EF6
:100FA800C719D8A44BD0020EC819D8A441D005013E
:100FB800CE2BCE0501019F6F190E9F6541D08A98EF
:100FC800020E546E4F50D8A407D0090E006FF90EC8
:100FD800016F39EC65F014D0A7EC63F00501C06F20
:100FE800C0510101C919D8B40BD0130E0E6FFC0EF5
:100FF8000F6FC0C510F1116B55EC60F0C0C5C9F199
:101008009BEC5FF0000E0501C96F010E0101D1656F
:101018000BD0080E546EE90E4B6E030E4C6E000E8C
:101028004D6E000E4E6E0CD0010E0301286F08D0D5
:10103800020EC86F000E0501CE6F02D0000EC86FF9
:10104800080E5418D8A427D04E504D1006E1E90ECA
:101058004B5C030E4C58D8A01ED0000E316E040E07
:10106800306E000E336E000E326E0101D151A0ECCD
:1010780064F04F50D8A407D0800E0101006FF60E1F
:10108800016F39EC65F0000E4B6E000E4C6E000ED1
:101098004D6E000E4E6EABA202D0AB98AB8871A21B
:1010A80002D071987188D6CFD1F53C0ED764B0D1F3
:1010B8000101C851D8B404D0030E5418D8B4A8D12B
:1010C800000ED76E000ED66E84EC63F0020E541834
:1010D800D8A404D00501CB29D8A4CB07140E5418E2
:1010E800D8A404D00501AC51D8A4AC0703014C51D5
:1010F800D8B441D0FAC30FF0FBC310F0000E126E43
:101108003C0E116E12EC66F00301345101019F6F21
:10111800030135510101A06F0301344B352B0F50EA
:1011280001019F5D1050A059D8A029D0000E0301DD
:101138004C6F000E356F000E346F5286000E05019D
:10114800D16F030ED16501D00AD0280ED125D96EF2
:10115800DA6A030EDA22000EDF6ED12BF2D7000E08
:10116800316E020E306E000E336E200E326E000E9F
:10117800A0EC64F004D0000E356F000E346F5050B0
:10118800D8A4500603015951800A490FD8A052A487
:1011980001D0529452C09FF1210E01019F17D8B47B
:1011A8001ED0020ED1611BD0D2EC4DF00009D8A49C
:1011B80016D05290529A4F50D8A407D0EC0E010185
:1011C800006FF60E016F39EC65F0000E316E020EFD
:1011D800306E52C032F0336A000EA0EC64F00501A4
:1011E800CC51D8B452B233D05282010E546E4F5003
:1011F800D8A408D04E0E0101006FF70E016F39EC2C
:1012080065F014D0A7EC63F00501C16FC15101016D
:10121800C919D8B40BD0130E0E6FFC0E0F6FC1C5D1
:1012280010F1116B55EC60F0C1C5C9F1000E050154
:10123800D16F030ED16501D00DD0280ED125D96EFE
:10124800DA6A030EDA22000EDF6ED12BF2D7CC5108
:10125800D8A4CC0703015951800A3F0FD8A033D036
:101268005284010E546E4F50D8A408D00D0E0101BF
:10127800006FF70E016F39EC65F014D0A7EC63F03E
:101288000501C26FC2510101C919D8B40BD0130EA0
:101298000E6FFC0E0F6FC2C510F1116B55EC60F0AC
:1012A800C2C5C9F1000E0501D16F030ED16501D089
:1012B8000AD0280ED125D96EDA6A030EDA22000E7A
:1012C800DF6ED12BF2D752A644D05296020E0101FE
:1012D800D319D8A40ED05050D8A409D04F50D8A4B0
:1012E80006D0070E006FF80E016F39EC65F0528AD0
:1012F8000DD05050D8A409D04F50D8A406D02E0EE7
:10130800006FF70E016F39EC65F05280010E546ED4
:101318004F50D8A408D0A60E0101006FF80E016F37
:1013280039EC65F014D0A7EC63F00501C36FC35125
:101338000101C919D8B40BD0130E0E6FFC0E0F6F34
:10134800C3C510F1116B55EC60F0C3C5C9F13C0E73
:10135800506E53EC28F00101D351D8A42BD0000EC5
:101368000301436F000E426F0501AD51D8A4AD07CC
:10137800020E0101D1611ED00501AD51D8A41AD0C9
:10138800000E00EC31F0D105D8B4EAEC66F0020E9C
:101398005418D8B404D0030E5418D8A406D0D5C312
:1013A80087F0D6C388F03EEC54F0020E0501AD6F0D
:1013B8000A0ECC6F030E5418D8A403D00301384B7F
:1013C800392B4F50D8A44F060101BF51D8A40CD0D7
:1013D8000501AF51D8A408D0010EAF6F010E01016D
:1013E800BF6FBFC152F314D00501CC51D8A40DD0A2
:1013F800010EAF6F010E0101BF6FBFC152F3000EA6
:101408000501AE6F090ECC6F03D0AF51D8A4AF075A
:10141800020E0101D16178D073D0000E526F58D0FE
:10142800DF51D8B406D0DEC137F0DF5147EC55F0B4
:1014380067D0BFC152F3BF2B63D0DF51D8B4F9D7FF
:10144800DF05D8B4F6D7DEC137F0DF51DCEC61F048
:1014580057D0CD51D8B4EDD7DDC137F0CD5147ECD9
:1014680055F04ED0CD51D8B4E4D7DDC137F0CD51C9
:10147800DCEC61F045D0CB51D8B4DBD7CAC137F02A
:10148800CB5147EC55F03CD0CB51D8B4D2D7CAC1D8
:1014980037F0CB51DCEC61F033D0CB51D8B4C9D79D
:1014A800CAC137F0CB51EAEC62F02AD0CBEC4CF051
:1014B800000E0101BF6FDF51D8B404D00501AE5151
:1014C800D8B403D00A0E0501CC6F000EAE6F18D049
:1014D8000101BF51010AD8B4A3D7030AD8B4ADD7C4
:1014E800010AD8B4B6D7070AD8B4BCD7010AD8B409
:1014F800C2D7030AD8B4C8D7010AD8B4CED7D6D72A
:1015080003015251D8A489D70101C651D8B442EF7A
:101518000FF0030127512611251105E1040E245D62
:10152800D8A042EF0FF0320E0B6E050E0C6E640E53
:101538000D6E050E0E6EC6C10FF0106A68EC62F0F3
:10154800C6C15DF3000E0101C66F320E0E6F050EA7
:101558000F6F5DC310F1E8EC3AF0030E0101B61904
:10156800D8B46DD174D1DF51D8B423D0DE51AB19C2
:10157800D8A41FD0DF51190D0D0EF324D96E040E17
:10158800F420DA6EDE50AD1914E1DE50AE19D8A49D
:1015980010D0B3C188F0B4C189F0DFC18AF0C90E98
:1015A80000018B6F030E8C6F61EC34F00501AE6F98
:1015B80041D1DF51D8B421D0DE51AB19D8A41DD008
:1015C800DF51190D100EF324D96E040EF420DA6ED3
:1015D800DE50AD1912E1DE50AE19D8A40ED0B3C159
:1015E80088F0B4C189F0DFC18AF0BD0E00018B6FAD
:1015F800030E8C6FB0EC5AF01DD1CD51D8B461D028
:10160800DD51AB19D8A45DD0CD51190D0D0EF324C1
:10161800D96E040EF420DA6EDE50AD1952E1DE50B8
:10162800AE19D8A44ED0B3C188F0B4C189F0CDC1E9
:101638008AF09D0E00018B6F050E8C6F61EC34F003
:101648000501AE51D8B4F6D0000ED16F020ED165A7
:1016580001D0F0D0D151040DC90EF324D96E030E78
:10166800F420DA6EDECF7DF0DECF7EF0DECF7FF0C5
:10167800DECF80F0D151040D9D0EF324D96E050EF6
:10168800F420DA6EDECF81F0DECF82F0DECF83F099
:10169800DECF84F03CEC63F00501D151040DC90E96
:1016A800F324D96E030EF420DA6E00017DC0DEFF4C
:1016B8007EC0DEFF7FC0DEFF80C0DEFF0501D12BCC
:1016C800C5D7CD51D8B421D0DD51AB19D8A41DD080
:1016D800CD51190D100EF324D96E040EF420DA6ED4
:1016E800DE50AD1912E1DE50AE19D8A40ED0B3C148
:1016F80088F0B4C189F0CDC18AF0BD0E00018B6FAE
:10170800030E8C6FB0EC5AF095D0CB51D8B421D0E1
:10171800CA51AB19D8A41DD0CB51190D0D0EF32405
:10172800D96E040EF420DA6EDE50AD1912E1DE50E7
:10173800AE19D8A40ED0B3C188F0B4C189F0CBC11A
:101748008AF0B10E00018B6F030E8C6F61EC34F0E0
:1017580071D0CB51D8B421D0CA51AB19D8A41DD05F
:10176800CB51190D100EF324D96E040EF420DA6E45
:10177800DE50AD1912E1DE50AE19D8A40ED0B3C1B7
:1017880088F0B4C189F0CBC18AF0BD0E00018B6F1F
:10179800030E8C6FB0EC5AF04DD0CB51D8B44AD070
:1017A800CA51AB19D8A446D0CB51190D130EF32446
:1017B800D96E040EF420DA6EDE50AD193BE1DE502E
:1017C800AE19D8A437D0B3C188F0B4C189F0CBC161
:1017D8008AF02BEC5DF088C014F389C015F38AC039
:1017E80016F38BC017F3020E0501CA19D8A408D046
:1017F80014C318F315C319F316C31AF317C31BF34D
:1018080014C37DF015C37EF016C37FF017C380F0B4
:1018180018C381F019C382F01AC383F01BC384F084
:101828003CEC63F07DC01CF37EC01DF37FC01EF34B
:1018380080C01FF3BFC152F30101BF2B1FD3AC51AE
:10184800030AD8B490D6070AD8B48DD617D3020E97
:10185800B619D8B4B3D0C0D0D151AB19D8A40ED3CF
:1018680049EC56F00501CF6FCF29D8B407D3CF5133
:1018780091EC60F003D3010EAB651ED0050EAB6191
:101888001BD0AD51AE11D8B408D0AE5106E1050E4B
:10189800AD5DD8B002D0030E0DD0AE5104E1810E7B
:1018A800AD5DD8A009D0AE5107E1850EAD5DD8B0C9
:1018B80003D0020E0501AB6F0A0E0101AB19D8A4C3
:1018C80012D0A80EAD19AE11D8A40DD04F0EB11973
:1018D8000AE1490EB219D8A406D0C051D8A403D041
:1018E800010EC06FCBD2AB51D8B404D0D151AB19D3
:1018F800D8A4C4D249EC56F00501CF6FCF29D8B48B
:1019080003D0CF5119EC5FF0020E0501AB6FB6D2D0
:10191800AB51D8B404D0D151AB19D8A4AFD2AD05CE
:10192800AE11D8A440D0010ED1653DD0D1519F6FE2
:10193800A06BD8909F37A03721EEB3F0DECFA1F18E
:10194800DDCFA2F19F51A127A051A223FE0EA12510
:10195800D96EFF0EA221DA6EDF50A36FA351A56FD7
:10196800A46BD151A66FA76BD890A637A73721EEE5
:10197800B3F0DECFA8F1DDCFA9F1A651A827A75172
:10198800A923FF0EA825D96EFF0EA921DA6EDF5014
:10199800AA6FAA51A4110501966F0101A55105016D
:1019A800976F020EAB6F49EC56F00501CF6FCF2948
:1019B800D8B464D2CF51C4EC54F060D2AC51030A0D
:1019C800D8B44AD7070AD8B447D7020AD8B453D7E5
:1019D800160AD8B49DD752D2000EBF6FBFC152F3BA
:1019E800BD0E006FF80E016F39EC65F047D20101AA
:1019F800AB51D8A453D0010ED16550D03ED096C576
:101A0800D5F397C5D6F3020E5418D8B404D0030EF4
:101A18005418D8A406D0D5C387F0D6C388F03EECB6
:101A280054F00A0E0501CC6F39D0B1C152F05250B2
:101A3800D8B434D0010E546E3C0E506E4F50D8A41A
:101A480007D0A60E006FF60E016F39EC65F026D0B0
:101A5800A7EC63F00501C46FC4510101C919D8B4DA
:101A68001DD0130E0E6FFC0E0F6FC4C510F1116B55
:101A780055EC60F0C4C5C9F111D021EEADF0DECF50
:101A88009FF1DDCFA0F1A051000AD8A407D09F5143
:101A9800010AD8B4B4D7030AD8B4C7D70101D151C1
:101AA800AB19D8B4B8D0F2D1010E546E4F50D8A4A7
:101AB80007D0E80E006FF90E016F39EC65F0E6D13A
:101AC800A7EC63F00501C56FC5510101C919D8B468
:101AD800DDD1130E0E6FFC0E0F6FC5C510F1116B23
:101AE80055EC60F0C5C5C9F1D1D1B151B211D8A436
:101AF80002D05286CBD1B1C187F0B2C188F03EEC9A
:101B080054F0020E546E1E0E0501CB6F3C0E0301FD
:101B18005A6F89864F50D8A408D0BC0E0101006FB7
:101B2800F50E016F39EC65F0B1D1A7EC63F0050152
:101B3800C66FC6510101C919D8B4A8D1130E0E6FCA
:101B4800FC0E0F6FC6C510F1116B55EC60F0C6C5E1
:101B5800C9F19CD1B151B211D8B4CBD7B1C187F07A
:101B6800B2C188F03EEC54F08A88000E0501C96FB6
:101B7800030E546ECB69000E0101C36F000E4B6E4D
:101B8800000E4C6E000E4D6E000E4E6EC251D8B453
:101B980053EC28F04F50D8A408D0600E0101006F14
:101BA800FA0E016F39EC65F071D1A7EC63F005010D
:101BB800C76FC7510101C919D8B468D1130E0E6F88
:101BC800FC0E0F6FC7C510F1116B55EC60F0C7C55F
:101BD800C9F15CD1020E546E4F50D8A407D0340E10
:101BE800006FF60E016F39EC65F050D1A7EC63F089
:101BF8000501C86FC8510101C919D8B447D1130EDE
:101C08000E6FFC0E0F6FC8C510F1116B55EC60F02C
:101C1800C8C5C9F13BD121EEADF0DECF9FF1DDCFD4
:101C2800A0F1A051000AD8A431D19F51810AD8B49B
:101C38003BD7030AD8B459D7010AD8B48BD7070AB7
:101C4800D8B4C8D723D10101D105D8A41FD1AB0579
:101C58000501D06FFAD0280E0501D025D96EDA6AB1
:101C6800030EDA22000EDF6E000E00EC31F04F504A
:101C7800D8A406D0EB0E006FF80E016F39EC65F0B2
:101C8800000E316E810E306E000E336E000E326E15
:101C98000101AB51A0EC64F0F9D0D2EC4DF0000991
:101CA800D8A42DD0280E0501D025D96EDA6A030EE6
:101CB800DA22010EDF6ED051020D000EF324D96E28
:101CC800030EF420DA6EB1C1DEFFB2C1DDFFD7C169
:101CD8000FF0D8C110F0000E126E0A0E116E12EC41
:101CE80066F00501D051020DD50EF324D96E030E0E
:101CF800F420DA6E0FC0DEFF10C0DDFF0DD0050145
:101D0800D051020DD50EF324D96E030EF420DA6EED
:101D1800000EDE6E000EDD6E4F50D8A407D08D0E7B
:101D28000101006FF70E016F39EC65F0000E316E9E
:101D3800820E306E0501D051020DD50EF324D96EF6
:101D4800030EF420DA6EDECF32F0DDCF33F001017E
:101D5800AB51A0EC64F09AD0D2EC4DF00009D8A4B5
:101D680025D0280E0501D025D96EDA6A030EDA22AD
:101D7800020EDF6ED051020D000EF324D96E030E51
:101D8800F420DA6EB1C1DEFFB2C1DDFFD051020D21
:101D9800D50EF324D96E030EF420DA6E000EDE6E33
:101DA800000EDD6E010E00EC31F00DD00501D051B2
:101DB800020DD50EF324D96E030EF420DA6E000E50
:101DC800DE6E000EDD6E4F50D8A407D06E0E0101F6
:101DD800006FF70E016F39EC65F0000E316E830E5F
:101DE800306E0501D051020DD50EF324D96E030EC5
:101DF800F420DA6EDECF32F0DDCF33F00101AB51E3
:101E0800A0EC64F043D0280E0501D025D96EDA6A1B
:101E1800030EDA22010EDF6E000E00EC31F04F5097
:101E2800D8A406D03F0E006FF80E016F39EC65F0AC
:101E3800000E316E840E306E000E336E000E326E60
:101E48000101AB51A0EC64F021D021EEADF0DECF62
:101E58009FF1DDCFA0F10101A051000AD8A416D04E
:101E68009F51010AD8B4F7D6030AD8B416D7010A85
:101E7800D8B472D7070AD8B4C6D708D00501AB5171
:101E8800020AD8B4B4D5010AD8B4DDD652A205D016
:101E98000A0E0501CC19D8B4529252C09FF1210EF6
:101EA80001019F17D8B408D05050D8A405D0010E0E
:101EB800D16502D05290529A000E0501AB6FE9EF3E
:101EC80001F0F5EF1CF0250ED819D8B431D0A25185
:101ED800D96EDA6A020ED926DE50DE10D8B413D0D5
:101EE800A251D96EDA6A020ED92602D8F5EF1CF093
:101EF8000500FA6EDE50FD6EDE50FE6EF850FF6E85
:101F0800FA50D8511200A251D96EDA6ADECFA7F082
:101F1800DDCFA8F0A7C0D9FFA8C0DAFFD8C0DFFF7F
:101F2800A251D96EDA6ADE2A000EDD22F5EF1CF026
:101F3800000ED56F000ED46F000EDA6F000ED96F49
:101F48000DD00001D98708D00001D98105D0000142
:101F5800DA8702D00001D985A34BA42BA3C0F6FFD2
:101F6800A4C0F7FFF86A0F0EF76403D00800F55015
:101F780005D0F6CFE9FFF7CFEAFFEF50200AD8B433
:101F8800E3D7030AD8B4E3D70E0AD8B4DAD71D0AC0
:101F9800D8B4E0D70001D9B7D995A3C0F6FFA4C03B
:101FA800F7FFF86A0F0EF76403D00800F55005D064
:101FB800F6CFE9FFF7CFEAFFEF50BDEC66F0D8A007
:101FC8004AD0000E0001D56F000ED46FD4C00FF0B8
:101FD800D5C010F0000E126E0A0E116E12EC66F0EB
:101FE8000FC0D4F010C0D5F0D00E0001A76FFF0EBF
:101FF800A86FA3C0F6FFA4C0F7FFF86A0F0EF76436
:1020080003D00800F55005D0F6CFE9FFF7CFEAFF77
:10201800EF500001A96FAA6BA751A927A851AA23BD
:10202800A951D427AA51D523A34BA42BA3C0F6FFAB
:10203800A4C0F7FFF86A0F0EF76403D00800F55044
:1020480005D0F6CFE9FFF7CFEAFFEF50BDEC66F019
:10205800D8A02BD0BBD7A3C0F6FFA4C0F7FFF86A5F
:102068000F0EF76403D00800F55005D0F6CFE9FF4E
:10207800F7CFEAFFEF502A0AD8A417D0A5C0D9FF96
:10208800A6C0DAFFDFCFA7F0020EDE26DFCFA8F06A
:10209800000EDD22A7C0D9FFA8C0DAFFDECFD4F03A
:1020A800DDCFD5F00001A34BA42BA3C0F6FFA4C03D
:1020B800F7FFF86A0F0EF76403D00800F55005D053
:1020C800F6CFE9FFF7CFEAFFEF502E0AD8A482D067
:1020D8000001DA8DA34BA42BA3C0F6FFA4C0F7FF21
:1020E800F86A0F0EF76403D00800F55005D0F6CF54
:1020F800E9FFF7CFEAFFEF502A0AD8A420D0A5C0FD
:10210800D9FFA6C0DAFFDFCFA7F0020EDE26DFCFA9
:10211800A8F0000EDD22A7C0D9FFA8C0DAFFDECFE5
:10212800D6F0DDCFD7F00001D7AF06D0000ED76FBD
:10213800000ED66FDA9DDA89A34BA42BA8D1000E26
:102148000001D76F000ED66F30D0D6C00FF0D7C0C1
:1021580010F0000E126E0A0E116E12EC66F00FC02F
:10216800D6F010C0D7F0D00E0001A76FFF0EA86FF1
:10217800A3C0F6FFA4C0F7FFF86A0F0EF76403D0F8
:102188000800F55005D0F6CFE9FFF7CFEAFFEF508A
:102198000001A96FAA6BA751A927A851AA23A95181
:1021A800D627AA51D723A34BA42BA3C0F6FFA4C0BC
:1021B800F7FFF86A0F0EF76403D00800F55005D052
:1021C800F6CFE9FFF7CFEAFFEF50BDEC66F0D8A0F5
:1021D8005ED1BBD7000E0001D76F000ED66FDA892B
:1021E80056D1DA858ED1D98D8CD1D98BD98F89D119
:1021F800A5C0D9FFA6C0DAFFDFCFA7F0020EDE2602
:10220800DFCFA8F0000EDD22A7C0D9FFA8C0DAFFF3
:10221800DECFC2F0DDCFC3F0C251C311D8A404D0C1
:102228001B0EC26FFC0EC36F000EC56F000EC46F8D
:1022380003D00001C44BC52BC451C225A76FC5519B
:10224800C321A86FA7C0F6FFA8C0F7FFF86A0F0E52
:10225800F76403D00800F55005D0F6CFE9FFF7CFB3
:10226800EAFFEF500009D8A4E4D70001D651D711EE
:10227800D8B40ED0C451D65DD751800AA76FC551C6
:10228800800AA759D8B004D0D6C0C4F0D7C0C5F0CA
:10229800D451C45DD551C559D8B005D0C451D45F07
:1022A800C551D55B04D0000ED56F000ED46FD9A7E9
:1022B8002FD08BD0A251D96EDA6A020ED926DE5001
:1022C800DE10D8B412D0A251D96EDA6A020ED9261D
:1022D80001D81ED00500FA6EDE50FD6EDE50FE6E8F
:1022E800F850FF6EFA50200E1200A251D96EDA6A29
:1022F800DECFA7F0DDCFA8F0A7C0D9FFA8C0DAFFCE
:10230800200EDF6EA251D96EDA6ADE2A000EDD22B7
:102318000001D407D8A0D507D429CCE1D529D8B451
:1023280054D0C8D7A251D96EDA6A020ED926DE5027
:10233800DE10D8B425D0A251D96EDA6A020ED92699
:1023480001D81AD00500FA6EDE50FD6EDE50FE6E22
:10235800F850FF6EFA50C2C0F6FFC3C0F7FFF86A24
:102368000F0EF76403D00800F55005D0F6CFE9FF4B
:10237800F7CFEAFFEF5012000001C24BC32B25D064
:10238800C2C0F6FFC3C0F7FFF86AA251D96EDA6A75
:10239800DECFA7F0DDCFA8F0A7C0D9FFA8C0DAFF2D
:1023A8000F0EF76403D00800F55005D0F6CFE9FF0B
:1023B800F7CFEAFFEF50DF6E0001C24BC32BA251EB
:1023C800D96EDA6ADE2A000EDD22C407D8A0C50756
:1023D800C429A8E1C529D8A4A5D7D9B730D0F5EF25
:1023E8001CF0A251D96EDA6A020ED926DE50DE1030
:1023F800D8B412D0A251D96EDA6A020ED92601D801
:102408001ED00500FA6EDE50FD6EDE50FE6EF850EE
:10241800FF6EFA50200E1200A251D96EDA6ADECF92
:10242800A7F0DDCFA8F0A7C0D9FFA8C0DAFF200E1B
:10243800DF6EA251D96EDA6ADE2A000EDD220001B3
:10244800D407D8A0D507D429CCE1D529D8B4F5EF3D
:102458001CF0C7D7A5C0D9FFA6C0DAFFDFCFA7F009
:10246800020EDE26DFCFA8F0000EDD22A7C0D9FFBE
:10247800A8C0DAFFDF50D86FD80EC26FC36B000E4A
:10248800C56F010EC46FF1D6C00ED9133AD0000142
:10249800A351A76FA451A86FA34BA42BA7C0F6FF05
:1024A800A8C0F7FFF86A0F0EF76403D00800F550CC
:1024B80005D0F6CFE9FFF7CFEAFFEF500001D86F5C
:1024C800D851000AD8B412EF1DF0580AD8B48DD6E6
:1024D8003B0AD8B4BFD7070AD8B413D0020AD8B475
:1024E80080D60F0AD8B40DD0060AD8B47CD61C0AF8
:1024F800D8B47ED6060AD8B4C7D70D0AD8B476D6CB
:10250800BBD7070EDA15D8B40EEF18F0DAA904D045
:10251800000ED76F060ED66FA5C0D9FFA6C0DAFF8A
:10252800DFCFA7F0040EDE26DFCFA8F0000EDD22F5
:10253800A7C0D9FFA8C0DAFFDECFCCF0DECFCDF040
:10254800DECFCEF0DECFCFF0CFAF14D0CCC00BF0C3
:10255800CDC00CF0CEC00DF0CFC00EF082EC65F00F
:102568000BC0CCF00CC0CDF00DC0CEF00EC0CFF03B
:10257800030ED913000EC76F000EC66FCCC00BF048
:10258800CDC00CF0CEC00DF0CFC00EF0000E0F6E17
:10259800000E106E000E116E000E126E0DEC5EF045
:1025A800D8B083D00001CE35CF35820FC66FC76B48
:1025B800FF0EC723C607D8A0C707C6C00FF0C7C0FD
:1025C80010F0000E126E030E116E12EC66F00FC0C2
:1025D800C6F010C0C7F0C6C091F0C7C092F0000E98
:1025E8000001946F0A0E936F52EC5EF091C0C6F032
:1025F80092C0C7F0C7AF03D0C607D8A0C707C65157
:102608000008FDEC38F099C0C8F09AC0C9F09BC02A
:10261800CAF09CC0CBF0C8C023F0C9C024F0CAC01F
:1026280025F0CBC026F0CCC027F0CDC028F0CEC016
:1026380029F0CFC02AF06EEC3EF023C0C8F024C0C9
:10264800C9F025C0CAF026C0CBF0C8C023F0C9C065
:1026580024F0CAC025F0CBC026F0000E276E000E6D
:10266800286E800E296E3F0E2A6E7BEC59F0D8B08A
:1026780005D00001C607D8A0C70717D0C8C023F0E7
:10268800C9C024F0CAC025F0CBC026F0000E276EC2
:10269800000E286E200E296E410E2A6E7BEC59F032
:1026A800D8A003D00001C64BC72B0001D7BF06D066
:1026B800D75121E10D0ED65DD8B01DD0CCC06DF03C
:1026C800CDC06EF0CEC06FF0CFC070F0D65159ECCF
:1026D80049F03CC071F03DC072F03EC073F03FC09D
:1026E80074F004EC40F06DC0CCF06EC0CDF06FC05B
:1026F800CEF070C0CFF0C7BF06D0C7512FE10A0E89
:10270800C65DD8B02BD0CCC00BF0CDC00CF0CEC07D
:102718000DF0CFC00EF0000E0F6E000E106E000E02
:10272800116E000E126E0DEC5EF0D8B062D0CCC007
:102738007DF0CDC07EF0CEC07FF0CFC080F071ECD0
:102748005BF07D517E117F118011D8B4C7BF51D085
:10275800C75104E1020EC65DD8A04BD0C8C023F013
:10276800C9C024F0CAC025F0CBC026F05F0E276E82
:10277800700E286E890E296E400E2A6E7BEC59F079
:10278800D8B003D00001F70E02D00001F80EC6271A
:10279800FF0EC723C651FDEC38F099C0C8F09AC0A7
:1027A800C9F09BC0CAF09CC0CBF0CCC00BF0CDC028
:1027B8000CF0CEC00DF0CFC00EF0C8C00FF0C9C0ED
:1027C80010F0CAC011F0CBC012F047EC57F00BC0A4
:1027D800D0F00CC0D1F00DC0D2F00EC0D3F0000E76
:1027E8000001CC6F000ECD6F000ECE6F000ECF6FC4
:1027F8003BD0CCC07DF0CDC07EF0CEC07FF0CFC046
:1028080080F071EC5BF07DC0D0F07EC0D1F07FC06D
:10281800D2F080C0D3F0CCC07DF0CDC07EF0CEC069
:102828007FF0CFC080F0D0C015F0D1C016F0D2C074
:1028380017F0D3C018F0000ED8EC51F015C081F095
:1028480016C082F017C083F018C084F03CEC63F027
:102858007DC0CCF07EC0CDF07FC0CEF080C0CFF080
:10286800000EC76F000EC66F010ED86F0A0ED8197A
:10287800D8B418D0D851040D7C0EF324F66EEE0EA1
:10288800F420F76E0900F550D05D0900F550D159D4
:102898000900F550D2590900F550D359D8A002D0F3
:1028A800D82BE4D7D851D625A76F000ED721A86F0B
:1028B800C651A727C751A823A751D45FA851D55BF4
:1028C800DAB704D0D651D711D8B403D0D407D8A0DA
:1028D800D507D9C0A7F0030EA717D8B403D0D407DB
:1028E800D8A0D507D9A5B5D0D9C0A7F0030EA7178A
:1028F800D8B442D0A251D96EDA6A020ED926DE5077
:10290800DE10D8B41CD0D9B104D0000EB16F2B0E94
:1029180003D0000EB16F2D0EB06FA251D96EDA6AD6
:10292800020ED92601D828D00500FA6EDE50FD6EB9
:10293800DE50FE6EF850FF6EFA50B0511200D9B159
:1029480004D0000EB36F2B0E03D0000EB36F2D0E04
:10295800B26FA251D96EDA6ADECFA7F0DDCFA8F048
:10296800A7C0D9FFA8C0DAFFB2C0DFFFA251D96E55
:10297800DA6ADE2A000EDD220001D9A161D0A25157
:10298800D96EDA6A020ED926DE50DE10D8B412D01B
:10299800A251D96EDA6A020ED92601D851D00500A3
:1029A800FA6EDE50FD6EDE50FE6EF850FF6EFA5085
:1029B800200E1200A251D96EDA6ADECFA7F0DDCF61
:1029C800A8F0A7C0D9FFA8C0DAFF200EDF6EA25179
:1029D800D96EDA6ADE2A000EDD2232D0A251D96E13
:1029E800DA6A020ED926DE50DE10D8B412D0A2510F
:1029F800D96EDA6A020ED92601D81ED00500FA6E01
:102A0800DE50FD6EDE50FE6EF850FF6EFA50300E4E
:102A18001200A251D96EDA6ADECFA7F0DDCFA8F096
:102A2800A7C0D9FFA8C0DAFF300EDF6EA251D96E59
:102A3800DA6ADE2A000EDD220001D407D8A0D50705
:102A48000001D5BF1FD1D551C9E1D405D8A01AD1ED
:102A5800C5D7D9A733D039D0A251D96EDA6A020EB8
:102A6800D926DE50DE10D8B412D0A251D96EDA6A57
:102A7800020ED92601D81ED00500FA6EDE50FD6E72
:102A8800DE50FE6EF850FF6EFA50200E1200A25172
:102A9800D96EDA6ADECFA7F0DDCFA8F0A7C0D9FFDC
:102AA800A8C0DAFF200EDF6EA251D96EDA6ADE2ADC
:102AB800000EDD220001D407D8A0D507D5BF05D068
:102AC800D551CAE1D405D8B0C7D7D9C0A7F0030EED
:102AD800A717D8B43DD0A251D96EDA6A020ED9260A
:102AE800DE50DE10D8B41CD0D9B104D0000EB56FBA
:102AF8002B0E03D0000EB56F2D0EB46FA251D96EF8
:102B0800DA6A020ED92601D8BDD00500FA6EDE5069
:102B1800FD6EDE50FE6EF850FF6EFA50B451120092
:102B2800D9B104D0000EB76F2B0E03D0000EB76FCB
:102B38002D0EB66FA251D96EDA6ADECFA7F0DDCFBF
:102B4800A8F0A7C0D9FFA8C0DAFFB6C0DFFF94D0AD
:102B5800D9A198D0A251D96EDA6A020ED926DE50D0
:102B6800DE10D8B412D0A251D96EDA6A020ED92674
:102B780001D888D00500FA6EDE50FD6EDE50FE6E7C
:102B8800F850FF6EFA50200E1200A251D96EDA6A80
:102B9800DECFA7F0DDCFA8F0A7C0D9FFA8C0DAFF25
:102BA800200E69D0D0C00BF0D1C00CF0D2C00DF00F
:102BB800D3C00EF0D851040D7C0EF324F66EEE0E41
:102BC800F420F76E0900F5CF0FF00900F5CF10F0EB
:102BD8000900F5CF11F00A00F5CF12F05AEC5FF0BA
:102BE8000BC0C8F00CC0C9F00DC0CAF00EC0CBF0C5
:102BF800C8C018F0C9C019F0CAC01AF0CBC01BF081
:102C08000A0E1C6E000E1D6E000E1E6E000E1F6E4C
:102C1800A9EC61F018C0C8F019C0C9F01AC0CAF010
:102C28001BC0CBF0A251D96EDA6A020ED926DE504B
:102C3800DE10D8B413D0A251D96EDA6A020ED926A2
:102C480001D820D00500FA6EDE50FD6EDE50FE6E13
:102C5800F850FF6EFA50C851300F1200A251D96EC9
:102C6800DA6ADECFA7F0DDCFA8F0A7C0D9FFA8C0E9
:102C7800DAFFC851300FDF6EA251D96EDA6ADE2A48
:102C8800000EDD220001D807D829D8B433D08AD75E
:102C9800A251D96EDA6A020ED926DE50DE10D8B4F7
:102CA80012D0A251D96EDA6A020ED92601D81ED0E6
:102CB8000500FA6EDE50FD6EDE50FE6EF850FF6EB7
:102CC800FA50300E1200A251D96EDA6ADECFA7F0A0
:102CD800DDCFA8F0A7C0D9FFA8C0DAFF300EDF6E9D
:102CE800A251D96EDA6ADE2A000EDD220001C6077B
:102CF800D8A0C707C7BF05D0C751CAE1C605D8B015
:102D0800C7D7D7BF09D0D75104E1090ED65DD8A0DF
:102D180003D0080ED86F02D0D6C0D8F0D851D65FED
:102D2800000ED75BD851D8A402D0DAA72ED0A25172
:102D3800D96EDA6A020ED926DE50DE10D8B412D067
:102D4800A251D96EDA6A020ED92601D81ED0050022
:102D5800FA6EDE50FD6EDE50FE6EF850FF6EFA50D1
:102D68002E0E1200A251D96EDA6ADECFA7F0DDCF9F
:102D7800A8F0A7C0D9FFA8C0DAFF2E0EDF6EA251B7
:102D8800D96EDA6ADE2A000EDD220001D851FDEC88
:102D980038F099C0ABF09AC0ACF09BC0ADF09CC0C5
:102DA800AEF0CCC027F0CDC028F0CEC029F0CFC0FF
:102DB8002AF0ABC023F0ACC024F0ADC025F0AEC003
:102DC80026F06EEC3EF023C07DF024C07EF025C0D6
:102DD8007FF026C080F071EC5BF07DC0D0F07EC043
:102DE800D1F07FC0D2F080C0D3F097D0D0C00BF024
:102DF800D1C00CF0D2C00DF0D3C00EF0D851040DE4
:102E08007C0EF324F66EEE0EF420F76E0900F5CF73
:102E18000FF00900F5CF10F00900F5CF11F00A0006
:102E2800F5CF12F05AEC5FF00BC0C8F00CC0C9F037
:102E38000DC0CAF00EC0CBF0C8C018F0C9C019F058
:102E4800CAC01AF0CBC01BF00A0E1C6E000E1D6E15
:102E5800000E1E6E000E1F6EA9EC61F018C0C8F0BF
:102E680019C0C9F01AC0CAF01BC0CBF0A251D96E64
:102E7800DA6A020ED926DE50DE10D8B413D0A25179
:102E8800D96EDA6A020ED92601D820D00500FA6E6A
:102E9800DE50FD6EDE50FE6EF850FF6EFA50C851DF
:102EA800300F1200A251D96EDA6ADECFA7F0DDCF5B
:102EB800A8F0A7C0D9FFA8C0DAFFC851300FDF6E4D
:102EC800A251D96EDA6ADE2A000EDD22D0C018F0CF
:102ED800D1C019F0D2C01AF0D3C01BF00001D851EC
:102EE800040D7C0EF324F66EEE0EF420F76E090046
:102EF800F5CF1CF00900F5CF1DF00900F5CF1EF045
:102F08000A00F5CF1FF0A9EC61F018C0D0F019C085
:102F1800D1F01AC0D2F01BC0D3F0D807D829D8B442
:102F280033D064D7A251D96EDA6A020ED926DE50A0
:102F3800DE10D8B412D0A251D96EDA6A020ED926A0
:102F480001D81ED00500FA6EDE50FD6EDE50FE6E12
:102F5800F850FF6EFA50300E1200A251D96EDA6A9C
:102F6800DECFA7F0DDCFA8F0A7C0D9FFA8C0DAFF51
:102F7800300EDF6EA251D96EDA6ADE2A000EDD222B
:102F88000001D607D8A0D707D651D711D8A4CAD7D9
:102F9800D9B7D5BFF5EF1CF0D55104E1D405D8A0B9
:102FA800F5EF1CF0A251D96EDA6A020ED926DE506E
:102FB800DE10D8B412D0A251D96EDA6A020ED92620
:102FC80001D81ED00500FA6EDE50FD6EDE50FE6E92
:102FD800F850FF6EFA50200E1200A251D96EDA6A2C
:102FE800DECFA7F0DDCFA8F0A7C0D9FFA8C0DAFFD1
:102FF800200EDF6EA251D96EDA6ADE2A000EDD22BB
:103008000001D407D8A0D507D451D511D8B4F5EF0D
:103018001CF0C8D7D9C0A7F0C00EA717D8A426D0CF
:10302800A5C0D9FFA6C0DAFFDFCFA7F0020EDE26C3
:10303800DFCFA8F0000EDD22A7C0D9FFA8C0DAFFB5
:10304800DECFD0F0DDCFD1F0000ED1BFFF0ED26FB2
:10305800D36FD3AF25D0030ED913D31FD21FD11FDF
:10306800D06D000ED123D223D3231AD0A5C0D9FF07
:10307800A6C0DAFFDFCFA7F0020EDE26DFCFA8F06A
:10308800000EDD22A7C0D9FFA8C0DAFFDECFA9F065
:10309800DDCFAAF0A9C0D0F0AAC0D1F0D26BD36B13
:1030A800D651D711D8A463D0D051D111D211D31190
:1030B800D8A45DD0D64BD72B5AD0010ED86F0A0EA4
:1030C800D819D8B462D0D851040D7C0EF324F66E0A
:1030D800EE0EF420F76E0900F550D05D0900F550AA
:1030E800D1590900F550D2590900F550D359D8A043
:1030F8004CD0D82BE4D7010ED86F080ED819D8B405
:1031080044D0D851040D520EF324F66EE10EF4208B
:10311800F76E0900F550D05D0900F550D159090046
:10312800F550D2590900F550D359D8A02ED0D82B34
:10313800E4D7010ED86F0B0ED819D8B426D0D851C1
:10314800040D260EF324F66EE10EF420F76E090046
:10315800F550D05D0900F550D1590900F550D25904
:103168000900F550D359D8A010D0D82BE4D7D9519D
:10317800C00B000AD8B4A1D7400AD8B4DAD7C00A1D
:10318800D8B4B9D7400AD8B498D7D851A76FA86B84
:10319800D651A75DA851800AA96FD751800AA959AD
:1031A800D8B003D0D6C0D8F010D0D851A76FA86B2C
:1031B800A751D65DD751800AA96FA851800AA9598D
:1031C800D8B003D0D8C0D6F0D76BD451D511D8B465
:1031D80009D0D9C0A7F0030EA717D8B403D0D407D5
:1031E800D8A0D507DAAD13D0D451D65DD751800A0F
:1031F800A76FD551800AA759D8B005D0D651D45F4A
:10320800D751D55B04D0000ED56F000ED46FC40E15
:10321800A76F080EA86FD9C0A9F0DAC0AAF0A75105
:10322800A917A851AA17400EA9190CE1080EAA1946
:10323800D8A408D0D451D511D8B428D0D407D8A050
:10324800D50724D0C00EA76F080EA86FD9C0A9F063
:10325800DAC0AAF0A751A917A851AA17800EA91970
:1032680015E1080EAA19D8A411D0D5BF0BD0D55195
:1032780004E1030ED45DD8A005D0FE0ED427FF0EBE
:10328800D52304D0000ED56F000ED46FD851A76F88
:10329800A86BD451A75DA851800AA96FD551800A9F
:1032A800A959D8B005D0D851D45F000ED55B04D049
:1032B800000ED56F000ED46FD9A515D1D9C0A7F0CF
:1032C800030EA717D8B428D0A251D96EDA6A020E15
:1032D800D926DE50DE10D8B412D0A251D96EDA6ADF
:1032E800020ED92601D8C7D00500FA6EDE50FD6E51
:1032F800DE50FE6EF850FF6EFA502D0E1200A251ED
:10330800D96EDA6ADECFA7F0DDCFA8F0A7C0D9FF63
:10331800A8C0DAFF2D0E29D0D9A129D0A251D96E83
:10332800DA6A020ED926DE50DE10D8B412D0A251C5
:10333800D96EDA6A020ED92601D89DD00500FA6E38
:10334800DE50FD6EDE50FE6EF850FF6EFA50200E15
:103358001200A251D96EDA6ADECFA7F0DDCFA8F04D
:10336800A7C0D9FFA8C0DAFF200EDF6E7ED0C00E3E
:10337800A76F080EA86FD9C0A9F0DAC0AAF0A751A4
:10338800A917A851AA17800EA91975E1080EAA193C
:10339800D8A471D0A251D96EDA6A020ED926DE50AD
:1033A800DE10D8B412D0A251D96EDA6A020ED9262C
:1033B80001D81ED00500FA6EDE50FD6EDE50FE6E9E
:1033C800F850FF6EFA50300E1200A251D96EDA6A28
:1033D800DECFA7F0DDCFA8F0A7C0D9FFA8C0DAFFDD
:1033E800300EDF6EA251D96EDA6ADE2A000EDD22B7
:1033F8000001A251D96EDA6A020ED926DE50DE101B
:10340800D8B41CD0D9BB04D0000EB96F780E03D045
:10341800000EB96F580EB86FA251D96EDA6A020E53
:10342800D92601D828D00500FA6EDE50FD6EDE5090
:10343800FE6EF850FF6EFA50B8511200D9BB04D096
:10344800000EBB6F780E03D0000EBB6F580EBA6F1C
:10345800A251D96EDA6ADECFA7F0DDCFA8F0A7C0F7
:10346800D9FFA8C0DAFFBAC0DFFFA251D96EDA6A65
:10347800DE2A000EDD220001D451D511D8B46AD25B
:10348800A251D96EDA6A020ED926DE50DE10D8B4FF
:1034980012D0A251D96EDA6A020ED92601D81ED0EE
:1034A8000500FA6EDE50FD6EDE50FE6EF850FF6EBF
:1034B800FA50300E1200A251D96EDA6ADECFA7F0A8
:1034C800DDCFA8F0A7C0D9FFA8C0DAFF300EDF6EA5
:1034D800A251D96EDA6ADE2A000EDD220001D40775
:1034E800D8A0D507C9D7D451D511D8A4D9B736D0C3
:1034F800A251D96EDA6A020ED926DE50DE10D8B48F
:1035080012D0A251D96EDA6A020ED92601D81ED07D
:103518000500FA6EDE50FD6EDE50FE6EF850FF6E4E
:10352800FA50200E1200A251D96EDA6ADECFA7F047
:10353800DDCFA8F0A7C0D9FFA8C0DAFF200EDF6E44
:10354800A251D96EDA6ADE2A000EDD220001D40704
:10355800D8A0D507D451D511D8A4CAD7D9C0A7F0B7
:10356800030EA717D8B428D0A251D96EDA6A020E72
:10357800D926DE50DE10D8B412D0A251D96EDA6A3C
:10358800020ED92601D848D00500FA6EDE50FD6E2D
:10359800DE50FE6EF850FF6EFA502D0E1200A2514A
:1035A800D96EDA6ADECFA7F0DDCFA8F0A7C0D9FFC1
:1035B800A8C0DAFF2D0E29D0D9A12ED0A251D96EDC
:1035C800DA6A020ED926DE50DE10D8B412D0A25123
:1035D800D96EDA6A020ED92601D81ED00500FA6E15
:1035E800DE50FD6EDE50FE6EF850FF6EFA50200E73
:1035F8001200A251D96EDA6ADECFA7F0DDCFA8F0AB
:10360800A7C0D9FFA8C0DAFF200EDF6EA251D96E7D
:10361800DA6ADE2A000EDD22C00E0001A76F080E4E
:10362800A86FD9C0A9F0DAC0AAF0A751A917A85164
:10363800AA17400EA9192DE1080EAA19D8A429D055
:10364800A251D96EDA6A020ED926DE50DE10D8B43D
:1036580012D0A251D96EDA6A020ED92601D87AD1CF
:103668000500FA6EDE50FD6EDE50FE6EF850FF6EFD
:10367800FA50300E1200A251D96EDA6ADECFA7F0E6
:10368800DDCFA8F0A7C0D9FFA8C0DAFF300EDF6EE3
:103698005BD1C00EA76F080EA86FD9C0A9F0DAC019
:1036A800AAF0A751A917A851AA17800EA91903E1D2
:1036B800080EAA19D8A44ED1A251D96EDA6A020E00
:1036C800D926DE50DE10D8B412D0A251D96EDA6AEB
:1036D800020ED92601D81ED00500FA6EDE50FD6E06
:1036E800DE50FE6EF850FF6EFA50300E1200A251F6
:1036F800D96EDA6ADECFA7F0DDCFA8F0A7C0D9FF70
:10370800A8C0DAFF300EDF6EA251D96EDA6ADE2A5F
:10371800000EDD220001A251D96EDA6A020ED92606
:10372800DE50DE10D8B41CD0D9BB04D0000EBD6F5B
:10373800780E03D0000EBD6F580EBC6FA251D96E23
:10374800DA6A020ED92601D805D10500FA6EDE50D4
:10375800FD6EDE50FE6EF850FF6EFA50BC5112003E
:10376800D9BB04D0000EBF6F780E03D0000EBF6F18
:10377800580EBE6FA251D96EDA6ADECFA7F0DDCF40
:10378800A8F0A7C0D9FFA8C0DAFFBEC0DFFFDCD011
:10379800D6C0A7F0D7C0A8F0D890A737A837D89038
:1037A800A737A8377C0EA725F66EEE0EA821F76E70
:1037B8000900F5CF0FF00900F5CF10F00900F5CF9B
:1037C80011F00A00F5CF12F0D0C00BF0D1C00CF008
:1037D800D2C00DF0D3C00EF05AEC5FF00BC018F059
:1037E8000CC019F00DC01AF00EC01BF00A0E1C6EAA
:1037F800000E1D6E000E1E6E000E1F6EA9EC61F00D
:10380800185069D0D0C00BF0D1C00CF0D2C00DF068
:10381800D3C00EF0D6C0A7F0D7C0A8F0D890A7376D
:10382800A837D890A737A837520EA725F66EE10E0D
:10383800A821F76E0900F5CF0FF00900F5CF10F0B9
:103848000900F5CF11F00A00F5CF12F05AEC5FF03D
:103858000B500F0BAF6FD9BB04D0D70EC06FF90E4A
:1038680003D0C60EC06FF90EC16FAF51C025A76F48
:10387800000EC121A86FA7C0F6FFA8C0F7FF080077
:10388800F5CFD8F039D0D0C00BF0D1C00CF0D2C0F1
:103898000DF0D3C00EF0D6C0A7F0D7C0A8F0D890CE
:1038A800A737A837D890A737A837260EA725F66ECA
:1038B800E10EA821F76E0900F5CF0FF00900F5CF4A
:1038C80010F00900F5CF11F00A00F5CF12F05AEC0C
:1038D8005FF00B50070B300FD86F0ED0D951C00BCB
:1038E800000AD8B455D7400AD8B4CDD7C00AD8B43E
:1038F80089D7400AD8B44CD7A251D96EDA6A020ED9
:10390800D926DE50DE10D8B412D0A251D96EDA6AA8
:10391800020ED92601D81ED00500FA6EDE50FD6EC3
:10392800DE50FE6EF850FF6EFA50D8511200A251C8
:10393800D96EDA6ADECFA7F0DDCFA8F0A7C0D9FF2D
:10394800A8C0DAFFD8C0DFFFA251D96EDA6ADE2A32
:10395800000EDD220001D607D8A0D707D629BEE180
:10396800D729D8A4BBD7D9B7D5BF3BD0D55103E108
:10397800D405D8A036D0A251D96EDA6A020ED9265B
:10398800DE50DE10D8B412D0A251D96EDA6A020E17
:10399800D92601D81ED00500FA6EDE50FD6EDE5025
:1039A800FE6EF850FF6EFA50200E1200A251D96E2A
:1039B800DA6ADECFA7F0DDCFA8F0A7C0D9FFA8C08C
:1039C800DAFF200EDF6EA251D96EDA6ADE2A000E07
:1039D800DD220001D407D8A0D507D451D511D8A429
:1039E800CAD70001A351A76FA451A86FA34BA42B5A
:1039F800A7C0F6FFA8C0F7FFF86A0F0EF76403D058
:103A08000800F55005D0F6CFE9FFF7CFEAFFEF50F1
:103A18000001D86FD851D8A467EF0FF0000EA36F3C
:103A2800000EA26F1200EEEC42F0996F240E030113
:103A38005F19D8A408D0CEEC22F0000E03015C6F09
:103A4800000E5E6F12004F50D8B406D0000E03016E
:103A58005C6F000E5E6F1200E60E0101006FF70E3C
:103A6800016F39EC65F00101C451D8A441D0000EB2
:103A78009E6F25D05F0E0B6E030E0C6E910E9E2569
:103A8800D96EDA6A030EDA22DF508B6F8B514B0D39
:103A9800720EF3240D6EE10EF4200E6E0BEC62F044
:103AA8000B500C10D8A409D0910E01019E25D96E97
:103AB800DA6A030EDA22DF50C46F01019E2BFF0E73
:103AC8008B6FFF0E8C6F99518D6F8E6B8B518D277D
:103AD8008C518E239E518F6F906B8D518F5D9051BD
:103AE800800A916F8E51800A9159D8B046D2C2D7B8
:103AF80003015F51D8A414D2000E0101C46F3DD256
:103B08005F0E0001786F030E796FECEC65F078C0FA
:103B18009AF179C09BF17AC09CF17BC09DF19AC162
:103B280023F09BC124F09CC125F09DC126F0000E16
:103B3800276E000E286EC00E296E400E2A6E7BEC92
:103B480059F0D8A014D0000E236E000E246EA00EDB
:103B5800256E420E266E9AC127F09BC128F09CC1A3
:103B680029F09DC12AF07BEC59F0D8B008D08F0E0F
:103B78000101006FF50E016F39EC65F0F8D1C9C38A
:103B88007DF0CAC37EF0CBC37FF0CCC380F071EC6C
:103B98005BF07DC087F07EC088F0AEEC65F087C032
:103BA80015F088C016F0000E16BEFF0E176E186EC0
:103BB800010ED8EC51F015C03CF016C03DF017C00E
:103BC8003EF018C03FF0F6C340F0F7C341F0F8C329
:103BD80042F0F9C343F09DEC45F03CC092F13DC082
:103BE80093F13EC094F13FC095F1000E276E000E90
:103BF800286E200E296E410E2A6E9AC123F09BC1B1
:103C080024F09CC125F09DC126F06EEC3EF023C047
:103C18003CF024C03DF025C03EF026C03FF092C1E4
:103C280040F093C141F094C142F095C143F09DEC3E
:103C380045F03CC0F6F33DC0F7F33EC0F8F33FC093
:103C4800F9F350EC44F093D15F0E0B6E030E0C6E3B
:103C5800020E0D6EFB0E0E6E0BEC62F00B500C108C
:103C6800D8A402D0020E0FD05F0E0B6E030E0C6E9E
:103C7800B10E0D6EFC0E0E6E0BEC62F00B500C10BC
:103C8800D8A404D0010E0101D36FDBD75F0E0B6EF1
:103C9800030E0C6E5A0E0D6EFC0E0E6E0BEC62F0DF
:103CA8000B500C10D8A463D1000E0101D36F50EC57
:103CB80044F0000E526E5BD15F0E0B6E030E0C6E5D
:103CC800B10E0D6EFB0E0E6E0BEC62F00B500C106D
:103CD800D8A402D0010E1FD05F0E0B6E030E0C6E1F
:103CE800AB0E0D6EFC0E0E6E0BEC62F00B500C1052
:103CF800D8A402D0020E0FD05F0E0B6E030E0C6E0E
:103D0800FB0E0D6EFB0E0E6E0BEC62F00B500C10E2
:103D1800D8A42DD1000E536E94D75F0E0B6E030EF0
:103D28000C6EA50E0D6EFC0E0E6E0BEC62F00B50B9
:103D38000C10D8A402D0010E0FD05F0E0B6E030E2C
:103D48000C6E610E0D6EFC0E0E6E0BEC62F00B50DD
:103D58000C10D8A40CD1000E0101D26F72D7000E3E
:103D68009E6F5F0E0B6E030E0C6E9E51090D4F0E6B
:103D7800F3240D6EEE0EF4200E6E0BEC62F00B5079
:103D88000C10D8A404D09EC1D1F150EC44F001012C
:103D98009E2B040E9E65E5D7EAD0000E9E6F5F0E3F
:103DA8000B6E030E0C6E9E510A0D1D0EF3240D6E44
:103DB800EE0EF4200E6E0BEC62F00B500C10D8A433
:103DC80004D09EC1D0F150EC44F001019E2B040EAA
:103DD8009E65E5D7CCD0000E9E6F5F0E0B6E030E6E
:103DE8000C6E9E510A0DA40EF3240D6EEE0EF420F7
:103DF8000E6E0BEC62F00B500C10D8A404D09EC1D0
:103E0800CCF150EC44F001019E2B010E9E65E5D7E4
:103E1800AED05F0E0B6E030E0C6EFB0E0D6EFB0E1E
:103E28000E6E0BEC62F00B500C10D8A402D0000EF2
:103E38000FD05F0E0B6E030E0C6E530E0D6EFC0E44
:103E48000E6E0BEC62F00B500C10D8A490D0010E43
:103E58000101CF6FF6D6000E9E6F5F0E0B6E030E3C
:103E68000C6E9E51190D000EF3240D6E040EF420F5
:103E78000E6E0BEC62F00B500C10D8A409D09EC14A
:103E880039F101013A6BC4518BEC41F050EC44F02C
:103E980001019E2B050E9E65E0D769D05F0E0B6E63
:103EA800030E0C6EEB0E0D6EFC0E0E6E0BEC62F03C
:103EB8000B500C10D8A402D0000E0FD05F0E0B6E62
:103EC800030E0C6ED20E0D6EFC0E0E6E0BEC62F035
:103ED8000B500C10D8A44BD0010E0101CE6FB1D6F7
:103EE8005F0E156E030E166EE3EC59F015C096F1D1
:103EF80016C097F196C139F197C13AF10101C45141
:103F08008BEC41F0986F50EC44F001019851D8A423
:103F18002ED0AC0E006FF70E016F39EC65F027D08C
:103F28000101C451020AD8B4F8D6010AD8B417D787
:103F3800050AD8B4C1D60C0AD8B42FD7010AD8B408
:103F480068D7060AD8B480D6020AD8B4D9D51F0AC9
:103F5800D8B481D7010AD8B43ED7020AD8B49ED7BC
:103F6800070AD8B478D7020AD8B475D7B9D7000EDB
:103F78000101C46FEEEC42F0996F0E0EC465C2D217
:103F8800B40E006FF90E016FC4514B0D110EF326DC
:103F9800000EF422720EF324026FE10EF420036F78
:103FA800C451BAEC3CF0E9C004F1EAC005F139ECBF
:103FB80065F0A8D2060E006FF10E016F39EC65F0BE
:103FC8005B0E0101006FFB0E016F39EC65F0FD0E11
:103FD8000101006FF40E016F39EC65F0E90E010183
:103FE800006FF70E016F030159510101026F036B56
:103FF80002BF030739EC65F0530E0101006FF10EA3
:10400800016F39EC65F0000E01019E6FA2D00A0E17
:10401800006FFA0E016F910E9E25D96EDA6A030EB3
:10402800DA22DF508B6F8B514B0D720EF324026F27
:10403800E10EF420036F910E9E25D96EDA6A030E05
:10404800DA22DF508C6F8C514B0D110EF326000EC7
:10405800F422720EF324046FE10EF420056F39EC9C
:1040680065F0910E01019E25D96EDA6A030EDA22F7
:104078000F0EDE18D8A455D0CA0E006FF60E016FC9
:10408800C9C33CF0CAC33DF0CBC33EF0CCC33FF03C
:10409800000E406E000E416E200E426E410E436EC1
:1040A8009DEC45F03CC002F13DC003F13EC004F177
:1040B8003FC005F1CDC33CF0CEC33DF0CFC33EF0C9
:1040C800D0C33FF0000E406E000E416E200E426ECF
:1040D800410E436E9DEC45F03CC006F13DC007F132
:1040E8003EC008F13FC009F1D1C33CF0D2C33DF056
:1040F800D3C33EF0D4C33FF0000E406E000E416EB5
:10410800200E426E410E436E9DEC45F03CC00AF114
:104118003DC00BF13EC00CF13FC00DF139EC65F02C
:104128000FD0910E9E25D96EDA6A030EDA22DF507F
:10413800BAEC3CF0E9C000F1EAC001F139EC65F0F5
:10414800E60E0101006FF70E016F39EC65F0010111
:104158009E2BFF0E8B6FFF0E8C6F99518D6F8E6BA0
:104168008B518D278C518E239E518F6F906B8D5163
:104178008F5D9051800A916F8E51800A9159D8A015
:1041880046D7F90E006FFC0E016F39EC65F05ED46E
:10419800AA0E006FF30E016FC451BAEC3CF0E9C0EF
:1041A80002F1EAC003F139EC65F050D46D0E006FEE
:1041B800F30E016FC451BAEC3CF0E9C002F1EAC059
:1041C80003F139EC65F042D4C50E006FEF0E016FB4
:1041D800FCC302F1FDC303F139EC65F037D4E30EFB
:1041E800006FF10E016FFAC302F1FBC303F139EC62
:1041F80065F02CD46A0E006FF00E016FDFC302F178
:10420800E0C303F139EC65F021D4E70E006FF30E3B
:10421800016FC451BAEC3CF0E9C002F1EAC003F105
:104228004F0E0101046FEE0E056F39EC65F0010EBB
:1042380001019E6FEF0E006FFC0E016F9E51090D7C
:104248004F0EF324026FEE0EF420036F39EC65F085
:1042580001019E2B040E9E65EDD7670E006FF20ECE
:10426800016F39EC65F02AEF1DF0AE0E006FF20E0B
:10427800016F39EC65F0610E0101006FF50E016FF9
:1042880039EC65F0280E0101006FF20E016FDBC1F9
:1042980002F1DCC103F139EC65F02AEF1DF09C0E48
:1042A800006FF10E016FD7C102F1D8C103F139ECEB
:1042B80065F02AEF1DF0AE0E006FF20E016F39ECBB
:1042C80065F0610E0101006FF50E016F39EC65F0C4
:1042D800EE0E0101006FF20E016FD9C102F1DAC1D1
:1042E80003F139EC65F02AEF1DF0AE0E006FF20E07
:1042F800016F39EC65F0610E0101006FF50E016F79
:1043080039EC65F06B0E0101006FF20E016FD5C13B
:1043180002F1D6C103F139EC65F02AEF1DF0B90EB0
:10432800006FF00E016FC451BAEC3CF0E9C002F125
:10433800EAC003F139EC65F02AEF1DF02E0E006F8C
:10434800F30E016FC451BAEC3CF0E9C002F1EAC0C7
:1043580003F11D0E0101046FEE0E056F39EC65F0D7
:10436800010E01019E6FEF0E006FFC0E016F9E5152
:104378000A0D1D0EF324026FEE0EF420036F39ECC4
:1043880065F001019E2B040E9E65EDD7670E006F48
:10439800F20E016F39EC65F02AEF1DF00B0E006F7D
:1043A800EF0E016FC451BAEC3CF0E9C002F1EAC06B
:1043B80003F139EC65F02AEF1DF0680E006FEF0E7F
:1043C800016FC451BAEC3CF0E9C002F1EAC003F154
:1043D80039EC65F02AEF1DF05A0E006FF40E016FEC
:1043E800C9C33CF0CAC33DF0CBC33EF0CCC33FF0D9
:1043F800000E406E000E416E200E426E410E436E5E
:104408009DEC45F03CC002F13DC003F13EC004F113
:104418003FC005F139EC65F02AEF1DF0A10E006FE1
:10442800F90E016F000E026F040E036F39EC65F090
:10443800010E01019E6FEF0E006FFC0E016F9E5181
:10444800190D000EF324026F040EF420036F39ECEB
:1044580065F001019E2B060E9E65EDD7670E006F75
:10446800F20E016F39EC65F02AEF1DF0C80E006FEF
:10447800F40E016F39EC65F02AEF1DF01A0E006F8B
:10448800F00E016F39EC65F02AEF1DF0210E006F78
:10449800F40E016F39EC65F02AEF1DF0920E006FF3
:1044A800F40E016F39EC65F02AEF1DF05B0E006F1A
:1044B800F80E016FC4514B0D450EF326000EF42281
:1044C800720EF324F66EE10EF420F76E0900F5CFB4
:1044D80002F10A00F5CF03F1C4514B0D470EF32644
:1044E800000EF422720EF324F66EE10EF420F76E3D
:1044F8000900F5CF04F10A00F5CF05F139EC65F0B4
:104508002AEF1DF00101C451000AD8B453D5020A9C
:10451800D8B43ED6010AD8B478D6070AD8B4BFD6DC
:10452800010AD8B4E2D6030AD8B4F9D6010AD8B435
:104538004BD60F0AD8B453D6010AD8B45BD6030AAF
:10454800D8B4FCD6010AD8B429D7070AD8B4B3D648
:10455800010AD8B42BD6030AD8B487D6010AD8B42E
:104568003BD71F0AD8B45AD7010AD8B426D7020AAB
:10457800D8B47CD7070AD8B451D7020AD8B44ED7D2
:104588000E0AD8B47BD7010AD8B480D7020AD8B4A7
:1045980085D78CD7000E0101796F000E0C6E640E62
:1045A8000B6E2CEC64F0000E01018A6F000E896F0F
:1045B8001ED05F0E8925D96E030E8A21DA6E5E0E33
:1045C800DE18D8B42BD05F0E8925D96E030E8A2148
:1045D800DA6E2A0EDE18D8B421D05F0E8925D96E7E
:1045E800030E8A21DA6EDF50791B894B8A2BFE0E67
:1045F800436FFF0E446F03015C510101456F466B29
:1046080043514527445146234551895D8A51800AC3
:10461800476F4651800A4759D8A0CBD78ABF06D0E2
:104628008A510BE1020E895DD8B007D0F30E0E6FE8
:10463800FC0E0F6F55EC60F012005F0E8925D96EE5
:10464800030E8A21DA6E5E0EDE18D8A41ED0600E24
:104658008925176E030E8A21186E000E196E000E3A
:104668001A6E000E1C6E100E1B6EBBEC4EF017502F
:104678000101706F79517019D8B40ED0F30E0E6F16
:10468800FC0E0F6F55EC60F01200F30E0E6FFC0E6F
:104698000F6F55EC60F012000A0E4F6E470E0301C3
:1046A8006019D8B437D365D3CD0E01010E6FFC0E57
:1046B8000F6F55EC60F01200450E01010E6FFC0EF5
:1046C8000F6F55EC60F01200030E01010E6FFC0E27
:1046D8000F6FD5C110F1D6C111F155EC60F0120081
:1046E800F30E01010E6FFC0E0F6F55EC60F0120017
:1046F800DF0E01010E6FFA0E0F6FD5C390F0D6C30F
:1047080091F0000E0001936F0A0E926F13EC63F0A4
:1047180090C010F191C011F1030E0101136F3D0E0D
:10472800126F55EC60F01200A80E01010E6FFB0E1F
:104738000F6F55EC60F01200C1C323F0C2C324F020
:10474800C3C325F0C4C326F0BDC327F0BEC328F0F9
:10475800BFC329F0C0C32AF07BEC59F0D8A023D0FE
:10476800C5C323F0C6C324F0C7C325F0C8C326F0C9
:10477800C1C327F0C2C328F0C3C329F0C4C32AF0B9
:104788007BEC59F0D8A005D0C50E0101776F030E58
:1047980004D0C10E0101776F030E786F77C175F1F0
:1047A80078C176F105D0BD0E0101756F030E766FE5
:1047B800CB51D8A41CD0D5C30FF0D6C310F0000E2F
:1047C800126E640E116E12EC66F00FC015F010C078
:1047D80016F0176A186A000ED8EC51F015C071F17E
:1047E80016C072F117C073F118C074F146D0B1C386
:1047F80071F0B2C372F0B3C373F0B4C374F0B5C34D
:104808006DF0B6C36EF0B7C36FF0B8C370F004ECC8
:1048180040F06DC048F16EC049F16FC04AF170C0F8
:104828004BF1B9C371F0BAC372F0BBC373F0BCC328
:1048380074F048C16DF049C16EF04AC16FF04BC1C8
:1048480070F004EC40F06DC023F06EC024F06FC02F
:1048580025F070C026F0000E276E000E286EC80ED8
:10486800296E420E2A6E6EEC3EF023C071F124C010
:1048780072F125C073F126C074F171C17DF072C167
:104888007EF073C17FF074C180F071EC5BF07DC085
:104898006CF17EC06DF175C1D9FF76C1DAFFDECF4C
:1048A80023F0DECF24F0DECF25F0DECF26F0000E99
:1048B800276E000E286E7A0E296E440E2A6E6EEC54
:1048C8003EF023C083F124C084F125C085F126C0C1
:1048D80086F1D40E01010E6FFA0E0F6F6CC110F144
:1048E8006DC111F183C112F184C113F185C114F1B5
:1048F80086C115F155EC60F01200BD0E01010E6F76
:10490800FC0E0F6F000E116F000E106F55EC60F06B
:10491800120059510F6E106A0FBE1006000E126E6B
:104928000A0E116E12EC66F00FC06EF110C06FF136
:10493800860E01010E6FFA0E0F6F6EC110F16FC176
:1049480011F1F60E136F000E126FF60E156F000EB2
:10495800146F55EC60F01200BA0E01010E6FFB0ED9
:104968000F6FA7EC63F00101436F4351106F116B98
:1049780038C312F139C313F155EC60F01200F30E8D
:1049880001010E6FFC0E0F6F55EC60F01200000E67
:10499800276E000E286E610E296E450E2A6E1CC306
:1049A80023F01DC324F01EC325F01FC326F06EECB0
:1049B8003EF023C04CF124C04DF125C04EF126C075
:1049C8004FF14CC123F04DC124F04EC125F04FC129
:1049D80026F0000E276E000E286E7A0E296E440E01
:1049E8002A6E6EEC3EF023C083F124C084F125C00A
:1049F80085F126C086F114C323F015C324F016C32D
:104A080025F017C326F0000E276E000E286E7A0ECA
:104A1800296E440E2A6E6EEC3EF023C07AF124C053
:104A28007BF125C07CF126C07DF16D0E01010E6F72
:104A3800FA0E0F6F83C110F184C111F185C112F113
:104A480086C113F17AC114F17BC115F17CC116F14D
:104A58007DC117F155EC60F012008E0E01010E6F4A
:104A6800F90E0F6F5B0E106FFB0E116F9F0E126F1A
:104A7800FC0E136F55EC60F01200BD0E01010E6FB5
:104A8800FC0E0F6FD3C110F1116B55EC60F01200E2
:104A9800C9C323F0CAC324F0CBC325F0CCC326F086
:104AA800000E276E000E286EC80E296E420E2A6E62
:104AB8006EEC3EF023C050F124C051F125C052F1F4
:104AC80026C053F1CDC323F0CEC324F0CFC325F0C5
:104AD800D0C326F0000E276E000E286EC80E296E71
:104AE800420E2A6E6EEC3EF023C083F124C084F19E
:104AF80025C085F126C086F1D1C323F0D2C324F0A6
:104B0800D3C325F0D4C326F0000E276E000E286EFE
:104B1800C80E296E420E2A6E6EEC3EF023C07AF162
:104B280024C07BF125C07CF126C07DF1B1C323F000
:104B3800B2C324F0B3C325F0B4C326F0000E276E29
:104B4800000E286EC80E296E420E2A6E6EEC3EF0DC
:104B580023C054F124C055F125C056F126C057F1A1
:104B6800B5C323F0B6C324F0B7C325F0B8C326F005
:104B7800000E276E000E286EC80E296E420E2A6E91
:104B88006EEC3EF023C058F124C059F125C05AF10B
:104B980026C05BF1B9C323F0BAC324F0BBC325F028
:104BA800BCC326F0000E276E000E286EC80E296EB4
:104BB800420E2A6E6EEC3EF023C05CF124C05DF11B
:104BC80025C05EF126C05FF1BDC323F0BEC324F04B
:104BD800BFC325F0C0C326F0000E276E000E286E56
:104BE8007A0E296E440E2A6E6EEC3EF023C060F1F8
:104BF80024C061F125C062F126C063F1C1C323F06E
:104C0800C2C324F0C3C325F0C4C326F0000E276E28
:104C1800000E286E7A0E296E440E2A6E6EEC3EF057
:104C280023C064F124C065F125C066F126C067F190
:104C3800C5C323F0C6C324F0C7C325F0C8C326F0F4
:104C4800000E276E000E286E7A0E296E440E2A6E0C
:104C58006EEC3EF023C068F124C069F125C06AF10A
:104C680026C06BF1310E01010E6FF50E0F6F50C1AA
:104C780010F151C111F152C112F153C113F183C1A5
:104C880014F184C115F185C116F186C117F17AC1F5
:104C980018F17BC119F17CC11AF17DC11BF154C116
:104CA8001CF155C11DF156C11EF157C11FF158C164
:104CB80020F159C121F15AC122F15BC123F15CC134
:104CC80024F15DC125F15EC126F15FC127F160C104
:104CD80028F161C129F162C12AF163C12BF164C1D4
:104CE8002CF165C12DF166C12EF167C12FF168C1A4
:104CF80030F169C131F16AC132F16BC133F155EC60
:104D080060F01200F30E01010E6FFC0E0F6F55ECF0
:104D180060F012006151330AD8B4C6D4720AD8B40C
:104D2800CBD4020AD8B4D0D4070AD8B4D9D4010A4B
:104D3800D8B4DED4030AD8B4F7D4010AD8B4FCD462
:104D48000F0AD8B4DAD5180AD8B4E3D5030AD8B408
:104D580003D6070AD8B413D6010AD8B418D6030A5A
:104D6800D8B47BD60E0AD8B488D6010AD8B490D65F
:104D7800C9D7460E6019D8B4A0D0BCD0F60E010130
:104D88000E6FFC0E0F6F55EC60F0FF001200F60E70
:104D980001010E6FFC0E0F6F55EC60F01200F30E60
:104DA80001010E6FFC0E0F6F55EC60F01200F60E4D
:104DB80001010E6FFC0E0F6F55EC60F0000E030141
:104DC8004F6F010E546E4F50D8A408D07B0E0101CE
:104DD800006FF90E016F39EC65F01200A7EC63F073
:104DE8000101806F8051C919D8B41200130E0E6FDB
:104DF800FC0E0F6F80C110F1116B55EC60F080C193
:104E0800C9F11200F60E01010E6FFC0E0F6F55EC82
:104E180060F0010E03014F6F4F50D8A408D07B0EED
:104E28000101006FF90E016F39EC65F01200A7EC73
:104E380063F00101816F8151C919D8B41200130EB2
:104E48000E6FFC0E0F6F81C110F1116B55EC60F005
:104E580081C1C9F11200F60E01010E6FFC0E0F6F31
:104E680055EC60F0010E546E3C0E506E4F50D8A4B5
:104E780008D07B0E0101006FF90E016F39EC65F067
:104E88001200A7EC63F00101826F8251C919D8B4EE
:104E98001200130E0E6FFC0E0F6F82C110F1116B12
:104EA80055EC60F082C1C9F11200F30E01010E6FDA
:104EB800FC0E0F6F55EC60F012006151300AD8B447
:104EC80066D7010AD8B463D7730AD8B460D7060A7C
:104ED800D8B46DD7010AD8B495D7030AD8B45FD728
:104EE800160AD8B454D7020AD8B448D7010AD8B495
:104EF800B2D7DBD7530E6019D8B4BED0C8D0050ED0
:104F08005C6557D0620E156E030E166EE3EC59F011
:104F180015C087F116C088F1010188BF1BD08851E0
:104F280004E1060E875DD8A015D08751DB5D885156
:104F3800DC59D8A00FD087C1D9F188C1DAF1BD0EEC
:104F48000E6FFC0E0F6FD9C110F1DAC111F155ECDB
:104F580060F021D088BF06D0885109E1060E875D30
:104F6800D8B005D0000EDA6F060ED96F0AD0875177
:104F7800DB5D8851DC59D8B004D0DBC1D9F1DCC184
:104F8800DAF1B70E0E6FFC0E0F6FD9C110F1DAC14E
:104F980011F155EC60F05B0E03015C25D96EDA6AFD
:104FA800030EDA22560EDE18D8B4120050EC44F084
:104FB8001200B70E01010E6FFC0E0F6FD9C110F170
:104FC800DAC111F155EC60F01200F30E01010E6F19
:104FD800FC0E0F6F55EC60F01200050E5C653CD0BE
:104FE800620E156E030E166EE3EC59F015C07EF1D5
:104FF80016C07FF101017FBF28D07FBF06D07F5147
:1050080024E1030E7E5DD8B020D07EC1D3F1000E1E
:10501800506E000E03014C6F0101D105D8A40DD0CC
:10502800D351D8B40AD0000E316EA80E306ED3C159
:1050380032F0336A000EA0EC64F0F60E01010E6F38
:10504800FC0E0F6F55EC60F01200F30E0E6FFC0EA5
:105058000F6F55EC60F01200F30E01010E6FFC0E9D
:105068000F6F55EC60F01200F30E01010E6FFC0E8D
:105078000F6F55EC60F012006151430AD8B43FD766
:105088000F0AD8B4A2D7140AD8B4A7D7EDD7F30E0D
:1050980001010E6FFC0E0F6F55EC60F0120001015C
:1050A800C251D8B409D0C32B790EC319D8A41200A1
:1050B800000EC26FE2EC46F00A0E0101C319D8A433
:1050C80002D0000EC36F5250D8B4E5D089863C0E8A
:1050D80003015A6F52A221D0840E0001A36FFB0E68
:1050E800A46F000E78EC52F0A80E0001A36FFA0E20
:1050F800A46F020E78EC52F07B0E0001A36FFC0E39
:10510800A46F040E78EC52F0290E0001A36FFC0E78
:10511800A46F060E78EC52F0120052A421D0F40EBF
:105128000001A36FFA0EA46F000E78EC52F0810E06
:105138000001A36FFC0EA46F020E78EC52F0720E01
:105148000001A36FFB0EA46F040E78EC52F0C30E9F
:105158000001A36FFB0EA46F060E78EC52F012004C
:1051680052A849D00101C32BC305436F050E436103
:1051780021D07B0E0001A36FFB0EA46F000E78EC0C
:1051880052F0930E0001A36FFC0EA46F020E78EC90
:1051980052F0D30E0001A36FFB0EA46F040E78EC3F
:1051A80052F0690E0001A36FFB0EA46F060E78EC97
:1051B80052F01200870E0001A36FFC0EA46F000EC0
:1051C80078EC52F0300E0001A36FFC0EA46F020EB3
:1051D80078EC52F0930E0001A36FFB0EA46F040E3F
:1051E80078EC52F08D0E0001A36FFC0EA46F060E32
:1051F80078EC52F0120052AC3BD0E30E0001A36FE2
:10520800FB0EA46F020E78EC52F0920E0001A36F11
:10521800FA0EA46F040E78EC52F0000E0301336FFF
:10522800640E326F0A0E0F6E0101C05168EC64F013
:105238000101436F300E43250001996F9A6B000EF0
:105248009A2332EC51F00A0E0B6E0101C051C3ECE7
:1052580065F00101436F300E43250001996F9A6B89
:10526800000E9A2332EC51F0040E3AEC62F0120070
:1052780052AE11D0B30E0001A36FFA0EA46F020E46
:1052880078EC52F0BE0E0001A36FFA0EA46F040E64
:1052980078EC52F01200500E0101C019D8A411D0B8
:1052A800E30E0001A36FFB0EA46F020E78EC52F020
:1052B8003E0E0001A36FFC0EA46F040E78EC52F0B2
:1052C8001200C32BD351D8B404D003014F51D8A432
:1052D800E4D0000E106E000E8EEC66F0040E106E18
:1052E800010E8EEC66F0100E106E060E8EEC66F057
:1052F800000E106E070E8EEC66F052A011D0CB0E89
:105308000001A36FFB0EA46F020E78EC52F0080E9A
:105318000001A36FFB0EA46F040E78EC52F0E7D3E4
:10532800030E5418D8A44BD089863C0E03015A6F3B
:10533800720E0001A36FFB0EA46F020E78EC52F000
:10534800D5C315F0D6C316F0176A186A000ED8EC44
:1053580051F015C03CF016C03DF017C03EF018C023
:105368003FF0000E406E000E416E200E426E410E60
:10537800436E9DEC45F03CC052F13DC053F13EC038
:1053880054F13FC055F1460EE96F010EEA6F620E07
:10539800EB6FFB0EEC6F52C1EDF053C1EEF054C150
:1053A800EFF055C1F0F0010EF16FC0EC4BF0460E76
:1053B800A36F010EA46F040E78EC52F098D3540436
:1053C800D8A41AD0030E0101C719D8B415D0020EFB
:1053D800C719D8B411D0DB0E0001A36FFB0EA46F60
:1053E800020E78EC52F0EA0E0001A36FFA0EA46FD9
:1053F800040E78EC52F07BD303014F51D8B43CD063
:105408008D0E0001A36FFB0EA46F020E78EC52F014
:105418004E0E0001A36FFB0EA46F040E78EC52F041
:105428005050D8B464D3000E0301336F640E326F4A
:105438000A0E0F6E505068EC64F00101436F300E95
:1054480043250001996F9A6B000E9A2332EC51F0B4
:105458000A0E0B6E5050C3EC65F00101436F300E1D
:1054680043250001996F9A6B000E9A2332EC51F094
:10547800040E3AEC62F03BD3370E0001A36FFC0E2A
:10548800A46F020E78EC52F0220E0001A36FFC0EFE
:10549800A46F040E78EC52F02AD30101D305D8B4D6
:1054A80004D0020ED319D8A422D3D4EC64F0D305C7
:1054B800D8A418D0000E566F0C0E566501D012D025
:1054C8001C0E5625D96EDA6A060EDA22000EDF6E39
:1054D8009C0E5625D96EDA6A060EDA22000EDF6EA9
:1054E800562BEAD703014C51D8A411D0000E010164
:1054F800566F070E566501D05AD02E0E5625D96E16
:10550800DA6A060EDA22000EDF6E562BF2D7FAC3DD
:105518000FF0FBC310F0000E126E3C0E116E12EC71
:1055280066F00FC050F110C051F103013451010170
:10553800505D506F0301355101015159516F50C1F0
:1055480090F051C191F0000E0001936F3C0E926FE4
:1055580013EC63F090C044F191C045F150C18BF059
:1055680051C18CF0000E8E6F3C0E8D6FCAEC63F04B
:105578008BC050F18CC051F1460EDB6F010EDC6F11
:10558800120EDD6FFB0EDE6F44C1DFF045C1E0F0A7
:1055980050C1E1F051C1E2F04BEC64F0000E1D6E19
:1055A800460E1E6E010E1F6E640ED7EC5EF00301F0
:1055B8003FAF07D0030EF45F140EF46109D02C0E30
:1055C80006D0030EF4272C0EF46502D0140EF46FE7
:1055D800F4C332F3336B000EDE6F030EDD6F3EC390
:1055E80087F03FC388F0AEEC65F088BF0CD08851D7
:1055F80004E1040E875DD8A006D0000E166EFE0EDC
:10560800156E12EC5BF00101CB51D8B427D0460ED1
:105618000001E96F010EEA6FEB0EEB6FFB0EEC6F0A
:105628001CC3EDF01DC3EEF01EC3EFF01FC3F0F076
:10563800010EF16FC0EC4BF0000E1D6E460E1E6E93
:10564800010E1F6E640ED7EC5EF0010E1D6ED70EB4
:105658001E6EFC0E1F6E6A0ED7EC5EF0030E541819
:10566800D8A4A8D089863C0E03015A6F030EF327ED
:10567800590EF36502D04A0EF36FF3C332F3336B5E
:10568800000EDE6F030EDD6F000E166EFE0E156E39
:1056980012EC5BF00101CB51D8B44CD0020ED319F7
:1056A800D8B448D0000E566F020E566501D082D08D
:1056B8005651040DB10EF324D96E030EF420DA6EA0
:1056C800DECF3CF0DECF3DF0DECF3EF0DECF3FF068
:1056D800000E406E000E416E200E426E410E436E6B
:1056E8009DEC45F03CC052F13DC053F13EC054F131
:1056F8003FC055F1460EE96F010EEA6FC80EEB6F19
:10570800FC0EEC6F52C1EDF053C1EEF054C1EFF056
:1057180055C1F0F0000EF16FC0EC4BF056C11DF012
:10572800460E1E6E010E1F6E4D0ED7EC5EF0010187
:10573800562BBAD7D5C315F0D6C316F0176A186A10
:10574800000ED8EC51F015C03CF016C03DF017C063
:105758003EF018C03FF0000E406E000E416E200E65
:10576800426E410E436E9DEC45F03CC052F13DC087
:1057780053F13EC054F13FC055F1460EE96F010E9A
:10578800EA6FC80EEB6FFC0EEC6F52C1EDF053C11F
:10579800EEF054C1EFF055C1F0F0000EF16FC0EC1F
:1057A8004BF0020E1D6E460E1E6E010E1F6E4D0E44
:1057B800D7EC5EF0050E0101C36157D0020ED31974
:1057C800D8A453D0000E0301336F290E326F000E98
:1057D800DE6F010EDD6F000E166EE30E156E12EC15
:1057E8005BF03EC315F03FC316F0000E16BEFF0E69
:1057F800176E186E010ED8EC51F015C03CF016C0AB
:105808003DF017C03EF018C03FF0000E406E000E8D
:10581800416E200E426E410E436E9DEC45F03CC039
:1058280052F13DC053F13EC054F13FC055F1460E10
:10583800E96F010EEA6FC30EEB6FFC0EEC6F52C1FD
:10584800EDF053C1EEF054C1EFF055C1F0F0000E89
:10585800F16FC0EC4BF0020E1D6E460E1E6E010E6F
:105868001F6E170ED7EC5EF048D0000E566F020E72
:10587800566501D042D05651040DC90EF324D96E95
:10588800030EF420DA6EDECF3CF0DECF3DF0DECF43
:105898003EF0DECF3FF0000E406E000E416E200E4F
:1058A800426E410E436E9DEC45F03CC052F13DC046
:1058B80053F13EC054F13FC055F1460EE96F010E59
:1058C800EA6FC30EEB6FFC0EEC6F52C1EDF053C1E3
:1058D800EEF054C1EFF055C1F0F0000EF16FC0ECDE
:1058E8004BF056C11DF0460E1E6E010E1F6E170EB0
:1058F800D7EC5EF00101562BBAD7000EC1EC57F079
:10590800000E106E040E8EEC66F052A016D0050E36
:105918000101C36109D0CB0E0001A36FFB0EA46F78
:10592800050E78EC52F0DED0080E0001A36FFB0ED6
:10593800A46F050E78EC52F0D5D052AA16D0050EF9
:105948000101C36109D0CB0E0001A36FFB0EA46F48
:10595800050E78EC52F0C6D0FE0E0001A36FFA0EC9
:10596800A46F050E78EC52F0BDD05050D8B41DD0BD
:105978005404D8B404D0020E5418D8A416D0460E35
:105988000001DB6F010EDC6F960EDD6FFB0EDE6F24
:1059980050C0DFF0E06B4BEC64F0460EA36F010ED5
:1059A800A46F050E78EC52F09DD05404D8A412D000
:1059B800030E0101C719D8B40DD0020EC719D8B407
:1059C80009D0990E0001A36FFC0EA46F050E78ECA8
:1059D80052F088D0020E5418D8B40CD05404D8A46D
:1059E80012D0030E0101C719D8B404D0020EC7198A
:1059F800D8A409D0EA0E0001A36FFA0EA46F050E11
:105A080078EC52F06FD0030E5418D8A46BD0898666
:105A18003C0E03015A6F070E0101C36125D0040E25
:105A2800C36119D0D351D8B416D0020ED319D8A453
:105A380009D0020E0001A36FFB0EA46F050E78ECCF
:105A480052F050D0B10E0001A36FFC0EA46F050EEA
:105A580078EC52F047D0720E0001A36FFB0EA46FD2
:105A6800050E78EC52F03ED0D5C315F0D6C316F02B
:105A7800176A186A000ED8EC51F015C03CF016C031
:105A88003DF017C03EF018C03FF0000E406E000E0B
:105A9800416E200E426E410E436E9DEC45F03CC0B7
:105AA80052F13DC053F13EC054F13FC055F1460E8E
:105AB800E96F010EEA6F600EEB6FFB0EEC6F52C1DF
:105AC800EDF053C1EEF054C1EFF055C1F0F0010E06
