:020000040000FA
:0600000096EF08F012006B
:020006000000F8
:08000800D88801D0D8984AE81D
:10001000D9CFE6FFDACFE6FFE1CFD9FFE2CFDAFFB3
:1000200094E9D8B8037E086A06EC01F01EEC01F0F2
:1000300008B6EAEF00F008A20AD008AA03D008BE6A
:10004000EAEF00F008A4F6EF00F0F3EF00F008AAE2
:1000500005D008ACF6EF00F0F3EF00F008A00AD0EE
:1000600008A808D008BE04D008A402D0FFEF00F012
:1000700003EF01F0096A0E6A0350075C106E10E38B
:1000800084EB0AF085EB0BF086EB0CF087EB0FF0BE
:1000900080EB04F081EB05F082EB06F0083A09D022
:1000A00080EB0AF081EB0BF082EB0CF083EB0FF0AE
:1000B000106C089E08BC088E8FEB0DF008B0D5EFD1
:1000C00000F01A0E1060D5EF00F00D6A076A08A460
:1000D00008D0046C051E061E071EE86A05220622CB
:1000E000072208AC08D00A6C0B1E0C1E0D1EE86A15
:1000F0000B220C220D22116A105207E0073406323F
:10010000053204321132102EF9D704500A26055058
:100110000B2206500C2207500D2291EB09F0089E8D
:100120000DAE0BD0096C0A1E0B1E0C1E0D1EE86ACC
:100130000A220B220C220D22088E0DA006D0D88098
:100140000C320B320A3209320F2A8FEB0DF0A9EF75
:1001500000F00C500B100A10091055E00EBE4DD0E7
:100160000CBE0CD00D500E1048E0D89009360A365F
:100170000B360C360D06D8A00E06F2D70E5031E124
:100180000D282FE009AE11D07F0E091402E10AA05C
:100190000CD00A2AE86A0B220C2207E3D8800C3222
:1001A0000B320A320D2A0D281CE00D5026E08AEB96
:1001B00000F08BEB01F00C34026E0D30036E023256
:1001C000039E08BE038EE552E5CFDAFFE7CFD9FFE5
:1001D0004EE912007F0E036EFF0E026E016E006E7E
:1001E000F2D77F0E08BEFF0E036E02D07F0E036EA5
:1001F000800E026E016A006AE6D708AE04D0800E57
:10020000036E026AF7D7036A026AF4D70636073626
:1002100002E30884087E06E10880076A066A056A28
:10022000046A1200072803E0D88006321200D89032
:10023000063202E1088212000886120002360336F6
:1002400002E3088C087E06E10888036A026A016AF4
:10025000006A1200032803E0D88002321200D8900E
:100260000232EAE1088A1200D89801D0D88850E812
:10027000D9CFE6FFDACFE6FFE1CFD9FFE2CFDAFF51
:1002800094E9089E07E701AE05D0006C011EE86AFC
:100290000122088E81EB0CF080EB0BF00A6A096AF0
:1002A0008E0E0D6E0E6AA9EF00F04AE8D9CFE6FF78
:1002B000DACFE6FFE1CFD9FFE2CFDAFF94E9086AAF
:1002C00006EC01F01EEC01F008B6EAEF00F008A21F
:1002D00005D008BAEAEF00F0F1EF00F008BAFDEF40
:1002E00000F008A005D008B8EAEF00F0FDEF00F03C
:1002F00008B8F1EF00F00E6A7F0E07240D6EE86A71
:100300000E2203500D5EE86A0E5A1A0E0F6E076A2F
:10031000096A0A6A0B6A0C6A0050045E0150055AA9
:100320000250065A000E075A09E7005004260150F1
:10033000052202500622000E072201D0098AD89019
:100340000436053606360736D89009360A360B3697
:100350000C360F2EE1D7065005100410D8A4098AD8
:10036000A9EF00F04AE8D9CFE6FFDACFE6FFE1CF08
:10037000D9FFE2CFDAFF94E9086A06EC01F01EEC3F
:1003800001F008B6EAEF00F008A205D008B8EAEFDD
:1003900000F0F1EF00F008AA05D008B0EAEF00F095
:1003A000F1EF00F008B002D008A802D0FDEF00F095
:1003B0000E6A035007240D6EE86A0E227E0E0D5E53
:1003C000E86A0E5A096A0A6A0B6A0C6A0250060247
:1003D000F4500C6EF3500B6E01500602F3500A26D7
:1003E000F4500B22000E0C2202500502F3500A2694
:1003F000F4500B22000E0C2200500602F350092686
:10040000F4500A22000E0B220C2201500502F35078
:100410000926F4500A22000E0B220C22025004027C
:10042000F3500926F4500A22000E0B220C22005031
:100430000502F4500926000E0A220B220C2201505C
:100440000402F4500926000E0A220B220C22A9EF06
:1004500000F043E8D9CFE6FFDACFE6FFE1CFD9FFDE
:10046000E2CFDAFF89E9066A1200F3DF068001D0E5
:10047000F0DF01AE42EF02F0006C011EE86A0122DB
:1004800006B0067E03AE4AEF02F0026C031EE86A75
:100490000322067EF2EC02F003BE6CEF02F006AE21
:1004A00008D0026C031EE86A0322046C051EE86A89
:1004B000052206B006D084EB00F085EB01F006A023
:1004C00004D082EB00F083EB01F0E552E5CFDAFFD8
:1004D000E7CFD9FF45E9000C06BE51EF02F0E9DF96
:1004E000FF0C7AEC02F0E8B6000CE8B0000CE8A4CF
:1004F000000C010C47E8D9CFE6FFDACFE6FFE1CFE9
:10050000D9FFE2CFDAFF91E9086A06EC01F01EECB0
:1005100001F008B64ED008AE08D008A004D008A854
:1005200002D0088046D0089044D00350075C0BE10D
:100530000250065C08E10150055C05E10050045CD6
:1005400002E1088036D0D8A002D0088E10D0075023
:100550000318071A031A06500218061A021A055041
:100560000118051A011A04500018041A001A035041
:10057000075C10E0FF0F09E0089008B403D008AE54
:10058000088417D008AE089414D0032AD8900232F9
:10059000013200320050045E0150055A0250065AE2
:1005A00006BEEAD7D890043605360636072EF8D7A9
:1005B000C8D70850E552E5CFDAFFE7CFD9FF4FE9BA
:1005C000120043E8D9CFE6FFDACFE6FFE1CFD9FF4B
:1005D000E2CFDAFF89E9066A1200F3DF068003D072
:1005E000F0DF01D00682056A046A100EE76ED8902B
:1005F00002360336043605360050045C01500558B7
:1006000005E30050045E0150055A022AE72EF0D798
:1006100006B2120006B006D084EB00F085EB01F0C4
:1006200006A004D082EB00F083EB01F0E552E5CFA9
:0A063000DAFFE7CFD9FF45E9120019
:06063A00FED982E99EA832
:10064000FED700EBADFF41E9E7CFD9FF1200F4D9A7
:1006500084E946E8046805680050000600092FE0B8
:100660001EDAEF50066E076AE8BE0768086A096A74
:10067000080ED89009BE03D0085C000E09581BE292
:10068000000104500618606F055007186051010BF7
:1006900008E0D89005320432080E041A840E051AB8
:1006A00003D0D89005320432D89007320632082A97
:1006B000000E0922DDD7012A000E0222CDD7FF0E3F
:1006C000041A051A04EBF3FF05EBF4FF47E9E7CF43
:1006D000D9FF1200B1D981E941E8AE50016E42E97B
:1006E000E7CFD9FF1200A8D984E941E8818C7E0EBA
:1006F000E66EA3DF41E90050000600091FE0CFD9F4
:10070000012A000E0222EF50046E110E045C0CE070
:10071000120E045C09E0130E045C06E07E0E045C1D
:1007200003E07D0E045C07E1200E0418046E7D0ECC
:10073000E66E83DF41E904EBE6FFDBD77E0EE66E73
:100740007CDF41E9ACA2FED7819C42E9E7CFD9FF2B
:100750001200C282C2B2FED7C3CFF3FFC4CFF4FFF0
:1007600012006AD982E947E8040E0024086E085096
:10077000040DF328086E08EBC2FF046A056A066AD6
:10078000076A6AD9EECF40F0EDCF41F05AD9EECFEB
:1007900046F0EECF47F0EECF48F0EFCF49F0026AD7
:1007A000036A000E025C080E035850E240C03EF09F
:1007B00041C03FF0CEDFF3CF40F0F4CF41F046C070
:1007C00042F047C043F048C044F049C045F03EC045
:1007D000E6FF3FC0E6FF34EC01F040C0E6FF41C059
:1007E000E6FF34EC01F042C0E6FF43C0E6FF44C040
:1007F000E6FF45C0E6FF06EC00F004EC00F0DB0E7F
:10080000E66EF90EE66E7E0EE66E3F0EE66EB2EC1A
:1008100001F0E552E5CF49F0E5CF48F0E5CF47F0EC
:10082000E7CF46F023D922D9B2EC01F028D906EC63
:1008300000F0E552E550076EE550066EE550056E96
:10084000E750046E022A000E0322ABD705D940C040
:10085000EEFF41C0EDFFF5D846C0EEFF47C0EEFF0A
:1008600048C0EEFF49C0EEFFE66AE66AE66A450E5A
:10087000E66E05D955EC01F05EEC05F044E948E977
:10088000E7CFD9FF1200E00ED36E806A896AF00EBE
:100890007E6E7F6A200E926E816A936A826A0F0E64
:1008A000946E1A0EB06E0A0EAF6E080EB86E240E5D
:1008B000AC6E900EAB6EC26AC16A820EC06E870EBD
:1008C000D56E1200B9D881E946E8DDDF036AD89019
:1008D000035002E6030E035C05E29ED8E9BEEA6817
:1008E0007AD8F5D7036AD890035002E6030E035C6A
:1008F00005E292D8E9BEEA686ED8F5D7D76AD66A1B
:100900009EAA03D0E7DED76AD66AABA202D0AB9824
:10091000AB88D650036E050ED75CF2E30001006988
:10092000030E016F500E026F010E036F046F030E72
:10093000056F060E046E036AD890035002E6030E9C
:10094000035C2CE203EB60F00001616B60BF616946
:10095000D89060376137D89060376137320E6025A4
:10096000016E000E6121026E9AD8EF50E66E9CD89F
:10097000E9BEEA684CD8012842D8E9BEEA6847D8FF
:10098000020E01243CD8E9BEEA6841D8030E0124D6
:1009900036D8E9BEEA683BD8032ACED779D857DEE5
:1009A00043E9F350056EF450066E7ED8E9BEEA685E
:1009B00080D805EBEFFF000106EB60F0616B74D8A7
:1009C000E9BEEA6876D860C0EFFF828A61D88BDE24
:1009D00043E9829A87D7D890E936EA36D890E93643
:1009E000EA36320EE926000EEA2260C0EEFF61C050
:1009F000EEFF62C0EEFF63C0EEFF032A1200E96E55
:100A0000000E0220EA6EEF50E66E54EF05F051D86A
:100A1000E552E750EF6E120003EBE6FFA2DE41E97C
:100A20005CC060F05DC061F05EC062F05FC063F00A
:100A300003EBE9FFEA6A1200D9CFE6FFE1CFD9FF65
:100A400012000050040DF3CFE9FFF4CFEAFF500E7F
:100A5000E926000EEA221200EA6A0034FE0BE96E73
:100A6000EA364A0EE926000EEA22120046C0E6FFE8
:100A700047C0E6FF48C0E6FF49C0E6FF120004EBAE
:100A8000E6FF05EBE6FF06EBE6FF07EBE6FF1200ED
:100A900004EBE6FF000EE66E000EE66E120001EBC0
:100AA000E9FF02EBEAFF12000450042AE96EEA6A49
:0C0AB0001200000EE926000EEA221200DF
:040ABC00D9CFE6FFA9
:100AC000DACFE6FFE1CFD9FFE2CFDAFF86E964E8CB
:100AD00080EB08F081EB09F082EB0AF083EB0BF07E
:100AE0005AD93CD966EC07F046E9136E800E135CC8
:100AF0000DE0E66AE66AE66AE66A30D971EC02F071
:100B0000000909E0210E0001766F776B086809681B
:100B10000A687F0E14D1050E131401E011D1830E63
:100B20001024066EFF0E1120076E8CEB1EF08DEB6D
:100B30001FF08EEB20F08FEB21F00650010B0CE044
:100B40000606000E075A2ED9D890EF36010EEB3666
:100B5000020EEB36030EEB36020EE66EE66A06EB8D
:100B6000E6FF07EBE6FF35EC02F0E552E550076ED5
:100B7000E750066E1A6A1B6A1C6A1D6A226A236A9B
:100B8000246A010E256E146E156A1A0ED89015BED1
:100B900003D0145C000E155801E37AD01EEB60F010
:100BA0001FEB61F020EB62F021EB63F0010E1F0BF5
:100BB00008E00001D8906037613762376337E80694
:100BC000F9E1000160511E6E61511F6E6251206E8D
:100BD0006351216E1AEB64F01BEB65F01CEB66F0C1
:100BE0001DEB67F0010E1F0B08E00001D890643781
:100BF000653766376737E806F9E122EB68F023EBE3
:100C000069F024EB6AF025EB6BF000016851642772
:100C1000695165236A5166236B516723C3D86451B8
:100C2000EE5C606F6551EE58616F6651EE58626F11
:100C30006751EE58636F6051266E6151276E6251A5
:100C4000286E6351296E29341CE226500008000EDC
:100C50002754000E2854000E295413E2A6EB1EF070
:100C6000A7EB1FF0A8EB20F0A9EB21F0D9501A0F49
:100C70009DD82250EE122350EE122450EE12255031
:100C8000EE12D950220F73D8142A000E15227DD7E8
:100C900078D800016017616B626B636B6051166EF0
:100CA0006151176E9EEB18F09FEB19F0D9501A0F97
:100CB0005ED81650171015E0185019100AE161D8C7
:100CC0006017616B626B636B60516111621163113C
:100CD00008E0D9501A0F6AD8EE2A000EEE22EE2252
:100CE000EE22126A9AEB0CF09BEB0DF09CEB0EF0EF
:100CF0009DEB0FF07E0E106E116AD950080FE66E54
:100D0000000EDA20E66E47D8DBEC06F044E906EB8D
:100D1000E6FF07EBE6FF22D8D9EC07F046E95CC016
:100D200060F05DC061F05EC062F05FC063F0000122
:100D30006051086E6151096E62510A6E63510B6E0B
:100D400008EB5CF009EB5DF00AEB5EF00BEB5FF09B
:100D500065E9E5CFDAFFE7CFD9FF120008EBE6FF40
:100D600009EBE6FF0AEBE6FF0BEBE6FF12001ED8ED
:100D7000D890030EEB32020EEB32010EEB32EF3263
:100D800012001AEB60F01BEB61F01CEB62F01DEB44
:100D900063F0010E1200D9500C0FE66E000EDA203F
:100DA000E66E1200D9501E0FD6EF06F0E96E000E67
:060DB000DA20EA6E1200D9
:0A0DB600D9CFE6FFDACFE6FFE1CF68
:100DC000D9FFE2CFDAFF86E95CD80001613511E294
:100DD0006051FE08000E61550CE26DD805E063D845
:100DE000800EEE6EEE6847D05ED8800EEE6E7F0EFF
:100DF0000ED047D8010ED89061BF03D0605D000EC1
:100E000061590BE258D805E04ED8EE6A800EEE6EBE
:100E100032D049D8EE6AEE6A2ED053D8EECF60F0C9
:100E2000EECF61F0EECF62F0EFCF63F032D860C06A
:100E3000EEFF61C0EEFF62C0EEFF63C0EEFF21D89F
:100E40006051010B05E025D8020E31D8EF8E04D099
:100E500020D8020E2CD8EF9E14D8D890613360337E
:100E600018D8030E24D860C0EFFF18D804E011D8BA
:100E7000030E1DD8EF8E41E9E5CFDAFFE7CFD9FFAA
:100E800012001FD8040E13D8EECF60F0EFCF61F040
:100E9000120000EBE9FF01EBEAFF120012D8060E88
:100EA00006D8EF501200F5DFEE6AEE6A1200E9266E
:100EB000000EEA221200220E0001766F776B4EEFD1
:0C0EC00007F002EBE9FF03EBEAFF120071
:040ECC00D9CFE6FF95
:100ED000DACFE6FFE1CFD9FFE2CFDAFF88E941E8D8
:100EE00002EB60F003EB61F004EB62F00001629F43
:100EF000636B5AD860C0EEFF61C0EEFF62C0EEFFC8
:100F000063C0EEFF800E051402E0010E01D0000E5A
:100F1000E66E4AD8060EE926000EEA22E552E750B0
:100F2000EF6ED890043605360550E66E3DD8040EB7
:100F3000E926000EEA22E552E750EE6EED6AFF0E5A
:100F4000F36EF46AF350051818E1F45016E12CD84A
:100F5000EECF60F0EECF61F0EECF62F0EFCF63F056
:100F6000605161116211631106E0210E0001766F7C
:100F7000776B800E0AD0040E08D0055008E114D813
:100F8000EE6AEE6AEE6AEE6A010E086E06D0020E96
:100F9000086E0AD8EE52EE52EE8E085042E9E5CFC6
:100FA000DAFFE7CFD9FF120000EBE9FF01EBEAFF20
:020FB00012002D
:0E0FB200D9CFE6FFDACFE6FFE1CFD9FFE2CFDD
:100FC000DAFF88E94CE882EB10F083EB11F084EB58
:100FD00012F085EB13F044D810EBE6FF11EBE6FFBF
:100FE00012EBE6FF13EBE6FF66EC07F046E90F6E47
:100FF000840E0F1427E10F0417E10E5007E00001E3
:10100000606B616B626B800E636F05D00001606B7B
:10101000616B626B636B6051106E6151116E625156
:10102000126E6351136E0ED000500C2601500D222B
:10103000D950100FE66E000EDA20E66E11D8DBEC08
:1010400006F044E910EB5CF011EB5DF012EB5EF0A2
:1010500013EB5FF04DE9E5CFDAFFE7CFD9FF1200E0
:0E106000D950080FE66E000EDA20E66E120080
:02106E00060E6C
:10107000F66E000EF76E000EF86E00010900F550D6
:10108000716F0900F550726F03E1716701D03DD0B7
:101090000900F5506C6F0900F5506D6F0900F550AF
:1010A0006E6F09000900F550E96E0900F550EA6E0F
:1010B000090009000900F5506F6F0900F550706FC5
:1010C00009000900F6CF73F0F7CF74F0F8CF75F090
:1010D0006CC0F6FF6DC0F7FF6EC0F8FF00016F53E4
:1010E00002E1705307E00900F550EE6E6F07F8E279
:1010F0007007F9D773C0F6FF74C0F7FF75C0F8FF2B
:0C11000000017107000E725BBFD71200E7
:04110C00000EF36E70
:1011100000EE00F0020E01D81200EA6002D0EE6A82
:0C112000FCD7F350E9601200EE6AFCD727
:04112C0011EE00F0D0
:1011300021EE00F0F86A37EC08F0A3EC08F062EC5E
:0611400004F0FBD71200D1
:02114600120095
:020000040030CA
:0100010038C6
:0100020000FD
:0100030016E6
:0100050000FA
:01000600C138
:0100080003F4
:01000900C036
:01000A0003F2
:01000B00E014
:01000C0003F0
:01000D0040B2
:00000001FF
